{
	"kash_vesting_flattened.sol": {
		"VestingWallet": {
			"abi": [
				{
					"inputs": [
						{
							"internalType": "address",
							"name": "beneficiary",
							"type": "address"
						},
						{
							"internalType": "uint64",
							"name": "startTimestamp",
							"type": "uint64"
						},
						{
							"internalType": "uint64",
							"name": "durationSeconds",
							"type": "uint64"
						}
					],
					"stateMutability": "payable",
					"type": "constructor"
				},
				{
					"inputs": [],
					"name": "FailedCall",
					"type": "error"
				},
				{
					"inputs": [
						{
							"internalType": "uint256",
							"name": "balance",
							"type": "uint256"
						},
						{
							"internalType": "uint256",
							"name": "needed",
							"type": "uint256"
						}
					],
					"name": "InsufficientBalance",
					"type": "error"
				},
				{
					"inputs": [
						{
							"internalType": "address",
							"name": "owner",
							"type": "address"
						}
					],
					"name": "OwnableInvalidOwner",
					"type": "error"
				},
				{
					"inputs": [
						{
							"internalType": "address",
							"name": "account",
							"type": "address"
						}
					],
					"name": "OwnableUnauthorizedAccount",
					"type": "error"
				},
				{
					"inputs": [
						{
							"internalType": "address",
							"name": "token",
							"type": "address"
						}
					],
					"name": "SafeERC20FailedOperation",
					"type": "error"
				},
				{
					"anonymous": false,
					"inputs": [
						{
							"indexed": true,
							"internalType": "address",
							"name": "token",
							"type": "address"
						},
						{
							"indexed": false,
							"internalType": "uint256",
							"name": "amount",
							"type": "uint256"
						}
					],
					"name": "ERC20Released",
					"type": "event"
				},
				{
					"anonymous": false,
					"inputs": [
						{
							"indexed": false,
							"internalType": "uint256",
							"name": "amount",
							"type": "uint256"
						}
					],
					"name": "EtherReleased",
					"type": "event"
				},
				{
					"anonymous": false,
					"inputs": [
						{
							"indexed": true,
							"internalType": "address",
							"name": "previousOwner",
							"type": "address"
						},
						{
							"indexed": true,
							"internalType": "address",
							"name": "newOwner",
							"type": "address"
						}
					],
					"name": "OwnershipTransferred",
					"type": "event"
				},
				{
					"inputs": [],
					"name": "duration",
					"outputs": [
						{
							"internalType": "uint256",
							"name": "",
							"type": "uint256"
						}
					],
					"stateMutability": "view",
					"type": "function"
				},
				{
					"inputs": [],
					"name": "end",
					"outputs": [
						{
							"internalType": "uint256",
							"name": "",
							"type": "uint256"
						}
					],
					"stateMutability": "view",
					"type": "function"
				},
				{
					"inputs": [],
					"name": "owner",
					"outputs": [
						{
							"internalType": "address",
							"name": "",
							"type": "address"
						}
					],
					"stateMutability": "view",
					"type": "function"
				},
				{
					"inputs": [
						{
							"internalType": "address",
							"name": "token",
							"type": "address"
						}
					],
					"name": "releasable",
					"outputs": [
						{
							"internalType": "uint256",
							"name": "",
							"type": "uint256"
						}
					],
					"stateMutability": "view",
					"type": "function"
				},
				{
					"inputs": [],
					"name": "releasable",
					"outputs": [
						{
							"internalType": "uint256",
							"name": "",
							"type": "uint256"
						}
					],
					"stateMutability": "view",
					"type": "function"
				},
				{
					"inputs": [
						{
							"internalType": "address",
							"name": "token",
							"type": "address"
						}
					],
					"name": "release",
					"outputs": [],
					"stateMutability": "nonpayable",
					"type": "function"
				},
				{
					"inputs": [],
					"name": "release",
					"outputs": [],
					"stateMutability": "nonpayable",
					"type": "function"
				},
				{
					"inputs": [],
					"name": "released",
					"outputs": [
						{
							"internalType": "uint256",
							"name": "",
							"type": "uint256"
						}
					],
					"stateMutability": "view",
					"type": "function"
				},
				{
					"inputs": [
						{
							"internalType": "address",
							"name": "token",
							"type": "address"
						}
					],
					"name": "released",
					"outputs": [
						{
							"internalType": "uint256",
							"name": "",
							"type": "uint256"
						}
					],
					"stateMutability": "view",
					"type": "function"
				},
				{
					"inputs": [],
					"name": "renounceOwnership",
					"outputs": [],
					"stateMutability": "nonpayable",
					"type": "function"
				},
				{
					"inputs": [],
					"name": "start",
					"outputs": [
						{
							"internalType": "uint256",
							"name": "",
							"type": "uint256"
						}
					],
					"stateMutability": "view",
					"type": "function"
				},
				{
					"inputs": [
						{
							"internalType": "address",
							"name": "newOwner",
							"type": "address"
						}
					],
					"name": "transferOwnership",
					"outputs": [],
					"stateMutability": "nonpayable",
					"type": "function"
				},
				{
					"inputs": [
						{
							"internalType": "uint64",
							"name": "timestamp",
							"type": "uint64"
						}
					],
					"name": "vestedAmount",
					"outputs": [
						{
							"internalType": "uint256",
							"name": "",
							"type": "uint256"
						}
					],
					"stateMutability": "view",
					"type": "function"
				},
				{
					"inputs": [
						{
							"internalType": "address",
							"name": "token",
							"type": "address"
						},
						{
							"internalType": "uint64",
							"name": "timestamp",
							"type": "uint64"
						}
					],
					"name": "vestedAmount",
					"outputs": [
						{
							"internalType": "uint256",
							"name": "",
							"type": "uint256"
						}
					],
					"stateMutability": "view",
					"type": "function"
				},
				{
					"stateMutability": "payable",
					"type": "receive"
				}
			],
			"devdoc": {
				"details": "A vesting wallet is an ownable contract that can receive native currency and ERC-20 tokens, and release these assets to the wallet owner, also referred to as \"beneficiary\", according to a vesting schedule. Any assets transferred to this contract will follow the vesting schedule as if they were locked from the beginning. Consequently, if the vesting has already started, any amount of tokens sent to this contract will (at least partly) be immediately releasable. By setting the duration to 0, one can configure this contract to behave like an asset timelock that holds tokens for a beneficiary until a specified time. NOTE: Since the wallet is {Ownable}, and ownership can be transferred, it is possible to sell unvested tokens. Preventing this in a smart contract is difficult, considering that: 1) a beneficiary address could be a counterfactually deployed contract, 2) there is likely to be a migration path for EOAs to become contracts in the near future. NOTE: When using this contract with any token whose balance is adjusted automatically (i.e. a rebase token), make sure to account the supply/balance adjustment in the vesting schedule to ensure the vested amount is as intended. NOTE: Chains with support for native ERC20s may allow the vesting wallet to withdraw the underlying asset as both an ERC20 and as native currency. For example, if chain C supports token A and the wallet gets deposited 100 A, then at 50% of the vesting period, the beneficiary can withdraw 50 A as ERC20 and 25 A as native currency (totaling 75 A). Consider disabling one of the withdrawal methods.",
				"errors": {
					"FailedCall()": [
						{
							"details": "A call to an address target failed. The target may have reverted."
						}
					],
					"InsufficientBalance(uint256,uint256)": [
						{
							"details": "The ETH balance of the account is not enough to perform the operation."
						}
					],
					"OwnableInvalidOwner(address)": [
						{
							"details": "The owner is not a valid owner account. (eg. `address(0)`)"
						}
					],
					"OwnableUnauthorizedAccount(address)": [
						{
							"details": "The caller account is not authorized to perform an operation."
						}
					],
					"SafeERC20FailedOperation(address)": [
						{
							"details": "An operation with an ERC-20 token failed."
						}
					]
				},
				"kind": "dev",
				"methods": {
					"constructor": {
						"details": "Sets the beneficiary (owner), the start timestamp and the vesting duration (in seconds) of the vesting wallet."
					},
					"duration()": {
						"details": "Getter for the vesting duration."
					},
					"end()": {
						"details": "Getter for the end timestamp."
					},
					"owner()": {
						"details": "Returns the address of the current owner."
					},
					"releasable()": {
						"details": "Getter for the amount of releasable eth."
					},
					"releasable(address)": {
						"details": "Getter for the amount of releasable `token` tokens. `token` should be the address of an {IERC20} contract."
					},
					"release()": {
						"details": "Release the native token (ether) that have already vested. Emits a {EtherReleased} event."
					},
					"release(address)": {
						"details": "Release the tokens that have already vested. Emits a {ERC20Released} event."
					},
					"released()": {
						"details": "Amount of eth already released"
					},
					"released(address)": {
						"details": "Amount of token already released"
					},
					"renounceOwnership()": {
						"details": "Leaves the contract without owner. It will not be possible to call `onlyOwner` functions. Can only be called by the current owner. NOTE: Renouncing ownership will leave the contract without an owner, thereby disabling any functionality that is only available to the owner."
					},
					"start()": {
						"details": "Getter for the start timestamp."
					},
					"transferOwnership(address)": {
						"details": "Transfers ownership of the contract to a new account (`newOwner`). Can only be called by the current owner."
					},
					"vestedAmount(address,uint64)": {
						"details": "Calculates the amount of tokens that has already vested. Default implementation is a linear vesting curve."
					},
					"vestedAmount(uint64)": {
						"details": "Calculates the amount of ether that has already vested. Default implementation is a linear vesting curve."
					}
				},
				"version": 1
			},
			"evm": {
				"assembly": "    /* \"kash_vesting_flattened.sol\":31310:35311  contract VestingWallet is Context, Ownable {... */\n  mstore(0x40, 0xc0)\n    /* \"kash_vesting_flattened.sol\":31782:31968  constructor(address beneficiary, uint64 startTimestamp, uint64 durationSeconds) payable Ownable(beneficiary) {... */\n  mload(0x40)\n  sub(codesize, bytecodeSize)\n  dup1\n  bytecodeSize\n  dup4\n  codecopy\n  dup2\n  add\n  0x40\n  dup2\n  swap1\n  mstore\n  tag_1\n  swap2\n  tag_2\n  jump\t// in\ntag_1:\n    /* \"kash_vesting_flattened.sol\":31878:31889  beneficiary */\n  dup3\n  sub(shl(0xa0, 0x01), 0x01)\n    /* \"kash_vesting_flattened.sol\":27645:27671  initialOwner == address(0) */\n  dup2\n  and\n    /* \"kash_vesting_flattened.sol\":27641:27736  if (initialOwner == address(0)) {... */\n  tag_6\n  jumpi\n    /* \"kash_vesting_flattened.sol\":27694:27725  OwnableInvalidOwner(address(0)) */\n  mload(0x40)\n  shl(0xe0, 0x1e4fbdf7)\n  dup2\n  mstore\n    /* \"kash_vesting_flattened.sol\":27722:27723  0 */\n  0x00\n    /* \"kash_vesting_flattened.sol\":27694:27725  OwnableInvalidOwner(address(0)) */\n  0x04\n  dup3\n  add\n    /* \"#utility.yul\":801:852   */\n  mstore\n    /* \"#utility.yul\":774:792   */\n  0x24\n  add\n    /* \"kash_vesting_flattened.sol\":27694:27725  OwnableInvalidOwner(address(0)) */\n  mload(0x40)\n  dup1\n  swap2\n  sub\n  swap1\n  revert\n    /* \"kash_vesting_flattened.sol\":27641:27736  if (initialOwner == address(0)) {... */\ntag_6:\n    /* \"kash_vesting_flattened.sol\":27745:27777  _transferOwnership(initialOwner) */\n  tag_9\n    /* \"kash_vesting_flattened.sol\":27764:27776  initialOwner */\n  dup2\n    /* \"kash_vesting_flattened.sol\":27745:27763  _transferOwnership */\n  tag_10\n    /* \"kash_vesting_flattened.sol\":27745:27777  _transferOwnership(initialOwner) */\n  jump\t// in\ntag_9:\n  pop\n  sub(shl(0x40, 0x01), 0x01)\n    /* \"kash_vesting_flattened.sol\":31901:31924  _start = startTimestamp */\n  swap2\n  dup3\n  and\n  0x80\n  mstore\n    /* \"kash_vesting_flattened.sol\":31934:31961  _duration = durationSeconds */\n  and\n  0xa0\n  mstore\n  pop\n    /* \"kash_vesting_flattened.sol\":31310:35311  contract VestingWallet is Context, Ownable {... */\n  jump(tag_15)\n    /* \"kash_vesting_flattened.sol\":29284:29471  function _transferOwnership(address newOwner) internal virtual {... */\ntag_10:\n    /* \"kash_vesting_flattened.sol\":29357:29373  address oldOwner */\n  0x00\n    /* \"kash_vesting_flattened.sol\":29376:29382  _owner */\n  dup1\n  sload\n  sub(shl(0xa0, 0x01), 0x01)\n    /* \"kash_vesting_flattened.sol\":29392:29409  _owner = newOwner */\n  dup4\n  dup2\n  and\n  not(sub(shl(0xa0, 0x01), 0x01))\n  dup4\n  and\n  dup2\n  or\n  dup5\n  sstore\n    /* \"kash_vesting_flattened.sol\":29424:29464  OwnershipTransferred(oldOwner, newOwner) */\n  mload(0x40)\n    /* \"kash_vesting_flattened.sol\":29376:29382  _owner */\n  swap2\n  swap1\n  swap3\n  and\n  swap3\n  dup4\n  swap2\n    /* \"kash_vesting_flattened.sol\":29424:29464  OwnershipTransferred(oldOwner, newOwner) */\n  0x8be0079c531659141344cd1fd0a4f28419497f9722a3daafe3b4186f6b6457e0\n  swap2\n    /* \"kash_vesting_flattened.sol\":29357:29373  address oldOwner */\n  swap1\n    /* \"kash_vesting_flattened.sol\":29424:29464  OwnershipTransferred(oldOwner, newOwner) */\n  log3\n    /* \"kash_vesting_flattened.sol\":29347:29471  {... */\n  pop\n    /* \"kash_vesting_flattened.sol\":29284:29471  function _transferOwnership(address newOwner) internal virtual {... */\n  pop\n  jump\t// out\n    /* \"#utility.yul\":14:189   */\ntag_14:\n    /* \"#utility.yul\":92:105   */\n  dup1\n  mload\n  sub(shl(0x40, 0x01), 0x01)\n    /* \"#utility.yul\":134:164   */\n  dup2\n  and\n    /* \"#utility.yul\":124:165   */\n  dup2\n  eq\n    /* \"#utility.yul\":114:183   */\n  tag_17\n  jumpi\n    /* \"#utility.yul\":179:180   */\n  0x00\n    /* \"#utility.yul\":176:177   */\n  dup1\n    /* \"#utility.yul\":169:181   */\n  revert\n    /* \"#utility.yul\":114:183   */\ntag_17:\n    /* \"#utility.yul\":14:189   */\n  swap2\n  swap1\n  pop\n  jump\t// out\n    /* \"#utility.yul\":194:650   */\ntag_2:\n    /* \"#utility.yul\":280:286   */\n  0x00\n    /* \"#utility.yul\":288:294   */\n  dup1\n    /* \"#utility.yul\":296:302   */\n  0x00\n    /* \"#utility.yul\":349:351   */\n  0x60\n    /* \"#utility.yul\":337:346   */\n  dup5\n    /* \"#utility.yul\":328:335   */\n  dup7\n    /* \"#utility.yul\":324:347   */\n  sub\n    /* \"#utility.yul\":320:352   */\n  slt\n    /* \"#utility.yul\":317:369   */\n  iszero\n  tag_19\n  jumpi\n    /* \"#utility.yul\":365:366   */\n  0x00\n    /* \"#utility.yul\":362:363   */\n  dup1\n    /* \"#utility.yul\":355:367   */\n  revert\n    /* \"#utility.yul\":317:369   */\ntag_19:\n    /* \"#utility.yul\":391:407   */\n  dup4\n  mload\n  sub(shl(0xa0, 0x01), 0x01)\n    /* \"#utility.yul\":436:467   */\n  dup2\n  and\n    /* \"#utility.yul\":426:468   */\n  dup2\n  eq\n    /* \"#utility.yul\":416:486   */\n  tag_20\n  jumpi\n    /* \"#utility.yul\":482:483   */\n  0x00\n    /* \"#utility.yul\":479:480   */\n  dup1\n    /* \"#utility.yul\":472:484   */\n  revert\n    /* \"#utility.yul\":416:486   */\ntag_20:\n    /* \"#utility.yul\":505:510   */\n  swap3\n  pop\n    /* \"#utility.yul\":529:577   */\n  tag_21\n    /* \"#utility.yul\":573:575   */\n  0x20\n    /* \"#utility.yul\":558:576   */\n  dup6\n  add\n    /* \"#utility.yul\":529:577   */\n  tag_14\n  jump\t// in\ntag_21:\n    /* \"#utility.yul\":519:577   */\n  swap2\n  pop\n    /* \"#utility.yul\":596:644   */\n  tag_22\n    /* \"#utility.yul\":640:642   */\n  0x40\n    /* \"#utility.yul\":629:638   */\n  dup6\n    /* \"#utility.yul\":625:643   */\n  add\n    /* \"#utility.yul\":596:644   */\n  tag_14\n  jump\t// in\ntag_22:\n    /* \"#utility.yul\":586:644   */\n  swap1\n  pop\n    /* \"#utility.yul\":194:650   */\n  swap3\n  pop\n  swap3\n  pop\n  swap3\n  jump\t// out\n    /* \"#utility.yul\":655:858   */\ntag_15:\n    /* \"kash_vesting_flattened.sol\":31310:35311  contract VestingWallet is Context, Ownable {... */\n  mload(0x80)\n  mload(0xa0)\n  codecopy(0x00, dataOffset(sub_0), dataSize(sub_0))\n  0x00\n  assignImmutable(\"0xc9c56ece8ab1aa87565be4409fb2c8fe3d8ffec3fdab003090c209216657ff72\")\n  0x00\n  assignImmutable(\"0x6ec03fc6a2303ff0283996b05577f38ea45b37619214a3bde5dbe5d42345eefa\")\n  return(0x00, dataSize(sub_0))\nstop\n\nsub_0: assembly {\n        /* \"kash_vesting_flattened.sol\":31310:35311  contract VestingWallet is Context, Ownable {... */\n      mstore(0x40, 0x80)\n      jumpi(tag_1, lt(calldatasize, 0x04))\n      shr(0xe0, calldataload(0x00))\n      dup1\n      0x96132521\n      gt\n      tag_17\n      jumpi\n      dup1\n      0xbe9a6555\n      gt\n      tag_18\n      jumpi\n      dup1\n      0xbe9a6555\n      eq\n      tag_13\n      jumpi\n      dup1\n      0xefbe1c1c\n      eq\n      tag_14\n      jumpi\n      dup1\n      0xf2fde38b\n      eq\n      tag_15\n      jumpi\n      dup1\n      0xfbccedae\n      eq\n      tag_16\n      jumpi\n      0x00\n      dup1\n      revert\n    tag_18:\n      dup1\n      0x96132521\n      eq\n      tag_10\n      jumpi\n      dup1\n      0x9852595c\n      eq\n      tag_11\n      jumpi\n      dup1\n      0xa3f8eace\n      eq\n      tag_12\n      jumpi\n      0x00\n      dup1\n      revert\n    tag_17:\n      dup1\n      0x715018a6\n      gt\n      tag_19\n      jumpi\n      dup1\n      0x715018a6\n      eq\n      tag_6\n      jumpi\n      dup1\n      0x810ec23b\n      eq\n      tag_7\n      jumpi\n      dup1\n      0x86d1a69f\n      eq\n      tag_8\n      jumpi\n      dup1\n      0x8da5cb5b\n      eq\n      tag_9\n      jumpi\n      0x00\n      dup1\n      revert\n    tag_19:\n      dup1\n      0x0a17b06b\n      eq\n      tag_3\n      jumpi\n      dup1\n      0x0fb5a6b4\n      eq\n      tag_4\n      jumpi\n      dup1\n      0x19165587\n      eq\n      tag_5\n      jumpi\n      0x00\n      dup1\n      revert\n    tag_1:\n      jumpi(tag_2, calldatasize)\n      stop\n    tag_2:\n      0x00\n      dup1\n      revert\n        /* \"kash_vesting_flattened.sol\":34254:34419  function vestedAmount(uint64 timestamp) public view virtual returns (uint256) {... */\n    tag_3:\n      callvalue\n      dup1\n      iszero\n      tag_22\n      jumpi\n      0x00\n      dup1\n      revert\n    tag_22:\n      pop\n      tag_23\n      tag_24\n      calldatasize\n      0x04\n      tag_25\n      jump\t// in\n    tag_24:\n      tag_26\n      jump\t// in\n    tag_23:\n      mload(0x40)\n        /* \"#utility.yul\":525:550   */\n      swap1\n      dup2\n      mstore\n        /* \"#utility.yul\":513:515   */\n      0x20\n        /* \"#utility.yul\":498:516   */\n      add\n        /* \"kash_vesting_flattened.sol\":34254:34419  function vestedAmount(uint64 timestamp) public view virtual returns (uint256) {... */\n    tag_27:\n      mload(0x40)\n      dup1\n      swap2\n      sub\n      swap1\n      return\n        /* \"kash_vesting_flattened.sol\":32301:32392  function duration() public view virtual returns (uint256) {... */\n    tag_4:\n      callvalue\n      dup1\n      iszero\n      tag_29\n      jumpi\n      0x00\n      dup1\n      revert\n    tag_29:\n      pop\n        /* \"kash_vesting_flattened.sol\":32376:32385  _duration */\n      immutable(\"0xc9c56ece8ab1aa87565be4409fb2c8fe3d8ffec3fdab003090c209216657ff72\")\n        /* \"kash_vesting_flattened.sol\":32369:32385  return _duration */\n      0xffffffffffffffff\n      and\n        /* \"kash_vesting_flattened.sol\":32301:32392  function duration() public view virtual returns (uint256) {... */\n      jump(tag_23)\n        /* \"kash_vesting_flattened.sol\":33868:34114  function release(address token) public virtual {... */\n    tag_5:\n      callvalue\n      dup1\n      iszero\n      tag_33\n      jumpi\n      0x00\n      dup1\n      revert\n    tag_33:\n      pop\n      tag_34\n      tag_35\n      calldatasize\n      0x04\n      tag_36\n      jump\t// in\n    tag_35:\n      tag_37\n      jump\t// in\n    tag_34:\n      stop\n        /* \"kash_vesting_flattened.sol\":28665:28766  function renounceOwnership() public virtual onlyOwner {... */\n    tag_6:\n      callvalue\n      dup1\n      iszero\n      tag_38\n      jumpi\n      0x00\n      dup1\n      revert\n    tag_38:\n      pop\n      tag_34\n      tag_40\n      jump\t// in\n        /* \"kash_vesting_flattened.sol\":34560:34762  function vestedAmount(address token, uint64 timestamp) public view virtual returns (uint256) {... */\n    tag_7:\n      callvalue\n      dup1\n      iszero\n      tag_41\n      jumpi\n      0x00\n      dup1\n      revert\n    tag_41:\n      pop\n      tag_23\n      tag_43\n      calldatasize\n      0x04\n      tag_44\n      jump\t// in\n    tag_43:\n      tag_45\n      jump\t// in\n        /* \"kash_vesting_flattened.sol\":33546:33744  function release() public virtual {... */\n    tag_8:\n      callvalue\n      dup1\n      iszero\n      tag_47\n      jumpi\n      0x00\n      dup1\n      revert\n    tag_47:\n      pop\n      tag_34\n      tag_49\n      jump\t// in\n        /* \"kash_vesting_flattened.sol\":28010:28095  function owner() public view virtual returns (address) {... */\n    tag_9:\n      callvalue\n      dup1\n      iszero\n      tag_50\n      jumpi\n      0x00\n      dup1\n      revert\n    tag_50:\n      pop\n        /* \"kash_vesting_flattened.sol\":28056:28063  address */\n      0x00\n        /* \"kash_vesting_flattened.sol\":28082:28088  _owner */\n      sload\n        /* \"kash_vesting_flattened.sol\":28010:28095  function owner() public view virtual returns (address) {... */\n      mload(0x40)\n      sub(shl(0xa0, 0x01), 0x01)\n        /* \"kash_vesting_flattened.sol\":28082:28088  _owner */\n      swap1\n      swap2\n      and\n        /* \"#utility.yul\":1362:1436   */\n      dup2\n      mstore\n        /* \"#utility.yul\":1350:1352   */\n      0x20\n        /* \"#utility.yul\":1335:1353   */\n      add\n        /* \"kash_vesting_flattened.sol\":28010:28095  function owner() public view virtual returns (address) {... */\n      tag_27\n        /* \"#utility.yul\":1216:1442   */\n      jump\n        /* \"kash_vesting_flattened.sol\":32618:32709  function released() public view virtual returns (uint256) {... */\n    tag_10:\n      callvalue\n      dup1\n      iszero\n      tag_55\n      jumpi\n      0x00\n      dup1\n      revert\n    tag_55:\n      pop\n        /* \"kash_vesting_flattened.sol\":32693:32702  _released */\n      sload(0x01)\n        /* \"kash_vesting_flattened.sol\":32618:32709  function released() public view virtual returns (uint256) {... */\n      jump(tag_23)\n        /* \"kash_vesting_flattened.sol\":32776:32892  function released(address token) public view virtual returns (uint256) {... */\n    tag_11:\n      callvalue\n      dup1\n      iszero\n      tag_59\n      jumpi\n      0x00\n      dup1\n      revert\n    tag_59:\n      pop\n      tag_23\n      tag_61\n      calldatasize\n      0x04\n      tag_36\n      jump\t// in\n    tag_61:\n      sub(shl(0xa0, 0x01), 0x01)\n        /* \"kash_vesting_flattened.sol\":32864:32885  _erc20Released[token] */\n      and\n        /* \"kash_vesting_flattened.sol\":32838:32845  uint256 */\n      0x00\n        /* \"kash_vesting_flattened.sol\":32864:32885  _erc20Released[token] */\n      swap1\n      dup2\n      mstore\n        /* \"kash_vesting_flattened.sol\":32864:32878  _erc20Released */\n      0x02\n        /* \"kash_vesting_flattened.sol\":32864:32885  _erc20Released[token] */\n      0x20\n      mstore\n      0x40\n      swap1\n      keccak256\n      sload\n      swap1\n        /* \"kash_vesting_flattened.sol\":32776:32892  function released(address token) public view virtual returns (uint256) {... */\n      jump\n        /* \"kash_vesting_flattened.sol\":33249:33408  function releasable(address token) public view virtual returns (uint256) {... */\n    tag_12:\n      callvalue\n      dup1\n      iszero\n      tag_64\n      jumpi\n      0x00\n      dup1\n      revert\n    tag_64:\n      pop\n      tag_23\n      tag_66\n      calldatasize\n      0x04\n      tag_36\n      jump\t// in\n    tag_66:\n      tag_67\n      jump\t// in\n        /* \"kash_vesting_flattened.sol\":32149:32234  function start() public view virtual returns (uint256) {... */\n    tag_13:\n      callvalue\n      dup1\n      iszero\n      tag_69\n      jumpi\n      0x00\n      dup1\n      revert\n    tag_69:\n      pop\n        /* \"kash_vesting_flattened.sol\":32221:32227  _start */\n      immutable(\"0x6ec03fc6a2303ff0283996b05577f38ea45b37619214a3bde5dbe5d42345eefa\")\n        /* \"kash_vesting_flattened.sol\":32214:32227  return _start */\n      0xffffffffffffffff\n      and\n        /* \"kash_vesting_flattened.sol\":32149:32234  function start() public view virtual returns (uint256) {... */\n      jump(tag_23)\n        /* \"kash_vesting_flattened.sol\":32456:32553  function end() public view virtual returns (uint256) {... */\n    tag_14:\n      callvalue\n      dup1\n      iszero\n      tag_73\n      jumpi\n      0x00\n      dup1\n      revert\n    tag_73:\n      pop\n      tag_23\n      tag_75\n      jump\t// in\n        /* \"kash_vesting_flattened.sol\":28915:29130  function transferOwnership(address newOwner) public virtual onlyOwner {... */\n    tag_15:\n      callvalue\n      dup1\n      iszero\n      tag_77\n      jumpi\n      0x00\n      dup1\n      revert\n    tag_77:\n      pop\n      tag_34\n      tag_79\n      calldatasize\n      0x04\n      tag_36\n      jump\t// in\n    tag_79:\n      tag_80\n      jump\t// in\n        /* \"kash_vesting_flattened.sol\":32967:33101  function releasable() public view virtual returns (uint256) {... */\n    tag_16:\n      callvalue\n      dup1\n      iszero\n      tag_81\n      jumpi\n      0x00\n      dup1\n      revert\n    tag_81:\n      pop\n      tag_23\n      tag_83\n      jump\t// in\n        /* \"kash_vesting_flattened.sol\":34254:34419  function vestedAmount(uint64 timestamp) public view virtual returns (uint256) {... */\n    tag_26:\n        /* \"kash_vesting_flattened.sol\":34323:34330  uint256 */\n      0x00\n        /* \"kash_vesting_flattened.sol\":34349:34412  _vestingSchedule(address(this).balance + released(), timestamp) */\n      tag_86\n        /* \"kash_vesting_flattened.sol\":34390:34400  released() */\n      tag_87\n        /* \"kash_vesting_flattened.sol\":32693:32702  _released */\n      sload(0x01)\n      swap1\n        /* \"kash_vesting_flattened.sol\":32618:32709  function released() public view virtual returns (uint256) {... */\n      jump\n        /* \"kash_vesting_flattened.sol\":34390:34400  released() */\n    tag_87:\n        /* \"kash_vesting_flattened.sol\":34366:34400  address(this).balance + released() */\n      tag_88\n      swap1\n        /* \"kash_vesting_flattened.sol\":34366:34387  address(this).balance */\n      selfbalance\n        /* \"kash_vesting_flattened.sol\":34366:34400  address(this).balance + released() */\n      tag_89\n      jump\t// in\n    tag_88:\n        /* \"kash_vesting_flattened.sol\":34402:34411  timestamp */\n      dup4\n        /* \"kash_vesting_flattened.sol\":34349:34365  _vestingSchedule */\n      tag_90\n        /* \"kash_vesting_flattened.sol\":34349:34412  _vestingSchedule(address(this).balance + released(), timestamp) */\n      jump\t// in\n    tag_86:\n        /* \"kash_vesting_flattened.sol\":34342:34412  return _vestingSchedule(address(this).balance + released(), timestamp) */\n      swap3\n        /* \"kash_vesting_flattened.sol\":34254:34419  function vestedAmount(uint64 timestamp) public view virtual returns (uint256) {... */\n      swap2\n      pop\n      pop\n      jump\t// out\n        /* \"kash_vesting_flattened.sol\":33868:34114  function release(address token) public virtual {... */\n    tag_37:\n        /* \"kash_vesting_flattened.sol\":33925:33939  uint256 amount */\n      0x00\n        /* \"kash_vesting_flattened.sol\":33942:33959  releasable(token) */\n      tag_93\n        /* \"kash_vesting_flattened.sol\":33953:33958  token */\n      dup3\n        /* \"kash_vesting_flattened.sol\":33942:33952  releasable */\n      tag_67\n        /* \"kash_vesting_flattened.sol\":33942:33959  releasable(token) */\n      jump\t// in\n    tag_93:\n      sub(shl(0xa0, 0x01), 0x01)\n        /* \"kash_vesting_flattened.sol\":33969:33990  _erc20Released[token] */\n      dup4\n      and\n      0x00\n      swap1\n      dup2\n      mstore\n        /* \"kash_vesting_flattened.sol\":33969:33983  _erc20Released */\n      0x02\n        /* \"kash_vesting_flattened.sol\":33969:33990  _erc20Released[token] */\n      0x20\n      mstore\n      0x40\n      dup2\n      keccak256\n        /* \"kash_vesting_flattened.sol\":33969:34000  _erc20Released[token] += amount */\n      dup1\n      sload\n        /* \"kash_vesting_flattened.sol\":33925:33959  uint256 amount = releasable(token) */\n      swap3\n      swap4\n      pop\n      dup4\n      swap3\n        /* \"kash_vesting_flattened.sol\":33969:33990  _erc20Released[token] */\n      swap1\n      swap2\n      swap1\n        /* \"kash_vesting_flattened.sol\":33969:34000  _erc20Released[token] += amount */\n      tag_94\n      swap1\n        /* \"kash_vesting_flattened.sol\":33925:33959  uint256 amount = releasable(token) */\n      dup5\n      swap1\n        /* \"kash_vesting_flattened.sol\":33969:34000  _erc20Released[token] += amount */\n      tag_89\n      jump\t// in\n    tag_94:\n      swap1\n      swap2\n      sstore\n      pop\n      pop\n        /* \"kash_vesting_flattened.sol\":34015:34043  ERC20Released(token, amount) */\n      mload(0x40)\n        /* \"#utility.yul\":525:550   */\n      dup2\n      dup2\n      mstore\n      sub(shl(0xa0, 0x01), 0x01)\n        /* \"kash_vesting_flattened.sol\":34015:34043  ERC20Released(token, amount) */\n      dup4\n      and\n      swap1\n      0xc0e523490dd523c33b1878c9eb14ff46991e3f5b2cd33710918618f2a39cba1b\n      swap1\n        /* \"#utility.yul\":513:515   */\n      0x20\n        /* \"#utility.yul\":498:516   */\n      add\n        /* \"kash_vesting_flattened.sol\":34015:34043  ERC20Released(token, amount) */\n      mload(0x40)\n      dup1\n      swap2\n      sub\n      swap1\n      log2\n        /* \"kash_vesting_flattened.sol\":34053:34107  SafeERC20.safeTransfer(IERC20(token), owner(), amount) */\n      tag_96\n        /* \"kash_vesting_flattened.sol\":34083:34088  token */\n      dup3\n        /* \"kash_vesting_flattened.sol\":34091:34098  owner() */\n      tag_97\n        /* \"kash_vesting_flattened.sol\":28056:28063  address */\n      0x00\n        /* \"kash_vesting_flattened.sol\":28082:28088  _owner */\n      sload\n      sub(shl(0xa0, 0x01), 0x01)\n      and\n      swap1\n        /* \"kash_vesting_flattened.sol\":28010:28095  function owner() public view virtual returns (address) {... */\n      jump\n        /* \"kash_vesting_flattened.sol\":34091:34098  owner() */\n    tag_97:\n        /* \"kash_vesting_flattened.sol\":34100:34106  amount */\n      dup4\n        /* \"kash_vesting_flattened.sol\":34053:34075  SafeERC20.safeTransfer */\n      tag_98\n        /* \"kash_vesting_flattened.sol\":34053:34107  SafeERC20.safeTransfer(IERC20(token), owner(), amount) */\n      jump\t// in\n    tag_96:\n        /* \"kash_vesting_flattened.sol\":33915:34114  {... */\n      pop\n        /* \"kash_vesting_flattened.sol\":33868:34114  function release(address token) public virtual {... */\n      pop\n      jump\t// out\n        /* \"kash_vesting_flattened.sol\":28665:28766  function renounceOwnership() public virtual onlyOwner {... */\n    tag_40:\n        /* \"kash_vesting_flattened.sol\":27903:27916  _checkOwner() */\n      tag_100\n        /* \"kash_vesting_flattened.sol\":27903:27914  _checkOwner */\n      tag_101\n        /* \"kash_vesting_flattened.sol\":27903:27916  _checkOwner() */\n      jump\t// in\n    tag_100:\n        /* \"kash_vesting_flattened.sol\":28729:28759  _transferOwnership(address(0)) */\n      tag_103\n        /* \"kash_vesting_flattened.sol\":28756:28757  0 */\n      0x00\n        /* \"kash_vesting_flattened.sol\":28729:28747  _transferOwnership */\n      tag_104\n        /* \"kash_vesting_flattened.sol\":28729:28759  _transferOwnership(address(0)) */\n      jump\t// in\n    tag_103:\n        /* \"kash_vesting_flattened.sol\":28665:28766  function renounceOwnership() public virtual onlyOwner {... */\n      jump\t// out\n        /* \"kash_vesting_flattened.sol\":34560:34762  function vestedAmount(address token, uint64 timestamp) public view virtual returns (uint256) {... */\n    tag_45:\n      sub(shl(0xa0, 0x01), 0x01)\n        /* \"kash_vesting_flattened.sol\":32864:32885  _erc20Released[token] */\n      dup3\n      and\n        /* \"kash_vesting_flattened.sol\":34644:34651  uint256 */\n      0x00\n        /* \"kash_vesting_flattened.sol\":32864:32885  _erc20Released[token] */\n      swap1\n      dup2\n      mstore\n        /* \"kash_vesting_flattened.sol\":32864:32878  _erc20Released */\n      0x02\n        /* \"kash_vesting_flattened.sol\":32864:32885  _erc20Released[token] */\n      0x20\n      mstore\n      0x40\n      dup2\n      keccak256\n      sload\n        /* \"kash_vesting_flattened.sol\":34670:34755  _vestingSchedule(IERC20(token).balanceOf(address(this)) + released(token), timestamp) */\n      tag_106\n      swap1\n        /* \"kash_vesting_flattened.sol\":34687:34725  IERC20(token).balanceOf(address(this)) */\n      mload(0x40)\n      0x70a0823100000000000000000000000000000000000000000000000000000000\n      dup2\n      mstore\n        /* \"kash_vesting_flattened.sol\":34719:34723  this */\n      address\n        /* \"kash_vesting_flattened.sol\":34687:34725  IERC20(token).balanceOf(address(this)) */\n      0x04\n      dup3\n      add\n        /* \"#utility.yul\":1362:1436   */\n      mstore\n      sub(shl(0xa0, 0x01), 0x01)\n        /* \"kash_vesting_flattened.sol\":34687:34710  IERC20(token).balanceOf */\n      dup7\n      and\n      swap1\n      0x70a08231\n      swap1\n        /* \"#utility.yul\":1335:1353   */\n      0x24\n      add\n        /* \"kash_vesting_flattened.sol\":34687:34725  IERC20(token).balanceOf(address(this)) */\n      0x20\n      mload(0x40)\n      dup1\n      dup4\n      sub\n      dup2\n      dup7\n      gas\n      staticcall\n      iszero\n      dup1\n      iszero\n      tag_110\n      jumpi\n      returndatasize\n      0x00\n      dup1\n      returndatacopy\n      revert(0x00, returndatasize)\n    tag_110:\n      pop\n      pop\n      pop\n      pop\n      mload(0x40)\n      returndatasize\n      not(0x1f)\n      0x1f\n      dup3\n      add\n      and\n      dup3\n      add\n      dup1\n      0x40\n      mstore\n      pop\n      dup2\n      add\n      swap1\n      tag_111\n      swap2\n      swap1\n      tag_112\n      jump\t// in\n    tag_111:\n        /* \"kash_vesting_flattened.sol\":34687:34743  IERC20(token).balanceOf(address(this)) + released(token) */\n      tag_88\n      swap2\n      swap1\n      tag_89\n      jump\t// in\n        /* \"kash_vesting_flattened.sol\":34670:34755  _vestingSchedule(IERC20(token).balanceOf(address(this)) + released(token), timestamp) */\n    tag_106:\n        /* \"kash_vesting_flattened.sol\":34663:34755  return _vestingSchedule(IERC20(token).balanceOf(address(this)) + released(token), timestamp) */\n      swap4\n        /* \"kash_vesting_flattened.sol\":34560:34762  function vestedAmount(address token, uint64 timestamp) public view virtual returns (uint256) {... */\n      swap3\n      pop\n      pop\n      pop\n      jump\t// out\n        /* \"kash_vesting_flattened.sol\":33546:33744  function release() public virtual {... */\n    tag_49:\n        /* \"kash_vesting_flattened.sol\":33590:33604  uint256 amount */\n      0x00\n        /* \"kash_vesting_flattened.sol\":33607:33619  releasable() */\n      tag_115\n        /* \"kash_vesting_flattened.sol\":33607:33617  releasable */\n      tag_83\n        /* \"kash_vesting_flattened.sol\":33607:33619  releasable() */\n      jump\t// in\n    tag_115:\n        /* \"kash_vesting_flattened.sol\":33590:33619  uint256 amount = releasable() */\n      swap1\n      pop\n        /* \"kash_vesting_flattened.sol\":33642:33648  amount */\n      dup1\n        /* \"kash_vesting_flattened.sol\":33629:33638  _released */\n      0x01\n      0x00\n        /* \"kash_vesting_flattened.sol\":33629:33648  _released += amount */\n      dup3\n      dup3\n      sload\n      tag_116\n      swap2\n      swap1\n      tag_89\n      jump\t// in\n    tag_116:\n      swap1\n      swap2\n      sstore\n      pop\n      pop\n        /* \"kash_vesting_flattened.sol\":33663:33684  EtherReleased(amount) */\n      mload(0x40)\n        /* \"#utility.yul\":525:550   */\n      dup2\n      dup2\n      mstore\n        /* \"kash_vesting_flattened.sol\":33663:33684  EtherReleased(amount) */\n      0xda9d4e5f101b8b9b1c5b76d0c5a9f7923571acfc02376aa076b75a8c080c956b\n      swap1\n        /* \"#utility.yul\":513:515   */\n      0x20\n        /* \"#utility.yul\":498:516   */\n      add\n        /* \"kash_vesting_flattened.sol\":33663:33684  EtherReleased(amount) */\n      mload(0x40)\n      dup1\n      swap2\n      sub\n      swap1\n      log1\n        /* \"kash_vesting_flattened.sol\":33694:33737  Address.sendValue(payable(owner()), amount) */\n      tag_118\n        /* \"kash_vesting_flattened.sol\":33720:33727  owner() */\n      tag_119\n        /* \"kash_vesting_flattened.sol\":28056:28063  address */\n      0x00\n        /* \"kash_vesting_flattened.sol\":28082:28088  _owner */\n      sload\n      sub(shl(0xa0, 0x01), 0x01)\n      and\n      swap1\n        /* \"kash_vesting_flattened.sol\":28010:28095  function owner() public view virtual returns (address) {... */\n      jump\n        /* \"kash_vesting_flattened.sol\":33720:33727  owner() */\n    tag_119:\n        /* \"kash_vesting_flattened.sol\":33730:33736  amount */\n      dup3\n        /* \"kash_vesting_flattened.sol\":33694:33711  Address.sendValue */\n      tag_120\n        /* \"kash_vesting_flattened.sol\":33694:33737  Address.sendValue(payable(owner()), amount) */\n      jump\t// in\n    tag_118:\n        /* \"kash_vesting_flattened.sol\":33580:33744  {... */\n      pop\n        /* \"kash_vesting_flattened.sol\":33546:33744  function release() public virtual {... */\n      jump\t// out\n        /* \"kash_vesting_flattened.sol\":33249:33408  function releasable(address token) public view virtual returns (uint256) {... */\n    tag_67:\n      sub(shl(0xa0, 0x01), 0x01)\n        /* \"kash_vesting_flattened.sol\":32864:32885  _erc20Released[token] */\n      dup2\n      and\n        /* \"kash_vesting_flattened.sol\":33313:33320  uint256 */\n      0x00\n        /* \"kash_vesting_flattened.sol\":32864:32885  _erc20Released[token] */\n      swap1\n      dup2\n      mstore\n        /* \"kash_vesting_flattened.sol\":32864:32878  _erc20Released */\n      0x02\n        /* \"kash_vesting_flattened.sol\":32864:32885  _erc20Released[token] */\n      0x20\n      mstore\n      0x40\n      dup2\n      keccak256\n      sload\n        /* \"kash_vesting_flattened.sol\":33339:33383  vestedAmount(token, uint64(block.timestamp)) */\n      tag_126\n        /* \"kash_vesting_flattened.sol\":33352:33357  token */\n      dup4\n        /* \"kash_vesting_flattened.sol\":33366:33381  block.timestamp */\n      timestamp\n        /* \"kash_vesting_flattened.sol\":33339:33351  vestedAmount */\n      tag_45\n        /* \"kash_vesting_flattened.sol\":33339:33383  vestedAmount(token, uint64(block.timestamp)) */\n      jump\t// in\n    tag_126:\n        /* \"kash_vesting_flattened.sol\":33339:33401  vestedAmount(token, uint64(block.timestamp)) - released(token) */\n      tag_86\n      swap2\n      swap1\n      tag_128\n      jump\t// in\n        /* \"kash_vesting_flattened.sol\":32456:32553  function end() public view virtual returns (uint256) {... */\n    tag_75:\n        /* \"kash_vesting_flattened.sol\":32500:32507  uint256 */\n      0x00\n        /* \"kash_vesting_flattened.sol\":32526:32546  start() + duration() */\n      tag_133\n        /* \"kash_vesting_flattened.sol\":32369:32385  return _duration */\n      0xffffffffffffffff\n        /* \"kash_vesting_flattened.sol\":32376:32385  _duration */\n      immutable(\"0xc9c56ece8ab1aa87565be4409fb2c8fe3d8ffec3fdab003090c209216657ff72\")\n        /* \"kash_vesting_flattened.sol\":32369:32385  return _duration */\n      dup2\n      and\n      swap1\n        /* \"kash_vesting_flattened.sol\":32221:32227  _start */\n      immutable(\"0x6ec03fc6a2303ff0283996b05577f38ea45b37619214a3bde5dbe5d42345eefa\")\n        /* \"kash_vesting_flattened.sol\":32214:32227  return _start */\n      and\n        /* \"kash_vesting_flattened.sol\":32526:32546  start() + duration() */\n      tag_89\n      jump\t// in\n    tag_133:\n        /* \"kash_vesting_flattened.sol\":32519:32546  return start() + duration() */\n      swap1\n      pop\n        /* \"kash_vesting_flattened.sol\":32456:32553  function end() public view virtual returns (uint256) {... */\n      swap1\n      jump\t// out\n        /* \"kash_vesting_flattened.sol\":28915:29130  function transferOwnership(address newOwner) public virtual onlyOwner {... */\n    tag_80:\n        /* \"kash_vesting_flattened.sol\":27903:27916  _checkOwner() */\n      tag_135\n        /* \"kash_vesting_flattened.sol\":27903:27914  _checkOwner */\n      tag_101\n        /* \"kash_vesting_flattened.sol\":27903:27916  _checkOwner() */\n      jump\t// in\n    tag_135:\n      sub(shl(0xa0, 0x01), 0x01)\n        /* \"kash_vesting_flattened.sol\":28999:29021  newOwner == address(0) */\n      dup2\n      and\n        /* \"kash_vesting_flattened.sol\":28995:29086  if (newOwner == address(0)) {... */\n      tag_137\n      jumpi\n        /* \"kash_vesting_flattened.sol\":29044:29075  OwnableInvalidOwner(address(0)) */\n      mload(0x40)\n      0x1e4fbdf700000000000000000000000000000000000000000000000000000000\n      dup2\n      mstore\n        /* \"kash_vesting_flattened.sol\":29072:29073  0 */\n      0x00\n        /* \"kash_vesting_flattened.sol\":29044:29075  OwnableInvalidOwner(address(0)) */\n      0x04\n      dup3\n      add\n        /* \"#utility.yul\":1362:1436   */\n      mstore\n        /* \"#utility.yul\":1335:1353   */\n      0x24\n      add\n        /* \"kash_vesting_flattened.sol\":29044:29075  OwnableInvalidOwner(address(0)) */\n    tag_138:\n      mload(0x40)\n      dup1\n      swap2\n      sub\n      swap1\n      revert\n        /* \"kash_vesting_flattened.sol\":28995:29086  if (newOwner == address(0)) {... */\n    tag_137:\n        /* \"kash_vesting_flattened.sol\":29095:29123  _transferOwnership(newOwner) */\n      tag_118\n        /* \"kash_vesting_flattened.sol\":29114:29122  newOwner */\n      dup2\n        /* \"kash_vesting_flattened.sol\":29095:29113  _transferOwnership */\n      tag_104\n        /* \"kash_vesting_flattened.sol\":29095:29123  _transferOwnership(newOwner) */\n      jump\t// in\n        /* \"kash_vesting_flattened.sol\":32967:33101  function releasable() public view virtual returns (uint256) {... */\n    tag_83:\n        /* \"kash_vesting_flattened.sol\":33018:33025  uint256 */\n      0x00\n        /* \"kash_vesting_flattened.sol\":33084:33094  released() */\n      tag_141\n        /* \"kash_vesting_flattened.sol\":32693:32702  _released */\n      sload(0x01)\n      swap1\n        /* \"kash_vesting_flattened.sol\":32618:32709  function released() public view virtual returns (uint256) {... */\n      jump\n        /* \"kash_vesting_flattened.sol\":33084:33094  released() */\n    tag_141:\n        /* \"kash_vesting_flattened.sol\":33044:33081  vestedAmount(uint64(block.timestamp)) */\n      tag_142\n        /* \"kash_vesting_flattened.sol\":33064:33079  block.timestamp */\n      timestamp\n        /* \"kash_vesting_flattened.sol\":33044:33056  vestedAmount */\n      tag_26\n        /* \"kash_vesting_flattened.sol\":33044:33081  vestedAmount(uint64(block.timestamp)) */\n      jump\t// in\n    tag_142:\n        /* \"kash_vesting_flattened.sol\":33044:33094  vestedAmount(uint64(block.timestamp)) - released() */\n      tag_133\n      swap2\n      swap1\n      tag_128\n      jump\t// in\n        /* \"kash_vesting_flattened.sol\":34957:35309  function _vestingSchedule(uint256 totalAllocation, uint64 timestamp) internal view virtual returns (uint256) {... */\n    tag_90:\n        /* \"kash_vesting_flattened.sol\":35057:35064  uint256 */\n      0x00\n        /* \"kash_vesting_flattened.sol\":32221:32227  _start */\n      immutable(\"0x6ec03fc6a2303ff0283996b05577f38ea45b37619214a3bde5dbe5d42345eefa\")\n        /* \"kash_vesting_flattened.sol\":32214:32227  return _start */\n      0xffffffffffffffff\n      and\n        /* \"kash_vesting_flattened.sol\":35080:35089  timestamp */\n      dup3\n        /* \"kash_vesting_flattened.sol\":35080:35099  timestamp < start() */\n      0xffffffffffffffff\n      and\n      lt\n        /* \"kash_vesting_flattened.sol\":35076:35303  if (timestamp < start()) {... */\n      iszero\n      tag_146\n      jumpi\n      pop\n        /* \"kash_vesting_flattened.sol\":35122:35123  0 */\n      0x00\n        /* \"kash_vesting_flattened.sol\":35115:35123  return 0 */\n      jump(tag_86)\n        /* \"kash_vesting_flattened.sol\":35076:35303  if (timestamp < start()) {... */\n    tag_146:\n        /* \"kash_vesting_flattened.sol\":35157:35162  end() */\n      tag_148\n        /* \"kash_vesting_flattened.sol\":35157:35160  end */\n      tag_75\n        /* \"kash_vesting_flattened.sol\":35157:35162  end() */\n      jump\t// in\n    tag_148:\n        /* \"kash_vesting_flattened.sol\":35144:35153  timestamp */\n      dup3\n        /* \"kash_vesting_flattened.sol\":35144:35162  timestamp >= end() */\n      0xffffffffffffffff\n      and\n      lt\n        /* \"kash_vesting_flattened.sol\":35140:35303  if (timestamp >= end()) {... */\n      tag_149\n      jumpi\n      pop\n        /* \"kash_vesting_flattened.sol\":35185:35200  totalAllocation */\n      dup2\n        /* \"kash_vesting_flattened.sol\":35178:35200  return totalAllocation */\n      jump(tag_86)\n        /* \"kash_vesting_flattened.sol\":35140:35303  if (timestamp >= end()) {... */\n    tag_149:\n        /* \"kash_vesting_flattened.sol\":32376:32385  _duration */\n      immutable(\"0xc9c56ece8ab1aa87565be4409fb2c8fe3d8ffec3fdab003090c209216657ff72\")\n        /* \"kash_vesting_flattened.sol\":32369:32385  return _duration */\n      0xffffffffffffffff\n      and\n        /* \"kash_vesting_flattened.sol\":32221:32227  _start */\n      immutable(\"0x6ec03fc6a2303ff0283996b05577f38ea45b37619214a3bde5dbe5d42345eefa\")\n        /* \"kash_vesting_flattened.sol\":32214:32227  return _start */\n      0xffffffffffffffff\n      and\n        /* \"kash_vesting_flattened.sol\":35258:35277  timestamp - start() */\n      tag_153\n      swap1\n      0xffffffffffffffff\n      dup6\n      and\n      tag_128\n      jump\t// in\n    tag_153:\n        /* \"kash_vesting_flattened.sol\":35239:35278  totalAllocation * (timestamp - start()) */\n      tag_154\n      swap1\n        /* \"kash_vesting_flattened.sol\":35239:35254  totalAllocation */\n      dup6\n        /* \"kash_vesting_flattened.sol\":35239:35278  totalAllocation * (timestamp - start()) */\n      tag_155\n      jump\t// in\n    tag_154:\n        /* \"kash_vesting_flattened.sol\":35238:35292  (totalAllocation * (timestamp - start())) / duration() */\n      tag_156\n      swap2\n      swap1\n      tag_157\n      jump\t// in\n    tag_156:\n        /* \"kash_vesting_flattened.sol\":35231:35292  return (totalAllocation * (timestamp - start())) / duration() */\n      swap1\n      pop\n      jump(tag_86)\n        /* \"kash_vesting_flattened.sol\":9656:9816  function safeTransfer(IERC20 token, address to, uint256 value) internal {... */\n    tag_98:\n        /* \"kash_vesting_flattened.sol\":9765:9808  abi.encodeCall(token.transfer, (to, value)) */\n      0x40\n      dup1\n      mload\n      sub(shl(0xa0, 0x01), 0x01)\n        /* \"#utility.yul\":2732:2787   */\n      dup5\n      and\n        /* \"kash_vesting_flattened.sol\":9765:9808  abi.encodeCall(token.transfer, (to, value)) */\n      0x24\n      dup3\n      add\n        /* \"#utility.yul\":2714:2788   */\n      mstore\n        /* \"#utility.yul\":2804:2822   */\n      0x44\n      dup1\n      dup3\n      add\n        /* \"#utility.yul\":2797:2831   */\n      dup5\n      swap1\n      mstore\n        /* \"kash_vesting_flattened.sol\":9765:9808  abi.encodeCall(token.transfer, (to, value)) */\n      dup3\n      mload\n      dup1\n      dup4\n      sub\n      swap1\n      swap2\n      add\n      dup2\n      mstore\n        /* \"#utility.yul\":2687:2705   */\n      0x64\n      swap1\n      swap2\n      add\n        /* \"kash_vesting_flattened.sol\":9765:9808  abi.encodeCall(token.transfer, (to, value)) */\n      swap1\n      swap2\n      mstore\n      0x20\n      dup2\n      add\n      dup1\n      mload\n      0xffffffffffffffffffffffffffffffffffffffffffffffffffffffff\n      and\n      0xa9059cbb00000000000000000000000000000000000000000000000000000000\n      or\n      swap1\n      mstore\n        /* \"kash_vesting_flattened.sol\":9738:9809  _callOptionalReturn(token, abi.encodeCall(token.transfer, (to, value))) */\n      tag_159\n      swap1\n        /* \"kash_vesting_flattened.sol\":9758:9763  token */\n      dup5\n      swap1\n        /* \"kash_vesting_flattened.sol\":9738:9757  _callOptionalReturn */\n      tag_162\n        /* \"kash_vesting_flattened.sol\":9738:9809  _callOptionalReturn(token, abi.encodeCall(token.transfer, (to, value))) */\n      jump\t// in\n    tag_159:\n        /* \"kash_vesting_flattened.sol\":9656:9816  function safeTransfer(IERC20 token, address to, uint256 value) internal {... */\n      pop\n      pop\n      pop\n      jump\t// out\n        /* \"kash_vesting_flattened.sol\":28168:28330  function _checkOwner() internal view virtual {... */\n    tag_101:\n        /* \"kash_vesting_flattened.sol\":28056:28063  address */\n      0x00\n        /* \"kash_vesting_flattened.sol\":28082:28088  _owner */\n      sload\n      sub(shl(0xa0, 0x01), 0x01)\n      and\n        /* \"kash_vesting_flattened.sol\":26167:26177  msg.sender */\n      caller\n        /* \"kash_vesting_flattened.sol\":28227:28250  owner() != _msgSender() */\n      eq\n        /* \"kash_vesting_flattened.sol\":28223:28324  if (owner() != _msgSender()) {... */\n      tag_103\n      jumpi\n        /* \"kash_vesting_flattened.sol\":28273:28313  OwnableUnauthorizedAccount(_msgSender()) */\n      mload(0x40)\n      0x118cdaa700000000000000000000000000000000000000000000000000000000\n      dup2\n      mstore\n        /* \"kash_vesting_flattened.sol\":26167:26177  msg.sender */\n      caller\n        /* \"kash_vesting_flattened.sol\":28273:28313  OwnableUnauthorizedAccount(_msgSender()) */\n      0x04\n      dup3\n      add\n        /* \"#utility.yul\":1362:1436   */\n      mstore\n        /* \"#utility.yul\":1335:1353   */\n      0x24\n      add\n        /* \"kash_vesting_flattened.sol\":28273:28313  OwnableUnauthorizedAccount(_msgSender()) */\n      tag_138\n        /* \"#utility.yul\":1216:1442   */\n      jump\n        /* \"kash_vesting_flattened.sol\":29284:29471  function _transferOwnership(address newOwner) internal virtual {... */\n    tag_104:\n        /* \"kash_vesting_flattened.sol\":29357:29373  address oldOwner */\n      0x00\n        /* \"kash_vesting_flattened.sol\":29376:29382  _owner */\n      dup1\n      sload\n      sub(shl(0xa0, 0x01), 0x01)\n        /* \"kash_vesting_flattened.sol\":29392:29409  _owner = newOwner */\n      dup4\n      dup2\n      and\n      0xffffffffffffffffffffffff0000000000000000000000000000000000000000\n      dup4\n      and\n      dup2\n      or\n      dup5\n      sstore\n        /* \"kash_vesting_flattened.sol\":29424:29464  OwnershipTransferred(oldOwner, newOwner) */\n      mload(0x40)\n        /* \"kash_vesting_flattened.sol\":29376:29382  _owner */\n      swap2\n      swap1\n      swap3\n      and\n      swap3\n      dup4\n      swap2\n        /* \"kash_vesting_flattened.sol\":29424:29464  OwnershipTransferred(oldOwner, newOwner) */\n      0x8be0079c531659141344cd1fd0a4f28419497f9722a3daafe3b4186f6b6457e0\n      swap2\n        /* \"kash_vesting_flattened.sol\":29357:29373  address oldOwner */\n      swap1\n        /* \"kash_vesting_flattened.sol\":29424:29464  OwnershipTransferred(oldOwner, newOwner) */\n      log3\n        /* \"kash_vesting_flattened.sol\":29347:29471  {... */\n      pop\n        /* \"kash_vesting_flattened.sol\":29284:29471  function _transferOwnership(address newOwner) internal virtual {... */\n      pop\n      jump\t// out\n        /* \"kash_vesting_flattened.sol\":20704:21069  function sendValue(address payable recipient, uint256 amount) internal {... */\n    tag_120:\n        /* \"kash_vesting_flattened.sol\":20813:20819  amount */\n      dup1\n        /* \"kash_vesting_flattened.sol\":20789:20810  address(this).balance */\n      selfbalance\n        /* \"kash_vesting_flattened.sol\":20789:20819  address(this).balance < amount */\n      lt\n        /* \"kash_vesting_flattened.sol\":20785:20910  if (address(this).balance < amount) {... */\n      iszero\n      tag_172\n      jumpi\n        /* \"kash_vesting_flattened.sol\":20842:20899  Errors.InsufficientBalance(address(this).balance, amount) */\n      mload(0x40)\n      0xcf47918100000000000000000000000000000000000000000000000000000000\n      dup2\n      mstore\n        /* \"kash_vesting_flattened.sol\":20869:20890  address(this).balance */\n      selfbalance\n        /* \"kash_vesting_flattened.sol\":20842:20899  Errors.InsufficientBalance(address(this).balance, amount) */\n      0x04\n      dup3\n      add\n        /* \"#utility.yul\":3016:3041   */\n      mstore\n        /* \"#utility.yul\":3057:3075   */\n      0x24\n      dup2\n      add\n        /* \"#utility.yul\":3050:3084   */\n      dup3\n      swap1\n      mstore\n        /* \"#utility.yul\":2989:3007   */\n      0x44\n      add\n        /* \"kash_vesting_flattened.sol\":20842:20899  Errors.InsufficientBalance(address(this).balance, amount) */\n      tag_138\n        /* \"#utility.yul\":2842:3090   */\n      jump\n        /* \"kash_vesting_flattened.sol\":20785:20910  if (address(this).balance < amount) {... */\n    tag_172:\n        /* \"kash_vesting_flattened.sol\":20921:20933  bool success */\n      0x00\n        /* \"kash_vesting_flattened.sol\":20935:20958  bytes memory returndata */\n      dup1\n        /* \"kash_vesting_flattened.sol\":20962:20971  recipient */\n      dup4\n      sub(shl(0xa0, 0x01), 0x01)\n        /* \"kash_vesting_flattened.sol\":20962:20976  recipient.call */\n      and\n        /* \"kash_vesting_flattened.sol\":20984:20990  amount */\n      dup4\n        /* \"kash_vesting_flattened.sol\":20962:20995  recipient.call{value: amount}(\"\") */\n      mload(0x40)\n      0x00\n      mload(0x40)\n      dup1\n      dup4\n      sub\n      dup2\n      dup6\n      dup8\n      gas\n      call\n      swap3\n      pop\n      pop\n      pop\n      returndatasize\n      dup1\n      0x00\n      dup2\n      eq\n      tag_179\n      jumpi\n      mload(0x40)\n      swap2\n      pop\n      and(add(returndatasize, 0x3f), not(0x1f))\n      dup3\n      add\n      0x40\n      mstore\n      returndatasize\n      dup3\n      mstore\n      returndatasize\n      0x00\n      0x20\n      dup5\n      add\n      returndatacopy\n      jump(tag_178)\n    tag_179:\n      0x60\n      swap2\n      pop\n    tag_178:\n      pop\n        /* \"kash_vesting_flattened.sol\":20920:20995  (bool success, bytes memory returndata) = recipient.call{value: amount}(\"\") */\n      swap2\n      pop\n      swap2\n      pop\n        /* \"kash_vesting_flattened.sol\":21010:21017  success */\n      dup2\n        /* \"kash_vesting_flattened.sol\":21005:21063  if (!success) {... */\n      tag_181\n      jumpi\n        /* \"kash_vesting_flattened.sol\":21033:21052  _revert(returndata) */\n      tag_181\n        /* \"kash_vesting_flattened.sol\":21041:21051  returndata */\n      dup2\n        /* \"kash_vesting_flattened.sol\":21033:21040  _revert */\n      tag_182\n        /* \"kash_vesting_flattened.sol\":21033:21052  _revert(returndata) */\n      jump\t// in\n    tag_181:\n        /* \"kash_vesting_flattened.sol\":20775:21069  {... */\n      pop\n      pop\n        /* \"kash_vesting_flattened.sol\":20704:21069  function sendValue(address payable recipient, uint256 amount) internal {... */\n      pop\n      pop\n      jump\t// out\n        /* \"kash_vesting_flattened.sol\":16807:17527  function _callOptionalReturn(IERC20 token, bytes memory data) private {... */\n    tag_162:\n        /* \"kash_vesting_flattened.sol\":16887:16905  uint256 returnSize */\n      0x00\n        /* \"kash_vesting_flattened.sol\":16915:16934  uint256 returnValue */\n      dup1\n        /* \"kash_vesting_flattened.sol\":17053:17057  0x20 */\n      0x20\n        /* \"kash_vesting_flattened.sol\":17050:17051  0 */\n      0x00\n        /* \"kash_vesting_flattened.sol\":17043:17047  data */\n      dup5\n        /* \"kash_vesting_flattened.sol\":17037:17048  mload(data) */\n      mload\n        /* \"kash_vesting_flattened.sol\":17030:17034  0x20 */\n      0x20\n        /* \"kash_vesting_flattened.sol\":17024:17028  data */\n      dup7\n        /* \"kash_vesting_flattened.sol\":17020:17035  add(data, 0x20) */\n      add\n        /* \"kash_vesting_flattened.sol\":17017:17018  0 */\n      0x00\n        /* \"kash_vesting_flattened.sol\":17010:17015  token */\n      dup9\n        /* \"kash_vesting_flattened.sol\":17003:17008  gas() */\n      gas\n        /* \"kash_vesting_flattened.sol\":16998:17058  call(gas(), token, 0, add(data, 0x20), mload(data), 0, 0x20) */\n      call\n        /* \"kash_vesting_flattened.sol\":17110:17117  success */\n      dup1\n        /* \"kash_vesting_flattened.sol\":17100:17276  if iszero(success) {... */\n      tag_184\n      jumpi\n        /* \"kash_vesting_flattened.sol\":17154:17158  0x40 */\n      0x40\n        /* \"kash_vesting_flattened.sol\":17148:17159  mload(0x40) */\n      mload\n        /* \"kash_vesting_flattened.sol\":17199:17215  returndatasize() */\n      returndatasize\n        /* \"kash_vesting_flattened.sol\":17196:17197  0 */\n      0x00\n        /* \"kash_vesting_flattened.sol\":17191:17194  ptr */\n      dup3\n        /* \"kash_vesting_flattened.sol\":17176:17216  returndatacopy(ptr, 0, returndatasize()) */\n      returndatacopy\n        /* \"kash_vesting_flattened.sol\":17245:17261  returndatasize() */\n      returndatasize\n        /* \"kash_vesting_flattened.sol\":17240:17243  ptr */\n      dup2\n        /* \"kash_vesting_flattened.sol\":17233:17262  revert(ptr, returndatasize()) */\n      revert\n        /* \"kash_vesting_flattened.sol\":17100:17276  if iszero(success) {... */\n    tag_184:\n      pop\n      pop\n        /* \"kash_vesting_flattened.sol\":17353:17354  0 */\n      0x00\n        /* \"kash_vesting_flattened.sol\":17347:17355  mload(0) */\n      mload\n        /* \"kash_vesting_flattened.sol\":17303:17319  returndatasize() */\n      returndatasize\n      swap2\n      pop\n        /* \"kash_vesting_flattened.sol\":17379:17394  returnSize == 0 */\n      dup2\n      iszero\n        /* \"kash_vesting_flattened.sol\":17379:17447  returnSize == 0 ? address(token).code.length == 0 : returnValue != 1 */\n      tag_185\n      jumpi\n        /* \"kash_vesting_flattened.sol\":17431:17442  returnValue */\n      dup1\n        /* \"kash_vesting_flattened.sol\":17446:17447  1 */\n      0x01\n        /* \"kash_vesting_flattened.sol\":17431:17447  returnValue != 1 */\n      eq\n      iszero\n        /* \"kash_vesting_flattened.sol\":17379:17447  returnSize == 0 ? address(token).code.length == 0 : returnValue != 1 */\n      jump(tag_186)\n    tag_185:\n      sub(shl(0xa0, 0x01), 0x01)\n        /* \"kash_vesting_flattened.sol\":17397:17423  address(token).code.length */\n      dup5\n      and\n      extcodesize\n        /* \"kash_vesting_flattened.sol\":17397:17428  address(token).code.length == 0 */\n      iszero\n        /* \"kash_vesting_flattened.sol\":17379:17447  returnSize == 0 ? address(token).code.length == 0 : returnValue != 1 */\n    tag_186:\n        /* \"kash_vesting_flattened.sol\":17375:17521  if (returnSize == 0 ? address(token).code.length == 0 : returnValue != 1) {... */\n      iszero\n      tag_181\n      jumpi\n        /* \"kash_vesting_flattened.sol\":17470:17510  SafeERC20FailedOperation(address(token)) */\n      mload(0x40)\n      0x5274afe700000000000000000000000000000000000000000000000000000000\n      dup2\n      mstore\n      sub(shl(0xa0, 0x01), 0x01)\n        /* \"#utility.yul\":1380:1435   */\n      dup6\n      and\n        /* \"kash_vesting_flattened.sol\":17470:17510  SafeERC20FailedOperation(address(token)) */\n      0x04\n      dup3\n      add\n        /* \"#utility.yul\":1362:1436   */\n      mstore\n        /* \"#utility.yul\":1335:1353   */\n      0x24\n      add\n        /* \"kash_vesting_flattened.sol\":17470:17510  SafeERC20FailedOperation(address(token)) */\n      tag_138\n        /* \"#utility.yul\":1216:1442   */\n      jump\n        /* \"kash_vesting_flattened.sol\":24973:25407  function _revert(bytes memory returndata) private pure {... */\n    tag_182:\n        /* \"kash_vesting_flattened.sol\":25104:25121  returndata.length */\n      dup1\n      mload\n        /* \"kash_vesting_flattened.sol\":25104:25125  returndata.length > 0 */\n      iszero\n        /* \"kash_vesting_flattened.sol\":25100:25401  if (returndata.length > 0) {... */\n      tag_191\n      jumpi\n        /* \"kash_vesting_flattened.sol\":25308:25318  returndata */\n      dup1\n        /* \"kash_vesting_flattened.sol\":25302:25319  mload(returndata) */\n      mload\n        /* \"kash_vesting_flattened.sol\":25295:25299  0x20 */\n      0x20\n        /* \"kash_vesting_flattened.sol\":25283:25293  returndata */\n      dup3\n        /* \"kash_vesting_flattened.sol\":25279:25300  add(returndata, 0x20) */\n      add\n        /* \"kash_vesting_flattened.sol\":25272:25320  revert(add(returndata, 0x20), mload(returndata)) */\n      revert\n        /* \"kash_vesting_flattened.sol\":25100:25401  if (returndata.length > 0) {... */\n    tag_191:\n        /* \"kash_vesting_flattened.sol\":25371:25390  Errors.FailedCall() */\n      mload(0x40)\n      0xd6bda27500000000000000000000000000000000000000000000000000000000\n      dup2\n      mstore\n      0x04\n      add\n      mload(0x40)\n      dup1\n      swap2\n      sub\n      swap1\n      revert\n        /* \"#utility.yul\":14:185   */\n    tag_193:\n        /* \"#utility.yul\":81:101   */\n      dup1\n      calldataload\n        /* \"#utility.yul\":141:159   */\n      0xffffffffffffffff\n        /* \"#utility.yul\":130:160   */\n      dup2\n      and\n        /* \"#utility.yul\":120:161   */\n      dup2\n      eq\n        /* \"#utility.yul\":110:179   */\n      tag_198\n      jumpi\n        /* \"#utility.yul\":175:176   */\n      0x00\n        /* \"#utility.yul\":172:173   */\n      dup1\n        /* \"#utility.yul\":165:177   */\n      revert\n        /* \"#utility.yul\":110:179   */\n    tag_198:\n        /* \"#utility.yul\":14:185   */\n      swap2\n      swap1\n      pop\n      jump\t// out\n        /* \"#utility.yul\":190:374   */\n    tag_25:\n        /* \"#utility.yul\":248:254   */\n      0x00\n        /* \"#utility.yul\":301:303   */\n      0x20\n        /* \"#utility.yul\":289:298   */\n      dup3\n        /* \"#utility.yul\":280:287   */\n      dup5\n        /* \"#utility.yul\":276:299   */\n      sub\n        /* \"#utility.yul\":272:304   */\n      slt\n        /* \"#utility.yul\":269:321   */\n      iszero\n      tag_200\n      jumpi\n        /* \"#utility.yul\":317:318   */\n      0x00\n        /* \"#utility.yul\":314:315   */\n      dup1\n        /* \"#utility.yul\":307:319   */\n      revert\n        /* \"#utility.yul\":269:321   */\n    tag_200:\n        /* \"#utility.yul\":340:368   */\n      tag_106\n        /* \"#utility.yul\":358:367   */\n      dup3\n        /* \"#utility.yul\":340:368   */\n      tag_193\n      jump\t// in\n        /* \"#utility.yul\":561:757   */\n    tag_194:\n        /* \"#utility.yul\":629:649   */\n      dup1\n      calldataload\n      sub(shl(0xa0, 0x01), 0x01)\n        /* \"#utility.yul\":678:732   */\n      dup2\n      and\n        /* \"#utility.yul\":668:733   */\n      dup2\n      eq\n        /* \"#utility.yul\":658:751   */\n      tag_198\n      jumpi\n        /* \"#utility.yul\":747:748   */\n      0x00\n        /* \"#utility.yul\":744:745   */\n      dup1\n        /* \"#utility.yul\":737:749   */\n      revert\n        /* \"#utility.yul\":762:948   */\n    tag_36:\n        /* \"#utility.yul\":821:827   */\n      0x00\n        /* \"#utility.yul\":874:876   */\n      0x20\n        /* \"#utility.yul\":862:871   */\n      dup3\n        /* \"#utility.yul\":853:860   */\n      dup5\n        /* \"#utility.yul\":849:872   */\n      sub\n        /* \"#utility.yul\":845:877   */\n      slt\n        /* \"#utility.yul\":842:894   */\n      iszero\n      tag_206\n      jumpi\n        /* \"#utility.yul\":890:891   */\n      0x00\n        /* \"#utility.yul\":887:888   */\n      dup1\n        /* \"#utility.yul\":880:892   */\n      revert\n        /* \"#utility.yul\":842:894   */\n    tag_206:\n        /* \"#utility.yul\":913:942   */\n      tag_106\n        /* \"#utility.yul\":932:941   */\n      dup3\n        /* \"#utility.yul\":913:942   */\n      tag_194\n      jump\t// in\n        /* \"#utility.yul\":953:1211   */\n    tag_44:\n        /* \"#utility.yul\":1020:1026   */\n      0x00\n        /* \"#utility.yul\":1028:1034   */\n      dup1\n        /* \"#utility.yul\":1081:1083   */\n      0x40\n        /* \"#utility.yul\":1069:1078   */\n      dup4\n        /* \"#utility.yul\":1060:1067   */\n      dup6\n        /* \"#utility.yul\":1056:1079   */\n      sub\n        /* \"#utility.yul\":1052:1084   */\n      slt\n        /* \"#utility.yul\":1049:1101   */\n      iszero\n      tag_209\n      jumpi\n        /* \"#utility.yul\":1097:1098   */\n      0x00\n        /* \"#utility.yul\":1094:1095   */\n      dup1\n        /* \"#utility.yul\":1087:1099   */\n      revert\n        /* \"#utility.yul\":1049:1101   */\n    tag_209:\n        /* \"#utility.yul\":1120:1149   */\n      tag_210\n        /* \"#utility.yul\":1139:1148   */\n      dup4\n        /* \"#utility.yul\":1120:1149   */\n      tag_194\n      jump\t// in\n    tag_210:\n        /* \"#utility.yul\":1110:1149   */\n      swap2\n      pop\n        /* \"#utility.yul\":1168:1205   */\n      tag_211\n        /* \"#utility.yul\":1201:1203   */\n      0x20\n        /* \"#utility.yul\":1190:1199   */\n      dup5\n        /* \"#utility.yul\":1186:1204   */\n      add\n        /* \"#utility.yul\":1168:1205   */\n      tag_193\n      jump\t// in\n    tag_211:\n        /* \"#utility.yul\":1158:1205   */\n      swap1\n      pop\n        /* \"#utility.yul\":953:1211   */\n      swap3\n      pop\n      swap3\n      swap1\n      pop\n      jump\t// out\n        /* \"#utility.yul\":1447:1631   */\n    tag_195:\n      shl(0xe0, 0x4e487b71)\n        /* \"#utility.yul\":1496:1497   */\n      0x00\n        /* \"#utility.yul\":1489:1577   */\n      mstore\n        /* \"#utility.yul\":1596:1600   */\n      0x11\n        /* \"#utility.yul\":1593:1594   */\n      0x04\n        /* \"#utility.yul\":1586:1601   */\n      mstore\n        /* \"#utility.yul\":1620:1624   */\n      0x24\n        /* \"#utility.yul\":1617:1618   */\n      0x00\n        /* \"#utility.yul\":1610:1625   */\n      revert\n        /* \"#utility.yul\":1636:1761   */\n    tag_89:\n        /* \"#utility.yul\":1701:1710   */\n      dup1\n      dup3\n      add\n        /* \"#utility.yul\":1722:1732   */\n      dup1\n      dup3\n      gt\n        /* \"#utility.yul\":1719:1755   */\n      iszero\n      tag_86\n      jumpi\n        /* \"#utility.yul\":1735:1753   */\n      tag_86\n      tag_195\n      jump\t// in\n        /* \"#utility.yul\":1766:1950   */\n    tag_112:\n        /* \"#utility.yul\":1836:1842   */\n      0x00\n        /* \"#utility.yul\":1889:1891   */\n      0x20\n        /* \"#utility.yul\":1877:1886   */\n      dup3\n        /* \"#utility.yul\":1868:1875   */\n      dup5\n        /* \"#utility.yul\":1864:1887   */\n      sub\n        /* \"#utility.yul\":1860:1892   */\n      slt\n        /* \"#utility.yul\":1857:1909   */\n      iszero\n      tag_218\n      jumpi\n        /* \"#utility.yul\":1905:1906   */\n      0x00\n        /* \"#utility.yul\":1902:1903   */\n      dup1\n        /* \"#utility.yul\":1895:1907   */\n      revert\n        /* \"#utility.yul\":1857:1909   */\n    tag_218:\n      pop\n        /* \"#utility.yul\":1928:1944   */\n      mload\n      swap2\n        /* \"#utility.yul\":1766:1950   */\n      swap1\n      pop\n      jump\t// out\n        /* \"#utility.yul\":1955:2083   */\n    tag_128:\n        /* \"#utility.yul\":2022:2031   */\n      dup2\n      dup2\n      sub\n        /* \"#utility.yul\":2043:2054   */\n      dup2\n      dup2\n      gt\n        /* \"#utility.yul\":2040:2077   */\n      iszero\n      tag_86\n      jumpi\n        /* \"#utility.yul\":2057:2075   */\n      tag_86\n      tag_195\n      jump\t// in\n        /* \"#utility.yul\":2088:2256   */\n    tag_155:\n        /* \"#utility.yul\":2161:2170   */\n      dup1\n      dup3\n      mul\n        /* \"#utility.yul\":2192:2201   */\n      dup2\n      iszero\n        /* \"#utility.yul\":2209:2224   */\n      dup3\n      dup3\n      div\n        /* \"#utility.yul\":2203:2225   */\n      dup5\n      eq\n        /* \"#utility.yul\":2189:2226   */\n      or\n        /* \"#utility.yul\":2179:2250   */\n      tag_86\n      jumpi\n        /* \"#utility.yul\":2230:2248   */\n      tag_86\n      tag_195\n      jump\t// in\n        /* \"#utility.yul\":2261:2535   */\n    tag_157:\n        /* \"#utility.yul\":2301:2302   */\n      0x00\n        /* \"#utility.yul\":2327:2328   */\n      dup3\n        /* \"#utility.yul\":2317:2506   */\n      tag_226\n      jumpi\n      shl(0xe0, 0x4e487b71)\n        /* \"#utility.yul\":2359:2360   */\n      0x00\n        /* \"#utility.yul\":2352:2440   */\n      mstore\n        /* \"#utility.yul\":2463:2467   */\n      0x12\n        /* \"#utility.yul\":2460:2461   */\n      0x04\n        /* \"#utility.yul\":2453:2468   */\n      mstore\n        /* \"#utility.yul\":2491:2495   */\n      0x24\n        /* \"#utility.yul\":2488:2489   */\n      0x00\n        /* \"#utility.yul\":2481:2496   */\n      revert\n        /* \"#utility.yul\":2317:2506   */\n    tag_226:\n      pop\n        /* \"#utility.yul\":2520:2529   */\n      div\n      swap1\n        /* \"#utility.yul\":2261:2535   */\n      jump\t// out\n\n    auxdata: 0xa2646970667358221220f7e46d04b353336463865523591d90d42330fcd85feeef24e1f61261d1b4baf964736f6c63430008210033\n}\n",
				"bytecode": {
					"linkReferences": {},
					"object": "60c0604052604051610c4b380380610c4b833981016040819052610022916100df565b826001600160a01b03811661005157604051631e4fbdf760e01b81526000600482015260240160405180910390fd5b61005a81610073565b506001600160401b039182166080521660a05250610130565b600080546001600160a01b038381166001600160a01b0319831681178455604051919092169283917f8be0079c531659141344cd1fd0a4f28419497f9722a3daafe3b4186f6b6457e09190a35050565b80516001600160401b03811681146100da57600080fd5b919050565b6000806000606084860312156100f457600080fd5b83516001600160a01b038116811461010b57600080fd5b9250610119602085016100c3565b9150610127604085016100c3565b90509250925092565b60805160a051610ad36101786000396000818161012f01528181610516015261064201526000818161026b0152818161053a015281816105df015261066d0152610ad36000f3fe6080604052600436106100e15760003560e01c8063961325211161007f578063be9a655511610059578063be9a65551461025c578063efbe1c1c14610299578063f2fde38b146102ae578063fbccedae146102ce57600080fd5b806396132521146101f15780639852595c14610206578063a3f8eace1461023c57600080fd5b8063715018a6116100bb578063715018a61461017f578063810ec23b1461019457806386d1a69f146101b45780638da5cb5b146101c957600080fd5b80630a17b06b146100ed5780630fb5a6b414610120578063191655871461015d57600080fd5b366100e857005b600080fd5b3480156100f957600080fd5b5061010d61010836600461098f565b6102e3565b6040519081526020015b60405180910390f35b34801561012c57600080fd5b507f000000000000000000000000000000000000000000000000000000000000000067ffffffffffffffff1661010d565b34801561016957600080fd5b5061017d6101783660046109c1565b610307565b005b34801561018b57600080fd5b5061017d6103a2565b3480156101a057600080fd5b5061010d6101af3660046109dc565b6103b6565b3480156101c057600080fd5b5061017d610465565b3480156101d557600080fd5b506000546040516001600160a01b039091168152602001610117565b3480156101fd57600080fd5b5060015461010d565b34801561021257600080fd5b5061010d6102213660046109c1565b6001600160a01b031660009081526002602052604090205490565b34801561024857600080fd5b5061010d6102573660046109c1565b6104d9565b34801561026857600080fd5b507f000000000000000000000000000000000000000000000000000000000000000067ffffffffffffffff1661010d565b3480156102a557600080fd5b5061010d610506565b3480156102ba57600080fd5b5061017d6102c93660046109c1565b610564565b3480156102da57600080fd5b5061010d6105bd565b60006103016102f160015490565b6102fb9047610a25565b836105db565b92915050565b6000610312826104d9565b6001600160a01b03831660009081526002602052604081208054929350839290919061033f908490610a25565b90915550506040518181526001600160a01b038316907fc0e523490dd523c33b1878c9eb14ff46991e3f5b2cd33710918618f2a39cba1b9060200160405180910390a261039e826103986000546001600160a01b031690565b836106c5565b5050565b6103aa61074a565b6103b46000610790565b565b6001600160a01b03821660009081526002602052604081205461045e906040517f70a082310000000000000000000000000000000000000000000000000000000081523060048201526001600160a01b038616906370a0823190602401602060405180830381865afa158015610430573d6000803e3d6000fd5b505050506040513d601f19601f820116820180604052508101906104549190610a38565b6102fb9190610a25565b9392505050565b600061046f6105bd565b905080600160008282546104839190610a25565b90915550506040518181527fda9d4e5f101b8b9b1c5b76d0c5a9f7923571acfc02376aa076b75a8c080c956b9060200160405180910390a16104d66104d06000546001600160a01b031690565b826107f8565b50565b6001600160a01b0381166000908152600260205260408120546104fc83426103b6565b6103019190610a51565b600061055f67ffffffffffffffff7f00000000000000000000000000000000000000000000000000000000000000008116907f000000000000000000000000000000000000000000000000000000000000000016610a25565b905090565b61056c61074a565b6001600160a01b0381166105b4576040517f1e4fbdf7000000000000000000000000000000000000000000000000000000008152600060048201526024015b60405180910390fd5b6104d681610790565b60006105c860015490565b6105d1426102e3565b61055f9190610a51565b60007f000000000000000000000000000000000000000000000000000000000000000067ffffffffffffffff168267ffffffffffffffff16101561062157506000610301565b610629610506565b8267ffffffffffffffff1610610640575081610301565b7f000000000000000000000000000000000000000000000000000000000000000067ffffffffffffffff167f000000000000000000000000000000000000000000000000000000000000000067ffffffffffffffff166106aa9067ffffffffffffffff8516610a51565b6106b49085610a64565b6106be9190610a7b565b9050610301565b604080516001600160a01b038416602482015260448082018490528251808303909101815260649091019091526020810180517bffffffffffffffffffffffffffffffffffffffffffffffffffffffff167fa9059cbb000000000000000000000000000000000000000000000000000000001790526107459084906108a7565b505050565b6000546001600160a01b031633146103b4576040517f118cdaa70000000000000000000000000000000000000000000000000000000081523360048201526024016105ab565b600080546001600160a01b038381167fffffffffffffffffffffffff0000000000000000000000000000000000000000831681178455604051919092169283917f8be0079c531659141344cd1fd0a4f28419497f9722a3daafe3b4186f6b6457e09190a35050565b8047101561083b576040517fcf479181000000000000000000000000000000000000000000000000000000008152476004820152602481018290526044016105ab565b600080836001600160a01b03168360405160006040518083038185875af1925050503d8060008114610889576040519150601f19603f3d011682016040523d82523d6000602084013e61088e565b606091505b5091509150816108a1576108a181610931565b50505050565b600080602060008451602086016000885af1806108ca576040513d6000823e3d81fd5b50506000513d915081156108e25780600114156108ef565b6001600160a01b0384163b155b156108a1576040517f5274afe70000000000000000000000000000000000000000000000000000000081526001600160a01b03851660048201526024016105ab565b80511561094057805160208201fd5b6040517fd6bda27500000000000000000000000000000000000000000000000000000000815260040160405180910390fd5b803567ffffffffffffffff8116811461098a57600080fd5b919050565b6000602082840312156109a157600080fd5b61045e82610972565b80356001600160a01b038116811461098a57600080fd5b6000602082840312156109d357600080fd5b61045e826109aa565b600080604083850312156109ef57600080fd5b6109f8836109aa565b9150610a0660208401610972565b90509250929050565b634e487b7160e01b600052601160045260246000fd5b8082018082111561030157610301610a0f565b600060208284031215610a4a57600080fd5b5051919050565b8181038181111561030157610301610a0f565b808202811582820484141761030157610301610a0f565b600082610a9857634e487b7160e01b600052601260045260246000fd5b50049056fea2646970667358221220f7e46d04b353336463865523591d90d42330fcd85feeef24e1f61261d1b4baf964736f6c63430008210033",
					"opcodes": "PUSH1 0xC0 PUSH1 0x40 MSTORE PUSH1 0x40 MLOAD PUSH2 0xC4B CODESIZE SUB DUP1 PUSH2 0xC4B DUP4 CODECOPY DUP2 ADD PUSH1 0x40 DUP2 SWAP1 MSTORE PUSH2 0x22 SWAP2 PUSH2 0xDF JUMP JUMPDEST DUP3 PUSH1 0x1 PUSH1 0x1 PUSH1 0xA0 SHL SUB DUP2 AND PUSH2 0x51 JUMPI PUSH1 0x40 MLOAD PUSH4 0x1E4FBDF7 PUSH1 0xE0 SHL DUP2 MSTORE PUSH1 0x0 PUSH1 0x4 DUP3 ADD MSTORE PUSH1 0x24 ADD PUSH1 0x40 MLOAD DUP1 SWAP2 SUB SWAP1 REVERT JUMPDEST PUSH2 0x5A DUP2 PUSH2 0x73 JUMP JUMPDEST POP PUSH1 0x1 PUSH1 0x1 PUSH1 0x40 SHL SUB SWAP2 DUP3 AND PUSH1 0x80 MSTORE AND PUSH1 0xA0 MSTORE POP PUSH2 0x130 JUMP JUMPDEST PUSH1 0x0 DUP1 SLOAD PUSH1 0x1 PUSH1 0x1 PUSH1 0xA0 SHL SUB DUP4 DUP2 AND PUSH1 0x1 PUSH1 0x1 PUSH1 0xA0 SHL SUB NOT DUP4 AND DUP2 OR DUP5 SSTORE PUSH1 0x40 MLOAD SWAP2 SWAP1 SWAP3 AND SWAP3 DUP4 SWAP2 PUSH32 0x8BE0079C531659141344CD1FD0A4F28419497F9722A3DAAFE3B4186F6B6457E0 SWAP2 SWAP1 LOG3 POP POP JUMP JUMPDEST DUP1 MLOAD PUSH1 0x1 PUSH1 0x1 PUSH1 0x40 SHL SUB DUP2 AND DUP2 EQ PUSH2 0xDA JUMPI PUSH1 0x0 DUP1 REVERT JUMPDEST SWAP2 SWAP1 POP JUMP JUMPDEST PUSH1 0x0 DUP1 PUSH1 0x0 PUSH1 0x60 DUP5 DUP7 SUB SLT ISZERO PUSH2 0xF4 JUMPI PUSH1 0x0 DUP1 REVERT JUMPDEST DUP4 MLOAD PUSH1 0x1 PUSH1 0x1 PUSH1 0xA0 SHL SUB DUP2 AND DUP2 EQ PUSH2 0x10B JUMPI PUSH1 0x0 DUP1 REVERT JUMPDEST SWAP3 POP PUSH2 0x119 PUSH1 0x20 DUP6 ADD PUSH2 0xC3 JUMP JUMPDEST SWAP2 POP PUSH2 0x127 PUSH1 0x40 DUP6 ADD PUSH2 0xC3 JUMP JUMPDEST SWAP1 POP SWAP3 POP SWAP3 POP SWAP3 JUMP JUMPDEST PUSH1 0x80 MLOAD PUSH1 0xA0 MLOAD PUSH2 0xAD3 PUSH2 0x178 PUSH1 0x0 CODECOPY PUSH1 0x0 DUP2 DUP2 PUSH2 0x12F ADD MSTORE DUP2 DUP2 PUSH2 0x516 ADD MSTORE PUSH2 0x642 ADD MSTORE PUSH1 0x0 DUP2 DUP2 PUSH2 0x26B ADD MSTORE DUP2 DUP2 PUSH2 0x53A ADD MSTORE DUP2 DUP2 PUSH2 0x5DF ADD MSTORE PUSH2 0x66D ADD MSTORE PUSH2 0xAD3 PUSH1 0x0 RETURN INVALID PUSH1 0x80 PUSH1 0x40 MSTORE PUSH1 0x4 CALLDATASIZE LT PUSH2 0xE1 JUMPI PUSH1 0x0 CALLDATALOAD PUSH1 0xE0 SHR DUP1 PUSH4 0x96132521 GT PUSH2 0x7F JUMPI DUP1 PUSH4 0xBE9A6555 GT PUSH2 0x59 JUMPI DUP1 PUSH4 0xBE9A6555 EQ PUSH2 0x25C JUMPI DUP1 PUSH4 0xEFBE1C1C EQ PUSH2 0x299 JUMPI DUP1 PUSH4 0xF2FDE38B EQ PUSH2 0x2AE JUMPI DUP1 PUSH4 0xFBCCEDAE EQ PUSH2 0x2CE JUMPI PUSH1 0x0 DUP1 REVERT JUMPDEST DUP1 PUSH4 0x96132521 EQ PUSH2 0x1F1 JUMPI DUP1 PUSH4 0x9852595C EQ PUSH2 0x206 JUMPI DUP1 PUSH4 0xA3F8EACE EQ PUSH2 0x23C JUMPI PUSH1 0x0 DUP1 REVERT JUMPDEST DUP1 PUSH4 0x715018A6 GT PUSH2 0xBB JUMPI DUP1 PUSH4 0x715018A6 EQ PUSH2 0x17F JUMPI DUP1 PUSH4 0x810EC23B EQ PUSH2 0x194 JUMPI DUP1 PUSH4 0x86D1A69F EQ PUSH2 0x1B4 JUMPI DUP1 PUSH4 0x8DA5CB5B EQ PUSH2 0x1C9 JUMPI PUSH1 0x0 DUP1 REVERT JUMPDEST DUP1 PUSH4 0xA17B06B EQ PUSH2 0xED JUMPI DUP1 PUSH4 0xFB5A6B4 EQ PUSH2 0x120 JUMPI DUP1 PUSH4 0x19165587 EQ PUSH2 0x15D JUMPI PUSH1 0x0 DUP1 REVERT JUMPDEST CALLDATASIZE PUSH2 0xE8 JUMPI STOP JUMPDEST PUSH1 0x0 DUP1 REVERT JUMPDEST CALLVALUE DUP1 ISZERO PUSH2 0xF9 JUMPI PUSH1 0x0 DUP1 REVERT JUMPDEST POP PUSH2 0x10D PUSH2 0x108 CALLDATASIZE PUSH1 0x4 PUSH2 0x98F JUMP JUMPDEST PUSH2 0x2E3 JUMP JUMPDEST PUSH1 0x40 MLOAD SWAP1 DUP2 MSTORE PUSH1 0x20 ADD JUMPDEST PUSH1 0x40 MLOAD DUP1 SWAP2 SUB SWAP1 RETURN JUMPDEST CALLVALUE DUP1 ISZERO PUSH2 0x12C JUMPI PUSH1 0x0 DUP1 REVERT JUMPDEST POP PUSH32 0x0 PUSH8 0xFFFFFFFFFFFFFFFF AND PUSH2 0x10D JUMP JUMPDEST CALLVALUE DUP1 ISZERO PUSH2 0x169 JUMPI PUSH1 0x0 DUP1 REVERT JUMPDEST POP PUSH2 0x17D PUSH2 0x178 CALLDATASIZE PUSH1 0x4 PUSH2 0x9C1 JUMP JUMPDEST PUSH2 0x307 JUMP JUMPDEST STOP JUMPDEST CALLVALUE DUP1 ISZERO PUSH2 0x18B JUMPI PUSH1 0x0 DUP1 REVERT JUMPDEST POP PUSH2 0x17D PUSH2 0x3A2 JUMP JUMPDEST CALLVALUE DUP1 ISZERO PUSH2 0x1A0 JUMPI PUSH1 0x0 DUP1 REVERT JUMPDEST POP PUSH2 0x10D PUSH2 0x1AF CALLDATASIZE PUSH1 0x4 PUSH2 0x9DC JUMP JUMPDEST PUSH2 0x3B6 JUMP JUMPDEST CALLVALUE DUP1 ISZERO PUSH2 0x1C0 JUMPI PUSH1 0x0 DUP1 REVERT JUMPDEST POP PUSH2 0x17D PUSH2 0x465 JUMP JUMPDEST CALLVALUE DUP1 ISZERO PUSH2 0x1D5 JUMPI PUSH1 0x0 DUP1 REVERT JUMPDEST POP PUSH1 0x0 SLOAD PUSH1 0x40 MLOAD PUSH1 0x1 PUSH1 0x1 PUSH1 0xA0 SHL SUB SWAP1 SWAP2 AND DUP2 MSTORE PUSH1 0x20 ADD PUSH2 0x117 JUMP JUMPDEST CALLVALUE DUP1 ISZERO PUSH2 0x1FD JUMPI PUSH1 0x0 DUP1 REVERT JUMPDEST POP PUSH1 0x1 SLOAD PUSH2 0x10D JUMP JUMPDEST CALLVALUE DUP1 ISZERO PUSH2 0x212 JUMPI PUSH1 0x0 DUP1 REVERT JUMPDEST POP PUSH2 0x10D PUSH2 0x221 CALLDATASIZE PUSH1 0x4 PUSH2 0x9C1 JUMP JUMPDEST PUSH1 0x1 PUSH1 0x1 PUSH1 0xA0 SHL SUB AND PUSH1 0x0 SWAP1 DUP2 MSTORE PUSH1 0x2 PUSH1 0x20 MSTORE PUSH1 0x40 SWAP1 KECCAK256 SLOAD SWAP1 JUMP JUMPDEST CALLVALUE DUP1 ISZERO PUSH2 0x248 JUMPI PUSH1 0x0 DUP1 REVERT JUMPDEST POP PUSH2 0x10D PUSH2 0x257 CALLDATASIZE PUSH1 0x4 PUSH2 0x9C1 JUMP JUMPDEST PUSH2 0x4D9 JUMP JUMPDEST CALLVALUE DUP1 ISZERO PUSH2 0x268 JUMPI PUSH1 0x0 DUP1 REVERT JUMPDEST POP PUSH32 0x0 PUSH8 0xFFFFFFFFFFFFFFFF AND PUSH2 0x10D JUMP JUMPDEST CALLVALUE DUP1 ISZERO PUSH2 0x2A5 JUMPI PUSH1 0x0 DUP1 REVERT JUMPDEST POP PUSH2 0x10D PUSH2 0x506 JUMP JUMPDEST CALLVALUE DUP1 ISZERO PUSH2 0x2BA JUMPI PUSH1 0x0 DUP1 REVERT JUMPDEST POP PUSH2 0x17D PUSH2 0x2C9 CALLDATASIZE PUSH1 0x4 PUSH2 0x9C1 JUMP JUMPDEST PUSH2 0x564 JUMP JUMPDEST CALLVALUE DUP1 ISZERO PUSH2 0x2DA JUMPI PUSH1 0x0 DUP1 REVERT JUMPDEST POP PUSH2 0x10D PUSH2 0x5BD JUMP JUMPDEST PUSH1 0x0 PUSH2 0x301 PUSH2 0x2F1 PUSH1 0x1 SLOAD SWAP1 JUMP JUMPDEST PUSH2 0x2FB SWAP1 SELFBALANCE PUSH2 0xA25 JUMP JUMPDEST DUP4 PUSH2 0x5DB JUMP JUMPDEST SWAP3 SWAP2 POP POP JUMP JUMPDEST PUSH1 0x0 PUSH2 0x312 DUP3 PUSH2 0x4D9 JUMP JUMPDEST PUSH1 0x1 PUSH1 0x1 PUSH1 0xA0 SHL SUB DUP4 AND PUSH1 0x0 SWAP1 DUP2 MSTORE PUSH1 0x2 PUSH1 0x20 MSTORE PUSH1 0x40 DUP2 KECCAK256 DUP1 SLOAD SWAP3 SWAP4 POP DUP4 SWAP3 SWAP1 SWAP2 SWAP1 PUSH2 0x33F SWAP1 DUP5 SWAP1 PUSH2 0xA25 JUMP JUMPDEST SWAP1 SWAP2 SSTORE POP POP PUSH1 0x40 MLOAD DUP2 DUP2 MSTORE PUSH1 0x1 PUSH1 0x1 PUSH1 0xA0 SHL SUB DUP4 AND SWAP1 PUSH32 0xC0E523490DD523C33B1878C9EB14FF46991E3F5B2CD33710918618F2A39CBA1B SWAP1 PUSH1 0x20 ADD PUSH1 0x40 MLOAD DUP1 SWAP2 SUB SWAP1 LOG2 PUSH2 0x39E DUP3 PUSH2 0x398 PUSH1 0x0 SLOAD PUSH1 0x1 PUSH1 0x1 PUSH1 0xA0 SHL SUB AND SWAP1 JUMP JUMPDEST DUP4 PUSH2 0x6C5 JUMP JUMPDEST POP POP JUMP JUMPDEST PUSH2 0x3AA PUSH2 0x74A JUMP JUMPDEST PUSH2 0x3B4 PUSH1 0x0 PUSH2 0x790 JUMP JUMPDEST JUMP JUMPDEST PUSH1 0x1 PUSH1 0x1 PUSH1 0xA0 SHL SUB DUP3 AND PUSH1 0x0 SWAP1 DUP2 MSTORE PUSH1 0x2 PUSH1 0x20 MSTORE PUSH1 0x40 DUP2 KECCAK256 SLOAD PUSH2 0x45E SWAP1 PUSH1 0x40 MLOAD PUSH32 0x70A0823100000000000000000000000000000000000000000000000000000000 DUP2 MSTORE ADDRESS PUSH1 0x4 DUP3 ADD MSTORE PUSH1 0x1 PUSH1 0x1 PUSH1 0xA0 SHL SUB DUP7 AND SWAP1 PUSH4 0x70A08231 SWAP1 PUSH1 0x24 ADD PUSH1 0x20 PUSH1 0x40 MLOAD DUP1 DUP4 SUB DUP2 DUP7 GAS STATICCALL ISZERO DUP1 ISZERO PUSH2 0x430 JUMPI RETURNDATASIZE PUSH1 0x0 DUP1 RETURNDATACOPY RETURNDATASIZE PUSH1 0x0 REVERT JUMPDEST POP POP POP POP PUSH1 0x40 MLOAD RETURNDATASIZE PUSH1 0x1F NOT PUSH1 0x1F DUP3 ADD AND DUP3 ADD DUP1 PUSH1 0x40 MSTORE POP DUP2 ADD SWAP1 PUSH2 0x454 SWAP2 SWAP1 PUSH2 0xA38 JUMP JUMPDEST PUSH2 0x2FB SWAP2 SWAP1 PUSH2 0xA25 JUMP JUMPDEST SWAP4 SWAP3 POP POP POP JUMP JUMPDEST PUSH1 0x0 PUSH2 0x46F PUSH2 0x5BD JUMP JUMPDEST SWAP1 POP DUP1 PUSH1 0x1 PUSH1 0x0 DUP3 DUP3 SLOAD PUSH2 0x483 SWAP2 SWAP1 PUSH2 0xA25 JUMP JUMPDEST SWAP1 SWAP2 SSTORE POP POP PUSH1 0x40 MLOAD DUP2 DUP2 MSTORE PUSH32 0xDA9D4E5F101B8B9B1C5B76D0C5A9F7923571ACFC02376AA076B75A8C080C956B SWAP1 PUSH1 0x20 ADD PUSH1 0x40 MLOAD DUP1 SWAP2 SUB SWAP1 LOG1 PUSH2 0x4D6 PUSH2 0x4D0 PUSH1 0x0 SLOAD PUSH1 0x1 PUSH1 0x1 PUSH1 0xA0 SHL SUB AND SWAP1 JUMP JUMPDEST DUP3 PUSH2 0x7F8 JUMP JUMPDEST POP JUMP JUMPDEST PUSH1 0x1 PUSH1 0x1 PUSH1 0xA0 SHL SUB DUP2 AND PUSH1 0x0 SWAP1 DUP2 MSTORE PUSH1 0x2 PUSH1 0x20 MSTORE PUSH1 0x40 DUP2 KECCAK256 SLOAD PUSH2 0x4FC DUP4 TIMESTAMP PUSH2 0x3B6 JUMP JUMPDEST PUSH2 0x301 SWAP2 SWAP1 PUSH2 0xA51 JUMP JUMPDEST PUSH1 0x0 PUSH2 0x55F PUSH8 0xFFFFFFFFFFFFFFFF PUSH32 0x0 DUP2 AND SWAP1 PUSH32 0x0 AND PUSH2 0xA25 JUMP JUMPDEST SWAP1 POP SWAP1 JUMP JUMPDEST PUSH2 0x56C PUSH2 0x74A JUMP JUMPDEST PUSH1 0x1 PUSH1 0x1 PUSH1 0xA0 SHL SUB DUP2 AND PUSH2 0x5B4 JUMPI PUSH1 0x40 MLOAD PUSH32 0x1E4FBDF700000000000000000000000000000000000000000000000000000000 DUP2 MSTORE PUSH1 0x0 PUSH1 0x4 DUP3 ADD MSTORE PUSH1 0x24 ADD JUMPDEST PUSH1 0x40 MLOAD DUP1 SWAP2 SUB SWAP1 REVERT JUMPDEST PUSH2 0x4D6 DUP2 PUSH2 0x790 JUMP JUMPDEST PUSH1 0x0 PUSH2 0x5C8 PUSH1 0x1 SLOAD SWAP1 JUMP JUMPDEST PUSH2 0x5D1 TIMESTAMP PUSH2 0x2E3 JUMP JUMPDEST PUSH2 0x55F SWAP2 SWAP1 PUSH2 0xA51 JUMP JUMPDEST PUSH1 0x0 PUSH32 0x0 PUSH8 0xFFFFFFFFFFFFFFFF AND DUP3 PUSH8 0xFFFFFFFFFFFFFFFF AND LT ISZERO PUSH2 0x621 JUMPI POP PUSH1 0x0 PUSH2 0x301 JUMP JUMPDEST PUSH2 0x629 PUSH2 0x506 JUMP JUMPDEST DUP3 PUSH8 0xFFFFFFFFFFFFFFFF AND LT PUSH2 0x640 JUMPI POP DUP2 PUSH2 0x301 JUMP JUMPDEST PUSH32 0x0 PUSH8 0xFFFFFFFFFFFFFFFF AND PUSH32 0x0 PUSH8 0xFFFFFFFFFFFFFFFF AND PUSH2 0x6AA SWAP1 PUSH8 0xFFFFFFFFFFFFFFFF DUP6 AND PUSH2 0xA51 JUMP JUMPDEST PUSH2 0x6B4 SWAP1 DUP6 PUSH2 0xA64 JUMP JUMPDEST PUSH2 0x6BE SWAP2 SWAP1 PUSH2 0xA7B JUMP JUMPDEST SWAP1 POP PUSH2 0x301 JUMP JUMPDEST PUSH1 0x40 DUP1 MLOAD PUSH1 0x1 PUSH1 0x1 PUSH1 0xA0 SHL SUB DUP5 AND PUSH1 0x24 DUP3 ADD MSTORE PUSH1 0x44 DUP1 DUP3 ADD DUP5 SWAP1 MSTORE DUP3 MLOAD DUP1 DUP4 SUB SWAP1 SWAP2 ADD DUP2 MSTORE PUSH1 0x64 SWAP1 SWAP2 ADD SWAP1 SWAP2 MSTORE PUSH1 0x20 DUP2 ADD DUP1 MLOAD PUSH28 0xFFFFFFFFFFFFFFFFFFFFFFFFFFFFFFFFFFFFFFFFFFFFFFFFFFFFFFFF AND PUSH32 0xA9059CBB00000000000000000000000000000000000000000000000000000000 OR SWAP1 MSTORE PUSH2 0x745 SWAP1 DUP5 SWAP1 PUSH2 0x8A7 JUMP JUMPDEST POP POP POP JUMP JUMPDEST PUSH1 0x0 SLOAD PUSH1 0x1 PUSH1 0x1 PUSH1 0xA0 SHL SUB AND CALLER EQ PUSH2 0x3B4 JUMPI PUSH1 0x40 MLOAD PUSH32 0x118CDAA700000000000000000000000000000000000000000000000000000000 DUP2 MSTORE CALLER PUSH1 0x4 DUP3 ADD MSTORE PUSH1 0x24 ADD PUSH2 0x5AB JUMP JUMPDEST PUSH1 0x0 DUP1 SLOAD PUSH1 0x1 PUSH1 0x1 PUSH1 0xA0 SHL SUB DUP4 DUP2 AND PUSH32 0xFFFFFFFFFFFFFFFFFFFFFFFF0000000000000000000000000000000000000000 DUP4 AND DUP2 OR DUP5 SSTORE PUSH1 0x40 MLOAD SWAP2 SWAP1 SWAP3 AND SWAP3 DUP4 SWAP2 PUSH32 0x8BE0079C531659141344CD1FD0A4F28419497F9722A3DAAFE3B4186F6B6457E0 SWAP2 SWAP1 LOG3 POP POP JUMP JUMPDEST DUP1 SELFBALANCE LT ISZERO PUSH2 0x83B JUMPI PUSH1 0x40 MLOAD PUSH32 0xCF47918100000000000000000000000000000000000000000000000000000000 DUP2 MSTORE SELFBALANCE PUSH1 0x4 DUP3 ADD MSTORE PUSH1 0x24 DUP2 ADD DUP3 SWAP1 MSTORE PUSH1 0x44 ADD PUSH2 0x5AB JUMP JUMPDEST PUSH1 0x0 DUP1 DUP4 PUSH1 0x1 PUSH1 0x1 PUSH1 0xA0 SHL SUB AND DUP4 PUSH1 0x40 MLOAD PUSH1 0x0 PUSH1 0x40 MLOAD DUP1 DUP4 SUB DUP2 DUP6 DUP8 GAS CALL SWAP3 POP POP POP RETURNDATASIZE DUP1 PUSH1 0x0 DUP2 EQ PUSH2 0x889 JUMPI PUSH1 0x40 MLOAD SWAP2 POP PUSH1 0x1F NOT PUSH1 0x3F RETURNDATASIZE ADD AND DUP3 ADD PUSH1 0x40 MSTORE RETURNDATASIZE DUP3 MSTORE RETURNDATASIZE PUSH1 0x0 PUSH1 0x20 DUP5 ADD RETURNDATACOPY PUSH2 0x88E JUMP JUMPDEST PUSH1 0x60 SWAP2 POP JUMPDEST POP SWAP2 POP SWAP2 POP DUP2 PUSH2 0x8A1 JUMPI PUSH2 0x8A1 DUP2 PUSH2 0x931 JUMP JUMPDEST POP POP POP POP JUMP JUMPDEST PUSH1 0x0 DUP1 PUSH1 0x20 PUSH1 0x0 DUP5 MLOAD PUSH1 0x20 DUP7 ADD PUSH1 0x0 DUP9 GAS CALL DUP1 PUSH2 0x8CA JUMPI PUSH1 0x40 MLOAD RETURNDATASIZE PUSH1 0x0 DUP3 RETURNDATACOPY RETURNDATASIZE DUP2 REVERT JUMPDEST POP POP PUSH1 0x0 MLOAD RETURNDATASIZE SWAP2 POP DUP2 ISZERO PUSH2 0x8E2 JUMPI DUP1 PUSH1 0x1 EQ ISZERO PUSH2 0x8EF JUMP JUMPDEST PUSH1 0x1 PUSH1 0x1 PUSH1 0xA0 SHL SUB DUP5 AND EXTCODESIZE ISZERO JUMPDEST ISZERO PUSH2 0x8A1 JUMPI PUSH1 0x40 MLOAD PUSH32 0x5274AFE700000000000000000000000000000000000000000000000000000000 DUP2 MSTORE PUSH1 0x1 PUSH1 0x1 PUSH1 0xA0 SHL SUB DUP6 AND PUSH1 0x4 DUP3 ADD MSTORE PUSH1 0x24 ADD PUSH2 0x5AB JUMP JUMPDEST DUP1 MLOAD ISZERO PUSH2 0x940 JUMPI DUP1 MLOAD PUSH1 0x20 DUP3 ADD REVERT JUMPDEST PUSH1 0x40 MLOAD PUSH32 0xD6BDA27500000000000000000000000000000000000000000000000000000000 DUP2 MSTORE PUSH1 0x4 ADD PUSH1 0x40 MLOAD DUP1 SWAP2 SUB SWAP1 REVERT JUMPDEST DUP1 CALLDATALOAD PUSH8 0xFFFFFFFFFFFFFFFF DUP2 AND DUP2 EQ PUSH2 0x98A JUMPI PUSH1 0x0 DUP1 REVERT JUMPDEST SWAP2 SWAP1 POP JUMP JUMPDEST PUSH1 0x0 PUSH1 0x20 DUP3 DUP5 SUB SLT ISZERO PUSH2 0x9A1 JUMPI PUSH1 0x0 DUP1 REVERT JUMPDEST PUSH2 0x45E DUP3 PUSH2 0x972 JUMP JUMPDEST DUP1 CALLDATALOAD PUSH1 0x1 PUSH1 0x1 PUSH1 0xA0 SHL SUB DUP2 AND DUP2 EQ PUSH2 0x98A JUMPI PUSH1 0x0 DUP1 REVERT JUMPDEST PUSH1 0x0 PUSH1 0x20 DUP3 DUP5 SUB SLT ISZERO PUSH2 0x9D3 JUMPI PUSH1 0x0 DUP1 REVERT JUMPDEST PUSH2 0x45E DUP3 PUSH2 0x9AA JUMP JUMPDEST PUSH1 0x0 DUP1 PUSH1 0x40 DUP4 DUP6 SUB SLT ISZERO PUSH2 0x9EF JUMPI PUSH1 0x0 DUP1 REVERT JUMPDEST PUSH2 0x9F8 DUP4 PUSH2 0x9AA JUMP JUMPDEST SWAP2 POP PUSH2 0xA06 PUSH1 0x20 DUP5 ADD PUSH2 0x972 JUMP JUMPDEST SWAP1 POP SWAP3 POP SWAP3 SWAP1 POP JUMP JUMPDEST PUSH4 0x4E487B71 PUSH1 0xE0 SHL PUSH1 0x0 MSTORE PUSH1 0x11 PUSH1 0x4 MSTORE PUSH1 0x24 PUSH1 0x0 REVERT JUMPDEST DUP1 DUP3 ADD DUP1 DUP3 GT ISZERO PUSH2 0x301 JUMPI PUSH2 0x301 PUSH2 0xA0F JUMP JUMPDEST PUSH1 0x0 PUSH1 0x20 DUP3 DUP5 SUB SLT ISZERO PUSH2 0xA4A JUMPI PUSH1 0x0 DUP1 REVERT JUMPDEST POP MLOAD SWAP2 SWAP1 POP JUMP JUMPDEST DUP2 DUP2 SUB DUP2 DUP2 GT ISZERO PUSH2 0x301 JUMPI PUSH2 0x301 PUSH2 0xA0F JUMP JUMPDEST DUP1 DUP3 MUL DUP2 ISZERO DUP3 DUP3 DIV DUP5 EQ OR PUSH2 0x301 JUMPI PUSH2 0x301 PUSH2 0xA0F JUMP JUMPDEST PUSH1 0x0 DUP3 PUSH2 0xA98 JUMPI PUSH4 0x4E487B71 PUSH1 0xE0 SHL PUSH1 0x0 MSTORE PUSH1 0x12 PUSH1 0x4 MSTORE PUSH1 0x24 PUSH1 0x0 REVERT JUMPDEST POP DIV SWAP1 JUMP INVALID LOG2 PUSH5 0x6970667358 0x22 SLT KECCAK256 0xF7 RETF PUSH14 0x4B353336463865523591D90D423 ADDRESS 0xFC 0xD8 PUSH0 RETURNCONTRACT 0xEF 0x24 RJUMPI 0xF612 PUSH2 0xD1B4 0xBA EXTDELEGATECALL PUSH5 0x736F6C6343 STOP ADDMOD 0x21 STOP CALLER "
				},
				"gasEstimates": {
					"creation": {
						"codeDepositCost": "554200",
						"executionCost": "infinite",
						"totalCost": "infinite"
					},
					"external": {
						"duration()": "infinite",
						"end()": "infinite",
						"owner()": "2390",
						"releasable()": "infinite",
						"releasable(address)": "infinite",
						"release()": "infinite",
						"release(address)": "infinite",
						"released()": "2304",
						"released(address)": "2571",
						"renounceOwnership()": "infinite",
						"start()": "infinite",
						"transferOwnership(address)": "28384",
						"vestedAmount(address,uint64)": "infinite",
						"vestedAmount(uint64)": "infinite"
					},
					"internal": {
						"_vestingSchedule(uint256,uint64)": "infinite"
					}
				},
				"methodIdentifiers": {
					"duration()": "0fb5a6b4",
					"end()": "efbe1c1c",
					"owner()": "8da5cb5b",
					"releasable()": "fbccedae",
					"releasable(address)": "a3f8eace",
					"release()": "86d1a69f",
					"release(address)": "19165587",
					"released()": "96132521",
					"released(address)": "9852595c",
					"renounceOwnership()": "715018a6",
					"start()": "be9a6555",
					"transferOwnership(address)": "f2fde38b",
					"vestedAmount(address,uint64)": "810ec23b",
					"vestedAmount(uint64)": "0a17b06b"
				}
			},
			"storageLayout": {
				"storage": [
					{
						"astId": 940,
						"contract": "kash_vesting_flattened.sol:VestingWallet",
						"label": "_owner",
						"offset": 0,
						"slot": "0",
						"type": "t_address"
					},
					{
						"astId": 1097,
						"contract": "kash_vesting_flattened.sol:VestingWallet",
						"label": "_released",
						"offset": 0,
						"slot": "1",
						"type": "t_uint256"
					},
					{
						"astId": 1101,
						"contract": "kash_vesting_flattened.sol:VestingWallet",
						"label": "_erc20Released",
						"offset": 0,
						"slot": "2",
						"type": "t_mapping(t_address,t_uint256)"
					}
				],
				"types": {
					"t_address": {
						"encoding": "inplace",
						"label": "address",
						"numberOfBytes": "20"
					},
					"t_mapping(t_address,t_uint256)": {
						"encoding": "mapping",
						"key": "t_address",
						"label": "mapping(address => uint256)",
						"numberOfBytes": "32",
						"value": "t_uint256"
					},
					"t_uint256": {
						"encoding": "inplace",
						"label": "uint256",
						"numberOfBytes": "32"
					}
				}
			},
			"userdoc": {
				"kind": "user",
				"methods": {},
				"version": 1
			}
		}
	}
}