{
	"kash_vesting_flattened.sol": {
		"KashVestingFactory": {
			"abi": [
				{
					"inputs": [],
					"stateMutability": "nonpayable",
					"type": "constructor"
				},
				{
					"inputs": [],
					"name": "InvalidAddress",
					"type": "error"
				},
				{
					"inputs": [
						{
							"internalType": "address",
							"name": "owner",
							"type": "address"
						}
					],
					"name": "OwnableInvalidOwner",
					"type": "error"
				},
				{
					"inputs": [
						{
							"internalType": "address",
							"name": "account",
							"type": "address"
						}
					],
					"name": "OwnableUnauthorizedAccount",
					"type": "error"
				},
				{
					"anonymous": false,
					"inputs": [
						{
							"indexed": true,
							"internalType": "address",
							"name": "previousOwner",
							"type": "address"
						},
						{
							"indexed": true,
							"internalType": "address",
							"name": "newOwner",
							"type": "address"
						}
					],
					"name": "OwnershipTransferred",
					"type": "event"
				},
				{
					"anonymous": false,
					"inputs": [
						{
							"indexed": true,
							"internalType": "address",
							"name": "wallet",
							"type": "address"
						},
						{
							"indexed": true,
							"internalType": "address",
							"name": "beneficiary",
							"type": "address"
						},
						{
							"indexed": false,
							"internalType": "string",
							"name": "category",
							"type": "string"
						}
					],
					"name": "VestingCreated",
					"type": "event"
				},
				{
					"inputs": [
						{
							"internalType": "address",
							"name": "beneficiary",
							"type": "address"
						},
						{
							"internalType": "uint64",
							"name": "startTimestamp",
							"type": "uint64"
						},
						{
							"internalType": "uint64",
							"name": "durationSeconds",
							"type": "uint64"
						},
						{
							"internalType": "string",
							"name": "category",
							"type": "string"
						}
					],
					"name": "createVesting",
					"outputs": [
						{
							"internalType": "address",
							"name": "",
							"type": "address"
						}
					],
					"stateMutability": "nonpayable",
					"type": "function"
				},
				{
					"inputs": [
						{
							"internalType": "uint256",
							"name": "",
							"type": "uint256"
						}
					],
					"name": "deployedVestings",
					"outputs": [
						{
							"internalType": "address",
							"name": "walletAddress",
							"type": "address"
						},
						{
							"internalType": "address",
							"name": "beneficiary",
							"type": "address"
						},
						{
							"internalType": "string",
							"name": "category",
							"type": "string"
						}
					],
					"stateMutability": "view",
					"type": "function"
				},
				{
					"inputs": [],
					"name": "getVestingCount",
					"outputs": [
						{
							"internalType": "uint256",
							"name": "",
							"type": "uint256"
						}
					],
					"stateMutability": "view",
					"type": "function"
				},
				{
					"inputs": [
						{
							"internalType": "uint256",
							"name": "index",
							"type": "uint256"
						}
					],
					"name": "getVestingInfo",
					"outputs": [
						{
							"components": [
								{
									"internalType": "address",
									"name": "walletAddress",
									"type": "address"
								},
								{
									"internalType": "address",
									"name": "beneficiary",
									"type": "address"
								},
								{
									"internalType": "string",
									"name": "category",
									"type": "string"
								}
							],
							"internalType": "struct KashVestingFactory.VestingInfo",
							"name": "",
							"type": "tuple"
						}
					],
					"stateMutability": "view",
					"type": "function"
				},
				{
					"inputs": [],
					"name": "owner",
					"outputs": [
						{
							"internalType": "address",
							"name": "",
							"type": "address"
						}
					],
					"stateMutability": "view",
					"type": "function"
				},
				{
					"inputs": [],
					"name": "renounceOwnership",
					"outputs": [],
					"stateMutability": "nonpayable",
					"type": "function"
				},
				{
					"inputs": [
						{
							"internalType": "address",
							"name": "newOwner",
							"type": "address"
						}
					],
					"name": "transferOwnership",
					"outputs": [],
					"stateMutability": "nonpayable",
					"type": "function"
				}
			],
			"devdoc": {
				"errors": {
					"OwnableInvalidOwner(address)": [
						{
							"details": "The owner is not a valid owner account. (eg. `address(0)`)"
						}
					],
					"OwnableUnauthorizedAccount(address)": [
						{
							"details": "The caller account is not authorized to perform an operation."
						}
					]
				},
				"kind": "dev",
				"methods": {
					"owner()": {
						"details": "Returns the address of the current owner."
					},
					"renounceOwnership()": {
						"details": "Leaves the contract without owner. It will not be possible to call `onlyOwner` functions. Can only be called by the current owner. NOTE: Renouncing ownership will leave the contract without an owner, thereby disabling any functionality that is only available to the owner."
					},
					"transferOwnership(address)": {
						"details": "Transfers ownership of the contract to a new account (`newOwner`). Can only be called by the current owner."
					}
				},
				"version": 1
			},
			"evm": {
				"assembly": "    /* \"kash_vesting_flattened.sol\":35681:37370  contract KashVestingFactory is Ownable {... */\n  mstore(0x40, 0x80)\n    /* \"kash_vesting_flattened.sol\":36134:36170  constructor() Ownable(msg.sender) {} */\n  callvalue\n  dup1\n  iszero\n  tag_1\n  jumpi\n  0x00\n  dup1\n  revert\ntag_1:\n  pop\n    /* \"kash_vesting_flattened.sol\":36156:36166  msg.sender */\n  caller\n  dup1\n    /* \"kash_vesting_flattened.sol\":27641:27736  if (initialOwner == address(0)) {... */\n  tag_5\n  jumpi\n    /* \"kash_vesting_flattened.sol\":27694:27725  OwnableInvalidOwner(address(0)) */\n  mload(0x40)\n  shl(0xe0, 0x1e4fbdf7)\n  dup2\n  mstore\n    /* \"kash_vesting_flattened.sol\":27722:27723  0 */\n  0x00\n    /* \"kash_vesting_flattened.sol\":27694:27725  OwnableInvalidOwner(address(0)) */\n  0x04\n  dup3\n  add\n    /* \"#utility.yul\":160:211   */\n  mstore\n    /* \"#utility.yul\":133:151   */\n  0x24\n  add\n    /* \"kash_vesting_flattened.sol\":27694:27725  OwnableInvalidOwner(address(0)) */\n  mload(0x40)\n  dup1\n  swap2\n  sub\n  swap1\n  revert\n    /* \"kash_vesting_flattened.sol\":27641:27736  if (initialOwner == address(0)) {... */\ntag_5:\n    /* \"kash_vesting_flattened.sol\":27745:27777  _transferOwnership(initialOwner) */\n  tag_8\n    /* \"kash_vesting_flattened.sol\":27764:27776  initialOwner */\n  dup2\n    /* \"kash_vesting_flattened.sol\":27745:27763  _transferOwnership */\n  tag_9\n    /* \"kash_vesting_flattened.sol\":27745:27777  _transferOwnership(initialOwner) */\n  jump\t// in\ntag_8:\n    /* \"kash_vesting_flattened.sol\":27597:27784  constructor(address initialOwner) {... */\n  pop\n    /* \"kash_vesting_flattened.sol\":35681:37370  contract KashVestingFactory is Ownable {... */\n  jump(tag_13)\n    /* \"kash_vesting_flattened.sol\":29284:29471  function _transferOwnership(address newOwner) internal virtual {... */\ntag_9:\n    /* \"kash_vesting_flattened.sol\":29357:29373  address oldOwner */\n  0x00\n    /* \"kash_vesting_flattened.sol\":29376:29382  _owner */\n  dup1\n  sload\n  sub(shl(0xa0, 0x01), 0x01)\n    /* \"kash_vesting_flattened.sol\":29392:29409  _owner = newOwner */\n  dup4\n  dup2\n  and\n  not(sub(shl(0xa0, 0x01), 0x01))\n  dup4\n  and\n  dup2\n  or\n  dup5\n  sstore\n    /* \"kash_vesting_flattened.sol\":29424:29464  OwnershipTransferred(oldOwner, newOwner) */\n  mload(0x40)\n    /* \"kash_vesting_flattened.sol\":29376:29382  _owner */\n  swap2\n  swap1\n  swap3\n  and\n  swap3\n  dup4\n  swap2\n    /* \"kash_vesting_flattened.sol\":29424:29464  OwnershipTransferred(oldOwner, newOwner) */\n  0x8be0079c531659141344cd1fd0a4f28419497f9722a3daafe3b4186f6b6457e0\n  swap2\n    /* \"kash_vesting_flattened.sol\":29357:29373  address oldOwner */\n  swap1\n    /* \"kash_vesting_flattened.sol\":29424:29464  OwnershipTransferred(oldOwner, newOwner) */\n  log3\n    /* \"kash_vesting_flattened.sol\":29347:29471  {... */\n  pop\n    /* \"kash_vesting_flattened.sol\":29284:29471  function _transferOwnership(address newOwner) internal virtual {... */\n  pop\n  jump\t// out\n    /* \"#utility.yul\":14:217   */\ntag_13:\n    /* \"kash_vesting_flattened.sol\":35681:37370  contract KashVestingFactory is Ownable {... */\n  dataSize(sub_0)\n  dup1\n  dataOffset(sub_0)\n  0x00\n  codecopy\n  0x00\n  return\nstop\n\nsub_0: assembly {\n        /* \"kash_vesting_flattened.sol\":35681:37370  contract KashVestingFactory is Ownable {... */\n      mstore(0x40, 0x80)\n      callvalue\n      dup1\n      iszero\n      tag_1\n      jumpi\n      0x00\n      dup1\n      revert\n    tag_1:\n      pop\n      jumpi(tag_2, lt(calldatasize, 0x04))\n      shr(0xe0, calldataload(0x00))\n      dup1\n      0x715018a6\n      gt\n      tag_10\n      jumpi\n      dup1\n      0x715018a6\n      eq\n      tag_6\n      jumpi\n      dup1\n      0x8da5cb5b\n      eq\n      tag_7\n      jumpi\n      dup1\n      0xedb5f73e\n      eq\n      tag_8\n      jumpi\n      dup1\n      0xf2fde38b\n      eq\n      tag_9\n      jumpi\n      0x00\n      dup1\n      revert\n    tag_10:\n      dup1\n      0x0e246273\n      eq\n      tag_3\n      jumpi\n      dup1\n      0x20f6b0a9\n      eq\n      tag_4\n      jumpi\n      dup1\n      0x36ac4aa8\n      eq\n      tag_5\n      jumpi\n    tag_2:\n      0x00\n      dup1\n      revert\n        /* \"kash_vesting_flattened.sol\":36960:37064  function getVestingCount() public view returns (uint256) {... */\n    tag_3:\n        /* \"kash_vesting_flattened.sol\":37034:37050  deployedVestings */\n      0x01\n        /* \"kash_vesting_flattened.sol\":37034:37057  deployedVestings.length */\n      sload\n        /* \"kash_vesting_flattened.sol\":36960:37064  function getVestingCount() public view returns (uint256) {... */\n      mload(0x40)\n        /* \"#utility.yul\":160:185   */\n      swap1\n      dup2\n      mstore\n        /* \"#utility.yul\":148:150   */\n      0x20\n        /* \"#utility.yul\":133:151   */\n      add\n        /* \"kash_vesting_flattened.sol\":36960:37064  function getVestingCount() public view returns (uint256) {... */\n    tag_13:\n      mload(0x40)\n      dup1\n      swap2\n      sub\n      swap1\n      return\n        /* \"kash_vesting_flattened.sol\":37241:37368  function getVestingInfo(uint256 index) public view returns (VestingInfo memory) {... */\n    tag_4:\n      tag_15\n      tag_16\n      calldatasize\n      0x04\n      tag_17\n      jump\t// in\n    tag_16:\n      tag_18\n      jump\t// in\n    tag_15:\n      mload(0x40)\n      tag_13\n      swap2\n      swap1\n      tag_20\n      jump\t// in\n        /* \"kash_vesting_flattened.sol\":36176:36954  function createVesting(... */\n    tag_5:\n      tag_21\n      tag_22\n      calldatasize\n      0x04\n      tag_23\n      jump\t// in\n    tag_22:\n      tag_24\n      jump\t// in\n    tag_21:\n      mload(0x40)\n      sub(shl(0xa0, 0x01), 0x01)\n        /* \"#utility.yul\":3256:3311   */\n      swap1\n      swap2\n      and\n        /* \"#utility.yul\":3238:3312   */\n      dup2\n      mstore\n        /* \"#utility.yul\":3226:3228   */\n      0x20\n        /* \"#utility.yul\":3211:3229   */\n      add\n        /* \"kash_vesting_flattened.sol\":36176:36954  function createVesting(... */\n      tag_13\n        /* \"#utility.yul\":3092:3318   */\n      jump\n        /* \"kash_vesting_flattened.sol\":28665:28766  function renounceOwnership() public virtual onlyOwner {... */\n    tag_6:\n      tag_27\n      tag_28\n      jump\t// in\n    tag_27:\n      stop\n        /* \"kash_vesting_flattened.sol\":28010:28095  function owner() public view virtual returns (address) {... */\n    tag_7:\n        /* \"kash_vesting_flattened.sol\":28056:28063  address */\n      0x00\n        /* \"kash_vesting_flattened.sol\":28082:28088  _owner */\n      sload\n      sub(shl(0xa0, 0x01), 0x01)\n      and\n        /* \"kash_vesting_flattened.sol\":28010:28095  function owner() public view virtual returns (address) {... */\n      jump(tag_21)\n        /* \"kash_vesting_flattened.sol\":35845:35882  VestingInfo[] public deployedVestings */\n    tag_8:\n      tag_32\n      tag_33\n      calldatasize\n      0x04\n      tag_17\n      jump\t// in\n    tag_33:\n      tag_34\n      jump\t// in\n    tag_32:\n      mload(0x40)\n      tag_13\n      swap4\n      swap3\n      swap2\n      swap1\n      tag_36\n      jump\t// in\n        /* \"kash_vesting_flattened.sol\":28915:29130  function transferOwnership(address newOwner) public virtual onlyOwner {... */\n    tag_9:\n      tag_27\n      tag_38\n      calldatasize\n      0x04\n      tag_39\n      jump\t// in\n    tag_38:\n      tag_40\n      jump\t// in\n        /* \"kash_vesting_flattened.sol\":37241:37368  function getVestingInfo(uint256 index) public view returns (VestingInfo memory) {... */\n    tag_18:\n      0x40\n      dup1\n      mload\n      0x60\n      dup1\n      dup3\n      add\n      dup4\n      mstore\n      0x00\n      dup1\n      dup4\n      mstore\n      0x20\n      dup4\n      add\n      mstore\n      swap2\n      dup2\n      add\n      swap2\n      swap1\n      swap2\n      mstore\n        /* \"kash_vesting_flattened.sol\":37338:37354  deployedVestings */\n      0x01\n        /* \"kash_vesting_flattened.sol\":37355:37360  index */\n      dup3\n        /* \"kash_vesting_flattened.sol\":37338:37361  deployedVestings[index] */\n      dup2\n      sload\n      dup2\n      lt\n      tag_46\n      jumpi\n      tag_46\n      tag_47\n      jump\t// in\n    tag_46:\n      0x00\n      swap2\n      dup3\n      mstore\n      0x20\n      swap2\n      dup3\n      swap1\n      keccak256\n        /* \"kash_vesting_flattened.sol\":37331:37361  return deployedVestings[index] */\n      0x40\n      dup1\n      mload\n      0x60\n      dup2\n      add\n      dup3\n      mstore\n        /* \"kash_vesting_flattened.sol\":37338:37361  deployedVestings[index] */\n      0x03\n      swap1\n      swap4\n      mul\n      swap1\n      swap2\n      add\n        /* \"kash_vesting_flattened.sol\":37331:37361  return deployedVestings[index] */\n      dup1\n      sload\n      sub(shl(0xa0, 0x01), 0x01)\n      swap1\n      dup2\n      and\n      dup5\n      mstore\n      0x01\n      dup3\n      add\n      sload\n      and\n      swap4\n      dup4\n      add\n      swap4\n      swap1\n      swap4\n      mstore\n      0x02\n      dup4\n      add\n      dup1\n      sload\n      swap3\n      swap4\n        /* \"kash_vesting_flattened.sol\":37338:37361  deployedVestings[index] */\n      swap3\n        /* \"kash_vesting_flattened.sol\":37331:37361  return deployedVestings[index] */\n      swap2\n      dup5\n      add\n      swap2\n      tag_49\n      swap1\n      tag_50\n      jump\t// in\n    tag_49:\n      dup1\n      0x1f\n      add\n      0x20\n      dup1\n      swap2\n      div\n      mul\n      0x20\n      add\n      mload(0x40)\n      swap1\n      dup2\n      add\n      0x40\n      mstore\n      dup1\n      swap3\n      swap2\n      swap1\n      dup2\n      dup2\n      mstore\n      0x20\n      add\n      dup3\n      dup1\n      sload\n      tag_51\n      swap1\n      tag_50\n      jump\t// in\n    tag_51:\n      dup1\n      iszero\n      tag_52\n      jumpi\n      dup1\n      0x1f\n      lt\n      tag_53\n      jumpi\n      0x0100\n      dup1\n      dup4\n      sload\n      div\n      mul\n      dup4\n      mstore\n      swap2\n      0x20\n      add\n      swap2\n      jump(tag_52)\n    tag_53:\n      dup3\n      add\n      swap2\n      swap1\n      0x00\n      mstore\n      keccak256(0x00, 0x20)\n      swap1\n    tag_54:\n      dup2\n      sload\n      dup2\n      mstore\n      swap1\n      0x01\n      add\n      swap1\n      0x20\n      add\n      dup1\n      dup4\n      gt\n      tag_54\n      jumpi\n      dup3\n      swap1\n      sub\n      0x1f\n      and\n      dup3\n      add\n      swap2\n    tag_52:\n      pop\n      pop\n      pop\n      pop\n      pop\n      dup2\n      mstore\n      pop\n      pop\n      swap1\n      pop\n        /* \"kash_vesting_flattened.sol\":37241:37368  function getVestingInfo(uint256 index) public view returns (VestingInfo memory) {... */\n      swap2\n      swap1\n      pop\n      jump\t// out\n        /* \"kash_vesting_flattened.sol\":36176:36954  function createVesting(... */\n    tag_24:\n        /* \"kash_vesting_flattened.sol\":36355:36362  address */\n      0x00\n        /* \"kash_vesting_flattened.sol\":27903:27916  _checkOwner() */\n      tag_56\n        /* \"kash_vesting_flattened.sol\":27903:27914  _checkOwner */\n      tag_57\n        /* \"kash_vesting_flattened.sol\":27903:27916  _checkOwner() */\n      jump\t// in\n    tag_56:\n      sub(shl(0xa0, 0x01), 0x01)\n        /* \"kash_vesting_flattened.sol\":36433:36458  beneficiary == address(0) */\n      dup6\n      and\n        /* \"kash_vesting_flattened.sol\":36429:36508  if (beneficiary == address(0)) {... */\n      tag_59\n      jumpi\n        /* \"kash_vesting_flattened.sol\":36481:36497  InvalidAddress() */\n      mload(0x40)\n      0xe6c4247b00000000000000000000000000000000000000000000000000000000\n      dup2\n      mstore\n      0x04\n      add\n      mload(0x40)\n      dup1\n      swap2\n      sub\n      swap1\n      revert\n        /* \"kash_vesting_flattened.sol\":36429:36508  if (beneficiary == address(0)) {... */\n    tag_59:\n        /* \"kash_vesting_flattened.sol\":36518:36546  KashVestingWallet newVesting */\n      0x00\n        /* \"kash_vesting_flattened.sol\":36584:36595  beneficiary */\n      dup6\n        /* \"kash_vesting_flattened.sol\":36609:36623  startTimestamp */\n      dup6\n        /* \"kash_vesting_flattened.sol\":36637:36652  durationSeconds */\n      dup6\n        /* \"kash_vesting_flattened.sol\":36549:36662  new KashVestingWallet(... */\n      mload(0x40)\n      tag_60\n      swap1\n      tag_61\n      jump\t// in\n    tag_60:\n      sub(shl(0xa0, 0x01), 0x01)\n        /* \"#utility.yul\":4826:4881   */\n      swap1\n      swap4\n      and\n        /* \"#utility.yul\":4808:4882   */\n      dup4\n      mstore\n        /* \"#utility.yul\":4930:4948   */\n      0xffffffffffffffff\n        /* \"#utility.yul\":4918:4949   */\n      swap2\n      dup3\n      and\n        /* \"#utility.yul\":4913:4915   */\n      0x20\n        /* \"#utility.yul\":4898:4916   */\n      dup5\n      add\n        /* \"#utility.yul\":4891:4950   */\n      mstore\n        /* \"#utility.yul\":4986:5017   */\n      and\n        /* \"#utility.yul\":4981:4983   */\n      0x40\n        /* \"#utility.yul\":4966:4984   */\n      dup3\n      add\n        /* \"#utility.yul\":4959:5018   */\n      mstore\n        /* \"#utility.yul\":4796:4798   */\n      0x60\n        /* \"#utility.yul\":4781:4799   */\n      add\n        /* \"kash_vesting_flattened.sol\":36549:36662  new KashVestingWallet(... */\n      mload(0x40)\n      dup1\n      swap2\n      sub\n      swap1\n      0x00\n      create\n      dup1\n      iszero\n      dup1\n      iszero\n      tag_64\n      jumpi\n      returndatasize\n      0x00\n      dup1\n      returndatacopy\n      revert(0x00, returndatasize)\n    tag_64:\n      pop\n        /* \"kash_vesting_flattened.sol\":36695:36836  VestingInfo({... */\n      0x40\n      dup1\n      mload\n      0x60\n      dup2\n      add\n      dup3\n      mstore\n      sub(shl(0xa0, 0x01), 0x01)\n      dup1\n      dup5\n      and\n      dup3\n      mstore\n      dup10\n      dup2\n      and\n      0x20\n      dup4\n      add\n      swap1\n      dup2\n      mstore\n      swap3\n      dup3\n      add\n      dup8\n      dup2\n      mstore\n        /* \"kash_vesting_flattened.sol\":36673:36689  deployedVestings */\n      0x01\n        /* \"kash_vesting_flattened.sol\":36673:36837  deployedVestings.push(VestingInfo({... */\n      dup1\n      sload\n      dup1\n      dup3\n      add\n      dup3\n      sstore\n      0x00\n      swap2\n      swap1\n      swap2\n      mstore\n      dup4\n      mload\n      0x03\n      swap1\n      swap2\n      mul\n      0xb10e2d527612073b26eecdfd717e6a320cf44b4afac2b0732d9fcbe2b7fa0cf6\n      dup2\n      add\n      dup1\n      sload\n      swap3\n      dup6\n      and\n      not(0xffffffffffffffffffffffffffffffffffffffff)\n      swap4\n      dup5\n      and\n      or\n      dup2\n      sstore\n      swap6\n      mload\n      0xb10e2d527612073b26eecdfd717e6a320cf44b4afac2b0732d9fcbe2b7fa0cf7\n      dup3\n      add\n      dup1\n      sload\n      swap2\n      swap1\n      swap6\n      and\n      swap3\n      and\n      swap2\n      swap1\n      swap2\n      or\n      swap1\n      swap3\n      sstore\n      mload\n        /* \"kash_vesting_flattened.sol\":36518:36662  KashVestingWallet newVesting = new KashVestingWallet(... */\n      swap4\n      swap5\n      pop\n        /* \"kash_vesting_flattened.sol\":36695:36836  VestingInfo({... */\n      swap1\n      swap3\n        /* \"kash_vesting_flattened.sol\":36673:36837  deployedVestings.push(VestingInfo({... */\n      0xb10e2d527612073b26eecdfd717e6a320cf44b4afac2b0732d9fcbe2b7fa0cf8\n      swap1\n      swap2\n      add\n      swap1\n      tag_66\n      swap1\n      dup3\n      tag_67\n      jump\t// in\n    tag_66:\n      pop\n      pop\n      pop\n        /* \"kash_vesting_flattened.sol\":36889:36900  beneficiary */\n      dup6\n      sub(shl(0xa0, 0x01), 0x01)\n        /* \"kash_vesting_flattened.sol\":36853:36911  VestingCreated(address(newVesting), beneficiary, category) */\n      and\n        /* \"kash_vesting_flattened.sol\":36876:36886  newVesting */\n      dup2\n      sub(shl(0xa0, 0x01), 0x01)\n        /* \"kash_vesting_flattened.sol\":36853:36911  VestingCreated(address(newVesting), beneficiary, category) */\n      and\n      0x0ed38ef660e9abb113e06fb77981812e01a5691e845ee7aefa7ac2e94463648d\n        /* \"kash_vesting_flattened.sol\":36902:36910  category */\n      dup6\n        /* \"kash_vesting_flattened.sol\":36853:36911  VestingCreated(address(newVesting), beneficiary, category) */\n      mload(0x40)\n      tag_68\n      swap2\n      swap1\n      tag_69\n      jump\t// in\n    tag_68:\n      mload(0x40)\n      dup1\n      swap2\n      sub\n      swap1\n      log3\n        /* \"kash_vesting_flattened.sol\":36936:36946  newVesting */\n      swap6\n        /* \"kash_vesting_flattened.sol\":36176:36954  function createVesting(... */\n      swap5\n      pop\n      pop\n      pop\n      pop\n      pop\n      jump\t// out\n        /* \"kash_vesting_flattened.sol\":28665:28766  function renounceOwnership() public virtual onlyOwner {... */\n    tag_28:\n        /* \"kash_vesting_flattened.sol\":27903:27916  _checkOwner() */\n      tag_71\n        /* \"kash_vesting_flattened.sol\":27903:27914  _checkOwner */\n      tag_57\n        /* \"kash_vesting_flattened.sol\":27903:27916  _checkOwner() */\n      jump\t// in\n    tag_71:\n        /* \"kash_vesting_flattened.sol\":28729:28759  _transferOwnership(address(0)) */\n      tag_73\n        /* \"kash_vesting_flattened.sol\":28756:28757  0 */\n      0x00\n        /* \"kash_vesting_flattened.sol\":28729:28747  _transferOwnership */\n      tag_74\n        /* \"kash_vesting_flattened.sol\":28729:28759  _transferOwnership(address(0)) */\n      jump\t// in\n    tag_73:\n        /* \"kash_vesting_flattened.sol\":28665:28766  function renounceOwnership() public virtual onlyOwner {... */\n      jump\t// out\n        /* \"kash_vesting_flattened.sol\":35845:35882  VestingInfo[] public deployedVestings */\n    tag_34:\n      0x01\n      dup2\n      dup2\n      sload\n      dup2\n      lt\n      tag_76\n      jumpi\n      0x00\n      dup1\n      revert\n    tag_76:\n      0x00\n      swap2\n      dup3\n      mstore\n      0x20\n      swap1\n      swap2\n      keccak256\n      0x03\n      swap1\n      swap2\n      mul\n      add\n      dup1\n      sload\n      0x01\n      dup3\n      add\n      sload\n      0x02\n      dup4\n      add\n      dup1\n      sload\n      sub(shl(0xa0, 0x01), 0x01)\n      swap4\n      dup5\n      and\n      swap6\n      pop\n      swap3\n      swap1\n      swap2\n      and\n      swap3\n      swap2\n      tag_78\n      swap1\n      tag_50\n      jump\t// in\n    tag_78:\n      dup1\n      0x1f\n      add\n      0x20\n      dup1\n      swap2\n      div\n      mul\n      0x20\n      add\n      mload(0x40)\n      swap1\n      dup2\n      add\n      0x40\n      mstore\n      dup1\n      swap3\n      swap2\n      swap1\n      dup2\n      dup2\n      mstore\n      0x20\n      add\n      dup3\n      dup1\n      sload\n      tag_79\n      swap1\n      tag_50\n      jump\t// in\n    tag_79:\n      dup1\n      iszero\n      tag_80\n      jumpi\n      dup1\n      0x1f\n      lt\n      tag_81\n      jumpi\n      0x0100\n      dup1\n      dup4\n      sload\n      div\n      mul\n      dup4\n      mstore\n      swap2\n      0x20\n      add\n      swap2\n      jump(tag_80)\n    tag_81:\n      dup3\n      add\n      swap2\n      swap1\n      0x00\n      mstore\n      keccak256(0x00, 0x20)\n      swap1\n    tag_82:\n      dup2\n      sload\n      dup2\n      mstore\n      swap1\n      0x01\n      add\n      swap1\n      0x20\n      add\n      dup1\n      dup4\n      gt\n      tag_82\n      jumpi\n      dup3\n      swap1\n      sub\n      0x1f\n      and\n      dup3\n      add\n      swap2\n    tag_80:\n      pop\n      pop\n      pop\n      pop\n      pop\n      swap1\n      pop\n      dup4\n      jump\t// out\n        /* \"kash_vesting_flattened.sol\":28915:29130  function transferOwnership(address newOwner) public virtual onlyOwner {... */\n    tag_40:\n        /* \"kash_vesting_flattened.sol\":27903:27916  _checkOwner() */\n      tag_84\n        /* \"kash_vesting_flattened.sol\":27903:27914  _checkOwner */\n      tag_57\n        /* \"kash_vesting_flattened.sol\":27903:27916  _checkOwner() */\n      jump\t// in\n    tag_84:\n      sub(shl(0xa0, 0x01), 0x01)\n        /* \"kash_vesting_flattened.sol\":28999:29021  newOwner == address(0) */\n      dup2\n      and\n        /* \"kash_vesting_flattened.sol\":28995:29086  if (newOwner == address(0)) {... */\n      tag_86\n      jumpi\n        /* \"kash_vesting_flattened.sol\":29044:29075  OwnableInvalidOwner(address(0)) */\n      mload(0x40)\n      0x1e4fbdf700000000000000000000000000000000000000000000000000000000\n      dup2\n      mstore\n        /* \"kash_vesting_flattened.sol\":29072:29073  0 */\n      0x00\n        /* \"kash_vesting_flattened.sol\":29044:29075  OwnableInvalidOwner(address(0)) */\n      0x04\n      dup3\n      add\n        /* \"#utility.yul\":3238:3312   */\n      mstore\n        /* \"#utility.yul\":3211:3229   */\n      0x24\n      add\n        /* \"kash_vesting_flattened.sol\":29044:29075  OwnableInvalidOwner(address(0)) */\n    tag_87:\n      mload(0x40)\n      dup1\n      swap2\n      sub\n      swap1\n      revert\n        /* \"kash_vesting_flattened.sol\":28995:29086  if (newOwner == address(0)) {... */\n    tag_86:\n        /* \"kash_vesting_flattened.sol\":29095:29123  _transferOwnership(newOwner) */\n      tag_88\n        /* \"kash_vesting_flattened.sol\":29114:29122  newOwner */\n      dup2\n        /* \"kash_vesting_flattened.sol\":29095:29113  _transferOwnership */\n      tag_74\n        /* \"kash_vesting_flattened.sol\":29095:29123  _transferOwnership(newOwner) */\n      jump\t// in\n    tag_88:\n        /* \"kash_vesting_flattened.sol\":28915:29130  function transferOwnership(address newOwner) public virtual onlyOwner {... */\n      pop\n      jump\t// out\n        /* \"kash_vesting_flattened.sol\":28168:28330  function _checkOwner() internal view virtual {... */\n    tag_57:\n        /* \"kash_vesting_flattened.sol\":28056:28063  address */\n      0x00\n        /* \"kash_vesting_flattened.sol\":28082:28088  _owner */\n      sload\n      sub(shl(0xa0, 0x01), 0x01)\n      and\n        /* \"kash_vesting_flattened.sol\":26167:26177  msg.sender */\n      caller\n        /* \"kash_vesting_flattened.sol\":28227:28250  owner() != _msgSender() */\n      eq\n        /* \"kash_vesting_flattened.sol\":28223:28324  if (owner() != _msgSender()) {... */\n      tag_73\n      jumpi\n        /* \"kash_vesting_flattened.sol\":28273:28313  OwnableUnauthorizedAccount(_msgSender()) */\n      mload(0x40)\n      0x118cdaa700000000000000000000000000000000000000000000000000000000\n      dup2\n      mstore\n        /* \"kash_vesting_flattened.sol\":26167:26177  msg.sender */\n      caller\n        /* \"kash_vesting_flattened.sol\":28273:28313  OwnableUnauthorizedAccount(_msgSender()) */\n      0x04\n      dup3\n      add\n        /* \"#utility.yul\":3238:3312   */\n      mstore\n        /* \"#utility.yul\":3211:3229   */\n      0x24\n      add\n        /* \"kash_vesting_flattened.sol\":28273:28313  OwnableUnauthorizedAccount(_msgSender()) */\n      tag_87\n        /* \"#utility.yul\":3092:3318   */\n      jump\n        /* \"kash_vesting_flattened.sol\":29284:29471  function _transferOwnership(address newOwner) internal virtual {... */\n    tag_74:\n        /* \"kash_vesting_flattened.sol\":29357:29373  address oldOwner */\n      0x00\n        /* \"kash_vesting_flattened.sol\":29376:29382  _owner */\n      dup1\n      sload\n      sub(shl(0xa0, 0x01), 0x01)\n        /* \"kash_vesting_flattened.sol\":29392:29409  _owner = newOwner */\n      dup4\n      dup2\n      and\n      not(0xffffffffffffffffffffffffffffffffffffffff)\n      dup4\n      and\n      dup2\n      or\n      dup5\n      sstore\n        /* \"kash_vesting_flattened.sol\":29424:29464  OwnershipTransferred(oldOwner, newOwner) */\n      mload(0x40)\n        /* \"kash_vesting_flattened.sol\":29376:29382  _owner */\n      swap2\n      swap1\n      swap3\n      and\n      swap3\n      dup4\n      swap2\n        /* \"kash_vesting_flattened.sol\":29424:29464  OwnershipTransferred(oldOwner, newOwner) */\n      0x8be0079c531659141344cd1fd0a4f28419497f9722a3daafe3b4186f6b6457e0\n      swap2\n        /* \"kash_vesting_flattened.sol\":29357:29373  address oldOwner */\n      swap1\n        /* \"kash_vesting_flattened.sol\":29424:29464  OwnershipTransferred(oldOwner, newOwner) */\n      log3\n        /* \"kash_vesting_flattened.sol\":29347:29471  {... */\n      pop\n        /* \"kash_vesting_flattened.sol\":29284:29471  function _transferOwnership(address newOwner) internal virtual {... */\n      pop\n      jump\t// out\n    tag_61:\n      dataSize(sub_0)\n      dup1\n      dataOffset(sub_0)\n      dup4\n      codecopy\n      add\n      swap1\n      jump\t// out\n        /* \"#utility.yul\":196:376   */\n    tag_17:\n        /* \"#utility.yul\":255:261   */\n      0x00\n        /* \"#utility.yul\":308:310   */\n      0x20\n        /* \"#utility.yul\":296:305   */\n      dup3\n        /* \"#utility.yul\":287:294   */\n      dup5\n        /* \"#utility.yul\":283:306   */\n      sub\n        /* \"#utility.yul\":279:311   */\n      slt\n        /* \"#utility.yul\":276:328   */\n      iszero\n      tag_108\n      jumpi\n        /* \"#utility.yul\":324:325   */\n      0x00\n        /* \"#utility.yul\":321:322   */\n      dup1\n        /* \"#utility.yul\":314:326   */\n      revert\n        /* \"#utility.yul\":276:328   */\n    tag_108:\n      pop\n        /* \"#utility.yul\":347:370   */\n      calldataload\n      swap2\n        /* \"#utility.yul\":196:376   */\n      swap1\n      pop\n      jump\t// out\n        /* \"#utility.yul\":381:781   */\n    tag_98:\n        /* \"#utility.yul\":423:426   */\n      0x00\n        /* \"#utility.yul\":461:466   */\n      dup2\n        /* \"#utility.yul\":455:467   */\n      mload\n        /* \"#utility.yul\":488:494   */\n      dup1\n        /* \"#utility.yul\":483:486   */\n      dup5\n        /* \"#utility.yul\":476:495   */\n      mstore\n        /* \"#utility.yul\":513:514   */\n      0x00\n        /* \"#utility.yul\":523:662   */\n    tag_110:\n        /* \"#utility.yul\":537:543   */\n      dup2\n        /* \"#utility.yul\":534:535   */\n      dup2\n        /* \"#utility.yul\":531:544   */\n      lt\n        /* \"#utility.yul\":523:662   */\n      iszero\n      tag_112\n      jumpi\n        /* \"#utility.yul\":645:649   */\n      0x20\n        /* \"#utility.yul\":630:643   */\n      dup2\n      dup6\n      add\n        /* \"#utility.yul\":626:650   */\n      dup2\n      add\n        /* \"#utility.yul\":620:651   */\n      mload\n        /* \"#utility.yul\":600:611   */\n      dup7\n      dup4\n      add\n        /* \"#utility.yul\":596:618   */\n      dup3\n      add\n        /* \"#utility.yul\":589:652   */\n      mstore\n        /* \"#utility.yul\":552:564   */\n      add\n        /* \"#utility.yul\":523:662   */\n      jump(tag_110)\n    tag_112:\n        /* \"#utility.yul\":527:530   */\n      pop\n        /* \"#utility.yul\":707:708   */\n      0x00\n        /* \"#utility.yul\":700:704   */\n      0x20\n        /* \"#utility.yul\":691:697   */\n      dup3\n        /* \"#utility.yul\":686:689   */\n      dup7\n        /* \"#utility.yul\":682:698   */\n      add\n        /* \"#utility.yul\":678:705   */\n      add\n        /* \"#utility.yul\":671:709   */\n      mstore\n        /* \"#utility.yul\":770:774   */\n      0x20\n        /* \"#utility.yul\":763:765   */\n      0x1f\n        /* \"#utility.yul\":759:766   */\n      not\n        /* \"#utility.yul\":754:756   */\n      0x1f\n        /* \"#utility.yul\":746:752   */\n      dup4\n        /* \"#utility.yul\":742:757   */\n      add\n        /* \"#utility.yul\":738:767   */\n      and\n        /* \"#utility.yul\":733:736   */\n      dup6\n        /* \"#utility.yul\":729:768   */\n      add\n        /* \"#utility.yul\":725:775   */\n      add\n        /* \"#utility.yul\":718:775   */\n      swap2\n      pop\n      pop\n        /* \"#utility.yul\":381:781   */\n      swap3\n      swap2\n      pop\n      pop\n      jump\t// out\n        /* \"#utility.yul\":786:1352   */\n    tag_20:\n        /* \"#utility.yul\":973:975   */\n      0x20\n        /* \"#utility.yul\":962:971   */\n      dup2\n        /* \"#utility.yul\":955:976   */\n      mstore\n      sub(shl(0xa0, 0x01), 0x01)\n        /* \"#utility.yul\":1022:1028   */\n      dup3\n        /* \"#utility.yul\":1016:1029   */\n      mload\n        /* \"#utility.yul\":1012:1074   */\n      and\n        /* \"#utility.yul\":1007:1009   */\n      0x20\n        /* \"#utility.yul\":996:1005   */\n      dup3\n        /* \"#utility.yul\":992:1010   */\n      add\n        /* \"#utility.yul\":985:1075   */\n      mstore\n      sub(shl(0xa0, 0x01), 0x01)\n        /* \"#utility.yul\":1133:1135   */\n      0x20\n        /* \"#utility.yul\":1125:1131   */\n      dup4\n        /* \"#utility.yul\":1121:1136   */\n      add\n        /* \"#utility.yul\":1115:1137   */\n      mload\n        /* \"#utility.yul\":1111:1182   */\n      and\n        /* \"#utility.yul\":1106:1108   */\n      0x40\n        /* \"#utility.yul\":1095:1104   */\n      dup3\n        /* \"#utility.yul\":1091:1109   */\n      add\n        /* \"#utility.yul\":1084:1183   */\n      mstore\n        /* \"#utility.yul\":936:940   */\n      0x00\n        /* \"#utility.yul\":1230:1232   */\n      0x40\n        /* \"#utility.yul\":1222:1228   */\n      dup4\n        /* \"#utility.yul\":1218:1233   */\n      add\n        /* \"#utility.yul\":1212:1234   */\n      mload\n        /* \"#utility.yul\":1272:1276   */\n      0x60\n        /* \"#utility.yul\":1265:1269   */\n      dup1\n        /* \"#utility.yul\":1254:1263   */\n      dup5\n        /* \"#utility.yul\":1250:1270   */\n      add\n        /* \"#utility.yul\":1243:1277   */\n      mstore\n        /* \"#utility.yul\":1294:1346   */\n      tag_114\n        /* \"#utility.yul\":1341:1344   */\n      0x80\n        /* \"#utility.yul\":1330:1339   */\n      dup5\n        /* \"#utility.yul\":1326:1345   */\n      add\n        /* \"#utility.yul\":1312:1324   */\n      dup3\n        /* \"#utility.yul\":1294:1346   */\n      tag_98\n      jump\t// in\n    tag_114:\n        /* \"#utility.yul\":1286:1346   */\n      swap5\n        /* \"#utility.yul\":786:1352   */\n      swap4\n      pop\n      pop\n      pop\n      pop\n      jump\t// out\n        /* \"#utility.yul\":1357:1553   */\n    tag_99:\n        /* \"#utility.yul\":1425:1445   */\n      dup1\n      calldataload\n      sub(shl(0xa0, 0x01), 0x01)\n        /* \"#utility.yul\":1474:1528   */\n      dup2\n      and\n        /* \"#utility.yul\":1464:1529   */\n      dup2\n      eq\n        /* \"#utility.yul\":1454:1547   */\n      tag_116\n      jumpi\n        /* \"#utility.yul\":1543:1544   */\n      0x00\n        /* \"#utility.yul\":1540:1541   */\n      dup1\n        /* \"#utility.yul\":1533:1545   */\n      revert\n        /* \"#utility.yul\":1454:1547   */\n    tag_116:\n        /* \"#utility.yul\":1357:1553   */\n      swap2\n      swap1\n      pop\n      jump\t// out\n        /* \"#utility.yul\":1558:1729   */\n    tag_100:\n        /* \"#utility.yul\":1625:1645   */\n      dup1\n      calldataload\n        /* \"#utility.yul\":1685:1703   */\n      0xffffffffffffffff\n        /* \"#utility.yul\":1674:1704   */\n      dup2\n      and\n        /* \"#utility.yul\":1664:1705   */\n      dup2\n      eq\n        /* \"#utility.yul\":1654:1723   */\n      tag_116\n      jumpi\n        /* \"#utility.yul\":1719:1720   */\n      0x00\n        /* \"#utility.yul\":1716:1717   */\n      dup1\n        /* \"#utility.yul\":1709:1721   */\n      revert\n        /* \"#utility.yul\":1734:1918   */\n    tag_101:\n      shl(0xe0, 0x4e487b71)\n        /* \"#utility.yul\":1783:1784   */\n      0x00\n        /* \"#utility.yul\":1776:1864   */\n      mstore\n        /* \"#utility.yul\":1883:1887   */\n      0x41\n        /* \"#utility.yul\":1880:1881   */\n      0x04\n        /* \"#utility.yul\":1873:1888   */\n      mstore\n        /* \"#utility.yul\":1907:1911   */\n      0x24\n        /* \"#utility.yul\":1904:1905   */\n      0x00\n        /* \"#utility.yul\":1897:1912   */\n      revert\n        /* \"#utility.yul\":1923:3087   */\n    tag_23:\n        /* \"#utility.yul\":2017:2023   */\n      0x00\n        /* \"#utility.yul\":2025:2031   */\n      dup1\n        /* \"#utility.yul\":2033:2039   */\n      0x00\n        /* \"#utility.yul\":2041:2047   */\n      dup1\n        /* \"#utility.yul\":2094:2097   */\n      0x80\n        /* \"#utility.yul\":2082:2091   */\n      dup6\n        /* \"#utility.yul\":2073:2080   */\n      dup8\n        /* \"#utility.yul\":2069:2092   */\n      sub\n        /* \"#utility.yul\":2065:2098   */\n      slt\n        /* \"#utility.yul\":2062:2115   */\n      iszero\n      tag_121\n      jumpi\n        /* \"#utility.yul\":2111:2112   */\n      0x00\n        /* \"#utility.yul\":2108:2109   */\n      dup1\n        /* \"#utility.yul\":2101:2113   */\n      revert\n        /* \"#utility.yul\":2062:2115   */\n    tag_121:\n        /* \"#utility.yul\":2134:2163   */\n      tag_122\n        /* \"#utility.yul\":2153:2162   */\n      dup6\n        /* \"#utility.yul\":2134:2163   */\n      tag_99\n      jump\t// in\n    tag_122:\n        /* \"#utility.yul\":2124:2163   */\n      swap4\n      pop\n        /* \"#utility.yul\":2182:2219   */\n      tag_123\n        /* \"#utility.yul\":2215:2217   */\n      0x20\n        /* \"#utility.yul\":2204:2213   */\n      dup7\n        /* \"#utility.yul\":2200:2218   */\n      add\n        /* \"#utility.yul\":2182:2219   */\n      tag_100\n      jump\t// in\n    tag_123:\n        /* \"#utility.yul\":2172:2219   */\n      swap3\n      pop\n        /* \"#utility.yul\":2238:2275   */\n      tag_124\n        /* \"#utility.yul\":2271:2273   */\n      0x40\n        /* \"#utility.yul\":2260:2269   */\n      dup7\n        /* \"#utility.yul\":2256:2274   */\n      add\n        /* \"#utility.yul\":2238:2275   */\n      tag_100\n      jump\t// in\n    tag_124:\n        /* \"#utility.yul\":2228:2275   */\n      swap2\n      pop\n        /* \"#utility.yul\":2326:2328   */\n      0x60\n        /* \"#utility.yul\":2315:2324   */\n      dup6\n        /* \"#utility.yul\":2311:2329   */\n      add\n        /* \"#utility.yul\":2298:2330   */\n      calldataload\n        /* \"#utility.yul\":2353:2371   */\n      0xffffffffffffffff\n        /* \"#utility.yul\":2345:2351   */\n      dup2\n        /* \"#utility.yul\":2342:2372   */\n      gt\n        /* \"#utility.yul\":2339:2389   */\n      iszero\n      tag_125\n      jumpi\n        /* \"#utility.yul\":2385:2386   */\n      0x00\n        /* \"#utility.yul\":2382:2383   */\n      dup1\n        /* \"#utility.yul\":2375:2387   */\n      revert\n        /* \"#utility.yul\":2339:2389   */\n    tag_125:\n        /* \"#utility.yul\":2408:2430   */\n      dup6\n      add\n        /* \"#utility.yul\":2461:2465   */\n      0x1f\n        /* \"#utility.yul\":2453:2466   */\n      dup2\n      add\n        /* \"#utility.yul\":2449:2476   */\n      dup8\n      sgt\n        /* \"#utility.yul\":2439:2494   */\n      tag_126\n      jumpi\n        /* \"#utility.yul\":2490:2491   */\n      0x00\n        /* \"#utility.yul\":2487:2488   */\n      dup1\n        /* \"#utility.yul\":2480:2492   */\n      revert\n        /* \"#utility.yul\":2439:2494   */\n    tag_126:\n        /* \"#utility.yul\":2530:2532   */\n      dup1\n        /* \"#utility.yul\":2517:2533   */\n      calldataload\n        /* \"#utility.yul\":2556:2574   */\n      0xffffffffffffffff\n        /* \"#utility.yul\":2548:2554   */\n      dup2\n        /* \"#utility.yul\":2545:2575   */\n      gt\n        /* \"#utility.yul\":2542:2598   */\n      iszero\n      tag_128\n      jumpi\n        /* \"#utility.yul\":2578:2596   */\n      tag_128\n      tag_101\n      jump\t// in\n    tag_128:\n        /* \"#utility.yul\":2627:2629   */\n      0x40\n        /* \"#utility.yul\":2621:2630   */\n      mload\n        /* \"#utility.yul\":2719:2721   */\n      0x1f\n        /* \"#utility.yul\":2681:2698   */\n      dup3\n      add\n      not(0x1f)\n        /* \"#utility.yul\":2677:2708   */\n      swap1\n      dup2\n      and\n        /* \"#utility.yul\":2710:2712   */\n      0x3f\n        /* \"#utility.yul\":2673:2713   */\n      add\n        /* \"#utility.yul\":2669:2723   */\n      and\n        /* \"#utility.yul\":2657:2724   */\n      dup2\n      add\n        /* \"#utility.yul\":2754:2772   */\n      0xffffffffffffffff\n        /* \"#utility.yul\":2739:2773   */\n      dup2\n      gt\n        /* \"#utility.yul\":2775:2797   */\n      dup3\n      dup3\n      lt\n        /* \"#utility.yul\":2736:2798   */\n      or\n        /* \"#utility.yul\":2733:2821   */\n      iszero\n      tag_130\n      jumpi\n        /* \"#utility.yul\":2801:2819   */\n      tag_130\n      tag_101\n      jump\t// in\n    tag_130:\n        /* \"#utility.yul\":2837:2839   */\n      0x40\n        /* \"#utility.yul\":2830:2852   */\n      mstore\n        /* \"#utility.yul\":2861:2883   */\n      dup2\n      dup2\n      mstore\n        /* \"#utility.yul\":2902:2917   */\n      dup3\n      dup3\n      add\n        /* \"#utility.yul\":2919:2921   */\n      0x20\n        /* \"#utility.yul\":2898:2922   */\n      add\n        /* \"#utility.yul\":2895:2932   */\n      dup10\n      lt\n        /* \"#utility.yul\":2892:2949   */\n      iszero\n      tag_131\n      jumpi\n        /* \"#utility.yul\":2945:2946   */\n      0x00\n        /* \"#utility.yul\":2942:2943   */\n      dup1\n        /* \"#utility.yul\":2935:2947   */\n      revert\n        /* \"#utility.yul\":2892:2949   */\n    tag_131:\n        /* \"#utility.yul\":3001:3007   */\n      dup2\n        /* \"#utility.yul\":2996:2998   */\n      0x20\n        /* \"#utility.yul\":2992:2994   */\n      dup5\n        /* \"#utility.yul\":2988:2999   */\n      add\n        /* \"#utility.yul\":2983:2985   */\n      0x20\n        /* \"#utility.yul\":2975:2981   */\n      dup4\n        /* \"#utility.yul\":2971:2986   */\n      add\n        /* \"#utility.yul\":2958:3008   */\n      calldatacopy\n        /* \"#utility.yul\":3054:3055   */\n      0x00\n        /* \"#utility.yul\":3049:3051   */\n      0x20\n        /* \"#utility.yul\":3040:3046   */\n      dup4\n        /* \"#utility.yul\":3032:3038   */\n      dup4\n        /* \"#utility.yul\":3028:3047   */\n      add\n        /* \"#utility.yul\":3024:3052   */\n      add\n        /* \"#utility.yul\":3017:3056   */\n      mstore\n        /* \"#utility.yul\":3075:3081   */\n      dup1\n        /* \"#utility.yul\":3065:3081   */\n      swap4\n      pop\n      pop\n      pop\n      pop\n        /* \"#utility.yul\":1923:3087   */\n      swap3\n      swap6\n      swap2\n      swap5\n      pop\n      swap3\n      pop\n      jump\t// out\n        /* \"#utility.yul\":3323:3783   */\n    tag_36:\n      sub(shl(0xa0, 0x01), 0x01)\n        /* \"#utility.yul\":3532:3538   */\n      dup5\n        /* \"#utility.yul\":3528:3583   */\n      and\n        /* \"#utility.yul\":3517:3526   */\n      dup2\n        /* \"#utility.yul\":3510:3584   */\n      mstore\n      sub(shl(0xa0, 0x01), 0x01)\n        /* \"#utility.yul\":3624:3630   */\n      dup4\n        /* \"#utility.yul\":3620:3675   */\n      and\n        /* \"#utility.yul\":3615:3617   */\n      0x20\n        /* \"#utility.yul\":3604:3613   */\n      dup3\n        /* \"#utility.yul\":3600:3618   */\n      add\n        /* \"#utility.yul\":3593:3676   */\n      mstore\n        /* \"#utility.yul\":3712:3714   */\n      0x60\n        /* \"#utility.yul\":3707:3709   */\n      0x40\n        /* \"#utility.yul\":3696:3705   */\n      dup3\n        /* \"#utility.yul\":3692:3710   */\n      add\n        /* \"#utility.yul\":3685:3715   */\n      mstore\n        /* \"#utility.yul\":3491:3495   */\n      0x00\n        /* \"#utility.yul\":3732:3777   */\n      tag_134\n        /* \"#utility.yul\":3773:3775   */\n      0x60\n        /* \"#utility.yul\":3762:3771   */\n      dup4\n        /* \"#utility.yul\":3758:3776   */\n      add\n        /* \"#utility.yul\":3750:3756   */\n      dup5\n        /* \"#utility.yul\":3732:3777   */\n      tag_98\n      jump\t// in\n    tag_134:\n        /* \"#utility.yul\":3724:3777   */\n      swap6\n        /* \"#utility.yul\":3323:3783   */\n      swap5\n      pop\n      pop\n      pop\n      pop\n      pop\n      jump\t// out\n        /* \"#utility.yul\":3788:3974   */\n    tag_39:\n        /* \"#utility.yul\":3847:3853   */\n      0x00\n        /* \"#utility.yul\":3900:3902   */\n      0x20\n        /* \"#utility.yul\":3888:3897   */\n      dup3\n        /* \"#utility.yul\":3879:3886   */\n      dup5\n        /* \"#utility.yul\":3875:3898   */\n      sub\n        /* \"#utility.yul\":3871:3903   */\n      slt\n        /* \"#utility.yul\":3868:3920   */\n      iszero\n      tag_136\n      jumpi\n        /* \"#utility.yul\":3916:3917   */\n      0x00\n        /* \"#utility.yul\":3913:3914   */\n      dup1\n        /* \"#utility.yul\":3906:3918   */\n      revert\n        /* \"#utility.yul\":3868:3920   */\n    tag_136:\n        /* \"#utility.yul\":3939:3968   */\n      tag_137\n        /* \"#utility.yul\":3958:3967   */\n      dup3\n        /* \"#utility.yul\":3939:3968   */\n      tag_99\n      jump\t// in\n    tag_137:\n        /* \"#utility.yul\":3929:3968   */\n      swap4\n        /* \"#utility.yul\":3788:3974   */\n      swap3\n      pop\n      pop\n      pop\n      jump\t// out\n        /* \"#utility.yul\":3979:4163   */\n    tag_47:\n      shl(0xe0, 0x4e487b71)\n        /* \"#utility.yul\":4028:4029   */\n      0x00\n        /* \"#utility.yul\":4021:4109   */\n      mstore\n        /* \"#utility.yul\":4128:4132   */\n      0x32\n        /* \"#utility.yul\":4125:4126   */\n      0x04\n        /* \"#utility.yul\":4118:4133   */\n      mstore\n        /* \"#utility.yul\":4152:4156   */\n      0x24\n        /* \"#utility.yul\":4149:4150   */\n      0x00\n        /* \"#utility.yul\":4142:4157   */\n      revert\n        /* \"#utility.yul\":4168:4605   */\n    tag_50:\n        /* \"#utility.yul\":4247:4248   */\n      0x01\n        /* \"#utility.yul\":4243:4255   */\n      dup2\n      dup2\n      shr\n      swap1\n        /* \"#utility.yul\":4290:4302   */\n      dup3\n      and\n      dup1\n        /* \"#utility.yul\":4311:4372   */\n      tag_140\n      jumpi\n        /* \"#utility.yul\":4365:4369   */\n      0x7f\n        /* \"#utility.yul\":4357:4363   */\n      dup3\n        /* \"#utility.yul\":4353:4370   */\n      and\n        /* \"#utility.yul\":4343:4370   */\n      swap2\n      pop\n        /* \"#utility.yul\":4311:4372   */\n    tag_140:\n        /* \"#utility.yul\":4418:4420   */\n      0x20\n        /* \"#utility.yul\":4410:4416   */\n      dup3\n        /* \"#utility.yul\":4407:4421   */\n      lt\n        /* \"#utility.yul\":4387:4405   */\n      dup2\n        /* \"#utility.yul\":4384:4422   */\n      sub\n        /* \"#utility.yul\":4381:4599   */\n      tag_141\n      jumpi\n      shl(0xe0, 0x4e487b71)\n        /* \"#utility.yul\":4452:4453   */\n      0x00\n        /* \"#utility.yul\":4445:4533   */\n      mstore\n        /* \"#utility.yul\":4556:4560   */\n      0x22\n        /* \"#utility.yul\":4553:4554   */\n      0x04\n        /* \"#utility.yul\":4546:4561   */\n      mstore\n        /* \"#utility.yul\":4584:4588   */\n      0x24\n        /* \"#utility.yul\":4581:4582   */\n      0x00\n        /* \"#utility.yul\":4574:4589   */\n      revert\n        /* \"#utility.yul\":4381:4599   */\n    tag_141:\n      pop\n        /* \"#utility.yul\":4168:4605   */\n      swap2\n      swap1\n      pop\n      jump\t// out\n        /* \"#utility.yul\":5155:5847   */\n    tag_103:\n        /* \"#utility.yul\":5257:5259   */\n      0x1f\n        /* \"#utility.yul\":5252:5255   */\n      dup3\n        /* \"#utility.yul\":5249:5260   */\n      gt\n        /* \"#utility.yul\":5246:5841   */\n      iszero\n      tag_146\n      jumpi\n        /* \"#utility.yul\":5294:5304   */\n      dup3\n        /* \"#utility.yul\":5289:5292   */\n      dup3\n        /* \"#utility.yul\":5286:5305   */\n      gt\n        /* \"#utility.yul\":5283:5831   */\n      iszero\n      tag_146\n      jumpi\n        /* \"#utility.yul\":5346:5351   */\n      dup1\n        /* \"#utility.yul\":5343:5344   */\n      0x00\n        /* \"#utility.yul\":5336:5352   */\n      mstore\n        /* \"#utility.yul\":5394:5398   */\n      0x20\n        /* \"#utility.yul\":5391:5392   */\n      0x00\n        /* \"#utility.yul\":5381:5399   */\n      keccak256\n        /* \"#utility.yul\":5459:5461   */\n      0x1f\n        /* \"#utility.yul\":5447:5457   */\n      dup5\n        /* \"#utility.yul\":5443:5462   */\n      add\n        /* \"#utility.yul\":5440:5441   */\n      0x05\n        /* \"#utility.yul\":5436:5463   */\n      shr\n        /* \"#utility.yul\":5498:5502   */\n      0x20\n        /* \"#utility.yul\":5486:5496   */\n      dup6\n        /* \"#utility.yul\":5483:5503   */\n      lt\n        /* \"#utility.yul\":5480:5525   */\n      iszero\n      tag_147\n      jumpi\n      pop\n        /* \"#utility.yul\":5522:5523   */\n      0x00\n        /* \"#utility.yul\":5480:5525   */\n    tag_147:\n        /* \"#utility.yul\":5561:5584   */\n      swap1\n      dup2\n      add\n      swap1\n        /* \"#utility.yul\":5631:5633   */\n      0x1f\n        /* \"#utility.yul\":5622:5634   */\n      dup5\n      add\n        /* \"#utility.yul\":5619:5620   */\n      0x05\n        /* \"#utility.yul\":5615:5635   */\n      shr\n        /* \"#utility.yul\":5611:5650   */\n      sub\n        /* \"#utility.yul\":5676:5677   */\n      0x00\n        /* \"#utility.yul\":5694:5817   */\n    tag_148:\n        /* \"#utility.yul\":5708:5710   */\n      dup2\n        /* \"#utility.yul\":5705:5706   */\n      dup2\n        /* \"#utility.yul\":5702:5711   */\n      lt\n        /* \"#utility.yul\":5694:5817   */\n      iszero\n      tag_150\n      jumpi\n        /* \"#utility.yul\":5797:5798   */\n      0x00\n        /* \"#utility.yul\":5776:5795   */\n      dup4\n      dup3\n      add\n        /* \"#utility.yul\":5769:5799   */\n      sstore\n        /* \"#utility.yul\":5726:5727   */\n      0x01\n        /* \"#utility.yul\":5719:5728   */\n      add\n        /* \"#utility.yul\":5694:5817   */\n      jump(tag_148)\n    tag_150:\n        /* \"#utility.yul\":5698:5701   */\n      pop\n      pop\n      pop\n        /* \"#utility.yul\":5283:5831   */\n    tag_146:\n        /* \"#utility.yul\":5155:5847   */\n      pop\n      pop\n      pop\n      jump\t// out\n        /* \"#utility.yul\":6023:7322   */\n    tag_67:\n        /* \"#utility.yul\":6149:6152   */\n      dup2\n        /* \"#utility.yul\":6143:6153   */\n      mload\n        /* \"#utility.yul\":6176:6194   */\n      0xffffffffffffffff\n        /* \"#utility.yul\":6168:6174   */\n      dup2\n        /* \"#utility.yul\":6165:6195   */\n      gt\n        /* \"#utility.yul\":6162:6218   */\n      iszero\n      tag_154\n      jumpi\n        /* \"#utility.yul\":6198:6216   */\n      tag_154\n      tag_101\n      jump\t// in\n    tag_154:\n        /* \"#utility.yul\":6227:6324   */\n      tag_155\n        /* \"#utility.yul\":6317:6323   */\n      dup2\n        /* \"#utility.yul\":6277:6315   */\n      tag_156\n        /* \"#utility.yul\":6309:6313   */\n      dup5\n        /* \"#utility.yul\":6303:6314   */\n      sload\n        /* \"#utility.yul\":6277:6315   */\n      tag_50\n      jump\t// in\n    tag_156:\n        /* \"#utility.yul\":6271:6275   */\n      dup5\n        /* \"#utility.yul\":6227:6324   */\n      tag_103\n      jump\t// in\n    tag_155:\n        /* \"#utility.yul\":6373:6377   */\n      0x20\n        /* \"#utility.yul\":6404:6406   */\n      0x1f\n        /* \"#utility.yul\":6393:6407   */\n      dup3\n      gt\n        /* \"#utility.yul\":6421:6422   */\n      0x01\n        /* \"#utility.yul\":6416:7065   */\n      dup2\n      eq\n      tag_158\n      jumpi\n        /* \"#utility.yul\":7109:7110   */\n      0x00\n        /* \"#utility.yul\":7126:7132   */\n      dup4\n        /* \"#utility.yul\":7123:7212   */\n      iszero\n      tag_159\n      jumpi\n      pop\n        /* \"#utility.yul\":7178:7197   */\n      dup5\n      dup3\n      add\n        /* \"#utility.yul\":7172:7198   */\n      mload\n        /* \"#utility.yul\":7123:7212   */\n    tag_159:\n      not(0x00)\n        /* \"#utility.yul\":5980:5981   */\n      0x03\n        /* \"#utility.yul\":5976:5987   */\n      dup6\n      swap1\n      shl\n        /* \"#utility.yul\":5972:5996   */\n      shr\n        /* \"#utility.yul\":5968:5997   */\n      not\n        /* \"#utility.yul\":5958:5998   */\n      and\n        /* \"#utility.yul\":6004:6005   */\n      0x01\n        /* \"#utility.yul\":6000:6011   */\n      dup5\n      swap1\n      shl\n        /* \"#utility.yul\":5955:6012   */\n      or\n        /* \"#utility.yul\":7225:7306   */\n      dup5\n      sstore\n        /* \"#utility.yul\":6386:7316   */\n      jump(tag_157)\n        /* \"#utility.yul\":6416:7065   */\n    tag_158:\n        /* \"#utility.yul\":5102:5103   */\n      0x00\n        /* \"#utility.yul\":5095:5109   */\n      dup5\n      dup2\n      mstore\n        /* \"#utility.yul\":5139:5143   */\n      0x20\n        /* \"#utility.yul\":5126:5144   */\n      dup2\n      keccak256\n      not(0x1f)\n        /* \"#utility.yul\":6452:6472   */\n      dup6\n      and\n      swap2\n        /* \"#utility.yul\":6570:6792   */\n    tag_162:\n        /* \"#utility.yul\":6584:6591   */\n      dup3\n        /* \"#utility.yul\":6581:6582   */\n      dup2\n        /* \"#utility.yul\":6578:6592   */\n      lt\n        /* \"#utility.yul\":6570:6792   */\n      iszero\n      tag_164\n      jumpi\n        /* \"#utility.yul\":6666:6685   */\n      dup8\n      dup6\n      add\n        /* \"#utility.yul\":6660:6686   */\n      mload\n        /* \"#utility.yul\":6645:6687   */\n      dup3\n      sstore\n        /* \"#utility.yul\":6773:6777   */\n      0x20\n        /* \"#utility.yul\":6758:6778   */\n      swap5\n      dup6\n      add\n      swap5\n        /* \"#utility.yul\":6726:6727   */\n      0x01\n        /* \"#utility.yul\":6714:6728   */\n      swap1\n      swap3\n      add\n      swap2\n        /* \"#utility.yul\":6600:6612   */\n      add\n        /* \"#utility.yul\":6570:6792   */\n      jump(tag_162)\n    tag_164:\n        /* \"#utility.yul\":6574:6577   */\n      pop\n        /* \"#utility.yul\":6820:6826   */\n      dup5\n        /* \"#utility.yul\":6811:6818   */\n      dup3\n        /* \"#utility.yul\":6808:6827   */\n      lt\n        /* \"#utility.yul\":6805:7006   */\n      iszero\n      tag_165\n      jumpi\n        /* \"#utility.yul\":6881:6900   */\n      dup7\n      dup5\n      add\n        /* \"#utility.yul\":6875:6901   */\n      mload\n      not(0x00)\n        /* \"#utility.yul\":6964:6965   */\n      0x03\n        /* \"#utility.yul\":6960:6974   */\n      dup8\n      swap1\n      shl\n        /* \"#utility.yul\":6976:6979   */\n      0xf8\n        /* \"#utility.yul\":6956:6980   */\n      and\n        /* \"#utility.yul\":6952:6989   */\n      shr\n        /* \"#utility.yul\":6948:6990   */\n      not\n        /* \"#utility.yul\":6933:6991   */\n      and\n        /* \"#utility.yul\":6918:6992   */\n      dup2\n      sstore\n        /* \"#utility.yul\":6805:7006   */\n    tag_165:\n      pop\n      pop\n        /* \"#utility.yul\":7052:7053   */\n      0x01\n        /* \"#utility.yul\":7043:7049   */\n      dup4\n        /* \"#utility.yul\":7040:7041   */\n      0x01\n        /* \"#utility.yul\":7036:7050   */\n      shl\n        /* \"#utility.yul\":7032:7054   */\n      add\n        /* \"#utility.yul\":7026:7030   */\n      dup5\n        /* \"#utility.yul\":7019:7055   */\n      sstore\n        /* \"#utility.yul\":6386:7316   */\n    tag_157:\n      pop\n      pop\n      pop\n        /* \"#utility.yul\":6023:7322   */\n      pop\n      pop\n      jump\t// out\n        /* \"#utility.yul\":7327:7547   */\n    tag_69:\n        /* \"#utility.yul\":7476:7478   */\n      0x20\n        /* \"#utility.yul\":7465:7474   */\n      dup2\n        /* \"#utility.yul\":7458:7479   */\n      mstore\n        /* \"#utility.yul\":7439:7443   */\n      0x00\n        /* \"#utility.yul\":7496:7541   */\n      tag_137\n        /* \"#utility.yul\":7537:7539   */\n      0x20\n        /* \"#utility.yul\":7526:7535   */\n      dup4\n        /* \"#utility.yul\":7522:7540   */\n      add\n        /* \"#utility.yul\":7514:7520   */\n      dup5\n        /* \"#utility.yul\":7496:7541   */\n      tag_98\n      jump\t// in\n    stop\n\n    sub_0: assembly {\n            /* \"kash_vesting_flattened.sol\":35455:35679  contract KashVestingWallet is VestingWallet {... */\n          mstore(0x40, 0xc0)\n            /* \"kash_vesting_flattened.sol\":35505:35677  constructor(... */\n          callvalue\n          dup1\n          iszero\n          tag_1\n          jumpi\n          0x00\n          dup1\n          revert\n        tag_1:\n          pop\n          mload(0x40)\n          sub(codesize, bytecodeSize)\n          dup1\n          bytecodeSize\n          dup4\n          codecopy\n          dup2\n          add\n          0x40\n          dup2\n          swap1\n          mstore\n          tag_2\n          swap2\n          tag_3\n          jump\t// in\n        tag_2:\n            /* \"kash_vesting_flattened.sol\":35629:35640  beneficiary */\n          dup3\n            /* \"kash_vesting_flattened.sol\":35642:35656  startTimestamp */\n          dup3\n            /* \"kash_vesting_flattened.sol\":35658:35673  durationSeconds */\n          dup3\n            /* \"kash_vesting_flattened.sol\":35629:35640  beneficiary */\n          dup3\n          sub(shl(0xa0, 0x01), 0x01)\n            /* \"kash_vesting_flattened.sol\":27645:27671  initialOwner == address(0) */\n          dup2\n          and\n            /* \"kash_vesting_flattened.sol\":27641:27736  if (initialOwner == address(0)) {... */\n          tag_8\n          jumpi\n            /* \"kash_vesting_flattened.sol\":27694:27725  OwnableInvalidOwner(address(0)) */\n          mload(0x40)\n          shl(0xe0, 0x1e4fbdf7)\n          dup2\n          mstore\n            /* \"kash_vesting_flattened.sol\":27722:27723  0 */\n          0x00\n            /* \"kash_vesting_flattened.sol\":27694:27725  OwnableInvalidOwner(address(0)) */\n          0x04\n          dup3\n          add\n            /* \"#utility.yul\":801:852   */\n          mstore\n            /* \"#utility.yul\":774:792   */\n          0x24\n          add\n            /* \"kash_vesting_flattened.sol\":27694:27725  OwnableInvalidOwner(address(0)) */\n          mload(0x40)\n          dup1\n          swap2\n          sub\n          swap1\n          revert\n            /* \"kash_vesting_flattened.sol\":27641:27736  if (initialOwner == address(0)) {... */\n        tag_8:\n            /* \"kash_vesting_flattened.sol\":27745:27777  _transferOwnership(initialOwner) */\n          tag_11\n            /* \"kash_vesting_flattened.sol\":27764:27776  initialOwner */\n          dup2\n            /* \"kash_vesting_flattened.sol\":27745:27763  _transferOwnership */\n          tag_12\n            /* \"kash_vesting_flattened.sol\":27745:27777  _transferOwnership(initialOwner) */\n          jump\t// in\n        tag_11:\n          pop\n          sub(shl(0x40, 0x01), 0x01)\n            /* \"kash_vesting_flattened.sol\":31901:31924  _start = startTimestamp */\n          swap2\n          dup3\n          and\n          0x80\n          mstore\n            /* \"kash_vesting_flattened.sol\":31934:31961  _duration = durationSeconds */\n          and\n          0xa0\n          mstore\n          pop\n            /* \"kash_vesting_flattened.sol\":35455:35679  contract KashVestingWallet is VestingWallet {... */\n          tag_18\n          swap3\n          pop\n          pop\n          pop\n          jump\n            /* \"kash_vesting_flattened.sol\":29284:29471  function _transferOwnership(address newOwner) internal virtual {... */\n        tag_12:\n            /* \"kash_vesting_flattened.sol\":29357:29373  address oldOwner */\n          0x00\n            /* \"kash_vesting_flattened.sol\":29376:29382  _owner */\n          dup1\n          sload\n          sub(shl(0xa0, 0x01), 0x01)\n            /* \"kash_vesting_flattened.sol\":29392:29409  _owner = newOwner */\n          dup4\n          dup2\n          and\n          not(sub(shl(0xa0, 0x01), 0x01))\n          dup4\n          and\n          dup2\n          or\n          dup5\n          sstore\n            /* \"kash_vesting_flattened.sol\":29424:29464  OwnershipTransferred(oldOwner, newOwner) */\n          mload(0x40)\n            /* \"kash_vesting_flattened.sol\":29376:29382  _owner */\n          swap2\n          swap1\n          swap3\n          and\n          swap3\n          dup4\n          swap2\n            /* \"kash_vesting_flattened.sol\":29424:29464  OwnershipTransferred(oldOwner, newOwner) */\n          0x8be0079c531659141344cd1fd0a4f28419497f9722a3daafe3b4186f6b6457e0\n          swap2\n            /* \"kash_vesting_flattened.sol\":29357:29373  address oldOwner */\n          swap1\n            /* \"kash_vesting_flattened.sol\":29424:29464  OwnershipTransferred(oldOwner, newOwner) */\n          log3\n            /* \"kash_vesting_flattened.sol\":29347:29471  {... */\n          pop\n            /* \"kash_vesting_flattened.sol\":29284:29471  function _transferOwnership(address newOwner) internal virtual {... */\n          pop\n          jump\t// out\n            /* \"#utility.yul\":14:189   */\n        tag_17:\n            /* \"#utility.yul\":92:105   */\n          dup1\n          mload\n          sub(shl(0x40, 0x01), 0x01)\n            /* \"#utility.yul\":134:164   */\n          dup2\n          and\n            /* \"#utility.yul\":124:165   */\n          dup2\n          eq\n            /* \"#utility.yul\":114:183   */\n          tag_20\n          jumpi\n            /* \"#utility.yul\":179:180   */\n          0x00\n            /* \"#utility.yul\":176:177   */\n          dup1\n            /* \"#utility.yul\":169:181   */\n          revert\n            /* \"#utility.yul\":114:183   */\n        tag_20:\n            /* \"#utility.yul\":14:189   */\n          swap2\n          swap1\n          pop\n          jump\t// out\n            /* \"#utility.yul\":194:650   */\n        tag_3:\n            /* \"#utility.yul\":280:286   */\n          0x00\n            /* \"#utility.yul\":288:294   */\n          dup1\n            /* \"#utility.yul\":296:302   */\n          0x00\n            /* \"#utility.yul\":349:351   */\n          0x60\n            /* \"#utility.yul\":337:346   */\n          dup5\n            /* \"#utility.yul\":328:335   */\n          dup7\n            /* \"#utility.yul\":324:347   */\n          sub\n            /* \"#utility.yul\":320:352   */\n          slt\n            /* \"#utility.yul\":317:369   */\n          iszero\n          tag_22\n          jumpi\n            /* \"#utility.yul\":365:366   */\n          0x00\n            /* \"#utility.yul\":362:363   */\n          dup1\n            /* \"#utility.yul\":355:367   */\n          revert\n            /* \"#utility.yul\":317:369   */\n        tag_22:\n            /* \"#utility.yul\":391:407   */\n          dup4\n          mload\n          sub(shl(0xa0, 0x01), 0x01)\n            /* \"#utility.yul\":436:467   */\n          dup2\n          and\n            /* \"#utility.yul\":426:468   */\n          dup2\n          eq\n            /* \"#utility.yul\":416:486   */\n          tag_23\n          jumpi\n            /* \"#utility.yul\":482:483   */\n          0x00\n            /* \"#utility.yul\":479:480   */\n          dup1\n            /* \"#utility.yul\":472:484   */\n          revert\n            /* \"#utility.yul\":416:486   */\n        tag_23:\n            /* \"#utility.yul\":505:510   */\n          swap3\n          pop\n            /* \"#utility.yul\":529:577   */\n          tag_24\n            /* \"#utility.yul\":573:575   */\n          0x20\n            /* \"#utility.yul\":558:576   */\n          dup6\n          add\n            /* \"#utility.yul\":529:577   */\n          tag_17\n          jump\t// in\n        tag_24:\n            /* \"#utility.yul\":519:577   */\n          swap2\n          pop\n            /* \"#utility.yul\":596:644   */\n          tag_25\n            /* \"#utility.yul\":640:642   */\n          0x40\n            /* \"#utility.yul\":629:638   */\n          dup6\n            /* \"#utility.yul\":625:643   */\n          add\n            /* \"#utility.yul\":596:644   */\n          tag_17\n          jump\t// in\n        tag_25:\n            /* \"#utility.yul\":586:644   */\n          swap1\n          pop\n            /* \"#utility.yul\":194:650   */\n          swap3\n          pop\n          swap3\n          pop\n          swap3\n          jump\t// out\n            /* \"#utility.yul\":655:858   */\n        tag_18:\n            /* \"kash_vesting_flattened.sol\":35455:35679  contract KashVestingWallet is VestingWallet {... */\n          mload(0x80)\n          mload(0xa0)\n          codecopy(0x00, dataOffset(sub_0), dataSize(sub_0))\n          0x00\n          assignImmutable(\"0xc9c56ece8ab1aa87565be4409fb2c8fe3d8ffec3fdab003090c209216657ff72\")\n          0x00\n          assignImmutable(\"0x6ec03fc6a2303ff0283996b05577f38ea45b37619214a3bde5dbe5d42345eefa\")\n          return(0x00, dataSize(sub_0))\n        stop\n\n        sub_0: assembly {\n                /* \"kash_vesting_flattened.sol\":35455:35679  contract KashVestingWallet is VestingWallet {... */\n              mstore(0x40, 0x80)\n              jumpi(tag_1, lt(calldatasize, 0x04))\n              shr(0xe0, calldataload(0x00))\n              dup1\n              0x96132521\n              gt\n              tag_17\n              jumpi\n              dup1\n              0xbe9a6555\n              gt\n              tag_18\n              jumpi\n              dup1\n              0xbe9a6555\n              eq\n              tag_13\n              jumpi\n              dup1\n              0xefbe1c1c\n              eq\n              tag_14\n              jumpi\n              dup1\n              0xf2fde38b\n              eq\n              tag_15\n              jumpi\n              dup1\n              0xfbccedae\n              eq\n              tag_16\n              jumpi\n              0x00\n              dup1\n              revert\n            tag_18:\n              dup1\n              0x96132521\n              eq\n              tag_10\n              jumpi\n              dup1\n              0x9852595c\n              eq\n              tag_11\n              jumpi\n              dup1\n              0xa3f8eace\n              eq\n              tag_12\n              jumpi\n              0x00\n              dup1\n              revert\n            tag_17:\n              dup1\n              0x715018a6\n              gt\n              tag_19\n              jumpi\n              dup1\n              0x715018a6\n              eq\n              tag_6\n              jumpi\n              dup1\n              0x810ec23b\n              eq\n              tag_7\n              jumpi\n              dup1\n              0x86d1a69f\n              eq\n              tag_8\n              jumpi\n              dup1\n              0x8da5cb5b\n              eq\n              tag_9\n              jumpi\n              0x00\n              dup1\n              revert\n            tag_19:\n              dup1\n              0x0a17b06b\n              eq\n              tag_3\n              jumpi\n              dup1\n              0x0fb5a6b4\n              eq\n              tag_4\n              jumpi\n              dup1\n              0x19165587\n              eq\n              tag_5\n              jumpi\n              0x00\n              dup1\n              revert\n            tag_1:\n              jumpi(tag_2, calldatasize)\n              stop\n            tag_2:\n              0x00\n              dup1\n              revert\n                /* \"kash_vesting_flattened.sol\":34254:34419  function vestedAmount(uint64 timestamp) public view virtual returns (uint256) {... */\n            tag_3:\n              callvalue\n              dup1\n              iszero\n              tag_22\n              jumpi\n              0x00\n              dup1\n              revert\n            tag_22:\n              pop\n              tag_23\n              tag_24\n              calldatasize\n              0x04\n              tag_25\n              jump\t// in\n            tag_24:\n              tag_26\n              jump\t// in\n            tag_23:\n              mload(0x40)\n                /* \"#utility.yul\":525:550   */\n              swap1\n              dup2\n              mstore\n                /* \"#utility.yul\":513:515   */\n              0x20\n                /* \"#utility.yul\":498:516   */\n              add\n                /* \"kash_vesting_flattened.sol\":34254:34419  function vestedAmount(uint64 timestamp) public view virtual returns (uint256) {... */\n            tag_27:\n              mload(0x40)\n              dup1\n              swap2\n              sub\n              swap1\n              return\n                /* \"kash_vesting_flattened.sol\":32301:32392  function duration() public view virtual returns (uint256) {... */\n            tag_4:\n              callvalue\n              dup1\n              iszero\n              tag_29\n              jumpi\n              0x00\n              dup1\n              revert\n            tag_29:\n              pop\n                /* \"kash_vesting_flattened.sol\":32376:32385  _duration */\n              immutable(\"0xc9c56ece8ab1aa87565be4409fb2c8fe3d8ffec3fdab003090c209216657ff72\")\n                /* \"kash_vesting_flattened.sol\":32369:32385  return _duration */\n              0xffffffffffffffff\n              and\n                /* \"kash_vesting_flattened.sol\":32301:32392  function duration() public view virtual returns (uint256) {... */\n              jump(tag_23)\n                /* \"kash_vesting_flattened.sol\":33868:34114  function release(address token) public virtual {... */\n            tag_5:\n              callvalue\n              dup1\n              iszero\n              tag_33\n              jumpi\n              0x00\n              dup1\n              revert\n            tag_33:\n              pop\n              tag_34\n              tag_35\n              calldatasize\n              0x04\n              tag_36\n              jump\t// in\n            tag_35:\n              tag_37\n              jump\t// in\n            tag_34:\n              stop\n                /* \"kash_vesting_flattened.sol\":28665:28766  function renounceOwnership() public virtual onlyOwner {... */\n            tag_6:\n              callvalue\n              dup1\n              iszero\n              tag_38\n              jumpi\n              0x00\n              dup1\n              revert\n            tag_38:\n              pop\n              tag_34\n              tag_40\n              jump\t// in\n                /* \"kash_vesting_flattened.sol\":34560:34762  function vestedAmount(address token, uint64 timestamp) public view virtual returns (uint256) {... */\n            tag_7:\n              callvalue\n              dup1\n              iszero\n              tag_41\n              jumpi\n              0x00\n              dup1\n              revert\n            tag_41:\n              pop\n              tag_23\n              tag_43\n              calldatasize\n              0x04\n              tag_44\n              jump\t// in\n            tag_43:\n              tag_45\n              jump\t// in\n                /* \"kash_vesting_flattened.sol\":33546:33744  function release() public virtual {... */\n            tag_8:\n              callvalue\n              dup1\n              iszero\n              tag_47\n              jumpi\n              0x00\n              dup1\n              revert\n            tag_47:\n              pop\n              tag_34\n              tag_49\n              jump\t// in\n                /* \"kash_vesting_flattened.sol\":28010:28095  function owner() public view virtual returns (address) {... */\n            tag_9:\n              callvalue\n              dup1\n              iszero\n              tag_50\n              jumpi\n              0x00\n              dup1\n              revert\n            tag_50:\n              pop\n                /* \"kash_vesting_flattened.sol\":28056:28063  address */\n              0x00\n                /* \"kash_vesting_flattened.sol\":28082:28088  _owner */\n              sload\n                /* \"kash_vesting_flattened.sol\":28010:28095  function owner() public view virtual returns (address) {... */\n              mload(0x40)\n              sub(shl(0xa0, 0x01), 0x01)\n                /* \"kash_vesting_flattened.sol\":28082:28088  _owner */\n              swap1\n              swap2\n              and\n                /* \"#utility.yul\":1362:1436   */\n              dup2\n              mstore\n                /* \"#utility.yul\":1350:1352   */\n              0x20\n                /* \"#utility.yul\":1335:1353   */\n              add\n                /* \"kash_vesting_flattened.sol\":28010:28095  function owner() public view virtual returns (address) {... */\n              tag_27\n                /* \"#utility.yul\":1216:1442   */\n              jump\n                /* \"kash_vesting_flattened.sol\":32618:32709  function released() public view virtual returns (uint256) {... */\n            tag_10:\n              callvalue\n              dup1\n              iszero\n              tag_55\n              jumpi\n              0x00\n              dup1\n              revert\n            tag_55:\n              pop\n                /* \"kash_vesting_flattened.sol\":32693:32702  _released */\n              sload(0x01)\n                /* \"kash_vesting_flattened.sol\":32618:32709  function released() public view virtual returns (uint256) {... */\n              jump(tag_23)\n                /* \"kash_vesting_flattened.sol\":32776:32892  function released(address token) public view virtual returns (uint256) {... */\n            tag_11:\n              callvalue\n              dup1\n              iszero\n              tag_59\n              jumpi\n              0x00\n              dup1\n              revert\n            tag_59:\n              pop\n              tag_23\n              tag_61\n              calldatasize\n              0x04\n              tag_36\n              jump\t// in\n            tag_61:\n              sub(shl(0xa0, 0x01), 0x01)\n                /* \"kash_vesting_flattened.sol\":32864:32885  _erc20Released[token] */\n              and\n                /* \"kash_vesting_flattened.sol\":32838:32845  uint256 */\n              0x00\n                /* \"kash_vesting_flattened.sol\":32864:32885  _erc20Released[token] */\n              swap1\n              dup2\n              mstore\n                /* \"kash_vesting_flattened.sol\":32864:32878  _erc20Released */\n              0x02\n                /* \"kash_vesting_flattened.sol\":32864:32885  _erc20Released[token] */\n              0x20\n              mstore\n              0x40\n              swap1\n              keccak256\n              sload\n              swap1\n                /* \"kash_vesting_flattened.sol\":32776:32892  function released(address token) public view virtual returns (uint256) {... */\n              jump\n                /* \"kash_vesting_flattened.sol\":33249:33408  function releasable(address token) public view virtual returns (uint256) {... */\n            tag_12:\n              callvalue\n              dup1\n              iszero\n              tag_64\n              jumpi\n              0x00\n              dup1\n              revert\n            tag_64:\n              pop\n              tag_23\n              tag_66\n              calldatasize\n              0x04\n              tag_36\n              jump\t// in\n            tag_66:\n              tag_67\n              jump\t// in\n                /* \"kash_vesting_flattened.sol\":32149:32234  function start() public view virtual returns (uint256) {... */\n            tag_13:\n              callvalue\n              dup1\n              iszero\n              tag_69\n              jumpi\n              0x00\n              dup1\n              revert\n            tag_69:\n              pop\n                /* \"kash_vesting_flattened.sol\":32221:32227  _start */\n              immutable(\"0x6ec03fc6a2303ff0283996b05577f38ea45b37619214a3bde5dbe5d42345eefa\")\n                /* \"kash_vesting_flattened.sol\":32214:32227  return _start */\n              0xffffffffffffffff\n              and\n                /* \"kash_vesting_flattened.sol\":32149:32234  function start() public view virtual returns (uint256) {... */\n              jump(tag_23)\n                /* \"kash_vesting_flattened.sol\":32456:32553  function end() public view virtual returns (uint256) {... */\n            tag_14:\n              callvalue\n              dup1\n              iszero\n              tag_73\n              jumpi\n              0x00\n              dup1\n              revert\n            tag_73:\n              pop\n              tag_23\n              tag_75\n              jump\t// in\n                /* \"kash_vesting_flattened.sol\":28915:29130  function transferOwnership(address newOwner) public virtual onlyOwner {... */\n            tag_15:\n              callvalue\n              dup1\n              iszero\n              tag_77\n              jumpi\n              0x00\n              dup1\n              revert\n            tag_77:\n              pop\n              tag_34\n              tag_79\n              calldatasize\n              0x04\n              tag_36\n              jump\t// in\n            tag_79:\n              tag_80\n              jump\t// in\n                /* \"kash_vesting_flattened.sol\":32967:33101  function releasable() public view virtual returns (uint256) {... */\n            tag_16:\n              callvalue\n              dup1\n              iszero\n              tag_81\n              jumpi\n              0x00\n              dup1\n              revert\n            tag_81:\n              pop\n              tag_23\n              tag_83\n              jump\t// in\n                /* \"kash_vesting_flattened.sol\":34254:34419  function vestedAmount(uint64 timestamp) public view virtual returns (uint256) {... */\n            tag_26:\n                /* \"kash_vesting_flattened.sol\":34323:34330  uint256 */\n              0x00\n                /* \"kash_vesting_flattened.sol\":34349:34412  _vestingSchedule(address(this).balance + released(), timestamp) */\n              tag_86\n                /* \"kash_vesting_flattened.sol\":34390:34400  released() */\n              tag_87\n                /* \"kash_vesting_flattened.sol\":32693:32702  _released */\n              sload(0x01)\n              swap1\n                /* \"kash_vesting_flattened.sol\":32618:32709  function released() public view virtual returns (uint256) {... */\n              jump\n                /* \"kash_vesting_flattened.sol\":34390:34400  released() */\n            tag_87:\n                /* \"kash_vesting_flattened.sol\":34366:34400  address(this).balance + released() */\n              tag_88\n              swap1\n                /* \"kash_vesting_flattened.sol\":34366:34387  address(this).balance */\n              selfbalance\n                /* \"kash_vesting_flattened.sol\":34366:34400  address(this).balance + released() */\n              tag_89\n              jump\t// in\n            tag_88:\n                /* \"kash_vesting_flattened.sol\":34402:34411  timestamp */\n              dup4\n                /* \"kash_vesting_flattened.sol\":34349:34365  _vestingSchedule */\n              tag_90\n                /* \"kash_vesting_flattened.sol\":34349:34412  _vestingSchedule(address(this).balance + released(), timestamp) */\n              jump\t// in\n            tag_86:\n                /* \"kash_vesting_flattened.sol\":34342:34412  return _vestingSchedule(address(this).balance + released(), timestamp) */\n              swap3\n                /* \"kash_vesting_flattened.sol\":34254:34419  function vestedAmount(uint64 timestamp) public view virtual returns (uint256) {... */\n              swap2\n              pop\n              pop\n              jump\t// out\n                /* \"kash_vesting_flattened.sol\":33868:34114  function release(address token) public virtual {... */\n            tag_37:\n                /* \"kash_vesting_flattened.sol\":33925:33939  uint256 amount */\n              0x00\n                /* \"kash_vesting_flattened.sol\":33942:33959  releasable(token) */\n              tag_93\n                /* \"kash_vesting_flattened.sol\":33953:33958  token */\n              dup3\n                /* \"kash_vesting_flattened.sol\":33942:33952  releasable */\n              tag_67\n                /* \"kash_vesting_flattened.sol\":33942:33959  releasable(token) */\n              jump\t// in\n            tag_93:\n              sub(shl(0xa0, 0x01), 0x01)\n                /* \"kash_vesting_flattened.sol\":33969:33990  _erc20Released[token] */\n              dup4\n              and\n              0x00\n              swap1\n              dup2\n              mstore\n                /* \"kash_vesting_flattened.sol\":33969:33983  _erc20Released */\n              0x02\n                /* \"kash_vesting_flattened.sol\":33969:33990  _erc20Released[token] */\n              0x20\n              mstore\n              0x40\n              dup2\n              keccak256\n                /* \"kash_vesting_flattened.sol\":33969:34000  _erc20Released[token] += amount */\n              dup1\n              sload\n                /* \"kash_vesting_flattened.sol\":33925:33959  uint256 amount = releasable(token) */\n              swap3\n              swap4\n              pop\n              dup4\n              swap3\n                /* \"kash_vesting_flattened.sol\":33969:33990  _erc20Released[token] */\n              swap1\n              swap2\n              swap1\n                /* \"kash_vesting_flattened.sol\":33969:34000  _erc20Released[token] += amount */\n              tag_94\n              swap1\n                /* \"kash_vesting_flattened.sol\":33925:33959  uint256 amount = releasable(token) */\n              dup5\n              swap1\n                /* \"kash_vesting_flattened.sol\":33969:34000  _erc20Released[token] += amount */\n              tag_89\n              jump\t// in\n            tag_94:\n              swap1\n              swap2\n              sstore\n              pop\n              pop\n                /* \"kash_vesting_flattened.sol\":34015:34043  ERC20Released(token, amount) */\n              mload(0x40)\n                /* \"#utility.yul\":525:550   */\n              dup2\n              dup2\n              mstore\n              sub(shl(0xa0, 0x01), 0x01)\n                /* \"kash_vesting_flattened.sol\":34015:34043  ERC20Released(token, amount) */\n              dup4\n              and\n              swap1\n              0xc0e523490dd523c33b1878c9eb14ff46991e3f5b2cd33710918618f2a39cba1b\n              swap1\n                /* \"#utility.yul\":513:515   */\n              0x20\n                /* \"#utility.yul\":498:516   */\n              add\n                /* \"kash_vesting_flattened.sol\":34015:34043  ERC20Released(token, amount) */\n              mload(0x40)\n              dup1\n              swap2\n              sub\n              swap1\n              log2\n                /* \"kash_vesting_flattened.sol\":34053:34107  SafeERC20.safeTransfer(IERC20(token), owner(), amount) */\n              tag_96\n                /* \"kash_vesting_flattened.sol\":34083:34088  token */\n              dup3\n                /* \"kash_vesting_flattened.sol\":34091:34098  owner() */\n              tag_97\n                /* \"kash_vesting_flattened.sol\":28056:28063  address */\n              0x00\n                /* \"kash_vesting_flattened.sol\":28082:28088  _owner */\n              sload\n              sub(shl(0xa0, 0x01), 0x01)\n              and\n              swap1\n                /* \"kash_vesting_flattened.sol\":28010:28095  function owner() public view virtual returns (address) {... */\n              jump\n                /* \"kash_vesting_flattened.sol\":34091:34098  owner() */\n            tag_97:\n                /* \"kash_vesting_flattened.sol\":34100:34106  amount */\n              dup4\n                /* \"kash_vesting_flattened.sol\":34053:34075  SafeERC20.safeTransfer */\n              tag_98\n                /* \"kash_vesting_flattened.sol\":34053:34107  SafeERC20.safeTransfer(IERC20(token), owner(), amount) */\n              jump\t// in\n            tag_96:\n                /* \"kash_vesting_flattened.sol\":33915:34114  {... */\n              pop\n                /* \"kash_vesting_flattened.sol\":33868:34114  function release(address token) public virtual {... */\n              pop\n              jump\t// out\n                /* \"kash_vesting_flattened.sol\":28665:28766  function renounceOwnership() public virtual onlyOwner {... */\n            tag_40:\n                /* \"kash_vesting_flattened.sol\":27903:27916  _checkOwner() */\n              tag_100\n                /* \"kash_vesting_flattened.sol\":27903:27914  _checkOwner */\n              tag_101\n                /* \"kash_vesting_flattened.sol\":27903:27916  _checkOwner() */\n              jump\t// in\n            tag_100:\n                /* \"kash_vesting_flattened.sol\":28729:28759  _transferOwnership(address(0)) */\n              tag_103\n                /* \"kash_vesting_flattened.sol\":28756:28757  0 */\n              0x00\n                /* \"kash_vesting_flattened.sol\":28729:28747  _transferOwnership */\n              tag_104\n                /* \"kash_vesting_flattened.sol\":28729:28759  _transferOwnership(address(0)) */\n              jump\t// in\n            tag_103:\n                /* \"kash_vesting_flattened.sol\":28665:28766  function renounceOwnership() public virtual onlyOwner {... */\n              jump\t// out\n                /* \"kash_vesting_flattened.sol\":34560:34762  function vestedAmount(address token, uint64 timestamp) public view virtual returns (uint256) {... */\n            tag_45:\n              sub(shl(0xa0, 0x01), 0x01)\n                /* \"kash_vesting_flattened.sol\":32864:32885  _erc20Released[token] */\n              dup3\n              and\n                /* \"kash_vesting_flattened.sol\":34644:34651  uint256 */\n              0x00\n                /* \"kash_vesting_flattened.sol\":32864:32885  _erc20Released[token] */\n              swap1\n              dup2\n              mstore\n                /* \"kash_vesting_flattened.sol\":32864:32878  _erc20Released */\n              0x02\n                /* \"kash_vesting_flattened.sol\":32864:32885  _erc20Released[token] */\n              0x20\n              mstore\n              0x40\n              dup2\n              keccak256\n              sload\n                /* \"kash_vesting_flattened.sol\":34670:34755  _vestingSchedule(IERC20(token).balanceOf(address(this)) + released(token), timestamp) */\n              tag_106\n              swap1\n                /* \"kash_vesting_flattened.sol\":34687:34725  IERC20(token).balanceOf(address(this)) */\n              mload(0x40)\n              0x70a0823100000000000000000000000000000000000000000000000000000000\n              dup2\n              mstore\n                /* \"kash_vesting_flattened.sol\":34719:34723  this */\n              address\n                /* \"kash_vesting_flattened.sol\":34687:34725  IERC20(token).balanceOf(address(this)) */\n              0x04\n              dup3\n              add\n                /* \"#utility.yul\":1362:1436   */\n              mstore\n              sub(shl(0xa0, 0x01), 0x01)\n                /* \"kash_vesting_flattened.sol\":34687:34710  IERC20(token).balanceOf */\n              dup7\n              and\n              swap1\n              0x70a08231\n              swap1\n                /* \"#utility.yul\":1335:1353   */\n              0x24\n              add\n                /* \"kash_vesting_flattened.sol\":34687:34725  IERC20(token).balanceOf(address(this)) */\n              0x20\n              mload(0x40)\n              dup1\n              dup4\n              sub\n              dup2\n              dup7\n              gas\n              staticcall\n              iszero\n              dup1\n              iszero\n              tag_110\n              jumpi\n              returndatasize\n              0x00\n              dup1\n              returndatacopy\n              revert(0x00, returndatasize)\n            tag_110:\n              pop\n              pop\n              pop\n              pop\n              mload(0x40)\n              returndatasize\n              not(0x1f)\n              0x1f\n              dup3\n              add\n              and\n              dup3\n              add\n              dup1\n              0x40\n              mstore\n              pop\n              dup2\n              add\n              swap1\n              tag_111\n              swap2\n              swap1\n              tag_112\n              jump\t// in\n            tag_111:\n                /* \"kash_vesting_flattened.sol\":34687:34743  IERC20(token).balanceOf(address(this)) + released(token) */\n              tag_88\n              swap2\n              swap1\n              tag_89\n              jump\t// in\n                /* \"kash_vesting_flattened.sol\":34670:34755  _vestingSchedule(IERC20(token).balanceOf(address(this)) + released(token), timestamp) */\n            tag_106:\n                /* \"kash_vesting_flattened.sol\":34663:34755  return _vestingSchedule(IERC20(token).balanceOf(address(this)) + released(token), timestamp) */\n              swap4\n                /* \"kash_vesting_flattened.sol\":34560:34762  function vestedAmount(address token, uint64 timestamp) public view virtual returns (uint256) {... */\n              swap3\n              pop\n              pop\n              pop\n              jump\t// out\n                /* \"kash_vesting_flattened.sol\":33546:33744  function release() public virtual {... */\n            tag_49:\n                /* \"kash_vesting_flattened.sol\":33590:33604  uint256 amount */\n              0x00\n                /* \"kash_vesting_flattened.sol\":33607:33619  releasable() */\n              tag_115\n                /* \"kash_vesting_flattened.sol\":33607:33617  releasable */\n              tag_83\n                /* \"kash_vesting_flattened.sol\":33607:33619  releasable() */\n              jump\t// in\n            tag_115:\n                /* \"kash_vesting_flattened.sol\":33590:33619  uint256 amount = releasable() */\n              swap1\n              pop\n                /* \"kash_vesting_flattened.sol\":33642:33648  amount */\n              dup1\n                /* \"kash_vesting_flattened.sol\":33629:33638  _released */\n              0x01\n              0x00\n                /* \"kash_vesting_flattened.sol\":33629:33648  _released += amount */\n              dup3\n              dup3\n              sload\n              tag_116\n              swap2\n              swap1\n              tag_89\n              jump\t// in\n            tag_116:\n              swap1\n              swap2\n              sstore\n              pop\n              pop\n                /* \"kash_vesting_flattened.sol\":33663:33684  EtherReleased(amount) */\n              mload(0x40)\n                /* \"#utility.yul\":525:550   */\n              dup2\n              dup2\n              mstore\n                /* \"kash_vesting_flattened.sol\":33663:33684  EtherReleased(amount) */\n              0xda9d4e5f101b8b9b1c5b76d0c5a9f7923571acfc02376aa076b75a8c080c956b\n              swap1\n                /* \"#utility.yul\":513:515   */\n              0x20\n                /* \"#utility.yul\":498:516   */\n              add\n                /* \"kash_vesting_flattened.sol\":33663:33684  EtherReleased(amount) */\n              mload(0x40)\n              dup1\n              swap2\n              sub\n              swap1\n              log1\n                /* \"kash_vesting_flattened.sol\":33694:33737  Address.sendValue(payable(owner()), amount) */\n              tag_118\n                /* \"kash_vesting_flattened.sol\":33720:33727  owner() */\n              tag_119\n                /* \"kash_vesting_flattened.sol\":28056:28063  address */\n              0x00\n                /* \"kash_vesting_flattened.sol\":28082:28088  _owner */\n              sload\n              sub(shl(0xa0, 0x01), 0x01)\n              and\n              swap1\n                /* \"kash_vesting_flattened.sol\":28010:28095  function owner() public view virtual returns (address) {... */\n              jump\n                /* \"kash_vesting_flattened.sol\":33720:33727  owner() */\n            tag_119:\n                /* \"kash_vesting_flattened.sol\":33730:33736  amount */\n              dup3\n                /* \"kash_vesting_flattened.sol\":33694:33711  Address.sendValue */\n              tag_120\n                /* \"kash_vesting_flattened.sol\":33694:33737  Address.sendValue(payable(owner()), amount) */\n              jump\t// in\n            tag_118:\n                /* \"kash_vesting_flattened.sol\":33580:33744  {... */\n              pop\n                /* \"kash_vesting_flattened.sol\":33546:33744  function release() public virtual {... */\n              jump\t// out\n                /* \"kash_vesting_flattened.sol\":33249:33408  function releasable(address token) public view virtual returns (uint256) {... */\n            tag_67:\n              sub(shl(0xa0, 0x01), 0x01)\n                /* \"kash_vesting_flattened.sol\":32864:32885  _erc20Released[token] */\n              dup2\n              and\n                /* \"kash_vesting_flattened.sol\":33313:33320  uint256 */\n              0x00\n                /* \"kash_vesting_flattened.sol\":32864:32885  _erc20Released[token] */\n              swap1\n              dup2\n              mstore\n                /* \"kash_vesting_flattened.sol\":32864:32878  _erc20Released */\n              0x02\n                /* \"kash_vesting_flattened.sol\":32864:32885  _erc20Released[token] */\n              0x20\n              mstore\n              0x40\n              dup2\n              keccak256\n              sload\n                /* \"kash_vesting_flattened.sol\":33339:33383  vestedAmount(token, uint64(block.timestamp)) */\n              tag_126\n                /* \"kash_vesting_flattened.sol\":33352:33357  token */\n              dup4\n                /* \"kash_vesting_flattened.sol\":33366:33381  block.timestamp */\n              timestamp\n                /* \"kash_vesting_flattened.sol\":33339:33351  vestedAmount */\n              tag_45\n                /* \"kash_vesting_flattened.sol\":33339:33383  vestedAmount(token, uint64(block.timestamp)) */\n              jump\t// in\n            tag_126:\n                /* \"kash_vesting_flattened.sol\":33339:33401  vestedAmount(token, uint64(block.timestamp)) - released(token) */\n              tag_86\n              swap2\n              swap1\n              tag_128\n              jump\t// in\n                /* \"kash_vesting_flattened.sol\":32456:32553  function end() public view virtual returns (uint256) {... */\n            tag_75:\n                /* \"kash_vesting_flattened.sol\":32500:32507  uint256 */\n              0x00\n                /* \"kash_vesting_flattened.sol\":32526:32546  start() + duration() */\n              tag_133\n                /* \"kash_vesting_flattened.sol\":32369:32385  return _duration */\n              0xffffffffffffffff\n                /* \"kash_vesting_flattened.sol\":32376:32385  _duration */\n              immutable(\"0xc9c56ece8ab1aa87565be4409fb2c8fe3d8ffec3fdab003090c209216657ff72\")\n                /* \"kash_vesting_flattened.sol\":32369:32385  return _duration */\n              dup2\n              and\n              swap1\n                /* \"kash_vesting_flattened.sol\":32221:32227  _start */\n              immutable(\"0x6ec03fc6a2303ff0283996b05577f38ea45b37619214a3bde5dbe5d42345eefa\")\n                /* \"kash_vesting_flattened.sol\":32214:32227  return _start */\n              and\n                /* \"kash_vesting_flattened.sol\":32526:32546  start() + duration() */\n              tag_89\n              jump\t// in\n            tag_133:\n                /* \"kash_vesting_flattened.sol\":32519:32546  return start() + duration() */\n              swap1\n              pop\n                /* \"kash_vesting_flattened.sol\":32456:32553  function end() public view virtual returns (uint256) {... */\n              swap1\n              jump\t// out\n                /* \"kash_vesting_flattened.sol\":28915:29130  function transferOwnership(address newOwner) public virtual onlyOwner {... */\n            tag_80:\n                /* \"kash_vesting_flattened.sol\":27903:27916  _checkOwner() */\n              tag_135\n                /* \"kash_vesting_flattened.sol\":27903:27914  _checkOwner */\n              tag_101\n                /* \"kash_vesting_flattened.sol\":27903:27916  _checkOwner() */\n              jump\t// in\n            tag_135:\n              sub(shl(0xa0, 0x01), 0x01)\n                /* \"kash_vesting_flattened.sol\":28999:29021  newOwner == address(0) */\n              dup2\n              and\n                /* \"kash_vesting_flattened.sol\":28995:29086  if (newOwner == address(0)) {... */\n              tag_137\n              jumpi\n                /* \"kash_vesting_flattened.sol\":29044:29075  OwnableInvalidOwner(address(0)) */\n              mload(0x40)\n              0x1e4fbdf700000000000000000000000000000000000000000000000000000000\n              dup2\n              mstore\n                /* \"kash_vesting_flattened.sol\":29072:29073  0 */\n              0x00\n                /* \"kash_vesting_flattened.sol\":29044:29075  OwnableInvalidOwner(address(0)) */\n              0x04\n              dup3\n              add\n                /* \"#utility.yul\":1362:1436   */\n              mstore\n                /* \"#utility.yul\":1335:1353   */\n              0x24\n              add\n                /* \"kash_vesting_flattened.sol\":29044:29075  OwnableInvalidOwner(address(0)) */\n            tag_138:\n              mload(0x40)\n              dup1\n              swap2\n              sub\n              swap1\n              revert\n                /* \"kash_vesting_flattened.sol\":28995:29086  if (newOwner == address(0)) {... */\n            tag_137:\n                /* \"kash_vesting_flattened.sol\":29095:29123  _transferOwnership(newOwner) */\n              tag_118\n                /* \"kash_vesting_flattened.sol\":29114:29122  newOwner */\n              dup2\n                /* \"kash_vesting_flattened.sol\":29095:29113  _transferOwnership */\n              tag_104\n                /* \"kash_vesting_flattened.sol\":29095:29123  _transferOwnership(newOwner) */\n              jump\t// in\n                /* \"kash_vesting_flattened.sol\":32967:33101  function releasable() public view virtual returns (uint256) {... */\n            tag_83:\n                /* \"kash_vesting_flattened.sol\":33018:33025  uint256 */\n              0x00\n                /* \"kash_vesting_flattened.sol\":33084:33094  released() */\n              tag_141\n                /* \"kash_vesting_flattened.sol\":32693:32702  _released */\n              sload(0x01)\n              swap1\n                /* \"kash_vesting_flattened.sol\":32618:32709  function released() public view virtual returns (uint256) {... */\n              jump\n                /* \"kash_vesting_flattened.sol\":33084:33094  released() */\n            tag_141:\n                /* \"kash_vesting_flattened.sol\":33044:33081  vestedAmount(uint64(block.timestamp)) */\n              tag_142\n                /* \"kash_vesting_flattened.sol\":33064:33079  block.timestamp */\n              timestamp\n                /* \"kash_vesting_flattened.sol\":33044:33056  vestedAmount */\n              tag_26\n                /* \"kash_vesting_flattened.sol\":33044:33081  vestedAmount(uint64(block.timestamp)) */\n              jump\t// in\n            tag_142:\n                /* \"kash_vesting_flattened.sol\":33044:33094  vestedAmount(uint64(block.timestamp)) - released() */\n              tag_133\n              swap2\n              swap1\n              tag_128\n              jump\t// in\n                /* \"kash_vesting_flattened.sol\":34957:35309  function _vestingSchedule(uint256 totalAllocation, uint64 timestamp) internal view virtual returns (uint256) {... */\n            tag_90:\n                /* \"kash_vesting_flattened.sol\":35057:35064  uint256 */\n              0x00\n                /* \"kash_vesting_flattened.sol\":32221:32227  _start */\n              immutable(\"0x6ec03fc6a2303ff0283996b05577f38ea45b37619214a3bde5dbe5d42345eefa\")\n                /* \"kash_vesting_flattened.sol\":32214:32227  return _start */\n              0xffffffffffffffff\n              and\n                /* \"kash_vesting_flattened.sol\":35080:35089  timestamp */\n              dup3\n                /* \"kash_vesting_flattened.sol\":35080:35099  timestamp < start() */\n              0xffffffffffffffff\n              and\n              lt\n                /* \"kash_vesting_flattened.sol\":35076:35303  if (timestamp < start()) {... */\n              iszero\n              tag_146\n              jumpi\n              pop\n                /* \"kash_vesting_flattened.sol\":35122:35123  0 */\n              0x00\n                /* \"kash_vesting_flattened.sol\":35115:35123  return 0 */\n              jump(tag_86)\n                /* \"kash_vesting_flattened.sol\":35076:35303  if (timestamp < start()) {... */\n            tag_146:\n                /* \"kash_vesting_flattened.sol\":35157:35162  end() */\n              tag_148\n                /* \"kash_vesting_flattened.sol\":35157:35160  end */\n              tag_75\n                /* \"kash_vesting_flattened.sol\":35157:35162  end() */\n              jump\t// in\n            tag_148:\n                /* \"kash_vesting_flattened.sol\":35144:35153  timestamp */\n              dup3\n                /* \"kash_vesting_flattened.sol\":35144:35162  timestamp >= end() */\n              0xffffffffffffffff\n              and\n              lt\n                /* \"kash_vesting_flattened.sol\":35140:35303  if (timestamp >= end()) {... */\n              tag_149\n              jumpi\n              pop\n                /* \"kash_vesting_flattened.sol\":35185:35200  totalAllocation */\n              dup2\n                /* \"kash_vesting_flattened.sol\":35178:35200  return totalAllocation */\n              jump(tag_86)\n                /* \"kash_vesting_flattened.sol\":35140:35303  if (timestamp >= end()) {... */\n            tag_149:\n                /* \"kash_vesting_flattened.sol\":32376:32385  _duration */\n              immutable(\"0xc9c56ece8ab1aa87565be4409fb2c8fe3d8ffec3fdab003090c209216657ff72\")\n                /* \"kash_vesting_flattened.sol\":32369:32385  return _duration */\n              0xffffffffffffffff\n              and\n                /* \"kash_vesting_flattened.sol\":32221:32227  _start */\n              immutable(\"0x6ec03fc6a2303ff0283996b05577f38ea45b37619214a3bde5dbe5d42345eefa\")\n                /* \"kash_vesting_flattened.sol\":32214:32227  return _start */\n              0xffffffffffffffff\n              and\n                /* \"kash_vesting_flattened.sol\":35258:35277  timestamp - start() */\n              tag_153\n              swap1\n              0xffffffffffffffff\n              dup6\n              and\n              tag_128\n              jump\t// in\n            tag_153:\n                /* \"kash_vesting_flattened.sol\":35239:35278  totalAllocation * (timestamp - start()) */\n              tag_154\n              swap1\n                /* \"kash_vesting_flattened.sol\":35239:35254  totalAllocation */\n              dup6\n                /* \"kash_vesting_flattened.sol\":35239:35278  totalAllocation * (timestamp - start()) */\n              tag_155\n              jump\t// in\n            tag_154:\n                /* \"kash_vesting_flattened.sol\":35238:35292  (totalAllocation * (timestamp - start())) / duration() */\n              tag_156\n              swap2\n              swap1\n              tag_157\n              jump\t// in\n            tag_156:\n                /* \"kash_vesting_flattened.sol\":35231:35292  return (totalAllocation * (timestamp - start())) / duration() */\n              swap1\n              pop\n              jump(tag_86)\n                /* \"kash_vesting_flattened.sol\":9656:9816  function safeTransfer(IERC20 token, address to, uint256 value) internal {... */\n            tag_98:\n                /* \"kash_vesting_flattened.sol\":9765:9808  abi.encodeCall(token.transfer, (to, value)) */\n              0x40\n              dup1\n              mload\n              sub(shl(0xa0, 0x01), 0x01)\n                /* \"#utility.yul\":2732:2787   */\n              dup5\n              and\n                /* \"kash_vesting_flattened.sol\":9765:9808  abi.encodeCall(token.transfer, (to, value)) */\n              0x24\n              dup3\n              add\n                /* \"#utility.yul\":2714:2788   */\n              mstore\n                /* \"#utility.yul\":2804:2822   */\n              0x44\n              dup1\n              dup3\n              add\n                /* \"#utility.yul\":2797:2831   */\n              dup5\n              swap1\n              mstore\n                /* \"kash_vesting_flattened.sol\":9765:9808  abi.encodeCall(token.transfer, (to, value)) */\n              dup3\n              mload\n              dup1\n              dup4\n              sub\n              swap1\n              swap2\n              add\n              dup2\n              mstore\n                /* \"#utility.yul\":2687:2705   */\n              0x64\n              swap1\n              swap2\n              add\n                /* \"kash_vesting_flattened.sol\":9765:9808  abi.encodeCall(token.transfer, (to, value)) */\n              swap1\n              swap2\n              mstore\n              0x20\n              dup2\n              add\n              dup1\n              mload\n              0xffffffffffffffffffffffffffffffffffffffffffffffffffffffff\n              and\n              0xa9059cbb00000000000000000000000000000000000000000000000000000000\n              or\n              swap1\n              mstore\n                /* \"kash_vesting_flattened.sol\":9738:9809  _callOptionalReturn(token, abi.encodeCall(token.transfer, (to, value))) */\n              tag_159\n              swap1\n                /* \"kash_vesting_flattened.sol\":9758:9763  token */\n              dup5\n              swap1\n                /* \"kash_vesting_flattened.sol\":9738:9757  _callOptionalReturn */\n              tag_162\n                /* \"kash_vesting_flattened.sol\":9738:9809  _callOptionalReturn(token, abi.encodeCall(token.transfer, (to, value))) */\n              jump\t// in\n            tag_159:\n                /* \"kash_vesting_flattened.sol\":9656:9816  function safeTransfer(IERC20 token, address to, uint256 value) internal {... */\n              pop\n              pop\n              pop\n              jump\t// out\n                /* \"kash_vesting_flattened.sol\":28168:28330  function _checkOwner() internal view virtual {... */\n            tag_101:\n                /* \"kash_vesting_flattened.sol\":28056:28063  address */\n              0x00\n                /* \"kash_vesting_flattened.sol\":28082:28088  _owner */\n              sload\n              sub(shl(0xa0, 0x01), 0x01)\n              and\n                /* \"kash_vesting_flattened.sol\":26167:26177  msg.sender */\n              caller\n                /* \"kash_vesting_flattened.sol\":28227:28250  owner() != _msgSender() */\n              eq\n                /* \"kash_vesting_flattened.sol\":28223:28324  if (owner() != _msgSender()) {... */\n              tag_103\n              jumpi\n                /* \"kash_vesting_flattened.sol\":28273:28313  OwnableUnauthorizedAccount(_msgSender()) */\n              mload(0x40)\n              0x118cdaa700000000000000000000000000000000000000000000000000000000\n              dup2\n              mstore\n                /* \"kash_vesting_flattened.sol\":26167:26177  msg.sender */\n              caller\n                /* \"kash_vesting_flattened.sol\":28273:28313  OwnableUnauthorizedAccount(_msgSender()) */\n              0x04\n              dup3\n              add\n                /* \"#utility.yul\":1362:1436   */\n              mstore\n                /* \"#utility.yul\":1335:1353   */\n              0x24\n              add\n                /* \"kash_vesting_flattened.sol\":28273:28313  OwnableUnauthorizedAccount(_msgSender()) */\n              tag_138\n                /* \"#utility.yul\":1216:1442   */\n              jump\n                /* \"kash_vesting_flattened.sol\":29284:29471  function _transferOwnership(address newOwner) internal virtual {... */\n            tag_104:\n                /* \"kash_vesting_flattened.sol\":29357:29373  address oldOwner */\n              0x00\n                /* \"kash_vesting_flattened.sol\":29376:29382  _owner */\n              dup1\n              sload\n              sub(shl(0xa0, 0x01), 0x01)\n                /* \"kash_vesting_flattened.sol\":29392:29409  _owner = newOwner */\n              dup4\n              dup2\n              and\n              0xffffffffffffffffffffffff0000000000000000000000000000000000000000\n              dup4\n              and\n              dup2\n              or\n              dup5\n              sstore\n                /* \"kash_vesting_flattened.sol\":29424:29464  OwnershipTransferred(oldOwner, newOwner) */\n              mload(0x40)\n                /* \"kash_vesting_flattened.sol\":29376:29382  _owner */\n              swap2\n              swap1\n              swap3\n              and\n              swap3\n              dup4\n              swap2\n                /* \"kash_vesting_flattened.sol\":29424:29464  OwnershipTransferred(oldOwner, newOwner) */\n              0x8be0079c531659141344cd1fd0a4f28419497f9722a3daafe3b4186f6b6457e0\n              swap2\n                /* \"kash_vesting_flattened.sol\":29357:29373  address oldOwner */\n              swap1\n                /* \"kash_vesting_flattened.sol\":29424:29464  OwnershipTransferred(oldOwner, newOwner) */\n              log3\n                /* \"kash_vesting_flattened.sol\":29347:29471  {... */\n              pop\n                /* \"kash_vesting_flattened.sol\":29284:29471  function _transferOwnership(address newOwner) internal virtual {... */\n              pop\n              jump\t// out\n                /* \"kash_vesting_flattened.sol\":20704:21069  function sendValue(address payable recipient, uint256 amount) internal {... */\n            tag_120:\n                /* \"kash_vesting_flattened.sol\":20813:20819  amount */\n              dup1\n                /* \"kash_vesting_flattened.sol\":20789:20810  address(this).balance */\n              selfbalance\n                /* \"kash_vesting_flattened.sol\":20789:20819  address(this).balance < amount */\n              lt\n                /* \"kash_vesting_flattened.sol\":20785:20910  if (address(this).balance < amount) {... */\n              iszero\n              tag_172\n              jumpi\n                /* \"kash_vesting_flattened.sol\":20842:20899  Errors.InsufficientBalance(address(this).balance, amount) */\n              mload(0x40)\n              0xcf47918100000000000000000000000000000000000000000000000000000000\n              dup2\n              mstore\n                /* \"kash_vesting_flattened.sol\":20869:20890  address(this).balance */\n              selfbalance\n                /* \"kash_vesting_flattened.sol\":20842:20899  Errors.InsufficientBalance(address(this).balance, amount) */\n              0x04\n              dup3\n              add\n                /* \"#utility.yul\":3016:3041   */\n              mstore\n                /* \"#utility.yul\":3057:3075   */\n              0x24\n              dup2\n              add\n                /* \"#utility.yul\":3050:3084   */\n              dup3\n              swap1\n              mstore\n                /* \"#utility.yul\":2989:3007   */\n              0x44\n              add\n                /* \"kash_vesting_flattened.sol\":20842:20899  Errors.InsufficientBalance(address(this).balance, amount) */\n              tag_138\n                /* \"#utility.yul\":2842:3090   */\n              jump\n                /* \"kash_vesting_flattened.sol\":20785:20910  if (address(this).balance < amount) {... */\n            tag_172:\n                /* \"kash_vesting_flattened.sol\":20921:20933  bool success */\n              0x00\n                /* \"kash_vesting_flattened.sol\":20935:20958  bytes memory returndata */\n              dup1\n                /* \"kash_vesting_flattened.sol\":20962:20971  recipient */\n              dup4\n              sub(shl(0xa0, 0x01), 0x01)\n                /* \"kash_vesting_flattened.sol\":20962:20976  recipient.call */\n              and\n                /* \"kash_vesting_flattened.sol\":20984:20990  amount */\n              dup4\n                /* \"kash_vesting_flattened.sol\":20962:20995  recipient.call{value: amount}(\"\") */\n              mload(0x40)\n              0x00\n              mload(0x40)\n              dup1\n              dup4\n              sub\n              dup2\n              dup6\n              dup8\n              gas\n              call\n              swap3\n              pop\n              pop\n              pop\n              returndatasize\n              dup1\n              0x00\n              dup2\n              eq\n              tag_179\n              jumpi\n              mload(0x40)\n              swap2\n              pop\n              and(add(returndatasize, 0x3f), not(0x1f))\n              dup3\n              add\n              0x40\n              mstore\n              returndatasize\n              dup3\n              mstore\n              returndatasize\n              0x00\n              0x20\n              dup5\n              add\n              returndatacopy\n              jump(tag_178)\n            tag_179:\n              0x60\n              swap2\n              pop\n            tag_178:\n              pop\n                /* \"kash_vesting_flattened.sol\":20920:20995  (bool success, bytes memory returndata) = recipient.call{value: amount}(\"\") */\n              swap2\n              pop\n              swap2\n              pop\n                /* \"kash_vesting_flattened.sol\":21010:21017  success */\n              dup2\n                /* \"kash_vesting_flattened.sol\":21005:21063  if (!success) {... */\n              tag_181\n              jumpi\n                /* \"kash_vesting_flattened.sol\":21033:21052  _revert(returndata) */\n              tag_181\n                /* \"kash_vesting_flattened.sol\":21041:21051  returndata */\n              dup2\n                /* \"kash_vesting_flattened.sol\":21033:21040  _revert */\n              tag_182\n                /* \"kash_vesting_flattened.sol\":21033:21052  _revert(returndata) */\n              jump\t// in\n            tag_181:\n                /* \"kash_vesting_flattened.sol\":20775:21069  {... */\n              pop\n              pop\n                /* \"kash_vesting_flattened.sol\":20704:21069  function sendValue(address payable recipient, uint256 amount) internal {... */\n              pop\n              pop\n              jump\t// out\n                /* \"kash_vesting_flattened.sol\":16807:17527  function _callOptionalReturn(IERC20 token, bytes memory data) private {... */\n            tag_162:\n                /* \"kash_vesting_flattened.sol\":16887:16905  uint256 returnSize */\n              0x00\n                /* \"kash_vesting_flattened.sol\":16915:16934  uint256 returnValue */\n              dup1\n                /* \"kash_vesting_flattened.sol\":17053:17057  0x20 */\n              0x20\n                /* \"kash_vesting_flattened.sol\":17050:17051  0 */\n              0x00\n                /* \"kash_vesting_flattened.sol\":17043:17047  data */\n              dup5\n                /* \"kash_vesting_flattened.sol\":17037:17048  mload(data) */\n              mload\n                /* \"kash_vesting_flattened.sol\":17030:17034  0x20 */\n              0x20\n                /* \"kash_vesting_flattened.sol\":17024:17028  data */\n              dup7\n                /* \"kash_vesting_flattened.sol\":17020:17035  add(data, 0x20) */\n              add\n                /* \"kash_vesting_flattened.sol\":17017:17018  0 */\n              0x00\n                /* \"kash_vesting_flattened.sol\":17010:17015  token */\n              dup9\n                /* \"kash_vesting_flattened.sol\":17003:17008  gas() */\n              gas\n                /* \"kash_vesting_flattened.sol\":16998:17058  call(gas(), token, 0, add(data, 0x20), mload(data), 0, 0x20) */\n              call\n                /* \"kash_vesting_flattened.sol\":17110:17117  success */\n              dup1\n                /* \"kash_vesting_flattened.sol\":17100:17276  if iszero(success) {... */\n              tag_184\n              jumpi\n                /* \"kash_vesting_flattened.sol\":17154:17158  0x40 */\n              0x40\n                /* \"kash_vesting_flattened.sol\":17148:17159  mload(0x40) */\n              mload\n                /* \"kash_vesting_flattened.sol\":17199:17215  returndatasize() */\n              returndatasize\n                /* \"kash_vesting_flattened.sol\":17196:17197  0 */\n              0x00\n                /* \"kash_vesting_flattened.sol\":17191:17194  ptr */\n              dup3\n                /* \"kash_vesting_flattened.sol\":17176:17216  returndatacopy(ptr, 0, returndatasize()) */\n              returndatacopy\n                /* \"kash_vesting_flattened.sol\":17245:17261  returndatasize() */\n              returndatasize\n                /* \"kash_vesting_flattened.sol\":17240:17243  ptr */\n              dup2\n                /* \"kash_vesting_flattened.sol\":17233:17262  revert(ptr, returndatasize()) */\n              revert\n                /* \"kash_vesting_flattened.sol\":17100:17276  if iszero(success) {... */\n            tag_184:\n              pop\n              pop\n                /* \"kash_vesting_flattened.sol\":17353:17354  0 */\n              0x00\n                /* \"kash_vesting_flattened.sol\":17347:17355  mload(0) */\n              mload\n                /* \"kash_vesting_flattened.sol\":17303:17319  returndatasize() */\n              returndatasize\n              swap2\n              pop\n                /* \"kash_vesting_flattened.sol\":17379:17394  returnSize == 0 */\n              dup2\n              iszero\n                /* \"kash_vesting_flattened.sol\":17379:17447  returnSize == 0 ? address(token).code.length == 0 : returnValue != 1 */\n              tag_185\n              jumpi\n                /* \"kash_vesting_flattened.sol\":17431:17442  returnValue */\n              dup1\n                /* \"kash_vesting_flattened.sol\":17446:17447  1 */\n              0x01\n                /* \"kash_vesting_flattened.sol\":17431:17447  returnValue != 1 */\n              eq\n              iszero\n                /* \"kash_vesting_flattened.sol\":17379:17447  returnSize == 0 ? address(token).code.length == 0 : returnValue != 1 */\n              jump(tag_186)\n            tag_185:\n              sub(shl(0xa0, 0x01), 0x01)\n                /* \"kash_vesting_flattened.sol\":17397:17423  address(token).code.length */\n              dup5\n              and\n              extcodesize\n                /* \"kash_vesting_flattened.sol\":17397:17428  address(token).code.length == 0 */\n              iszero\n                /* \"kash_vesting_flattened.sol\":17379:17447  returnSize == 0 ? address(token).code.length == 0 : returnValue != 1 */\n            tag_186:\n                /* \"kash_vesting_flattened.sol\":17375:17521  if (returnSize == 0 ? address(token).code.length == 0 : returnValue != 1) {... */\n              iszero\n              tag_181\n              jumpi\n                /* \"kash_vesting_flattened.sol\":17470:17510  SafeERC20FailedOperation(address(token)) */\n              mload(0x40)\n              0x5274afe700000000000000000000000000000000000000000000000000000000\n              dup2\n              mstore\n              sub(shl(0xa0, 0x01), 0x01)\n                /* \"#utility.yul\":1380:1435   */\n              dup6\n              and\n                /* \"kash_vesting_flattened.sol\":17470:17510  SafeERC20FailedOperation(address(token)) */\n              0x04\n              dup3\n              add\n                /* \"#utility.yul\":1362:1436   */\n              mstore\n                /* \"#utility.yul\":1335:1353   */\n              0x24\n              add\n                /* \"kash_vesting_flattened.sol\":17470:17510  SafeERC20FailedOperation(address(token)) */\n              tag_138\n                /* \"#utility.yul\":1216:1442   */\n              jump\n                /* \"kash_vesting_flattened.sol\":24973:25407  function _revert(bytes memory returndata) private pure {... */\n            tag_182:\n                /* \"kash_vesting_flattened.sol\":25104:25121  returndata.length */\n              dup1\n              mload\n                /* \"kash_vesting_flattened.sol\":25104:25125  returndata.length > 0 */\n              iszero\n                /* \"kash_vesting_flattened.sol\":25100:25401  if (returndata.length > 0) {... */\n              tag_191\n              jumpi\n                /* \"kash_vesting_flattened.sol\":25308:25318  returndata */\n              dup1\n                /* \"kash_vesting_flattened.sol\":25302:25319  mload(returndata) */\n              mload\n                /* \"kash_vesting_flattened.sol\":25295:25299  0x20 */\n              0x20\n                /* \"kash_vesting_flattened.sol\":25283:25293  returndata */\n              dup3\n                /* \"kash_vesting_flattened.sol\":25279:25300  add(returndata, 0x20) */\n              add\n                /* \"kash_vesting_flattened.sol\":25272:25320  revert(add(returndata, 0x20), mload(returndata)) */\n              revert\n                /* \"kash_vesting_flattened.sol\":25100:25401  if (returndata.length > 0) {... */\n            tag_191:\n                /* \"kash_vesting_flattened.sol\":25371:25390  Errors.FailedCall() */\n              mload(0x40)\n              0xd6bda27500000000000000000000000000000000000000000000000000000000\n              dup2\n              mstore\n              0x04\n              add\n              mload(0x40)\n              dup1\n              swap2\n              sub\n              swap1\n              revert\n                /* \"#utility.yul\":14:185   */\n            tag_193:\n                /* \"#utility.yul\":81:101   */\n              dup1\n              calldataload\n                /* \"#utility.yul\":141:159   */\n              0xffffffffffffffff\n                /* \"#utility.yul\":130:160   */\n              dup2\n              and\n                /* \"#utility.yul\":120:161   */\n              dup2\n              eq\n                /* \"#utility.yul\":110:179   */\n              tag_198\n              jumpi\n                /* \"#utility.yul\":175:176   */\n              0x00\n                /* \"#utility.yul\":172:173   */\n              dup1\n                /* \"#utility.yul\":165:177   */\n              revert\n                /* \"#utility.yul\":110:179   */\n            tag_198:\n                /* \"#utility.yul\":14:185   */\n              swap2\n              swap1\n              pop\n              jump\t// out\n                /* \"#utility.yul\":190:374   */\n            tag_25:\n                /* \"#utility.yul\":248:254   */\n              0x00\n                /* \"#utility.yul\":301:303   */\n              0x20\n                /* \"#utility.yul\":289:298   */\n              dup3\n                /* \"#utility.yul\":280:287   */\n              dup5\n                /* \"#utility.yul\":276:299   */\n              sub\n                /* \"#utility.yul\":272:304   */\n              slt\n                /* \"#utility.yul\":269:321   */\n              iszero\n              tag_200\n              jumpi\n                /* \"#utility.yul\":317:318   */\n              0x00\n                /* \"#utility.yul\":314:315   */\n              dup1\n                /* \"#utility.yul\":307:319   */\n              revert\n                /* \"#utility.yul\":269:321   */\n            tag_200:\n                /* \"#utility.yul\":340:368   */\n              tag_106\n                /* \"#utility.yul\":358:367   */\n              dup3\n                /* \"#utility.yul\":340:368   */\n              tag_193\n              jump\t// in\n                /* \"#utility.yul\":561:757   */\n            tag_194:\n                /* \"#utility.yul\":629:649   */\n              dup1\n              calldataload\n              sub(shl(0xa0, 0x01), 0x01)\n                /* \"#utility.yul\":678:732   */\n              dup2\n              and\n                /* \"#utility.yul\":668:733   */\n              dup2\n              eq\n                /* \"#utility.yul\":658:751   */\n              tag_198\n              jumpi\n                /* \"#utility.yul\":747:748   */\n              0x00\n                /* \"#utility.yul\":744:745   */\n              dup1\n                /* \"#utility.yul\":737:749   */\n              revert\n                /* \"#utility.yul\":762:948   */\n            tag_36:\n                /* \"#utility.yul\":821:827   */\n              0x00\n                /* \"#utility.yul\":874:876   */\n              0x20\n                /* \"#utility.yul\":862:871   */\n              dup3\n                /* \"#utility.yul\":853:860   */\n              dup5\n                /* \"#utility.yul\":849:872   */\n              sub\n                /* \"#utility.yul\":845:877   */\n              slt\n                /* \"#utility.yul\":842:894   */\n              iszero\n              tag_206\n              jumpi\n                /* \"#utility.yul\":890:891   */\n              0x00\n                /* \"#utility.yul\":887:888   */\n              dup1\n                /* \"#utility.yul\":880:892   */\n              revert\n                /* \"#utility.yul\":842:894   */\n            tag_206:\n                /* \"#utility.yul\":913:942   */\n              tag_106\n                /* \"#utility.yul\":932:941   */\n              dup3\n                /* \"#utility.yul\":913:942   */\n              tag_194\n              jump\t// in\n                /* \"#utility.yul\":953:1211   */\n            tag_44:\n                /* \"#utility.yul\":1020:1026   */\n              0x00\n                /* \"#utility.yul\":1028:1034   */\n              dup1\n                /* \"#utility.yul\":1081:1083   */\n              0x40\n                /* \"#utility.yul\":1069:1078   */\n              dup4\n                /* \"#utility.yul\":1060:1067   */\n              dup6\n                /* \"#utility.yul\":1056:1079   */\n              sub\n                /* \"#utility.yul\":1052:1084   */\n              slt\n                /* \"#utility.yul\":1049:1101   */\n              iszero\n              tag_209\n              jumpi\n                /* \"#utility.yul\":1097:1098   */\n              0x00\n                /* \"#utility.yul\":1094:1095   */\n              dup1\n                /* \"#utility.yul\":1087:1099   */\n              revert\n                /* \"#utility.yul\":1049:1101   */\n            tag_209:\n                /* \"#utility.yul\":1120:1149   */\n              tag_210\n                /* \"#utility.yul\":1139:1148   */\n              dup4\n                /* \"#utility.yul\":1120:1149   */\n              tag_194\n              jump\t// in\n            tag_210:\n                /* \"#utility.yul\":1110:1149   */\n              swap2\n              pop\n                /* \"#utility.yul\":1168:1205   */\n              tag_211\n                /* \"#utility.yul\":1201:1203   */\n              0x20\n                /* \"#utility.yul\":1190:1199   */\n              dup5\n                /* \"#utility.yul\":1186:1204   */\n              add\n                /* \"#utility.yul\":1168:1205   */\n              tag_193\n              jump\t// in\n            tag_211:\n                /* \"#utility.yul\":1158:1205   */\n              swap1\n              pop\n                /* \"#utility.yul\":953:1211   */\n              swap3\n              pop\n              swap3\n              swap1\n              pop\n              jump\t// out\n                /* \"#utility.yul\":1447:1631   */\n            tag_195:\n              shl(0xe0, 0x4e487b71)\n                /* \"#utility.yul\":1496:1497   */\n              0x00\n                /* \"#utility.yul\":1489:1577   */\n              mstore\n                /* \"#utility.yul\":1596:1600   */\n              0x11\n                /* \"#utility.yul\":1593:1594   */\n              0x04\n                /* \"#utility.yul\":1586:1601   */\n              mstore\n                /* \"#utility.yul\":1620:1624   */\n              0x24\n                /* \"#utility.yul\":1617:1618   */\n              0x00\n                /* \"#utility.yul\":1610:1625   */\n              revert\n                /* \"#utility.yul\":1636:1761   */\n            tag_89:\n                /* \"#utility.yul\":1701:1710   */\n              dup1\n              dup3\n              add\n                /* \"#utility.yul\":1722:1732   */\n              dup1\n              dup3\n              gt\n                /* \"#utility.yul\":1719:1755   */\n              iszero\n              tag_86\n              jumpi\n                /* \"#utility.yul\":1735:1753   */\n              tag_86\n              tag_195\n              jump\t// in\n                /* \"#utility.yul\":1766:1950   */\n            tag_112:\n                /* \"#utility.yul\":1836:1842   */\n              0x00\n                /* \"#utility.yul\":1889:1891   */\n              0x20\n                /* \"#utility.yul\":1877:1886   */\n              dup3\n                /* \"#utility.yul\":1868:1875   */\n              dup5\n                /* \"#utility.yul\":1864:1887   */\n              sub\n                /* \"#utility.yul\":1860:1892   */\n              slt\n                /* \"#utility.yul\":1857:1909   */\n              iszero\n              tag_218\n              jumpi\n                /* \"#utility.yul\":1905:1906   */\n              0x00\n                /* \"#utility.yul\":1902:1903   */\n              dup1\n                /* \"#utility.yul\":1895:1907   */\n              revert\n                /* \"#utility.yul\":1857:1909   */\n            tag_218:\n              pop\n                /* \"#utility.yul\":1928:1944   */\n              mload\n              swap2\n                /* \"#utility.yul\":1766:1950   */\n              swap1\n              pop\n              jump\t// out\n                /* \"#utility.yul\":1955:2083   */\n            tag_128:\n                /* \"#utility.yul\":2022:2031   */\n              dup2\n              dup2\n              sub\n                /* \"#utility.yul\":2043:2054   */\n              dup2\n              dup2\n              gt\n                /* \"#utility.yul\":2040:2077   */\n              iszero\n              tag_86\n              jumpi\n                /* \"#utility.yul\":2057:2075   */\n              tag_86\n              tag_195\n              jump\t// in\n                /* \"#utility.yul\":2088:2256   */\n            tag_155:\n                /* \"#utility.yul\":2161:2170   */\n              dup1\n              dup3\n              mul\n                /* \"#utility.yul\":2192:2201   */\n              dup2\n              iszero\n                /* \"#utility.yul\":2209:2224   */\n              dup3\n              dup3\n              div\n                /* \"#utility.yul\":2203:2225   */\n              dup5\n              eq\n                /* \"#utility.yul\":2189:2226   */\n              or\n                /* \"#utility.yul\":2179:2250   */\n              tag_86\n              jumpi\n                /* \"#utility.yul\":2230:2248   */\n              tag_86\n              tag_195\n              jump\t// in\n                /* \"#utility.yul\":2261:2535   */\n            tag_157:\n                /* \"#utility.yul\":2301:2302   */\n              0x00\n                /* \"#utility.yul\":2327:2328   */\n              dup3\n                /* \"#utility.yul\":2317:2506   */\n              tag_226\n              jumpi\n              shl(0xe0, 0x4e487b71)\n                /* \"#utility.yul\":2359:2360   */\n              0x00\n                /* \"#utility.yul\":2352:2440   */\n              mstore\n                /* \"#utility.yul\":2463:2467   */\n              0x12\n                /* \"#utility.yul\":2460:2461   */\n              0x04\n                /* \"#utility.yul\":2453:2468   */\n              mstore\n                /* \"#utility.yul\":2491:2495   */\n              0x24\n                /* \"#utility.yul\":2488:2489   */\n              0x00\n                /* \"#utility.yul\":2481:2496   */\n              revert\n                /* \"#utility.yul\":2317:2506   */\n            tag_226:\n              pop\n                /* \"#utility.yul\":2520:2529   */\n              div\n              swap1\n                /* \"#utility.yul\":2261:2535   */\n              jump\t// out\n\n            auxdata: 0xa2646970667358221220561db4beb535505af2818aa55de5228633e73594feadf0e598493245691d201664736f6c63430008210033\n        }\n    }\n\n    auxdata: 0xa26469706673582212209554f6ca1838909c919969d20268c5cf1848709ab858d49843e775f5783fe56864736f6c63430008210033\n}\n",
				"bytecode": {
					"linkReferences": {},
					"object": "6080604052348015600f57600080fd5b503380603557604051631e4fbdf760e01b81526000600482015260240160405180910390fd5b603c816041565b506091565b600080546001600160a01b038381166001600160a01b0319831681178455604051919092169283917f8be0079c531659141344cd1fd0a4f28419497f9722a3daafe3b4186f6b6457e09190a35050565b611656806100a06000396000f3fe608060405234801561001057600080fd5b506004361061007d5760003560e01c8063715018a61161005b578063715018a6146100e35780638da5cb5b146100ed578063edb5f73e146100fe578063f2fde38b1461012057600080fd5b80630e2462731461008257806320f6b0a91461009857806336ac4aa8146100b8575b600080fd5b6001546040519081526020015b60405180910390f35b6100ab6100a6366004610606565b610133565b60405161008f9190610665565b6100cb6100c63660046106f8565b61023a565b6040516001600160a01b03909116815260200161008f565b6100eb61041a565b005b6000546001600160a01b03166100cb565b61011161010c366004610606565b61042e565b60405161008f939291906107e3565b6100eb61012e36600461081d565b6104fa565b60408051606080820183526000808352602083015291810191909152600182815481106101625761016261083f565b600091825260209182902060408051606081018252600390930290910180546001600160a01b03908116845260018201541693830193909352600283018054929392918401916101b190610855565b80601f01602080910402602001604051908101604052809291908181526020018280546101dd90610855565b801561022a5780601f106101ff5761010080835404028352916020019161022a565b820191906000526020600020905b81548152906001019060200180831161020d57829003601f168201915b5050505050815250509050919050565b6000610244610556565b6001600160a01b038516610284576040517fe6c4247b00000000000000000000000000000000000000000000000000000000815260040160405180910390fd5b6000858585604051610295906105f9565b6001600160a01b03909316835267ffffffffffffffff9182166020840152166040820152606001604051809103906000f0801580156102d8573d6000803e3d6000fd5b50604080516060810182526001600160a01b03808416825289811660208301908152928201878152600180548082018255600091909152835160039091027fb10e2d527612073b26eecdfd717e6a320cf44b4afac2b0732d9fcbe2b7fa0cf68101805492851673ffffffffffffffffffffffffffffffffffffffff1993841617815595517fb10e2d527612073b26eecdfd717e6a320cf44b4afac2b0732d9fcbe2b7fa0cf782018054919095169216919091179092555193945090927fb10e2d527612073b26eecdfd717e6a320cf44b4afac2b0732d9fcbe2b7fa0cf8909101906103c390826108eb565b505050856001600160a01b0316816001600160a01b03167f0ed38ef660e9abb113e06fb77981812e01a5691e845ee7aefa7ac2e94463648d8560405161040991906109ae565b60405180910390a395945050505050565b610422610556565b61042c600061059c565b565b6001818154811061043e57600080fd5b60009182526020909120600390910201805460018201546002830180546001600160a01b03938416955092909116929161047790610855565b80601f01602080910402602001604051908101604052809291908181526020018280546104a390610855565b80156104f05780601f106104c5576101008083540402835291602001916104f0565b820191906000526020600020905b8154815290600101906020018083116104d357829003601f168201915b5050505050905083565b610502610556565b6001600160a01b03811661054a576040517f1e4fbdf7000000000000000000000000000000000000000000000000000000008152600060048201526024015b60405180910390fd5b6105538161059c565b50565b6000546001600160a01b0316331461042c576040517f118cdaa7000000000000000000000000000000000000000000000000000000008152336004820152602401610541565b600080546001600160a01b0383811673ffffffffffffffffffffffffffffffffffffffff19831681178455604051919092169283917f8be0079c531659141344cd1fd0a4f28419497f9722a3daafe3b4186f6b6457e09190a35050565b610c5f806109c283390190565b60006020828403121561061857600080fd5b5035919050565b6000815180845260005b8181101561064557602081850181015186830182015201610629565b506000602082860101526020601f19601f83011685010191505092915050565b602081526001600160a01b0382511660208201526001600160a01b036020830151166040820152600060408301516060808401526106a6608084018261061f565b949350505050565b80356001600160a01b03811681146106c557600080fd5b919050565b803567ffffffffffffffff811681146106c557600080fd5b634e487b7160e01b600052604160045260246000fd5b6000806000806080858703121561070e57600080fd5b610717856106ae565b9350610725602086016106ca565b9250610733604086016106ca565b9150606085013567ffffffffffffffff81111561074f57600080fd5b8501601f8101871361076057600080fd5b803567ffffffffffffffff81111561077a5761077a6106e2565b604051601f8201601f19908116603f0116810167ffffffffffffffff811182821017156107a9576107a96106e2565b6040528181528282016020018910156107c157600080fd5b8160208401602083013760006020838301015280935050505092959194509250565b6001600160a01b03841681526001600160a01b0383166020820152606060408201526000610814606083018461061f565b95945050505050565b60006020828403121561082f57600080fd5b610838826106ae565b9392505050565b634e487b7160e01b600052603260045260246000fd5b600181811c9082168061086957607f821691505b60208210810361088957634e487b7160e01b600052602260045260246000fd5b50919050565b601f8211156108e657828211156108e657806000526020600020601f840160051c60208510156108bd575060005b90810190601f840160051c0360005b818110156108e2576000838201556001016108cc565b5050505b505050565b815167ffffffffffffffff811115610905576109056106e2565b610919816109138454610855565b8461088f565b6020601f82116001811461094d57600083156109355750848201515b600019600385901b1c1916600184901b1784556109a7565b600084815260208120601f198516915b8281101561097d578785015182556020948501946001909201910161095d565b508482101561099b5786840151600019600387901b60f8161c191681555b505060018360011b0184555b5050505050565b602081526000610838602083018461061f56fe60c060405234801561001057600080fd5b50604051610c5f380380610c5f83398101604081905261002f916100f3565b828282826001600160a01b03811661006157604051631e4fbdf760e01b81526000600482015260240160405180910390fd5b61006a81610087565b506001600160401b039182166080521660a0525061014492505050565b600080546001600160a01b038381166001600160a01b0319831681178455604051919092169283917f8be0079c531659141344cd1fd0a4f28419497f9722a3daafe3b4186f6b6457e09190a35050565b80516001600160401b03811681146100ee57600080fd5b919050565b60008060006060848603121561010857600080fd5b83516001600160a01b038116811461011f57600080fd5b925061012d602085016100d7565b915061013b604085016100d7565b90509250925092565b60805160a051610ad361018c6000396000818161012f01528181610516015261064201526000818161026b0152818161053a015281816105df015261066d0152610ad36000f3fe6080604052600436106100e15760003560e01c8063961325211161007f578063be9a655511610059578063be9a65551461025c578063efbe1c1c14610299578063f2fde38b146102ae578063fbccedae146102ce57600080fd5b806396132521146101f15780639852595c14610206578063a3f8eace1461023c57600080fd5b8063715018a6116100bb578063715018a61461017f578063810ec23b1461019457806386d1a69f146101b45780638da5cb5b146101c957600080fd5b80630a17b06b146100ed5780630fb5a6b414610120578063191655871461015d57600080fd5b366100e857005b600080fd5b3480156100f957600080fd5b5061010d61010836600461098f565b6102e3565b6040519081526020015b60405180910390f35b34801561012c57600080fd5b507f000000000000000000000000000000000000000000000000000000000000000067ffffffffffffffff1661010d565b34801561016957600080fd5b5061017d6101783660046109c1565b610307565b005b34801561018b57600080fd5b5061017d6103a2565b3480156101a057600080fd5b5061010d6101af3660046109dc565b6103b6565b3480156101c057600080fd5b5061017d610465565b3480156101d557600080fd5b506000546040516001600160a01b039091168152602001610117565b3480156101fd57600080fd5b5060015461010d565b34801561021257600080fd5b5061010d6102213660046109c1565b6001600160a01b031660009081526002602052604090205490565b34801561024857600080fd5b5061010d6102573660046109c1565b6104d9565b34801561026857600080fd5b507f000000000000000000000000000000000000000000000000000000000000000067ffffffffffffffff1661010d565b3480156102a557600080fd5b5061010d610506565b3480156102ba57600080fd5b5061017d6102c93660046109c1565b610564565b3480156102da57600080fd5b5061010d6105bd565b60006103016102f160015490565b6102fb9047610a25565b836105db565b92915050565b6000610312826104d9565b6001600160a01b03831660009081526002602052604081208054929350839290919061033f908490610a25565b90915550506040518181526001600160a01b038316907fc0e523490dd523c33b1878c9eb14ff46991e3f5b2cd33710918618f2a39cba1b9060200160405180910390a261039e826103986000546001600160a01b031690565b836106c5565b5050565b6103aa61074a565b6103b46000610790565b565b6001600160a01b03821660009081526002602052604081205461045e906040517f70a082310000000000000000000000000000000000000000000000000000000081523060048201526001600160a01b038616906370a0823190602401602060405180830381865afa158015610430573d6000803e3d6000fd5b505050506040513d601f19601f820116820180604052508101906104549190610a38565b6102fb9190610a25565b9392505050565b600061046f6105bd565b905080600160008282546104839190610a25565b90915550506040518181527fda9d4e5f101b8b9b1c5b76d0c5a9f7923571acfc02376aa076b75a8c080c956b9060200160405180910390a16104d66104d06000546001600160a01b031690565b826107f8565b50565b6001600160a01b0381166000908152600260205260408120546104fc83426103b6565b6103019190610a51565b600061055f67ffffffffffffffff7f00000000000000000000000000000000000000000000000000000000000000008116907f000000000000000000000000000000000000000000000000000000000000000016610a25565b905090565b61056c61074a565b6001600160a01b0381166105b4576040517f1e4fbdf7000000000000000000000000000000000000000000000000000000008152600060048201526024015b60405180910390fd5b6104d681610790565b60006105c860015490565b6105d1426102e3565b61055f9190610a51565b60007f000000000000000000000000000000000000000000000000000000000000000067ffffffffffffffff168267ffffffffffffffff16101561062157506000610301565b610629610506565b8267ffffffffffffffff1610610640575081610301565b7f000000000000000000000000000000000000000000000000000000000000000067ffffffffffffffff167f000000000000000000000000000000000000000000000000000000000000000067ffffffffffffffff166106aa9067ffffffffffffffff8516610a51565b6106b49085610a64565b6106be9190610a7b565b9050610301565b604080516001600160a01b038416602482015260448082018490528251808303909101815260649091019091526020810180517bffffffffffffffffffffffffffffffffffffffffffffffffffffffff167fa9059cbb000000000000000000000000000000000000000000000000000000001790526107459084906108a7565b505050565b6000546001600160a01b031633146103b4576040517f118cdaa70000000000000000000000000000000000000000000000000000000081523360048201526024016105ab565b600080546001600160a01b038381167fffffffffffffffffffffffff0000000000000000000000000000000000000000831681178455604051919092169283917f8be0079c531659141344cd1fd0a4f28419497f9722a3daafe3b4186f6b6457e09190a35050565b8047101561083b576040517fcf479181000000000000000000000000000000000000000000000000000000008152476004820152602481018290526044016105ab565b600080836001600160a01b03168360405160006040518083038185875af1925050503d8060008114610889576040519150601f19603f3d011682016040523d82523d6000602084013e61088e565b606091505b5091509150816108a1576108a181610931565b50505050565b600080602060008451602086016000885af1806108ca576040513d6000823e3d81fd5b50506000513d915081156108e25780600114156108ef565b6001600160a01b0384163b155b156108a1576040517f5274afe70000000000000000000000000000000000000000000000000000000081526001600160a01b03851660048201526024016105ab565b80511561094057805160208201fd5b6040517fd6bda27500000000000000000000000000000000000000000000000000000000815260040160405180910390fd5b803567ffffffffffffffff8116811461098a57600080fd5b919050565b6000602082840312156109a157600080fd5b61045e82610972565b80356001600160a01b038116811461098a57600080fd5b6000602082840312156109d357600080fd5b61045e826109aa565b600080604083850312156109ef57600080fd5b6109f8836109aa565b9150610a0660208401610972565b90509250929050565b634e487b7160e01b600052601160045260246000fd5b8082018082111561030157610301610a0f565b600060208284031215610a4a57600080fd5b5051919050565b8181038181111561030157610301610a0f565b808202811582820484141761030157610301610a0f565b600082610a9857634e487b7160e01b600052601260045260246000fd5b50049056fea2646970667358221220561db4beb535505af2818aa55de5228633e73594feadf0e598493245691d201664736f6c63430008210033a26469706673582212209554f6ca1838909c919969d20268c5cf1848709ab858d49843e775f5783fe56864736f6c63430008210033",
					"opcodes": "PUSH1 0x80 PUSH1 0x40 MSTORE CALLVALUE DUP1 ISZERO PUSH1 0xF JUMPI PUSH1 0x0 DUP1 REVERT JUMPDEST POP CALLER DUP1 PUSH1 0x35 JUMPI PUSH1 0x40 MLOAD PUSH4 0x1E4FBDF7 PUSH1 0xE0 SHL DUP2 MSTORE PUSH1 0x0 PUSH1 0x4 DUP3 ADD MSTORE PUSH1 0x24 ADD PUSH1 0x40 MLOAD DUP1 SWAP2 SUB SWAP1 REVERT JUMPDEST PUSH1 0x3C DUP2 PUSH1 0x41 JUMP JUMPDEST POP PUSH1 0x91 JUMP JUMPDEST PUSH1 0x0 DUP1 SLOAD PUSH1 0x1 PUSH1 0x1 PUSH1 0xA0 SHL SUB DUP4 DUP2 AND PUSH1 0x1 PUSH1 0x1 PUSH1 0xA0 SHL SUB NOT DUP4 AND DUP2 OR DUP5 SSTORE PUSH1 0x40 MLOAD SWAP2 SWAP1 SWAP3 AND SWAP3 DUP4 SWAP2 PUSH32 0x8BE0079C531659141344CD1FD0A4F28419497F9722A3DAAFE3B4186F6B6457E0 SWAP2 SWAP1 LOG3 POP POP JUMP JUMPDEST PUSH2 0x1656 DUP1 PUSH2 0xA0 PUSH1 0x0 CODECOPY PUSH1 0x0 RETURN INVALID PUSH1 0x80 PUSH1 0x40 MSTORE CALLVALUE DUP1 ISZERO PUSH2 0x10 JUMPI PUSH1 0x0 DUP1 REVERT JUMPDEST POP PUSH1 0x4 CALLDATASIZE LT PUSH2 0x7D JUMPI PUSH1 0x0 CALLDATALOAD PUSH1 0xE0 SHR DUP1 PUSH4 0x715018A6 GT PUSH2 0x5B JUMPI DUP1 PUSH4 0x715018A6 EQ PUSH2 0xE3 JUMPI DUP1 PUSH4 0x8DA5CB5B EQ PUSH2 0xED JUMPI DUP1 PUSH4 0xEDB5F73E EQ PUSH2 0xFE JUMPI DUP1 PUSH4 0xF2FDE38B EQ PUSH2 0x120 JUMPI PUSH1 0x0 DUP1 REVERT JUMPDEST DUP1 PUSH4 0xE246273 EQ PUSH2 0x82 JUMPI DUP1 PUSH4 0x20F6B0A9 EQ PUSH2 0x98 JUMPI DUP1 PUSH4 0x36AC4AA8 EQ PUSH2 0xB8 JUMPI JUMPDEST PUSH1 0x0 DUP1 REVERT JUMPDEST PUSH1 0x1 SLOAD PUSH1 0x40 MLOAD SWAP1 DUP2 MSTORE PUSH1 0x20 ADD JUMPDEST PUSH1 0x40 MLOAD DUP1 SWAP2 SUB SWAP1 RETURN JUMPDEST PUSH2 0xAB PUSH2 0xA6 CALLDATASIZE PUSH1 0x4 PUSH2 0x606 JUMP JUMPDEST PUSH2 0x133 JUMP JUMPDEST PUSH1 0x40 MLOAD PUSH2 0x8F SWAP2 SWAP1 PUSH2 0x665 JUMP JUMPDEST PUSH2 0xCB PUSH2 0xC6 CALLDATASIZE PUSH1 0x4 PUSH2 0x6F8 JUMP JUMPDEST PUSH2 0x23A JUMP JUMPDEST PUSH1 0x40 MLOAD PUSH1 0x1 PUSH1 0x1 PUSH1 0xA0 SHL SUB SWAP1 SWAP2 AND DUP2 MSTORE PUSH1 0x20 ADD PUSH2 0x8F JUMP JUMPDEST PUSH2 0xEB PUSH2 0x41A JUMP JUMPDEST STOP JUMPDEST PUSH1 0x0 SLOAD PUSH1 0x1 PUSH1 0x1 PUSH1 0xA0 SHL SUB AND PUSH2 0xCB JUMP JUMPDEST PUSH2 0x111 PUSH2 0x10C CALLDATASIZE PUSH1 0x4 PUSH2 0x606 JUMP JUMPDEST PUSH2 0x42E JUMP JUMPDEST PUSH1 0x40 MLOAD PUSH2 0x8F SWAP4 SWAP3 SWAP2 SWAP1 PUSH2 0x7E3 JUMP JUMPDEST PUSH2 0xEB PUSH2 0x12E CALLDATASIZE PUSH1 0x4 PUSH2 0x81D JUMP JUMPDEST PUSH2 0x4FA JUMP JUMPDEST PUSH1 0x40 DUP1 MLOAD PUSH1 0x60 DUP1 DUP3 ADD DUP4 MSTORE PUSH1 0x0 DUP1 DUP4 MSTORE PUSH1 0x20 DUP4 ADD MSTORE SWAP2 DUP2 ADD SWAP2 SWAP1 SWAP2 MSTORE PUSH1 0x1 DUP3 DUP2 SLOAD DUP2 LT PUSH2 0x162 JUMPI PUSH2 0x162 PUSH2 0x83F JUMP JUMPDEST PUSH1 0x0 SWAP2 DUP3 MSTORE PUSH1 0x20 SWAP2 DUP3 SWAP1 KECCAK256 PUSH1 0x40 DUP1 MLOAD PUSH1 0x60 DUP2 ADD DUP3 MSTORE PUSH1 0x3 SWAP1 SWAP4 MUL SWAP1 SWAP2 ADD DUP1 SLOAD PUSH1 0x1 PUSH1 0x1 PUSH1 0xA0 SHL SUB SWAP1 DUP2 AND DUP5 MSTORE PUSH1 0x1 DUP3 ADD SLOAD AND SWAP4 DUP4 ADD SWAP4 SWAP1 SWAP4 MSTORE PUSH1 0x2 DUP4 ADD DUP1 SLOAD SWAP3 SWAP4 SWAP3 SWAP2 DUP5 ADD SWAP2 PUSH2 0x1B1 SWAP1 PUSH2 0x855 JUMP JUMPDEST DUP1 PUSH1 0x1F ADD PUSH1 0x20 DUP1 SWAP2 DIV MUL PUSH1 0x20 ADD PUSH1 0x40 MLOAD SWAP1 DUP2 ADD PUSH1 0x40 MSTORE DUP1 SWAP3 SWAP2 SWAP1 DUP2 DUP2 MSTORE PUSH1 0x20 ADD DUP3 DUP1 SLOAD PUSH2 0x1DD SWAP1 PUSH2 0x855 JUMP JUMPDEST DUP1 ISZERO PUSH2 0x22A JUMPI DUP1 PUSH1 0x1F LT PUSH2 0x1FF JUMPI PUSH2 0x100 DUP1 DUP4 SLOAD DIV MUL DUP4 MSTORE SWAP2 PUSH1 0x20 ADD SWAP2 PUSH2 0x22A JUMP JUMPDEST DUP3 ADD SWAP2 SWAP1 PUSH1 0x0 MSTORE PUSH1 0x20 PUSH1 0x0 KECCAK256 SWAP1 JUMPDEST DUP2 SLOAD DUP2 MSTORE SWAP1 PUSH1 0x1 ADD SWAP1 PUSH1 0x20 ADD DUP1 DUP4 GT PUSH2 0x20D JUMPI DUP3 SWAP1 SUB PUSH1 0x1F AND DUP3 ADD SWAP2 JUMPDEST POP POP POP POP POP DUP2 MSTORE POP POP SWAP1 POP SWAP2 SWAP1 POP JUMP JUMPDEST PUSH1 0x0 PUSH2 0x244 PUSH2 0x556 JUMP JUMPDEST PUSH1 0x1 PUSH1 0x1 PUSH1 0xA0 SHL SUB DUP6 AND PUSH2 0x284 JUMPI PUSH1 0x40 MLOAD PUSH32 0xE6C4247B00000000000000000000000000000000000000000000000000000000 DUP2 MSTORE PUSH1 0x4 ADD PUSH1 0x40 MLOAD DUP1 SWAP2 SUB SWAP1 REVERT JUMPDEST PUSH1 0x0 DUP6 DUP6 DUP6 PUSH1 0x40 MLOAD PUSH2 0x295 SWAP1 PUSH2 0x5F9 JUMP JUMPDEST PUSH1 0x1 PUSH1 0x1 PUSH1 0xA0 SHL SUB SWAP1 SWAP4 AND DUP4 MSTORE PUSH8 0xFFFFFFFFFFFFFFFF SWAP2 DUP3 AND PUSH1 0x20 DUP5 ADD MSTORE AND PUSH1 0x40 DUP3 ADD MSTORE PUSH1 0x60 ADD PUSH1 0x40 MLOAD DUP1 SWAP2 SUB SWAP1 PUSH1 0x0 CREATE DUP1 ISZERO DUP1 ISZERO PUSH2 0x2D8 JUMPI RETURNDATASIZE PUSH1 0x0 DUP1 RETURNDATACOPY RETURNDATASIZE PUSH1 0x0 REVERT JUMPDEST POP PUSH1 0x40 DUP1 MLOAD PUSH1 0x60 DUP2 ADD DUP3 MSTORE PUSH1 0x1 PUSH1 0x1 PUSH1 0xA0 SHL SUB DUP1 DUP5 AND DUP3 MSTORE DUP10 DUP2 AND PUSH1 0x20 DUP4 ADD SWAP1 DUP2 MSTORE SWAP3 DUP3 ADD DUP8 DUP2 MSTORE PUSH1 0x1 DUP1 SLOAD DUP1 DUP3 ADD DUP3 SSTORE PUSH1 0x0 SWAP2 SWAP1 SWAP2 MSTORE DUP4 MLOAD PUSH1 0x3 SWAP1 SWAP2 MUL PUSH32 0xB10E2D527612073B26EECDFD717E6A320CF44B4AFAC2B0732D9FCBE2B7FA0CF6 DUP2 ADD DUP1 SLOAD SWAP3 DUP6 AND PUSH20 0xFFFFFFFFFFFFFFFFFFFFFFFFFFFFFFFFFFFFFFFF NOT SWAP4 DUP5 AND OR DUP2 SSTORE SWAP6 MLOAD PUSH32 0xB10E2D527612073B26EECDFD717E6A320CF44B4AFAC2B0732D9FCBE2B7FA0CF7 DUP3 ADD DUP1 SLOAD SWAP2 SWAP1 SWAP6 AND SWAP3 AND SWAP2 SWAP1 SWAP2 OR SWAP1 SWAP3 SSTORE MLOAD SWAP4 SWAP5 POP SWAP1 SWAP3 PUSH32 0xB10E2D527612073B26EECDFD717E6A320CF44B4AFAC2B0732D9FCBE2B7FA0CF8 SWAP1 SWAP2 ADD SWAP1 PUSH2 0x3C3 SWAP1 DUP3 PUSH2 0x8EB JUMP JUMPDEST POP POP POP DUP6 PUSH1 0x1 PUSH1 0x1 PUSH1 0xA0 SHL SUB AND DUP2 PUSH1 0x1 PUSH1 0x1 PUSH1 0xA0 SHL SUB AND PUSH32 0xED38EF660E9ABB113E06FB77981812E01A5691E845EE7AEFA7AC2E94463648D DUP6 PUSH1 0x40 MLOAD PUSH2 0x409 SWAP2 SWAP1 PUSH2 0x9AE JUMP JUMPDEST PUSH1 0x40 MLOAD DUP1 SWAP2 SUB SWAP1 LOG3 SWAP6 SWAP5 POP POP POP POP POP JUMP JUMPDEST PUSH2 0x422 PUSH2 0x556 JUMP JUMPDEST PUSH2 0x42C PUSH1 0x0 PUSH2 0x59C JUMP JUMPDEST JUMP JUMPDEST PUSH1 0x1 DUP2 DUP2 SLOAD DUP2 LT PUSH2 0x43E JUMPI PUSH1 0x0 DUP1 REVERT JUMPDEST PUSH1 0x0 SWAP2 DUP3 MSTORE PUSH1 0x20 SWAP1 SWAP2 KECCAK256 PUSH1 0x3 SWAP1 SWAP2 MUL ADD DUP1 SLOAD PUSH1 0x1 DUP3 ADD SLOAD PUSH1 0x2 DUP4 ADD DUP1 SLOAD PUSH1 0x1 PUSH1 0x1 PUSH1 0xA0 SHL SUB SWAP4 DUP5 AND SWAP6 POP SWAP3 SWAP1 SWAP2 AND SWAP3 SWAP2 PUSH2 0x477 SWAP1 PUSH2 0x855 JUMP JUMPDEST DUP1 PUSH1 0x1F ADD PUSH1 0x20 DUP1 SWAP2 DIV MUL PUSH1 0x20 ADD PUSH1 0x40 MLOAD SWAP1 DUP2 ADD PUSH1 0x40 MSTORE DUP1 SWAP3 SWAP2 SWAP1 DUP2 DUP2 MSTORE PUSH1 0x20 ADD DUP3 DUP1 SLOAD PUSH2 0x4A3 SWAP1 PUSH2 0x855 JUMP JUMPDEST DUP1 ISZERO PUSH2 0x4F0 JUMPI DUP1 PUSH1 0x1F LT PUSH2 0x4C5 JUMPI PUSH2 0x100 DUP1 DUP4 SLOAD DIV MUL DUP4 MSTORE SWAP2 PUSH1 0x20 ADD SWAP2 PUSH2 0x4F0 JUMP JUMPDEST DUP3 ADD SWAP2 SWAP1 PUSH1 0x0 MSTORE PUSH1 0x20 PUSH1 0x0 KECCAK256 SWAP1 JUMPDEST DUP2 SLOAD DUP2 MSTORE SWAP1 PUSH1 0x1 ADD SWAP1 PUSH1 0x20 ADD DUP1 DUP4 GT PUSH2 0x4D3 JUMPI DUP3 SWAP1 SUB PUSH1 0x1F AND DUP3 ADD SWAP2 JUMPDEST POP POP POP POP POP SWAP1 POP DUP4 JUMP JUMPDEST PUSH2 0x502 PUSH2 0x556 JUMP JUMPDEST PUSH1 0x1 PUSH1 0x1 PUSH1 0xA0 SHL SUB DUP2 AND PUSH2 0x54A JUMPI PUSH1 0x40 MLOAD PUSH32 0x1E4FBDF700000000000000000000000000000000000000000000000000000000 DUP2 MSTORE PUSH1 0x0 PUSH1 0x4 DUP3 ADD MSTORE PUSH1 0x24 ADD JUMPDEST PUSH1 0x40 MLOAD DUP1 SWAP2 SUB SWAP1 REVERT JUMPDEST PUSH2 0x553 DUP2 PUSH2 0x59C JUMP JUMPDEST POP JUMP JUMPDEST PUSH1 0x0 SLOAD PUSH1 0x1 PUSH1 0x1 PUSH1 0xA0 SHL SUB AND CALLER EQ PUSH2 0x42C JUMPI PUSH1 0x40 MLOAD PUSH32 0x118CDAA700000000000000000000000000000000000000000000000000000000 DUP2 MSTORE CALLER PUSH1 0x4 DUP3 ADD MSTORE PUSH1 0x24 ADD PUSH2 0x541 JUMP JUMPDEST PUSH1 0x0 DUP1 SLOAD PUSH1 0x1 PUSH1 0x1 PUSH1 0xA0 SHL SUB DUP4 DUP2 AND PUSH20 0xFFFFFFFFFFFFFFFFFFFFFFFFFFFFFFFFFFFFFFFF NOT DUP4 AND DUP2 OR DUP5 SSTORE PUSH1 0x40 MLOAD SWAP2 SWAP1 SWAP3 AND SWAP3 DUP4 SWAP2 PUSH32 0x8BE0079C531659141344CD1FD0A4F28419497F9722A3DAAFE3B4186F6B6457E0 SWAP2 SWAP1 LOG3 POP POP JUMP JUMPDEST PUSH2 0xC5F DUP1 PUSH2 0x9C2 DUP4 CODECOPY ADD SWAP1 JUMP JUMPDEST PUSH1 0x0 PUSH1 0x20 DUP3 DUP5 SUB SLT ISZERO PUSH2 0x618 JUMPI PUSH1 0x0 DUP1 REVERT JUMPDEST POP CALLDATALOAD SWAP2 SWAP1 POP JUMP JUMPDEST PUSH1 0x0 DUP2 MLOAD DUP1 DUP5 MSTORE PUSH1 0x0 JUMPDEST DUP2 DUP2 LT ISZERO PUSH2 0x645 JUMPI PUSH1 0x20 DUP2 DUP6 ADD DUP2 ADD MLOAD DUP7 DUP4 ADD DUP3 ADD MSTORE ADD PUSH2 0x629 JUMP JUMPDEST POP PUSH1 0x0 PUSH1 0x20 DUP3 DUP7 ADD ADD MSTORE PUSH1 0x20 PUSH1 0x1F NOT PUSH1 0x1F DUP4 ADD AND DUP6 ADD ADD SWAP2 POP POP SWAP3 SWAP2 POP POP JUMP JUMPDEST PUSH1 0x20 DUP2 MSTORE PUSH1 0x1 PUSH1 0x1 PUSH1 0xA0 SHL SUB DUP3 MLOAD AND PUSH1 0x20 DUP3 ADD MSTORE PUSH1 0x1 PUSH1 0x1 PUSH1 0xA0 SHL SUB PUSH1 0x20 DUP4 ADD MLOAD AND PUSH1 0x40 DUP3 ADD MSTORE PUSH1 0x0 PUSH1 0x40 DUP4 ADD MLOAD PUSH1 0x60 DUP1 DUP5 ADD MSTORE PUSH2 0x6A6 PUSH1 0x80 DUP5 ADD DUP3 PUSH2 0x61F JUMP JUMPDEST SWAP5 SWAP4 POP POP POP POP JUMP JUMPDEST DUP1 CALLDATALOAD PUSH1 0x1 PUSH1 0x1 PUSH1 0xA0 SHL SUB DUP2 AND DUP2 EQ PUSH2 0x6C5 JUMPI PUSH1 0x0 DUP1 REVERT JUMPDEST SWAP2 SWAP1 POP JUMP JUMPDEST DUP1 CALLDATALOAD PUSH8 0xFFFFFFFFFFFFFFFF DUP2 AND DUP2 EQ PUSH2 0x6C5 JUMPI PUSH1 0x0 DUP1 REVERT JUMPDEST PUSH4 0x4E487B71 PUSH1 0xE0 SHL PUSH1 0x0 MSTORE PUSH1 0x41 PUSH1 0x4 MSTORE PUSH1 0x24 PUSH1 0x0 REVERT JUMPDEST PUSH1 0x0 DUP1 PUSH1 0x0 DUP1 PUSH1 0x80 DUP6 DUP8 SUB SLT ISZERO PUSH2 0x70E JUMPI PUSH1 0x0 DUP1 REVERT JUMPDEST PUSH2 0x717 DUP6 PUSH2 0x6AE JUMP JUMPDEST SWAP4 POP PUSH2 0x725 PUSH1 0x20 DUP7 ADD PUSH2 0x6CA JUMP JUMPDEST SWAP3 POP PUSH2 0x733 PUSH1 0x40 DUP7 ADD PUSH2 0x6CA JUMP JUMPDEST SWAP2 POP PUSH1 0x60 DUP6 ADD CALLDATALOAD PUSH8 0xFFFFFFFFFFFFFFFF DUP2 GT ISZERO PUSH2 0x74F JUMPI PUSH1 0x0 DUP1 REVERT JUMPDEST DUP6 ADD PUSH1 0x1F DUP2 ADD DUP8 SGT PUSH2 0x760 JUMPI PUSH1 0x0 DUP1 REVERT JUMPDEST DUP1 CALLDATALOAD PUSH8 0xFFFFFFFFFFFFFFFF DUP2 GT ISZERO PUSH2 0x77A JUMPI PUSH2 0x77A PUSH2 0x6E2 JUMP JUMPDEST PUSH1 0x40 MLOAD PUSH1 0x1F DUP3 ADD PUSH1 0x1F NOT SWAP1 DUP2 AND PUSH1 0x3F ADD AND DUP2 ADD PUSH8 0xFFFFFFFFFFFFFFFF DUP2 GT DUP3 DUP3 LT OR ISZERO PUSH2 0x7A9 JUMPI PUSH2 0x7A9 PUSH2 0x6E2 JUMP JUMPDEST PUSH1 0x40 MSTORE DUP2 DUP2 MSTORE DUP3 DUP3 ADD PUSH1 0x20 ADD DUP10 LT ISZERO PUSH2 0x7C1 JUMPI PUSH1 0x0 DUP1 REVERT JUMPDEST DUP2 PUSH1 0x20 DUP5 ADD PUSH1 0x20 DUP4 ADD CALLDATACOPY PUSH1 0x0 PUSH1 0x20 DUP4 DUP4 ADD ADD MSTORE DUP1 SWAP4 POP POP POP POP SWAP3 SWAP6 SWAP2 SWAP5 POP SWAP3 POP JUMP JUMPDEST PUSH1 0x1 PUSH1 0x1 PUSH1 0xA0 SHL SUB DUP5 AND DUP2 MSTORE PUSH1 0x1 PUSH1 0x1 PUSH1 0xA0 SHL SUB DUP4 AND PUSH1 0x20 DUP3 ADD MSTORE PUSH1 0x60 PUSH1 0x40 DUP3 ADD MSTORE PUSH1 0x0 PUSH2 0x814 PUSH1 0x60 DUP4 ADD DUP5 PUSH2 0x61F JUMP JUMPDEST SWAP6 SWAP5 POP POP POP POP POP JUMP JUMPDEST PUSH1 0x0 PUSH1 0x20 DUP3 DUP5 SUB SLT ISZERO PUSH2 0x82F JUMPI PUSH1 0x0 DUP1 REVERT JUMPDEST PUSH2 0x838 DUP3 PUSH2 0x6AE JUMP JUMPDEST SWAP4 SWAP3 POP POP POP JUMP JUMPDEST PUSH4 0x4E487B71 PUSH1 0xE0 SHL PUSH1 0x0 MSTORE PUSH1 0x32 PUSH1 0x4 MSTORE PUSH1 0x24 PUSH1 0x0 REVERT JUMPDEST PUSH1 0x1 DUP2 DUP2 SHR SWAP1 DUP3 AND DUP1 PUSH2 0x869 JUMPI PUSH1 0x7F DUP3 AND SWAP2 POP JUMPDEST PUSH1 0x20 DUP3 LT DUP2 SUB PUSH2 0x889 JUMPI PUSH4 0x4E487B71 PUSH1 0xE0 SHL PUSH1 0x0 MSTORE PUSH1 0x22 PUSH1 0x4 MSTORE PUSH1 0x24 PUSH1 0x0 REVERT JUMPDEST POP SWAP2 SWAP1 POP JUMP JUMPDEST PUSH1 0x1F DUP3 GT ISZERO PUSH2 0x8E6 JUMPI DUP3 DUP3 GT ISZERO PUSH2 0x8E6 JUMPI DUP1 PUSH1 0x0 MSTORE PUSH1 0x20 PUSH1 0x0 KECCAK256 PUSH1 0x1F DUP5 ADD PUSH1 0x5 SHR PUSH1 0x20 DUP6 LT ISZERO PUSH2 0x8BD JUMPI POP PUSH1 0x0 JUMPDEST SWAP1 DUP2 ADD SWAP1 PUSH1 0x1F DUP5 ADD PUSH1 0x5 SHR SUB PUSH1 0x0 JUMPDEST DUP2 DUP2 LT ISZERO PUSH2 0x8E2 JUMPI PUSH1 0x0 DUP4 DUP3 ADD SSTORE PUSH1 0x1 ADD PUSH2 0x8CC JUMP JUMPDEST POP POP POP JUMPDEST POP POP POP JUMP JUMPDEST DUP2 MLOAD PUSH8 0xFFFFFFFFFFFFFFFF DUP2 GT ISZERO PUSH2 0x905 JUMPI PUSH2 0x905 PUSH2 0x6E2 JUMP JUMPDEST PUSH2 0x919 DUP2 PUSH2 0x913 DUP5 SLOAD PUSH2 0x855 JUMP JUMPDEST DUP5 PUSH2 0x88F JUMP JUMPDEST PUSH1 0x20 PUSH1 0x1F DUP3 GT PUSH1 0x1 DUP2 EQ PUSH2 0x94D JUMPI PUSH1 0x0 DUP4 ISZERO PUSH2 0x935 JUMPI POP DUP5 DUP3 ADD MLOAD JUMPDEST PUSH1 0x0 NOT PUSH1 0x3 DUP6 SWAP1 SHL SHR NOT AND PUSH1 0x1 DUP5 SWAP1 SHL OR DUP5 SSTORE PUSH2 0x9A7 JUMP JUMPDEST PUSH1 0x0 DUP5 DUP2 MSTORE PUSH1 0x20 DUP2 KECCAK256 PUSH1 0x1F NOT DUP6 AND SWAP2 JUMPDEST DUP3 DUP2 LT ISZERO PUSH2 0x97D JUMPI DUP8 DUP6 ADD MLOAD DUP3 SSTORE PUSH1 0x20 SWAP5 DUP6 ADD SWAP5 PUSH1 0x1 SWAP1 SWAP3 ADD SWAP2 ADD PUSH2 0x95D JUMP JUMPDEST POP DUP5 DUP3 LT ISZERO PUSH2 0x99B JUMPI DUP7 DUP5 ADD MLOAD PUSH1 0x0 NOT PUSH1 0x3 DUP8 SWAP1 SHL PUSH1 0xF8 AND SHR NOT AND DUP2 SSTORE JUMPDEST POP POP PUSH1 0x1 DUP4 PUSH1 0x1 SHL ADD DUP5 SSTORE JUMPDEST POP POP POP POP POP JUMP JUMPDEST PUSH1 0x20 DUP2 MSTORE PUSH1 0x0 PUSH2 0x838 PUSH1 0x20 DUP4 ADD DUP5 PUSH2 0x61F JUMP INVALID PUSH1 0xC0 PUSH1 0x40 MSTORE CALLVALUE DUP1 ISZERO PUSH2 0x10 JUMPI PUSH1 0x0 DUP1 REVERT JUMPDEST POP PUSH1 0x40 MLOAD PUSH2 0xC5F CODESIZE SUB DUP1 PUSH2 0xC5F DUP4 CODECOPY DUP2 ADD PUSH1 0x40 DUP2 SWAP1 MSTORE PUSH2 0x2F SWAP2 PUSH2 0xF3 JUMP JUMPDEST DUP3 DUP3 DUP3 DUP3 PUSH1 0x1 PUSH1 0x1 PUSH1 0xA0 SHL SUB DUP2 AND PUSH2 0x61 JUMPI PUSH1 0x40 MLOAD PUSH4 0x1E4FBDF7 PUSH1 0xE0 SHL DUP2 MSTORE PUSH1 0x0 PUSH1 0x4 DUP3 ADD MSTORE PUSH1 0x24 ADD PUSH1 0x40 MLOAD DUP1 SWAP2 SUB SWAP1 REVERT JUMPDEST PUSH2 0x6A DUP2 PUSH2 0x87 JUMP JUMPDEST POP PUSH1 0x1 PUSH1 0x1 PUSH1 0x40 SHL SUB SWAP2 DUP3 AND PUSH1 0x80 MSTORE AND PUSH1 0xA0 MSTORE POP PUSH2 0x144 SWAP3 POP POP POP JUMP JUMPDEST PUSH1 0x0 DUP1 SLOAD PUSH1 0x1 PUSH1 0x1 PUSH1 0xA0 SHL SUB DUP4 DUP2 AND PUSH1 0x1 PUSH1 0x1 PUSH1 0xA0 SHL SUB NOT DUP4 AND DUP2 OR DUP5 SSTORE PUSH1 0x40 MLOAD SWAP2 SWAP1 SWAP3 AND SWAP3 DUP4 SWAP2 PUSH32 0x8BE0079C531659141344CD1FD0A4F28419497F9722A3DAAFE3B4186F6B6457E0 SWAP2 SWAP1 LOG3 POP POP JUMP JUMPDEST DUP1 MLOAD PUSH1 0x1 PUSH1 0x1 PUSH1 0x40 SHL SUB DUP2 AND DUP2 EQ PUSH2 0xEE JUMPI PUSH1 0x0 DUP1 REVERT JUMPDEST SWAP2 SWAP1 POP JUMP JUMPDEST PUSH1 0x0 DUP1 PUSH1 0x0 PUSH1 0x60 DUP5 DUP7 SUB SLT ISZERO PUSH2 0x108 JUMPI PUSH1 0x0 DUP1 REVERT JUMPDEST DUP4 MLOAD PUSH1 0x1 PUSH1 0x1 PUSH1 0xA0 SHL SUB DUP2 AND DUP2 EQ PUSH2 0x11F JUMPI PUSH1 0x0 DUP1 REVERT JUMPDEST SWAP3 POP PUSH2 0x12D PUSH1 0x20 DUP6 ADD PUSH2 0xD7 JUMP JUMPDEST SWAP2 POP PUSH2 0x13B PUSH1 0x40 DUP6 ADD PUSH2 0xD7 JUMP JUMPDEST SWAP1 POP SWAP3 POP SWAP3 POP SWAP3 JUMP JUMPDEST PUSH1 0x80 MLOAD PUSH1 0xA0 MLOAD PUSH2 0xAD3 PUSH2 0x18C PUSH1 0x0 CODECOPY PUSH1 0x0 DUP2 DUP2 PUSH2 0x12F ADD MSTORE DUP2 DUP2 PUSH2 0x516 ADD MSTORE PUSH2 0x642 ADD MSTORE PUSH1 0x0 DUP2 DUP2 PUSH2 0x26B ADD MSTORE DUP2 DUP2 PUSH2 0x53A ADD MSTORE DUP2 DUP2 PUSH2 0x5DF ADD MSTORE PUSH2 0x66D ADD MSTORE PUSH2 0xAD3 PUSH1 0x0 RETURN INVALID PUSH1 0x80 PUSH1 0x40 MSTORE PUSH1 0x4 CALLDATASIZE LT PUSH2 0xE1 JUMPI PUSH1 0x0 CALLDATALOAD PUSH1 0xE0 SHR DUP1 PUSH4 0x96132521 GT PUSH2 0x7F JUMPI DUP1 PUSH4 0xBE9A6555 GT PUSH2 0x59 JUMPI DUP1 PUSH4 0xBE9A6555 EQ PUSH2 0x25C JUMPI DUP1 PUSH4 0xEFBE1C1C EQ PUSH2 0x299 JUMPI DUP1 PUSH4 0xF2FDE38B EQ PUSH2 0x2AE JUMPI DUP1 PUSH4 0xFBCCEDAE EQ PUSH2 0x2CE JUMPI PUSH1 0x0 DUP1 REVERT JUMPDEST DUP1 PUSH4 0x96132521 EQ PUSH2 0x1F1 JUMPI DUP1 PUSH4 0x9852595C EQ PUSH2 0x206 JUMPI DUP1 PUSH4 0xA3F8EACE EQ PUSH2 0x23C JUMPI PUSH1 0x0 DUP1 REVERT JUMPDEST DUP1 PUSH4 0x715018A6 GT PUSH2 0xBB JUMPI DUP1 PUSH4 0x715018A6 EQ PUSH2 0x17F JUMPI DUP1 PUSH4 0x810EC23B EQ PUSH2 0x194 JUMPI DUP1 PUSH4 0x86D1A69F EQ PUSH2 0x1B4 JUMPI DUP1 PUSH4 0x8DA5CB5B EQ PUSH2 0x1C9 JUMPI PUSH1 0x0 DUP1 REVERT JUMPDEST DUP1 PUSH4 0xA17B06B EQ PUSH2 0xED JUMPI DUP1 PUSH4 0xFB5A6B4 EQ PUSH2 0x120 JUMPI DUP1 PUSH4 0x19165587 EQ PUSH2 0x15D JUMPI PUSH1 0x0 DUP1 REVERT JUMPDEST CALLDATASIZE PUSH2 0xE8 JUMPI STOP JUMPDEST PUSH1 0x0 DUP1 REVERT JUMPDEST CALLVALUE DUP1 ISZERO PUSH2 0xF9 JUMPI PUSH1 0x0 DUP1 REVERT JUMPDEST POP PUSH2 0x10D PUSH2 0x108 CALLDATASIZE PUSH1 0x4 PUSH2 0x98F JUMP JUMPDEST PUSH2 0x2E3 JUMP JUMPDEST PUSH1 0x40 MLOAD SWAP1 DUP2 MSTORE PUSH1 0x20 ADD JUMPDEST PUSH1 0x40 MLOAD DUP1 SWAP2 SUB SWAP1 RETURN JUMPDEST CALLVALUE DUP1 ISZERO PUSH2 0x12C JUMPI PUSH1 0x0 DUP1 REVERT JUMPDEST POP PUSH32 0x0 PUSH8 0xFFFFFFFFFFFFFFFF AND PUSH2 0x10D JUMP JUMPDEST CALLVALUE DUP1 ISZERO PUSH2 0x169 JUMPI PUSH1 0x0 DUP1 REVERT JUMPDEST POP PUSH2 0x17D PUSH2 0x178 CALLDATASIZE PUSH1 0x4 PUSH2 0x9C1 JUMP JUMPDEST PUSH2 0x307 JUMP JUMPDEST STOP JUMPDEST CALLVALUE DUP1 ISZERO PUSH2 0x18B JUMPI PUSH1 0x0 DUP1 REVERT JUMPDEST POP PUSH2 0x17D PUSH2 0x3A2 JUMP JUMPDEST CALLVALUE DUP1 ISZERO PUSH2 0x1A0 JUMPI PUSH1 0x0 DUP1 REVERT JUMPDEST POP PUSH2 0x10D PUSH2 0x1AF CALLDATASIZE PUSH1 0x4 PUSH2 0x9DC JUMP JUMPDEST PUSH2 0x3B6 JUMP JUMPDEST CALLVALUE DUP1 ISZERO PUSH2 0x1C0 JUMPI PUSH1 0x0 DUP1 REVERT JUMPDEST POP PUSH2 0x17D PUSH2 0x465 JUMP JUMPDEST CALLVALUE DUP1 ISZERO PUSH2 0x1D5 JUMPI PUSH1 0x0 DUP1 REVERT JUMPDEST POP PUSH1 0x0 SLOAD PUSH1 0x40 MLOAD PUSH1 0x1 PUSH1 0x1 PUSH1 0xA0 SHL SUB SWAP1 SWAP2 AND DUP2 MSTORE PUSH1 0x20 ADD PUSH2 0x117 JUMP JUMPDEST CALLVALUE DUP1 ISZERO PUSH2 0x1FD JUMPI PUSH1 0x0 DUP1 REVERT JUMPDEST POP PUSH1 0x1 SLOAD PUSH2 0x10D JUMP JUMPDEST CALLVALUE DUP1 ISZERO PUSH2 0x212 JUMPI PUSH1 0x0 DUP1 REVERT JUMPDEST POP PUSH2 0x10D PUSH2 0x221 CALLDATASIZE PUSH1 0x4 PUSH2 0x9C1 JUMP JUMPDEST PUSH1 0x1 PUSH1 0x1 PUSH1 0xA0 SHL SUB AND PUSH1 0x0 SWAP1 DUP2 MSTORE PUSH1 0x2 PUSH1 0x20 MSTORE PUSH1 0x40 SWAP1 KECCAK256 SLOAD SWAP1 JUMP JUMPDEST CALLVALUE DUP1 ISZERO PUSH2 0x248 JUMPI PUSH1 0x0 DUP1 REVERT JUMPDEST POP PUSH2 0x10D PUSH2 0x257 CALLDATASIZE PUSH1 0x4 PUSH2 0x9C1 JUMP JUMPDEST PUSH2 0x4D9 JUMP JUMPDEST CALLVALUE DUP1 ISZERO PUSH2 0x268 JUMPI PUSH1 0x0 DUP1 REVERT JUMPDEST POP PUSH32 0x0 PUSH8 0xFFFFFFFFFFFFFFFF AND PUSH2 0x10D JUMP JUMPDEST CALLVALUE DUP1 ISZERO PUSH2 0x2A5 JUMPI PUSH1 0x0 DUP1 REVERT JUMPDEST POP PUSH2 0x10D PUSH2 0x506 JUMP JUMPDEST CALLVALUE DUP1 ISZERO PUSH2 0x2BA JUMPI PUSH1 0x0 DUP1 REVERT JUMPDEST POP PUSH2 0x17D PUSH2 0x2C9 CALLDATASIZE PUSH1 0x4 PUSH2 0x9C1 JUMP JUMPDEST PUSH2 0x564 JUMP JUMPDEST CALLVALUE DUP1 ISZERO PUSH2 0x2DA JUMPI PUSH1 0x0 DUP1 REVERT JUMPDEST POP PUSH2 0x10D PUSH2 0x5BD JUMP JUMPDEST PUSH1 0x0 PUSH2 0x301 PUSH2 0x2F1 PUSH1 0x1 SLOAD SWAP1 JUMP JUMPDEST PUSH2 0x2FB SWAP1 SELFBALANCE PUSH2 0xA25 JUMP JUMPDEST DUP4 PUSH2 0x5DB JUMP JUMPDEST SWAP3 SWAP2 POP POP JUMP JUMPDEST PUSH1 0x0 PUSH2 0x312 DUP3 PUSH2 0x4D9 JUMP JUMPDEST PUSH1 0x1 PUSH1 0x1 PUSH1 0xA0 SHL SUB DUP4 AND PUSH1 0x0 SWAP1 DUP2 MSTORE PUSH1 0x2 PUSH1 0x20 MSTORE PUSH1 0x40 DUP2 KECCAK256 DUP1 SLOAD SWAP3 SWAP4 POP DUP4 SWAP3 SWAP1 SWAP2 SWAP1 PUSH2 0x33F SWAP1 DUP5 SWAP1 PUSH2 0xA25 JUMP JUMPDEST SWAP1 SWAP2 SSTORE POP POP PUSH1 0x40 MLOAD DUP2 DUP2 MSTORE PUSH1 0x1 PUSH1 0x1 PUSH1 0xA0 SHL SUB DUP4 AND SWAP1 PUSH32 0xC0E523490DD523C33B1878C9EB14FF46991E3F5B2CD33710918618F2A39CBA1B SWAP1 PUSH1 0x20 ADD PUSH1 0x40 MLOAD DUP1 SWAP2 SUB SWAP1 LOG2 PUSH2 0x39E DUP3 PUSH2 0x398 PUSH1 0x0 SLOAD PUSH1 0x1 PUSH1 0x1 PUSH1 0xA0 SHL SUB AND SWAP1 JUMP JUMPDEST DUP4 PUSH2 0x6C5 JUMP JUMPDEST POP POP JUMP JUMPDEST PUSH2 0x3AA PUSH2 0x74A JUMP JUMPDEST PUSH2 0x3B4 PUSH1 0x0 PUSH2 0x790 JUMP JUMPDEST JUMP JUMPDEST PUSH1 0x1 PUSH1 0x1 PUSH1 0xA0 SHL SUB DUP3 AND PUSH1 0x0 SWAP1 DUP2 MSTORE PUSH1 0x2 PUSH1 0x20 MSTORE PUSH1 0x40 DUP2 KECCAK256 SLOAD PUSH2 0x45E SWAP1 PUSH1 0x40 MLOAD PUSH32 0x70A0823100000000000000000000000000000000000000000000000000000000 DUP2 MSTORE ADDRESS PUSH1 0x4 DUP3 ADD MSTORE PUSH1 0x1 PUSH1 0x1 PUSH1 0xA0 SHL SUB DUP7 AND SWAP1 PUSH4 0x70A08231 SWAP1 PUSH1 0x24 ADD PUSH1 0x20 PUSH1 0x40 MLOAD DUP1 DUP4 SUB DUP2 DUP7 GAS STATICCALL ISZERO DUP1 ISZERO PUSH2 0x430 JUMPI RETURNDATASIZE PUSH1 0x0 DUP1 RETURNDATACOPY RETURNDATASIZE PUSH1 0x0 REVERT JUMPDEST POP POP POP POP PUSH1 0x40 MLOAD RETURNDATASIZE PUSH1 0x1F NOT PUSH1 0x1F DUP3 ADD AND DUP3 ADD DUP1 PUSH1 0x40 MSTORE POP DUP2 ADD SWAP1 PUSH2 0x454 SWAP2 SWAP1 PUSH2 0xA38 JUMP JUMPDEST PUSH2 0x2FB SWAP2 SWAP1 PUSH2 0xA25 JUMP JUMPDEST SWAP4 SWAP3 POP POP POP JUMP JUMPDEST PUSH1 0x0 PUSH2 0x46F PUSH2 0x5BD JUMP JUMPDEST SWAP1 POP DUP1 PUSH1 0x1 PUSH1 0x0 DUP3 DUP3 SLOAD PUSH2 0x483 SWAP2 SWAP1 PUSH2 0xA25 JUMP JUMPDEST SWAP1 SWAP2 SSTORE POP POP PUSH1 0x40 MLOAD DUP2 DUP2 MSTORE PUSH32 0xDA9D4E5F101B8B9B1C5B76D0C5A9F7923571ACFC02376AA076B75A8C080C956B SWAP1 PUSH1 0x20 ADD PUSH1 0x40 MLOAD DUP1 SWAP2 SUB SWAP1 LOG1 PUSH2 0x4D6 PUSH2 0x4D0 PUSH1 0x0 SLOAD PUSH1 0x1 PUSH1 0x1 PUSH1 0xA0 SHL SUB AND SWAP1 JUMP JUMPDEST DUP3 PUSH2 0x7F8 JUMP JUMPDEST POP JUMP JUMPDEST PUSH1 0x1 PUSH1 0x1 PUSH1 0xA0 SHL SUB DUP2 AND PUSH1 0x0 SWAP1 DUP2 MSTORE PUSH1 0x2 PUSH1 0x20 MSTORE PUSH1 0x40 DUP2 KECCAK256 SLOAD PUSH2 0x4FC DUP4 TIMESTAMP PUSH2 0x3B6 JUMP JUMPDEST PUSH2 0x301 SWAP2 SWAP1 PUSH2 0xA51 JUMP JUMPDEST PUSH1 0x0 PUSH2 0x55F PUSH8 0xFFFFFFFFFFFFFFFF PUSH32 0x0 DUP2 AND SWAP1 PUSH32 0x0 AND PUSH2 0xA25 JUMP JUMPDEST SWAP1 POP SWAP1 JUMP JUMPDEST PUSH2 0x56C PUSH2 0x74A JUMP JUMPDEST PUSH1 0x1 PUSH1 0x1 PUSH1 0xA0 SHL SUB DUP2 AND PUSH2 0x5B4 JUMPI PUSH1 0x40 MLOAD PUSH32 0x1E4FBDF700000000000000000000000000000000000000000000000000000000 DUP2 MSTORE PUSH1 0x0 PUSH1 0x4 DUP3 ADD MSTORE PUSH1 0x24 ADD JUMPDEST PUSH1 0x40 MLOAD DUP1 SWAP2 SUB SWAP1 REVERT JUMPDEST PUSH2 0x4D6 DUP2 PUSH2 0x790 JUMP JUMPDEST PUSH1 0x0 PUSH2 0x5C8 PUSH1 0x1 SLOAD SWAP1 JUMP JUMPDEST PUSH2 0x5D1 TIMESTAMP PUSH2 0x2E3 JUMP JUMPDEST PUSH2 0x55F SWAP2 SWAP1 PUSH2 0xA51 JUMP JUMPDEST PUSH1 0x0 PUSH32 0x0 PUSH8 0xFFFFFFFFFFFFFFFF AND DUP3 PUSH8 0xFFFFFFFFFFFFFFFF AND LT ISZERO PUSH2 0x621 JUMPI POP PUSH1 0x0 PUSH2 0x301 JUMP JUMPDEST PUSH2 0x629 PUSH2 0x506 JUMP JUMPDEST DUP3 PUSH8 0xFFFFFFFFFFFFFFFF AND LT PUSH2 0x640 JUMPI POP DUP2 PUSH2 0x301 JUMP JUMPDEST PUSH32 0x0 PUSH8 0xFFFFFFFFFFFFFFFF AND PUSH32 0x0 PUSH8 0xFFFFFFFFFFFFFFFF AND PUSH2 0x6AA SWAP1 PUSH8 0xFFFFFFFFFFFFFFFF DUP6 AND PUSH2 0xA51 JUMP JUMPDEST PUSH2 0x6B4 SWAP1 DUP6 PUSH2 0xA64 JUMP JUMPDEST PUSH2 0x6BE SWAP2 SWAP1 PUSH2 0xA7B JUMP JUMPDEST SWAP1 POP PUSH2 0x301 JUMP JUMPDEST PUSH1 0x40 DUP1 MLOAD PUSH1 0x1 PUSH1 0x1 PUSH1 0xA0 SHL SUB DUP5 AND PUSH1 0x24 DUP3 ADD MSTORE PUSH1 0x44 DUP1 DUP3 ADD DUP5 SWAP1 MSTORE DUP3 MLOAD DUP1 DUP4 SUB SWAP1 SWAP2 ADD DUP2 MSTORE PUSH1 0x64 SWAP1 SWAP2 ADD SWAP1 SWAP2 MSTORE PUSH1 0x20 DUP2 ADD DUP1 MLOAD PUSH28 0xFFFFFFFFFFFFFFFFFFFFFFFFFFFFFFFFFFFFFFFFFFFFFFFFFFFFFFFF AND PUSH32 0xA9059CBB00000000000000000000000000000000000000000000000000000000 OR SWAP1 MSTORE PUSH2 0x745 SWAP1 DUP5 SWAP1 PUSH2 0x8A7 JUMP JUMPDEST POP POP POP JUMP JUMPDEST PUSH1 0x0 SLOAD PUSH1 0x1 PUSH1 0x1 PUSH1 0xA0 SHL SUB AND CALLER EQ PUSH2 0x3B4 JUMPI PUSH1 0x40 MLOAD PUSH32 0x118CDAA700000000000000000000000000000000000000000000000000000000 DUP2 MSTORE CALLER PUSH1 0x4 DUP3 ADD MSTORE PUSH1 0x24 ADD PUSH2 0x5AB JUMP JUMPDEST PUSH1 0x0 DUP1 SLOAD PUSH1 0x1 PUSH1 0x1 PUSH1 0xA0 SHL SUB DUP4 DUP2 AND PUSH32 0xFFFFFFFFFFFFFFFFFFFFFFFF0000000000000000000000000000000000000000 DUP4 AND DUP2 OR DUP5 SSTORE PUSH1 0x40 MLOAD SWAP2 SWAP1 SWAP3 AND SWAP3 DUP4 SWAP2 PUSH32 0x8BE0079C531659141344CD1FD0A4F28419497F9722A3DAAFE3B4186F6B6457E0 SWAP2 SWAP1 LOG3 POP POP JUMP JUMPDEST DUP1 SELFBALANCE LT ISZERO PUSH2 0x83B JUMPI PUSH1 0x40 MLOAD PUSH32 0xCF47918100000000000000000000000000000000000000000000000000000000 DUP2 MSTORE SELFBALANCE PUSH1 0x4 DUP3 ADD MSTORE PUSH1 0x24 DUP2 ADD DUP3 SWAP1 MSTORE PUSH1 0x44 ADD PUSH2 0x5AB JUMP JUMPDEST PUSH1 0x0 DUP1 DUP4 PUSH1 0x1 PUSH1 0x1 PUSH1 0xA0 SHL SUB AND DUP4 PUSH1 0x40 MLOAD PUSH1 0x0 PUSH1 0x40 MLOAD DUP1 DUP4 SUB DUP2 DUP6 DUP8 GAS CALL SWAP3 POP POP POP RETURNDATASIZE DUP1 PUSH1 0x0 DUP2 EQ PUSH2 0x889 JUMPI PUSH1 0x40 MLOAD SWAP2 POP PUSH1 0x1F NOT PUSH1 0x3F RETURNDATASIZE ADD AND DUP3 ADD PUSH1 0x40 MSTORE RETURNDATASIZE DUP3 MSTORE RETURNDATASIZE PUSH1 0x0 PUSH1 0x20 DUP5 ADD RETURNDATACOPY PUSH2 0x88E JUMP JUMPDEST PUSH1 0x60 SWAP2 POP JUMPDEST POP SWAP2 POP SWAP2 POP DUP2 PUSH2 0x8A1 JUMPI PUSH2 0x8A1 DUP2 PUSH2 0x931 JUMP JUMPDEST POP POP POP POP JUMP JUMPDEST PUSH1 0x0 DUP1 PUSH1 0x20 PUSH1 0x0 DUP5 MLOAD PUSH1 0x20 DUP7 ADD PUSH1 0x0 DUP9 GAS CALL DUP1 PUSH2 0x8CA JUMPI PUSH1 0x40 MLOAD RETURNDATASIZE PUSH1 0x0 DUP3 RETURNDATACOPY RETURNDATASIZE DUP2 REVERT JUMPDEST POP POP PUSH1 0x0 MLOAD RETURNDATASIZE SWAP2 POP DUP2 ISZERO PUSH2 0x8E2 JUMPI DUP1 PUSH1 0x1 EQ ISZERO PUSH2 0x8EF JUMP JUMPDEST PUSH1 0x1 PUSH1 0x1 PUSH1 0xA0 SHL SUB DUP5 AND EXTCODESIZE ISZERO JUMPDEST ISZERO PUSH2 0x8A1 JUMPI PUSH1 0x40 MLOAD PUSH32 0x5274AFE700000000000000000000000000000000000000000000000000000000 DUP2 MSTORE PUSH1 0x1 PUSH1 0x1 PUSH1 0xA0 SHL SUB DUP6 AND PUSH1 0x4 DUP3 ADD MSTORE PUSH1 0x24 ADD PUSH2 0x5AB JUMP JUMPDEST DUP1 MLOAD ISZERO PUSH2 0x940 JUMPI DUP1 MLOAD PUSH1 0x20 DUP3 ADD REVERT JUMPDEST PUSH1 0x40 MLOAD PUSH32 0xD6BDA27500000000000000000000000000000000000000000000000000000000 DUP2 MSTORE PUSH1 0x4 ADD PUSH1 0x40 MLOAD DUP1 SWAP2 SUB SWAP1 REVERT JUMPDEST DUP1 CALLDATALOAD PUSH8 0xFFFFFFFFFFFFFFFF DUP2 AND DUP2 EQ PUSH2 0x98A JUMPI PUSH1 0x0 DUP1 REVERT JUMPDEST SWAP2 SWAP1 POP JUMP JUMPDEST PUSH1 0x0 PUSH1 0x20 DUP3 DUP5 SUB SLT ISZERO PUSH2 0x9A1 JUMPI PUSH1 0x0 DUP1 REVERT JUMPDEST PUSH2 0x45E DUP3 PUSH2 0x972 JUMP JUMPDEST DUP1 CALLDATALOAD PUSH1 0x1 PUSH1 0x1 PUSH1 0xA0 SHL SUB DUP2 AND DUP2 EQ PUSH2 0x98A JUMPI PUSH1 0x0 DUP1 REVERT JUMPDEST PUSH1 0x0 PUSH1 0x20 DUP3 DUP5 SUB SLT ISZERO PUSH2 0x9D3 JUMPI PUSH1 0x0 DUP1 REVERT JUMPDEST PUSH2 0x45E DUP3 PUSH2 0x9AA JUMP JUMPDEST PUSH1 0x0 DUP1 PUSH1 0x40 DUP4 DUP6 SUB SLT ISZERO PUSH2 0x9EF JUMPI PUSH1 0x0 DUP1 REVERT JUMPDEST PUSH2 0x9F8 DUP4 PUSH2 0x9AA JUMP JUMPDEST SWAP2 POP PUSH2 0xA06 PUSH1 0x20 DUP5 ADD PUSH2 0x972 JUMP JUMPDEST SWAP1 POP SWAP3 POP SWAP3 SWAP1 POP JUMP JUMPDEST PUSH4 0x4E487B71 PUSH1 0xE0 SHL PUSH1 0x0 MSTORE PUSH1 0x11 PUSH1 0x4 MSTORE PUSH1 0x24 PUSH1 0x0 REVERT JUMPDEST DUP1 DUP3 ADD DUP1 DUP3 GT ISZERO PUSH2 0x301 JUMPI PUSH2 0x301 PUSH2 0xA0F JUMP JUMPDEST PUSH1 0x0 PUSH1 0x20 DUP3 DUP5 SUB SLT ISZERO PUSH2 0xA4A JUMPI PUSH1 0x0 DUP1 REVERT JUMPDEST POP MLOAD SWAP2 SWAP1 POP JUMP JUMPDEST DUP2 DUP2 SUB DUP2 DUP2 GT ISZERO PUSH2 0x301 JUMPI PUSH2 0x301 PUSH2 0xA0F JUMP JUMPDEST DUP1 DUP3 MUL DUP2 ISZERO DUP3 DUP3 DIV DUP5 EQ OR PUSH2 0x301 JUMPI PUSH2 0x301 PUSH2 0xA0F JUMP JUMPDEST PUSH1 0x0 DUP3 PUSH2 0xA98 JUMPI PUSH4 0x4E487B71 PUSH1 0xE0 SHL PUSH1 0x0 MSTORE PUSH1 0x12 PUSH1 0x4 MSTORE PUSH1 0x24 PUSH1 0x0 REVERT JUMPDEST POP DIV SWAP1 JUMP INVALID LOG2 PUSH5 0x6970667358 0x22 SLT KECCAK256 JUMP SAR 0xB4 0xBE 0xB5 CALLDATALOAD POP GAS CALLCODE DUP2 DUP11 0xA5 TSTORE JUMPF 0x2286 CALLER SWAPN 0x35 SWAP5 INVALID 0xAD CREATE JUMPF 0x9849 ORIGIN GASLIMIT PUSH10 0x1D201664736F6C634300 ADDMOD 0x21 STOP CALLER LOG2 PUSH5 0x6970667358 0x22 SLT KECCAK256 SWAP6 SLOAD 0xF6 0xCA XOR CODESIZE SWAP1 SWAP13 SWAP2 SWAP10 PUSH10 0xD20268C5CF1848709AB8 PC 0xD4 SWAP9 NUMBER SWAPN 0x75 CREATE2 PUSH25 0x3FE56864736F6C634300082100330000000000000000000000 "
				},
				"gasEstimates": {
					"creation": {
						"codeDepositCost": "1143600",
						"executionCost": "27050",
						"totalCost": "1170650"
					},
					"external": {
						"createVesting(address,uint64,uint64,string)": "infinite",
						"deployedVestings(uint256)": "infinite",
						"getVestingCount()": "2270",
						"getVestingInfo(uint256)": "infinite",
						"owner()": "2353",
						"renounceOwnership()": "infinite",
						"transferOwnership(address)": "28387"
					}
				},
				"methodIdentifiers": {
					"createVesting(address,uint64,uint64,string)": "36ac4aa8",
					"deployedVestings(uint256)": "edb5f73e",
					"getVestingCount()": "0e246273",
					"getVestingInfo(uint256)": "20f6b0a9",
					"owner()": "8da5cb5b",
					"renounceOwnership()": "715018a6",
					"transferOwnership(address)": "f2fde38b"
				}
			},
			"storageLayout": {
				"storage": [
					{
						"astId": 940,
						"contract": "kash_vesting_flattened.sol:KashVestingFactory",
						"label": "_owner",
						"offset": 0,
						"slot": "0",
						"type": "t_address"
					},
					{
						"astId": 1411,
						"contract": "kash_vesting_flattened.sol:KashVestingFactory",
						"label": "deployedVestings",
						"offset": 0,
						"slot": "1",
						"type": "t_array(t_struct(VestingInfo)1407_storage)dyn_storage"
					}
				],
				"types": {
					"t_address": {
						"encoding": "inplace",
						"label": "address",
						"numberOfBytes": "20"
					},
					"t_array(t_struct(VestingInfo)1407_storage)dyn_storage": {
						"base": "t_struct(VestingInfo)1407_storage",
						"encoding": "dynamic_array",
						"label": "struct KashVestingFactory.VestingInfo[]",
						"numberOfBytes": "32"
					},
					"t_string_storage": {
						"encoding": "bytes",
						"label": "string",
						"numberOfBytes": "32"
					},
					"t_struct(VestingInfo)1407_storage": {
						"encoding": "inplace",
						"label": "struct KashVestingFactory.VestingInfo",
						"members": [
							{
								"astId": 1402,
								"contract": "kash_vesting_flattened.sol:KashVestingFactory",
								"label": "walletAddress",
								"offset": 0,
								"slot": "0",
								"type": "t_address"
							},
							{
								"astId": 1404,
								"contract": "kash_vesting_flattened.sol:KashVestingFactory",
								"label": "beneficiary",
								"offset": 0,
								"slot": "1",
								"type": "t_address"
							},
							{
								"astId": 1406,
								"contract": "kash_vesting_flattened.sol:KashVestingFactory",
								"label": "category",
								"offset": 0,
								"slot": "2",
								"type": "t_string_storage"
							}
						],
						"numberOfBytes": "96"
					}
				}
			},
			"userdoc": {
				"kind": "user",
				"methods": {},
				"version": 1
			}
		}
	}
}