{
	"kcash.sol": {
		"Kash": {
			"abi": [
				{
					"inputs": [],
					"stateMutability": "nonpayable",
					"type": "constructor"
				},
				{
					"inputs": [],
					"name": "Blacklisted",
					"type": "error"
				},
				{
					"inputs": [
						{
							"internalType": "address",
							"name": "spender",
							"type": "address"
						},
						{
							"internalType": "uint256",
							"name": "allowance",
							"type": "uint256"
						},
						{
							"internalType": "uint256",
							"name": "needed",
							"type": "uint256"
						}
					],
					"name": "ERC20InsufficientAllowance",
					"type": "error"
				},
				{
					"inputs": [
						{
							"internalType": "address",
							"name": "sender",
							"type": "address"
						},
						{
							"internalType": "uint256",
							"name": "balance",
							"type": "uint256"
						},
						{
							"internalType": "uint256",
							"name": "needed",
							"type": "uint256"
						}
					],
					"name": "ERC20InsufficientBalance",
					"type": "error"
				},
				{
					"inputs": [
						{
							"internalType": "address",
							"name": "approver",
							"type": "address"
						}
					],
					"name": "ERC20InvalidApprover",
					"type": "error"
				},
				{
					"inputs": [
						{
							"internalType": "address",
							"name": "receiver",
							"type": "address"
						}
					],
					"name": "ERC20InvalidReceiver",
					"type": "error"
				},
				{
					"inputs": [
						{
							"internalType": "address",
							"name": "sender",
							"type": "address"
						}
					],
					"name": "ERC20InvalidSender",
					"type": "error"
				},
				{
					"inputs": [
						{
							"internalType": "address",
							"name": "spender",
							"type": "address"
						}
					],
					"name": "ERC20InvalidSpender",
					"type": "error"
				},
				{
					"inputs": [],
					"name": "ExceedsMaxLimit",
					"type": "error"
				},
				{
					"inputs": [],
					"name": "LimitsAlreadyRemoved",
					"type": "error"
				},
				{
					"inputs": [
						{
							"internalType": "address",
							"name": "owner",
							"type": "address"
						}
					],
					"name": "OwnableInvalidOwner",
					"type": "error"
				},
				{
					"inputs": [
						{
							"internalType": "address",
							"name": "account",
							"type": "address"
						}
					],
					"name": "OwnableUnauthorizedAccount",
					"type": "error"
				},
				{
					"inputs": [],
					"name": "TradingNotOpen",
					"type": "error"
				},
				{
					"inputs": [],
					"name": "WalletLimitReached",
					"type": "error"
				},
				{
					"anonymous": false,
					"inputs": [
						{
							"indexed": true,
							"internalType": "address",
							"name": "owner",
							"type": "address"
						},
						{
							"indexed": true,
							"internalType": "address",
							"name": "spender",
							"type": "address"
						},
						{
							"indexed": false,
							"internalType": "uint256",
							"name": "value",
							"type": "uint256"
						}
					],
					"name": "Approval",
					"type": "event"
				},
				{
					"anonymous": false,
					"inputs": [
						{
							"indexed": true,
							"internalType": "address",
							"name": "previousOwner",
							"type": "address"
						},
						{
							"indexed": true,
							"internalType": "address",
							"name": "newOwner",
							"type": "address"
						}
					],
					"name": "OwnershipTransferred",
					"type": "event"
				},
				{
					"anonymous": false,
					"inputs": [
						{
							"indexed": true,
							"internalType": "address",
							"name": "from",
							"type": "address"
						},
						{
							"indexed": true,
							"internalType": "address",
							"name": "to",
							"type": "address"
						},
						{
							"indexed": false,
							"internalType": "uint256",
							"name": "value",
							"type": "uint256"
						}
					],
					"name": "Transfer",
					"type": "event"
				},
				{
					"inputs": [],
					"name": "MAX_SUPPLY",
					"outputs": [
						{
							"internalType": "uint256",
							"name": "",
							"type": "uint256"
						}
					],
					"stateMutability": "view",
					"type": "function"
				},
				{
					"inputs": [
						{
							"internalType": "address",
							"name": "owner",
							"type": "address"
						},
						{
							"internalType": "address",
							"name": "spender",
							"type": "address"
						}
					],
					"name": "allowance",
					"outputs": [
						{
							"internalType": "uint256",
							"name": "",
							"type": "uint256"
						}
					],
					"stateMutability": "view",
					"type": "function"
				},
				{
					"inputs": [
						{
							"internalType": "address",
							"name": "spender",
							"type": "address"
						},
						{
							"internalType": "uint256",
							"name": "value",
							"type": "uint256"
						}
					],
					"name": "approve",
					"outputs": [
						{
							"internalType": "bool",
							"name": "",
							"type": "bool"
						}
					],
					"stateMutability": "nonpayable",
					"type": "function"
				},
				{
					"inputs": [
						{
							"internalType": "address",
							"name": "account",
							"type": "address"
						}
					],
					"name": "balanceOf",
					"outputs": [
						{
							"internalType": "uint256",
							"name": "",
							"type": "uint256"
						}
					],
					"stateMutability": "view",
					"type": "function"
				},
				{
					"inputs": [
						{
							"internalType": "uint256",
							"name": "value",
							"type": "uint256"
						}
					],
					"name": "burn",
					"outputs": [],
					"stateMutability": "nonpayable",
					"type": "function"
				},
				{
					"inputs": [
						{
							"internalType": "address",
							"name": "account",
							"type": "address"
						},
						{
							"internalType": "uint256",
							"name": "value",
							"type": "uint256"
						}
					],
					"name": "burnFrom",
					"outputs": [],
					"stateMutability": "nonpayable",
					"type": "function"
				},
				{
					"inputs": [],
					"name": "decimals",
					"outputs": [
						{
							"internalType": "uint8",
							"name": "",
							"type": "uint8"
						}
					],
					"stateMutability": "view",
					"type": "function"
				},
				{
					"inputs": [
						{
							"internalType": "address",
							"name": "_account",
							"type": "address"
						},
						{
							"internalType": "bool",
							"name": "_state",
							"type": "bool"
						}
					],
					"name": "excludeFromLimits",
					"outputs": [],
					"stateMutability": "nonpayable",
					"type": "function"
				},
				{
					"inputs": [
						{
							"internalType": "address",
							"name": "",
							"type": "address"
						}
					],
					"name": "isBlacklisted",
					"outputs": [
						{
							"internalType": "bool",
							"name": "",
							"type": "bool"
						}
					],
					"stateMutability": "view",
					"type": "function"
				},
				{
					"inputs": [
						{
							"internalType": "address",
							"name": "",
							"type": "address"
						}
					],
					"name": "isExcludedFromLimits",
					"outputs": [
						{
							"internalType": "bool",
							"name": "",
							"type": "bool"
						}
					],
					"stateMutability": "view",
					"type": "function"
				},
				{
					"inputs": [],
					"name": "limitsEffect",
					"outputs": [
						{
							"internalType": "bool",
							"name": "",
							"type": "bool"
						}
					],
					"stateMutability": "view",
					"type": "function"
				},
				{
					"inputs": [],
					"name": "maxLimit",
					"outputs": [
						{
							"internalType": "uint256",
							"name": "",
							"type": "uint256"
						}
					],
					"stateMutability": "view",
					"type": "function"
				},
				{
					"inputs": [],
					"name": "name",
					"outputs": [
						{
							"internalType": "string",
							"name": "",
							"type": "string"
						}
					],
					"stateMutability": "view",
					"type": "function"
				},
				{
					"inputs": [],
					"name": "owner",
					"outputs": [
						{
							"internalType": "address",
							"name": "",
							"type": "address"
						}
					],
					"stateMutability": "view",
					"type": "function"
				},
				{
					"inputs": [],
					"name": "removeLimitsPermanently",
					"outputs": [],
					"stateMutability": "nonpayable",
					"type": "function"
				},
				{
					"inputs": [],
					"name": "renounceOwnership",
					"outputs": [],
					"stateMutability": "nonpayable",
					"type": "function"
				},
				{
					"inputs": [
						{
							"internalType": "address",
							"name": "_account",
							"type": "address"
						},
						{
							"internalType": "bool",
							"name": "_state",
							"type": "bool"
						}
					],
					"name": "setBlacklist",
					"outputs": [],
					"stateMutability": "nonpayable",
					"type": "function"
				},
				{
					"inputs": [],
					"name": "startTrading",
					"outputs": [],
					"stateMutability": "nonpayable",
					"type": "function"
				},
				{
					"inputs": [],
					"name": "symbol",
					"outputs": [
						{
							"internalType": "string",
							"name": "",
							"type": "string"
						}
					],
					"stateMutability": "view",
					"type": "function"
				},
				{
					"inputs": [],
					"name": "totalSupply",
					"outputs": [
						{
							"internalType": "uint256",
							"name": "",
							"type": "uint256"
						}
					],
					"stateMutability": "view",
					"type": "function"
				},
				{
					"inputs": [],
					"name": "tradingOpen",
					"outputs": [
						{
							"internalType": "bool",
							"name": "",
							"type": "bool"
						}
					],
					"stateMutability": "view",
					"type": "function"
				},
				{
					"inputs": [
						{
							"internalType": "address",
							"name": "to",
							"type": "address"
						},
						{
							"internalType": "uint256",
							"name": "value",
							"type": "uint256"
						}
					],
					"name": "transfer",
					"outputs": [
						{
							"internalType": "bool",
							"name": "",
							"type": "bool"
						}
					],
					"stateMutability": "nonpayable",
					"type": "function"
				},
				{
					"inputs": [
						{
							"internalType": "address",
							"name": "from",
							"type": "address"
						},
						{
							"internalType": "address",
							"name": "to",
							"type": "address"
						},
						{
							"internalType": "uint256",
							"name": "value",
							"type": "uint256"
						}
					],
					"name": "transferFrom",
					"outputs": [
						{
							"internalType": "bool",
							"name": "",
							"type": "bool"
						}
					],
					"stateMutability": "nonpayable",
					"type": "function"
				},
				{
					"inputs": [
						{
							"internalType": "address",
							"name": "newOwner",
							"type": "address"
						}
					],
					"name": "transferOwnership",
					"outputs": [],
					"stateMutability": "nonpayable",
					"type": "function"
				},
				{
					"inputs": [
						{
							"internalType": "uint256",
							"name": "_newLimitAmount",
							"type": "uint256"
						}
					],
					"name": "updateMaxLimit",
					"outputs": [],
					"stateMutability": "nonpayable",
					"type": "function"
				}
			],
			"devdoc": {
				"errors": {
					"ERC20InsufficientAllowance(address,uint256,uint256)": [
						{
							"details": "Indicates a failure with the `spender`’s `allowance`. Used in transfers.",
							"params": {
								"allowance": "Amount of tokens a `spender` is allowed to operate with.",
								"needed": "Minimum amount required to perform a transfer.",
								"spender": "Address that may be allowed to operate on tokens without being their owner."
							}
						}
					],
					"ERC20InsufficientBalance(address,uint256,uint256)": [
						{
							"details": "Indicates an error related to the current `balance` of a `sender`. Used in transfers.",
							"params": {
								"balance": "Current balance for the interacting account.",
								"needed": "Minimum amount required to perform a transfer.",
								"sender": "Address whose tokens are being transferred."
							}
						}
					],
					"ERC20InvalidApprover(address)": [
						{
							"details": "Indicates a failure with the `approver` of a token to be approved. Used in approvals.",
							"params": {
								"approver": "Address initiating an approval operation."
							}
						}
					],
					"ERC20InvalidReceiver(address)": [
						{
							"details": "Indicates a failure with the token `receiver`. Used in transfers.",
							"params": {
								"receiver": "Address to which tokens are being transferred."
							}
						}
					],
					"ERC20InvalidSender(address)": [
						{
							"details": "Indicates a failure with the token `sender`. Used in transfers.",
							"params": {
								"sender": "Address whose tokens are being transferred."
							}
						}
					],
					"ERC20InvalidSpender(address)": [
						{
							"details": "Indicates a failure with the `spender` to be approved. Used in approvals.",
							"params": {
								"spender": "Address that may be allowed to operate on tokens without being their owner."
							}
						}
					],
					"OwnableInvalidOwner(address)": [
						{
							"details": "The owner is not a valid owner account. (eg. `address(0)`)"
						}
					],
					"OwnableUnauthorizedAccount(address)": [
						{
							"details": "The caller account is not authorized to perform an operation."
						}
					]
				},
				"events": {
					"Approval(address,address,uint256)": {
						"details": "Emitted when the allowance of a `spender` for an `owner` is set by a call to {approve}. `value` is the new allowance."
					},
					"Transfer(address,address,uint256)": {
						"details": "Emitted when `value` tokens are moved from one account (`from`) to another (`to`). Note that `value` may be zero."
					}
				},
				"kind": "dev",
				"methods": {
					"allowance(address,address)": {
						"details": "Returns the remaining number of tokens that `spender` will be allowed to spend on behalf of `owner` through {transferFrom}. This is zero by default. This value changes when {approve} or {transferFrom} are called."
					},
					"approve(address,uint256)": {
						"details": "See {IERC20-approve}. NOTE: If `value` is the maximum `uint256`, the allowance is not updated on `transferFrom`. This is semantically equivalent to an infinite approval. Requirements: - `spender` cannot be the zero address."
					},
					"balanceOf(address)": {
						"details": "Returns the value of tokens owned by `account`."
					},
					"burn(uint256)": {
						"details": "Destroys a `value` amount of tokens from the caller. See {ERC20-_burn}."
					},
					"burnFrom(address,uint256)": {
						"details": "Destroys a `value` amount of tokens from `account`, deducting from the caller's allowance. See {ERC20-_burn} and {ERC20-allowance}. Requirements: - the caller must have allowance for ``accounts``'s tokens of at least `value`."
					},
					"decimals()": {
						"details": "Returns the number of decimals used to get its user representation. For example, if `decimals` equals `2`, a balance of `505` tokens should be displayed to a user as `5.05` (`505 / 10 ** 2`). Tokens usually opt for a value of 18, imitating the relationship between Ether and Wei. This is the default value returned by this function, unless it's overridden. NOTE: This information is only used for _display_ purposes: it in no way affects any of the arithmetic of the contract, including {IERC20-balanceOf} and {IERC20-transfer}."
					},
					"name()": {
						"details": "Returns the name of the token."
					},
					"owner()": {
						"details": "Returns the address of the current owner."
					},
					"renounceOwnership()": {
						"details": "Leaves the contract without owner. It will not be possible to call `onlyOwner` functions. Can only be called by the current owner. NOTE: Renouncing ownership will leave the contract without an owner, thereby disabling any functionality that is only available to the owner."
					},
					"symbol()": {
						"details": "Returns the symbol of the token, usually a shorter version of the name."
					},
					"totalSupply()": {
						"details": "Returns the value of tokens in existence."
					},
					"transfer(address,uint256)": {
						"details": "See {IERC20-transfer}. Requirements: - `to` cannot be the zero address. - the caller must have a balance of at least `value`."
					},
					"transferFrom(address,address,uint256)": {
						"details": "See {IERC20-transferFrom}. Skips emitting an {Approval} event indicating an allowance update. This is not required by the ERC. See {xref-ERC20-_approve-address-address-uint256-bool-}[_approve]. NOTE: Does not update the allowance if the current allowance is the maximum `uint256`. Requirements: - `from` and `to` cannot be the zero address. - `from` must have a balance of at least `value`. - the caller must have allowance for ``from``'s tokens of at least `value`."
					},
					"transferOwnership(address)": {
						"details": "Transfers ownership of the contract to a new account (`newOwner`). Can only be called by the current owner."
					}
				},
				"version": 1
			},
			"evm": {
				"assembly": "    /* \"kcash.sol\":326:2402  contract Kash is ERC20, ERC20Burnable, Ownable {... */\n  mstore(0x40, 0x80)\n    /* \"kcash.sol\":769:785  104_000 * 10**18 */\n  0x1605d9ee986271000000\n    /* \"kcash.sol\":743:785  uint256 public maxLimit = 104_000 * 10**18 */\n  0x06\n  sstore\n    /* \"kcash.sol\":792:823  bool public tradingOpen = false */\n  0x07\n  dup1\n  sload\n  not(0xffff)\n    /* \"kcash.sol\":829:860  bool public limitsEffect = true */\n  and\n    /* \"kcash.sol\":792:823  bool public tradingOpen = false */\n  0x0100\n    /* \"kcash.sol\":829:860  bool public limitsEffect = true */\n  or\n  swap1\n  sstore\n    /* \"kcash.sol\":978:1181  constructor() ERC20(\"Kash\", \"KASH\") Ownable(msg.sender) {... */\n  callvalue\n  dup1\n  iszero\n  tag_1\n  jumpi\n  revert(0x00, 0x00)\ntag_1:\n  pop\n    /* \"kcash.sol\":1022:1032  msg.sender */\n  caller\n    /* \"@openzeppelin/contracts/token/ERC20/ERC20.sol\":1582:1695  constructor(string memory name_, string memory symbol_) {... */\n  mload(0x40)\n  dup1\n  0x40\n  add\n  0x40\n  mstore\n  dup1\n  0x04\n  dup2\n  mstore\n  0x20\n  add\n  shl(0xe3, 0x096c2e6d)\n  dup2\n  mstore\n  pop\n  mload(0x40)\n  dup1\n  0x40\n  add\n  0x40\n  mstore\n  dup1\n  0x04\n  dup2\n  mstore\n  0x20\n  add\n  shl(0xe3, 0x09682a69)\n  dup2\n  mstore\n  pop\n    /* \"@openzeppelin/contracts/token/ERC20/ERC20.sol\":1656:1661  name_ */\n  dup2\n    /* \"@openzeppelin/contracts/token/ERC20/ERC20.sol\":1648:1653  _name */\n  0x03\n    /* \"@openzeppelin/contracts/token/ERC20/ERC20.sol\":1648:1661  _name = name_ */\n  swap1\n  dup2\n  tag_6\n  swap2\n  swap1\n  tag_7\n  jump\t// in\ntag_6:\n  pop\n    /* \"@openzeppelin/contracts/token/ERC20/ERC20.sol\":1671:1678  _symbol */\n  0x04\n    /* \"@openzeppelin/contracts/token/ERC20/ERC20.sol\":1671:1688  _symbol = symbol_ */\n  tag_8\n    /* \"@openzeppelin/contracts/token/ERC20/ERC20.sol\":1681:1688  symbol_ */\n  dup3\n    /* \"@openzeppelin/contracts/token/ERC20/ERC20.sol\":1671:1678  _symbol */\n  dup3\n    /* \"@openzeppelin/contracts/token/ERC20/ERC20.sol\":1671:1688  _symbol = symbol_ */\n  tag_7\n  jump\t// in\ntag_8:\n  pop\n  pop\n  pop\n  sub(shl(0xa0, 0x01), 0x01)\n    /* \"@openzeppelin/contracts/access/Ownable.sol\":1273:1299  initialOwner == address(0) */\n  dup2\n  and\n    /* \"@openzeppelin/contracts/access/Ownable.sol\":1269:1364  if (initialOwner == address(0)) {... */\n  tag_10\n  jumpi\n    /* \"@openzeppelin/contracts/access/Ownable.sol\":1322:1353  OwnableInvalidOwner(address(0)) */\n  mload(0x40)\n  shl(0xe0, 0x1e4fbdf7)\n  dup2\n  mstore\n    /* \"@openzeppelin/contracts/access/Ownable.sol\":1350:1351  0 */\n  0x00\n    /* \"@openzeppelin/contracts/access/Ownable.sol\":1322:1353  OwnableInvalidOwner(address(0)) */\n  0x04\n  dup3\n  add\n    /* \"#utility.yul\":2975:3026   */\n  mstore\n    /* \"#utility.yul\":2948:2966   */\n  0x24\n  add\n    /* \"@openzeppelin/contracts/access/Ownable.sol\":1322:1353  OwnableInvalidOwner(address(0)) */\ntag_11:\n  mload(0x40)\n  dup1\n  swap2\n  sub\n  swap1\n  revert\n    /* \"@openzeppelin/contracts/access/Ownable.sol\":1269:1364  if (initialOwner == address(0)) {... */\ntag_10:\n    /* \"@openzeppelin/contracts/access/Ownable.sol\":1373:1405  _transferOwnership(initialOwner) */\n  tag_13\n    /* \"@openzeppelin/contracts/access/Ownable.sol\":1392:1404  initialOwner */\n  dup2\n    /* \"@openzeppelin/contracts/access/Ownable.sol\":1373:1391  _transferOwnership */\n  tag_14\n    /* \"@openzeppelin/contracts/access/Ownable.sol\":1373:1405  _transferOwnership(initialOwner) */\n  jump\t// in\ntag_13:\n  pop\n    /* \"kcash.sol\":1065:1075  msg.sender */\n  caller\n    /* \"kcash.sol\":1044:1076  isExcludedFromLimits[msg.sender] */\n  0x00\n  dup2\n  dup2\n  mstore\n    /* \"kcash.sol\":1044:1064  isExcludedFromLimits */\n  0x09\n    /* \"kcash.sol\":1044:1076  isExcludedFromLimits[msg.sender] */\n  0x20\n  mstore\n  0x40\n  dup1\n  dup3\n  keccak256\n    /* \"kcash.sol\":1044:1083  isExcludedFromLimits[msg.sender] = true */\n  dup1\n  sload\n    /* \"kcash.sol\":1079:1083  true */\n  0x01\n  not(0xff)\n    /* \"kcash.sol\":1044:1083  isExcludedFromLimits[msg.sender] = true */\n  swap2\n  dup3\n  and\n  dup2\n  or\n  swap1\n  swap3\n  sstore\n    /* \"kcash.sol\":1122:1126  this */\n  address\n    /* \"kcash.sol\":1093:1128  isExcludedFromLimits[address(this)] */\n  dup5\n  mstore\n  swap2\n  swap1\n  swap3\n  keccak256\n    /* \"kcash.sol\":1093:1135  isExcludedFromLimits[address(this)] = true */\n  dup1\n  sload\n  swap1\n  swap2\n  and\n  swap1\n  swap2\n  or\n  swap1\n  sstore\n    /* \"kcash.sol\":1145:1174  _mint(msg.sender, MAX_SUPPLY) */\n  tag_16\n  swap1\n    /* \"kcash.sol\":718:737  52_000_000 * 10**18 */\n  0x2b036da601a044b4000000\n    /* \"kcash.sol\":1145:1150  _mint */\n  tag_17\n    /* \"kcash.sol\":1145:1174  _mint(msg.sender, MAX_SUPPLY) */\n  jump\t// in\ntag_16:\n    /* \"kcash.sol\":326:2402  contract Kash is ERC20, ERC20Burnable, Ownable {... */\n  jump(tag_58)\n    /* \"@openzeppelin/contracts/access/Ownable.sol\":2912:3099  function _transferOwnership(address newOwner) internal virtual {... */\ntag_14:\n    /* \"@openzeppelin/contracts/access/Ownable.sol\":3004:3010  _owner */\n  0x05\n  dup1\n  sload\n  sub(shl(0xa0, 0x01), 0x01)\n    /* \"@openzeppelin/contracts/access/Ownable.sol\":3020:3037  _owner = newOwner */\n  dup4\n  dup2\n  and\n  not(sub(shl(0xa0, 0x01), 0x01))\n  dup4\n  and\n  dup2\n  or\n  swap1\n  swap4\n  sstore\n    /* \"@openzeppelin/contracts/access/Ownable.sol\":3052:3092  OwnershipTransferred(oldOwner, newOwner) */\n  mload(0x40)\n    /* \"@openzeppelin/contracts/access/Ownable.sol\":3004:3010  _owner */\n  swap2\n  and\n  swap2\n    /* \"@openzeppelin/contracts/access/Ownable.sol\":3020:3037  _owner = newOwner */\n  swap1\n    /* \"@openzeppelin/contracts/access/Ownable.sol\":3004:3010  _owner */\n  dup3\n  swap1\n    /* \"@openzeppelin/contracts/access/Ownable.sol\":3052:3092  OwnershipTransferred(oldOwner, newOwner) */\n  0x8be0079c531659141344cd1fd0a4f28419497f9722a3daafe3b4186f6b6457e0\n  swap1\n    /* \"@openzeppelin/contracts/access/Ownable.sol\":2985:3001  address oldOwner */\n  0x00\n  swap1\n    /* \"@openzeppelin/contracts/access/Ownable.sol\":3052:3092  OwnershipTransferred(oldOwner, newOwner) */\n  log3\n    /* \"@openzeppelin/contracts/access/Ownable.sol\":2975:3099  {... */\n  pop\n    /* \"@openzeppelin/contracts/access/Ownable.sol\":2912:3099  function _transferOwnership(address newOwner) internal virtual {... */\n  pop\n  jump\t// out\n    /* \"@openzeppelin/contracts/token/ERC20/ERC20.sol\":7362:7570  function _mint(address account, uint256 value) internal {... */\ntag_17:\n  sub(shl(0xa0, 0x01), 0x01)\n    /* \"@openzeppelin/contracts/token/ERC20/ERC20.sol\":7432:7453  account == address(0) */\n  dup3\n  and\n    /* \"@openzeppelin/contracts/token/ERC20/ERC20.sol\":7428:7519  if (account == address(0)) {... */\n  tag_21\n  jumpi\n    /* \"@openzeppelin/contracts/token/ERC20/ERC20.sol\":7476:7508  ERC20InvalidReceiver(address(0)) */\n  mload(0x40)\n  shl(0xe0, 0xec442f05)\n  dup2\n  mstore\n    /* \"@openzeppelin/contracts/token/ERC20/ERC20.sol\":7505:7506  0 */\n  0x00\n    /* \"@openzeppelin/contracts/token/ERC20/ERC20.sol\":7476:7508  ERC20InvalidReceiver(address(0)) */\n  0x04\n  dup3\n  add\n    /* \"#utility.yul\":2975:3026   */\n  mstore\n    /* \"#utility.yul\":2948:2966   */\n  0x24\n  add\n    /* \"@openzeppelin/contracts/token/ERC20/ERC20.sol\":7476:7508  ERC20InvalidReceiver(address(0)) */\n  tag_11\n    /* \"#utility.yul\":2829:3032   */\n  jump\n    /* \"@openzeppelin/contracts/token/ERC20/ERC20.sol\":7428:7519  if (account == address(0)) {... */\ntag_21:\n    /* \"@openzeppelin/contracts/token/ERC20/ERC20.sol\":7528:7563  _update(address(0), account, value) */\n  tag_23\n    /* \"@openzeppelin/contracts/token/ERC20/ERC20.sol\":7544:7545  0 */\n  0x00\n    /* \"@openzeppelin/contracts/token/ERC20/ERC20.sol\":7548:7555  account */\n  dup4\n    /* \"@openzeppelin/contracts/token/ERC20/ERC20.sol\":7557:7562  value */\n  dup4\n    /* \"@openzeppelin/contracts/token/ERC20/ERC20.sol\":7528:7535  _update */\n  tag_24\n    /* \"@openzeppelin/contracts/token/ERC20/ERC20.sol\":7528:7563  _update(address(0), account, value) */\n  jump\t// in\ntag_23:\n    /* \"@openzeppelin/contracts/token/ERC20/ERC20.sol\":7362:7570  function _mint(address account, uint256 value) internal {... */\n  pop\n  pop\n  jump\t// out\n    /* \"kcash.sol\":1818:2400  function _update(address from, address to, uint256 value) internal virtual override {... */\ntag_24:\n  sub(shl(0xa0, 0x01), 0x01)\n    /* \"kcash.sol\":1916:1942  isExcludedFromLimits[from] */\n  dup4\n  and\n  0x00\n  swap1\n  dup2\n  mstore\n    /* \"kcash.sol\":1916:1936  isExcludedFromLimits */\n  0x09\n    /* \"kcash.sol\":1916:1942  isExcludedFromLimits[from] */\n  0x20\n  mstore\n  0x40\n  swap1\n  keccak256\n  sload\n  0xff\n  and\n  dup1\n    /* \"kcash.sol\":1916:1970  isExcludedFromLimits[from] || isExcludedFromLimits[to] */\n  tag_26\n  jumpi\n  pop\n  sub(shl(0xa0, 0x01), 0x01)\n    /* \"kcash.sol\":1946:1970  isExcludedFromLimits[to] */\n  dup3\n  and\n  0x00\n  swap1\n  dup2\n  mstore\n    /* \"kcash.sol\":1946:1966  isExcludedFromLimits */\n  0x09\n    /* \"kcash.sol\":1946:1970  isExcludedFromLimits[to] */\n  0x20\n  mstore\n  0x40\n  swap1\n  keccak256\n  sload\n  0xff\n  and\n    /* \"kcash.sol\":1916:1970  isExcludedFromLimits[from] || isExcludedFromLimits[to] */\ntag_26:\n    /* \"kcash.sol\":1912:2047  if (isExcludedFromLimits[from] || isExcludedFromLimits[to]) {... */\n  iszero\n  tag_27\n  jumpi\n    /* \"kcash.sol\":1986:2016  super._update(from, to, value) */\n  tag_28\n    /* \"kcash.sol\":2000:2004  from */\n  dup4\n    /* \"kcash.sol\":2006:2008  to */\n  dup4\n    /* \"kcash.sol\":2010:2015  value */\n  dup4\n    /* \"kcash.sol\":1986:1999  super._update */\n  tag_29\n    /* \"kcash.sol\":1986:2016  super._update(from, to, value) */\n  jump\t// in\ntag_28:\n    /* \"kcash.sol\":1818:2400  function _update(address from, address to, uint256 value) internal virtual override {... */\n  pop\n  pop\n  pop\n  jump\t// out\n    /* \"kcash.sol\":1912:2047  if (isExcludedFromLimits[from] || isExcludedFromLimits[to]) {... */\ntag_27:\n    /* \"kcash.sol\":2062:2073  tradingOpen */\n  and(0xff, sload(0x07))\n    /* \"kcash.sol\":2057:2098  if (!tradingOpen) revert TradingNotOpen() */\n  tag_30\n  jumpi\n    /* \"kcash.sol\":2082:2098  TradingNotOpen() */\n  mload(0x40)\n  shl(0xe0, 0xe09f0331)\n  dup2\n  mstore\n  0x04\n  add\n  mload(0x40)\n  dup1\n  swap2\n  sub\n  swap1\n  revert\n    /* \"kcash.sol\":2057:2098  if (!tradingOpen) revert TradingNotOpen() */\ntag_30:\n  sub(shl(0xa0, 0x01), 0x01)\n    /* \"kcash.sol\":2112:2131  isBlacklisted[from] */\n  dup4\n  and\n  0x00\n  swap1\n  dup2\n  mstore\n    /* \"kcash.sol\":2112:2125  isBlacklisted */\n  0x08\n    /* \"kcash.sol\":2112:2131  isBlacklisted[from] */\n  0x20\n  mstore\n  0x40\n  swap1\n  keccak256\n  sload\n  0xff\n  and\n  dup1\n    /* \"kcash.sol\":2112:2152  isBlacklisted[from] || isBlacklisted[to] */\n  tag_31\n  jumpi\n  pop\n  sub(shl(0xa0, 0x01), 0x01)\n    /* \"kcash.sol\":2135:2152  isBlacklisted[to] */\n  dup3\n  and\n  0x00\n  swap1\n  dup2\n  mstore\n    /* \"kcash.sol\":2135:2148  isBlacklisted */\n  0x08\n    /* \"kcash.sol\":2135:2152  isBlacklisted[to] */\n  0x20\n  mstore\n  0x40\n  swap1\n  keccak256\n  sload\n  0xff\n  and\n    /* \"kcash.sol\":2112:2152  isBlacklisted[from] || isBlacklisted[to] */\ntag_31:\n    /* \"kcash.sol\":2108:2174  if (isBlacklisted[from] || isBlacklisted[to]) revert Blacklisted() */\n  iszero\n  tag_32\n  jumpi\n    /* \"kcash.sol\":2161:2174  Blacklisted() */\n  mload(0x40)\n  shl(0xe0, 0x09550c77)\n  dup2\n  mstore\n  0x04\n  add\n  mload(0x40)\n  dup1\n  swap2\n  sub\n  swap1\n  revert\n    /* \"kcash.sol\":2108:2174  if (isBlacklisted[from] || isBlacklisted[to]) revert Blacklisted() */\ntag_32:\n    /* \"kcash.sol\":2189:2201  limitsEffect */\n  sload(0x07)\n  0x0100\n  swap1\n  div\n  0xff\n  and\n    /* \"kcash.sol\":2185:2353  if (limitsEffect) {... */\n  iszero\n  tag_39\n  jumpi\n    /* \"kcash.sol\":2229:2237  maxLimit */\n  sload(0x06)\n    /* \"kcash.sol\":2221:2226  value */\n  dup2\n    /* \"kcash.sol\":2221:2237  value > maxLimit */\n  gt\n    /* \"kcash.sol\":2217:2263  if (value > maxLimit) revert ExceedsMaxLimit() */\n  iszero\n  tag_34\n  jumpi\n    /* \"kcash.sol\":2246:2263  ExceedsMaxLimit() */\n  mload(0x40)\n  shl(0xe7, 0x710557)\n  dup2\n  mstore\n  0x04\n  add\n  mload(0x40)\n  dup1\n  swap2\n  sub\n  swap1\n  revert\n    /* \"kcash.sol\":2217:2263  if (value > maxLimit) revert ExceedsMaxLimit() */\ntag_34:\n    /* \"kcash.sol\":2305:2313  maxLimit */\n  sload(0x06)\n    /* \"kcash.sol\":2297:2302  value */\n  dup2\n    /* \"kcash.sol\":2281:2294  balanceOf(to) */\n  tag_35\n    /* \"kcash.sol\":2291:2293  to */\n  dup5\n  sub(shl(0xa0, 0x01), 0x01)\n    /* \"@openzeppelin/contracts/token/ERC20/ERC20.sol\":3024:3042  _balances[account] */\n  and\n    /* \"@openzeppelin/contracts/token/ERC20/ERC20.sol\":2998:3005  uint256 */\n  0x00\n    /* \"@openzeppelin/contracts/token/ERC20/ERC20.sol\":3024:3042  _balances[account] */\n  swap1\n  dup2\n  mstore\n  0x20\n  dup2\n  swap1\n  mstore\n  0x40\n  swap1\n  keccak256\n  sload\n  swap1\n    /* \"@openzeppelin/contracts/token/ERC20/ERC20.sol\":2933:3049  function balanceOf(address account) public view virtual returns (uint256) {... */\n  jump\n    /* \"kcash.sol\":2281:2294  balanceOf(to) */\ntag_35:\n    /* \"kcash.sol\":2281:2302  balanceOf(to) + value */\n  tag_37\n  swap2\n  swap1\n  tag_38\n  jump\t// in\ntag_37:\n    /* \"kcash.sol\":2281:2313  balanceOf(to) + value > maxLimit */\n  gt\n    /* \"kcash.sol\":2277:2342  if (balanceOf(to) + value > maxLimit) revert WalletLimitReached() */\n  iszero\n  tag_39\n  jumpi\n    /* \"kcash.sol\":2322:2342  WalletLimitReached() */\n  mload(0x40)\n  shl(0xe1, 0x426d5b23)\n  dup2\n  mstore\n  0x04\n  add\n  mload(0x40)\n  dup1\n  swap2\n  sub\n  swap1\n  revert\n    /* \"kcash.sol\":2277:2342  if (balanceOf(to) + value > maxLimit) revert WalletLimitReached() */\ntag_39:\n    /* \"kcash.sol\":2363:2393  super._update(from, to, value) */\n  tag_28\n    /* \"kcash.sol\":2377:2381  from */\n  dup4\n    /* \"kcash.sol\":2383:2385  to */\n  dup4\n    /* \"kcash.sol\":2387:2392  value */\n  dup4\n    /* \"@openzeppelin/contracts/token/ERC20/ERC20.sol\":5912:7019  function _update(address from, address to, uint256 value) internal virtual {... */\ntag_29:\n  sub(shl(0xa0, 0x01), 0x01)\n    /* \"@openzeppelin/contracts/token/ERC20/ERC20.sol\":6001:6019  from == address(0) */\n  dup4\n  and\n    /* \"@openzeppelin/contracts/token/ERC20/ERC20.sol\":5997:6537  if (from == address(0)) {... */\n  tag_42\n  jumpi\n    /* \"@openzeppelin/contracts/token/ERC20/ERC20.sol\":6153:6158  value */\n  dup1\n    /* \"@openzeppelin/contracts/token/ERC20/ERC20.sol\":6137:6149  _totalSupply */\n  0x02\n  0x00\n    /* \"@openzeppelin/contracts/token/ERC20/ERC20.sol\":6137:6158  _totalSupply += value */\n  dup3\n  dup3\n  sload\n  tag_43\n  swap2\n  swap1\n  tag_38\n  jump\t// in\ntag_43:\n  swap1\n  swap2\n  sstore\n  pop\n    /* \"@openzeppelin/contracts/token/ERC20/ERC20.sol\":5997:6537  if (from == address(0)) {... */\n  tag_44\n  swap1\n  pop\n  jump\ntag_42:\n  sub(shl(0xa0, 0x01), 0x01)\n    /* \"@openzeppelin/contracts/token/ERC20/ERC20.sol\":6211:6226  _balances[from] */\n  dup4\n  and\n    /* \"@openzeppelin/contracts/token/ERC20/ERC20.sol\":6189:6208  uint256 fromBalance */\n  0x00\n    /* \"@openzeppelin/contracts/token/ERC20/ERC20.sol\":6211:6226  _balances[from] */\n  swap1\n  dup2\n  mstore\n  0x20\n  dup2\n  swap1\n  mstore\n  0x40\n  swap1\n  keccak256\n  sload\n    /* \"@openzeppelin/contracts/token/ERC20/ERC20.sol\":6244:6263  fromBalance < value */\n  dup2\n  dup2\n  lt\n    /* \"@openzeppelin/contracts/token/ERC20/ERC20.sol\":6240:6355  if (fromBalance < value) {... */\n  iszero\n  tag_45\n  jumpi\n    /* \"@openzeppelin/contracts/token/ERC20/ERC20.sol\":6290:6340  ERC20InsufficientBalance(from, fromBalance, value) */\n  mload(0x40)\n  shl(0xe2, 0x391434e3)\n  dup2\n  mstore\n  sub(shl(0xa0, 0x01), 0x01)\n    /* \"#utility.yul\":3484:3516   */\n  dup6\n  and\n    /* \"@openzeppelin/contracts/token/ERC20/ERC20.sol\":6290:6340  ERC20InsufficientBalance(from, fromBalance, value) */\n  0x04\n  dup3\n  add\n    /* \"#utility.yul\":3466:3517   */\n  mstore\n    /* \"#utility.yul\":3533:3551   */\n  0x24\n  dup2\n  add\n    /* \"#utility.yul\":3526:3560   */\n  dup3\n  swap1\n  mstore\n    /* \"#utility.yul\":3576:3594   */\n  0x44\n  dup2\n  add\n    /* \"#utility.yul\":3569:3603   */\n  dup4\n  swap1\n  mstore\n    /* \"#utility.yul\":3439:3457   */\n  0x64\n  add\n    /* \"@openzeppelin/contracts/token/ERC20/ERC20.sol\":6290:6340  ERC20InsufficientBalance(from, fromBalance, value) */\n  tag_11\n    /* \"#utility.yul\":3264:3609   */\n  jump\n    /* \"@openzeppelin/contracts/token/ERC20/ERC20.sol\":6240:6355  if (fromBalance < value) {... */\ntag_45:\n  sub(shl(0xa0, 0x01), 0x01)\n    /* \"@openzeppelin/contracts/token/ERC20/ERC20.sol\":6475:6490  _balances[from] */\n  dup5\n  and\n    /* \"@openzeppelin/contracts/token/ERC20/ERC20.sol\":6475:6484  _balances */\n  0x00\n    /* \"@openzeppelin/contracts/token/ERC20/ERC20.sol\":6475:6490  _balances[from] */\n  swap1\n  dup2\n  mstore\n  0x20\n  dup2\n  swap1\n  mstore\n  0x40\n  swap1\n  keccak256\n    /* \"@openzeppelin/contracts/token/ERC20/ERC20.sol\":6493:6512  fromBalance - value */\n  swap1\n  dup3\n  swap1\n  sub\n    /* \"@openzeppelin/contracts/token/ERC20/ERC20.sol\":6475:6512  _balances[from] = fromBalance - value */\n  swap1\n  sstore\n    /* \"@openzeppelin/contracts/token/ERC20/ERC20.sol\":5997:6537  if (from == address(0)) {... */\ntag_44:\n  sub(shl(0xa0, 0x01), 0x01)\n    /* \"@openzeppelin/contracts/token/ERC20/ERC20.sol\":6551:6567  to == address(0) */\n  dup3\n  and\n    /* \"@openzeppelin/contracts/token/ERC20/ERC20.sol\":6547:6972  if (to == address(0)) {... */\n  tag_48\n  jumpi\n    /* \"@openzeppelin/contracts/token/ERC20/ERC20.sol\":6714:6726  _totalSupply */\n  0x02\n    /* \"@openzeppelin/contracts/token/ERC20/ERC20.sol\":6714:6735  _totalSupply -= value */\n  dup1\n  sload\n  dup3\n  swap1\n  sub\n  swap1\n  sstore\n    /* \"@openzeppelin/contracts/token/ERC20/ERC20.sol\":6547:6972  if (to == address(0)) {... */\n  jump(tag_49)\ntag_48:\n  sub(shl(0xa0, 0x01), 0x01)\n    /* \"@openzeppelin/contracts/token/ERC20/ERC20.sol\":6925:6938  _balances[to] */\n  dup3\n  and\n    /* \"@openzeppelin/contracts/token/ERC20/ERC20.sol\":6925:6934  _balances */\n  0x00\n    /* \"@openzeppelin/contracts/token/ERC20/ERC20.sol\":6925:6938  _balances[to] */\n  swap1\n  dup2\n  mstore\n  0x20\n  dup2\n  swap1\n  mstore\n  0x40\n  swap1\n  keccak256\n    /* \"@openzeppelin/contracts/token/ERC20/ERC20.sol\":6925:6947  _balances[to] += value */\n  dup1\n  sload\n  dup3\n  add\n  swap1\n  sstore\n    /* \"@openzeppelin/contracts/token/ERC20/ERC20.sol\":6547:6972  if (to == address(0)) {... */\ntag_49:\n    /* \"@openzeppelin/contracts/token/ERC20/ERC20.sol\":7002:7004  to */\n  dup2\n  sub(shl(0xa0, 0x01), 0x01)\n    /* \"@openzeppelin/contracts/token/ERC20/ERC20.sol\":6987:7012  Transfer(from, to, value) */\n  and\n    /* \"@openzeppelin/contracts/token/ERC20/ERC20.sol\":6996:7000  from */\n  dup4\n  sub(shl(0xa0, 0x01), 0x01)\n    /* \"@openzeppelin/contracts/token/ERC20/ERC20.sol\":6987:7012  Transfer(from, to, value) */\n  and\n  0xddf252ad1be2c89b69c2b068fc378daa952ba7f163c4a11628f55a4df523b3ef\n    /* \"@openzeppelin/contracts/token/ERC20/ERC20.sol\":7006:7011  value */\n  dup4\n    /* \"@openzeppelin/contracts/token/ERC20/ERC20.sol\":6987:7012  Transfer(from, to, value) */\n  mload(0x40)\n  tag_50\n  swap2\n    /* \"#utility.yul\":3760:3785   */\n  dup2\n  mstore\n    /* \"#utility.yul\":3748:3750   */\n  0x20\n    /* \"#utility.yul\":3733:3751   */\n  add\n  swap1\n    /* \"#utility.yul\":3614:3791   */\n  jump\n    /* \"@openzeppelin/contracts/token/ERC20/ERC20.sol\":6987:7012  Transfer(from, to, value) */\ntag_50:\n  mload(0x40)\n  dup1\n  swap2\n  sub\n  swap1\n  log3\n    /* \"@openzeppelin/contracts/token/ERC20/ERC20.sol\":5912:7019  function _update(address from, address to, uint256 value) internal virtual {... */\n  pop\n  pop\n  pop\n  jump\t// out\n    /* \"#utility.yul\":14:141   */\ntag_53:\n    /* \"#utility.yul\":75:85   */\n  0x4e487b71\n    /* \"#utility.yul\":70:73   */\n  0xe0\n    /* \"#utility.yul\":66:86   */\n  shl\n    /* \"#utility.yul\":63:64   */\n  0x00\n    /* \"#utility.yul\":56:87   */\n  mstore\n    /* \"#utility.yul\":106:110   */\n  0x41\n    /* \"#utility.yul\":103:104   */\n  0x04\n    /* \"#utility.yul\":96:111   */\n  mstore\n    /* \"#utility.yul\":130:134   */\n  0x24\n    /* \"#utility.yul\":127:128   */\n  0x00\n    /* \"#utility.yul\":120:135   */\n  revert\n    /* \"#utility.yul\":146:526   */\ntag_54:\n    /* \"#utility.yul\":225:226   */\n  0x01\n    /* \"#utility.yul\":221:233   */\n  dup2\n  dup2\n  shr\n  swap1\n    /* \"#utility.yul\":268:280   */\n  dup3\n  and\n  dup1\n    /* \"#utility.yul\":289:350   */\n  tag_61\n  jumpi\n    /* \"#utility.yul\":343:347   */\n  0x7f\n    /* \"#utility.yul\":335:341   */\n  dup3\n    /* \"#utility.yul\":331:348   */\n  and\n    /* \"#utility.yul\":321:348   */\n  swap2\n  pop\n    /* \"#utility.yul\":289:350   */\ntag_61:\n    /* \"#utility.yul\":396:398   */\n  0x20\n    /* \"#utility.yul\":388:394   */\n  dup3\n    /* \"#utility.yul\":385:399   */\n  lt\n    /* \"#utility.yul\":365:383   */\n  dup2\n    /* \"#utility.yul\":362:400   */\n  sub\n    /* \"#utility.yul\":359:520   */\n  tag_62\n  jumpi\n    /* \"#utility.yul\":442:452   */\n  0x4e487b71\n    /* \"#utility.yul\":437:440   */\n  0xe0\n    /* \"#utility.yul\":433:453   */\n  shl\n    /* \"#utility.yul\":430:431   */\n  0x00\n    /* \"#utility.yul\":423:454   */\n  mstore\n    /* \"#utility.yul\":477:481   */\n  0x22\n    /* \"#utility.yul\":474:475   */\n  0x04\n    /* \"#utility.yul\":467:482   */\n  mstore\n    /* \"#utility.yul\":505:509   */\n  0x24\n    /* \"#utility.yul\":502:503   */\n  0x00\n    /* \"#utility.yul\":495:510   */\n  revert\n    /* \"#utility.yul\":359:520   */\ntag_62:\n  pop\n    /* \"#utility.yul\":146:526   */\n  swap2\n  swap1\n  pop\n  jump\t// out\n    /* \"#utility.yul\":657:1349   */\ntag_56:\n    /* \"#utility.yul\":759:761   */\n  0x1f\n    /* \"#utility.yul\":754:757   */\n  dup3\n    /* \"#utility.yul\":751:762   */\n  gt\n    /* \"#utility.yul\":748:1343   */\n  iszero\n  tag_28\n  jumpi\n    /* \"#utility.yul\":796:806   */\n  dup3\n    /* \"#utility.yul\":791:794   */\n  dup3\n    /* \"#utility.yul\":788:807   */\n  gt\n    /* \"#utility.yul\":785:1333   */\n  iszero\n  tag_28\n  jumpi\n    /* \"#utility.yul\":848:853   */\n  dup1\n    /* \"#utility.yul\":845:846   */\n  0x00\n    /* \"#utility.yul\":838:854   */\n  mstore\n    /* \"#utility.yul\":896:900   */\n  0x20\n    /* \"#utility.yul\":893:894   */\n  0x00\n    /* \"#utility.yul\":883:901   */\n  keccak256\n    /* \"#utility.yul\":961:963   */\n  0x1f\n    /* \"#utility.yul\":949:959   */\n  dup5\n    /* \"#utility.yul\":945:964   */\n  add\n    /* \"#utility.yul\":942:943   */\n  0x05\n    /* \"#utility.yul\":938:965   */\n  shr\n    /* \"#utility.yul\":1000:1004   */\n  0x20\n    /* \"#utility.yul\":988:998   */\n  dup6\n    /* \"#utility.yul\":985:1005   */\n  lt\n    /* \"#utility.yul\":982:1027   */\n  iszero\n  tag_67\n  jumpi\n  pop\n    /* \"#utility.yul\":1024:1025   */\n  0x00\n    /* \"#utility.yul\":982:1027   */\ntag_67:\n    /* \"#utility.yul\":1063:1086   */\n  swap1\n  dup2\n  add\n  swap1\n    /* \"#utility.yul\":1133:1135   */\n  0x1f\n    /* \"#utility.yul\":1124:1136   */\n  dup5\n  add\n    /* \"#utility.yul\":1121:1122   */\n  0x05\n    /* \"#utility.yul\":1117:1137   */\n  shr\n    /* \"#utility.yul\":1113:1152   */\n  sub\n    /* \"#utility.yul\":1178:1179   */\n  0x00\n    /* \"#utility.yul\":1196:1319   */\ntag_68:\n    /* \"#utility.yul\":1210:1212   */\n  dup2\n    /* \"#utility.yul\":1207:1208   */\n  dup2\n    /* \"#utility.yul\":1204:1213   */\n  lt\n    /* \"#utility.yul\":1196:1319   */\n  iszero\n  tag_70\n  jumpi\n    /* \"#utility.yul\":1299:1300   */\n  0x00\n    /* \"#utility.yul\":1278:1297   */\n  dup4\n  dup3\n  add\n    /* \"#utility.yul\":1271:1301   */\n  sstore\n    /* \"#utility.yul\":1228:1229   */\n  0x01\n    /* \"#utility.yul\":1221:1230   */\n  add\n    /* \"#utility.yul\":1196:1319   */\n  jump(tag_68)\ntag_70:\n    /* \"#utility.yul\":1200:1203   */\n  pop\n  pop\n  pop\n    /* \"#utility.yul\":657:1349   */\n  pop\n  pop\n  pop\n  jump\t// out\n    /* \"#utility.yul\":1525:2824   */\ntag_7:\n    /* \"#utility.yul\":1645:1655   */\n  dup2\n  mload\n  sub(shl(0x40, 0x01), 0x01)\n    /* \"#utility.yul\":1667:1697   */\n  dup2\n  gt\n    /* \"#utility.yul\":1664:1720   */\n  iszero\n  tag_74\n  jumpi\n    /* \"#utility.yul\":1700:1718   */\n  tag_74\n  tag_53\n  jump\t// in\ntag_74:\n    /* \"#utility.yul\":1729:1826   */\n  tag_75\n    /* \"#utility.yul\":1819:1825   */\n  dup2\n    /* \"#utility.yul\":1779:1817   */\n  tag_76\n    /* \"#utility.yul\":1811:1815   */\n  dup5\n    /* \"#utility.yul\":1805:1816   */\n  sload\n    /* \"#utility.yul\":1779:1817   */\n  tag_54\n  jump\t// in\ntag_76:\n    /* \"#utility.yul\":1773:1777   */\n  dup5\n    /* \"#utility.yul\":1729:1826   */\n  tag_56\n  jump\t// in\ntag_75:\n    /* \"#utility.yul\":1875:1879   */\n  0x20\n    /* \"#utility.yul\":1906:1908   */\n  0x1f\n    /* \"#utility.yul\":1895:1909   */\n  dup3\n  gt\n    /* \"#utility.yul\":1923:1924   */\n  0x01\n    /* \"#utility.yul\":1918:2567   */\n  dup2\n  eq\n  tag_78\n  jumpi\n    /* \"#utility.yul\":2611:2612   */\n  0x00\n    /* \"#utility.yul\":2628:2634   */\n  dup4\n    /* \"#utility.yul\":2625:2714   */\n  iszero\n  tag_79\n  jumpi\n  pop\n    /* \"#utility.yul\":2680:2699   */\n  dup5\n  dup3\n  add\n    /* \"#utility.yul\":2674:2700   */\n  mload\n    /* \"#utility.yul\":2625:2714   */\ntag_79:\n  not(0x00)\n    /* \"#utility.yul\":1482:1483   */\n  0x03\n    /* \"#utility.yul\":1478:1489   */\n  dup6\n  swap1\n  shl\n    /* \"#utility.yul\":1474:1498   */\n  shr\n    /* \"#utility.yul\":1470:1499   */\n  not\n    /* \"#utility.yul\":1460:1500   */\n  and\n    /* \"#utility.yul\":1506:1507   */\n  0x01\n    /* \"#utility.yul\":1502:1513   */\n  dup5\n  swap1\n  shl\n    /* \"#utility.yul\":1457:1514   */\n  or\n    /* \"#utility.yul\":2727:2808   */\n  dup5\n  sstore\n    /* \"#utility.yul\":1888:2818   */\n  jump(tag_77)\n    /* \"#utility.yul\":1918:2567   */\ntag_78:\n    /* \"#utility.yul\":604:605   */\n  0x00\n    /* \"#utility.yul\":597:611   */\n  dup5\n  dup2\n  mstore\n    /* \"#utility.yul\":641:645   */\n  0x20\n    /* \"#utility.yul\":628:646   */\n  dup2\n  keccak256\n  not(0x1f)\n    /* \"#utility.yul\":1954:1974   */\n  dup6\n  and\n  swap2\n    /* \"#utility.yul\":2072:2294   */\ntag_82:\n    /* \"#utility.yul\":2086:2093   */\n  dup3\n    /* \"#utility.yul\":2083:2084   */\n  dup2\n    /* \"#utility.yul\":2080:2094   */\n  lt\n    /* \"#utility.yul\":2072:2294   */\n  iszero\n  tag_84\n  jumpi\n    /* \"#utility.yul\":2168:2187   */\n  dup8\n  dup6\n  add\n    /* \"#utility.yul\":2162:2188   */\n  mload\n    /* \"#utility.yul\":2147:2189   */\n  dup3\n  sstore\n    /* \"#utility.yul\":2275:2279   */\n  0x20\n    /* \"#utility.yul\":2260:2280   */\n  swap5\n  dup6\n  add\n  swap5\n    /* \"#utility.yul\":2228:2229   */\n  0x01\n    /* \"#utility.yul\":2216:2230   */\n  swap1\n  swap3\n  add\n  swap2\n    /* \"#utility.yul\":2102:2114   */\n  add\n    /* \"#utility.yul\":2072:2294   */\n  jump(tag_82)\ntag_84:\n    /* \"#utility.yul\":2076:2079   */\n  pop\n    /* \"#utility.yul\":2322:2328   */\n  dup5\n    /* \"#utility.yul\":2313:2320   */\n  dup3\n    /* \"#utility.yul\":2310:2329   */\n  lt\n    /* \"#utility.yul\":2307:2508   */\n  iszero\n  tag_85\n  jumpi\n    /* \"#utility.yul\":2383:2402   */\n  dup7\n  dup5\n  add\n    /* \"#utility.yul\":2377:2403   */\n  mload\n  not(0x00)\n    /* \"#utility.yul\":2466:2467   */\n  0x03\n    /* \"#utility.yul\":2462:2476   */\n  dup8\n  swap1\n  shl\n    /* \"#utility.yul\":2478:2481   */\n  0xf8\n    /* \"#utility.yul\":2458:2482   */\n  and\n    /* \"#utility.yul\":2454:2491   */\n  shr\n    /* \"#utility.yul\":2450:2492   */\n  not\n    /* \"#utility.yul\":2435:2493   */\n  and\n    /* \"#utility.yul\":2420:2494   */\n  dup2\n  sstore\n    /* \"#utility.yul\":2307:2508   */\ntag_85:\n  pop\n  pop\n    /* \"#utility.yul\":2554:2555   */\n  0x01\n    /* \"#utility.yul\":2545:2551   */\n  dup4\n    /* \"#utility.yul\":2542:2543   */\n  0x01\n    /* \"#utility.yul\":2538:2552   */\n  shl\n    /* \"#utility.yul\":2534:2556   */\n  add\n    /* \"#utility.yul\":2528:2532   */\n  dup5\n    /* \"#utility.yul\":2521:2557   */\n  sstore\n    /* \"#utility.yul\":1888:2818   */\ntag_77:\n  pop\n  pop\n  pop\n    /* \"#utility.yul\":1525:2824   */\n  pop\n  pop\n  jump\t// out\n    /* \"#utility.yul\":3037:3259   */\ntag_38:\n    /* \"#utility.yul\":3102:3111   */\n  dup1\n  dup3\n  add\n    /* \"#utility.yul\":3123:3133   */\n  dup1\n  dup3\n  gt\n    /* \"#utility.yul\":3120:3253   */\n  iszero\n  tag_88\n  jumpi\n    /* \"#utility.yul\":3175:3185   */\n  0x4e487b71\n    /* \"#utility.yul\":3170:3173   */\n  0xe0\n    /* \"#utility.yul\":3166:3186   */\n  shl\n    /* \"#utility.yul\":3163:3164   */\n  0x00\n    /* \"#utility.yul\":3156:3187   */\n  mstore\n    /* \"#utility.yul\":3210:3214   */\n  0x11\n    /* \"#utility.yul\":3207:3208   */\n  0x04\n    /* \"#utility.yul\":3200:3215   */\n  mstore\n    /* \"#utility.yul\":3238:3242   */\n  0x24\n    /* \"#utility.yul\":3235:3236   */\n  0x00\n    /* \"#utility.yul\":3228:3243   */\n  revert\n    /* \"#utility.yul\":3120:3253   */\ntag_88:\n    /* \"#utility.yul\":3037:3259   */\n  swap3\n  swap2\n  pop\n  pop\n  jump\t// out\n    /* \"#utility.yul\":3614:3791   */\ntag_58:\n    /* \"kcash.sol\":326:2402  contract Kash is ERC20, ERC20Burnable, Ownable {... */\n  dataSize(sub_0)\n  dup1\n  dataOffset(sub_0)\n  0x00\n  codecopy\n  0x00\n  return\nstop\n\nsub_0: assembly {\n        /* \"kcash.sol\":326:2402  contract Kash is ERC20, ERC20Burnable, Ownable {... */\n      mstore(0x40, 0x80)\n      callvalue\n      dup1\n      iszero\n      tag_1\n      jumpi\n      revert(0x00, 0x00)\n    tag_1:\n      pop\n      jumpi(tag_2, lt(calldatasize, 0x04))\n      shr(0xe0, calldataload(0x00))\n      dup1\n      0x5cce86cd\n      gt\n      tag_28\n      jumpi\n      dup1\n      0x95d89b41\n      gt\n      tag_29\n      jumpi\n      dup1\n      0xdd62ed3e\n      gt\n      tag_30\n      jumpi\n      dup1\n      0xdd62ed3e\n      eq\n      tag_24\n      jumpi\n      dup1\n      0xf2fde38b\n      eq\n      tag_25\n      jumpi\n      dup1\n      0xfe575a87\n      eq\n      tag_26\n      jumpi\n      dup1\n      0xffb54a99\n      eq\n      tag_27\n      jumpi\n      revert(0x00, 0x00)\n    tag_30:\n      dup1\n      0x95d89b41\n      eq\n      tag_21\n      jumpi\n      dup1\n      0xa9059cbb\n      eq\n      tag_22\n      jumpi\n      dup1\n      0xc0a904a2\n      eq\n      tag_23\n      jumpi\n      revert(0x00, 0x00)\n    tag_29:\n      dup1\n      0x5cce86cd\n      eq\n      tag_15\n      jumpi\n      dup1\n      0x648fd61f\n      eq\n      tag_16\n      jumpi\n      dup1\n      0x70a08231\n      eq\n      tag_17\n      jumpi\n      dup1\n      0x715018a6\n      eq\n      tag_18\n      jumpi\n      dup1\n      0x79cc6790\n      eq\n      tag_19\n      jumpi\n      dup1\n      0x8da5cb5b\n      eq\n      tag_20\n      jumpi\n      revert(0x00, 0x00)\n    tag_28:\n      dup1\n      0x23b872dd\n      gt\n      tag_31\n      jumpi\n      dup1\n      0x23b872dd\n      eq\n      tag_9\n      jumpi\n      dup1\n      0x29144bdb\n      eq\n      tag_10\n      jumpi\n      dup1\n      0x293230b8\n      eq\n      tag_11\n      jumpi\n      dup1\n      0x313ce567\n      eq\n      tag_12\n      jumpi\n      dup1\n      0x32cb6b0c\n      eq\n      tag_13\n      jumpi\n      dup1\n      0x42966c68\n      eq\n      tag_14\n      jumpi\n      revert(0x00, 0x00)\n    tag_31:\n      dup1\n      0x06fdde03\n      eq\n      tag_3\n      jumpi\n      dup1\n      0x095ea7b3\n      eq\n      tag_4\n      jumpi\n      dup1\n      0x153b0d1e\n      eq\n      tag_5\n      jumpi\n      dup1\n      0x16a17a8a\n      eq\n      tag_6\n      jumpi\n      dup1\n      0x18160ddd\n      eq\n      tag_7\n      jumpi\n      dup1\n      0x1a861d26\n      eq\n      tag_8\n      jumpi\n    tag_2:\n      revert(0x00, 0x00)\n        /* \"@openzeppelin/contracts/token/ERC20/ERC20.sol\":1760:1849  function name() public view virtual returns (string memory) {... */\n    tag_3:\n      tag_32\n      tag_33\n      jump\t// in\n    tag_32:\n      mload(0x40)\n      tag_34\n      swap2\n      swap1\n      tag_35\n      jump\t// in\n    tag_34:\n      mload(0x40)\n      dup1\n      swap2\n      sub\n      swap1\n      return\n        /* \"@openzeppelin/contracts/token/ERC20/ERC20.sol\":3902:4088  function approve(address spender, uint256 value) public virtual returns (bool) {... */\n    tag_4:\n      tag_36\n      tag_37\n      calldatasize\n      0x04\n      tag_38\n      jump\t// in\n    tag_37:\n      tag_39\n      jump\t// in\n    tag_36:\n      mload(0x40)\n        /* \"#utility.yul\":1085:1099   */\n      swap1\n      iszero\n        /* \"#utility.yul\":1078:1100   */\n      iszero\n        /* \"#utility.yul\":1060:1101   */\n      dup2\n      mstore\n        /* \"#utility.yul\":1048:1050   */\n      0x20\n        /* \"#utility.yul\":1033:1051   */\n      add\n        /* \"@openzeppelin/contracts/token/ERC20/ERC20.sol\":3902:4088  function approve(address spender, uint256 value) public virtual returns (bool) {... */\n      tag_34\n        /* \"#utility.yul\":920:1107   */\n      jump\n        /* \"kcash.sol\":1552:1673  function setBlacklist(address _account, bool _state) external onlyOwner {... */\n    tag_5:\n      tag_42\n      tag_43\n      calldatasize\n      0x04\n      tag_44\n      jump\t// in\n    tag_43:\n      tag_45\n      jump\t// in\n    tag_42:\n      stop\n        /* \"kcash.sol\":829:860  bool public limitsEffect = true */\n    tag_6:\n      sload(0x07)\n      tag_36\n      swap1\n      0x0100\n      swap1\n      div\n      0xff\n      and\n      dup2\n      jump\n        /* \"@openzeppelin/contracts/token/ERC20/ERC20.sol\":2803:2900  function totalSupply() public view virtual returns (uint256) {... */\n    tag_7:\n        /* \"@openzeppelin/contracts/token/ERC20/ERC20.sol\":2881:2893  _totalSupply */\n      sload(0x02)\n        /* \"@openzeppelin/contracts/token/ERC20/ERC20.sol\":2803:2900  function totalSupply() public view virtual returns (uint256) {... */\n    tag_49:\n      mload(0x40)\n        /* \"#utility.yul\":1610:1635   */\n      swap1\n      dup2\n      mstore\n        /* \"#utility.yul\":1598:1600   */\n      0x20\n        /* \"#utility.yul\":1583:1601   */\n      add\n        /* \"@openzeppelin/contracts/token/ERC20/ERC20.sol\":2803:2900  function totalSupply() public view virtual returns (uint256) {... */\n      tag_34\n        /* \"#utility.yul\":1464:1641   */\n      jump\n        /* \"kcash.sol\":743:785  uint256 public maxLimit = 104_000 * 10**18 */\n    tag_8:\n      tag_49\n      sload(0x06)\n      dup2\n      jump\n        /* \"@openzeppelin/contracts/token/ERC20/ERC20.sol\":4680:4924  function transferFrom(address from, address to, uint256 value) public virtual returns (bool) {... */\n    tag_9:\n      tag_36\n      tag_57\n      calldatasize\n      0x04\n      tag_58\n      jump\t// in\n    tag_57:\n      tag_59\n      jump\t// in\n        /* \"kcash.sol\":1271:1449  function updateMaxLimit(uint256 _newLimitAmount) external onlyOwner {... */\n    tag_10:\n      tag_42\n      tag_62\n      calldatasize\n      0x04\n      tag_63\n      jump\t// in\n    tag_62:\n      tag_64\n      jump\t// in\n        /* \"kcash.sol\":1187:1265  function startTrading() external onlyOwner {... */\n    tag_11:\n      tag_42\n      tag_66\n      jump\t// in\n        /* \"@openzeppelin/contracts/token/ERC20/ERC20.sol\":2688:2770  function decimals() public view virtual returns (uint8) {... */\n    tag_12:\n      mload(0x40)\n        /* \"@openzeppelin/contracts/token/ERC20/ERC20.sol\":2761:2763  18 */\n      0x12\n        /* \"#utility.yul\":2398:2434   */\n      dup2\n      mstore\n        /* \"#utility.yul\":2386:2388   */\n      0x20\n        /* \"#utility.yul\":2371:2389   */\n      add\n        /* \"@openzeppelin/contracts/token/ERC20/ERC20.sol\":2688:2770  function decimals() public view virtual returns (uint8) {... */\n      tag_34\n        /* \"#utility.yul\":2256:2440   */\n      jump\n        /* \"kcash.sol\":681:737  uint256 public constant MAX_SUPPLY = 52_000_000 * 10**18 */\n    tag_13:\n      tag_49\n        /* \"kcash.sol\":718:737  52_000_000 * 10**18 */\n      0x2b036da601a044b4000000\n        /* \"kcash.sol\":681:737  uint256 public constant MAX_SUPPLY = 52_000_000 * 10**18 */\n      dup2\n      jump\n        /* \"@openzeppelin/contracts/token/ERC20/extensions/ERC20Burnable.sol\":618:705  function burn(uint256 value) public virtual {... */\n    tag_14:\n      tag_42\n      tag_75\n      calldatasize\n      0x04\n      tag_63\n      jump\t// in\n    tag_75:\n      tag_76\n      jump\t// in\n        /* \"kcash.sol\":919:971  mapping(address => bool) public isExcludedFromLimits */\n    tag_15:\n      tag_36\n      tag_78\n      calldatasize\n      0x04\n      tag_79\n      jump\t// in\n    tag_78:\n      mstore(0x20, 0x09)\n      0x00\n      swap1\n      dup2\n      mstore\n      0x40\n      swap1\n      keccak256\n      sload\n      0xff\n      and\n      dup2\n      jump\n        /* \"kcash.sol\":1455:1546  function removeLimitsPermanently() external onlyOwner {... */\n    tag_16:\n      tag_42\n      tag_83\n      jump\t// in\n        /* \"@openzeppelin/contracts/token/ERC20/ERC20.sol\":2933:3049  function balanceOf(address account) public view virtual returns (uint256) {... */\n    tag_17:\n      tag_49\n      tag_85\n      calldatasize\n      0x04\n      tag_79\n      jump\t// in\n    tag_85:\n      sub(shl(0xa0, 0x01), 0x01)\n        /* \"@openzeppelin/contracts/token/ERC20/ERC20.sol\":3024:3042  _balances[account] */\n      and\n        /* \"@openzeppelin/contracts/token/ERC20/ERC20.sol\":2998:3005  uint256 */\n      0x00\n        /* \"@openzeppelin/contracts/token/ERC20/ERC20.sol\":3024:3042  _balances[account] */\n      swap1\n      dup2\n      mstore\n      0x20\n      dup2\n      swap1\n      mstore\n      0x40\n      swap1\n      keccak256\n      sload\n      swap1\n        /* \"@openzeppelin/contracts/token/ERC20/ERC20.sol\":2933:3049  function balanceOf(address account) public view virtual returns (uint256) {... */\n      jump\n        /* \"@openzeppelin/contracts/access/Ownable.sol\":2293:2394  function renounceOwnership() public virtual onlyOwner {... */\n    tag_18:\n      tag_42\n      tag_89\n      jump\t// in\n        /* \"@openzeppelin/contracts/token/ERC20/extensions/ERC20Burnable.sol\":1021:1179  function burnFrom(address account, uint256 value) public virtual {... */\n    tag_19:\n      tag_42\n      tag_91\n      calldatasize\n      0x04\n      tag_38\n      jump\t// in\n    tag_91:\n      tag_92\n      jump\t// in\n        /* \"@openzeppelin/contracts/access/Ownable.sol\":1638:1723  function owner() public view virtual returns (address) {... */\n    tag_20:\n        /* \"@openzeppelin/contracts/access/Ownable.sol\":1710:1716  _owner */\n      sload(0x05)\n        /* \"@openzeppelin/contracts/access/Ownable.sol\":1638:1723  function owner() public view virtual returns (address) {... */\n      mload(0x40)\n      sub(shl(0xa0, 0x01), 0x01)\n        /* \"@openzeppelin/contracts/access/Ownable.sol\":1710:1716  _owner */\n      swap1\n      swap2\n      and\n        /* \"#utility.yul\":2782:2833   */\n      dup2\n      mstore\n        /* \"#utility.yul\":2770:2772   */\n      0x20\n        /* \"#utility.yul\":2755:2773   */\n      add\n        /* \"@openzeppelin/contracts/access/Ownable.sol\":1638:1723  function owner() public view virtual returns (address) {... */\n      tag_34\n        /* \"#utility.yul\":2636:2839   */\n      jump\n        /* \"@openzeppelin/contracts/token/ERC20/ERC20.sol\":1962:2055  function symbol() public view virtual returns (string memory) {... */\n    tag_21:\n      tag_32\n      tag_98\n      jump\t// in\n        /* \"@openzeppelin/contracts/token/ERC20/ERC20.sol\":3244:3422  function transfer(address to, uint256 value) public virtual returns (bool) {... */\n    tag_22:\n      tag_36\n      tag_101\n      calldatasize\n      0x04\n      tag_38\n      jump\t// in\n    tag_101:\n      tag_102\n      jump\t// in\n        /* \"kcash.sol\":1679:1812  function excludeFromLimits(address _account, bool _state) external onlyOwner {... */\n    tag_23:\n      tag_42\n      tag_105\n      calldatasize\n      0x04\n      tag_44\n      jump\t// in\n    tag_105:\n      tag_106\n      jump\t// in\n        /* \"@openzeppelin/contracts/token/ERC20/ERC20.sol\":3455:3595  function allowance(address owner, address spender) public view virtual returns (uint256) {... */\n    tag_24:\n      tag_49\n      tag_108\n      calldatasize\n      0x04\n      tag_109\n      jump\t// in\n    tag_108:\n      sub(shl(0xa0, 0x01), 0x01)\n        /* \"@openzeppelin/contracts/token/ERC20/ERC20.sol\":3561:3579  _allowances[owner] */\n      swap2\n      dup3\n      and\n        /* \"@openzeppelin/contracts/token/ERC20/ERC20.sol\":3535:3542  uint256 */\n      0x00\n        /* \"@openzeppelin/contracts/token/ERC20/ERC20.sol\":3561:3579  _allowances[owner] */\n      swap1\n      dup2\n      mstore\n        /* \"@openzeppelin/contracts/token/ERC20/ERC20.sol\":3561:3572  _allowances */\n      0x01\n        /* \"@openzeppelin/contracts/token/ERC20/ERC20.sol\":3561:3579  _allowances[owner] */\n      0x20\n      swap1\n      dup2\n      mstore\n      0x40\n      dup1\n      dup4\n      keccak256\n        /* \"@openzeppelin/contracts/token/ERC20/ERC20.sol\":3561:3588  _allowances[owner][spender] */\n      swap4\n      swap1\n      swap5\n      and\n      dup3\n      mstore\n      swap2\n      swap1\n      swap2\n      mstore\n      keccak256\n      sload\n      swap1\n        /* \"@openzeppelin/contracts/token/ERC20/ERC20.sol\":3455:3595  function allowance(address owner, address spender) public view virtual returns (uint256) {... */\n      jump\n        /* \"@openzeppelin/contracts/access/Ownable.sol\":2543:2758  function transferOwnership(address newOwner) public virtual onlyOwner {... */\n    tag_25:\n      tag_42\n      tag_113\n      calldatasize\n      0x04\n      tag_79\n      jump\t// in\n    tag_113:\n      tag_114\n      jump\t// in\n        /* \"kcash.sol\":868:913  mapping(address => bool) public isBlacklisted */\n    tag_26:\n      tag_36\n      tag_116\n      calldatasize\n      0x04\n      tag_79\n      jump\t// in\n    tag_116:\n      mstore(0x20, 0x08)\n      0x00\n      swap1\n      dup2\n      mstore\n      0x40\n      swap1\n      keccak256\n      sload\n      0xff\n      and\n      dup2\n      jump\n        /* \"kcash.sol\":792:823  bool public tradingOpen = false */\n    tag_27:\n      sload(0x07)\n      tag_36\n      swap1\n      0xff\n      and\n      dup2\n      jump\n        /* \"@openzeppelin/contracts/token/ERC20/ERC20.sol\":1760:1849  function name() public view virtual returns (string memory) {... */\n    tag_33:\n        /* \"@openzeppelin/contracts/token/ERC20/ERC20.sol\":1805:1818  string memory */\n      0x60\n        /* \"@openzeppelin/contracts/token/ERC20/ERC20.sol\":1837:1842  _name */\n      0x03\n        /* \"@openzeppelin/contracts/token/ERC20/ERC20.sol\":1830:1842  return _name */\n      dup1\n      sload\n      tag_123\n      swap1\n      tag_124\n      jump\t// in\n    tag_123:\n      dup1\n      0x1f\n      add\n      0x20\n      dup1\n      swap2\n      div\n      mul\n      0x20\n      add\n      mload(0x40)\n      swap1\n      dup2\n      add\n      0x40\n      mstore\n      dup1\n      swap3\n      swap2\n      swap1\n      dup2\n      dup2\n      mstore\n      0x20\n      add\n      dup3\n      dup1\n      sload\n      tag_125\n      swap1\n      tag_124\n      jump\t// in\n    tag_125:\n      dup1\n      iszero\n      tag_126\n      jumpi\n      dup1\n      0x1f\n      lt\n      tag_127\n      jumpi\n      0x0100\n      dup1\n      dup4\n      sload\n      div\n      mul\n      dup4\n      mstore\n      swap2\n      0x20\n      add\n      swap2\n      jump(tag_126)\n    tag_127:\n      dup3\n      add\n      swap2\n      swap1\n      0x00\n      mstore\n      keccak256(0x00, 0x20)\n      swap1\n    tag_128:\n      dup2\n      sload\n      dup2\n      mstore\n      swap1\n      0x01\n      add\n      swap1\n      0x20\n      add\n      dup1\n      dup4\n      gt\n      tag_128\n      jumpi\n      dup3\n      swap1\n      sub\n      0x1f\n      and\n      dup3\n      add\n      swap2\n    tag_126:\n      pop\n      pop\n      pop\n      pop\n      pop\n      swap1\n      pop\n        /* \"@openzeppelin/contracts/token/ERC20/ERC20.sol\":1760:1849  function name() public view virtual returns (string memory) {... */\n      swap1\n      jump\t// out\n        /* \"@openzeppelin/contracts/token/ERC20/ERC20.sol\":3902:4088  function approve(address spender, uint256 value) public virtual returns (bool) {... */\n    tag_39:\n        /* \"@openzeppelin/contracts/token/ERC20/ERC20.sol\":3975:3979  bool */\n      0x00\n        /* \"@openzeppelin/contracts/utils/Context.sol\":735:745  msg.sender */\n      caller\n        /* \"@openzeppelin/contracts/token/ERC20/ERC20.sol\":4029:4060  _approve(owner, spender, value) */\n      tag_132\n        /* \"@openzeppelin/contracts/utils/Context.sol\":735:745  msg.sender */\n      dup2\n        /* \"@openzeppelin/contracts/token/ERC20/ERC20.sol\":4045:4052  spender */\n      dup6\n        /* \"@openzeppelin/contracts/token/ERC20/ERC20.sol\":4054:4059  value */\n      dup6\n        /* \"@openzeppelin/contracts/token/ERC20/ERC20.sol\":4029:4037  _approve */\n      tag_133\n        /* \"@openzeppelin/contracts/token/ERC20/ERC20.sol\":4029:4060  _approve(owner, spender, value) */\n      jump\t// in\n    tag_132:\n        /* \"@openzeppelin/contracts/token/ERC20/ERC20.sol\":4077:4081  true */\n      0x01\n        /* \"@openzeppelin/contracts/token/ERC20/ERC20.sol\":4070:4081  return true */\n      swap2\n      pop\n      pop\n        /* \"@openzeppelin/contracts/token/ERC20/ERC20.sol\":3902:4088  function approve(address spender, uint256 value) public virtual returns (bool) {... */\n    tag_129:\n      swap3\n      swap2\n      pop\n      pop\n      jump\t// out\n        /* \"kcash.sol\":1552:1673  function setBlacklist(address _account, bool _state) external onlyOwner {... */\n    tag_45:\n        /* \"@openzeppelin/contracts/access/Ownable.sol\":1531:1544  _checkOwner() */\n      tag_135\n        /* \"@openzeppelin/contracts/access/Ownable.sol\":1531:1542  _checkOwner */\n      tag_136\n        /* \"@openzeppelin/contracts/access/Ownable.sol\":1531:1544  _checkOwner() */\n      jump\t// in\n    tag_135:\n      sub(shl(0xa0, 0x01), 0x01)\n        /* \"kcash.sol\":1634:1657  isBlacklisted[_account] */\n      swap2\n      swap1\n      swap2\n      and\n      0x00\n      swap1\n      dup2\n      mstore\n        /* \"kcash.sol\":1634:1647  isBlacklisted */\n      0x08\n        /* \"kcash.sol\":1634:1657  isBlacklisted[_account] */\n      0x20\n      mstore\n      0x40\n      swap1\n      keccak256\n        /* \"kcash.sol\":1634:1666  isBlacklisted[_account] = _state */\n      dup1\n      sload\n      not(0xff)\n      and\n      swap2\n      iszero\n      iszero\n      swap2\n      swap1\n      swap2\n      or\n      swap1\n      sstore\n        /* \"kcash.sol\":1552:1673  function setBlacklist(address _account, bool _state) external onlyOwner {... */\n      jump\t// out\n        /* \"@openzeppelin/contracts/token/ERC20/ERC20.sol\":4680:4924  function transferFrom(address from, address to, uint256 value) public virtual returns (bool) {... */\n    tag_59:\n        /* \"@openzeppelin/contracts/token/ERC20/ERC20.sol\":4767:4771  bool */\n      0x00\n        /* \"@openzeppelin/contracts/utils/Context.sol\":735:745  msg.sender */\n      caller\n        /* \"@openzeppelin/contracts/token/ERC20/ERC20.sol\":4823:4860  _spendAllowance(from, spender, value) */\n      tag_141\n        /* \"@openzeppelin/contracts/token/ERC20/ERC20.sol\":4839:4843  from */\n      dup6\n        /* \"@openzeppelin/contracts/utils/Context.sol\":735:745  msg.sender */\n      dup3\n        /* \"@openzeppelin/contracts/token/ERC20/ERC20.sol\":4854:4859  value */\n      dup6\n        /* \"@openzeppelin/contracts/token/ERC20/ERC20.sol\":4823:4838  _spendAllowance */\n      tag_142\n        /* \"@openzeppelin/contracts/token/ERC20/ERC20.sol\":4823:4860  _spendAllowance(from, spender, value) */\n      jump\t// in\n    tag_141:\n        /* \"@openzeppelin/contracts/token/ERC20/ERC20.sol\":4870:4896  _transfer(from, to, value) */\n      tag_143\n        /* \"@openzeppelin/contracts/token/ERC20/ERC20.sol\":4880:4884  from */\n      dup6\n        /* \"@openzeppelin/contracts/token/ERC20/ERC20.sol\":4886:4888  to */\n      dup6\n        /* \"@openzeppelin/contracts/token/ERC20/ERC20.sol\":4890:4895  value */\n      dup6\n        /* \"@openzeppelin/contracts/token/ERC20/ERC20.sol\":4870:4879  _transfer */\n      tag_144\n        /* \"@openzeppelin/contracts/token/ERC20/ERC20.sol\":4870:4896  _transfer(from, to, value) */\n      jump\t// in\n    tag_143:\n      pop\n        /* \"@openzeppelin/contracts/token/ERC20/ERC20.sol\":4913:4917  true */\n      0x01\n      swap5\n        /* \"@openzeppelin/contracts/token/ERC20/ERC20.sol\":4680:4924  function transferFrom(address from, address to, uint256 value) public virtual returns (bool) {... */\n      swap4\n      pop\n      pop\n      pop\n      pop\n      jump\t// out\n        /* \"kcash.sol\":1271:1449  function updateMaxLimit(uint256 _newLimitAmount) external onlyOwner {... */\n    tag_64:\n        /* \"@openzeppelin/contracts/access/Ownable.sol\":1531:1544  _checkOwner() */\n      tag_146\n        /* \"@openzeppelin/contracts/access/Ownable.sol\":1531:1542  _checkOwner */\n      tag_136\n        /* \"@openzeppelin/contracts/access/Ownable.sol\":1531:1544  _checkOwner() */\n      jump\t// in\n    tag_146:\n        /* \"kcash.sol\":1354:1366  limitsEffect */\n      sload(0x07)\n      0x0100\n      swap1\n      div\n      0xff\n      and\n        /* \"kcash.sol\":1349:1397  if (!limitsEffect) revert LimitsAlreadyRemoved() */\n      tag_148\n      jumpi\n        /* \"kcash.sol\":1375:1397  LimitsAlreadyRemoved() */\n      mload(0x40)\n      shl(0xe1, 0x5619eb0f)\n      dup2\n      mstore\n      0x04\n      add\n      mload(0x40)\n      dup1\n      swap2\n      sub\n      swap1\n      revert\n        /* \"kcash.sol\":1349:1397  if (!limitsEffect) revert LimitsAlreadyRemoved() */\n    tag_148:\n        /* \"kcash.sol\":1418:1442  _newLimitAmount * 10**18 */\n      tag_149\n        /* \"kcash.sol\":1418:1433  _newLimitAmount */\n      dup2\n        /* \"kcash.sol\":1436:1442  10**18 */\n      0x0de0b6b3a7640000\n        /* \"kcash.sol\":1418:1442  _newLimitAmount * 10**18 */\n      tag_150\n      jump\t// in\n    tag_149:\n        /* \"kcash.sol\":1407:1415  maxLimit */\n      0x06\n        /* \"kcash.sol\":1407:1442  maxLimit = _newLimitAmount * 10**18 */\n      sstore\n      pop\n        /* \"kcash.sol\":1271:1449  function updateMaxLimit(uint256 _newLimitAmount) external onlyOwner {... */\n      jump\t// out\n        /* \"kcash.sol\":1187:1265  function startTrading() external onlyOwner {... */\n    tag_66:\n        /* \"@openzeppelin/contracts/access/Ownable.sol\":1531:1544  _checkOwner() */\n      tag_152\n        /* \"@openzeppelin/contracts/access/Ownable.sol\":1531:1542  _checkOwner */\n      tag_136\n        /* \"@openzeppelin/contracts/access/Ownable.sol\":1531:1544  _checkOwner() */\n      jump\t// in\n    tag_152:\n        /* \"kcash.sol\":1240:1251  tradingOpen */\n      0x07\n        /* \"kcash.sol\":1240:1258  tradingOpen = true */\n      dup1\n      sload\n      not(0xff)\n      and\n        /* \"kcash.sol\":1254:1258  true */\n      0x01\n        /* \"kcash.sol\":1240:1258  tradingOpen = true */\n      or\n      swap1\n      sstore\n        /* \"kcash.sol\":1187:1265  function startTrading() external onlyOwner {... */\n      jump\t// out\n        /* \"@openzeppelin/contracts/token/ERC20/extensions/ERC20Burnable.sol\":618:705  function burn(uint256 value) public virtual {... */\n    tag_76:\n        /* \"@openzeppelin/contracts/token/ERC20/extensions/ERC20Burnable.sol\":672:698  _burn(_msgSender(), value) */\n      tag_156\n        /* \"@openzeppelin/contracts/utils/Context.sol\":735:745  msg.sender */\n      caller\n        /* \"@openzeppelin/contracts/token/ERC20/extensions/ERC20Burnable.sol\":692:697  value */\n      dup3\n        /* \"@openzeppelin/contracts/token/ERC20/extensions/ERC20Burnable.sol\":672:677  _burn */\n      tag_158\n        /* \"@openzeppelin/contracts/token/ERC20/extensions/ERC20Burnable.sol\":672:698  _burn(_msgSender(), value) */\n      jump\t// in\n    tag_156:\n        /* \"@openzeppelin/contracts/token/ERC20/extensions/ERC20Burnable.sol\":618:705  function burn(uint256 value) public virtual {... */\n      pop\n      jump\t// out\n        /* \"kcash.sol\":1455:1546  function removeLimitsPermanently() external onlyOwner {... */\n    tag_83:\n        /* \"@openzeppelin/contracts/access/Ownable.sol\":1531:1544  _checkOwner() */\n      tag_160\n        /* \"@openzeppelin/contracts/access/Ownable.sol\":1531:1542  _checkOwner */\n      tag_136\n        /* \"@openzeppelin/contracts/access/Ownable.sol\":1531:1544  _checkOwner() */\n      jump\t// in\n    tag_160:\n        /* \"kcash.sol\":1519:1531  limitsEffect */\n      0x07\n        /* \"kcash.sol\":1519:1539  limitsEffect = false */\n      dup1\n      sload\n      not(0xff00)\n      and\n      swap1\n      sstore\n        /* \"kcash.sol\":1455:1546  function removeLimitsPermanently() external onlyOwner {... */\n      jump\t// out\n        /* \"@openzeppelin/contracts/access/Ownable.sol\":2293:2394  function renounceOwnership() public virtual onlyOwner {... */\n    tag_89:\n        /* \"@openzeppelin/contracts/access/Ownable.sol\":1531:1544  _checkOwner() */\n      tag_164\n        /* \"@openzeppelin/contracts/access/Ownable.sol\":1531:1542  _checkOwner */\n      tag_136\n        /* \"@openzeppelin/contracts/access/Ownable.sol\":1531:1544  _checkOwner() */\n      jump\t// in\n    tag_164:\n        /* \"@openzeppelin/contracts/access/Ownable.sol\":2357:2387  _transferOwnership(address(0)) */\n      tag_166\n        /* \"@openzeppelin/contracts/access/Ownable.sol\":2384:2385  0 */\n      0x00\n        /* \"@openzeppelin/contracts/access/Ownable.sol\":2357:2375  _transferOwnership */\n      tag_167\n        /* \"@openzeppelin/contracts/access/Ownable.sol\":2357:2387  _transferOwnership(address(0)) */\n      jump\t// in\n    tag_166:\n        /* \"@openzeppelin/contracts/access/Ownable.sol\":2293:2394  function renounceOwnership() public virtual onlyOwner {... */\n      jump\t// out\n        /* \"@openzeppelin/contracts/token/ERC20/extensions/ERC20Burnable.sol\":1021:1179  function burnFrom(address account, uint256 value) public virtual {... */\n    tag_92:\n        /* \"@openzeppelin/contracts/token/ERC20/extensions/ERC20Burnable.sol\":1096:1141  _spendAllowance(account, _msgSender(), value) */\n      tag_169\n        /* \"@openzeppelin/contracts/token/ERC20/extensions/ERC20Burnable.sol\":1112:1119  account */\n      dup3\n        /* \"@openzeppelin/contracts/utils/Context.sol\":735:745  msg.sender */\n      caller\n        /* \"@openzeppelin/contracts/token/ERC20/extensions/ERC20Burnable.sol\":1135:1140  value */\n      dup4\n        /* \"@openzeppelin/contracts/token/ERC20/extensions/ERC20Burnable.sol\":1096:1111  _spendAllowance */\n      tag_142\n        /* \"@openzeppelin/contracts/token/ERC20/extensions/ERC20Burnable.sol\":1096:1141  _spendAllowance(account, _msgSender(), value) */\n      jump\t// in\n    tag_169:\n        /* \"@openzeppelin/contracts/token/ERC20/extensions/ERC20Burnable.sol\":1151:1172  _burn(account, value) */\n      tag_171\n        /* \"@openzeppelin/contracts/token/ERC20/extensions/ERC20Burnable.sol\":1157:1164  account */\n      dup3\n        /* \"@openzeppelin/contracts/token/ERC20/extensions/ERC20Burnable.sol\":1166:1171  value */\n      dup3\n        /* \"@openzeppelin/contracts/token/ERC20/extensions/ERC20Burnable.sol\":1151:1156  _burn */\n      tag_158\n        /* \"@openzeppelin/contracts/token/ERC20/extensions/ERC20Burnable.sol\":1151:1172  _burn(account, value) */\n      jump\t// in\n    tag_171:\n        /* \"@openzeppelin/contracts/token/ERC20/extensions/ERC20Burnable.sol\":1021:1179  function burnFrom(address account, uint256 value) public virtual {... */\n      pop\n      pop\n      jump\t// out\n        /* \"@openzeppelin/contracts/token/ERC20/ERC20.sol\":1962:2055  function symbol() public view virtual returns (string memory) {... */\n    tag_98:\n        /* \"@openzeppelin/contracts/token/ERC20/ERC20.sol\":2009:2022  string memory */\n      0x60\n        /* \"@openzeppelin/contracts/token/ERC20/ERC20.sol\":2041:2048  _symbol */\n      0x04\n        /* \"@openzeppelin/contracts/token/ERC20/ERC20.sol\":2034:2048  return _symbol */\n      dup1\n      sload\n      tag_123\n      swap1\n      tag_124\n      jump\t// in\n        /* \"@openzeppelin/contracts/token/ERC20/ERC20.sol\":3244:3422  function transfer(address to, uint256 value) public virtual returns (bool) {... */\n    tag_102:\n        /* \"@openzeppelin/contracts/token/ERC20/ERC20.sol\":3313:3317  bool */\n      0x00\n        /* \"@openzeppelin/contracts/utils/Context.sol\":735:745  msg.sender */\n      caller\n        /* \"@openzeppelin/contracts/token/ERC20/ERC20.sol\":3367:3394  _transfer(owner, to, value) */\n      tag_132\n        /* \"@openzeppelin/contracts/utils/Context.sol\":735:745  msg.sender */\n      dup2\n        /* \"@openzeppelin/contracts/token/ERC20/ERC20.sol\":3384:3386  to */\n      dup6\n        /* \"@openzeppelin/contracts/token/ERC20/ERC20.sol\":3388:3393  value */\n      dup6\n        /* \"@openzeppelin/contracts/token/ERC20/ERC20.sol\":3367:3376  _transfer */\n      tag_144\n        /* \"@openzeppelin/contracts/token/ERC20/ERC20.sol\":3367:3394  _transfer(owner, to, value) */\n      jump\t// in\n        /* \"kcash.sol\":1679:1812  function excludeFromLimits(address _account, bool _state) external onlyOwner {... */\n    tag_106:\n        /* \"@openzeppelin/contracts/access/Ownable.sol\":1531:1544  _checkOwner() */\n      tag_183\n        /* \"@openzeppelin/contracts/access/Ownable.sol\":1531:1542  _checkOwner */\n      tag_136\n        /* \"@openzeppelin/contracts/access/Ownable.sol\":1531:1544  _checkOwner() */\n      jump\t// in\n    tag_183:\n      sub(shl(0xa0, 0x01), 0x01)\n        /* \"kcash.sol\":1766:1796  isExcludedFromLimits[_account] */\n      swap2\n      swap1\n      swap2\n      and\n      0x00\n      swap1\n      dup2\n      mstore\n        /* \"kcash.sol\":1766:1786  isExcludedFromLimits */\n      0x09\n        /* \"kcash.sol\":1766:1796  isExcludedFromLimits[_account] */\n      0x20\n      mstore\n      0x40\n      swap1\n      keccak256\n        /* \"kcash.sol\":1766:1805  isExcludedFromLimits[_account] = _state */\n      dup1\n      sload\n      not(0xff)\n      and\n      swap2\n      iszero\n      iszero\n      swap2\n      swap1\n      swap2\n      or\n      swap1\n      sstore\n        /* \"kcash.sol\":1679:1812  function excludeFromLimits(address _account, bool _state) external onlyOwner {... */\n      jump\t// out\n        /* \"@openzeppelin/contracts/access/Ownable.sol\":2543:2758  function transferOwnership(address newOwner) public virtual onlyOwner {... */\n    tag_114:\n        /* \"@openzeppelin/contracts/access/Ownable.sol\":1531:1544  _checkOwner() */\n      tag_187\n        /* \"@openzeppelin/contracts/access/Ownable.sol\":1531:1542  _checkOwner */\n      tag_136\n        /* \"@openzeppelin/contracts/access/Ownable.sol\":1531:1544  _checkOwner() */\n      jump\t// in\n    tag_187:\n      sub(shl(0xa0, 0x01), 0x01)\n        /* \"@openzeppelin/contracts/access/Ownable.sol\":2627:2649  newOwner == address(0) */\n      dup2\n      and\n        /* \"@openzeppelin/contracts/access/Ownable.sol\":2623:2714  if (newOwner == address(0)) {... */\n      tag_189\n      jumpi\n        /* \"@openzeppelin/contracts/access/Ownable.sol\":2672:2703  OwnableInvalidOwner(address(0)) */\n      mload(0x40)\n      shl(0xe0, 0x1e4fbdf7)\n      dup2\n      mstore\n        /* \"@openzeppelin/contracts/access/Ownable.sol\":2700:2701  0 */\n      0x00\n        /* \"@openzeppelin/contracts/access/Ownable.sol\":2672:2703  OwnableInvalidOwner(address(0)) */\n      0x04\n      dup3\n      add\n        /* \"#utility.yul\":2782:2833   */\n      mstore\n        /* \"#utility.yul\":2755:2773   */\n      0x24\n      add\n        /* \"@openzeppelin/contracts/access/Ownable.sol\":2672:2703  OwnableInvalidOwner(address(0)) */\n    tag_190:\n      mload(0x40)\n      dup1\n      swap2\n      sub\n      swap1\n      revert\n        /* \"@openzeppelin/contracts/access/Ownable.sol\":2623:2714  if (newOwner == address(0)) {... */\n    tag_189:\n        /* \"@openzeppelin/contracts/access/Ownable.sol\":2723:2751  _transferOwnership(newOwner) */\n      tag_156\n        /* \"@openzeppelin/contracts/access/Ownable.sol\":2742:2750  newOwner */\n      dup2\n        /* \"@openzeppelin/contracts/access/Ownable.sol\":2723:2741  _transferOwnership */\n      tag_167\n        /* \"@openzeppelin/contracts/access/Ownable.sol\":2723:2751  _transferOwnership(newOwner) */\n      jump\t// in\n        /* \"@openzeppelin/contracts/token/ERC20/ERC20.sol\":8630:8758  function _approve(address owner, address spender, uint256 value) internal {... */\n    tag_133:\n        /* \"@openzeppelin/contracts/token/ERC20/ERC20.sol\":8714:8751  _approve(owner, spender, value, true) */\n      tag_194\n        /* \"@openzeppelin/contracts/token/ERC20/ERC20.sol\":8723:8728  owner */\n      dup4\n        /* \"@openzeppelin/contracts/token/ERC20/ERC20.sol\":8730:8737  spender */\n      dup4\n        /* \"@openzeppelin/contracts/token/ERC20/ERC20.sol\":8739:8744  value */\n      dup4\n        /* \"@openzeppelin/contracts/token/ERC20/ERC20.sol\":8746:8750  true */\n      0x01\n        /* \"@openzeppelin/contracts/token/ERC20/ERC20.sol\":8714:8722  _approve */\n      tag_195\n        /* \"@openzeppelin/contracts/token/ERC20/ERC20.sol\":8714:8751  _approve(owner, spender, value, true) */\n      jump\t// in\n    tag_194:\n        /* \"@openzeppelin/contracts/token/ERC20/ERC20.sol\":8630:8758  function _approve(address owner, address spender, uint256 value) internal {... */\n      pop\n      pop\n      pop\n      jump\t// out\n        /* \"@openzeppelin/contracts/access/Ownable.sol\":1796:1958  function _checkOwner() internal view virtual {... */\n    tag_136:\n        /* \"@openzeppelin/contracts/access/Ownable.sol\":1710:1716  _owner */\n      and(sub(shl(0xa0, 0x01), 0x01), sload(0x05))\n        /* \"@openzeppelin/contracts/utils/Context.sol\":735:745  msg.sender */\n      caller\n        /* \"@openzeppelin/contracts/access/Ownable.sol\":1855:1878  owner() != _msgSender() */\n      eq\n        /* \"@openzeppelin/contracts/access/Ownable.sol\":1851:1952  if (owner() != _msgSender()) {... */\n      tag_166\n      jumpi\n        /* \"@openzeppelin/contracts/access/Ownable.sol\":1901:1941  OwnableUnauthorizedAccount(_msgSender()) */\n      mload(0x40)\n      shl(0xe0, 0x118cdaa7)\n      dup2\n      mstore\n        /* \"@openzeppelin/contracts/utils/Context.sol\":735:745  msg.sender */\n      caller\n        /* \"@openzeppelin/contracts/access/Ownable.sol\":1901:1941  OwnableUnauthorizedAccount(_msgSender()) */\n      0x04\n      dup3\n      add\n        /* \"#utility.yul\":2782:2833   */\n      mstore\n        /* \"#utility.yul\":2755:2773   */\n      0x24\n      add\n        /* \"@openzeppelin/contracts/access/Ownable.sol\":1901:1941  OwnableUnauthorizedAccount(_msgSender()) */\n      tag_190\n        /* \"#utility.yul\":2636:2839   */\n      jump\n        /* \"@openzeppelin/contracts/token/ERC20/ERC20.sol\":10319:10795  function _spendAllowance(address owner, address spender, uint256 value) internal virtual {... */\n    tag_142:\n      sub(shl(0xa0, 0x01), 0x01)\n        /* \"@openzeppelin/contracts/token/ERC20/ERC20.sol\":3561:3579  _allowances[owner] */\n      dup4\n      dup2\n      and\n        /* \"@openzeppelin/contracts/token/ERC20/ERC20.sol\":10418:10442  uint256 currentAllowance */\n      0x00\n        /* \"@openzeppelin/contracts/token/ERC20/ERC20.sol\":3561:3579  _allowances[owner] */\n      swap1\n      dup2\n      mstore\n        /* \"@openzeppelin/contracts/token/ERC20/ERC20.sol\":3561:3572  _allowances */\n      0x01\n        /* \"@openzeppelin/contracts/token/ERC20/ERC20.sol\":3561:3579  _allowances[owner] */\n      0x20\n      swap1\n      dup2\n      mstore\n      0x40\n      dup1\n      dup4\n      keccak256\n        /* \"@openzeppelin/contracts/token/ERC20/ERC20.sol\":3561:3588  _allowances[owner][spender] */\n      swap4\n      dup7\n      and\n      dup4\n      mstore\n      swap3\n      swap1\n      mstore\n      keccak256\n      sload\n      not(0x00)\n        /* \"@openzeppelin/contracts/token/ERC20/ERC20.sol\":10484:10520  currentAllowance < type(uint256).max */\n      dup2\n      lt\n        /* \"@openzeppelin/contracts/token/ERC20/ERC20.sol\":10480:10789  if (currentAllowance < type(uint256).max) {... */\n      iszero\n      tag_208\n      jumpi\n        /* \"@openzeppelin/contracts/token/ERC20/ERC20.sol\":10559:10564  value */\n      dup2\n        /* \"@openzeppelin/contracts/token/ERC20/ERC20.sol\":10540:10556  currentAllowance */\n      dup2\n        /* \"@openzeppelin/contracts/token/ERC20/ERC20.sol\":10540:10564  currentAllowance < value */\n      lt\n        /* \"@openzeppelin/contracts/token/ERC20/ERC20.sol\":10536:10666  if (currentAllowance < value) {... */\n      iszero\n      tag_205\n      jumpi\n        /* \"@openzeppelin/contracts/token/ERC20/ERC20.sol\":10591:10651  ERC20InsufficientAllowance(spender, currentAllowance, value) */\n      mload(0x40)\n      shl(0xe1, 0x7dc7a0d9)\n      dup2\n      mstore\n      sub(shl(0xa0, 0x01), 0x01)\n        /* \"#utility.yul\":4019:4051   */\n      dup5\n      and\n        /* \"@openzeppelin/contracts/token/ERC20/ERC20.sol\":10591:10651  ERC20InsufficientAllowance(spender, currentAllowance, value) */\n      0x04\n      dup3\n      add\n        /* \"#utility.yul\":4001:4052   */\n      mstore\n        /* \"#utility.yul\":4068:4086   */\n      0x24\n      dup2\n      add\n        /* \"#utility.yul\":4061:4095   */\n      dup3\n      swap1\n      mstore\n        /* \"#utility.yul\":4111:4129   */\n      0x44\n      dup2\n      add\n        /* \"#utility.yul\":4104:4138   */\n      dup4\n      swap1\n      mstore\n        /* \"#utility.yul\":3974:3992   */\n      0x64\n      add\n        /* \"@openzeppelin/contracts/token/ERC20/ERC20.sol\":10591:10651  ERC20InsufficientAllowance(spender, currentAllowance, value) */\n      tag_190\n        /* \"#utility.yul\":3799:4144   */\n      jump\n        /* \"@openzeppelin/contracts/token/ERC20/ERC20.sol\":10536:10666  if (currentAllowance < value) {... */\n    tag_205:\n        /* \"@openzeppelin/contracts/token/ERC20/ERC20.sol\":10707:10764  _approve(owner, spender, currentAllowance - value, false) */\n      tag_208\n        /* \"@openzeppelin/contracts/token/ERC20/ERC20.sol\":10716:10721  owner */\n      dup5\n        /* \"@openzeppelin/contracts/token/ERC20/ERC20.sol\":10723:10730  spender */\n      dup5\n        /* \"@openzeppelin/contracts/token/ERC20/ERC20.sol\":10751:10756  value */\n      dup5\n        /* \"@openzeppelin/contracts/token/ERC20/ERC20.sol\":10732:10748  currentAllowance */\n      dup5\n        /* \"@openzeppelin/contracts/token/ERC20/ERC20.sol\":10732:10756  currentAllowance - value */\n      sub\n        /* \"@openzeppelin/contracts/token/ERC20/ERC20.sol\":10758:10763  false */\n      0x00\n        /* \"@openzeppelin/contracts/token/ERC20/ERC20.sol\":10707:10715  _approve */\n      tag_195\n        /* \"@openzeppelin/contracts/token/ERC20/ERC20.sol\":10707:10764  _approve(owner, spender, currentAllowance - value, false) */\n      jump\t// in\n    tag_208:\n        /* \"@openzeppelin/contracts/token/ERC20/ERC20.sol\":10408:10795  {... */\n      pop\n        /* \"@openzeppelin/contracts/token/ERC20/ERC20.sol\":10319:10795  function _spendAllowance(address owner, address spender, uint256 value) internal virtual {... */\n      pop\n      pop\n      pop\n      jump\t// out\n        /* \"@openzeppelin/contracts/token/ERC20/ERC20.sol\":5297:5597  function _transfer(address from, address to, uint256 value) internal {... */\n    tag_144:\n      sub(shl(0xa0, 0x01), 0x01)\n        /* \"@openzeppelin/contracts/token/ERC20/ERC20.sol\":5380:5398  from == address(0) */\n      dup4\n      and\n        /* \"@openzeppelin/contracts/token/ERC20/ERC20.sol\":5376:5462  if (from == address(0)) {... */\n      tag_210\n      jumpi\n        /* \"@openzeppelin/contracts/token/ERC20/ERC20.sol\":5421:5451  ERC20InvalidSender(address(0)) */\n      mload(0x40)\n      shl(0xe1, 0x4b637e8f)\n      dup2\n      mstore\n        /* \"@openzeppelin/contracts/token/ERC20/ERC20.sol\":5448:5449  0 */\n      0x00\n        /* \"@openzeppelin/contracts/token/ERC20/ERC20.sol\":5421:5451  ERC20InvalidSender(address(0)) */\n      0x04\n      dup3\n      add\n        /* \"#utility.yul\":2782:2833   */\n      mstore\n        /* \"#utility.yul\":2755:2773   */\n      0x24\n      add\n        /* \"@openzeppelin/contracts/token/ERC20/ERC20.sol\":5421:5451  ERC20InvalidSender(address(0)) */\n      tag_190\n        /* \"#utility.yul\":2636:2839   */\n      jump\n        /* \"@openzeppelin/contracts/token/ERC20/ERC20.sol\":5376:5462  if (from == address(0)) {... */\n    tag_210:\n      sub(shl(0xa0, 0x01), 0x01)\n        /* \"@openzeppelin/contracts/token/ERC20/ERC20.sol\":5475:5491  to == address(0) */\n      dup3\n      and\n        /* \"@openzeppelin/contracts/token/ERC20/ERC20.sol\":5471:5557  if (to == address(0)) {... */\n      tag_212\n      jumpi\n        /* \"@openzeppelin/contracts/token/ERC20/ERC20.sol\":5514:5546  ERC20InvalidReceiver(address(0)) */\n      mload(0x40)\n      shl(0xe0, 0xec442f05)\n      dup2\n      mstore\n        /* \"@openzeppelin/contracts/token/ERC20/ERC20.sol\":5543:5544  0 */\n      0x00\n        /* \"@openzeppelin/contracts/token/ERC20/ERC20.sol\":5514:5546  ERC20InvalidReceiver(address(0)) */\n      0x04\n      dup3\n      add\n        /* \"#utility.yul\":2782:2833   */\n      mstore\n        /* \"#utility.yul\":2755:2773   */\n      0x24\n      add\n        /* \"@openzeppelin/contracts/token/ERC20/ERC20.sol\":5514:5546  ERC20InvalidReceiver(address(0)) */\n      tag_190\n        /* \"#utility.yul\":2636:2839   */\n      jump\n        /* \"@openzeppelin/contracts/token/ERC20/ERC20.sol\":5471:5557  if (to == address(0)) {... */\n    tag_212:\n        /* \"@openzeppelin/contracts/token/ERC20/ERC20.sol\":5566:5590  _update(from, to, value) */\n      tag_194\n        /* \"@openzeppelin/contracts/token/ERC20/ERC20.sol\":5574:5578  from */\n      dup4\n        /* \"@openzeppelin/contracts/token/ERC20/ERC20.sol\":5580:5582  to */\n      dup4\n        /* \"@openzeppelin/contracts/token/ERC20/ERC20.sol\":5584:5589  value */\n      dup4\n        /* \"@openzeppelin/contracts/token/ERC20/ERC20.sol\":5566:5573  _update */\n      tag_215\n        /* \"@openzeppelin/contracts/token/ERC20/ERC20.sol\":5566:5590  _update(from, to, value) */\n      jump\t// in\n        /* \"@openzeppelin/contracts/token/ERC20/ERC20.sol\":7888:8094  function _burn(address account, uint256 value) internal {... */\n    tag_158:\n      sub(shl(0xa0, 0x01), 0x01)\n        /* \"@openzeppelin/contracts/token/ERC20/ERC20.sol\":7958:7979  account == address(0) */\n      dup3\n      and\n        /* \"@openzeppelin/contracts/token/ERC20/ERC20.sol\":7954:8043  if (account == address(0)) {... */\n      tag_217\n      jumpi\n        /* \"@openzeppelin/contracts/token/ERC20/ERC20.sol\":8002:8032  ERC20InvalidSender(address(0)) */\n      mload(0x40)\n      shl(0xe1, 0x4b637e8f)\n      dup2\n      mstore\n        /* \"@openzeppelin/contracts/token/ERC20/ERC20.sol\":8029:8030  0 */\n      0x00\n        /* \"@openzeppelin/contracts/token/ERC20/ERC20.sol\":8002:8032  ERC20InvalidSender(address(0)) */\n      0x04\n      dup3\n      add\n        /* \"#utility.yul\":2782:2833   */\n      mstore\n        /* \"#utility.yul\":2755:2773   */\n      0x24\n      add\n        /* \"@openzeppelin/contracts/token/ERC20/ERC20.sol\":8002:8032  ERC20InvalidSender(address(0)) */\n      tag_190\n        /* \"#utility.yul\":2636:2839   */\n      jump\n        /* \"@openzeppelin/contracts/token/ERC20/ERC20.sol\":7954:8043  if (account == address(0)) {... */\n    tag_217:\n        /* \"@openzeppelin/contracts/token/ERC20/ERC20.sol\":8052:8087  _update(account, address(0), value) */\n      tag_171\n        /* \"@openzeppelin/contracts/token/ERC20/ERC20.sol\":8060:8067  account */\n      dup3\n        /* \"@openzeppelin/contracts/token/ERC20/ERC20.sol\":8077:8078  0 */\n      0x00\n        /* \"@openzeppelin/contracts/token/ERC20/ERC20.sol\":8081:8086  value */\n      dup4\n        /* \"@openzeppelin/contracts/token/ERC20/ERC20.sol\":8052:8059  _update */\n      tag_215\n        /* \"@openzeppelin/contracts/token/ERC20/ERC20.sol\":8052:8087  _update(account, address(0), value) */\n      jump\t// in\n        /* \"@openzeppelin/contracts/access/Ownable.sol\":2912:3099  function _transferOwnership(address newOwner) internal virtual {... */\n    tag_167:\n        /* \"@openzeppelin/contracts/access/Ownable.sol\":3004:3010  _owner */\n      0x05\n      dup1\n      sload\n      sub(shl(0xa0, 0x01), 0x01)\n        /* \"@openzeppelin/contracts/access/Ownable.sol\":3020:3037  _owner = newOwner */\n      dup4\n      dup2\n      and\n      not(sub(shl(0xa0, 0x01), 0x01))\n      dup4\n      and\n      dup2\n      or\n      swap1\n      swap4\n      sstore\n        /* \"@openzeppelin/contracts/access/Ownable.sol\":3052:3092  OwnershipTransferred(oldOwner, newOwner) */\n      mload(0x40)\n        /* \"@openzeppelin/contracts/access/Ownable.sol\":3004:3010  _owner */\n      swap2\n      and\n      swap2\n        /* \"@openzeppelin/contracts/access/Ownable.sol\":3020:3037  _owner = newOwner */\n      swap1\n        /* \"@openzeppelin/contracts/access/Ownable.sol\":3004:3010  _owner */\n      dup3\n      swap1\n        /* \"@openzeppelin/contracts/access/Ownable.sol\":3052:3092  OwnershipTransferred(oldOwner, newOwner) */\n      0x8be0079c531659141344cd1fd0a4f28419497f9722a3daafe3b4186f6b6457e0\n      swap1\n        /* \"@openzeppelin/contracts/access/Ownable.sol\":2985:3001  address oldOwner */\n      0x00\n      swap1\n        /* \"@openzeppelin/contracts/access/Ownable.sol\":3052:3092  OwnershipTransferred(oldOwner, newOwner) */\n      log3\n        /* \"@openzeppelin/contracts/access/Ownable.sol\":2975:3099  {... */\n      pop\n        /* \"@openzeppelin/contracts/access/Ownable.sol\":2912:3099  function _transferOwnership(address newOwner) internal virtual {... */\n      pop\n      jump\t// out\n        /* \"@openzeppelin/contracts/token/ERC20/ERC20.sol\":9605:10037  function _approve(address owner, address spender, uint256 value, bool emitEvent) internal virtual {... */\n    tag_195:\n      sub(shl(0xa0, 0x01), 0x01)\n        /* \"@openzeppelin/contracts/token/ERC20/ERC20.sol\":9717:9736  owner == address(0) */\n      dup5\n      and\n        /* \"@openzeppelin/contracts/token/ERC20/ERC20.sol\":9713:9802  if (owner == address(0)) {... */\n      tag_222\n      jumpi\n        /* \"@openzeppelin/contracts/token/ERC20/ERC20.sol\":9759:9791  ERC20InvalidApprover(address(0)) */\n      mload(0x40)\n      shl(0xe0, 0xe602df05)\n      dup2\n      mstore\n        /* \"@openzeppelin/contracts/token/ERC20/ERC20.sol\":9788:9789  0 */\n      0x00\n        /* \"@openzeppelin/contracts/token/ERC20/ERC20.sol\":9759:9791  ERC20InvalidApprover(address(0)) */\n      0x04\n      dup3\n      add\n        /* \"#utility.yul\":2782:2833   */\n      mstore\n        /* \"#utility.yul\":2755:2773   */\n      0x24\n      add\n        /* \"@openzeppelin/contracts/token/ERC20/ERC20.sol\":9759:9791  ERC20InvalidApprover(address(0)) */\n      tag_190\n        /* \"#utility.yul\":2636:2839   */\n      jump\n        /* \"@openzeppelin/contracts/token/ERC20/ERC20.sol\":9713:9802  if (owner == address(0)) {... */\n    tag_222:\n      sub(shl(0xa0, 0x01), 0x01)\n        /* \"@openzeppelin/contracts/token/ERC20/ERC20.sol\":9815:9836  spender == address(0) */\n      dup4\n      and\n        /* \"@openzeppelin/contracts/token/ERC20/ERC20.sol\":9811:9901  if (spender == address(0)) {... */\n      tag_224\n      jumpi\n        /* \"@openzeppelin/contracts/token/ERC20/ERC20.sol\":9859:9890  ERC20InvalidSpender(address(0)) */\n      mload(0x40)\n      shl(0xe1, 0x4a1406b1)\n      dup2\n      mstore\n        /* \"@openzeppelin/contracts/token/ERC20/ERC20.sol\":9887:9888  0 */\n      0x00\n        /* \"@openzeppelin/contracts/token/ERC20/ERC20.sol\":9859:9890  ERC20InvalidSpender(address(0)) */\n      0x04\n      dup3\n      add\n        /* \"#utility.yul\":2782:2833   */\n      mstore\n        /* \"#utility.yul\":2755:2773   */\n      0x24\n      add\n        /* \"@openzeppelin/contracts/token/ERC20/ERC20.sol\":9859:9890  ERC20InvalidSpender(address(0)) */\n      tag_190\n        /* \"#utility.yul\":2636:2839   */\n      jump\n        /* \"@openzeppelin/contracts/token/ERC20/ERC20.sol\":9811:9901  if (spender == address(0)) {... */\n    tag_224:\n      sub(shl(0xa0, 0x01), 0x01)\n        /* \"@openzeppelin/contracts/token/ERC20/ERC20.sol\":9910:9928  _allowances[owner] */\n      dup1\n      dup6\n      and\n      0x00\n      swap1\n      dup2\n      mstore\n        /* \"@openzeppelin/contracts/token/ERC20/ERC20.sol\":9910:9921  _allowances */\n      0x01\n        /* \"@openzeppelin/contracts/token/ERC20/ERC20.sol\":9910:9928  _allowances[owner] */\n      0x20\n      swap1\n      dup2\n      mstore\n      0x40\n      dup1\n      dup4\n      keccak256\n        /* \"@openzeppelin/contracts/token/ERC20/ERC20.sol\":9910:9937  _allowances[owner][spender] */\n      swap4\n      dup8\n      and\n      dup4\n      mstore\n      swap3\n      swap1\n      mstore\n      keccak256\n        /* \"@openzeppelin/contracts/token/ERC20/ERC20.sol\":9910:9945  _allowances[owner][spender] = value */\n      dup3\n      swap1\n      sstore\n        /* \"@openzeppelin/contracts/token/ERC20/ERC20.sol\":9955:10031  if (emitEvent) {... */\n      dup1\n      iszero\n      tag_208\n      jumpi\n        /* \"@openzeppelin/contracts/token/ERC20/ERC20.sol\":10005:10012  spender */\n      dup3\n      sub(shl(0xa0, 0x01), 0x01)\n        /* \"@openzeppelin/contracts/token/ERC20/ERC20.sol\":9989:10020  Approval(owner, spender, value) */\n      and\n        /* \"@openzeppelin/contracts/token/ERC20/ERC20.sol\":9998:10003  owner */\n      dup5\n      sub(shl(0xa0, 0x01), 0x01)\n        /* \"@openzeppelin/contracts/token/ERC20/ERC20.sol\":9989:10020  Approval(owner, spender, value) */\n      and\n      0x8c5be1e5ebec7d5bd14f71427d1e84f3dd0314c0f7b2291e5b200ac8c7c3b925\n        /* \"@openzeppelin/contracts/token/ERC20/ERC20.sol\":10014:10019  value */\n      dup5\n        /* \"@openzeppelin/contracts/token/ERC20/ERC20.sol\":9989:10020  Approval(owner, spender, value) */\n      mload(0x40)\n      tag_227\n      swap2\n        /* \"#utility.yul\":1610:1635   */\n      dup2\n      mstore\n        /* \"#utility.yul\":1598:1600   */\n      0x20\n        /* \"#utility.yul\":1583:1601   */\n      add\n      swap1\n        /* \"#utility.yul\":1464:1641   */\n      jump\n        /* \"@openzeppelin/contracts/token/ERC20/ERC20.sol\":9989:10020  Approval(owner, spender, value) */\n    tag_227:\n      mload(0x40)\n      dup1\n      swap2\n      sub\n      swap1\n      log3\n        /* \"@openzeppelin/contracts/token/ERC20/ERC20.sol\":9605:10037  function _approve(address owner, address spender, uint256 value, bool emitEvent) internal virtual {... */\n      pop\n      pop\n      pop\n      pop\n      jump\t// out\n        /* \"kcash.sol\":1818:2400  function _update(address from, address to, uint256 value) internal virtual override {... */\n    tag_215:\n      sub(shl(0xa0, 0x01), 0x01)\n        /* \"kcash.sol\":1916:1942  isExcludedFromLimits[from] */\n      dup4\n      and\n      0x00\n      swap1\n      dup2\n      mstore\n        /* \"kcash.sol\":1916:1936  isExcludedFromLimits */\n      0x09\n        /* \"kcash.sol\":1916:1942  isExcludedFromLimits[from] */\n      0x20\n      mstore\n      0x40\n      swap1\n      keccak256\n      sload\n      0xff\n      and\n      dup1\n        /* \"kcash.sol\":1916:1970  isExcludedFromLimits[from] || isExcludedFromLimits[to] */\n      tag_229\n      jumpi\n      pop\n      sub(shl(0xa0, 0x01), 0x01)\n        /* \"kcash.sol\":1946:1970  isExcludedFromLimits[to] */\n      dup3\n      and\n      0x00\n      swap1\n      dup2\n      mstore\n        /* \"kcash.sol\":1946:1966  isExcludedFromLimits */\n      0x09\n        /* \"kcash.sol\":1946:1970  isExcludedFromLimits[to] */\n      0x20\n      mstore\n      0x40\n      swap1\n      keccak256\n      sload\n      0xff\n      and\n        /* \"kcash.sol\":1916:1970  isExcludedFromLimits[from] || isExcludedFromLimits[to] */\n    tag_229:\n        /* \"kcash.sol\":1912:2047  if (isExcludedFromLimits[from] || isExcludedFromLimits[to]) {... */\n      iszero\n      tag_230\n      jumpi\n        /* \"kcash.sol\":1986:2016  super._update(from, to, value) */\n      tag_194\n        /* \"kcash.sol\":2000:2004  from */\n      dup4\n        /* \"kcash.sol\":2006:2008  to */\n      dup4\n        /* \"kcash.sol\":2010:2015  value */\n      dup4\n        /* \"kcash.sol\":1986:1999  super._update */\n      tag_232\n        /* \"kcash.sol\":1986:2016  super._update(from, to, value) */\n      jump\t// in\n        /* \"kcash.sol\":1912:2047  if (isExcludedFromLimits[from] || isExcludedFromLimits[to]) {... */\n    tag_230:\n        /* \"kcash.sol\":2062:2073  tradingOpen */\n      and(0xff, sload(0x07))\n        /* \"kcash.sol\":2057:2098  if (!tradingOpen) revert TradingNotOpen() */\n      tag_233\n      jumpi\n        /* \"kcash.sol\":2082:2098  TradingNotOpen() */\n      mload(0x40)\n      shl(0xe0, 0xe09f0331)\n      dup2\n      mstore\n      0x04\n      add\n      mload(0x40)\n      dup1\n      swap2\n      sub\n      swap1\n      revert\n        /* \"kcash.sol\":2057:2098  if (!tradingOpen) revert TradingNotOpen() */\n    tag_233:\n      sub(shl(0xa0, 0x01), 0x01)\n        /* \"kcash.sol\":2112:2131  isBlacklisted[from] */\n      dup4\n      and\n      0x00\n      swap1\n      dup2\n      mstore\n        /* \"kcash.sol\":2112:2125  isBlacklisted */\n      0x08\n        /* \"kcash.sol\":2112:2131  isBlacklisted[from] */\n      0x20\n      mstore\n      0x40\n      swap1\n      keccak256\n      sload\n      0xff\n      and\n      dup1\n        /* \"kcash.sol\":2112:2152  isBlacklisted[from] || isBlacklisted[to] */\n      tag_234\n      jumpi\n      pop\n      sub(shl(0xa0, 0x01), 0x01)\n        /* \"kcash.sol\":2135:2152  isBlacklisted[to] */\n      dup3\n      and\n      0x00\n      swap1\n      dup2\n      mstore\n        /* \"kcash.sol\":2135:2148  isBlacklisted */\n      0x08\n        /* \"kcash.sol\":2135:2152  isBlacklisted[to] */\n      0x20\n      mstore\n      0x40\n      swap1\n      keccak256\n      sload\n      0xff\n      and\n        /* \"kcash.sol\":2112:2152  isBlacklisted[from] || isBlacklisted[to] */\n    tag_234:\n        /* \"kcash.sol\":2108:2174  if (isBlacklisted[from] || isBlacklisted[to]) revert Blacklisted() */\n      iszero\n      tag_235\n      jumpi\n        /* \"kcash.sol\":2161:2174  Blacklisted() */\n      mload(0x40)\n      shl(0xe0, 0x09550c77)\n      dup2\n      mstore\n      0x04\n      add\n      mload(0x40)\n      dup1\n      swap2\n      sub\n      swap1\n      revert\n        /* \"kcash.sol\":2108:2174  if (isBlacklisted[from] || isBlacklisted[to]) revert Blacklisted() */\n    tag_235:\n        /* \"kcash.sol\":2189:2201  limitsEffect */\n      sload(0x07)\n      0x0100\n      swap1\n      div\n      0xff\n      and\n        /* \"kcash.sol\":2185:2353  if (limitsEffect) {... */\n      iszero\n      tag_241\n      jumpi\n        /* \"kcash.sol\":2229:2237  maxLimit */\n      sload(0x06)\n        /* \"kcash.sol\":2221:2226  value */\n      dup2\n        /* \"kcash.sol\":2221:2237  value > maxLimit */\n      gt\n        /* \"kcash.sol\":2217:2263  if (value > maxLimit) revert ExceedsMaxLimit() */\n      iszero\n      tag_237\n      jumpi\n        /* \"kcash.sol\":2246:2263  ExceedsMaxLimit() */\n      mload(0x40)\n      shl(0xe7, 0x710557)\n      dup2\n      mstore\n      0x04\n      add\n      mload(0x40)\n      dup1\n      swap2\n      sub\n      swap1\n      revert\n        /* \"kcash.sol\":2217:2263  if (value > maxLimit) revert ExceedsMaxLimit() */\n    tag_237:\n        /* \"kcash.sol\":2305:2313  maxLimit */\n      sload(0x06)\n        /* \"kcash.sol\":2297:2302  value */\n      dup2\n        /* \"kcash.sol\":2281:2294  balanceOf(to) */\n      tag_238\n        /* \"kcash.sol\":2291:2293  to */\n      dup5\n      sub(shl(0xa0, 0x01), 0x01)\n        /* \"@openzeppelin/contracts/token/ERC20/ERC20.sol\":3024:3042  _balances[account] */\n      and\n        /* \"@openzeppelin/contracts/token/ERC20/ERC20.sol\":2998:3005  uint256 */\n      0x00\n        /* \"@openzeppelin/contracts/token/ERC20/ERC20.sol\":3024:3042  _balances[account] */\n      swap1\n      dup2\n      mstore\n      0x20\n      dup2\n      swap1\n      mstore\n      0x40\n      swap1\n      keccak256\n      sload\n      swap1\n        /* \"@openzeppelin/contracts/token/ERC20/ERC20.sol\":2933:3049  function balanceOf(address account) public view virtual returns (uint256) {... */\n      jump\n        /* \"kcash.sol\":2281:2294  balanceOf(to) */\n    tag_238:\n        /* \"kcash.sol\":2281:2302  balanceOf(to) + value */\n      tag_239\n      swap2\n      swap1\n      tag_240\n      jump\t// in\n    tag_239:\n        /* \"kcash.sol\":2281:2313  balanceOf(to) + value > maxLimit */\n      gt\n        /* \"kcash.sol\":2277:2342  if (balanceOf(to) + value > maxLimit) revert WalletLimitReached() */\n      iszero\n      tag_241\n      jumpi\n        /* \"kcash.sol\":2322:2342  WalletLimitReached() */\n      mload(0x40)\n      shl(0xe1, 0x426d5b23)\n      dup2\n      mstore\n      0x04\n      add\n      mload(0x40)\n      dup1\n      swap2\n      sub\n      swap1\n      revert\n        /* \"kcash.sol\":2277:2342  if (balanceOf(to) + value > maxLimit) revert WalletLimitReached() */\n    tag_241:\n        /* \"kcash.sol\":2363:2393  super._update(from, to, value) */\n      tag_194\n        /* \"kcash.sol\":2377:2381  from */\n      dup4\n        /* \"kcash.sol\":2383:2385  to */\n      dup4\n        /* \"kcash.sol\":2387:2392  value */\n      dup4\n        /* \"@openzeppelin/contracts/token/ERC20/ERC20.sol\":5912:7019  function _update(address from, address to, uint256 value) internal virtual {... */\n    tag_232:\n      sub(shl(0xa0, 0x01), 0x01)\n        /* \"@openzeppelin/contracts/token/ERC20/ERC20.sol\":6001:6019  from == address(0) */\n      dup4\n      and\n        /* \"@openzeppelin/contracts/token/ERC20/ERC20.sol\":5997:6537  if (from == address(0)) {... */\n      tag_244\n      jumpi\n        /* \"@openzeppelin/contracts/token/ERC20/ERC20.sol\":6153:6158  value */\n      dup1\n        /* \"@openzeppelin/contracts/token/ERC20/ERC20.sol\":6137:6149  _totalSupply */\n      0x02\n      0x00\n        /* \"@openzeppelin/contracts/token/ERC20/ERC20.sol\":6137:6158  _totalSupply += value */\n      dup3\n      dup3\n      sload\n      tag_245\n      swap2\n      swap1\n      tag_240\n      jump\t// in\n    tag_245:\n      swap1\n      swap2\n      sstore\n      pop\n        /* \"@openzeppelin/contracts/token/ERC20/ERC20.sol\":5997:6537  if (from == address(0)) {... */\n      tag_246\n      swap1\n      pop\n      jump\n    tag_244:\n      sub(shl(0xa0, 0x01), 0x01)\n        /* \"@openzeppelin/contracts/token/ERC20/ERC20.sol\":6211:6226  _balances[from] */\n      dup4\n      and\n        /* \"@openzeppelin/contracts/token/ERC20/ERC20.sol\":6189:6208  uint256 fromBalance */\n      0x00\n        /* \"@openzeppelin/contracts/token/ERC20/ERC20.sol\":6211:6226  _balances[from] */\n      swap1\n      dup2\n      mstore\n      0x20\n      dup2\n      swap1\n      mstore\n      0x40\n      swap1\n      keccak256\n      sload\n        /* \"@openzeppelin/contracts/token/ERC20/ERC20.sol\":6244:6263  fromBalance < value */\n      dup2\n      dup2\n      lt\n        /* \"@openzeppelin/contracts/token/ERC20/ERC20.sol\":6240:6355  if (fromBalance < value) {... */\n      iszero\n      tag_247\n      jumpi\n        /* \"@openzeppelin/contracts/token/ERC20/ERC20.sol\":6290:6340  ERC20InsufficientBalance(from, fromBalance, value) */\n      mload(0x40)\n      shl(0xe2, 0x391434e3)\n      dup2\n      mstore\n      sub(shl(0xa0, 0x01), 0x01)\n        /* \"#utility.yul\":4019:4051   */\n      dup6\n      and\n        /* \"@openzeppelin/contracts/token/ERC20/ERC20.sol\":6290:6340  ERC20InsufficientBalance(from, fromBalance, value) */\n      0x04\n      dup3\n      add\n        /* \"#utility.yul\":4001:4052   */\n      mstore\n        /* \"#utility.yul\":4068:4086   */\n      0x24\n      dup2\n      add\n        /* \"#utility.yul\":4061:4095   */\n      dup3\n      swap1\n      mstore\n        /* \"#utility.yul\":4111:4129   */\n      0x44\n      dup2\n      add\n        /* \"#utility.yul\":4104:4138   */\n      dup4\n      swap1\n      mstore\n        /* \"#utility.yul\":3974:3992   */\n      0x64\n      add\n        /* \"@openzeppelin/contracts/token/ERC20/ERC20.sol\":6290:6340  ERC20InsufficientBalance(from, fromBalance, value) */\n      tag_190\n        /* \"#utility.yul\":3799:4144   */\n      jump\n        /* \"@openzeppelin/contracts/token/ERC20/ERC20.sol\":6240:6355  if (fromBalance < value) {... */\n    tag_247:\n      sub(shl(0xa0, 0x01), 0x01)\n        /* \"@openzeppelin/contracts/token/ERC20/ERC20.sol\":6475:6490  _balances[from] */\n      dup5\n      and\n        /* \"@openzeppelin/contracts/token/ERC20/ERC20.sol\":6475:6484  _balances */\n      0x00\n        /* \"@openzeppelin/contracts/token/ERC20/ERC20.sol\":6475:6490  _balances[from] */\n      swap1\n      dup2\n      mstore\n      0x20\n      dup2\n      swap1\n      mstore\n      0x40\n      swap1\n      keccak256\n        /* \"@openzeppelin/contracts/token/ERC20/ERC20.sol\":6493:6512  fromBalance - value */\n      swap1\n      dup3\n      swap1\n      sub\n        /* \"@openzeppelin/contracts/token/ERC20/ERC20.sol\":6475:6512  _balances[from] = fromBalance - value */\n      swap1\n      sstore\n        /* \"@openzeppelin/contracts/token/ERC20/ERC20.sol\":5997:6537  if (from == address(0)) {... */\n    tag_246:\n      sub(shl(0xa0, 0x01), 0x01)\n        /* \"@openzeppelin/contracts/token/ERC20/ERC20.sol\":6551:6567  to == address(0) */\n      dup3\n      and\n        /* \"@openzeppelin/contracts/token/ERC20/ERC20.sol\":6547:6972  if (to == address(0)) {... */\n      tag_249\n      jumpi\n        /* \"@openzeppelin/contracts/token/ERC20/ERC20.sol\":6714:6726  _totalSupply */\n      0x02\n        /* \"@openzeppelin/contracts/token/ERC20/ERC20.sol\":6714:6735  _totalSupply -= value */\n      dup1\n      sload\n      dup3\n      swap1\n      sub\n      swap1\n      sstore\n        /* \"@openzeppelin/contracts/token/ERC20/ERC20.sol\":6547:6972  if (to == address(0)) {... */\n      jump(tag_250)\n    tag_249:\n      sub(shl(0xa0, 0x01), 0x01)\n        /* \"@openzeppelin/contracts/token/ERC20/ERC20.sol\":6925:6938  _balances[to] */\n      dup3\n      and\n        /* \"@openzeppelin/contracts/token/ERC20/ERC20.sol\":6925:6934  _balances */\n      0x00\n        /* \"@openzeppelin/contracts/token/ERC20/ERC20.sol\":6925:6938  _balances[to] */\n      swap1\n      dup2\n      mstore\n      0x20\n      dup2\n      swap1\n      mstore\n      0x40\n      swap1\n      keccak256\n        /* \"@openzeppelin/contracts/token/ERC20/ERC20.sol\":6925:6947  _balances[to] += value */\n      dup1\n      sload\n      dup3\n      add\n      swap1\n      sstore\n        /* \"@openzeppelin/contracts/token/ERC20/ERC20.sol\":6547:6972  if (to == address(0)) {... */\n    tag_250:\n        /* \"@openzeppelin/contracts/token/ERC20/ERC20.sol\":7002:7004  to */\n      dup2\n      sub(shl(0xa0, 0x01), 0x01)\n        /* \"@openzeppelin/contracts/token/ERC20/ERC20.sol\":6987:7012  Transfer(from, to, value) */\n      and\n        /* \"@openzeppelin/contracts/token/ERC20/ERC20.sol\":6996:7000  from */\n      dup4\n      sub(shl(0xa0, 0x01), 0x01)\n        /* \"@openzeppelin/contracts/token/ERC20/ERC20.sol\":6987:7012  Transfer(from, to, value) */\n      and\n      0xddf252ad1be2c89b69c2b068fc378daa952ba7f163c4a11628f55a4df523b3ef\n        /* \"@openzeppelin/contracts/token/ERC20/ERC20.sol\":7006:7011  value */\n      dup4\n        /* \"@openzeppelin/contracts/token/ERC20/ERC20.sol\":6987:7012  Transfer(from, to, value) */\n      mload(0x40)\n      tag_251\n      swap2\n        /* \"#utility.yul\":1610:1635   */\n      dup2\n      mstore\n        /* \"#utility.yul\":1598:1600   */\n      0x20\n        /* \"#utility.yul\":1583:1601   */\n      add\n      swap1\n        /* \"#utility.yul\":1464:1641   */\n      jump\n        /* \"@openzeppelin/contracts/token/ERC20/ERC20.sol\":6987:7012  Transfer(from, to, value) */\n    tag_251:\n      mload(0x40)\n      dup1\n      swap2\n      sub\n      swap1\n      log3\n        /* \"@openzeppelin/contracts/token/ERC20/ERC20.sol\":5912:7019  function _update(address from, address to, uint256 value) internal virtual {... */\n      pop\n      pop\n      pop\n      jump\t// out\n        /* \"#utility.yul\":14:432   */\n    tag_35:\n        /* \"#utility.yul\":163:165   */\n      0x20\n        /* \"#utility.yul\":152:161   */\n      dup2\n        /* \"#utility.yul\":145:166   */\n      mstore\n        /* \"#utility.yul\":126:130   */\n      0x00\n        /* \"#utility.yul\":195:201   */\n      dup3\n        /* \"#utility.yul\":189:202   */\n      mload\n        /* \"#utility.yul\":238:244   */\n      dup1\n        /* \"#utility.yul\":233:235   */\n      0x20\n        /* \"#utility.yul\":222:231   */\n      dup5\n        /* \"#utility.yul\":218:236   */\n      add\n        /* \"#utility.yul\":211:245   */\n      mstore\n        /* \"#utility.yul\":297:303   */\n      dup1\n        /* \"#utility.yul\":292:294   */\n      0x20\n        /* \"#utility.yul\":284:290   */\n      dup6\n        /* \"#utility.yul\":280:295   */\n      add\n        /* \"#utility.yul\":275:277   */\n      0x40\n        /* \"#utility.yul\":264:273   */\n      dup6\n        /* \"#utility.yul\":260:278   */\n      add\n        /* \"#utility.yul\":254:304   */\n      mcopy\n        /* \"#utility.yul\":353:354   */\n      0x00\n        /* \"#utility.yul\":348:350   */\n      0x40\n        /* \"#utility.yul\":339:345   */\n      dup3\n        /* \"#utility.yul\":328:337   */\n      dup6\n        /* \"#utility.yul\":324:346   */\n      add\n        /* \"#utility.yul\":320:351   */\n      add\n        /* \"#utility.yul\":313:355   */\n      mstore\n        /* \"#utility.yul\":423:425   */\n      0x40\n        /* \"#utility.yul\":416:418   */\n      0x1f\n        /* \"#utility.yul\":412:419   */\n      not\n        /* \"#utility.yul\":407:409   */\n      0x1f\n        /* \"#utility.yul\":399:405   */\n      dup4\n        /* \"#utility.yul\":395:410   */\n      add\n        /* \"#utility.yul\":391:420   */\n      and\n        /* \"#utility.yul\":380:389   */\n      dup5\n        /* \"#utility.yul\":376:421   */\n      add\n        /* \"#utility.yul\":372:426   */\n      add\n        /* \"#utility.yul\":364:426   */\n      swap2\n      pop\n      pop\n        /* \"#utility.yul\":14:432   */\n      swap3\n      swap2\n      pop\n      pop\n      jump\t// out\n        /* \"#utility.yul\":437:610   */\n    tag_252:\n        /* \"#utility.yul\":505:525   */\n      dup1\n      calldataload\n      sub(shl(0xa0, 0x01), 0x01)\n        /* \"#utility.yul\":554:585   */\n      dup2\n      and\n        /* \"#utility.yul\":544:586   */\n      dup2\n      eq\n        /* \"#utility.yul\":534:604   */\n      tag_257\n      jumpi\n        /* \"#utility.yul\":600:601   */\n      0x00\n        /* \"#utility.yul\":597:598   */\n      0x00\n        /* \"#utility.yul\":590:602   */\n      revert\n        /* \"#utility.yul\":534:604   */\n    tag_257:\n        /* \"#utility.yul\":437:610   */\n      swap2\n      swap1\n      pop\n      jump\t// out\n        /* \"#utility.yul\":615:915   */\n    tag_38:\n        /* \"#utility.yul\":683:689   */\n      0x00\n        /* \"#utility.yul\":691:697   */\n      0x00\n        /* \"#utility.yul\":744:746   */\n      0x40\n        /* \"#utility.yul\":732:741   */\n      dup4\n        /* \"#utility.yul\":723:730   */\n      dup6\n        /* \"#utility.yul\":719:742   */\n      sub\n        /* \"#utility.yul\":715:747   */\n      slt\n        /* \"#utility.yul\":712:764   */\n      iszero\n      tag_259\n      jumpi\n        /* \"#utility.yul\":760:761   */\n      0x00\n        /* \"#utility.yul\":757:758   */\n      0x00\n        /* \"#utility.yul\":750:762   */\n      revert\n        /* \"#utility.yul\":712:764   */\n    tag_259:\n        /* \"#utility.yul\":783:812   */\n      tag_260\n        /* \"#utility.yul\":802:811   */\n      dup4\n        /* \"#utility.yul\":783:812   */\n      tag_252\n      jump\t// in\n    tag_260:\n        /* \"#utility.yul\":773:812   */\n      swap5\n        /* \"#utility.yul\":881:883   */\n      0x20\n        /* \"#utility.yul\":866:884   */\n      swap4\n      swap1\n      swap4\n      add\n        /* \"#utility.yul\":853:885   */\n      calldataload\n      swap4\n      pop\n      pop\n      pop\n        /* \"#utility.yul\":615:915   */\n      jump\t// out\n        /* \"#utility.yul\":1112:1459   */\n    tag_44:\n        /* \"#utility.yul\":1177:1183   */\n      0x00\n        /* \"#utility.yul\":1185:1191   */\n      0x00\n        /* \"#utility.yul\":1238:1240   */\n      0x40\n        /* \"#utility.yul\":1226:1235   */\n      dup4\n        /* \"#utility.yul\":1217:1224   */\n      dup6\n        /* \"#utility.yul\":1213:1236   */\n      sub\n        /* \"#utility.yul\":1209:1241   */\n      slt\n        /* \"#utility.yul\":1206:1258   */\n      iszero\n      tag_263\n      jumpi\n        /* \"#utility.yul\":1254:1255   */\n      0x00\n        /* \"#utility.yul\":1251:1252   */\n      0x00\n        /* \"#utility.yul\":1244:1256   */\n      revert\n        /* \"#utility.yul\":1206:1258   */\n    tag_263:\n        /* \"#utility.yul\":1277:1306   */\n      tag_264\n        /* \"#utility.yul\":1296:1305   */\n      dup4\n        /* \"#utility.yul\":1277:1306   */\n      tag_252\n      jump\t// in\n    tag_264:\n        /* \"#utility.yul\":1267:1306   */\n      swap2\n      pop\n        /* \"#utility.yul\":1356:1358   */\n      0x20\n        /* \"#utility.yul\":1345:1354   */\n      dup4\n        /* \"#utility.yul\":1341:1359   */\n      add\n        /* \"#utility.yul\":1328:1360   */\n      calldataload\n        /* \"#utility.yul\":1403:1408   */\n      dup1\n        /* \"#utility.yul\":1396:1409   */\n      iszero\n        /* \"#utility.yul\":1389:1410   */\n      iszero\n        /* \"#utility.yul\":1382:1387   */\n      dup2\n        /* \"#utility.yul\":1379:1411   */\n      eq\n        /* \"#utility.yul\":1369:1429   */\n      tag_265\n      jumpi\n        /* \"#utility.yul\":1425:1426   */\n      0x00\n        /* \"#utility.yul\":1422:1423   */\n      0x00\n        /* \"#utility.yul\":1415:1427   */\n      revert\n        /* \"#utility.yul\":1369:1429   */\n    tag_265:\n        /* \"#utility.yul\":1448:1453   */\n      dup1\n        /* \"#utility.yul\":1438:1453   */\n      swap2\n      pop\n      pop\n        /* \"#utility.yul\":1112:1459   */\n      swap3\n      pop\n      swap3\n      swap1\n      pop\n      jump\t// out\n        /* \"#utility.yul\":1646:2020   */\n    tag_58:\n        /* \"#utility.yul\":1723:1729   */\n      0x00\n        /* \"#utility.yul\":1731:1737   */\n      0x00\n        /* \"#utility.yul\":1739:1745   */\n      0x00\n        /* \"#utility.yul\":1792:1794   */\n      0x60\n        /* \"#utility.yul\":1780:1789   */\n      dup5\n        /* \"#utility.yul\":1771:1778   */\n      dup7\n        /* \"#utility.yul\":1767:1790   */\n      sub\n        /* \"#utility.yul\":1763:1795   */\n      slt\n        /* \"#utility.yul\":1760:1812   */\n      iszero\n      tag_268\n      jumpi\n        /* \"#utility.yul\":1808:1809   */\n      0x00\n        /* \"#utility.yul\":1805:1806   */\n      0x00\n        /* \"#utility.yul\":1798:1810   */\n      revert\n        /* \"#utility.yul\":1760:1812   */\n    tag_268:\n        /* \"#utility.yul\":1831:1860   */\n      tag_269\n        /* \"#utility.yul\":1850:1859   */\n      dup5\n        /* \"#utility.yul\":1831:1860   */\n      tag_252\n      jump\t// in\n    tag_269:\n        /* \"#utility.yul\":1821:1860   */\n      swap3\n      pop\n        /* \"#utility.yul\":1879:1917   */\n      tag_270\n        /* \"#utility.yul\":1913:1915   */\n      0x20\n        /* \"#utility.yul\":1902:1911   */\n      dup6\n        /* \"#utility.yul\":1898:1916   */\n      add\n        /* \"#utility.yul\":1879:1917   */\n      tag_252\n      jump\t// in\n    tag_270:\n        /* \"#utility.yul\":1646:2020   */\n      swap3\n      swap6\n        /* \"#utility.yul\":1869:1917   */\n      swap3\n      swap5\n      pop\n      pop\n      pop\n        /* \"#utility.yul\":1986:1988   */\n      0x40\n        /* \"#utility.yul\":1971:1989   */\n      swap2\n      swap1\n      swap2\n      add\n        /* \"#utility.yul\":1958:1990   */\n      calldataload\n      swap1\n        /* \"#utility.yul\":1646:2020   */\n      jump\t// out\n        /* \"#utility.yul\":2025:2251   */\n    tag_63:\n        /* \"#utility.yul\":2084:2090   */\n      0x00\n        /* \"#utility.yul\":2137:2139   */\n      0x20\n        /* \"#utility.yul\":2125:2134   */\n      dup3\n        /* \"#utility.yul\":2116:2123   */\n      dup5\n        /* \"#utility.yul\":2112:2135   */\n      sub\n        /* \"#utility.yul\":2108:2140   */\n      slt\n        /* \"#utility.yul\":2105:2157   */\n      iszero\n      tag_272\n      jumpi\n        /* \"#utility.yul\":2153:2154   */\n      0x00\n        /* \"#utility.yul\":2150:2151   */\n      0x00\n        /* \"#utility.yul\":2143:2155   */\n      revert\n        /* \"#utility.yul\":2105:2157   */\n    tag_272:\n      pop\n        /* \"#utility.yul\":2198:2221   */\n      calldataload\n      swap2\n        /* \"#utility.yul\":2025:2251   */\n      swap1\n      pop\n      jump\t// out\n        /* \"#utility.yul\":2445:2631   */\n    tag_79:\n        /* \"#utility.yul\":2504:2510   */\n      0x00\n        /* \"#utility.yul\":2557:2559   */\n      0x20\n        /* \"#utility.yul\":2545:2554   */\n      dup3\n        /* \"#utility.yul\":2536:2543   */\n      dup5\n        /* \"#utility.yul\":2532:2555   */\n      sub\n        /* \"#utility.yul\":2528:2560   */\n      slt\n        /* \"#utility.yul\":2525:2577   */\n      iszero\n      tag_275\n      jumpi\n        /* \"#utility.yul\":2573:2574   */\n      0x00\n        /* \"#utility.yul\":2570:2571   */\n      0x00\n        /* \"#utility.yul\":2563:2575   */\n      revert\n        /* \"#utility.yul\":2525:2577   */\n    tag_275:\n        /* \"#utility.yul\":2596:2625   */\n      tag_276\n        /* \"#utility.yul\":2615:2624   */\n      dup3\n        /* \"#utility.yul\":2596:2625   */\n      tag_252\n      jump\t// in\n    tag_276:\n        /* \"#utility.yul\":2586:2625   */\n      swap4\n        /* \"#utility.yul\":2445:2631   */\n      swap3\n      pop\n      pop\n      pop\n      jump\t// out\n        /* \"#utility.yul\":2844:3104   */\n    tag_109:\n        /* \"#utility.yul\":2912:2918   */\n      0x00\n        /* \"#utility.yul\":2920:2926   */\n      0x00\n        /* \"#utility.yul\":2973:2975   */\n      0x40\n        /* \"#utility.yul\":2961:2970   */\n      dup4\n        /* \"#utility.yul\":2952:2959   */\n      dup6\n        /* \"#utility.yul\":2948:2971   */\n      sub\n        /* \"#utility.yul\":2944:2976   */\n      slt\n        /* \"#utility.yul\":2941:2993   */\n      iszero\n      tag_279\n      jumpi\n        /* \"#utility.yul\":2989:2990   */\n      0x00\n        /* \"#utility.yul\":2986:2987   */\n      0x00\n        /* \"#utility.yul\":2979:2991   */\n      revert\n        /* \"#utility.yul\":2941:2993   */\n    tag_279:\n        /* \"#utility.yul\":3012:3041   */\n      tag_280\n        /* \"#utility.yul\":3031:3040   */\n      dup4\n        /* \"#utility.yul\":3012:3041   */\n      tag_252\n      jump\t// in\n    tag_280:\n        /* \"#utility.yul\":3002:3041   */\n      swap2\n      pop\n        /* \"#utility.yul\":3060:3098   */\n      tag_281\n        /* \"#utility.yul\":3094:3096   */\n      0x20\n        /* \"#utility.yul\":3083:3092   */\n      dup5\n        /* \"#utility.yul\":3079:3097   */\n      add\n        /* \"#utility.yul\":3060:3098   */\n      tag_252\n      jump\t// in\n    tag_281:\n        /* \"#utility.yul\":3050:3098   */\n      swap1\n      pop\n        /* \"#utility.yul\":2844:3104   */\n      swap3\n      pop\n      swap3\n      swap1\n      pop\n      jump\t// out\n        /* \"#utility.yul\":3109:3489   */\n    tag_124:\n        /* \"#utility.yul\":3188:3189   */\n      0x01\n        /* \"#utility.yul\":3184:3196   */\n      dup2\n      dup2\n      shr\n      swap1\n        /* \"#utility.yul\":3231:3243   */\n      dup3\n      and\n      dup1\n        /* \"#utility.yul\":3252:3313   */\n      tag_283\n      jumpi\n        /* \"#utility.yul\":3306:3310   */\n      0x7f\n        /* \"#utility.yul\":3298:3304   */\n      dup3\n        /* \"#utility.yul\":3294:3311   */\n      and\n        /* \"#utility.yul\":3284:3311   */\n      swap2\n      pop\n        /* \"#utility.yul\":3252:3313   */\n    tag_283:\n        /* \"#utility.yul\":3359:3361   */\n      0x20\n        /* \"#utility.yul\":3351:3357   */\n      dup3\n        /* \"#utility.yul\":3348:3362   */\n      lt\n        /* \"#utility.yul\":3328:3346   */\n      dup2\n        /* \"#utility.yul\":3325:3363   */\n      sub\n        /* \"#utility.yul\":3322:3483   */\n      tag_284\n      jumpi\n        /* \"#utility.yul\":3405:3415   */\n      0x4e487b71\n        /* \"#utility.yul\":3400:3403   */\n      0xe0\n        /* \"#utility.yul\":3396:3416   */\n      shl\n        /* \"#utility.yul\":3393:3394   */\n      0x00\n        /* \"#utility.yul\":3386:3417   */\n      mstore\n        /* \"#utility.yul\":3440:3444   */\n      0x22\n        /* \"#utility.yul\":3437:3438   */\n      0x04\n        /* \"#utility.yul\":3430:3445   */\n      mstore\n        /* \"#utility.yul\":3468:3472   */\n      0x24\n        /* \"#utility.yul\":3465:3466   */\n      0x00\n        /* \"#utility.yul\":3458:3473   */\n      revert\n        /* \"#utility.yul\":3322:3483   */\n    tag_284:\n      pop\n        /* \"#utility.yul\":3109:3489   */\n      swap2\n      swap1\n      pop\n      jump\t// out\n        /* \"#utility.yul\":3494:3621   */\n    tag_253:\n        /* \"#utility.yul\":3555:3565   */\n      0x4e487b71\n        /* \"#utility.yul\":3550:3553   */\n      0xe0\n        /* \"#utility.yul\":3546:3566   */\n      shl\n        /* \"#utility.yul\":3543:3544   */\n      0x00\n        /* \"#utility.yul\":3536:3567   */\n      mstore\n        /* \"#utility.yul\":3586:3590   */\n      0x11\n        /* \"#utility.yul\":3583:3584   */\n      0x04\n        /* \"#utility.yul\":3576:3591   */\n      mstore\n        /* \"#utility.yul\":3610:3614   */\n      0x24\n        /* \"#utility.yul\":3607:3608   */\n      0x00\n        /* \"#utility.yul\":3600:3615   */\n      revert\n        /* \"#utility.yul\":3626:3794   */\n    tag_150:\n        /* \"#utility.yul\":3699:3708   */\n      dup1\n      dup3\n      mul\n        /* \"#utility.yul\":3730:3739   */\n      dup2\n      iszero\n        /* \"#utility.yul\":3747:3762   */\n      dup3\n      dup3\n      div\n        /* \"#utility.yul\":3741:3763   */\n      dup5\n      eq\n        /* \"#utility.yul\":3727:3764   */\n      or\n        /* \"#utility.yul\":3717:3788   */\n      tag_129\n      jumpi\n        /* \"#utility.yul\":3768:3786   */\n      tag_129\n      tag_253\n      jump\t// in\n        /* \"#utility.yul\":4149:4274   */\n    tag_240:\n        /* \"#utility.yul\":4214:4223   */\n      dup1\n      dup3\n      add\n        /* \"#utility.yul\":4235:4245   */\n      dup1\n      dup3\n      gt\n        /* \"#utility.yul\":4232:4268   */\n      iszero\n      tag_129\n      jumpi\n        /* \"#utility.yul\":4248:4266   */\n      tag_129\n      tag_253\n      jump\t// in\n\n    auxdata: 0xa2646970667358221220be99733f7145639083de4f4eb805826d2f671c89be4539de04f674e1bee38c5264736f6c63430008210033\n}\n",
				"bytecode": {
					"linkReferences": {},
					"object": "6080604052691605d9ee9862710000006006556007805461ffff191661010017905534801561002c575f5ffd5b503360405180604001604052806004815260200163096c2e6d60e31b8152506040518060400160405280600481526020016309682a6960e31b815250816003908161007791906104ad565b50600461008482826104ad565b5050506001600160a01b0381166100b557604051631e4fbdf760e01b81525f60048201526024015b60405180910390fd5b6100be81610108565b50335f818152600960205260408082208054600160ff1991821681179092553084529190922080549091169091179055610103906a2b036da601a044b4000000610159565b610590565b600580546001600160a01b038381166001600160a01b0319831681179093556040519116919082907f8be0079c531659141344cd1fd0a4f28419497f9722a3daafe3b4186f6b6457e0905f90a35050565b6001600160a01b0382166101825760405163ec442f0560e01b81525f60048201526024016100ac565b61018d5f8383610191565b5050565b6001600160a01b0383165f9081526009602052604090205460ff16806101ce57506001600160a01b0382165f9081526009602052604090205460ff165b156101e3576101de8383836102e5565b505050565b60075460ff166102065760405163e09f033160e01b815260040160405180910390fd5b6001600160a01b0383165f9081526008602052604090205460ff168061024357506001600160a01b0382165f9081526008602052604090205460ff165b15610261576040516309550c7760e01b815260040160405180910390fd5b600754610100900460ff16156102de57600654811115610293576040516271055760e71b815260040160405180910390fd5b600654816102b5846001600160a01b03165f9081526020819052604090205490565b6102bf919061056b565b11156102de5760405163426d5b2360e11b815260040160405180910390fd5b6101de8383835b6001600160a01b03831661030f578060025f828254610304919061056b565b9091555061037f9050565b6001600160a01b0383165f90815260208190526040902054818110156103615760405163391434e360e21b81526001600160a01b038516600482015260248101829052604481018390526064016100ac565b6001600160a01b0384165f9081526020819052604090209082900390555b6001600160a01b03821661039b576002805482900390556103b9565b6001600160a01b0382165f9081526020819052604090208054820190555b816001600160a01b0316836001600160a01b03167fddf252ad1be2c89b69c2b068fc378daa952ba7f163c4a11628f55a4df523b3ef836040516103fe91815260200190565b60405180910390a3505050565b634e487b7160e01b5f52604160045260245ffd5b600181811c9082168061043357607f821691505b60208210810361045157634e487b7160e01b5f52602260045260245ffd5b50919050565b601f8211156101de57828211156101de57805f5260205f20601f840160051c602085101561048257505f5b90810190601f840160051c035f5b818110156104a5575f83820155600101610490565b505050505050565b81516001600160401b038111156104c6576104c661040b565b6104da816104d4845461041f565b84610457565b6020601f82116001811461050c575f83156104f55750848201515b5f19600385901b1c1916600184901b178455610564565b5f84815260208120601f198516915b8281101561053b578785015182556020948501946001909201910161051b565b508482101561055857868401515f19600387901b60f8161c191681555b505060018360011b0184555b5050505050565b8082018082111561058a57634e487b7160e01b5f52601160045260245ffd5b92915050565b610ca18061059d5f395ff3fe608060405234801561000f575f5ffd5b506004361061016d575f3560e01c80635cce86cd116100d957806395d89b4111610093578063dd62ed3e1161006e578063dd62ed3e1461030c578063f2fde38b14610344578063fe575a8714610357578063ffb54a9914610379575f5ffd5b806395d89b41146102de578063a9059cbb146102e6578063c0a904a2146102f9575f5ffd5b80635cce86cd14610256578063648fd61f1461027857806370a0823114610280578063715018a6146102a857806379cc6790146102b05780638da5cb5b146102c3575f5ffd5b806323b872dd1161012a57806323b872dd146101f457806329144bdb14610207578063293230b81461021a578063313ce5671461022257806332cb6b0c1461023157806342966c6814610243575f5ffd5b806306fdde0314610171578063095ea7b31461018f578063153b0d1e146101b257806316a17a8a146101c757806318160ddd146101d95780631a861d26146101eb575b5f5ffd5b610179610386565b6040516101869190610aa2565b60405180910390f35b6101a261019d366004610af2565b610416565b6040519015158152602001610186565b6101c56101c0366004610b1a565b61042f565b005b6007546101a290610100900460ff1681565b6002545b604051908152602001610186565b6101dd60065481565b6101a2610202366004610b53565b610461565b6101c5610215366004610b8d565b610484565b6101c56104cc565b60405160128152602001610186565b6101dd6a2b036da601a044b400000081565b6101c5610251366004610b8d565b6104e3565b6101a2610264366004610ba4565b60096020525f908152604090205460ff1681565b6101c56104f0565b6101dd61028e366004610ba4565b6001600160a01b03165f9081526020819052604090205490565b6101c5610505565b6101c56102be366004610af2565b610518565b6005546040516001600160a01b039091168152602001610186565b610179610531565b6101a26102f4366004610af2565b610540565b6101c5610307366004610b1a565b61054d565b6101dd61031a366004610bc4565b6001600160a01b039182165f90815260016020908152604080832093909416825291909152205490565b6101c5610352366004610ba4565b61057f565b6101a2610365366004610ba4565b60086020525f908152604090205460ff1681565b6007546101a29060ff1681565b60606003805461039590610bf5565b80601f01602080910402602001604051908101604052809291908181526020018280546103c190610bf5565b801561040c5780601f106103e35761010080835404028352916020019161040c565b820191905f5260205f20905b8154815290600101906020018083116103ef57829003601f168201915b5050505050905090565b5f336104238185856105be565b60019150505b92915050565b6104376105d0565b6001600160a01b03919091165f908152600860205260409020805460ff1916911515919091179055565b5f3361046e8582856105fd565b610479858585610679565b506001949350505050565b61048c6105d0565b600754610100900460ff166104b457604051635619eb0f60e11b815260040160405180910390fd5b6104c681670de0b6b3a7640000610c41565b60065550565b6104d46105d0565b6007805460ff19166001179055565b6104ed33826106d6565b50565b6104f86105d0565b6007805461ff0019169055565b61050d6105d0565b6105165f61070a565b565b6105238233836105fd565b61052d82826106d6565b5050565b60606004805461039590610bf5565b5f33610423818585610679565b6105556105d0565b6001600160a01b03919091165f908152600960205260409020805460ff1916911515919091179055565b6105876105d0565b6001600160a01b0381166105b557604051631e4fbdf760e01b81525f60048201526024015b60405180910390fd5b6104ed8161070a565b6105cb838383600161075b565b505050565b6005546001600160a01b031633146105165760405163118cdaa760e01b81523360048201526024016105ac565b6001600160a01b038381165f908152600160209081526040808320938616835292905220545f19811015610673578181101561066557604051637dc7a0d960e11b81526001600160a01b038416600482015260248101829052604481018390526064016105ac565b61067384848484035f61075b565b50505050565b6001600160a01b0383166106a257604051634b637e8f60e11b81525f60048201526024016105ac565b6001600160a01b0382166106cb5760405163ec442f0560e01b81525f60048201526024016105ac565b6105cb83838361082d565b6001600160a01b0382166106ff57604051634b637e8f60e11b81525f60048201526024016105ac565b61052d825f8361082d565b600580546001600160a01b038381166001600160a01b0319831681179093556040519116919082907f8be0079c531659141344cd1fd0a4f28419497f9722a3daafe3b4186f6b6457e0905f90a35050565b6001600160a01b0384166107845760405163e602df0560e01b81525f60048201526024016105ac565b6001600160a01b0383166107ad57604051634a1406b160e11b81525f60048201526024016105ac565b6001600160a01b038085165f908152600160209081526040808320938716835292905220829055801561067357826001600160a01b0316846001600160a01b03167f8c5be1e5ebec7d5bd14f71427d1e84f3dd0314c0f7b2291e5b200ac8c7c3b9258460405161081f91815260200190565b60405180910390a350505050565b6001600160a01b0383165f9081526009602052604090205460ff168061086a57506001600160a01b0382165f9081526009602052604090205460ff165b1561087a576105cb83838361097c565b60075460ff1661089d5760405163e09f033160e01b815260040160405180910390fd5b6001600160a01b0383165f9081526008602052604090205460ff16806108da57506001600160a01b0382165f9081526008602052604090205460ff165b156108f8576040516309550c7760e01b815260040160405180910390fd5b600754610100900460ff16156109755760065481111561092a576040516271055760e71b815260040160405180910390fd5b6006548161094c846001600160a01b03165f9081526020819052604090205490565b6109569190610c58565b11156109755760405163426d5b2360e11b815260040160405180910390fd5b6105cb8383835b6001600160a01b0383166109a6578060025f82825461099b9190610c58565b90915550610a169050565b6001600160a01b0383165f90815260208190526040902054818110156109f85760405163391434e360e21b81526001600160a01b038516600482015260248101829052604481018390526064016105ac565b6001600160a01b0384165f9081526020819052604090209082900390555b6001600160a01b038216610a3257600280548290039055610a50565b6001600160a01b0382165f9081526020819052604090208054820190555b816001600160a01b0316836001600160a01b03167fddf252ad1be2c89b69c2b068fc378daa952ba7f163c4a11628f55a4df523b3ef83604051610a9591815260200190565b60405180910390a3505050565b602081525f82518060208401528060208501604085015e5f604082850101526040601f19601f83011684010191505092915050565b80356001600160a01b0381168114610aed575f5ffd5b919050565b5f5f60408385031215610b03575f5ffd5b610b0c83610ad7565b946020939093013593505050565b5f5f60408385031215610b2b575f5ffd5b610b3483610ad7565b915060208301358015158114610b48575f5ffd5b809150509250929050565b5f5f5f60608486031215610b65575f5ffd5b610b6e84610ad7565b9250610b7c60208501610ad7565b929592945050506040919091013590565b5f60208284031215610b9d575f5ffd5b5035919050565b5f60208284031215610bb4575f5ffd5b610bbd82610ad7565b9392505050565b5f5f60408385031215610bd5575f5ffd5b610bde83610ad7565b9150610bec60208401610ad7565b90509250929050565b600181811c90821680610c0957607f821691505b602082108103610c2757634e487b7160e01b5f52602260045260245ffd5b50919050565b634e487b7160e01b5f52601160045260245ffd5b808202811582820484141761042957610429610c2d565b8082018082111561042957610429610c2d56fea2646970667358221220be99733f7145639083de4f4eb805826d2f671c89be4539de04f674e1bee38c5264736f6c63430008210033",
					"opcodes": "PUSH1 0x80 PUSH1 0x40 MSTORE PUSH10 0x1605D9EE986271000000 PUSH1 0x6 SSTORE PUSH1 0x7 DUP1 SLOAD PUSH2 0xFFFF NOT AND PUSH2 0x100 OR SWAP1 SSTORE CALLVALUE DUP1 ISZERO PUSH2 0x2C JUMPI PUSH0 PUSH0 REVERT JUMPDEST POP CALLER PUSH1 0x40 MLOAD DUP1 PUSH1 0x40 ADD PUSH1 0x40 MSTORE DUP1 PUSH1 0x4 DUP2 MSTORE PUSH1 0x20 ADD PUSH4 0x96C2E6D PUSH1 0xE3 SHL DUP2 MSTORE POP PUSH1 0x40 MLOAD DUP1 PUSH1 0x40 ADD PUSH1 0x40 MSTORE DUP1 PUSH1 0x4 DUP2 MSTORE PUSH1 0x20 ADD PUSH4 0x9682A69 PUSH1 0xE3 SHL DUP2 MSTORE POP DUP2 PUSH1 0x3 SWAP1 DUP2 PUSH2 0x77 SWAP2 SWAP1 PUSH2 0x4AD JUMP JUMPDEST POP PUSH1 0x4 PUSH2 0x84 DUP3 DUP3 PUSH2 0x4AD JUMP JUMPDEST POP POP POP PUSH1 0x1 PUSH1 0x1 PUSH1 0xA0 SHL SUB DUP2 AND PUSH2 0xB5 JUMPI PUSH1 0x40 MLOAD PUSH4 0x1E4FBDF7 PUSH1 0xE0 SHL DUP2 MSTORE PUSH0 PUSH1 0x4 DUP3 ADD MSTORE PUSH1 0x24 ADD JUMPDEST PUSH1 0x40 MLOAD DUP1 SWAP2 SUB SWAP1 REVERT JUMPDEST PUSH2 0xBE DUP2 PUSH2 0x108 JUMP JUMPDEST POP CALLER PUSH0 DUP2 DUP2 MSTORE PUSH1 0x9 PUSH1 0x20 MSTORE PUSH1 0x40 DUP1 DUP3 KECCAK256 DUP1 SLOAD PUSH1 0x1 PUSH1 0xFF NOT SWAP2 DUP3 AND DUP2 OR SWAP1 SWAP3 SSTORE ADDRESS DUP5 MSTORE SWAP2 SWAP1 SWAP3 KECCAK256 DUP1 SLOAD SWAP1 SWAP2 AND SWAP1 SWAP2 OR SWAP1 SSTORE PUSH2 0x103 SWAP1 PUSH11 0x2B036DA601A044B4000000 PUSH2 0x159 JUMP JUMPDEST PUSH2 0x590 JUMP JUMPDEST PUSH1 0x5 DUP1 SLOAD PUSH1 0x1 PUSH1 0x1 PUSH1 0xA0 SHL SUB DUP4 DUP2 AND PUSH1 0x1 PUSH1 0x1 PUSH1 0xA0 SHL SUB NOT DUP4 AND DUP2 OR SWAP1 SWAP4 SSTORE PUSH1 0x40 MLOAD SWAP2 AND SWAP2 SWAP1 DUP3 SWAP1 PUSH32 0x8BE0079C531659141344CD1FD0A4F28419497F9722A3DAAFE3B4186F6B6457E0 SWAP1 PUSH0 SWAP1 LOG3 POP POP JUMP JUMPDEST PUSH1 0x1 PUSH1 0x1 PUSH1 0xA0 SHL SUB DUP3 AND PUSH2 0x182 JUMPI PUSH1 0x40 MLOAD PUSH4 0xEC442F05 PUSH1 0xE0 SHL DUP2 MSTORE PUSH0 PUSH1 0x4 DUP3 ADD MSTORE PUSH1 0x24 ADD PUSH2 0xAC JUMP JUMPDEST PUSH2 0x18D PUSH0 DUP4 DUP4 PUSH2 0x191 JUMP JUMPDEST POP POP JUMP JUMPDEST PUSH1 0x1 PUSH1 0x1 PUSH1 0xA0 SHL SUB DUP4 AND PUSH0 SWAP1 DUP2 MSTORE PUSH1 0x9 PUSH1 0x20 MSTORE PUSH1 0x40 SWAP1 KECCAK256 SLOAD PUSH1 0xFF AND DUP1 PUSH2 0x1CE JUMPI POP PUSH1 0x1 PUSH1 0x1 PUSH1 0xA0 SHL SUB DUP3 AND PUSH0 SWAP1 DUP2 MSTORE PUSH1 0x9 PUSH1 0x20 MSTORE PUSH1 0x40 SWAP1 KECCAK256 SLOAD PUSH1 0xFF AND JUMPDEST ISZERO PUSH2 0x1E3 JUMPI PUSH2 0x1DE DUP4 DUP4 DUP4 PUSH2 0x2E5 JUMP JUMPDEST POP POP POP JUMP JUMPDEST PUSH1 0x7 SLOAD PUSH1 0xFF AND PUSH2 0x206 JUMPI PUSH1 0x40 MLOAD PUSH4 0xE09F0331 PUSH1 0xE0 SHL DUP2 MSTORE PUSH1 0x4 ADD PUSH1 0x40 MLOAD DUP1 SWAP2 SUB SWAP1 REVERT JUMPDEST PUSH1 0x1 PUSH1 0x1 PUSH1 0xA0 SHL SUB DUP4 AND PUSH0 SWAP1 DUP2 MSTORE PUSH1 0x8 PUSH1 0x20 MSTORE PUSH1 0x40 SWAP1 KECCAK256 SLOAD PUSH1 0xFF AND DUP1 PUSH2 0x243 JUMPI POP PUSH1 0x1 PUSH1 0x1 PUSH1 0xA0 SHL SUB DUP3 AND PUSH0 SWAP1 DUP2 MSTORE PUSH1 0x8 PUSH1 0x20 MSTORE PUSH1 0x40 SWAP1 KECCAK256 SLOAD PUSH1 0xFF AND JUMPDEST ISZERO PUSH2 0x261 JUMPI PUSH1 0x40 MLOAD PUSH4 0x9550C77 PUSH1 0xE0 SHL DUP2 MSTORE PUSH1 0x4 ADD PUSH1 0x40 MLOAD DUP1 SWAP2 SUB SWAP1 REVERT JUMPDEST PUSH1 0x7 SLOAD PUSH2 0x100 SWAP1 DIV PUSH1 0xFF AND ISZERO PUSH2 0x2DE JUMPI PUSH1 0x6 SLOAD DUP2 GT ISZERO PUSH2 0x293 JUMPI PUSH1 0x40 MLOAD PUSH3 0x710557 PUSH1 0xE7 SHL DUP2 MSTORE PUSH1 0x4 ADD PUSH1 0x40 MLOAD DUP1 SWAP2 SUB SWAP1 REVERT JUMPDEST PUSH1 0x6 SLOAD DUP2 PUSH2 0x2B5 DUP5 PUSH1 0x1 PUSH1 0x1 PUSH1 0xA0 SHL SUB AND PUSH0 SWAP1 DUP2 MSTORE PUSH1 0x20 DUP2 SWAP1 MSTORE PUSH1 0x40 SWAP1 KECCAK256 SLOAD SWAP1 JUMP JUMPDEST PUSH2 0x2BF SWAP2 SWAP1 PUSH2 0x56B JUMP JUMPDEST GT ISZERO PUSH2 0x2DE JUMPI PUSH1 0x40 MLOAD PUSH4 0x426D5B23 PUSH1 0xE1 SHL DUP2 MSTORE PUSH1 0x4 ADD PUSH1 0x40 MLOAD DUP1 SWAP2 SUB SWAP1 REVERT JUMPDEST PUSH2 0x1DE DUP4 DUP4 DUP4 JUMPDEST PUSH1 0x1 PUSH1 0x1 PUSH1 0xA0 SHL SUB DUP4 AND PUSH2 0x30F JUMPI DUP1 PUSH1 0x2 PUSH0 DUP3 DUP3 SLOAD PUSH2 0x304 SWAP2 SWAP1 PUSH2 0x56B JUMP JUMPDEST SWAP1 SWAP2 SSTORE POP PUSH2 0x37F SWAP1 POP JUMP JUMPDEST PUSH1 0x1 PUSH1 0x1 PUSH1 0xA0 SHL SUB DUP4 AND PUSH0 SWAP1 DUP2 MSTORE PUSH1 0x20 DUP2 SWAP1 MSTORE PUSH1 0x40 SWAP1 KECCAK256 SLOAD DUP2 DUP2 LT ISZERO PUSH2 0x361 JUMPI PUSH1 0x40 MLOAD PUSH4 0x391434E3 PUSH1 0xE2 SHL DUP2 MSTORE PUSH1 0x1 PUSH1 0x1 PUSH1 0xA0 SHL SUB DUP6 AND PUSH1 0x4 DUP3 ADD MSTORE PUSH1 0x24 DUP2 ADD DUP3 SWAP1 MSTORE PUSH1 0x44 DUP2 ADD DUP4 SWAP1 MSTORE PUSH1 0x64 ADD PUSH2 0xAC JUMP JUMPDEST PUSH1 0x1 PUSH1 0x1 PUSH1 0xA0 SHL SUB DUP5 AND PUSH0 SWAP1 DUP2 MSTORE PUSH1 0x20 DUP2 SWAP1 MSTORE PUSH1 0x40 SWAP1 KECCAK256 SWAP1 DUP3 SWAP1 SUB SWAP1 SSTORE JUMPDEST PUSH1 0x1 PUSH1 0x1 PUSH1 0xA0 SHL SUB DUP3 AND PUSH2 0x39B JUMPI PUSH1 0x2 DUP1 SLOAD DUP3 SWAP1 SUB SWAP1 SSTORE PUSH2 0x3B9 JUMP JUMPDEST PUSH1 0x1 PUSH1 0x1 PUSH1 0xA0 SHL SUB DUP3 AND PUSH0 SWAP1 DUP2 MSTORE PUSH1 0x20 DUP2 SWAP1 MSTORE PUSH1 0x40 SWAP1 KECCAK256 DUP1 SLOAD DUP3 ADD SWAP1 SSTORE JUMPDEST DUP2 PUSH1 0x1 PUSH1 0x1 PUSH1 0xA0 SHL SUB AND DUP4 PUSH1 0x1 PUSH1 0x1 PUSH1 0xA0 SHL SUB AND PUSH32 0xDDF252AD1BE2C89B69C2B068FC378DAA952BA7F163C4A11628F55A4DF523B3EF DUP4 PUSH1 0x40 MLOAD PUSH2 0x3FE SWAP2 DUP2 MSTORE PUSH1 0x20 ADD SWAP1 JUMP JUMPDEST PUSH1 0x40 MLOAD DUP1 SWAP2 SUB SWAP1 LOG3 POP POP POP JUMP JUMPDEST PUSH4 0x4E487B71 PUSH1 0xE0 SHL PUSH0 MSTORE PUSH1 0x41 PUSH1 0x4 MSTORE PUSH1 0x24 PUSH0 REVERT JUMPDEST PUSH1 0x1 DUP2 DUP2 SHR SWAP1 DUP3 AND DUP1 PUSH2 0x433 JUMPI PUSH1 0x7F DUP3 AND SWAP2 POP JUMPDEST PUSH1 0x20 DUP3 LT DUP2 SUB PUSH2 0x451 JUMPI PUSH4 0x4E487B71 PUSH1 0xE0 SHL PUSH0 MSTORE PUSH1 0x22 PUSH1 0x4 MSTORE PUSH1 0x24 PUSH0 REVERT JUMPDEST POP SWAP2 SWAP1 POP JUMP JUMPDEST PUSH1 0x1F DUP3 GT ISZERO PUSH2 0x1DE JUMPI DUP3 DUP3 GT ISZERO PUSH2 0x1DE JUMPI DUP1 PUSH0 MSTORE PUSH1 0x20 PUSH0 KECCAK256 PUSH1 0x1F DUP5 ADD PUSH1 0x5 SHR PUSH1 0x20 DUP6 LT ISZERO PUSH2 0x482 JUMPI POP PUSH0 JUMPDEST SWAP1 DUP2 ADD SWAP1 PUSH1 0x1F DUP5 ADD PUSH1 0x5 SHR SUB PUSH0 JUMPDEST DUP2 DUP2 LT ISZERO PUSH2 0x4A5 JUMPI PUSH0 DUP4 DUP3 ADD SSTORE PUSH1 0x1 ADD PUSH2 0x490 JUMP JUMPDEST POP POP POP POP POP POP JUMP JUMPDEST DUP2 MLOAD PUSH1 0x1 PUSH1 0x1 PUSH1 0x40 SHL SUB DUP2 GT ISZERO PUSH2 0x4C6 JUMPI PUSH2 0x4C6 PUSH2 0x40B JUMP JUMPDEST PUSH2 0x4DA DUP2 PUSH2 0x4D4 DUP5 SLOAD PUSH2 0x41F JUMP JUMPDEST DUP5 PUSH2 0x457 JUMP JUMPDEST PUSH1 0x20 PUSH1 0x1F DUP3 GT PUSH1 0x1 DUP2 EQ PUSH2 0x50C JUMPI PUSH0 DUP4 ISZERO PUSH2 0x4F5 JUMPI POP DUP5 DUP3 ADD MLOAD JUMPDEST PUSH0 NOT PUSH1 0x3 DUP6 SWAP1 SHL SHR NOT AND PUSH1 0x1 DUP5 SWAP1 SHL OR DUP5 SSTORE PUSH2 0x564 JUMP JUMPDEST PUSH0 DUP5 DUP2 MSTORE PUSH1 0x20 DUP2 KECCAK256 PUSH1 0x1F NOT DUP6 AND SWAP2 JUMPDEST DUP3 DUP2 LT ISZERO PUSH2 0x53B JUMPI DUP8 DUP6 ADD MLOAD DUP3 SSTORE PUSH1 0x20 SWAP5 DUP6 ADD SWAP5 PUSH1 0x1 SWAP1 SWAP3 ADD SWAP2 ADD PUSH2 0x51B JUMP JUMPDEST POP DUP5 DUP3 LT ISZERO PUSH2 0x558 JUMPI DUP7 DUP5 ADD MLOAD PUSH0 NOT PUSH1 0x3 DUP8 SWAP1 SHL PUSH1 0xF8 AND SHR NOT AND DUP2 SSTORE JUMPDEST POP POP PUSH1 0x1 DUP4 PUSH1 0x1 SHL ADD DUP5 SSTORE JUMPDEST POP POP POP POP POP JUMP JUMPDEST DUP1 DUP3 ADD DUP1 DUP3 GT ISZERO PUSH2 0x58A JUMPI PUSH4 0x4E487B71 PUSH1 0xE0 SHL PUSH0 MSTORE PUSH1 0x11 PUSH1 0x4 MSTORE PUSH1 0x24 PUSH0 REVERT JUMPDEST SWAP3 SWAP2 POP POP JUMP JUMPDEST PUSH2 0xCA1 DUP1 PUSH2 0x59D PUSH0 CODECOPY PUSH0 RETURN INVALID PUSH1 0x80 PUSH1 0x40 MSTORE CALLVALUE DUP1 ISZERO PUSH2 0xF JUMPI PUSH0 PUSH0 REVERT JUMPDEST POP PUSH1 0x4 CALLDATASIZE LT PUSH2 0x16D JUMPI PUSH0 CALLDATALOAD PUSH1 0xE0 SHR DUP1 PUSH4 0x5CCE86CD GT PUSH2 0xD9 JUMPI DUP1 PUSH4 0x95D89B41 GT PUSH2 0x93 JUMPI DUP1 PUSH4 0xDD62ED3E GT PUSH2 0x6E JUMPI DUP1 PUSH4 0xDD62ED3E EQ PUSH2 0x30C JUMPI DUP1 PUSH4 0xF2FDE38B EQ PUSH2 0x344 JUMPI DUP1 PUSH4 0xFE575A87 EQ PUSH2 0x357 JUMPI DUP1 PUSH4 0xFFB54A99 EQ PUSH2 0x379 JUMPI PUSH0 PUSH0 REVERT JUMPDEST DUP1 PUSH4 0x95D89B41 EQ PUSH2 0x2DE JUMPI DUP1 PUSH4 0xA9059CBB EQ PUSH2 0x2E6 JUMPI DUP1 PUSH4 0xC0A904A2 EQ PUSH2 0x2F9 JUMPI PUSH0 PUSH0 REVERT JUMPDEST DUP1 PUSH4 0x5CCE86CD EQ PUSH2 0x256 JUMPI DUP1 PUSH4 0x648FD61F EQ PUSH2 0x278 JUMPI DUP1 PUSH4 0x70A08231 EQ PUSH2 0x280 JUMPI DUP1 PUSH4 0x715018A6 EQ PUSH2 0x2A8 JUMPI DUP1 PUSH4 0x79CC6790 EQ PUSH2 0x2B0 JUMPI DUP1 PUSH4 0x8DA5CB5B EQ PUSH2 0x2C3 JUMPI PUSH0 PUSH0 REVERT JUMPDEST DUP1 PUSH4 0x23B872DD GT PUSH2 0x12A JUMPI DUP1 PUSH4 0x23B872DD EQ PUSH2 0x1F4 JUMPI DUP1 PUSH4 0x29144BDB EQ PUSH2 0x207 JUMPI DUP1 PUSH4 0x293230B8 EQ PUSH2 0x21A JUMPI DUP1 PUSH4 0x313CE567 EQ PUSH2 0x222 JUMPI DUP1 PUSH4 0x32CB6B0C EQ PUSH2 0x231 JUMPI DUP1 PUSH4 0x42966C68 EQ PUSH2 0x243 JUMPI PUSH0 PUSH0 REVERT JUMPDEST DUP1 PUSH4 0x6FDDE03 EQ PUSH2 0x171 JUMPI DUP1 PUSH4 0x95EA7B3 EQ PUSH2 0x18F JUMPI DUP1 PUSH4 0x153B0D1E EQ PUSH2 0x1B2 JUMPI DUP1 PUSH4 0x16A17A8A EQ PUSH2 0x1C7 JUMPI DUP1 PUSH4 0x18160DDD EQ PUSH2 0x1D9 JUMPI DUP1 PUSH4 0x1A861D26 EQ PUSH2 0x1EB JUMPI JUMPDEST PUSH0 PUSH0 REVERT JUMPDEST PUSH2 0x179 PUSH2 0x386 JUMP JUMPDEST PUSH1 0x40 MLOAD PUSH2 0x186 SWAP2 SWAP1 PUSH2 0xAA2 JUMP JUMPDEST PUSH1 0x40 MLOAD DUP1 SWAP2 SUB SWAP1 RETURN JUMPDEST PUSH2 0x1A2 PUSH2 0x19D CALLDATASIZE PUSH1 0x4 PUSH2 0xAF2 JUMP JUMPDEST PUSH2 0x416 JUMP JUMPDEST PUSH1 0x40 MLOAD SWAP1 ISZERO ISZERO DUP2 MSTORE PUSH1 0x20 ADD PUSH2 0x186 JUMP JUMPDEST PUSH2 0x1C5 PUSH2 0x1C0 CALLDATASIZE PUSH1 0x4 PUSH2 0xB1A JUMP JUMPDEST PUSH2 0x42F JUMP JUMPDEST STOP JUMPDEST PUSH1 0x7 SLOAD PUSH2 0x1A2 SWAP1 PUSH2 0x100 SWAP1 DIV PUSH1 0xFF AND DUP2 JUMP JUMPDEST PUSH1 0x2 SLOAD JUMPDEST PUSH1 0x40 MLOAD SWAP1 DUP2 MSTORE PUSH1 0x20 ADD PUSH2 0x186 JUMP JUMPDEST PUSH2 0x1DD PUSH1 0x6 SLOAD DUP2 JUMP JUMPDEST PUSH2 0x1A2 PUSH2 0x202 CALLDATASIZE PUSH1 0x4 PUSH2 0xB53 JUMP JUMPDEST PUSH2 0x461 JUMP JUMPDEST PUSH2 0x1C5 PUSH2 0x215 CALLDATASIZE PUSH1 0x4 PUSH2 0xB8D JUMP JUMPDEST PUSH2 0x484 JUMP JUMPDEST PUSH2 0x1C5 PUSH2 0x4CC JUMP JUMPDEST PUSH1 0x40 MLOAD PUSH1 0x12 DUP2 MSTORE PUSH1 0x20 ADD PUSH2 0x186 JUMP JUMPDEST PUSH2 0x1DD PUSH11 0x2B036DA601A044B4000000 DUP2 JUMP JUMPDEST PUSH2 0x1C5 PUSH2 0x251 CALLDATASIZE PUSH1 0x4 PUSH2 0xB8D JUMP JUMPDEST PUSH2 0x4E3 JUMP JUMPDEST PUSH2 0x1A2 PUSH2 0x264 CALLDATASIZE PUSH1 0x4 PUSH2 0xBA4 JUMP JUMPDEST PUSH1 0x9 PUSH1 0x20 MSTORE PUSH0 SWAP1 DUP2 MSTORE PUSH1 0x40 SWAP1 KECCAK256 SLOAD PUSH1 0xFF AND DUP2 JUMP JUMPDEST PUSH2 0x1C5 PUSH2 0x4F0 JUMP JUMPDEST PUSH2 0x1DD PUSH2 0x28E CALLDATASIZE PUSH1 0x4 PUSH2 0xBA4 JUMP JUMPDEST PUSH1 0x1 PUSH1 0x1 PUSH1 0xA0 SHL SUB AND PUSH0 SWAP1 DUP2 MSTORE PUSH1 0x20 DUP2 SWAP1 MSTORE PUSH1 0x40 SWAP1 KECCAK256 SLOAD SWAP1 JUMP JUMPDEST PUSH2 0x1C5 PUSH2 0x505 JUMP JUMPDEST PUSH2 0x1C5 PUSH2 0x2BE CALLDATASIZE PUSH1 0x4 PUSH2 0xAF2 JUMP JUMPDEST PUSH2 0x518 JUMP JUMPDEST PUSH1 0x5 SLOAD PUSH1 0x40 MLOAD PUSH1 0x1 PUSH1 0x1 PUSH1 0xA0 SHL SUB SWAP1 SWAP2 AND DUP2 MSTORE PUSH1 0x20 ADD PUSH2 0x186 JUMP JUMPDEST PUSH2 0x179 PUSH2 0x531 JUMP JUMPDEST PUSH2 0x1A2 PUSH2 0x2F4 CALLDATASIZE PUSH1 0x4 PUSH2 0xAF2 JUMP JUMPDEST PUSH2 0x540 JUMP JUMPDEST PUSH2 0x1C5 PUSH2 0x307 CALLDATASIZE PUSH1 0x4 PUSH2 0xB1A JUMP JUMPDEST PUSH2 0x54D JUMP JUMPDEST PUSH2 0x1DD PUSH2 0x31A CALLDATASIZE PUSH1 0x4 PUSH2 0xBC4 JUMP JUMPDEST PUSH1 0x1 PUSH1 0x1 PUSH1 0xA0 SHL SUB SWAP2 DUP3 AND PUSH0 SWAP1 DUP2 MSTORE PUSH1 0x1 PUSH1 0x20 SWAP1 DUP2 MSTORE PUSH1 0x40 DUP1 DUP4 KECCAK256 SWAP4 SWAP1 SWAP5 AND DUP3 MSTORE SWAP2 SWAP1 SWAP2 MSTORE KECCAK256 SLOAD SWAP1 JUMP JUMPDEST PUSH2 0x1C5 PUSH2 0x352 CALLDATASIZE PUSH1 0x4 PUSH2 0xBA4 JUMP JUMPDEST PUSH2 0x57F JUMP JUMPDEST PUSH2 0x1A2 PUSH2 0x365 CALLDATASIZE PUSH1 0x4 PUSH2 0xBA4 JUMP JUMPDEST PUSH1 0x8 PUSH1 0x20 MSTORE PUSH0 SWAP1 DUP2 MSTORE PUSH1 0x40 SWAP1 KECCAK256 SLOAD PUSH1 0xFF AND DUP2 JUMP JUMPDEST PUSH1 0x7 SLOAD PUSH2 0x1A2 SWAP1 PUSH1 0xFF AND DUP2 JUMP JUMPDEST PUSH1 0x60 PUSH1 0x3 DUP1 SLOAD PUSH2 0x395 SWAP1 PUSH2 0xBF5 JUMP JUMPDEST DUP1 PUSH1 0x1F ADD PUSH1 0x20 DUP1 SWAP2 DIV MUL PUSH1 0x20 ADD PUSH1 0x40 MLOAD SWAP1 DUP2 ADD PUSH1 0x40 MSTORE DUP1 SWAP3 SWAP2 SWAP1 DUP2 DUP2 MSTORE PUSH1 0x20 ADD DUP3 DUP1 SLOAD PUSH2 0x3C1 SWAP1 PUSH2 0xBF5 JUMP JUMPDEST DUP1 ISZERO PUSH2 0x40C JUMPI DUP1 PUSH1 0x1F LT PUSH2 0x3E3 JUMPI PUSH2 0x100 DUP1 DUP4 SLOAD DIV MUL DUP4 MSTORE SWAP2 PUSH1 0x20 ADD SWAP2 PUSH2 0x40C JUMP JUMPDEST DUP3 ADD SWAP2 SWAP1 PUSH0 MSTORE PUSH1 0x20 PUSH0 KECCAK256 SWAP1 JUMPDEST DUP2 SLOAD DUP2 MSTORE SWAP1 PUSH1 0x1 ADD SWAP1 PUSH1 0x20 ADD DUP1 DUP4 GT PUSH2 0x3EF JUMPI DUP3 SWAP1 SUB PUSH1 0x1F AND DUP3 ADD SWAP2 JUMPDEST POP POP POP POP POP SWAP1 POP SWAP1 JUMP JUMPDEST PUSH0 CALLER PUSH2 0x423 DUP2 DUP6 DUP6 PUSH2 0x5BE JUMP JUMPDEST PUSH1 0x1 SWAP2 POP POP JUMPDEST SWAP3 SWAP2 POP POP JUMP JUMPDEST PUSH2 0x437 PUSH2 0x5D0 JUMP JUMPDEST PUSH1 0x1 PUSH1 0x1 PUSH1 0xA0 SHL SUB SWAP2 SWAP1 SWAP2 AND PUSH0 SWAP1 DUP2 MSTORE PUSH1 0x8 PUSH1 0x20 MSTORE PUSH1 0x40 SWAP1 KECCAK256 DUP1 SLOAD PUSH1 0xFF NOT AND SWAP2 ISZERO ISZERO SWAP2 SWAP1 SWAP2 OR SWAP1 SSTORE JUMP JUMPDEST PUSH0 CALLER PUSH2 0x46E DUP6 DUP3 DUP6 PUSH2 0x5FD JUMP JUMPDEST PUSH2 0x479 DUP6 DUP6 DUP6 PUSH2 0x679 JUMP JUMPDEST POP PUSH1 0x1 SWAP5 SWAP4 POP POP POP POP JUMP JUMPDEST PUSH2 0x48C PUSH2 0x5D0 JUMP JUMPDEST PUSH1 0x7 SLOAD PUSH2 0x100 SWAP1 DIV PUSH1 0xFF AND PUSH2 0x4B4 JUMPI PUSH1 0x40 MLOAD PUSH4 0x5619EB0F PUSH1 0xE1 SHL DUP2 MSTORE PUSH1 0x4 ADD PUSH1 0x40 MLOAD DUP1 SWAP2 SUB SWAP1 REVERT JUMPDEST PUSH2 0x4C6 DUP2 PUSH8 0xDE0B6B3A7640000 PUSH2 0xC41 JUMP JUMPDEST PUSH1 0x6 SSTORE POP JUMP JUMPDEST PUSH2 0x4D4 PUSH2 0x5D0 JUMP JUMPDEST PUSH1 0x7 DUP1 SLOAD PUSH1 0xFF NOT AND PUSH1 0x1 OR SWAP1 SSTORE JUMP JUMPDEST PUSH2 0x4ED CALLER DUP3 PUSH2 0x6D6 JUMP JUMPDEST POP JUMP JUMPDEST PUSH2 0x4F8 PUSH2 0x5D0 JUMP JUMPDEST PUSH1 0x7 DUP1 SLOAD PUSH2 0xFF00 NOT AND SWAP1 SSTORE JUMP JUMPDEST PUSH2 0x50D PUSH2 0x5D0 JUMP JUMPDEST PUSH2 0x516 PUSH0 PUSH2 0x70A JUMP JUMPDEST JUMP JUMPDEST PUSH2 0x523 DUP3 CALLER DUP4 PUSH2 0x5FD JUMP JUMPDEST PUSH2 0x52D DUP3 DUP3 PUSH2 0x6D6 JUMP JUMPDEST POP POP JUMP JUMPDEST PUSH1 0x60 PUSH1 0x4 DUP1 SLOAD PUSH2 0x395 SWAP1 PUSH2 0xBF5 JUMP JUMPDEST PUSH0 CALLER PUSH2 0x423 DUP2 DUP6 DUP6 PUSH2 0x679 JUMP JUMPDEST PUSH2 0x555 PUSH2 0x5D0 JUMP JUMPDEST PUSH1 0x1 PUSH1 0x1 PUSH1 0xA0 SHL SUB SWAP2 SWAP1 SWAP2 AND PUSH0 SWAP1 DUP2 MSTORE PUSH1 0x9 PUSH1 0x20 MSTORE PUSH1 0x40 SWAP1 KECCAK256 DUP1 SLOAD PUSH1 0xFF NOT AND SWAP2 ISZERO ISZERO SWAP2 SWAP1 SWAP2 OR SWAP1 SSTORE JUMP JUMPDEST PUSH2 0x587 PUSH2 0x5D0 JUMP JUMPDEST PUSH1 0x1 PUSH1 0x1 PUSH1 0xA0 SHL SUB DUP2 AND PUSH2 0x5B5 JUMPI PUSH1 0x40 MLOAD PUSH4 0x1E4FBDF7 PUSH1 0xE0 SHL DUP2 MSTORE PUSH0 PUSH1 0x4 DUP3 ADD MSTORE PUSH1 0x24 ADD JUMPDEST PUSH1 0x40 MLOAD DUP1 SWAP2 SUB SWAP1 REVERT JUMPDEST PUSH2 0x4ED DUP2 PUSH2 0x70A JUMP JUMPDEST PUSH2 0x5CB DUP4 DUP4 DUP4 PUSH1 0x1 PUSH2 0x75B JUMP JUMPDEST POP POP POP JUMP JUMPDEST PUSH1 0x5 SLOAD PUSH1 0x1 PUSH1 0x1 PUSH1 0xA0 SHL SUB AND CALLER EQ PUSH2 0x516 JUMPI PUSH1 0x40 MLOAD PUSH4 0x118CDAA7 PUSH1 0xE0 SHL DUP2 MSTORE CALLER PUSH1 0x4 DUP3 ADD MSTORE PUSH1 0x24 ADD PUSH2 0x5AC JUMP JUMPDEST PUSH1 0x1 PUSH1 0x1 PUSH1 0xA0 SHL SUB DUP4 DUP2 AND PUSH0 SWAP1 DUP2 MSTORE PUSH1 0x1 PUSH1 0x20 SWAP1 DUP2 MSTORE PUSH1 0x40 DUP1 DUP4 KECCAK256 SWAP4 DUP7 AND DUP4 MSTORE SWAP3 SWAP1 MSTORE KECCAK256 SLOAD PUSH0 NOT DUP2 LT ISZERO PUSH2 0x673 JUMPI DUP2 DUP2 LT ISZERO PUSH2 0x665 JUMPI PUSH1 0x40 MLOAD PUSH4 0x7DC7A0D9 PUSH1 0xE1 SHL DUP2 MSTORE PUSH1 0x1 PUSH1 0x1 PUSH1 0xA0 SHL SUB DUP5 AND PUSH1 0x4 DUP3 ADD MSTORE PUSH1 0x24 DUP2 ADD DUP3 SWAP1 MSTORE PUSH1 0x44 DUP2 ADD DUP4 SWAP1 MSTORE PUSH1 0x64 ADD PUSH2 0x5AC JUMP JUMPDEST PUSH2 0x673 DUP5 DUP5 DUP5 DUP5 SUB PUSH0 PUSH2 0x75B JUMP JUMPDEST POP POP POP POP JUMP JUMPDEST PUSH1 0x1 PUSH1 0x1 PUSH1 0xA0 SHL SUB DUP4 AND PUSH2 0x6A2 JUMPI PUSH1 0x40 MLOAD PUSH4 0x4B637E8F PUSH1 0xE1 SHL DUP2 MSTORE PUSH0 PUSH1 0x4 DUP3 ADD MSTORE PUSH1 0x24 ADD PUSH2 0x5AC JUMP JUMPDEST PUSH1 0x1 PUSH1 0x1 PUSH1 0xA0 SHL SUB DUP3 AND PUSH2 0x6CB JUMPI PUSH1 0x40 MLOAD PUSH4 0xEC442F05 PUSH1 0xE0 SHL DUP2 MSTORE PUSH0 PUSH1 0x4 DUP3 ADD MSTORE PUSH1 0x24 ADD PUSH2 0x5AC JUMP JUMPDEST PUSH2 0x5CB DUP4 DUP4 DUP4 PUSH2 0x82D JUMP JUMPDEST PUSH1 0x1 PUSH1 0x1 PUSH1 0xA0 SHL SUB DUP3 AND PUSH2 0x6FF JUMPI PUSH1 0x40 MLOAD PUSH4 0x4B637E8F PUSH1 0xE1 SHL DUP2 MSTORE PUSH0 PUSH1 0x4 DUP3 ADD MSTORE PUSH1 0x24 ADD PUSH2 0x5AC JUMP JUMPDEST PUSH2 0x52D DUP3 PUSH0 DUP4 PUSH2 0x82D JUMP JUMPDEST PUSH1 0x5 DUP1 SLOAD PUSH1 0x1 PUSH1 0x1 PUSH1 0xA0 SHL SUB DUP4 DUP2 AND PUSH1 0x1 PUSH1 0x1 PUSH1 0xA0 SHL SUB NOT DUP4 AND DUP2 OR SWAP1 SWAP4 SSTORE PUSH1 0x40 MLOAD SWAP2 AND SWAP2 SWAP1 DUP3 SWAP1 PUSH32 0x8BE0079C531659141344CD1FD0A4F28419497F9722A3DAAFE3B4186F6B6457E0 SWAP1 PUSH0 SWAP1 LOG3 POP POP JUMP JUMPDEST PUSH1 0x1 PUSH1 0x1 PUSH1 0xA0 SHL SUB DUP5 AND PUSH2 0x784 JUMPI PUSH1 0x40 MLOAD PUSH4 0xE602DF05 PUSH1 0xE0 SHL DUP2 MSTORE PUSH0 PUSH1 0x4 DUP3 ADD MSTORE PUSH1 0x24 ADD PUSH2 0x5AC JUMP JUMPDEST PUSH1 0x1 PUSH1 0x1 PUSH1 0xA0 SHL SUB DUP4 AND PUSH2 0x7AD JUMPI PUSH1 0x40 MLOAD PUSH4 0x4A1406B1 PUSH1 0xE1 SHL DUP2 MSTORE PUSH0 PUSH1 0x4 DUP3 ADD MSTORE PUSH1 0x24 ADD PUSH2 0x5AC JUMP JUMPDEST PUSH1 0x1 PUSH1 0x1 PUSH1 0xA0 SHL SUB DUP1 DUP6 AND PUSH0 SWAP1 DUP2 MSTORE PUSH1 0x1 PUSH1 0x20 SWAP1 DUP2 MSTORE PUSH1 0x40 DUP1 DUP4 KECCAK256 SWAP4 DUP8 AND DUP4 MSTORE SWAP3 SWAP1 MSTORE KECCAK256 DUP3 SWAP1 SSTORE DUP1 ISZERO PUSH2 0x673 JUMPI DUP3 PUSH1 0x1 PUSH1 0x1 PUSH1 0xA0 SHL SUB AND DUP5 PUSH1 0x1 PUSH1 0x1 PUSH1 0xA0 SHL SUB AND PUSH32 0x8C5BE1E5EBEC7D5BD14F71427D1E84F3DD0314C0F7B2291E5B200AC8C7C3B925 DUP5 PUSH1 0x40 MLOAD PUSH2 0x81F SWAP2 DUP2 MSTORE PUSH1 0x20 ADD SWAP1 JUMP JUMPDEST PUSH1 0x40 MLOAD DUP1 SWAP2 SUB SWAP1 LOG3 POP POP POP POP JUMP JUMPDEST PUSH1 0x1 PUSH1 0x1 PUSH1 0xA0 SHL SUB DUP4 AND PUSH0 SWAP1 DUP2 MSTORE PUSH1 0x9 PUSH1 0x20 MSTORE PUSH1 0x40 SWAP1 KECCAK256 SLOAD PUSH1 0xFF AND DUP1 PUSH2 0x86A JUMPI POP PUSH1 0x1 PUSH1 0x1 PUSH1 0xA0 SHL SUB DUP3 AND PUSH0 SWAP1 DUP2 MSTORE PUSH1 0x9 PUSH1 0x20 MSTORE PUSH1 0x40 SWAP1 KECCAK256 SLOAD PUSH1 0xFF AND JUMPDEST ISZERO PUSH2 0x87A JUMPI PUSH2 0x5CB DUP4 DUP4 DUP4 PUSH2 0x97C JUMP JUMPDEST PUSH1 0x7 SLOAD PUSH1 0xFF AND PUSH2 0x89D JUMPI PUSH1 0x40 MLOAD PUSH4 0xE09F0331 PUSH1 0xE0 SHL DUP2 MSTORE PUSH1 0x4 ADD PUSH1 0x40 MLOAD DUP1 SWAP2 SUB SWAP1 REVERT JUMPDEST PUSH1 0x1 PUSH1 0x1 PUSH1 0xA0 SHL SUB DUP4 AND PUSH0 SWAP1 DUP2 MSTORE PUSH1 0x8 PUSH1 0x20 MSTORE PUSH1 0x40 SWAP1 KECCAK256 SLOAD PUSH1 0xFF AND DUP1 PUSH2 0x8DA JUMPI POP PUSH1 0x1 PUSH1 0x1 PUSH1 0xA0 SHL SUB DUP3 AND PUSH0 SWAP1 DUP2 MSTORE PUSH1 0x8 PUSH1 0x20 MSTORE PUSH1 0x40 SWAP1 KECCAK256 SLOAD PUSH1 0xFF AND JUMPDEST ISZERO PUSH2 0x8F8 JUMPI PUSH1 0x40 MLOAD PUSH4 0x9550C77 PUSH1 0xE0 SHL DUP2 MSTORE PUSH1 0x4 ADD PUSH1 0x40 MLOAD DUP1 SWAP2 SUB SWAP1 REVERT JUMPDEST PUSH1 0x7 SLOAD PUSH2 0x100 SWAP1 DIV PUSH1 0xFF AND ISZERO PUSH2 0x975 JUMPI PUSH1 0x6 SLOAD DUP2 GT ISZERO PUSH2 0x92A JUMPI PUSH1 0x40 MLOAD PUSH3 0x710557 PUSH1 0xE7 SHL DUP2 MSTORE PUSH1 0x4 ADD PUSH1 0x40 MLOAD DUP1 SWAP2 SUB SWAP1 REVERT JUMPDEST PUSH1 0x6 SLOAD DUP2 PUSH2 0x94C DUP5 PUSH1 0x1 PUSH1 0x1 PUSH1 0xA0 SHL SUB AND PUSH0 SWAP1 DUP2 MSTORE PUSH1 0x20 DUP2 SWAP1 MSTORE PUSH1 0x40 SWAP1 KECCAK256 SLOAD SWAP1 JUMP JUMPDEST PUSH2 0x956 SWAP2 SWAP1 PUSH2 0xC58 JUMP JUMPDEST GT ISZERO PUSH2 0x975 JUMPI PUSH1 0x40 MLOAD PUSH4 0x426D5B23 PUSH1 0xE1 SHL DUP2 MSTORE PUSH1 0x4 ADD PUSH1 0x40 MLOAD DUP1 SWAP2 SUB SWAP1 REVERT JUMPDEST PUSH2 0x5CB DUP4 DUP4 DUP4 JUMPDEST PUSH1 0x1 PUSH1 0x1 PUSH1 0xA0 SHL SUB DUP4 AND PUSH2 0x9A6 JUMPI DUP1 PUSH1 0x2 PUSH0 DUP3 DUP3 SLOAD PUSH2 0x99B SWAP2 SWAP1 PUSH2 0xC58 JUMP JUMPDEST SWAP1 SWAP2 SSTORE POP PUSH2 0xA16 SWAP1 POP JUMP JUMPDEST PUSH1 0x1 PUSH1 0x1 PUSH1 0xA0 SHL SUB DUP4 AND PUSH0 SWAP1 DUP2 MSTORE PUSH1 0x20 DUP2 SWAP1 MSTORE PUSH1 0x40 SWAP1 KECCAK256 SLOAD DUP2 DUP2 LT ISZERO PUSH2 0x9F8 JUMPI PUSH1 0x40 MLOAD PUSH4 0x391434E3 PUSH1 0xE2 SHL DUP2 MSTORE PUSH1 0x1 PUSH1 0x1 PUSH1 0xA0 SHL SUB DUP6 AND PUSH1 0x4 DUP3 ADD MSTORE PUSH1 0x24 DUP2 ADD DUP3 SWAP1 MSTORE PUSH1 0x44 DUP2 ADD DUP4 SWAP1 MSTORE PUSH1 0x64 ADD PUSH2 0x5AC JUMP JUMPDEST PUSH1 0x1 PUSH1 0x1 PUSH1 0xA0 SHL SUB DUP5 AND PUSH0 SWAP1 DUP2 MSTORE PUSH1 0x20 DUP2 SWAP1 MSTORE PUSH1 0x40 SWAP1 KECCAK256 SWAP1 DUP3 SWAP1 SUB SWAP1 SSTORE JUMPDEST PUSH1 0x1 PUSH1 0x1 PUSH1 0xA0 SHL SUB DUP3 AND PUSH2 0xA32 JUMPI PUSH1 0x2 DUP1 SLOAD DUP3 SWAP1 SUB SWAP1 SSTORE PUSH2 0xA50 JUMP JUMPDEST PUSH1 0x1 PUSH1 0x1 PUSH1 0xA0 SHL SUB DUP3 AND PUSH0 SWAP1 DUP2 MSTORE PUSH1 0x20 DUP2 SWAP1 MSTORE PUSH1 0x40 SWAP1 KECCAK256 DUP1 SLOAD DUP3 ADD SWAP1 SSTORE JUMPDEST DUP2 PUSH1 0x1 PUSH1 0x1 PUSH1 0xA0 SHL SUB AND DUP4 PUSH1 0x1 PUSH1 0x1 PUSH1 0xA0 SHL SUB AND PUSH32 0xDDF252AD1BE2C89B69C2B068FC378DAA952BA7F163C4A11628F55A4DF523B3EF DUP4 PUSH1 0x40 MLOAD PUSH2 0xA95 SWAP2 DUP2 MSTORE PUSH1 0x20 ADD SWAP1 JUMP JUMPDEST PUSH1 0x40 MLOAD DUP1 SWAP2 SUB SWAP1 LOG3 POP POP POP JUMP JUMPDEST PUSH1 0x20 DUP2 MSTORE PUSH0 DUP3 MLOAD DUP1 PUSH1 0x20 DUP5 ADD MSTORE DUP1 PUSH1 0x20 DUP6 ADD PUSH1 0x40 DUP6 ADD MCOPY PUSH0 PUSH1 0x40 DUP3 DUP6 ADD ADD MSTORE PUSH1 0x40 PUSH1 0x1F NOT PUSH1 0x1F DUP4 ADD AND DUP5 ADD ADD SWAP2 POP POP SWAP3 SWAP2 POP POP JUMP JUMPDEST DUP1 CALLDATALOAD PUSH1 0x1 PUSH1 0x1 PUSH1 0xA0 SHL SUB DUP2 AND DUP2 EQ PUSH2 0xAED JUMPI PUSH0 PUSH0 REVERT JUMPDEST SWAP2 SWAP1 POP JUMP JUMPDEST PUSH0 PUSH0 PUSH1 0x40 DUP4 DUP6 SUB SLT ISZERO PUSH2 0xB03 JUMPI PUSH0 PUSH0 REVERT JUMPDEST PUSH2 0xB0C DUP4 PUSH2 0xAD7 JUMP JUMPDEST SWAP5 PUSH1 0x20 SWAP4 SWAP1 SWAP4 ADD CALLDATALOAD SWAP4 POP POP POP JUMP JUMPDEST PUSH0 PUSH0 PUSH1 0x40 DUP4 DUP6 SUB SLT ISZERO PUSH2 0xB2B JUMPI PUSH0 PUSH0 REVERT JUMPDEST PUSH2 0xB34 DUP4 PUSH2 0xAD7 JUMP JUMPDEST SWAP2 POP PUSH1 0x20 DUP4 ADD CALLDATALOAD DUP1 ISZERO ISZERO DUP2 EQ PUSH2 0xB48 JUMPI PUSH0 PUSH0 REVERT JUMPDEST DUP1 SWAP2 POP POP SWAP3 POP SWAP3 SWAP1 POP JUMP JUMPDEST PUSH0 PUSH0 PUSH0 PUSH1 0x60 DUP5 DUP7 SUB SLT ISZERO PUSH2 0xB65 JUMPI PUSH0 PUSH0 REVERT JUMPDEST PUSH2 0xB6E DUP5 PUSH2 0xAD7 JUMP JUMPDEST SWAP3 POP PUSH2 0xB7C PUSH1 0x20 DUP6 ADD PUSH2 0xAD7 JUMP JUMPDEST SWAP3 SWAP6 SWAP3 SWAP5 POP POP POP PUSH1 0x40 SWAP2 SWAP1 SWAP2 ADD CALLDATALOAD SWAP1 JUMP JUMPDEST PUSH0 PUSH1 0x20 DUP3 DUP5 SUB SLT ISZERO PUSH2 0xB9D JUMPI PUSH0 PUSH0 REVERT JUMPDEST POP CALLDATALOAD SWAP2 SWAP1 POP JUMP JUMPDEST PUSH0 PUSH1 0x20 DUP3 DUP5 SUB SLT ISZERO PUSH2 0xBB4 JUMPI PUSH0 PUSH0 REVERT JUMPDEST PUSH2 0xBBD DUP3 PUSH2 0xAD7 JUMP JUMPDEST SWAP4 SWAP3 POP POP POP JUMP JUMPDEST PUSH0 PUSH0 PUSH1 0x40 DUP4 DUP6 SUB SLT ISZERO PUSH2 0xBD5 JUMPI PUSH0 PUSH0 REVERT JUMPDEST PUSH2 0xBDE DUP4 PUSH2 0xAD7 JUMP JUMPDEST SWAP2 POP PUSH2 0xBEC PUSH1 0x20 DUP5 ADD PUSH2 0xAD7 JUMP JUMPDEST SWAP1 POP SWAP3 POP SWAP3 SWAP1 POP JUMP JUMPDEST PUSH1 0x1 DUP2 DUP2 SHR SWAP1 DUP3 AND DUP1 PUSH2 0xC09 JUMPI PUSH1 0x7F DUP3 AND SWAP2 POP JUMPDEST PUSH1 0x20 DUP3 LT DUP2 SUB PUSH2 0xC27 JUMPI PUSH4 0x4E487B71 PUSH1 0xE0 SHL PUSH0 MSTORE PUSH1 0x22 PUSH1 0x4 MSTORE PUSH1 0x24 PUSH0 REVERT JUMPDEST POP SWAP2 SWAP1 POP JUMP JUMPDEST PUSH4 0x4E487B71 PUSH1 0xE0 SHL PUSH0 MSTORE PUSH1 0x11 PUSH1 0x4 MSTORE PUSH1 0x24 PUSH0 REVERT JUMPDEST DUP1 DUP3 MUL DUP2 ISZERO DUP3 DUP3 DIV DUP5 EQ OR PUSH2 0x429 JUMPI PUSH2 0x429 PUSH2 0xC2D JUMP JUMPDEST DUP1 DUP3 ADD DUP1 DUP3 GT ISZERO PUSH2 0x429 JUMPI PUSH2 0x429 PUSH2 0xC2D JUMP INVALID LOG2 PUSH5 0x6970667358 0x22 SLT KECCAK256 0xBE SWAP10 PUSH20 0x3F7145639083DE4F4EB805826D2F671C89BE4539 0xDE DIV 0xF6 PUSH21 0xE1BEE38C5264736F6C634300082100330000000000 "
				},
				"gasEstimates": {
					"creation": {
						"codeDepositCost": "646600",
						"executionCost": "infinite",
						"totalCost": "infinite"
					},
					"external": {
						"MAX_SUPPLY()": "305",
						"allowance(address,address)": "infinite",
						"approve(address,uint256)": "24757",
						"balanceOf(address)": "2604",
						"burn(uint256)": "infinite",
						"burnFrom(address,uint256)": "infinite",
						"decimals()": "265",
						"excludeFromLimits(address,bool)": "26943",
						"isBlacklisted(address)": "2616",
						"isExcludedFromLimits(address)": "2551",
						"limitsEffect()": "2410",
						"maxLimit()": "2428",
						"name()": "infinite",
						"owner()": "2433",
						"removeLimitsPermanently()": "26570",
						"renounceOwnership()": "infinite",
						"setBlacklist(address,bool)": "26922",
						"startTrading()": "26598",
						"symbol()": "infinite",
						"totalSupply()": "2392",
						"tradingOpen()": "2419",
						"transfer(address,uint256)": "infinite",
						"transferFrom(address,address,uint256)": "infinite",
						"transferOwnership(address)": "28399",
						"updateMaxLimit(uint256)": "26758"
					},
					"internal": {
						"_update(address,address,uint256)": "infinite"
					}
				},
				"methodIdentifiers": {
					"MAX_SUPPLY()": "32cb6b0c",
					"allowance(address,address)": "dd62ed3e",
					"approve(address,uint256)": "095ea7b3",
					"balanceOf(address)": "70a08231",
					"burn(uint256)": "42966c68",
					"burnFrom(address,uint256)": "79cc6790",
					"decimals()": "313ce567",
					"excludeFromLimits(address,bool)": "c0a904a2",
					"isBlacklisted(address)": "fe575a87",
					"isExcludedFromLimits(address)": "5cce86cd",
					"limitsEffect()": "16a17a8a",
					"maxLimit()": "1a861d26",
					"name()": "06fdde03",
					"owner()": "8da5cb5b",
					"removeLimitsPermanently()": "648fd61f",
					"renounceOwnership()": "715018a6",
					"setBlacklist(address,bool)": "153b0d1e",
					"startTrading()": "293230b8",
					"symbol()": "95d89b41",
					"totalSupply()": "18160ddd",
					"tradingOpen()": "ffb54a99",
					"transfer(address,uint256)": "a9059cbb",
					"transferFrom(address,address,uint256)": "23b872dd",
					"transferOwnership(address)": "f2fde38b",
					"updateMaxLimit(uint256)": "29144bdb"
				}
			},
			"storageLayout": {
				"storage": [
					{
						"astId": 307,
						"contract": "kcash.sol:Kash",
						"label": "_balances",
						"offset": 0,
						"slot": "0",
						"type": "t_mapping(t_address,t_uint256)"
					},
					{
						"astId": 313,
						"contract": "kcash.sol:Kash",
						"label": "_allowances",
						"offset": 0,
						"slot": "1",
						"type": "t_mapping(t_address,t_mapping(t_address,t_uint256))"
					},
					{
						"astId": 315,
						"contract": "kcash.sol:Kash",
						"label": "_totalSupply",
						"offset": 0,
						"slot": "2",
						"type": "t_uint256"
					},
					{
						"astId": 317,
						"contract": "kcash.sol:Kash",
						"label": "_name",
						"offset": 0,
						"slot": "3",
						"type": "t_string_storage"
					},
					{
						"astId": 319,
						"contract": "kcash.sol:Kash",
						"label": "_symbol",
						"offset": 0,
						"slot": "4",
						"type": "t_string_storage"
					},
					{
						"astId": 8,
						"contract": "kcash.sol:Kash",
						"label": "_owner",
						"offset": 0,
						"slot": "5",
						"type": "t_address"
					},
					{
						"astId": 1017,
						"contract": "kcash.sol:Kash",
						"label": "maxLimit",
						"offset": 0,
						"slot": "6",
						"type": "t_uint256"
					},
					{
						"astId": 1020,
						"contract": "kcash.sol:Kash",
						"label": "tradingOpen",
						"offset": 0,
						"slot": "7",
						"type": "t_bool"
					},
					{
						"astId": 1023,
						"contract": "kcash.sol:Kash",
						"label": "limitsEffect",
						"offset": 1,
						"slot": "7",
						"type": "t_bool"
					},
					{
						"astId": 1027,
						"contract": "kcash.sol:Kash",
						"label": "isBlacklisted",
						"offset": 0,
						"slot": "8",
						"type": "t_mapping(t_address,t_bool)"
					},
					{
						"astId": 1031,
						"contract": "kcash.sol:Kash",
						"label": "isExcludedFromLimits",
						"offset": 0,
						"slot": "9",
						"type": "t_mapping(t_address,t_bool)"
					}
				],
				"types": {
					"t_address": {
						"encoding": "inplace",
						"label": "address",
						"numberOfBytes": "20"
					},
					"t_bool": {
						"encoding": "inplace",
						"label": "bool",
						"numberOfBytes": "1"
					},
					"t_mapping(t_address,t_bool)": {
						"encoding": "mapping",
						"key": "t_address",
						"label": "mapping(address => bool)",
						"numberOfBytes": "32",
						"value": "t_bool"
					},
					"t_mapping(t_address,t_mapping(t_address,t_uint256))": {
						"encoding": "mapping",
						"key": "t_address",
						"label": "mapping(address => mapping(address => uint256))",
						"numberOfBytes": "32",
						"value": "t_mapping(t_address,t_uint256)"
					},
					"t_mapping(t_address,t_uint256)": {
						"encoding": "mapping",
						"key": "t_address",
						"label": "mapping(address => uint256)",
						"numberOfBytes": "32",
						"value": "t_uint256"
					},
					"t_string_storage": {
						"encoding": "bytes",
						"label": "string",
						"numberOfBytes": "32"
					},
					"t_uint256": {
						"encoding": "inplace",
						"label": "uint256",
						"numberOfBytes": "32"
					}
				}
			},
			"userdoc": {
				"kind": "user",
				"methods": {},
				"version": 1
			}
		}
	}
}