{
	"Kash_flattened.sol": {
		"Kash": {
			"abi": [
				{
					"inputs": [],
					"stateMutability": "nonpayable",
					"type": "constructor"
				},
				{
					"inputs": [],
					"name": "Blacklisted",
					"type": "error"
				},
				{
					"inputs": [
						{
							"internalType": "address",
							"name": "spender",
							"type": "address"
						},
						{
							"internalType": "uint256",
							"name": "allowance",
							"type": "uint256"
						},
						{
							"internalType": "uint256",
							"name": "needed",
							"type": "uint256"
						}
					],
					"name": "ERC20InsufficientAllowance",
					"type": "error"
				},
				{
					"inputs": [
						{
							"internalType": "address",
							"name": "sender",
							"type": "address"
						},
						{
							"internalType": "uint256",
							"name": "balance",
							"type": "uint256"
						},
						{
							"internalType": "uint256",
							"name": "needed",
							"type": "uint256"
						}
					],
					"name": "ERC20InsufficientBalance",
					"type": "error"
				},
				{
					"inputs": [
						{
							"internalType": "address",
							"name": "approver",
							"type": "address"
						}
					],
					"name": "ERC20InvalidApprover",
					"type": "error"
				},
				{
					"inputs": [
						{
							"internalType": "address",
							"name": "receiver",
							"type": "address"
						}
					],
					"name": "ERC20InvalidReceiver",
					"type": "error"
				},
				{
					"inputs": [
						{
							"internalType": "address",
							"name": "sender",
							"type": "address"
						}
					],
					"name": "ERC20InvalidSender",
					"type": "error"
				},
				{
					"inputs": [
						{
							"internalType": "address",
							"name": "spender",
							"type": "address"
						}
					],
					"name": "ERC20InvalidSpender",
					"type": "error"
				},
				{
					"inputs": [],
					"name": "LimitsGone",
					"type": "error"
				},
				{
					"inputs": [
						{
							"internalType": "address",
							"name": "owner",
							"type": "address"
						}
					],
					"name": "OwnableInvalidOwner",
					"type": "error"
				},
				{
					"inputs": [
						{
							"internalType": "address",
							"name": "account",
							"type": "address"
						}
					],
					"name": "OwnableUnauthorizedAccount",
					"type": "error"
				},
				{
					"inputs": [],
					"name": "TradingClosed",
					"type": "error"
				},
				{
					"inputs": [],
					"name": "TxLimit",
					"type": "error"
				},
				{
					"inputs": [],
					"name": "WalletLimit",
					"type": "error"
				},
				{
					"anonymous": false,
					"inputs": [
						{
							"indexed": true,
							"internalType": "address",
							"name": "owner",
							"type": "address"
						},
						{
							"indexed": true,
							"internalType": "address",
							"name": "spender",
							"type": "address"
						},
						{
							"indexed": false,
							"internalType": "uint256",
							"name": "value",
							"type": "uint256"
						}
					],
					"name": "Approval",
					"type": "event"
				},
				{
					"anonymous": false,
					"inputs": [
						{
							"indexed": true,
							"internalType": "address",
							"name": "previousOwner",
							"type": "address"
						},
						{
							"indexed": true,
							"internalType": "address",
							"name": "newOwner",
							"type": "address"
						}
					],
					"name": "OwnershipTransferred",
					"type": "event"
				},
				{
					"anonymous": false,
					"inputs": [
						{
							"indexed": true,
							"internalType": "address",
							"name": "from",
							"type": "address"
						},
						{
							"indexed": true,
							"internalType": "address",
							"name": "to",
							"type": "address"
						},
						{
							"indexed": false,
							"internalType": "uint256",
							"name": "value",
							"type": "uint256"
						}
					],
					"name": "Transfer",
					"type": "event"
				},
				{
					"inputs": [],
					"name": "MAX_SUPPLY",
					"outputs": [
						{
							"internalType": "uint256",
							"name": "",
							"type": "uint256"
						}
					],
					"stateMutability": "view",
					"type": "function"
				},
				{
					"inputs": [
						{
							"internalType": "address",
							"name": "owner",
							"type": "address"
						},
						{
							"internalType": "address",
							"name": "spender",
							"type": "address"
						}
					],
					"name": "allowance",
					"outputs": [
						{
							"internalType": "uint256",
							"name": "",
							"type": "uint256"
						}
					],
					"stateMutability": "view",
					"type": "function"
				},
				{
					"inputs": [
						{
							"internalType": "address",
							"name": "spender",
							"type": "address"
						},
						{
							"internalType": "uint256",
							"name": "value",
							"type": "uint256"
						}
					],
					"name": "approve",
					"outputs": [
						{
							"internalType": "bool",
							"name": "",
							"type": "bool"
						}
					],
					"stateMutability": "nonpayable",
					"type": "function"
				},
				{
					"inputs": [
						{
							"internalType": "address",
							"name": "account",
							"type": "address"
						}
					],
					"name": "balanceOf",
					"outputs": [
						{
							"internalType": "uint256",
							"name": "",
							"type": "uint256"
						}
					],
					"stateMutability": "view",
					"type": "function"
				},
				{
					"inputs": [
						{
							"internalType": "address",
							"name": "",
							"type": "address"
						}
					],
					"name": "blacklisted",
					"outputs": [
						{
							"internalType": "bool",
							"name": "",
							"type": "bool"
						}
					],
					"stateMutability": "view",
					"type": "function"
				},
				{
					"inputs": [
						{
							"internalType": "uint256",
							"name": "value",
							"type": "uint256"
						}
					],
					"name": "burn",
					"outputs": [],
					"stateMutability": "nonpayable",
					"type": "function"
				},
				{
					"inputs": [
						{
							"internalType": "address",
							"name": "account",
							"type": "address"
						},
						{
							"internalType": "uint256",
							"name": "value",
							"type": "uint256"
						}
					],
					"name": "burnFrom",
					"outputs": [],
					"stateMutability": "nonpayable",
					"type": "function"
				},
				{
					"inputs": [],
					"name": "decimals",
					"outputs": [
						{
							"internalType": "uint8",
							"name": "",
							"type": "uint8"
						}
					],
					"stateMutability": "view",
					"type": "function"
				},
				{
					"inputs": [
						{
							"internalType": "address",
							"name": "",
							"type": "address"
						}
					],
					"name": "excluded",
					"outputs": [
						{
							"internalType": "bool",
							"name": "",
							"type": "bool"
						}
					],
					"stateMutability": "view",
					"type": "function"
				},
				{
					"inputs": [],
					"name": "limitsActive",
					"outputs": [
						{
							"internalType": "bool",
							"name": "",
							"type": "bool"
						}
					],
					"stateMutability": "view",
					"type": "function"
				},
				{
					"inputs": [],
					"name": "maxLimit",
					"outputs": [
						{
							"internalType": "uint256",
							"name": "",
							"type": "uint256"
						}
					],
					"stateMutability": "view",
					"type": "function"
				},
				{
					"inputs": [],
					"name": "name",
					"outputs": [
						{
							"internalType": "string",
							"name": "",
							"type": "string"
						}
					],
					"stateMutability": "view",
					"type": "function"
				},
				{
					"inputs": [],
					"name": "owner",
					"outputs": [
						{
							"internalType": "address",
							"name": "",
							"type": "address"
						}
					],
					"stateMutability": "view",
					"type": "function"
				},
				{
					"inputs": [],
					"name": "removeLimits",
					"outputs": [],
					"stateMutability": "nonpayable",
					"type": "function"
				},
				{
					"inputs": [],
					"name": "renounceOwnership",
					"outputs": [],
					"stateMutability": "nonpayable",
					"type": "function"
				},
				{
					"inputs": [
						{
							"internalType": "address",
							"name": "acc",
							"type": "address"
						},
						{
							"internalType": "bool",
							"name": "state",
							"type": "bool"
						}
					],
					"name": "setBlacklist",
					"outputs": [],
					"stateMutability": "nonpayable",
					"type": "function"
				},
				{
					"inputs": [
						{
							"internalType": "address",
							"name": "acc",
							"type": "address"
						},
						{
							"internalType": "bool",
							"name": "state",
							"type": "bool"
						}
					],
					"name": "setExcluded",
					"outputs": [],
					"stateMutability": "nonpayable",
					"type": "function"
				},
				{
					"inputs": [
						{
							"internalType": "uint256",
							"name": "amount",
							"type": "uint256"
						}
					],
					"name": "setMaxLimit",
					"outputs": [],
					"stateMutability": "nonpayable",
					"type": "function"
				},
				{
					"inputs": [],
					"name": "startTrading",
					"outputs": [],
					"stateMutability": "nonpayable",
					"type": "function"
				},
				{
					"inputs": [],
					"name": "symbol",
					"outputs": [
						{
							"internalType": "string",
							"name": "",
							"type": "string"
						}
					],
					"stateMutability": "view",
					"type": "function"
				},
				{
					"inputs": [],
					"name": "totalSupply",
					"outputs": [
						{
							"internalType": "uint256",
							"name": "",
							"type": "uint256"
						}
					],
					"stateMutability": "view",
					"type": "function"
				},
				{
					"inputs": [],
					"name": "tradingOpen",
					"outputs": [
						{
							"internalType": "bool",
							"name": "",
							"type": "bool"
						}
					],
					"stateMutability": "view",
					"type": "function"
				},
				{
					"inputs": [
						{
							"internalType": "address",
							"name": "to",
							"type": "address"
						},
						{
							"internalType": "uint256",
							"name": "value",
							"type": "uint256"
						}
					],
					"name": "transfer",
					"outputs": [
						{
							"internalType": "bool",
							"name": "",
							"type": "bool"
						}
					],
					"stateMutability": "nonpayable",
					"type": "function"
				},
				{
					"inputs": [
						{
							"internalType": "address",
							"name": "from",
							"type": "address"
						},
						{
							"internalType": "address",
							"name": "to",
							"type": "address"
						},
						{
							"internalType": "uint256",
							"name": "value",
							"type": "uint256"
						}
					],
					"name": "transferFrom",
					"outputs": [
						{
							"internalType": "bool",
							"name": "",
							"type": "bool"
						}
					],
					"stateMutability": "nonpayable",
					"type": "function"
				},
				{
					"inputs": [
						{
							"internalType": "address",
							"name": "newOwner",
							"type": "address"
						}
					],
					"name": "transferOwnership",
					"outputs": [],
					"stateMutability": "nonpayable",
					"type": "function"
				}
			],
			"devdoc": {
				"errors": {
					"ERC20InsufficientAllowance(address,uint256,uint256)": [
						{
							"details": "Indicates a failure with the `spender`’s `allowance`. Used in transfers.",
							"params": {
								"allowance": "Amount of tokens a `spender` is allowed to operate with.",
								"needed": "Minimum amount required to perform a transfer.",
								"spender": "Address that may be allowed to operate on tokens without being their owner."
							}
						}
					],
					"ERC20InsufficientBalance(address,uint256,uint256)": [
						{
							"details": "Indicates an error related to the current `balance` of a `sender`. Used in transfers.",
							"params": {
								"balance": "Current balance for the interacting account.",
								"needed": "Minimum amount required to perform a transfer.",
								"sender": "Address whose tokens are being transferred."
							}
						}
					],
					"ERC20InvalidApprover(address)": [
						{
							"details": "Indicates a failure with the `approver` of a token to be approved. Used in approvals.",
							"params": {
								"approver": "Address initiating an approval operation."
							}
						}
					],
					"ERC20InvalidReceiver(address)": [
						{
							"details": "Indicates a failure with the token `receiver`. Used in transfers.",
							"params": {
								"receiver": "Address to which tokens are being transferred."
							}
						}
					],
					"ERC20InvalidSender(address)": [
						{
							"details": "Indicates a failure with the token `sender`. Used in transfers.",
							"params": {
								"sender": "Address whose tokens are being transferred."
							}
						}
					],
					"ERC20InvalidSpender(address)": [
						{
							"details": "Indicates a failure with the `spender` to be approved. Used in approvals.",
							"params": {
								"spender": "Address that may be allowed to operate on tokens without being their owner."
							}
						}
					],
					"OwnableInvalidOwner(address)": [
						{
							"details": "The owner is not a valid owner account. (eg. `address(0)`)"
						}
					],
					"OwnableUnauthorizedAccount(address)": [
						{
							"details": "The caller account is not authorized to perform an operation."
						}
					]
				},
				"events": {
					"Approval(address,address,uint256)": {
						"details": "Emitted when the allowance of a `spender` for an `owner` is set by a call to {approve}. `value` is the new allowance."
					},
					"Transfer(address,address,uint256)": {
						"details": "Emitted when `value` tokens are moved from one account (`from`) to another (`to`). Note that `value` may be zero."
					}
				},
				"kind": "dev",
				"methods": {
					"allowance(address,address)": {
						"details": "Returns the remaining number of tokens that `spender` will be allowed to spend on behalf of `owner` through {transferFrom}. This is zero by default. This value changes when {approve} or {transferFrom} are called."
					},
					"approve(address,uint256)": {
						"details": "See {IERC20-approve}. NOTE: If `value` is the maximum `uint256`, the allowance is not updated on `transferFrom`. This is semantically equivalent to an infinite approval. Requirements: - `spender` cannot be the zero address."
					},
					"balanceOf(address)": {
						"details": "Returns the value of tokens owned by `account`."
					},
					"burn(uint256)": {
						"details": "Destroys a `value` amount of tokens from the caller. See {ERC20-_burn}."
					},
					"burnFrom(address,uint256)": {
						"details": "Destroys a `value` amount of tokens from `account`, deducting from the caller's allowance. See {ERC20-_burn} and {ERC20-allowance}. Requirements: - the caller must have allowance for ``accounts``'s tokens of at least `value`."
					},
					"decimals()": {
						"details": "Returns the number of decimals used to get its user representation. For example, if `decimals` equals `2`, a balance of `505` tokens should be displayed to a user as `5.05` (`505 / 10 ** 2`). Tokens usually opt for a value of 18, imitating the relationship between Ether and Wei. This is the default value returned by this function, unless it's overridden. NOTE: This information is only used for _display_ purposes: it in no way affects any of the arithmetic of the contract, including {IERC20-balanceOf} and {IERC20-transfer}."
					},
					"name()": {
						"details": "Returns the name of the token."
					},
					"owner()": {
						"details": "Returns the address of the current owner."
					},
					"renounceOwnership()": {
						"details": "Leaves the contract without owner. It will not be possible to call `onlyOwner` functions. Can only be called by the current owner. NOTE: Renouncing ownership will leave the contract without an owner, thereby disabling any functionality that is only available to the owner."
					},
					"symbol()": {
						"details": "Returns the symbol of the token, usually a shorter version of the name."
					},
					"totalSupply()": {
						"details": "Returns the value of tokens in existence."
					},
					"transfer(address,uint256)": {
						"details": "See {IERC20-transfer}. Requirements: - `to` cannot be the zero address. - the caller must have a balance of at least `value`."
					},
					"transferFrom(address,address,uint256)": {
						"details": "See {IERC20-transferFrom}. Skips emitting an {Approval} event indicating an allowance update. This is not required by the ERC. See {xref-ERC20-_approve-address-address-uint256-bool-}[_approve]. NOTE: Does not update the allowance if the current allowance is the maximum `uint256`. Requirements: - `from` and `to` cannot be the zero address. - `from` must have a balance of at least `value`. - the caller must have allowance for ``from``'s tokens of at least `value`."
					},
					"transferOwnership(address)": {
						"details": "Transfers ownership of the contract to a new account (`newOwner`). Can only be called by the current owner."
					}
				},
				"version": 1
			},
			"evm": {
				"assembly": "    /* \"Kash_flattened.sol\":26057:28397  contract Kash is ERC20, ERC20Burnable, Ownable {... */\n  mstore(0x40, 0x80)\n    /* \"Kash_flattened.sol\":26424:26437  104_000 ether */\n  0x1605d9ee986271000000\n    /* \"Kash_flattened.sol\":26398:26437  uint256 public maxLimit = 104_000 ether */\n  0x06\n  sstore\n    /* \"Kash_flattened.sol\":26504:26508  true */\n  0x01\n    /* \"Kash_flattened.sol\":26477:26508  bool public limitsActive = true */\n  0x07\n  exp(0x0100, 0x01)\n  dup2\n  sload\n  dup2\n  0xff\n  mul\n  not\n  and\n  swap1\n  dup4\n  iszero\n  iszero\n  mul\n  or\n  swap1\n  sstore\n  pop\n    /* \"Kash_flattened.sol\":26657:26836  constructor() ERC20(\"Kash\", \"KASH\") Ownable(msg.sender) {... */\n  callvalue\n  dup1\n  iszero\n  tag_1\n  jumpi\n  revert(0x00, 0x00)\ntag_1:\n  pop\n    /* \"Kash_flattened.sol\":26701:26711  msg.sender */\n  caller\n    /* \"Kash_flattened.sol\":12484:12597  constructor(string memory name_, string memory symbol_) {... */\n  mload(0x40)\n  dup1\n  0x40\n  add\n  0x40\n  mstore\n  dup1\n  0x04\n  dup2\n  mstore\n  0x20\n  add\n  0x4b61736800000000000000000000000000000000000000000000000000000000\n  dup2\n  mstore\n  pop\n  mload(0x40)\n  dup1\n  0x40\n  add\n  0x40\n  mstore\n  dup1\n  0x04\n  dup2\n  mstore\n  0x20\n  add\n  0x4b41534800000000000000000000000000000000000000000000000000000000\n  dup2\n  mstore\n  pop\n    /* \"Kash_flattened.sol\":12558:12563  name_ */\n  dup2\n    /* \"Kash_flattened.sol\":12550:12555  _name */\n  0x03\n    /* \"Kash_flattened.sol\":12550:12563  _name = name_ */\n  swap1\n  dup2\n  tag_6\n  swap2\n  swap1\n  tag_7\n  jump\t// in\ntag_6:\n  pop\n    /* \"Kash_flattened.sol\":12583:12590  symbol_ */\n  dup1\n    /* \"Kash_flattened.sol\":12573:12580  _symbol */\n  0x04\n    /* \"Kash_flattened.sol\":12573:12590  _symbol = symbol_ */\n  swap1\n  dup2\n  tag_8\n  swap2\n  swap1\n  tag_7\n  jump\t// in\ntag_8:\n  pop\n    /* \"Kash_flattened.sol\":12484:12597  constructor(string memory name_, string memory symbol_) {... */\n  pop\n  pop\n    /* \"Kash_flattened.sol\":24114:24115  0 */\n  0x00\n    /* \"Kash_flattened.sol\":24090:24116  initialOwner == address(0) */\n  0xffffffffffffffffffffffffffffffffffffffff\n  and\n    /* \"Kash_flattened.sol\":24090:24102  initialOwner */\n  dup2\n    /* \"Kash_flattened.sol\":24090:24116  initialOwner == address(0) */\n  0xffffffffffffffffffffffffffffffffffffffff\n  and\n  sub\n    /* \"Kash_flattened.sol\":24086:24181  if (initialOwner == address(0)) {... */\n  tag_10\n  jumpi\n    /* \"Kash_flattened.sol\":24167:24168  0 */\n  0x00\n    /* \"Kash_flattened.sol\":24139:24170  OwnableInvalidOwner(address(0)) */\n  mload(0x40)\n  0x1e4fbdf700000000000000000000000000000000000000000000000000000000\n  dup2\n  mstore\n  0x04\n  add\n  tag_11\n  swap2\n  swap1\n  tag_12\n  jump\t// in\ntag_11:\n  mload(0x40)\n  dup1\n  swap2\n  sub\n  swap1\n  revert\n    /* \"Kash_flattened.sol\":24086:24181  if (initialOwner == address(0)) {... */\ntag_10:\n    /* \"Kash_flattened.sol\":24190:24222  _transferOwnership(initialOwner) */\n  tag_13\n    /* \"Kash_flattened.sol\":24209:24221  initialOwner */\n  dup2\n    /* \"Kash_flattened.sol\":24190:24208  _transferOwnership */\n  shl(0x20, tag_14)\n    /* \"Kash_flattened.sol\":24190:24222  _transferOwnership(initialOwner) */\n  0x20\n  shr\n  jump\t// in\ntag_13:\n    /* \"Kash_flattened.sol\":24042:24229  constructor(address initialOwner) {... */\n  pop\n    /* \"Kash_flattened.sol\":26746:26750  true */\n  0x01\n    /* \"Kash_flattened.sol\":26723:26731  excluded */\n  0x09\n    /* \"Kash_flattened.sol\":26723:26743  excluded[msg.sender] */\n  0x00\n    /* \"Kash_flattened.sol\":26732:26742  msg.sender */\n  caller\n    /* \"Kash_flattened.sol\":26723:26743  excluded[msg.sender] */\n  0xffffffffffffffffffffffffffffffffffffffff\n  and\n  0xffffffffffffffffffffffffffffffffffffffff\n  and\n  dup2\n  mstore\n  0x20\n  add\n  swap1\n  dup2\n  mstore\n  0x20\n  add\n  0x00\n  keccak256\n  0x00\n    /* \"Kash_flattened.sol\":26723:26750  excluded[msg.sender] = true */\n  0x0100\n  exp\n  dup2\n  sload\n  dup2\n  0xff\n  mul\n  not\n  and\n  swap1\n  dup4\n  iszero\n  iszero\n  mul\n  or\n  swap1\n  sstore\n  pop\n    /* \"Kash_flattened.sol\":26786:26790  true */\n  0x01\n    /* \"Kash_flattened.sol\":26760:26768  excluded */\n  0x09\n    /* \"Kash_flattened.sol\":26760:26783  excluded[address(this)] */\n  0x00\n    /* \"Kash_flattened.sol\":26777:26781  this */\n  address\n    /* \"Kash_flattened.sol\":26760:26783  excluded[address(this)] */\n  0xffffffffffffffffffffffffffffffffffffffff\n  and\n  0xffffffffffffffffffffffffffffffffffffffff\n  and\n  dup2\n  mstore\n  0x20\n  add\n  swap1\n  dup2\n  mstore\n  0x20\n  add\n  0x00\n  keccak256\n  0x00\n    /* \"Kash_flattened.sol\":26760:26790  excluded[address(this)] = true */\n  0x0100\n  exp\n  dup2\n  sload\n  dup2\n  0xff\n  mul\n  not\n  and\n  swap1\n  dup4\n  iszero\n  iszero\n  mul\n  or\n  swap1\n  sstore\n  pop\n    /* \"Kash_flattened.sol\":26800:26829  _mint(msg.sender, MAX_SUPPLY) */\n  tag_16\n    /* \"Kash_flattened.sol\":26806:26816  msg.sender */\n  caller\n    /* \"Kash_flattened.sol\":26376:26392  52_000_000 ether */\n  0x2b036da601a044b4000000\n    /* \"Kash_flattened.sol\":26800:26805  _mint */\n  shl(0x20, tag_17)\n    /* \"Kash_flattened.sol\":26800:26829  _mint(msg.sender, MAX_SUPPLY) */\n  0x20\n  shr\n  jump\t// in\ntag_16:\n    /* \"Kash_flattened.sol\":26057:28397  contract Kash is ERC20, ERC20Burnable, Ownable {... */\n  jump(tag_18)\n    /* \"Kash_flattened.sol\":25729:25916  function _transferOwnership(address newOwner) internal virtual {... */\ntag_14:\n    /* \"Kash_flattened.sol\":25802:25818  address oldOwner */\n  0x00\n    /* \"Kash_flattened.sol\":25821:25827  _owner */\n  0x05\n  0x00\n  swap1\n  sload\n  swap1\n  0x0100\n  exp\n  swap1\n  div\n  0xffffffffffffffffffffffffffffffffffffffff\n  and\n    /* \"Kash_flattened.sol\":25802:25827  address oldOwner = _owner */\n  swap1\n  pop\n    /* \"Kash_flattened.sol\":25846:25854  newOwner */\n  dup2\n    /* \"Kash_flattened.sol\":25837:25843  _owner */\n  0x05\n  0x00\n    /* \"Kash_flattened.sol\":25837:25854  _owner = newOwner */\n  0x0100\n  exp\n  dup2\n  sload\n  dup2\n  0xffffffffffffffffffffffffffffffffffffffff\n  mul\n  not\n  and\n  swap1\n  dup4\n  0xffffffffffffffffffffffffffffffffffffffff\n  and\n  mul\n  or\n  swap1\n  sstore\n  pop\n    /* \"Kash_flattened.sol\":25900:25908  newOwner */\n  dup2\n    /* \"Kash_flattened.sol\":25869:25909  OwnershipTransferred(oldOwner, newOwner) */\n  0xffffffffffffffffffffffffffffffffffffffff\n  and\n    /* \"Kash_flattened.sol\":25890:25898  oldOwner */\n  dup2\n    /* \"Kash_flattened.sol\":25869:25909  OwnershipTransferred(oldOwner, newOwner) */\n  0xffffffffffffffffffffffffffffffffffffffff\n  and\n  0x8be0079c531659141344cd1fd0a4f28419497f9722a3daafe3b4186f6b6457e0\n  mload(0x40)\n  mload(0x40)\n  dup1\n  swap2\n  sub\n  swap1\n  log3\n    /* \"Kash_flattened.sol\":25792:25916  {... */\n  pop\n    /* \"Kash_flattened.sol\":25729:25916  function _transferOwnership(address newOwner) internal virtual {... */\n  pop\n  jump\t// out\n    /* \"Kash_flattened.sol\":18264:18472  function _mint(address account, uint256 value) internal {... */\ntag_17:\n    /* \"Kash_flattened.sol\":18353:18354  0 */\n  0x00\n    /* \"Kash_flattened.sol\":18334:18355  account == address(0) */\n  0xffffffffffffffffffffffffffffffffffffffff\n  and\n    /* \"Kash_flattened.sol\":18334:18341  account */\n  dup3\n    /* \"Kash_flattened.sol\":18334:18355  account == address(0) */\n  0xffffffffffffffffffffffffffffffffffffffff\n  and\n  sub\n    /* \"Kash_flattened.sol\":18330:18421  if (account == address(0)) {... */\n  tag_21\n  jumpi\n    /* \"Kash_flattened.sol\":18407:18408  0 */\n  0x00\n    /* \"Kash_flattened.sol\":18378:18410  ERC20InvalidReceiver(address(0)) */\n  mload(0x40)\n  0xec442f0500000000000000000000000000000000000000000000000000000000\n  dup2\n  mstore\n  0x04\n  add\n  tag_22\n  swap2\n  swap1\n  tag_12\n  jump\t// in\ntag_22:\n  mload(0x40)\n  dup1\n  swap2\n  sub\n  swap1\n  revert\n    /* \"Kash_flattened.sol\":18330:18421  if (account == address(0)) {... */\ntag_21:\n    /* \"Kash_flattened.sol\":18430:18465  _update(address(0), account, value) */\n  tag_23\n    /* \"Kash_flattened.sol\":18446:18447  0 */\n  0x00\n    /* \"Kash_flattened.sol\":18450:18457  account */\n  dup4\n    /* \"Kash_flattened.sol\":18459:18464  value */\n  dup4\n    /* \"Kash_flattened.sol\":18430:18437  _update */\n  shl(0x20, tag_24)\n    /* \"Kash_flattened.sol\":18430:18465  _update(address(0), account, value) */\n  0x20\n  shr\n  jump\t// in\ntag_23:\n    /* \"Kash_flattened.sol\":18264:18472  function _mint(address account, uint256 value) internal {... */\n  pop\n  pop\n  jump\t// out\n    /* \"Kash_flattened.sol\":27534:28395  function _update(address from, address to, uint256 val) internal override {... */\ntag_24:\n    /* \"Kash_flattened.sol\":27686:27687  0 */\n  0x00\n    /* \"Kash_flattened.sol\":27670:27688  from == address(0) */\n  0xffffffffffffffffffffffffffffffffffffffff\n  and\n    /* \"Kash_flattened.sol\":27670:27674  from */\n  dup4\n    /* \"Kash_flattened.sol\":27670:27688  from == address(0) */\n  0xffffffffffffffffffffffffffffffffffffffff\n  and\n  eq\n    /* \"Kash_flattened.sol\":27670:27708  from == address(0) || to == address(0) */\n  dup1\n  tag_26\n  jumpi\n  pop\n    /* \"Kash_flattened.sol\":27706:27707  0 */\n  0x00\n    /* \"Kash_flattened.sol\":27692:27708  to == address(0) */\n  0xffffffffffffffffffffffffffffffffffffffff\n  and\n    /* \"Kash_flattened.sol\":27692:27694  to */\n  dup3\n    /* \"Kash_flattened.sol\":27692:27708  to == address(0) */\n  0xffffffffffffffffffffffffffffffffffffffff\n  and\n  eq\n    /* \"Kash_flattened.sol\":27670:27708  from == address(0) || to == address(0) */\ntag_26:\n    /* \"Kash_flattened.sol\":27670:27726  from == address(0) || to == address(0) || excluded[from] */\n  dup1\n  tag_27\n  jumpi\n  pop\n    /* \"Kash_flattened.sol\":27712:27720  excluded */\n  0x09\n    /* \"Kash_flattened.sol\":27712:27726  excluded[from] */\n  0x00\n    /* \"Kash_flattened.sol\":27721:27725  from */\n  dup5\n    /* \"Kash_flattened.sol\":27712:27726  excluded[from] */\n  0xffffffffffffffffffffffffffffffffffffffff\n  and\n  0xffffffffffffffffffffffffffffffffffffffff\n  and\n  dup2\n  mstore\n  0x20\n  add\n  swap1\n  dup2\n  mstore\n  0x20\n  add\n  0x00\n  keccak256\n  0x00\n  swap1\n  sload\n  swap1\n  0x0100\n  exp\n  swap1\n  div\n  0xff\n  and\n    /* \"Kash_flattened.sol\":27670:27726  from == address(0) || to == address(0) || excluded[from] */\ntag_27:\n    /* \"Kash_flattened.sol\":27670:27742  from == address(0) || to == address(0) || excluded[from] || excluded[to] */\n  dup1\n  tag_28\n  jumpi\n  pop\n    /* \"Kash_flattened.sol\":27730:27738  excluded */\n  0x09\n    /* \"Kash_flattened.sol\":27730:27742  excluded[to] */\n  0x00\n    /* \"Kash_flattened.sol\":27739:27741  to */\n  dup4\n    /* \"Kash_flattened.sol\":27730:27742  excluded[to] */\n  0xffffffffffffffffffffffffffffffffffffffff\n  and\n  0xffffffffffffffffffffffffffffffffffffffff\n  and\n  dup2\n  mstore\n  0x20\n  add\n  swap1\n  dup2\n  mstore\n  0x20\n  add\n  0x00\n  keccak256\n  0x00\n  swap1\n  sload\n  swap1\n  0x0100\n  exp\n  swap1\n  div\n  0xff\n  and\n    /* \"Kash_flattened.sol\":27670:27742  from == address(0) || to == address(0) || excluded[from] || excluded[to] */\ntag_28:\n    /* \"Kash_flattened.sol\":27666:27817  if (from == address(0) || to == address(0) || excluded[from] || excluded[to]) {... */\n  iszero\n  tag_29\n  jumpi\n    /* \"Kash_flattened.sol\":27758:27786  super._update(from, to, val) */\n  tag_30\n    /* \"Kash_flattened.sol\":27772:27776  from */\n  dup4\n    /* \"Kash_flattened.sol\":27778:27780  to */\n  dup4\n    /* \"Kash_flattened.sol\":27782:27785  val */\n  dup4\n    /* \"Kash_flattened.sol\":27758:27771  super._update */\n  shl(0x20, tag_31)\n    /* \"Kash_flattened.sol\":27758:27786  super._update(from, to, val) */\n  0x20\n  shr\n  jump\t// in\ntag_30:\n    /* \"Kash_flattened.sol\":27800:27807  return; */\n  jump(tag_25)\n    /* \"Kash_flattened.sol\":27666:27817  if (from == address(0) || to == address(0) || excluded[from] || excluded[to]) {... */\ntag_29:\n    /* \"Kash_flattened.sol\":27880:27891  tradingOpen */\n  0x07\n  0x00\n  swap1\n  sload\n  swap1\n  0x0100\n  exp\n  swap1\n  div\n  0xff\n  and\n    /* \"Kash_flattened.sol\":27875:27915  if (!tradingOpen) revert TradingClosed() */\n  tag_32\n  jumpi\n    /* \"Kash_flattened.sol\":27900:27915  TradingClosed() */\n  mload(0x40)\n  0xe2c865df00000000000000000000000000000000000000000000000000000000\n  dup2\n  mstore\n  0x04\n  add\n  mload(0x40)\n  dup1\n  swap2\n  sub\n  swap1\n  revert\n    /* \"Kash_flattened.sol\":27875:27915  if (!tradingOpen) revert TradingClosed() */\ntag_32:\n    /* \"Kash_flattened.sol\":27929:27940  blacklisted */\n  0x08\n    /* \"Kash_flattened.sol\":27929:27946  blacklisted[from] */\n  0x00\n    /* \"Kash_flattened.sol\":27941:27945  from */\n  dup5\n    /* \"Kash_flattened.sol\":27929:27946  blacklisted[from] */\n  0xffffffffffffffffffffffffffffffffffffffff\n  and\n  0xffffffffffffffffffffffffffffffffffffffff\n  and\n  dup2\n  mstore\n  0x20\n  add\n  swap1\n  dup2\n  mstore\n  0x20\n  add\n  0x00\n  keccak256\n  0x00\n  swap1\n  sload\n  swap1\n  0x0100\n  exp\n  swap1\n  div\n  0xff\n  and\n    /* \"Kash_flattened.sol\":27929:27965  blacklisted[from] || blacklisted[to] */\n  dup1\n  tag_33\n  jumpi\n  pop\n    /* \"Kash_flattened.sol\":27950:27961  blacklisted */\n  0x08\n    /* \"Kash_flattened.sol\":27950:27965  blacklisted[to] */\n  0x00\n    /* \"Kash_flattened.sol\":27962:27964  to */\n  dup4\n    /* \"Kash_flattened.sol\":27950:27965  blacklisted[to] */\n  0xffffffffffffffffffffffffffffffffffffffff\n  and\n  0xffffffffffffffffffffffffffffffffffffffff\n  and\n  dup2\n  mstore\n  0x20\n  add\n  swap1\n  dup2\n  mstore\n  0x20\n  add\n  0x00\n  keccak256\n  0x00\n  swap1\n  sload\n  swap1\n  0x0100\n  exp\n  swap1\n  div\n  0xff\n  and\n    /* \"Kash_flattened.sol\":27929:27965  blacklisted[from] || blacklisted[to] */\ntag_33:\n    /* \"Kash_flattened.sol\":27925:27987  if (blacklisted[from] || blacklisted[to]) revert Blacklisted() */\n  iszero\n  tag_34\n  jumpi\n    /* \"Kash_flattened.sol\":27974:27987  Blacklisted() */\n  mload(0x40)\n  0x09550c7700000000000000000000000000000000000000000000000000000000\n  dup2\n  mstore\n  0x04\n  add\n  mload(0x40)\n  dup1\n  swap2\n  sub\n  swap1\n  revert\n    /* \"Kash_flattened.sol\":27925:27987  if (blacklisted[from] || blacklisted[to]) revert Blacklisted() */\ntag_34:\n    /* \"Kash_flattened.sol\":28063:28075  limitsActive */\n  0x07\n  0x01\n  swap1\n  sload\n  swap1\n  0x0100\n  exp\n  swap1\n  div\n  0xff\n  and\n    /* \"Kash_flattened.sol\":28059:28342  if (limitsActive) {... */\n  iszero\n  tag_35\n  jumpi\n    /* \"Kash_flattened.sol\":28091:28108  uint256 _maxLimit */\n  0x00\n    /* \"Kash_flattened.sol\":28111:28119  maxLimit */\n  sload(0x06)\n    /* \"Kash_flattened.sol\":28091:28119  uint256 _maxLimit = maxLimit */\n  swap1\n  pop\n    /* \"Kash_flattened.sol\":28178:28187  _maxLimit */\n  dup1\n    /* \"Kash_flattened.sol\":28172:28175  val */\n  dup3\n    /* \"Kash_flattened.sol\":28172:28187  val > _maxLimit */\n  gt\n    /* \"Kash_flattened.sol\":28168:28205  if (val > _maxLimit) revert TxLimit() */\n  iszero\n  tag_36\n  jumpi\n    /* \"Kash_flattened.sol\":28196:28205  TxLimit() */\n  mload(0x40)\n  0x8d35786200000000000000000000000000000000000000000000000000000000\n  dup2\n  mstore\n  0x04\n  add\n  mload(0x40)\n  dup1\n  swap2\n  sub\n  swap1\n  revert\n    /* \"Kash_flattened.sol\":28168:28205  if (val > _maxLimit) revert TxLimit() */\ntag_36:\n    /* \"Kash_flattened.sol\":28286:28295  _maxLimit */\n  dup1\n    /* \"Kash_flattened.sol\":28280:28283  val */\n  dup3\n    /* \"Kash_flattened.sol\":28264:28277  balanceOf(to) */\n  tag_37\n    /* \"Kash_flattened.sol\":28274:28276  to */\n  dup6\n    /* \"Kash_flattened.sol\":28264:28273  balanceOf */\n  shl(0x20, tag_38)\n    /* \"Kash_flattened.sol\":28264:28277  balanceOf(to) */\n  0x20\n  shr\n  jump\t// in\ntag_37:\n    /* \"Kash_flattened.sol\":28264:28283  balanceOf(to) + val */\n  add\n    /* \"Kash_flattened.sol\":28264:28295  balanceOf(to) + val > _maxLimit */\n  gt\n    /* \"Kash_flattened.sol\":28260:28317  if (balanceOf(to) + val > _maxLimit) revert WalletLimit() */\n  iszero\n  tag_39\n  jumpi\n    /* \"Kash_flattened.sol\":28304:28317  WalletLimit() */\n  mload(0x40)\n  0x5426a58000000000000000000000000000000000000000000000000000000000\n  dup2\n  mstore\n  0x04\n  add\n  mload(0x40)\n  dup1\n  swap2\n  sub\n  swap1\n  revert\n    /* \"Kash_flattened.sol\":28260:28317  if (balanceOf(to) + val > _maxLimit) revert WalletLimit() */\ntag_39:\n    /* \"Kash_flattened.sol\":28077:28342  {... */\n  pop\n    /* \"Kash_flattened.sol\":28059:28342  if (limitsActive) {... */\ntag_35:\n    /* \"Kash_flattened.sol\":28360:28388  super._update(from, to, val) */\n  tag_40\n    /* \"Kash_flattened.sol\":28374:28378  from */\n  dup4\n    /* \"Kash_flattened.sol\":28380:28382  to */\n  dup4\n    /* \"Kash_flattened.sol\":28384:28387  val */\n  dup4\n    /* \"Kash_flattened.sol\":28360:28373  super._update */\n  shl(0x20, tag_31)\n    /* \"Kash_flattened.sol\":28360:28388  super._update(from, to, val) */\n  0x20\n  shr\n  jump\t// in\ntag_40:\n    /* \"Kash_flattened.sol\":27534:28395  function _update(address from, address to, uint256 val) internal override {... */\ntag_25:\n  pop\n  pop\n  pop\n  jump\t// out\n    /* \"Kash_flattened.sol\":16814:17921  function _update(address from, address to, uint256 value) internal virtual {... */\ntag_31:\n    /* \"Kash_flattened.sol\":16919:16920  0 */\n  0x00\n    /* \"Kash_flattened.sol\":16903:16921  from == address(0) */\n  0xffffffffffffffffffffffffffffffffffffffff\n  and\n    /* \"Kash_flattened.sol\":16903:16907  from */\n  dup4\n    /* \"Kash_flattened.sol\":16903:16921  from == address(0) */\n  0xffffffffffffffffffffffffffffffffffffffff\n  and\n  sub\n    /* \"Kash_flattened.sol\":16899:17439  if (from == address(0)) {... */\n  tag_42\n  jumpi\n    /* \"Kash_flattened.sol\":17055:17060  value */\n  dup1\n    /* \"Kash_flattened.sol\":17039:17051  _totalSupply */\n  0x02\n  0x00\n    /* \"Kash_flattened.sol\":17039:17060  _totalSupply += value */\n  dup3\n  dup3\n  sload\n  tag_43\n  swap2\n  swap1\n  tag_44\n  jump\t// in\ntag_43:\n  swap3\n  pop\n  pop\n  dup2\n  swap1\n  sstore\n  pop\n    /* \"Kash_flattened.sol\":16899:17439  if (from == address(0)) {... */\n  jump(tag_45)\ntag_42:\n    /* \"Kash_flattened.sol\":17091:17110  uint256 fromBalance */\n  0x00\n    /* \"Kash_flattened.sol\":17113:17122  _balances */\n  0x00\n    /* \"Kash_flattened.sol\":17113:17128  _balances[from] */\n  0x00\n    /* \"Kash_flattened.sol\":17123:17127  from */\n  dup6\n    /* \"Kash_flattened.sol\":17113:17128  _balances[from] */\n  0xffffffffffffffffffffffffffffffffffffffff\n  and\n  0xffffffffffffffffffffffffffffffffffffffff\n  and\n  dup2\n  mstore\n  0x20\n  add\n  swap1\n  dup2\n  mstore\n  0x20\n  add\n  0x00\n  keccak256\n  sload\n    /* \"Kash_flattened.sol\":17091:17128  uint256 fromBalance = _balances[from] */\n  swap1\n  pop\n    /* \"Kash_flattened.sol\":17160:17165  value */\n  dup2\n    /* \"Kash_flattened.sol\":17146:17157  fromBalance */\n  dup2\n    /* \"Kash_flattened.sol\":17146:17165  fromBalance < value */\n  lt\n    /* \"Kash_flattened.sol\":17142:17257  if (fromBalance < value) {... */\n  iszero\n  tag_46\n  jumpi\n    /* \"Kash_flattened.sol\":17217:17221  from */\n  dup4\n    /* \"Kash_flattened.sol\":17223:17234  fromBalance */\n  dup2\n    /* \"Kash_flattened.sol\":17236:17241  value */\n  dup4\n    /* \"Kash_flattened.sol\":17192:17242  ERC20InsufficientBalance(from, fromBalance, value) */\n  mload(0x40)\n  0xe450d38c00000000000000000000000000000000000000000000000000000000\n  dup2\n  mstore\n  0x04\n  add\n  tag_47\n  swap4\n  swap3\n  swap2\n  swap1\n  tag_48\n  jump\t// in\ntag_47:\n  mload(0x40)\n  dup1\n  swap2\n  sub\n  swap1\n  revert\n    /* \"Kash_flattened.sol\":17142:17257  if (fromBalance < value) {... */\ntag_46:\n    /* \"Kash_flattened.sol\":17409:17414  value */\n  dup2\n    /* \"Kash_flattened.sol\":17395:17406  fromBalance */\n  dup2\n    /* \"Kash_flattened.sol\":17395:17414  fromBalance - value */\n  sub\n    /* \"Kash_flattened.sol\":17377:17386  _balances */\n  0x00\n    /* \"Kash_flattened.sol\":17377:17392  _balances[from] */\n  0x00\n    /* \"Kash_flattened.sol\":17387:17391  from */\n  dup7\n    /* \"Kash_flattened.sol\":17377:17392  _balances[from] */\n  0xffffffffffffffffffffffffffffffffffffffff\n  and\n  0xffffffffffffffffffffffffffffffffffffffff\n  and\n  dup2\n  mstore\n  0x20\n  add\n  swap1\n  dup2\n  mstore\n  0x20\n  add\n  0x00\n  keccak256\n    /* \"Kash_flattened.sol\":17377:17414  _balances[from] = fromBalance - value */\n  dup2\n  swap1\n  sstore\n  pop\n    /* \"Kash_flattened.sol\":17077:17439  {... */\n  pop\n    /* \"Kash_flattened.sol\":16899:17439  if (from == address(0)) {... */\ntag_45:\n    /* \"Kash_flattened.sol\":17467:17468  0 */\n  0x00\n    /* \"Kash_flattened.sol\":17453:17469  to == address(0) */\n  0xffffffffffffffffffffffffffffffffffffffff\n  and\n    /* \"Kash_flattened.sol\":17453:17455  to */\n  dup3\n    /* \"Kash_flattened.sol\":17453:17469  to == address(0) */\n  0xffffffffffffffffffffffffffffffffffffffff\n  and\n  sub\n    /* \"Kash_flattened.sol\":17449:17874  if (to == address(0)) {... */\n  tag_49\n  jumpi\n    /* \"Kash_flattened.sol\":17632:17637  value */\n  dup1\n    /* \"Kash_flattened.sol\":17616:17628  _totalSupply */\n  0x02\n  0x00\n    /* \"Kash_flattened.sol\":17616:17637  _totalSupply -= value */\n  dup3\n  dup3\n  sload\n  sub\n  swap3\n  pop\n  pop\n  dup2\n  swap1\n  sstore\n  pop\n    /* \"Kash_flattened.sol\":17449:17874  if (to == address(0)) {... */\n  jump(tag_50)\ntag_49:\n    /* \"Kash_flattened.sol\":17844:17849  value */\n  dup1\n    /* \"Kash_flattened.sol\":17827:17836  _balances */\n  0x00\n    /* \"Kash_flattened.sol\":17827:17840  _balances[to] */\n  0x00\n    /* \"Kash_flattened.sol\":17837:17839  to */\n  dup5\n    /* \"Kash_flattened.sol\":17827:17840  _balances[to] */\n  0xffffffffffffffffffffffffffffffffffffffff\n  and\n  0xffffffffffffffffffffffffffffffffffffffff\n  and\n  dup2\n  mstore\n  0x20\n  add\n  swap1\n  dup2\n  mstore\n  0x20\n  add\n  0x00\n  keccak256\n  0x00\n    /* \"Kash_flattened.sol\":17827:17849  _balances[to] += value */\n  dup3\n  dup3\n  sload\n  add\n  swap3\n  pop\n  pop\n  dup2\n  swap1\n  sstore\n  pop\n    /* \"Kash_flattened.sol\":17449:17874  if (to == address(0)) {... */\ntag_50:\n    /* \"Kash_flattened.sol\":17904:17906  to */\n  dup2\n    /* \"Kash_flattened.sol\":17889:17914  Transfer(from, to, value) */\n  0xffffffffffffffffffffffffffffffffffffffff\n  and\n    /* \"Kash_flattened.sol\":17898:17902  from */\n  dup4\n    /* \"Kash_flattened.sol\":17889:17914  Transfer(from, to, value) */\n  0xffffffffffffffffffffffffffffffffffffffff\n  and\n  0xddf252ad1be2c89b69c2b068fc378daa952ba7f163c4a11628f55a4df523b3ef\n    /* \"Kash_flattened.sol\":17908:17913  value */\n  dup4\n    /* \"Kash_flattened.sol\":17889:17914  Transfer(from, to, value) */\n  mload(0x40)\n  tag_51\n  swap2\n  swap1\n  tag_52\n  jump\t// in\ntag_51:\n  mload(0x40)\n  dup1\n  swap2\n  sub\n  swap1\n  log3\n    /* \"Kash_flattened.sol\":16814:17921  function _update(address from, address to, uint256 value) internal virtual {... */\n  pop\n  pop\n  pop\n  jump\t// out\n    /* \"Kash_flattened.sol\":13835:13951  function balanceOf(address account) public view virtual returns (uint256) {... */\ntag_38:\n    /* \"Kash_flattened.sol\":13900:13907  uint256 */\n  0x00\n    /* \"Kash_flattened.sol\":13926:13935  _balances */\n  0x00\n    /* \"Kash_flattened.sol\":13926:13944  _balances[account] */\n  0x00\n    /* \"Kash_flattened.sol\":13936:13943  account */\n  dup4\n    /* \"Kash_flattened.sol\":13926:13944  _balances[account] */\n  0xffffffffffffffffffffffffffffffffffffffff\n  and\n  0xffffffffffffffffffffffffffffffffffffffff\n  and\n  dup2\n  mstore\n  0x20\n  add\n  swap1\n  dup2\n  mstore\n  0x20\n  add\n  0x00\n  keccak256\n  sload\n    /* \"Kash_flattened.sol\":13919:13944  return _balances[account] */\n  swap1\n  pop\n    /* \"Kash_flattened.sol\":13835:13951  function balanceOf(address account) public view virtual returns (uint256) {... */\n  swap2\n  swap1\n  pop\n  jump\t// out\n    /* \"#utility.yul\":7:106   */\ntag_54:\n    /* \"#utility.yul\":59:65   */\n  0x00\n    /* \"#utility.yul\":93:98   */\n  dup2\n    /* \"#utility.yul\":87:99   */\n  mload\n    /* \"#utility.yul\":77:99   */\n  swap1\n  pop\n    /* \"#utility.yul\":7:106   */\n  swap2\n  swap1\n  pop\n  jump\t// out\n    /* \"#utility.yul\":112:292   */\ntag_55:\n    /* \"#utility.yul\":160:237   */\n  0x4e487b7100000000000000000000000000000000000000000000000000000000\n    /* \"#utility.yul\":157:158   */\n  0x00\n    /* \"#utility.yul\":150:238   */\n  mstore\n    /* \"#utility.yul\":257:261   */\n  0x41\n    /* \"#utility.yul\":254:255   */\n  0x04\n    /* \"#utility.yul\":247:262   */\n  mstore\n    /* \"#utility.yul\":281:285   */\n  0x24\n    /* \"#utility.yul\":278:279   */\n  0x00\n    /* \"#utility.yul\":271:286   */\n  revert\n    /* \"#utility.yul\":298:478   */\ntag_56:\n    /* \"#utility.yul\":346:423   */\n  0x4e487b7100000000000000000000000000000000000000000000000000000000\n    /* \"#utility.yul\":343:344   */\n  0x00\n    /* \"#utility.yul\":336:424   */\n  mstore\n    /* \"#utility.yul\":443:447   */\n  0x22\n    /* \"#utility.yul\":440:441   */\n  0x04\n    /* \"#utility.yul\":433:448   */\n  mstore\n    /* \"#utility.yul\":467:471   */\n  0x24\n    /* \"#utility.yul\":464:465   */\n  0x00\n    /* \"#utility.yul\":457:472   */\n  revert\n    /* \"#utility.yul\":484:804   */\ntag_57:\n    /* \"#utility.yul\":528:534   */\n  0x00\n    /* \"#utility.yul\":565:566   */\n  0x02\n    /* \"#utility.yul\":559:563   */\n  dup3\n    /* \"#utility.yul\":555:567   */\n  div\n    /* \"#utility.yul\":545:567   */\n  swap1\n  pop\n    /* \"#utility.yul\":612:613   */\n  0x01\n    /* \"#utility.yul\":606:610   */\n  dup3\n    /* \"#utility.yul\":602:614   */\n  and\n    /* \"#utility.yul\":633:651   */\n  dup1\n    /* \"#utility.yul\":623:704   */\n  tag_84\n  jumpi\n    /* \"#utility.yul\":689:693   */\n  0x7f\n    /* \"#utility.yul\":681:687   */\n  dup3\n    /* \"#utility.yul\":677:694   */\n  and\n    /* \"#utility.yul\":667:694   */\n  swap2\n  pop\n    /* \"#utility.yul\":623:704   */\ntag_84:\n    /* \"#utility.yul\":751:753   */\n  0x20\n    /* \"#utility.yul\":743:749   */\n  dup3\n    /* \"#utility.yul\":740:754   */\n  lt\n    /* \"#utility.yul\":720:738   */\n  dup2\n    /* \"#utility.yul\":717:755   */\n  sub\n    /* \"#utility.yul\":714:798   */\n  tag_85\n  jumpi\n    /* \"#utility.yul\":770:788   */\n  tag_86\n  tag_56\n  jump\t// in\ntag_86:\n    /* \"#utility.yul\":714:798   */\ntag_85:\n    /* \"#utility.yul\":535:804   */\n  pop\n    /* \"#utility.yul\":484:804   */\n  swap2\n  swap1\n  pop\n  jump\t// out\n    /* \"#utility.yul\":810:951   */\ntag_58:\n    /* \"#utility.yul\":859:863   */\n  0x00\n    /* \"#utility.yul\":882:885   */\n  dup2\n    /* \"#utility.yul\":874:885   */\n  swap1\n  pop\n    /* \"#utility.yul\":905:908   */\n  dup2\n    /* \"#utility.yul\":902:903   */\n  0x00\n    /* \"#utility.yul\":895:909   */\n  mstore\n    /* \"#utility.yul\":939:943   */\n  0x20\n    /* \"#utility.yul\":936:937   */\n  0x00\n    /* \"#utility.yul\":926:944   */\n  keccak256\n    /* \"#utility.yul\":918:944   */\n  swap1\n  pop\n    /* \"#utility.yul\":810:951   */\n  swap2\n  swap1\n  pop\n  jump\t// out\n    /* \"#utility.yul\":957:1050   */\ntag_59:\n    /* \"#utility.yul\":994:1000   */\n  0x00\n    /* \"#utility.yul\":1041:1043   */\n  0x20\n    /* \"#utility.yul\":1036:1038   */\n  0x1f\n    /* \"#utility.yul\":1029:1034   */\n  dup4\n    /* \"#utility.yul\":1025:1039   */\n  add\n    /* \"#utility.yul\":1021:1044   */\n  div\n    /* \"#utility.yul\":1011:1044   */\n  swap1\n  pop\n    /* \"#utility.yul\":957:1050   */\n  swap2\n  swap1\n  pop\n  jump\t// out\n    /* \"#utility.yul\":1056:1163   */\ntag_60:\n    /* \"#utility.yul\":1100:1108   */\n  0x00\n    /* \"#utility.yul\":1150:1155   */\n  dup3\n    /* \"#utility.yul\":1144:1148   */\n  dup3\n    /* \"#utility.yul\":1140:1156   */\n  shl\n    /* \"#utility.yul\":1119:1156   */\n  swap1\n  pop\n    /* \"#utility.yul\":1056:1163   */\n  swap3\n  swap2\n  pop\n  pop\n  jump\t// out\n    /* \"#utility.yul\":1169:1562   */\ntag_61:\n    /* \"#utility.yul\":1238:1244   */\n  0x00\n    /* \"#utility.yul\":1288:1289   */\n  0x08\n    /* \"#utility.yul\":1276:1286   */\n  dup4\n    /* \"#utility.yul\":1272:1290   */\n  mul\n    /* \"#utility.yul\":1311:1408   */\n  tag_91\n    /* \"#utility.yul\":1341:1407   */\n  0xffffffffffffffffffffffffffffffffffffffffffffffffffffffffffffffff\n    /* \"#utility.yul\":1330:1339   */\n  dup3\n    /* \"#utility.yul\":1311:1408   */\n  tag_60\n  jump\t// in\ntag_91:\n    /* \"#utility.yul\":1429:1468   */\n  tag_92\n    /* \"#utility.yul\":1459:1467   */\n  dup7\n    /* \"#utility.yul\":1448:1457   */\n  dup4\n    /* \"#utility.yul\":1429:1468   */\n  tag_60\n  jump\t// in\ntag_92:\n    /* \"#utility.yul\":1417:1468   */\n  swap6\n  pop\n    /* \"#utility.yul\":1501:1505   */\n  dup1\n    /* \"#utility.yul\":1497:1506   */\n  not\n    /* \"#utility.yul\":1490:1495   */\n  dup5\n    /* \"#utility.yul\":1486:1507   */\n  and\n    /* \"#utility.yul\":1477:1507   */\n  swap4\n  pop\n    /* \"#utility.yul\":1550:1554   */\n  dup1\n    /* \"#utility.yul\":1540:1548   */\n  dup7\n    /* \"#utility.yul\":1536:1555   */\n  and\n    /* \"#utility.yul\":1529:1534   */\n  dup5\n    /* \"#utility.yul\":1526:1556   */\n  or\n    /* \"#utility.yul\":1516:1556   */\n  swap3\n  pop\n    /* \"#utility.yul\":1245:1562   */\n  pop\n  pop\n    /* \"#utility.yul\":1169:1562   */\n  swap4\n  swap3\n  pop\n  pop\n  pop\n  jump\t// out\n    /* \"#utility.yul\":1568:1645   */\ntag_62:\n    /* \"#utility.yul\":1605:1612   */\n  0x00\n    /* \"#utility.yul\":1634:1639   */\n  dup2\n    /* \"#utility.yul\":1623:1639   */\n  swap1\n  pop\n    /* \"#utility.yul\":1568:1645   */\n  swap2\n  swap1\n  pop\n  jump\t// out\n    /* \"#utility.yul\":1651:1711   */\ntag_63:\n    /* \"#utility.yul\":1679:1682   */\n  0x00\n    /* \"#utility.yul\":1700:1705   */\n  dup2\n    /* \"#utility.yul\":1693:1705   */\n  swap1\n  pop\n    /* \"#utility.yul\":1651:1711   */\n  swap2\n  swap1\n  pop\n  jump\t// out\n    /* \"#utility.yul\":1717:1859   */\ntag_64:\n    /* \"#utility.yul\":1767:1776   */\n  0x00\n    /* \"#utility.yul\":1800:1853   */\n  tag_96\n    /* \"#utility.yul\":1818:1852   */\n  tag_97\n    /* \"#utility.yul\":1827:1851   */\n  tag_98\n    /* \"#utility.yul\":1845:1850   */\n  dup5\n    /* \"#utility.yul\":1827:1851   */\n  tag_62\n  jump\t// in\ntag_98:\n    /* \"#utility.yul\":1818:1852   */\n  tag_63\n  jump\t// in\ntag_97:\n    /* \"#utility.yul\":1800:1853   */\n  tag_62\n  jump\t// in\ntag_96:\n    /* \"#utility.yul\":1787:1853   */\n  swap1\n  pop\n    /* \"#utility.yul\":1717:1859   */\n  swap2\n  swap1\n  pop\n  jump\t// out\n    /* \"#utility.yul\":1865:1940   */\ntag_65:\n    /* \"#utility.yul\":1908:1911   */\n  0x00\n    /* \"#utility.yul\":1929:1934   */\n  dup2\n    /* \"#utility.yul\":1922:1934   */\n  swap1\n  pop\n    /* \"#utility.yul\":1865:1940   */\n  swap2\n  swap1\n  pop\n  jump\t// out\n    /* \"#utility.yul\":1946:2215   */\ntag_66:\n    /* \"#utility.yul\":2056:2095   */\n  tag_101\n    /* \"#utility.yul\":2087:2094   */\n  dup4\n    /* \"#utility.yul\":2056:2095   */\n  tag_64\n  jump\t// in\ntag_101:\n    /* \"#utility.yul\":2117:2208   */\n  tag_102\n    /* \"#utility.yul\":2166:2207   */\n  tag_103\n    /* \"#utility.yul\":2190:2206   */\n  dup3\n    /* \"#utility.yul\":2166:2207   */\n  tag_65\n  jump\t// in\ntag_103:\n    /* \"#utility.yul\":2158:2164   */\n  dup5\n    /* \"#utility.yul\":2151:2155   */\n  dup5\n    /* \"#utility.yul\":2145:2156   */\n  sload\n    /* \"#utility.yul\":2117:2208   */\n  tag_61\n  jump\t// in\ntag_102:\n    /* \"#utility.yul\":2111:2115   */\n  dup3\n    /* \"#utility.yul\":2104:2209   */\n  sstore\n    /* \"#utility.yul\":2022:2215   */\n  pop\n    /* \"#utility.yul\":1946:2215   */\n  pop\n  pop\n  pop\n  jump\t// out\n    /* \"#utility.yul\":2221:2294   */\ntag_67:\n    /* \"#utility.yul\":2266:2269   */\n  0x00\n    /* \"#utility.yul\":2287:2288   */\n  0x00\n    /* \"#utility.yul\":2280:2288   */\n  swap1\n  pop\n    /* \"#utility.yul\":2221:2294   */\n  swap1\n  jump\t// out\n    /* \"#utility.yul\":2300:2489   */\ntag_68:\n    /* \"#utility.yul\":2377:2409   */\n  tag_106\n  tag_67\n  jump\t// in\ntag_106:\n    /* \"#utility.yul\":2418:2483   */\n  tag_107\n    /* \"#utility.yul\":2476:2482   */\n  dup2\n    /* \"#utility.yul\":2468:2474   */\n  dup5\n    /* \"#utility.yul\":2462:2466   */\n  dup5\n    /* \"#utility.yul\":2418:2483   */\n  tag_66\n  jump\t// in\ntag_107:\n    /* \"#utility.yul\":2353:2489   */\n  pop\n    /* \"#utility.yul\":2300:2489   */\n  pop\n  pop\n  jump\t// out\n    /* \"#utility.yul\":2495:2709   */\ntag_69:\n    /* \"#utility.yul\":2580:2581   */\n  0x00\n    /* \"#utility.yul\":2565:2703   */\ntag_109:\n    /* \"#utility.yul\":2590:2599   */\n  dup3\n    /* \"#utility.yul\":2587:2588   */\n  dup2\n    /* \"#utility.yul\":2584:2600   */\n  lt\n    /* \"#utility.yul\":2565:2703   */\n  iszero\n  tag_111\n  jumpi\n    /* \"#utility.yul\":2642:2693   */\n  tag_112\n    /* \"#utility.yul\":2691:2692   */\n  0x00\n    /* \"#utility.yul\":2687:2688   */\n  dup3\n    /* \"#utility.yul\":2676:2685   */\n  dup5\n    /* \"#utility.yul\":2672:2689   */\n  add\n    /* \"#utility.yul\":2642:2693   */\n  tag_68\n  jump\t// in\ntag_112:\n    /* \"#utility.yul\":2615:2616   */\n  0x01\n    /* \"#utility.yul\":2612:2613   */\n  dup2\n    /* \"#utility.yul\":2608:2617   */\n  add\n    /* \"#utility.yul\":2603:2617   */\n  swap1\n  pop\n    /* \"#utility.yul\":2565:2703   */\n  jump(tag_109)\ntag_111:\n    /* \"#utility.yul\":2569:2583   */\n  pop\n    /* \"#utility.yul\":2495:2709   */\n  pop\n  pop\n  jump\t// out\n    /* \"#utility.yul\":2715:3461   */\ntag_70:\n    /* \"#utility.yul\":2816:2818   */\n  0x1f\n    /* \"#utility.yul\":2811:2814   */\n  dup3\n    /* \"#utility.yul\":2808:2819   */\n  gt\n    /* \"#utility.yul\":2805:3454   */\n  iszero\n  tag_114\n  jumpi\n    /* \"#utility.yul\":2845:2855   */\n  dup3\n    /* \"#utility.yul\":2840:2843   */\n  dup3\n    /* \"#utility.yul\":2837:2856   */\n  gt\n    /* \"#utility.yul\":2834:3444   */\n  iszero\n  tag_115\n  jumpi\n    /* \"#utility.yul\":2891:2929   */\n  tag_116\n    /* \"#utility.yul\":2923:2928   */\n  dup2\n    /* \"#utility.yul\":2891:2929   */\n  tag_58\n  jump\t// in\ntag_116:\n    /* \"#utility.yul\":2966:2988   */\n  tag_117\n    /* \"#utility.yul\":2984:2987   */\n  dup4\n    /* \"#utility.yul\":2966:2988   */\n  tag_59\n  jump\t// in\ntag_117:\n    /* \"#utility.yul\":3025:3054   */\n  tag_118\n    /* \"#utility.yul\":3043:3053   */\n  dup6\n    /* \"#utility.yul\":3025:3054   */\n  tag_59\n  jump\t// in\ntag_118:\n    /* \"#utility.yul\":3215:3217   */\n  0x20\n    /* \"#utility.yul\":3203:3213   */\n  dup7\n    /* \"#utility.yul\":3200:3218   */\n  lt\n    /* \"#utility.yul\":3197:3276   */\n  iszero\n  tag_119\n  jumpi\n    /* \"#utility.yul\":3257:3258   */\n  0x00\n    /* \"#utility.yul\":3241:3258   */\n  swap1\n  pop\n    /* \"#utility.yul\":3197:3276   */\ntag_119:\n    /* \"#utility.yul\":3326:3338   */\n  dup1\n    /* \"#utility.yul\":3316:3324   */\n  dup4\n    /* \"#utility.yul\":3312:3339   */\n  add\n    /* \"#utility.yul\":3356:3430   */\n  tag_120\n    /* \"#utility.yul\":3416:3428   */\n  dup3\n    /* \"#utility.yul\":3402:3414   */\n  dup5\n    /* \"#utility.yul\":3398:3429   */\n  sub\n    /* \"#utility.yul\":3385:3396   */\n  dup3\n    /* \"#utility.yul\":3356:3430   */\n  tag_69\n  jump\t// in\ntag_120:\n    /* \"#utility.yul\":2857:3444   */\n  pop\n  pop\n  pop\n  pop\n    /* \"#utility.yul\":2834:3444   */\ntag_115:\n    /* \"#utility.yul\":2805:3454   */\ntag_114:\n    /* \"#utility.yul\":2715:3461   */\n  pop\n  pop\n  pop\n  jump\t// out\n    /* \"#utility.yul\":3467:3584   */\ntag_71:\n    /* \"#utility.yul\":3521:3529   */\n  0x00\n    /* \"#utility.yul\":3571:3576   */\n  dup3\n    /* \"#utility.yul\":3565:3569   */\n  dup3\n    /* \"#utility.yul\":3561:3577   */\n  shr\n    /* \"#utility.yul\":3540:3577   */\n  swap1\n  pop\n    /* \"#utility.yul\":3467:3584   */\n  swap3\n  swap2\n  pop\n  pop\n  jump\t// out\n    /* \"#utility.yul\":3590:3759   */\ntag_72:\n    /* \"#utility.yul\":3634:3640   */\n  0x00\n    /* \"#utility.yul\":3667:3718   */\n  tag_123\n    /* \"#utility.yul\":3715:3716   */\n  0x00\n    /* \"#utility.yul\":3711:3717   */\n  not\n    /* \"#utility.yul\":3703:3708   */\n  dup5\n    /* \"#utility.yul\":3700:3701   */\n  0x08\n    /* \"#utility.yul\":3696:3709   */\n  mul\n    /* \"#utility.yul\":3667:3718   */\n  tag_71\n  jump\t// in\ntag_123:\n    /* \"#utility.yul\":3663:3719   */\n  not\n    /* \"#utility.yul\":3748:3752   */\n  dup1\n    /* \"#utility.yul\":3742:3746   */\n  dup4\n    /* \"#utility.yul\":3738:3753   */\n  and\n    /* \"#utility.yul\":3728:3753   */\n  swap2\n  pop\n    /* \"#utility.yul\":3641:3759   */\n  pop\n    /* \"#utility.yul\":3590:3759   */\n  swap3\n  swap2\n  pop\n  pop\n  jump\t// out\n    /* \"#utility.yul\":3764:4059   */\ntag_73:\n    /* \"#utility.yul\":3840:3844   */\n  0x00\n    /* \"#utility.yul\":3986:4015   */\n  tag_125\n    /* \"#utility.yul\":4011:4014   */\n  dup4\n    /* \"#utility.yul\":4005:4009   */\n  dup4\n    /* \"#utility.yul\":3986:4015   */\n  tag_72\n  jump\t// in\ntag_125:\n    /* \"#utility.yul\":3978:4015   */\n  swap2\n  pop\n    /* \"#utility.yul\":4048:4051   */\n  dup3\n    /* \"#utility.yul\":4045:4046   */\n  0x02\n    /* \"#utility.yul\":4041:4052   */\n  mul\n    /* \"#utility.yul\":4035:4039   */\n  dup3\n    /* \"#utility.yul\":4032:4053   */\n  or\n    /* \"#utility.yul\":4024:4053   */\n  swap1\n  pop\n    /* \"#utility.yul\":3764:4059   */\n  swap3\n  swap2\n  pop\n  pop\n  jump\t// out\n    /* \"#utility.yul\":4064:5459   */\ntag_7:\n    /* \"#utility.yul\":4181:4218   */\n  tag_127\n    /* \"#utility.yul\":4214:4217   */\n  dup3\n    /* \"#utility.yul\":4181:4218   */\n  tag_54\n  jump\t// in\ntag_127:\n    /* \"#utility.yul\":4283:4301   */\n  0xffffffffffffffff\n    /* \"#utility.yul\":4275:4281   */\n  dup2\n    /* \"#utility.yul\":4272:4302   */\n  gt\n    /* \"#utility.yul\":4269:4325   */\n  iszero\n  tag_128\n  jumpi\n    /* \"#utility.yul\":4305:4323   */\n  tag_129\n  tag_55\n  jump\t// in\ntag_129:\n    /* \"#utility.yul\":4269:4325   */\ntag_128:\n    /* \"#utility.yul\":4349:4387   */\n  tag_130\n    /* \"#utility.yul\":4381:4385   */\n  dup3\n    /* \"#utility.yul\":4375:4386   */\n  sload\n    /* \"#utility.yul\":4349:4387   */\n  tag_57\n  jump\t// in\ntag_130:\n    /* \"#utility.yul\":4434:4501   */\n  tag_131\n    /* \"#utility.yul\":4494:4500   */\n  dup3\n    /* \"#utility.yul\":4486:4492   */\n  dup3\n    /* \"#utility.yul\":4480:4484   */\n  dup6\n    /* \"#utility.yul\":4434:4501   */\n  tag_70\n  jump\t// in\ntag_131:\n    /* \"#utility.yul\":4528:4529   */\n  0x00\n    /* \"#utility.yul\":4552:4556   */\n  0x20\n    /* \"#utility.yul\":4539:4556   */\n  swap1\n  pop\n    /* \"#utility.yul\":4584:4586   */\n  0x1f\n    /* \"#utility.yul\":4576:4582   */\n  dup4\n    /* \"#utility.yul\":4573:4587   */\n  gt\n    /* \"#utility.yul\":4601:4602   */\n  0x01\n    /* \"#utility.yul\":4596:5214   */\n  dup2\n  eq\n  tag_133\n  jumpi\n    /* \"#utility.yul\":5258:5259   */\n  0x00\n    /* \"#utility.yul\":5275:5281   */\n  dup5\n    /* \"#utility.yul\":5272:5349   */\n  iszero\n  tag_134\n  jumpi\n    /* \"#utility.yul\":5324:5333   */\n  dup3\n    /* \"#utility.yul\":5319:5322   */\n  dup8\n    /* \"#utility.yul\":5315:5334   */\n  add\n    /* \"#utility.yul\":5309:5335   */\n  mload\n    /* \"#utility.yul\":5300:5335   */\n  swap1\n  pop\n    /* \"#utility.yul\":5272:5349   */\ntag_134:\n    /* \"#utility.yul\":5375:5442   */\n  tag_135\n    /* \"#utility.yul\":5435:5441   */\n  dup6\n    /* \"#utility.yul\":5428:5433   */\n  dup3\n    /* \"#utility.yul\":5375:5442   */\n  tag_73\n  jump\t// in\ntag_135:\n    /* \"#utility.yul\":5369:5373   */\n  dup7\n    /* \"#utility.yul\":5362:5443   */\n  sstore\n    /* \"#utility.yul\":5231:5453   */\n  pop\n    /* \"#utility.yul\":4566:5453   */\n  jump(tag_132)\n    /* \"#utility.yul\":4596:5214   */\ntag_133:\n    /* \"#utility.yul\":4648:4652   */\n  0x1f\n    /* \"#utility.yul\":4644:4653   */\n  not\n    /* \"#utility.yul\":4636:4642   */\n  dup5\n    /* \"#utility.yul\":4632:4654   */\n  and\n    /* \"#utility.yul\":4682:4719   */\n  tag_136\n    /* \"#utility.yul\":4714:4718   */\n  dup7\n    /* \"#utility.yul\":4682:4719   */\n  tag_58\n  jump\t// in\ntag_136:\n    /* \"#utility.yul\":4741:4742   */\n  0x00\n    /* \"#utility.yul\":4755:4963   */\ntag_137:\n    /* \"#utility.yul\":4769:4776   */\n  dup3\n    /* \"#utility.yul\":4766:4767   */\n  dup2\n    /* \"#utility.yul\":4763:4777   */\n  lt\n    /* \"#utility.yul\":4755:4963   */\n  iszero\n  tag_139\n  jumpi\n    /* \"#utility.yul\":4848:4857   */\n  dup5\n    /* \"#utility.yul\":4843:4846   */\n  dup10\n    /* \"#utility.yul\":4839:4858   */\n  add\n    /* \"#utility.yul\":4833:4859   */\n  mload\n    /* \"#utility.yul\":4825:4831   */\n  dup3\n    /* \"#utility.yul\":4818:4860   */\n  sstore\n    /* \"#utility.yul\":4899:4900   */\n  0x01\n    /* \"#utility.yul\":4891:4897   */\n  dup3\n    /* \"#utility.yul\":4887:4901   */\n  add\n    /* \"#utility.yul\":4877:4901   */\n  swap2\n  pop\n    /* \"#utility.yul\":4946:4948   */\n  0x20\n    /* \"#utility.yul\":4935:4944   */\n  dup6\n    /* \"#utility.yul\":4931:4949   */\n  add\n    /* \"#utility.yul\":4918:4949   */\n  swap5\n  pop\n    /* \"#utility.yul\":4792:4796   */\n  0x20\n    /* \"#utility.yul\":4789:4790   */\n  dup2\n    /* \"#utility.yul\":4785:4797   */\n  add\n    /* \"#utility.yul\":4780:4797   */\n  swap1\n  pop\n    /* \"#utility.yul\":4755:4963   */\n  jump(tag_137)\ntag_139:\n    /* \"#utility.yul\":4991:4997   */\n  dup7\n    /* \"#utility.yul\":4982:4989   */\n  dup4\n    /* \"#utility.yul\":4979:4998   */\n  lt\n    /* \"#utility.yul\":4976:5155   */\n  iszero\n  tag_140\n  jumpi\n    /* \"#utility.yul\":5049:5058   */\n  dup5\n    /* \"#utility.yul\":5044:5047   */\n  dup10\n    /* \"#utility.yul\":5040:5059   */\n  add\n    /* \"#utility.yul\":5034:5060   */\n  mload\n    /* \"#utility.yul\":5092:5140   */\n  tag_141\n    /* \"#utility.yul\":5134:5138   */\n  0x1f\n    /* \"#utility.yul\":5126:5132   */\n  dup10\n    /* \"#utility.yul\":5122:5139   */\n  and\n    /* \"#utility.yul\":5111:5120   */\n  dup3\n    /* \"#utility.yul\":5092:5140   */\n  tag_72\n  jump\t// in\ntag_141:\n    /* \"#utility.yul\":5084:5090   */\n  dup4\n    /* \"#utility.yul\":5077:5141   */\n  sstore\n    /* \"#utility.yul\":4999:5155   */\n  pop\n    /* \"#utility.yul\":4976:5155   */\ntag_140:\n    /* \"#utility.yul\":5201:5202   */\n  0x01\n    /* \"#utility.yul\":5197:5198   */\n  0x02\n    /* \"#utility.yul\":5189:5195   */\n  dup9\n    /* \"#utility.yul\":5185:5199   */\n  mul\n    /* \"#utility.yul\":5181:5203   */\n  add\n    /* \"#utility.yul\":5175:5179   */\n  dup9\n    /* \"#utility.yul\":5168:5204   */\n  sstore\n    /* \"#utility.yul\":4603:5214   */\n  pop\n  pop\n  pop\n    /* \"#utility.yul\":4566:5453   */\ntag_132:\n  pop\n    /* \"#utility.yul\":4156:5459   */\n  pop\n  pop\n  pop\n    /* \"#utility.yul\":4064:5459   */\n  pop\n  pop\n  jump\t// out\n    /* \"#utility.yul\":5465:5591   */\ntag_74:\n    /* \"#utility.yul\":5502:5509   */\n  0x00\n    /* \"#utility.yul\":5542:5584   */\n  0xffffffffffffffffffffffffffffffffffffffff\n    /* \"#utility.yul\":5535:5540   */\n  dup3\n    /* \"#utility.yul\":5531:5585   */\n  and\n    /* \"#utility.yul\":5520:5585   */\n  swap1\n  pop\n    /* \"#utility.yul\":5465:5591   */\n  swap2\n  swap1\n  pop\n  jump\t// out\n    /* \"#utility.yul\":5597:5693   */\ntag_75:\n    /* \"#utility.yul\":5634:5641   */\n  0x00\n    /* \"#utility.yul\":5663:5687   */\n  tag_144\n    /* \"#utility.yul\":5681:5686   */\n  dup3\n    /* \"#utility.yul\":5663:5687   */\n  tag_74\n  jump\t// in\ntag_144:\n    /* \"#utility.yul\":5652:5687   */\n  swap1\n  pop\n    /* \"#utility.yul\":5597:5693   */\n  swap2\n  swap1\n  pop\n  jump\t// out\n    /* \"#utility.yul\":5699:5817   */\ntag_76:\n    /* \"#utility.yul\":5786:5810   */\n  tag_146\n    /* \"#utility.yul\":5804:5809   */\n  dup2\n    /* \"#utility.yul\":5786:5810   */\n  tag_75\n  jump\t// in\ntag_146:\n    /* \"#utility.yul\":5781:5784   */\n  dup3\n    /* \"#utility.yul\":5774:5811   */\n  mstore\n    /* \"#utility.yul\":5699:5817   */\n  pop\n  pop\n  jump\t// out\n    /* \"#utility.yul\":5823:6045   */\ntag_12:\n    /* \"#utility.yul\":5916:5920   */\n  0x00\n    /* \"#utility.yul\":5954:5956   */\n  0x20\n    /* \"#utility.yul\":5943:5952   */\n  dup3\n    /* \"#utility.yul\":5939:5957   */\n  add\n    /* \"#utility.yul\":5931:5957   */\n  swap1\n  pop\n    /* \"#utility.yul\":5967:6038   */\n  tag_148\n    /* \"#utility.yul\":6035:6036   */\n  0x00\n    /* \"#utility.yul\":6024:6033   */\n  dup4\n    /* \"#utility.yul\":6020:6037   */\n  add\n    /* \"#utility.yul\":6011:6017   */\n  dup5\n    /* \"#utility.yul\":5967:6038   */\n  tag_76\n  jump\t// in\ntag_148:\n    /* \"#utility.yul\":5823:6045   */\n  swap3\n  swap2\n  pop\n  pop\n  jump\t// out\n    /* \"#utility.yul\":6051:6231   */\ntag_77:\n    /* \"#utility.yul\":6099:6176   */\n  0x4e487b7100000000000000000000000000000000000000000000000000000000\n    /* \"#utility.yul\":6096:6097   */\n  0x00\n    /* \"#utility.yul\":6089:6177   */\n  mstore\n    /* \"#utility.yul\":6196:6200   */\n  0x11\n    /* \"#utility.yul\":6193:6194   */\n  0x04\n    /* \"#utility.yul\":6186:6201   */\n  mstore\n    /* \"#utility.yul\":6220:6224   */\n  0x24\n    /* \"#utility.yul\":6217:6218   */\n  0x00\n    /* \"#utility.yul\":6210:6225   */\n  revert\n    /* \"#utility.yul\":6237:6428   */\ntag_44:\n    /* \"#utility.yul\":6277:6280   */\n  0x00\n    /* \"#utility.yul\":6296:6316   */\n  tag_151\n    /* \"#utility.yul\":6314:6315   */\n  dup3\n    /* \"#utility.yul\":6296:6316   */\n  tag_62\n  jump\t// in\ntag_151:\n    /* \"#utility.yul\":6291:6316   */\n  swap2\n  pop\n    /* \"#utility.yul\":6330:6350   */\n  tag_152\n    /* \"#utility.yul\":6348:6349   */\n  dup4\n    /* \"#utility.yul\":6330:6350   */\n  tag_62\n  jump\t// in\ntag_152:\n    /* \"#utility.yul\":6325:6350   */\n  swap3\n  pop\n    /* \"#utility.yul\":6373:6374   */\n  dup3\n    /* \"#utility.yul\":6370:6371   */\n  dup3\n    /* \"#utility.yul\":6366:6375   */\n  add\n    /* \"#utility.yul\":6359:6375   */\n  swap1\n  pop\n    /* \"#utility.yul\":6394:6397   */\n  dup1\n    /* \"#utility.yul\":6391:6392   */\n  dup3\n    /* \"#utility.yul\":6388:6398   */\n  gt\n    /* \"#utility.yul\":6385:6421   */\n  iszero\n  tag_153\n  jumpi\n    /* \"#utility.yul\":6401:6419   */\n  tag_154\n  tag_77\n  jump\t// in\ntag_154:\n    /* \"#utility.yul\":6385:6421   */\ntag_153:\n    /* \"#utility.yul\":6237:6428   */\n  swap3\n  swap2\n  pop\n  pop\n  jump\t// out\n    /* \"#utility.yul\":6434:6552   */\ntag_78:\n    /* \"#utility.yul\":6521:6545   */\n  tag_156\n    /* \"#utility.yul\":6539:6544   */\n  dup2\n    /* \"#utility.yul\":6521:6545   */\n  tag_62\n  jump\t// in\ntag_156:\n    /* \"#utility.yul\":6516:6519   */\n  dup3\n    /* \"#utility.yul\":6509:6546   */\n  mstore\n    /* \"#utility.yul\":6434:6552   */\n  pop\n  pop\n  jump\t// out\n    /* \"#utility.yul\":6558:7000   */\ntag_48:\n    /* \"#utility.yul\":6707:6711   */\n  0x00\n    /* \"#utility.yul\":6745:6747   */\n  0x60\n    /* \"#utility.yul\":6734:6743   */\n  dup3\n    /* \"#utility.yul\":6730:6748   */\n  add\n    /* \"#utility.yul\":6722:6748   */\n  swap1\n  pop\n    /* \"#utility.yul\":6758:6829   */\n  tag_158\n    /* \"#utility.yul\":6826:6827   */\n  0x00\n    /* \"#utility.yul\":6815:6824   */\n  dup4\n    /* \"#utility.yul\":6811:6828   */\n  add\n    /* \"#utility.yul\":6802:6808   */\n  dup7\n    /* \"#utility.yul\":6758:6829   */\n  tag_76\n  jump\t// in\ntag_158:\n    /* \"#utility.yul\":6839:6911   */\n  tag_159\n    /* \"#utility.yul\":6907:6909   */\n  0x20\n    /* \"#utility.yul\":6896:6905   */\n  dup4\n    /* \"#utility.yul\":6892:6910   */\n  add\n    /* \"#utility.yul\":6883:6889   */\n  dup6\n    /* \"#utility.yul\":6839:6911   */\n  tag_78\n  jump\t// in\ntag_159:\n    /* \"#utility.yul\":6921:6993   */\n  tag_160\n    /* \"#utility.yul\":6989:6991   */\n  0x40\n    /* \"#utility.yul\":6978:6987   */\n  dup4\n    /* \"#utility.yul\":6974:6992   */\n  add\n    /* \"#utility.yul\":6965:6971   */\n  dup5\n    /* \"#utility.yul\":6921:6993   */\n  tag_78\n  jump\t// in\ntag_160:\n    /* \"#utility.yul\":6558:7000   */\n  swap5\n  swap4\n  pop\n  pop\n  pop\n  pop\n  jump\t// out\n    /* \"#utility.yul\":7006:7228   */\ntag_52:\n    /* \"#utility.yul\":7099:7103   */\n  0x00\n    /* \"#utility.yul\":7137:7139   */\n  0x20\n    /* \"#utility.yul\":7126:7135   */\n  dup3\n    /* \"#utility.yul\":7122:7140   */\n  add\n    /* \"#utility.yul\":7114:7140   */\n  swap1\n  pop\n    /* \"#utility.yul\":7150:7221   */\n  tag_162\n    /* \"#utility.yul\":7218:7219   */\n  0x00\n    /* \"#utility.yul\":7207:7216   */\n  dup4\n    /* \"#utility.yul\":7203:7220   */\n  add\n    /* \"#utility.yul\":7194:7200   */\n  dup5\n    /* \"#utility.yul\":7150:7221   */\n  tag_78\n  jump\t// in\ntag_162:\n    /* \"#utility.yul\":7006:7228   */\n  swap3\n  swap2\n  pop\n  pop\n  jump\t// out\n    /* \"Kash_flattened.sol\":26057:28397  contract Kash is ERC20, ERC20Burnable, Ownable {... */\ntag_18:\n  dataSize(sub_0)\n  dup1\n  dataOffset(sub_0)\n  0x00\n  codecopy\n  0x00\n  return\nstop\n\nsub_0: assembly {\n        /* \"Kash_flattened.sol\":26057:28397  contract Kash is ERC20, ERC20Burnable, Ownable {... */\n      mstore(0x40, 0x80)\n      callvalue\n      dup1\n      iszero\n      tag_1\n      jumpi\n      revert(0x00, 0x00)\n    tag_1:\n      pop\n      jumpi(tag_2, lt(calldatasize, 0x04))\n      shr(0xe0, calldataload(0x00))\n      dup1\n      0x429cead1\n      gt\n      tag_28\n      jumpi\n      dup1\n      0x95d89b41\n      gt\n      tag_29\n      jumpi\n      dup1\n      0xdbac26e9\n      gt\n      tag_30\n      jumpi\n      dup1\n      0xdbac26e9\n      eq\n      tag_24\n      jumpi\n      dup1\n      0xdd62ed3e\n      eq\n      tag_25\n      jumpi\n      dup1\n      0xf2fde38b\n      eq\n      tag_26\n      jumpi\n      dup1\n      0xffb54a99\n      eq\n      tag_27\n      jumpi\n      jump(tag_2)\n    tag_30:\n      dup1\n      0x95d89b41\n      eq\n      tag_21\n      jumpi\n      dup1\n      0xa9059cbb\n      eq\n      tag_22\n      jumpi\n      dup1\n      0xbf8bcee4\n      eq\n      tag_23\n      jumpi\n      jump(tag_2)\n    tag_29:\n      dup1\n      0x429cead1\n      eq\n      tag_15\n      jumpi\n      dup1\n      0x70a08231\n      eq\n      tag_16\n      jumpi\n      dup1\n      0x715018a6\n      eq\n      tag_17\n      jumpi\n      dup1\n      0x751039fc\n      eq\n      tag_18\n      jumpi\n      dup1\n      0x79cc6790\n      eq\n      tag_19\n      jumpi\n      dup1\n      0x8da5cb5b\n      eq\n      tag_20\n      jumpi\n      jump(tag_2)\n    tag_28:\n      dup1\n      0x23b872dd\n      gt\n      tag_31\n      jumpi\n      dup1\n      0x23b872dd\n      eq\n      tag_9\n      jumpi\n      dup1\n      0x2836be24\n      eq\n      tag_10\n      jumpi\n      dup1\n      0x293230b8\n      eq\n      tag_11\n      jumpi\n      dup1\n      0x313ce567\n      eq\n      tag_12\n      jumpi\n      dup1\n      0x32cb6b0c\n      eq\n      tag_13\n      jumpi\n      dup1\n      0x42966c68\n      eq\n      tag_14\n      jumpi\n      jump(tag_2)\n    tag_31:\n      dup1\n      0x06fdde03\n      eq\n      tag_3\n      jumpi\n      dup1\n      0x095ea7b3\n      eq\n      tag_4\n      jumpi\n      dup1\n      0x153b0d1e\n      eq\n      tag_5\n      jumpi\n      dup1\n      0x18160ddd\n      eq\n      tag_6\n      jumpi\n      dup1\n      0x1a861d26\n      eq\n      tag_7\n      jumpi\n      dup1\n      0x1cce34ee\n      eq\n      tag_8\n      jumpi\n    tag_2:\n      revert(0x00, 0x00)\n        /* \"Kash_flattened.sol\":12662:12751  function name() public view virtual returns (string memory) {... */\n    tag_3:\n      tag_32\n      tag_33\n      jump\t// in\n    tag_32:\n      mload(0x40)\n      tag_34\n      swap2\n      swap1\n      tag_35\n      jump\t// in\n    tag_34:\n      mload(0x40)\n      dup1\n      swap2\n      sub\n      swap1\n      return\n        /* \"Kash_flattened.sol\":14804:14990  function approve(address spender, uint256 value) public virtual returns (bool) {... */\n    tag_4:\n      tag_36\n      0x04\n      dup1\n      calldatasize\n      sub\n      dup2\n      add\n      swap1\n      tag_37\n      swap2\n      swap1\n      tag_38\n      jump\t// in\n    tag_37:\n      tag_39\n      jump\t// in\n    tag_36:\n      mload(0x40)\n      tag_40\n      swap2\n      swap1\n      tag_41\n      jump\t// in\n    tag_40:\n      mload(0x40)\n      dup1\n      swap2\n      sub\n      swap1\n      return\n        /* \"Kash_flattened.sol\":27070:27177  function setBlacklist(address acc, bool state) external onlyOwner {... */\n    tag_5:\n      tag_42\n      0x04\n      dup1\n      calldatasize\n      sub\n      dup2\n      add\n      swap1\n      tag_43\n      swap2\n      swap1\n      tag_44\n      jump\t// in\n    tag_43:\n      tag_45\n      jump\t// in\n    tag_42:\n      stop\n        /* \"Kash_flattened.sol\":13705:13802  function totalSupply() public view virtual returns (uint256) {... */\n    tag_6:\n      tag_46\n      tag_47\n      jump\t// in\n    tag_46:\n      mload(0x40)\n      tag_48\n      swap2\n      swap1\n      tag_49\n      jump\t// in\n    tag_48:\n      mload(0x40)\n      dup1\n      swap2\n      sub\n      swap1\n      return\n        /* \"Kash_flattened.sol\":26398:26437  uint256 public maxLimit = 104_000 ether */\n    tag_7:\n      tag_50\n      tag_51\n      jump\t// in\n    tag_50:\n      mload(0x40)\n      tag_52\n      swap2\n      swap1\n      tag_49\n      jump\t// in\n    tag_52:\n      mload(0x40)\n      dup1\n      swap2\n      sub\n      swap1\n      return\n        /* \"Kash_flattened.sol\":26477:26508  bool public limitsActive = true */\n    tag_8:\n      tag_53\n      tag_54\n      jump\t// in\n    tag_53:\n      mload(0x40)\n      tag_55\n      swap2\n      swap1\n      tag_41\n      jump\t// in\n    tag_55:\n      mload(0x40)\n      dup1\n      swap2\n      sub\n      swap1\n      return\n        /* \"Kash_flattened.sol\":15582:15826  function transferFrom(address from, address to, uint256 value) public virtual returns (bool) {... */\n    tag_9:\n      tag_56\n      0x04\n      dup1\n      calldatasize\n      sub\n      dup2\n      add\n      swap1\n      tag_57\n      swap2\n      swap1\n      tag_58\n      jump\t// in\n    tag_57:\n      tag_59\n      jump\t// in\n    tag_56:\n      mload(0x40)\n      tag_60\n      swap2\n      swap1\n      tag_41\n      jump\t// in\n    tag_60:\n      mload(0x40)\n      dup1\n      swap2\n      sub\n      swap1\n      return\n        /* \"Kash_flattened.sol\":27183:27286  function setExcluded(address acc, bool state) external onlyOwner {... */\n    tag_10:\n      tag_61\n      0x04\n      dup1\n      calldatasize\n      sub\n      dup2\n      add\n      swap1\n      tag_62\n      swap2\n      swap1\n      tag_44\n      jump\t// in\n    tag_62:\n      tag_63\n      jump\t// in\n    tag_61:\n      stop\n        /* \"Kash_flattened.sol\":26900:26978  function startTrading() external onlyOwner {... */\n    tag_11:\n      tag_64\n      tag_65\n      jump\t// in\n    tag_64:\n      stop\n        /* \"Kash_flattened.sol\":13590:13672  function decimals() public view virtual returns (uint8) {... */\n    tag_12:\n      tag_66\n      tag_67\n      jump\t// in\n    tag_66:\n      mload(0x40)\n      tag_68\n      swap2\n      swap1\n      tag_69\n      jump\t// in\n    tag_68:\n      mload(0x40)\n      dup1\n      swap2\n      sub\n      swap1\n      return\n        /* \"Kash_flattened.sol\":26339:26392  uint256 public constant MAX_SUPPLY = 52_000_000 ether */\n    tag_13:\n      tag_70\n      tag_71\n      jump\t// in\n    tag_70:\n      mload(0x40)\n      tag_72\n      swap2\n      swap1\n      tag_49\n      jump\t// in\n    tag_72:\n      mload(0x40)\n      dup1\n      swap2\n      sub\n      swap1\n      return\n        /* \"Kash_flattened.sol\":22276:22363  function burn(uint256 value) public virtual {... */\n    tag_14:\n      tag_73\n      0x04\n      dup1\n      calldatasize\n      sub\n      dup2\n      add\n      swap1\n      tag_74\n      swap2\n      swap1\n      tag_75\n      jump\t// in\n    tag_74:\n      tag_76\n      jump\t// in\n    tag_73:\n      stop\n        /* \"Kash_flattened.sol\":26564:26604  mapping(address => bool) public excluded */\n    tag_15:\n      tag_77\n      0x04\n      dup1\n      calldatasize\n      sub\n      dup2\n      add\n      swap1\n      tag_78\n      swap2\n      swap1\n      tag_79\n      jump\t// in\n    tag_78:\n      tag_80\n      jump\t// in\n    tag_77:\n      mload(0x40)\n      tag_81\n      swap2\n      swap1\n      tag_41\n      jump\t// in\n    tag_81:\n      mload(0x40)\n      dup1\n      swap2\n      sub\n      swap1\n      return\n        /* \"Kash_flattened.sol\":13835:13951  function balanceOf(address account) public view virtual returns (uint256) {... */\n    tag_16:\n      tag_82\n      0x04\n      dup1\n      calldatasize\n      sub\n      dup2\n      add\n      swap1\n      tag_83\n      swap2\n      swap1\n      tag_79\n      jump\t// in\n    tag_83:\n      tag_84\n      jump\t// in\n    tag_82:\n      mload(0x40)\n      tag_85\n      swap2\n      swap1\n      tag_49\n      jump\t// in\n    tag_85:\n      mload(0x40)\n      dup1\n      swap2\n      sub\n      swap1\n      return\n        /* \"Kash_flattened.sol\":25110:25211  function renounceOwnership() public virtual onlyOwner {... */\n    tag_17:\n      tag_86\n      tag_87\n      jump\t// in\n    tag_86:\n      stop\n        /* \"Kash_flattened.sol\":26984:27064  function removeLimits() external onlyOwner {... */\n    tag_18:\n      tag_88\n      tag_89\n      jump\t// in\n    tag_88:\n      stop\n        /* \"Kash_flattened.sol\":22679:22837  function burnFrom(address account, uint256 value) public virtual {... */\n    tag_19:\n      tag_90\n      0x04\n      dup1\n      calldatasize\n      sub\n      dup2\n      add\n      swap1\n      tag_91\n      swap2\n      swap1\n      tag_38\n      jump\t// in\n    tag_91:\n      tag_92\n      jump\t// in\n    tag_90:\n      stop\n        /* \"Kash_flattened.sol\":24455:24540  function owner() public view virtual returns (address) {... */\n    tag_20:\n      tag_93\n      tag_94\n      jump\t// in\n    tag_93:\n      mload(0x40)\n      tag_95\n      swap2\n      swap1\n      tag_96\n      jump\t// in\n    tag_95:\n      mload(0x40)\n      dup1\n      swap2\n      sub\n      swap1\n      return\n        /* \"Kash_flattened.sol\":12864:12957  function symbol() public view virtual returns (string memory) {... */\n    tag_21:\n      tag_97\n      tag_98\n      jump\t// in\n    tag_97:\n      mload(0x40)\n      tag_99\n      swap2\n      swap1\n      tag_35\n      jump\t// in\n    tag_99:\n      mload(0x40)\n      dup1\n      swap2\n      sub\n      swap1\n      return\n        /* \"Kash_flattened.sol\":14146:14324  function transfer(address to, uint256 value) public virtual returns (bool) {... */\n    tag_22:\n      tag_100\n      0x04\n      dup1\n      calldatasize\n      sub\n      dup2\n      add\n      swap1\n      tag_101\n      swap2\n      swap1\n      tag_38\n      jump\t// in\n    tag_101:\n      tag_102\n      jump\t// in\n    tag_100:\n      mload(0x40)\n      tag_103\n      swap2\n      swap1\n      tag_41\n      jump\t// in\n    tag_103:\n      mload(0x40)\n      dup1\n      swap2\n      sub\n      swap1\n      return\n        /* \"Kash_flattened.sol\":27296:27443  function setMaxLimit(uint256 amount) external onlyOwner {... */\n    tag_23:\n      tag_104\n      0x04\n      dup1\n      calldatasize\n      sub\n      dup2\n      add\n      swap1\n      tag_105\n      swap2\n      swap1\n      tag_75\n      jump\t// in\n    tag_105:\n      tag_106\n      jump\t// in\n    tag_104:\n      stop\n        /* \"Kash_flattened.sol\":26515:26558  mapping(address => bool) public blacklisted */\n    tag_24:\n      tag_107\n      0x04\n      dup1\n      calldatasize\n      sub\n      dup2\n      add\n      swap1\n      tag_108\n      swap2\n      swap1\n      tag_79\n      jump\t// in\n    tag_108:\n      tag_109\n      jump\t// in\n    tag_107:\n      mload(0x40)\n      tag_110\n      swap2\n      swap1\n      tag_41\n      jump\t// in\n    tag_110:\n      mload(0x40)\n      dup1\n      swap2\n      sub\n      swap1\n      return\n        /* \"Kash_flattened.sol\":14357:14497  function allowance(address owner, address spender) public view virtual returns (uint256) {... */\n    tag_25:\n      tag_111\n      0x04\n      dup1\n      calldatasize\n      sub\n      dup2\n      add\n      swap1\n      tag_112\n      swap2\n      swap1\n      tag_113\n      jump\t// in\n    tag_112:\n      tag_114\n      jump\t// in\n    tag_111:\n      mload(0x40)\n      tag_115\n      swap2\n      swap1\n      tag_49\n      jump\t// in\n    tag_115:\n      mload(0x40)\n      dup1\n      swap2\n      sub\n      swap1\n      return\n        /* \"Kash_flattened.sol\":25360:25575  function transferOwnership(address newOwner) public virtual onlyOwner {... */\n    tag_26:\n      tag_116\n      0x04\n      dup1\n      calldatasize\n      sub\n      dup2\n      add\n      swap1\n      tag_117\n      swap2\n      swap1\n      tag_79\n      jump\t// in\n    tag_117:\n      tag_118\n      jump\t// in\n    tag_116:\n      stop\n        /* \"Kash_flattened.sol\":26448:26471  bool public tradingOpen */\n    tag_27:\n      tag_119\n      tag_120\n      jump\t// in\n    tag_119:\n      mload(0x40)\n      tag_121\n      swap2\n      swap1\n      tag_41\n      jump\t// in\n    tag_121:\n      mload(0x40)\n      dup1\n      swap2\n      sub\n      swap1\n      return\n        /* \"Kash_flattened.sol\":12662:12751  function name() public view virtual returns (string memory) {... */\n    tag_33:\n        /* \"Kash_flattened.sol\":12707:12720  string memory */\n      0x60\n        /* \"Kash_flattened.sol\":12739:12744  _name */\n      0x03\n        /* \"Kash_flattened.sol\":12732:12744  return _name */\n      dup1\n      sload\n      tag_123\n      swap1\n      tag_124\n      jump\t// in\n    tag_123:\n      dup1\n      0x1f\n      add\n      0x20\n      dup1\n      swap2\n      div\n      mul\n      0x20\n      add\n      mload(0x40)\n      swap1\n      dup2\n      add\n      0x40\n      mstore\n      dup1\n      swap3\n      swap2\n      swap1\n      dup2\n      dup2\n      mstore\n      0x20\n      add\n      dup3\n      dup1\n      sload\n      tag_125\n      swap1\n      tag_124\n      jump\t// in\n    tag_125:\n      dup1\n      iszero\n      tag_126\n      jumpi\n      dup1\n      0x1f\n      lt\n      tag_127\n      jumpi\n      0x0100\n      dup1\n      dup4\n      sload\n      div\n      mul\n      dup4\n      mstore\n      swap2\n      0x20\n      add\n      swap2\n      jump(tag_126)\n    tag_127:\n      dup3\n      add\n      swap2\n      swap1\n      0x00\n      mstore\n      keccak256(0x00, 0x20)\n      swap1\n    tag_128:\n      dup2\n      sload\n      dup2\n      mstore\n      swap1\n      0x01\n      add\n      swap1\n      0x20\n      add\n      dup1\n      dup4\n      gt\n      tag_128\n      jumpi\n      dup3\n      swap1\n      sub\n      0x1f\n      and\n      dup3\n      add\n      swap2\n    tag_126:\n      pop\n      pop\n      pop\n      pop\n      pop\n      swap1\n      pop\n        /* \"Kash_flattened.sol\":12662:12751  function name() public view virtual returns (string memory) {... */\n      swap1\n      jump\t// out\n        /* \"Kash_flattened.sol\":14804:14990  function approve(address spender, uint256 value) public virtual returns (bool) {... */\n    tag_39:\n        /* \"Kash_flattened.sol\":14877:14881  bool */\n      0x00\n        /* \"Kash_flattened.sol\":14893:14906  address owner */\n      0x00\n        /* \"Kash_flattened.sol\":14909:14921  _msgSender() */\n      tag_130\n        /* \"Kash_flattened.sol\":14909:14919  _msgSender */\n      tag_131\n        /* \"Kash_flattened.sol\":14909:14921  _msgSender() */\n      jump\t// in\n    tag_130:\n        /* \"Kash_flattened.sol\":14893:14921  address owner = _msgSender() */\n      swap1\n      pop\n        /* \"Kash_flattened.sol\":14931:14962  _approve(owner, spender, value) */\n      tag_132\n        /* \"Kash_flattened.sol\":14940:14945  owner */\n      dup2\n        /* \"Kash_flattened.sol\":14947:14954  spender */\n      dup6\n        /* \"Kash_flattened.sol\":14956:14961  value */\n      dup6\n        /* \"Kash_flattened.sol\":14931:14939  _approve */\n      tag_133\n        /* \"Kash_flattened.sol\":14931:14962  _approve(owner, spender, value) */\n      jump\t// in\n    tag_132:\n        /* \"Kash_flattened.sol\":14979:14983  true */\n      0x01\n        /* \"Kash_flattened.sol\":14972:14983  return true */\n      swap2\n      pop\n      pop\n        /* \"Kash_flattened.sol\":14804:14990  function approve(address spender, uint256 value) public virtual returns (bool) {... */\n      swap3\n      swap2\n      pop\n      pop\n      jump\t// out\n        /* \"Kash_flattened.sol\":27070:27177  function setBlacklist(address acc, bool state) external onlyOwner {... */\n    tag_45:\n        /* \"Kash_flattened.sol\":24348:24361  _checkOwner() */\n      tag_135\n        /* \"Kash_flattened.sol\":24348:24359  _checkOwner */\n      tag_136\n        /* \"Kash_flattened.sol\":24348:24361  _checkOwner() */\n      jump\t// in\n    tag_135:\n        /* \"Kash_flattened.sol\":27165:27170  state */\n      dup1\n        /* \"Kash_flattened.sol\":27146:27157  blacklisted */\n      0x08\n        /* \"Kash_flattened.sol\":27146:27162  blacklisted[acc] */\n      0x00\n        /* \"Kash_flattened.sol\":27158:27161  acc */\n      dup5\n        /* \"Kash_flattened.sol\":27146:27162  blacklisted[acc] */\n      0xffffffffffffffffffffffffffffffffffffffff\n      and\n      0xffffffffffffffffffffffffffffffffffffffff\n      and\n      dup2\n      mstore\n      0x20\n      add\n      swap1\n      dup2\n      mstore\n      0x20\n      add\n      0x00\n      keccak256\n      0x00\n        /* \"Kash_flattened.sol\":27146:27170  blacklisted[acc] = state */\n      0x0100\n      exp\n      dup2\n      sload\n      dup2\n      0xff\n      mul\n      not\n      and\n      swap1\n      dup4\n      iszero\n      iszero\n      mul\n      or\n      swap1\n      sstore\n      pop\n        /* \"Kash_flattened.sol\":27070:27177  function setBlacklist(address acc, bool state) external onlyOwner {... */\n      pop\n      pop\n      jump\t// out\n        /* \"Kash_flattened.sol\":13705:13802  function totalSupply() public view virtual returns (uint256) {... */\n    tag_47:\n        /* \"Kash_flattened.sol\":13757:13764  uint256 */\n      0x00\n        /* \"Kash_flattened.sol\":13783:13795  _totalSupply */\n      sload(0x02)\n        /* \"Kash_flattened.sol\":13776:13795  return _totalSupply */\n      swap1\n      pop\n        /* \"Kash_flattened.sol\":13705:13802  function totalSupply() public view virtual returns (uint256) {... */\n      swap1\n      jump\t// out\n        /* \"Kash_flattened.sol\":26398:26437  uint256 public maxLimit = 104_000 ether */\n    tag_51:\n      sload(0x06)\n      dup2\n      jump\t// out\n        /* \"Kash_flattened.sol\":26477:26508  bool public limitsActive = true */\n    tag_54:\n      0x07\n      0x01\n      swap1\n      sload\n      swap1\n      0x0100\n      exp\n      swap1\n      div\n      0xff\n      and\n      dup2\n      jump\t// out\n        /* \"Kash_flattened.sol\":15582:15826  function transferFrom(address from, address to, uint256 value) public virtual returns (bool) {... */\n    tag_59:\n        /* \"Kash_flattened.sol\":15669:15673  bool */\n      0x00\n        /* \"Kash_flattened.sol\":15685:15700  address spender */\n      0x00\n        /* \"Kash_flattened.sol\":15703:15715  _msgSender() */\n      tag_140\n        /* \"Kash_flattened.sol\":15703:15713  _msgSender */\n      tag_131\n        /* \"Kash_flattened.sol\":15703:15715  _msgSender() */\n      jump\t// in\n    tag_140:\n        /* \"Kash_flattened.sol\":15685:15715  address spender = _msgSender() */\n      swap1\n      pop\n        /* \"Kash_flattened.sol\":15725:15762  _spendAllowance(from, spender, value) */\n      tag_141\n        /* \"Kash_flattened.sol\":15741:15745  from */\n      dup6\n        /* \"Kash_flattened.sol\":15747:15754  spender */\n      dup3\n        /* \"Kash_flattened.sol\":15756:15761  value */\n      dup6\n        /* \"Kash_flattened.sol\":15725:15740  _spendAllowance */\n      tag_142\n        /* \"Kash_flattened.sol\":15725:15762  _spendAllowance(from, spender, value) */\n      jump\t// in\n    tag_141:\n        /* \"Kash_flattened.sol\":15772:15798  _transfer(from, to, value) */\n      tag_143\n        /* \"Kash_flattened.sol\":15782:15786  from */\n      dup6\n        /* \"Kash_flattened.sol\":15788:15790  to */\n      dup6\n        /* \"Kash_flattened.sol\":15792:15797  value */\n      dup6\n        /* \"Kash_flattened.sol\":15772:15781  _transfer */\n      tag_144\n        /* \"Kash_flattened.sol\":15772:15798  _transfer(from, to, value) */\n      jump\t// in\n    tag_143:\n        /* \"Kash_flattened.sol\":15815:15819  true */\n      0x01\n        /* \"Kash_flattened.sol\":15808:15819  return true */\n      swap2\n      pop\n      pop\n        /* \"Kash_flattened.sol\":15582:15826  function transferFrom(address from, address to, uint256 value) public virtual returns (bool) {... */\n      swap4\n      swap3\n      pop\n      pop\n      pop\n      jump\t// out\n        /* \"Kash_flattened.sol\":27183:27286  function setExcluded(address acc, bool state) external onlyOwner {... */\n    tag_63:\n        /* \"Kash_flattened.sol\":24348:24361  _checkOwner() */\n      tag_146\n        /* \"Kash_flattened.sol\":24348:24359  _checkOwner */\n      tag_136\n        /* \"Kash_flattened.sol\":24348:24361  _checkOwner() */\n      jump\t// in\n    tag_146:\n        /* \"Kash_flattened.sol\":27274:27279  state */\n      dup1\n        /* \"Kash_flattened.sol\":27258:27266  excluded */\n      0x09\n        /* \"Kash_flattened.sol\":27258:27271  excluded[acc] */\n      0x00\n        /* \"Kash_flattened.sol\":27267:27270  acc */\n      dup5\n        /* \"Kash_flattened.sol\":27258:27271  excluded[acc] */\n      0xffffffffffffffffffffffffffffffffffffffff\n      and\n      0xffffffffffffffffffffffffffffffffffffffff\n      and\n      dup2\n      mstore\n      0x20\n      add\n      swap1\n      dup2\n      mstore\n      0x20\n      add\n      0x00\n      keccak256\n      0x00\n        /* \"Kash_flattened.sol\":27258:27279  excluded[acc] = state */\n      0x0100\n      exp\n      dup2\n      sload\n      dup2\n      0xff\n      mul\n      not\n      and\n      swap1\n      dup4\n      iszero\n      iszero\n      mul\n      or\n      swap1\n      sstore\n      pop\n        /* \"Kash_flattened.sol\":27183:27286  function setExcluded(address acc, bool state) external onlyOwner {... */\n      pop\n      pop\n      jump\t// out\n        /* \"Kash_flattened.sol\":26900:26978  function startTrading() external onlyOwner {... */\n    tag_65:\n        /* \"Kash_flattened.sol\":24348:24361  _checkOwner() */\n      tag_149\n        /* \"Kash_flattened.sol\":24348:24359  _checkOwner */\n      tag_136\n        /* \"Kash_flattened.sol\":24348:24361  _checkOwner() */\n      jump\t// in\n    tag_149:\n        /* \"Kash_flattened.sol\":26967:26971  true */\n      0x01\n        /* \"Kash_flattened.sol\":26953:26964  tradingOpen */\n      0x07\n      0x00\n        /* \"Kash_flattened.sol\":26953:26971  tradingOpen = true */\n      0x0100\n      exp\n      dup2\n      sload\n      dup2\n      0xff\n      mul\n      not\n      and\n      swap1\n      dup4\n      iszero\n      iszero\n      mul\n      or\n      swap1\n      sstore\n      pop\n        /* \"Kash_flattened.sol\":26900:26978  function startTrading() external onlyOwner {... */\n      jump\t// out\n        /* \"Kash_flattened.sol\":13590:13672  function decimals() public view virtual returns (uint8) {... */\n    tag_67:\n        /* \"Kash_flattened.sol\":13639:13644  uint8 */\n      0x00\n        /* \"Kash_flattened.sol\":13663:13665  18 */\n      0x12\n        /* \"Kash_flattened.sol\":13656:13665  return 18 */\n      swap1\n      pop\n        /* \"Kash_flattened.sol\":13590:13672  function decimals() public view virtual returns (uint8) {... */\n      swap1\n      jump\t// out\n        /* \"Kash_flattened.sol\":26339:26392  uint256 public constant MAX_SUPPLY = 52_000_000 ether */\n    tag_71:\n        /* \"Kash_flattened.sol\":26376:26392  52_000_000 ether */\n      0x2b036da601a044b4000000\n        /* \"Kash_flattened.sol\":26339:26392  uint256 public constant MAX_SUPPLY = 52_000_000 ether */\n      dup2\n      jump\t// out\n        /* \"Kash_flattened.sol\":22276:22363  function burn(uint256 value) public virtual {... */\n    tag_76:\n        /* \"Kash_flattened.sol\":22330:22356  _burn(_msgSender(), value) */\n      tag_153\n        /* \"Kash_flattened.sol\":22336:22348  _msgSender() */\n      tag_154\n        /* \"Kash_flattened.sol\":22336:22346  _msgSender */\n      tag_131\n        /* \"Kash_flattened.sol\":22336:22348  _msgSender() */\n      jump\t// in\n    tag_154:\n        /* \"Kash_flattened.sol\":22350:22355  value */\n      dup3\n        /* \"Kash_flattened.sol\":22330:22335  _burn */\n      tag_155\n        /* \"Kash_flattened.sol\":22330:22356  _burn(_msgSender(), value) */\n      jump\t// in\n    tag_153:\n        /* \"Kash_flattened.sol\":22276:22363  function burn(uint256 value) public virtual {... */\n      pop\n      jump\t// out\n        /* \"Kash_flattened.sol\":26564:26604  mapping(address => bool) public excluded */\n    tag_80:\n      mstore(0x20, 0x09)\n      dup1\n      0x00\n      mstore\n      keccak256(0x00, 0x40)\n      0x00\n      swap2\n      pop\n      sload\n      swap1\n      0x0100\n      exp\n      swap1\n      div\n      0xff\n      and\n      dup2\n      jump\t// out\n        /* \"Kash_flattened.sol\":13835:13951  function balanceOf(address account) public view virtual returns (uint256) {... */\n    tag_84:\n        /* \"Kash_flattened.sol\":13900:13907  uint256 */\n      0x00\n        /* \"Kash_flattened.sol\":13926:13935  _balances */\n      0x00\n        /* \"Kash_flattened.sol\":13926:13944  _balances[account] */\n      0x00\n        /* \"Kash_flattened.sol\":13936:13943  account */\n      dup4\n        /* \"Kash_flattened.sol\":13926:13944  _balances[account] */\n      0xffffffffffffffffffffffffffffffffffffffff\n      and\n      0xffffffffffffffffffffffffffffffffffffffff\n      and\n      dup2\n      mstore\n      0x20\n      add\n      swap1\n      dup2\n      mstore\n      0x20\n      add\n      0x00\n      keccak256\n      sload\n        /* \"Kash_flattened.sol\":13919:13944  return _balances[account] */\n      swap1\n      pop\n        /* \"Kash_flattened.sol\":13835:13951  function balanceOf(address account) public view virtual returns (uint256) {... */\n      swap2\n      swap1\n      pop\n      jump\t// out\n        /* \"Kash_flattened.sol\":25110:25211  function renounceOwnership() public virtual onlyOwner {... */\n    tag_87:\n        /* \"Kash_flattened.sol\":24348:24361  _checkOwner() */\n      tag_158\n        /* \"Kash_flattened.sol\":24348:24359  _checkOwner */\n      tag_136\n        /* \"Kash_flattened.sol\":24348:24361  _checkOwner() */\n      jump\t// in\n    tag_158:\n        /* \"Kash_flattened.sol\":25174:25204  _transferOwnership(address(0)) */\n      tag_160\n        /* \"Kash_flattened.sol\":25201:25202  0 */\n      0x00\n        /* \"Kash_flattened.sol\":25174:25192  _transferOwnership */\n      tag_161\n        /* \"Kash_flattened.sol\":25174:25204  _transferOwnership(address(0)) */\n      jump\t// in\n    tag_160:\n        /* \"Kash_flattened.sol\":25110:25211  function renounceOwnership() public virtual onlyOwner {... */\n      jump\t// out\n        /* \"Kash_flattened.sol\":26984:27064  function removeLimits() external onlyOwner {... */\n    tag_89:\n        /* \"Kash_flattened.sol\":24348:24361  _checkOwner() */\n      tag_163\n        /* \"Kash_flattened.sol\":24348:24359  _checkOwner */\n      tag_136\n        /* \"Kash_flattened.sol\":24348:24361  _checkOwner() */\n      jump\t// in\n    tag_163:\n        /* \"Kash_flattened.sol\":27052:27057  false */\n      0x00\n        /* \"Kash_flattened.sol\":27037:27049  limitsActive */\n      0x07\n      0x01\n        /* \"Kash_flattened.sol\":27037:27057  limitsActive = false */\n      0x0100\n      exp\n      dup2\n      sload\n      dup2\n      0xff\n      mul\n      not\n      and\n      swap1\n      dup4\n      iszero\n      iszero\n      mul\n      or\n      swap1\n      sstore\n      pop\n        /* \"Kash_flattened.sol\":26984:27064  function removeLimits() external onlyOwner {... */\n      jump\t// out\n        /* \"Kash_flattened.sol\":22679:22837  function burnFrom(address account, uint256 value) public virtual {... */\n    tag_92:\n        /* \"Kash_flattened.sol\":22754:22799  _spendAllowance(account, _msgSender(), value) */\n      tag_166\n        /* \"Kash_flattened.sol\":22770:22777  account */\n      dup3\n        /* \"Kash_flattened.sol\":22779:22791  _msgSender() */\n      tag_167\n        /* \"Kash_flattened.sol\":22779:22789  _msgSender */\n      tag_131\n        /* \"Kash_flattened.sol\":22779:22791  _msgSender() */\n      jump\t// in\n    tag_167:\n        /* \"Kash_flattened.sol\":22793:22798  value */\n      dup4\n        /* \"Kash_flattened.sol\":22754:22769  _spendAllowance */\n      tag_142\n        /* \"Kash_flattened.sol\":22754:22799  _spendAllowance(account, _msgSender(), value) */\n      jump\t// in\n    tag_166:\n        /* \"Kash_flattened.sol\":22809:22830  _burn(account, value) */\n      tag_168\n        /* \"Kash_flattened.sol\":22815:22822  account */\n      dup3\n        /* \"Kash_flattened.sol\":22824:22829  value */\n      dup3\n        /* \"Kash_flattened.sol\":22809:22814  _burn */\n      tag_155\n        /* \"Kash_flattened.sol\":22809:22830  _burn(account, value) */\n      jump\t// in\n    tag_168:\n        /* \"Kash_flattened.sol\":22679:22837  function burnFrom(address account, uint256 value) public virtual {... */\n      pop\n      pop\n      jump\t// out\n        /* \"Kash_flattened.sol\":24455:24540  function owner() public view virtual returns (address) {... */\n    tag_94:\n        /* \"Kash_flattened.sol\":24501:24508  address */\n      0x00\n        /* \"Kash_flattened.sol\":24527:24533  _owner */\n      0x05\n      0x00\n      swap1\n      sload\n      swap1\n      0x0100\n      exp\n      swap1\n      div\n      0xffffffffffffffffffffffffffffffffffffffff\n      and\n        /* \"Kash_flattened.sol\":24520:24533  return _owner */\n      swap1\n      pop\n        /* \"Kash_flattened.sol\":24455:24540  function owner() public view virtual returns (address) {... */\n      swap1\n      jump\t// out\n        /* \"Kash_flattened.sol\":12864:12957  function symbol() public view virtual returns (string memory) {... */\n    tag_98:\n        /* \"Kash_flattened.sol\":12911:12924  string memory */\n      0x60\n        /* \"Kash_flattened.sol\":12943:12950  _symbol */\n      0x04\n        /* \"Kash_flattened.sol\":12936:12950  return _symbol */\n      dup1\n      sload\n      tag_171\n      swap1\n      tag_124\n      jump\t// in\n    tag_171:\n      dup1\n      0x1f\n      add\n      0x20\n      dup1\n      swap2\n      div\n      mul\n      0x20\n      add\n      mload(0x40)\n      swap1\n      dup2\n      add\n      0x40\n      mstore\n      dup1\n      swap3\n      swap2\n      swap1\n      dup2\n      dup2\n      mstore\n      0x20\n      add\n      dup3\n      dup1\n      sload\n      tag_172\n      swap1\n      tag_124\n      jump\t// in\n    tag_172:\n      dup1\n      iszero\n      tag_173\n      jumpi\n      dup1\n      0x1f\n      lt\n      tag_174\n      jumpi\n      0x0100\n      dup1\n      dup4\n      sload\n      div\n      mul\n      dup4\n      mstore\n      swap2\n      0x20\n      add\n      swap2\n      jump(tag_173)\n    tag_174:\n      dup3\n      add\n      swap2\n      swap1\n      0x00\n      mstore\n      keccak256(0x00, 0x20)\n      swap1\n    tag_175:\n      dup2\n      sload\n      dup2\n      mstore\n      swap1\n      0x01\n      add\n      swap1\n      0x20\n      add\n      dup1\n      dup4\n      gt\n      tag_175\n      jumpi\n      dup3\n      swap1\n      sub\n      0x1f\n      and\n      dup3\n      add\n      swap2\n    tag_173:\n      pop\n      pop\n      pop\n      pop\n      pop\n      swap1\n      pop\n        /* \"Kash_flattened.sol\":12864:12957  function symbol() public view virtual returns (string memory) {... */\n      swap1\n      jump\t// out\n        /* \"Kash_flattened.sol\":14146:14324  function transfer(address to, uint256 value) public virtual returns (bool) {... */\n    tag_102:\n        /* \"Kash_flattened.sol\":14215:14219  bool */\n      0x00\n        /* \"Kash_flattened.sol\":14231:14244  address owner */\n      0x00\n        /* \"Kash_flattened.sol\":14247:14259  _msgSender() */\n      tag_177\n        /* \"Kash_flattened.sol\":14247:14257  _msgSender */\n      tag_131\n        /* \"Kash_flattened.sol\":14247:14259  _msgSender() */\n      jump\t// in\n    tag_177:\n        /* \"Kash_flattened.sol\":14231:14259  address owner = _msgSender() */\n      swap1\n      pop\n        /* \"Kash_flattened.sol\":14269:14296  _transfer(owner, to, value) */\n      tag_178\n        /* \"Kash_flattened.sol\":14279:14284  owner */\n      dup2\n        /* \"Kash_flattened.sol\":14286:14288  to */\n      dup6\n        /* \"Kash_flattened.sol\":14290:14295  value */\n      dup6\n        /* \"Kash_flattened.sol\":14269:14278  _transfer */\n      tag_144\n        /* \"Kash_flattened.sol\":14269:14296  _transfer(owner, to, value) */\n      jump\t// in\n    tag_178:\n        /* \"Kash_flattened.sol\":14313:14317  true */\n      0x01\n        /* \"Kash_flattened.sol\":14306:14317  return true */\n      swap2\n      pop\n      pop\n        /* \"Kash_flattened.sol\":14146:14324  function transfer(address to, uint256 value) public virtual returns (bool) {... */\n      swap3\n      swap2\n      pop\n      pop\n      jump\t// out\n        /* \"Kash_flattened.sol\":27296:27443  function setMaxLimit(uint256 amount) external onlyOwner {... */\n    tag_106:\n        /* \"Kash_flattened.sol\":24348:24361  _checkOwner() */\n      tag_180\n        /* \"Kash_flattened.sol\":24348:24359  _checkOwner */\n      tag_136\n        /* \"Kash_flattened.sol\":24348:24361  _checkOwner() */\n      jump\t// in\n    tag_180:\n        /* \"Kash_flattened.sol\":27366:27378  limitsActive */\n      0x07\n      0x01\n      swap1\n      sload\n      swap1\n      0x0100\n      exp\n      swap1\n      div\n      0xff\n      and\n        /* \"Kash_flattened.sol\":27362:27399  if(!limitsActive) revert LimitsGone() */\n      tag_182\n      jumpi\n        /* \"Kash_flattened.sol\":27387:27399  LimitsGone() */\n      mload(0x40)\n      0x4ca4c06c00000000000000000000000000000000000000000000000000000000\n      dup2\n      mstore\n      0x04\n      add\n      mload(0x40)\n      dup1\n      swap2\n      sub\n      swap1\n      revert\n        /* \"Kash_flattened.sol\":27362:27399  if(!limitsActive) revert LimitsGone() */\n    tag_182:\n        /* \"Kash_flattened.sol\":27429:27436  1 ether */\n      0x0de0b6b3a7640000\n        /* \"Kash_flattened.sol\":27420:27426  amount */\n      dup2\n        /* \"Kash_flattened.sol\":27420:27436  amount * 1 ether */\n      tag_183\n      swap2\n      swap1\n      tag_184\n      jump\t// in\n    tag_183:\n        /* \"Kash_flattened.sol\":27409:27417  maxLimit */\n      0x06\n        /* \"Kash_flattened.sol\":27409:27436  maxLimit = amount * 1 ether */\n      dup2\n      swap1\n      sstore\n      pop\n        /* \"Kash_flattened.sol\":27296:27443  function setMaxLimit(uint256 amount) external onlyOwner {... */\n      pop\n      jump\t// out\n        /* \"Kash_flattened.sol\":26515:26558  mapping(address => bool) public blacklisted */\n    tag_109:\n      mstore(0x20, 0x08)\n      dup1\n      0x00\n      mstore\n      keccak256(0x00, 0x40)\n      0x00\n      swap2\n      pop\n      sload\n      swap1\n      0x0100\n      exp\n      swap1\n      div\n      0xff\n      and\n      dup2\n      jump\t// out\n        /* \"Kash_flattened.sol\":14357:14497  function allowance(address owner, address spender) public view virtual returns (uint256) {... */\n    tag_114:\n        /* \"Kash_flattened.sol\":14437:14444  uint256 */\n      0x00\n        /* \"Kash_flattened.sol\":14463:14474  _allowances */\n      0x01\n        /* \"Kash_flattened.sol\":14463:14481  _allowances[owner] */\n      0x00\n        /* \"Kash_flattened.sol\":14475:14480  owner */\n      dup5\n        /* \"Kash_flattened.sol\":14463:14481  _allowances[owner] */\n      0xffffffffffffffffffffffffffffffffffffffff\n      and\n      0xffffffffffffffffffffffffffffffffffffffff\n      and\n      dup2\n      mstore\n      0x20\n      add\n      swap1\n      dup2\n      mstore\n      0x20\n      add\n      0x00\n      keccak256\n        /* \"Kash_flattened.sol\":14463:14490  _allowances[owner][spender] */\n      0x00\n        /* \"Kash_flattened.sol\":14482:14489  spender */\n      dup4\n        /* \"Kash_flattened.sol\":14463:14490  _allowances[owner][spender] */\n      0xffffffffffffffffffffffffffffffffffffffff\n      and\n      0xffffffffffffffffffffffffffffffffffffffff\n      and\n      dup2\n      mstore\n      0x20\n      add\n      swap1\n      dup2\n      mstore\n      0x20\n      add\n      0x00\n      keccak256\n      sload\n        /* \"Kash_flattened.sol\":14456:14490  return _allowances[owner][spender] */\n      swap1\n      pop\n        /* \"Kash_flattened.sol\":14357:14497  function allowance(address owner, address spender) public view virtual returns (uint256) {... */\n      swap3\n      swap2\n      pop\n      pop\n      jump\t// out\n        /* \"Kash_flattened.sol\":25360:25575  function transferOwnership(address newOwner) public virtual onlyOwner {... */\n    tag_118:\n        /* \"Kash_flattened.sol\":24348:24361  _checkOwner() */\n      tag_187\n        /* \"Kash_flattened.sol\":24348:24359  _checkOwner */\n      tag_136\n        /* \"Kash_flattened.sol\":24348:24361  _checkOwner() */\n      jump\t// in\n    tag_187:\n        /* \"Kash_flattened.sol\":25464:25465  0 */\n      0x00\n        /* \"Kash_flattened.sol\":25444:25466  newOwner == address(0) */\n      0xffffffffffffffffffffffffffffffffffffffff\n      and\n        /* \"Kash_flattened.sol\":25444:25452  newOwner */\n      dup2\n        /* \"Kash_flattened.sol\":25444:25466  newOwner == address(0) */\n      0xffffffffffffffffffffffffffffffffffffffff\n      and\n      sub\n        /* \"Kash_flattened.sol\":25440:25531  if (newOwner == address(0)) {... */\n      tag_189\n      jumpi\n        /* \"Kash_flattened.sol\":25517:25518  0 */\n      0x00\n        /* \"Kash_flattened.sol\":25489:25520  OwnableInvalidOwner(address(0)) */\n      mload(0x40)\n      0x1e4fbdf700000000000000000000000000000000000000000000000000000000\n      dup2\n      mstore\n      0x04\n      add\n      tag_190\n      swap2\n      swap1\n      tag_96\n      jump\t// in\n    tag_190:\n      mload(0x40)\n      dup1\n      swap2\n      sub\n      swap1\n      revert\n        /* \"Kash_flattened.sol\":25440:25531  if (newOwner == address(0)) {... */\n    tag_189:\n        /* \"Kash_flattened.sol\":25540:25568  _transferOwnership(newOwner) */\n      tag_191\n        /* \"Kash_flattened.sol\":25559:25567  newOwner */\n      dup2\n        /* \"Kash_flattened.sol\":25540:25558  _transferOwnership */\n      tag_161\n        /* \"Kash_flattened.sol\":25540:25568  _transferOwnership(newOwner) */\n      jump\t// in\n    tag_191:\n        /* \"Kash_flattened.sol\":25360:25575  function transferOwnership(address newOwner) public virtual onlyOwner {... */\n      pop\n      jump\t// out\n        /* \"Kash_flattened.sol\":26448:26471  bool public tradingOpen */\n    tag_120:\n      0x07\n      0x00\n      swap1\n      sload\n      swap1\n      0x0100\n      exp\n      swap1\n      div\n      0xff\n      and\n      dup2\n      jump\t// out\n        /* \"Kash_flattened.sol\":4210:4306  function _msgSender() internal view virtual returns (address) {... */\n    tag_131:\n        /* \"Kash_flattened.sol\":4263:4270  address */\n      0x00\n        /* \"Kash_flattened.sol\":4289:4299  msg.sender */\n      caller\n        /* \"Kash_flattened.sol\":4282:4299  return msg.sender */\n      swap1\n      pop\n        /* \"Kash_flattened.sol\":4210:4306  function _msgSender() internal view virtual returns (address) {... */\n      swap1\n      jump\t// out\n        /* \"Kash_flattened.sol\":19532:19660  function _approve(address owner, address spender, uint256 value) internal {... */\n    tag_133:\n        /* \"Kash_flattened.sol\":19616:19653  _approve(owner, spender, value, true) */\n      tag_194\n        /* \"Kash_flattened.sol\":19625:19630  owner */\n      dup4\n        /* \"Kash_flattened.sol\":19632:19639  spender */\n      dup4\n        /* \"Kash_flattened.sol\":19641:19646  value */\n      dup4\n        /* \"Kash_flattened.sol\":19648:19652  true */\n      0x01\n        /* \"Kash_flattened.sol\":19616:19624  _approve */\n      tag_195\n        /* \"Kash_flattened.sol\":19616:19653  _approve(owner, spender, value, true) */\n      jump\t// in\n    tag_194:\n        /* \"Kash_flattened.sol\":19532:19660  function _approve(address owner, address spender, uint256 value) internal {... */\n      pop\n      pop\n      pop\n      jump\t// out\n        /* \"Kash_flattened.sol\":24613:24775  function _checkOwner() internal view virtual {... */\n    tag_136:\n        /* \"Kash_flattened.sol\":24683:24695  _msgSender() */\n      tag_197\n        /* \"Kash_flattened.sol\":24683:24693  _msgSender */\n      tag_131\n        /* \"Kash_flattened.sol\":24683:24695  _msgSender() */\n      jump\t// in\n    tag_197:\n        /* \"Kash_flattened.sol\":24672:24695  owner() != _msgSender() */\n      0xffffffffffffffffffffffffffffffffffffffff\n      and\n        /* \"Kash_flattened.sol\":24672:24679  owner() */\n      tag_198\n        /* \"Kash_flattened.sol\":24672:24677  owner */\n      tag_94\n        /* \"Kash_flattened.sol\":24672:24679  owner() */\n      jump\t// in\n    tag_198:\n        /* \"Kash_flattened.sol\":24672:24695  owner() != _msgSender() */\n      0xffffffffffffffffffffffffffffffffffffffff\n      and\n      eq\n        /* \"Kash_flattened.sol\":24668:24769  if (owner() != _msgSender()) {... */\n      tag_199\n      jumpi\n        /* \"Kash_flattened.sol\":24745:24757  _msgSender() */\n      tag_200\n        /* \"Kash_flattened.sol\":24745:24755  _msgSender */\n      tag_131\n        /* \"Kash_flattened.sol\":24745:24757  _msgSender() */\n      jump\t// in\n    tag_200:\n        /* \"Kash_flattened.sol\":24718:24758  OwnableUnauthorizedAccount(_msgSender()) */\n      mload(0x40)\n      0x118cdaa700000000000000000000000000000000000000000000000000000000\n      dup2\n      mstore\n      0x04\n      add\n      tag_201\n      swap2\n      swap1\n      tag_96\n      jump\t// in\n    tag_201:\n      mload(0x40)\n      dup1\n      swap2\n      sub\n      swap1\n      revert\n        /* \"Kash_flattened.sol\":24668:24769  if (owner() != _msgSender()) {... */\n    tag_199:\n        /* \"Kash_flattened.sol\":24613:24775  function _checkOwner() internal view virtual {... */\n      jump\t// out\n        /* \"Kash_flattened.sol\":21221:21697  function _spendAllowance(address owner, address spender, uint256 value) internal virtual {... */\n    tag_142:\n        /* \"Kash_flattened.sol\":21320:21344  uint256 currentAllowance */\n      0x00\n        /* \"Kash_flattened.sol\":21347:21372  allowance(owner, spender) */\n      tag_203\n        /* \"Kash_flattened.sol\":21357:21362  owner */\n      dup5\n        /* \"Kash_flattened.sol\":21364:21371  spender */\n      dup5\n        /* \"Kash_flattened.sol\":21347:21356  allowance */\n      tag_114\n        /* \"Kash_flattened.sol\":21347:21372  allowance(owner, spender) */\n      jump\t// in\n    tag_203:\n        /* \"Kash_flattened.sol\":21320:21372  uint256 currentAllowance = allowance(owner, spender) */\n      swap1\n      pop\n        /* \"Kash_flattened.sol\":21405:21422  type(uint256).max */\n      0xffffffffffffffffffffffffffffffffffffffffffffffffffffffffffffffff\n        /* \"Kash_flattened.sol\":21386:21402  currentAllowance */\n      dup2\n        /* \"Kash_flattened.sol\":21386:21422  currentAllowance < type(uint256).max */\n      lt\n        /* \"Kash_flattened.sol\":21382:21691  if (currentAllowance < type(uint256).max) {... */\n      iszero\n      tag_204\n      jumpi\n        /* \"Kash_flattened.sol\":21461:21466  value */\n      dup2\n        /* \"Kash_flattened.sol\":21442:21458  currentAllowance */\n      dup2\n        /* \"Kash_flattened.sol\":21442:21466  currentAllowance < value */\n      lt\n        /* \"Kash_flattened.sol\":21438:21568  if (currentAllowance < value) {... */\n      iszero\n      tag_205\n      jumpi\n        /* \"Kash_flattened.sol\":21520:21527  spender */\n      dup3\n        /* \"Kash_flattened.sol\":21529:21545  currentAllowance */\n      dup2\n        /* \"Kash_flattened.sol\":21547:21552  value */\n      dup4\n        /* \"Kash_flattened.sol\":21493:21553  ERC20InsufficientAllowance(spender, currentAllowance, value) */\n      mload(0x40)\n      0xfb8f41b200000000000000000000000000000000000000000000000000000000\n      dup2\n      mstore\n      0x04\n      add\n      tag_206\n      swap4\n      swap3\n      swap2\n      swap1\n      tag_207\n      jump\t// in\n    tag_206:\n      mload(0x40)\n      dup1\n      swap2\n      sub\n      swap1\n      revert\n        /* \"Kash_flattened.sol\":21438:21568  if (currentAllowance < value) {... */\n    tag_205:\n        /* \"Kash_flattened.sol\":21609:21666  _approve(owner, spender, currentAllowance - value, false) */\n      tag_208\n        /* \"Kash_flattened.sol\":21618:21623  owner */\n      dup5\n        /* \"Kash_flattened.sol\":21625:21632  spender */\n      dup5\n        /* \"Kash_flattened.sol\":21653:21658  value */\n      dup5\n        /* \"Kash_flattened.sol\":21634:21650  currentAllowance */\n      dup5\n        /* \"Kash_flattened.sol\":21634:21658  currentAllowance - value */\n      sub\n        /* \"Kash_flattened.sol\":21660:21665  false */\n      0x00\n        /* \"Kash_flattened.sol\":21609:21617  _approve */\n      tag_195\n        /* \"Kash_flattened.sol\":21609:21666  _approve(owner, spender, currentAllowance - value, false) */\n      jump\t// in\n    tag_208:\n        /* \"Kash_flattened.sol\":21382:21691  if (currentAllowance < type(uint256).max) {... */\n    tag_204:\n        /* \"Kash_flattened.sol\":21310:21697  {... */\n      pop\n        /* \"Kash_flattened.sol\":21221:21697  function _spendAllowance(address owner, address spender, uint256 value) internal virtual {... */\n      pop\n      pop\n      pop\n      jump\t// out\n        /* \"Kash_flattened.sol\":16199:16499  function _transfer(address from, address to, uint256 value) internal {... */\n    tag_144:\n        /* \"Kash_flattened.sol\":16298:16299  0 */\n      0x00\n        /* \"Kash_flattened.sol\":16282:16300  from == address(0) */\n      0xffffffffffffffffffffffffffffffffffffffff\n      and\n        /* \"Kash_flattened.sol\":16282:16286  from */\n      dup4\n        /* \"Kash_flattened.sol\":16282:16300  from == address(0) */\n      0xffffffffffffffffffffffffffffffffffffffff\n      and\n      sub\n        /* \"Kash_flattened.sol\":16278:16364  if (from == address(0)) {... */\n      tag_210\n      jumpi\n        /* \"Kash_flattened.sol\":16350:16351  0 */\n      0x00\n        /* \"Kash_flattened.sol\":16323:16353  ERC20InvalidSender(address(0)) */\n      mload(0x40)\n      0x96c6fd1e00000000000000000000000000000000000000000000000000000000\n      dup2\n      mstore\n      0x04\n      add\n      tag_211\n      swap2\n      swap1\n      tag_96\n      jump\t// in\n    tag_211:\n      mload(0x40)\n      dup1\n      swap2\n      sub\n      swap1\n      revert\n        /* \"Kash_flattened.sol\":16278:16364  if (from == address(0)) {... */\n    tag_210:\n        /* \"Kash_flattened.sol\":16391:16392  0 */\n      0x00\n        /* \"Kash_flattened.sol\":16377:16393  to == address(0) */\n      0xffffffffffffffffffffffffffffffffffffffff\n      and\n        /* \"Kash_flattened.sol\":16377:16379  to */\n      dup3\n        /* \"Kash_flattened.sol\":16377:16393  to == address(0) */\n      0xffffffffffffffffffffffffffffffffffffffff\n      and\n      sub\n        /* \"Kash_flattened.sol\":16373:16459  if (to == address(0)) {... */\n      tag_212\n      jumpi\n        /* \"Kash_flattened.sol\":16445:16446  0 */\n      0x00\n        /* \"Kash_flattened.sol\":16416:16448  ERC20InvalidReceiver(address(0)) */\n      mload(0x40)\n      0xec442f0500000000000000000000000000000000000000000000000000000000\n      dup2\n      mstore\n      0x04\n      add\n      tag_213\n      swap2\n      swap1\n      tag_96\n      jump\t// in\n    tag_213:\n      mload(0x40)\n      dup1\n      swap2\n      sub\n      swap1\n      revert\n        /* \"Kash_flattened.sol\":16373:16459  if (to == address(0)) {... */\n    tag_212:\n        /* \"Kash_flattened.sol\":16468:16492  _update(from, to, value) */\n      tag_214\n        /* \"Kash_flattened.sol\":16476:16480  from */\n      dup4\n        /* \"Kash_flattened.sol\":16482:16484  to */\n      dup4\n        /* \"Kash_flattened.sol\":16486:16491  value */\n      dup4\n        /* \"Kash_flattened.sol\":16468:16475  _update */\n      tag_215\n        /* \"Kash_flattened.sol\":16468:16492  _update(from, to, value) */\n      jump\t// in\n    tag_214:\n        /* \"Kash_flattened.sol\":16199:16499  function _transfer(address from, address to, uint256 value) internal {... */\n      pop\n      pop\n      pop\n      jump\t// out\n        /* \"Kash_flattened.sol\":18790:18996  function _burn(address account, uint256 value) internal {... */\n    tag_155:\n        /* \"Kash_flattened.sol\":18879:18880  0 */\n      0x00\n        /* \"Kash_flattened.sol\":18860:18881  account == address(0) */\n      0xffffffffffffffffffffffffffffffffffffffff\n      and\n        /* \"Kash_flattened.sol\":18860:18867  account */\n      dup3\n        /* \"Kash_flattened.sol\":18860:18881  account == address(0) */\n      0xffffffffffffffffffffffffffffffffffffffff\n      and\n      sub\n        /* \"Kash_flattened.sol\":18856:18945  if (account == address(0)) {... */\n      tag_217\n      jumpi\n        /* \"Kash_flattened.sol\":18931:18932  0 */\n      0x00\n        /* \"Kash_flattened.sol\":18904:18934  ERC20InvalidSender(address(0)) */\n      mload(0x40)\n      0x96c6fd1e00000000000000000000000000000000000000000000000000000000\n      dup2\n      mstore\n      0x04\n      add\n      tag_218\n      swap2\n      swap1\n      tag_96\n      jump\t// in\n    tag_218:\n      mload(0x40)\n      dup1\n      swap2\n      sub\n      swap1\n      revert\n        /* \"Kash_flattened.sol\":18856:18945  if (account == address(0)) {... */\n    tag_217:\n        /* \"Kash_flattened.sol\":18954:18989  _update(account, address(0), value) */\n      tag_219\n        /* \"Kash_flattened.sol\":18962:18969  account */\n      dup3\n        /* \"Kash_flattened.sol\":18979:18980  0 */\n      0x00\n        /* \"Kash_flattened.sol\":18983:18988  value */\n      dup4\n        /* \"Kash_flattened.sol\":18954:18961  _update */\n      tag_215\n        /* \"Kash_flattened.sol\":18954:18989  _update(account, address(0), value) */\n      jump\t// in\n    tag_219:\n        /* \"Kash_flattened.sol\":18790:18996  function _burn(address account, uint256 value) internal {... */\n      pop\n      pop\n      jump\t// out\n        /* \"Kash_flattened.sol\":25729:25916  function _transferOwnership(address newOwner) internal virtual {... */\n    tag_161:\n        /* \"Kash_flattened.sol\":25802:25818  address oldOwner */\n      0x00\n        /* \"Kash_flattened.sol\":25821:25827  _owner */\n      0x05\n      0x00\n      swap1\n      sload\n      swap1\n      0x0100\n      exp\n      swap1\n      div\n      0xffffffffffffffffffffffffffffffffffffffff\n      and\n        /* \"Kash_flattened.sol\":25802:25827  address oldOwner = _owner */\n      swap1\n      pop\n        /* \"Kash_flattened.sol\":25846:25854  newOwner */\n      dup2\n        /* \"Kash_flattened.sol\":25837:25843  _owner */\n      0x05\n      0x00\n        /* \"Kash_flattened.sol\":25837:25854  _owner = newOwner */\n      0x0100\n      exp\n      dup2\n      sload\n      dup2\n      0xffffffffffffffffffffffffffffffffffffffff\n      mul\n      not\n      and\n      swap1\n      dup4\n      0xffffffffffffffffffffffffffffffffffffffff\n      and\n      mul\n      or\n      swap1\n      sstore\n      pop\n        /* \"Kash_flattened.sol\":25900:25908  newOwner */\n      dup2\n        /* \"Kash_flattened.sol\":25869:25909  OwnershipTransferred(oldOwner, newOwner) */\n      0xffffffffffffffffffffffffffffffffffffffff\n      and\n        /* \"Kash_flattened.sol\":25890:25898  oldOwner */\n      dup2\n        /* \"Kash_flattened.sol\":25869:25909  OwnershipTransferred(oldOwner, newOwner) */\n      0xffffffffffffffffffffffffffffffffffffffff\n      and\n      0x8be0079c531659141344cd1fd0a4f28419497f9722a3daafe3b4186f6b6457e0\n      mload(0x40)\n      mload(0x40)\n      dup1\n      swap2\n      sub\n      swap1\n      log3\n        /* \"Kash_flattened.sol\":25792:25916  {... */\n      pop\n        /* \"Kash_flattened.sol\":25729:25916  function _transferOwnership(address newOwner) internal virtual {... */\n      pop\n      jump\t// out\n        /* \"Kash_flattened.sol\":20507:20939  function _approve(address owner, address spender, uint256 value, bool emitEvent) internal virtual {... */\n    tag_195:\n        /* \"Kash_flattened.sol\":20636:20637  0 */\n      0x00\n        /* \"Kash_flattened.sol\":20619:20638  owner == address(0) */\n      0xffffffffffffffffffffffffffffffffffffffff\n      and\n        /* \"Kash_flattened.sol\":20619:20624  owner */\n      dup5\n        /* \"Kash_flattened.sol\":20619:20638  owner == address(0) */\n      0xffffffffffffffffffffffffffffffffffffffff\n      and\n      sub\n        /* \"Kash_flattened.sol\":20615:20704  if (owner == address(0)) {... */\n      tag_222\n      jumpi\n        /* \"Kash_flattened.sol\":20690:20691  0 */\n      0x00\n        /* \"Kash_flattened.sol\":20661:20693  ERC20InvalidApprover(address(0)) */\n      mload(0x40)\n      0xe602df0500000000000000000000000000000000000000000000000000000000\n      dup2\n      mstore\n      0x04\n      add\n      tag_223\n      swap2\n      swap1\n      tag_96\n      jump\t// in\n    tag_223:\n      mload(0x40)\n      dup1\n      swap2\n      sub\n      swap1\n      revert\n        /* \"Kash_flattened.sol\":20615:20704  if (owner == address(0)) {... */\n    tag_222:\n        /* \"Kash_flattened.sol\":20736:20737  0 */\n      0x00\n        /* \"Kash_flattened.sol\":20717:20738  spender == address(0) */\n      0xffffffffffffffffffffffffffffffffffffffff\n      and\n        /* \"Kash_flattened.sol\":20717:20724  spender */\n      dup4\n        /* \"Kash_flattened.sol\":20717:20738  spender == address(0) */\n      0xffffffffffffffffffffffffffffffffffffffff\n      and\n      sub\n        /* \"Kash_flattened.sol\":20713:20803  if (spender == address(0)) {... */\n      tag_224\n      jumpi\n        /* \"Kash_flattened.sol\":20789:20790  0 */\n      0x00\n        /* \"Kash_flattened.sol\":20761:20792  ERC20InvalidSpender(address(0)) */\n      mload(0x40)\n      0x94280d6200000000000000000000000000000000000000000000000000000000\n      dup2\n      mstore\n      0x04\n      add\n      tag_225\n      swap2\n      swap1\n      tag_96\n      jump\t// in\n    tag_225:\n      mload(0x40)\n      dup1\n      swap2\n      sub\n      swap1\n      revert\n        /* \"Kash_flattened.sol\":20713:20803  if (spender == address(0)) {... */\n    tag_224:\n        /* \"Kash_flattened.sol\":20842:20847  value */\n      dup2\n        /* \"Kash_flattened.sol\":20812:20823  _allowances */\n      0x01\n        /* \"Kash_flattened.sol\":20812:20830  _allowances[owner] */\n      0x00\n        /* \"Kash_flattened.sol\":20824:20829  owner */\n      dup7\n        /* \"Kash_flattened.sol\":20812:20830  _allowances[owner] */\n      0xffffffffffffffffffffffffffffffffffffffff\n      and\n      0xffffffffffffffffffffffffffffffffffffffff\n      and\n      dup2\n      mstore\n      0x20\n      add\n      swap1\n      dup2\n      mstore\n      0x20\n      add\n      0x00\n      keccak256\n        /* \"Kash_flattened.sol\":20812:20839  _allowances[owner][spender] */\n      0x00\n        /* \"Kash_flattened.sol\":20831:20838  spender */\n      dup6\n        /* \"Kash_flattened.sol\":20812:20839  _allowances[owner][spender] */\n      0xffffffffffffffffffffffffffffffffffffffff\n      and\n      0xffffffffffffffffffffffffffffffffffffffff\n      and\n      dup2\n      mstore\n      0x20\n      add\n      swap1\n      dup2\n      mstore\n      0x20\n      add\n      0x00\n      keccak256\n        /* \"Kash_flattened.sol\":20812:20847  _allowances[owner][spender] = value */\n      dup2\n      swap1\n      sstore\n      pop\n        /* \"Kash_flattened.sol\":20861:20870  emitEvent */\n      dup1\n        /* \"Kash_flattened.sol\":20857:20933  if (emitEvent) {... */\n      iszero\n      tag_226\n      jumpi\n        /* \"Kash_flattened.sol\":20907:20914  spender */\n      dup3\n        /* \"Kash_flattened.sol\":20891:20922  Approval(owner, spender, value) */\n      0xffffffffffffffffffffffffffffffffffffffff\n      and\n        /* \"Kash_flattened.sol\":20900:20905  owner */\n      dup5\n        /* \"Kash_flattened.sol\":20891:20922  Approval(owner, spender, value) */\n      0xffffffffffffffffffffffffffffffffffffffff\n      and\n      0x8c5be1e5ebec7d5bd14f71427d1e84f3dd0314c0f7b2291e5b200ac8c7c3b925\n        /* \"Kash_flattened.sol\":20916:20921  value */\n      dup5\n        /* \"Kash_flattened.sol\":20891:20922  Approval(owner, spender, value) */\n      mload(0x40)\n      tag_227\n      swap2\n      swap1\n      tag_49\n      jump\t// in\n    tag_227:\n      mload(0x40)\n      dup1\n      swap2\n      sub\n      swap1\n      log3\n        /* \"Kash_flattened.sol\":20857:20933  if (emitEvent) {... */\n    tag_226:\n        /* \"Kash_flattened.sol\":20507:20939  function _approve(address owner, address spender, uint256 value, bool emitEvent) internal virtual {... */\n      pop\n      pop\n      pop\n      pop\n      jump\t// out\n        /* \"Kash_flattened.sol\":27534:28395  function _update(address from, address to, uint256 val) internal override {... */\n    tag_215:\n        /* \"Kash_flattened.sol\":27686:27687  0 */\n      0x00\n        /* \"Kash_flattened.sol\":27670:27688  from == address(0) */\n      0xffffffffffffffffffffffffffffffffffffffff\n      and\n        /* \"Kash_flattened.sol\":27670:27674  from */\n      dup4\n        /* \"Kash_flattened.sol\":27670:27688  from == address(0) */\n      0xffffffffffffffffffffffffffffffffffffffff\n      and\n      eq\n        /* \"Kash_flattened.sol\":27670:27708  from == address(0) || to == address(0) */\n      dup1\n      tag_229\n      jumpi\n      pop\n        /* \"Kash_flattened.sol\":27706:27707  0 */\n      0x00\n        /* \"Kash_flattened.sol\":27692:27708  to == address(0) */\n      0xffffffffffffffffffffffffffffffffffffffff\n      and\n        /* \"Kash_flattened.sol\":27692:27694  to */\n      dup3\n        /* \"Kash_flattened.sol\":27692:27708  to == address(0) */\n      0xffffffffffffffffffffffffffffffffffffffff\n      and\n      eq\n        /* \"Kash_flattened.sol\":27670:27708  from == address(0) || to == address(0) */\n    tag_229:\n        /* \"Kash_flattened.sol\":27670:27726  from == address(0) || to == address(0) || excluded[from] */\n      dup1\n      tag_230\n      jumpi\n      pop\n        /* \"Kash_flattened.sol\":27712:27720  excluded */\n      0x09\n        /* \"Kash_flattened.sol\":27712:27726  excluded[from] */\n      0x00\n        /* \"Kash_flattened.sol\":27721:27725  from */\n      dup5\n        /* \"Kash_flattened.sol\":27712:27726  excluded[from] */\n      0xffffffffffffffffffffffffffffffffffffffff\n      and\n      0xffffffffffffffffffffffffffffffffffffffff\n      and\n      dup2\n      mstore\n      0x20\n      add\n      swap1\n      dup2\n      mstore\n      0x20\n      add\n      0x00\n      keccak256\n      0x00\n      swap1\n      sload\n      swap1\n      0x0100\n      exp\n      swap1\n      div\n      0xff\n      and\n        /* \"Kash_flattened.sol\":27670:27726  from == address(0) || to == address(0) || excluded[from] */\n    tag_230:\n        /* \"Kash_flattened.sol\":27670:27742  from == address(0) || to == address(0) || excluded[from] || excluded[to] */\n      dup1\n      tag_231\n      jumpi\n      pop\n        /* \"Kash_flattened.sol\":27730:27738  excluded */\n      0x09\n        /* \"Kash_flattened.sol\":27730:27742  excluded[to] */\n      0x00\n        /* \"Kash_flattened.sol\":27739:27741  to */\n      dup4\n        /* \"Kash_flattened.sol\":27730:27742  excluded[to] */\n      0xffffffffffffffffffffffffffffffffffffffff\n      and\n      0xffffffffffffffffffffffffffffffffffffffff\n      and\n      dup2\n      mstore\n      0x20\n      add\n      swap1\n      dup2\n      mstore\n      0x20\n      add\n      0x00\n      keccak256\n      0x00\n      swap1\n      sload\n      swap1\n      0x0100\n      exp\n      swap1\n      div\n      0xff\n      and\n        /* \"Kash_flattened.sol\":27670:27742  from == address(0) || to == address(0) || excluded[from] || excluded[to] */\n    tag_231:\n        /* \"Kash_flattened.sol\":27666:27817  if (from == address(0) || to == address(0) || excluded[from] || excluded[to]) {... */\n      iszero\n      tag_232\n      jumpi\n        /* \"Kash_flattened.sol\":27758:27786  super._update(from, to, val) */\n      tag_233\n        /* \"Kash_flattened.sol\":27772:27776  from */\n      dup4\n        /* \"Kash_flattened.sol\":27778:27780  to */\n      dup4\n        /* \"Kash_flattened.sol\":27782:27785  val */\n      dup4\n        /* \"Kash_flattened.sol\":27758:27771  super._update */\n      tag_234\n        /* \"Kash_flattened.sol\":27758:27786  super._update(from, to, val) */\n      jump\t// in\n    tag_233:\n        /* \"Kash_flattened.sol\":27800:27807  return; */\n      jump(tag_228)\n        /* \"Kash_flattened.sol\":27666:27817  if (from == address(0) || to == address(0) || excluded[from] || excluded[to]) {... */\n    tag_232:\n        /* \"Kash_flattened.sol\":27880:27891  tradingOpen */\n      0x07\n      0x00\n      swap1\n      sload\n      swap1\n      0x0100\n      exp\n      swap1\n      div\n      0xff\n      and\n        /* \"Kash_flattened.sol\":27875:27915  if (!tradingOpen) revert TradingClosed() */\n      tag_235\n      jumpi\n        /* \"Kash_flattened.sol\":27900:27915  TradingClosed() */\n      mload(0x40)\n      0xe2c865df00000000000000000000000000000000000000000000000000000000\n      dup2\n      mstore\n      0x04\n      add\n      mload(0x40)\n      dup1\n      swap2\n      sub\n      swap1\n      revert\n        /* \"Kash_flattened.sol\":27875:27915  if (!tradingOpen) revert TradingClosed() */\n    tag_235:\n        /* \"Kash_flattened.sol\":27929:27940  blacklisted */\n      0x08\n        /* \"Kash_flattened.sol\":27929:27946  blacklisted[from] */\n      0x00\n        /* \"Kash_flattened.sol\":27941:27945  from */\n      dup5\n        /* \"Kash_flattened.sol\":27929:27946  blacklisted[from] */\n      0xffffffffffffffffffffffffffffffffffffffff\n      and\n      0xffffffffffffffffffffffffffffffffffffffff\n      and\n      dup2\n      mstore\n      0x20\n      add\n      swap1\n      dup2\n      mstore\n      0x20\n      add\n      0x00\n      keccak256\n      0x00\n      swap1\n      sload\n      swap1\n      0x0100\n      exp\n      swap1\n      div\n      0xff\n      and\n        /* \"Kash_flattened.sol\":27929:27965  blacklisted[from] || blacklisted[to] */\n      dup1\n      tag_236\n      jumpi\n      pop\n        /* \"Kash_flattened.sol\":27950:27961  blacklisted */\n      0x08\n        /* \"Kash_flattened.sol\":27950:27965  blacklisted[to] */\n      0x00\n        /* \"Kash_flattened.sol\":27962:27964  to */\n      dup4\n        /* \"Kash_flattened.sol\":27950:27965  blacklisted[to] */\n      0xffffffffffffffffffffffffffffffffffffffff\n      and\n      0xffffffffffffffffffffffffffffffffffffffff\n      and\n      dup2\n      mstore\n      0x20\n      add\n      swap1\n      dup2\n      mstore\n      0x20\n      add\n      0x00\n      keccak256\n      0x00\n      swap1\n      sload\n      swap1\n      0x0100\n      exp\n      swap1\n      div\n      0xff\n      and\n        /* \"Kash_flattened.sol\":27929:27965  blacklisted[from] || blacklisted[to] */\n    tag_236:\n        /* \"Kash_flattened.sol\":27925:27987  if (blacklisted[from] || blacklisted[to]) revert Blacklisted() */\n      iszero\n      tag_237\n      jumpi\n        /* \"Kash_flattened.sol\":27974:27987  Blacklisted() */\n      mload(0x40)\n      0x09550c7700000000000000000000000000000000000000000000000000000000\n      dup2\n      mstore\n      0x04\n      add\n      mload(0x40)\n      dup1\n      swap2\n      sub\n      swap1\n      revert\n        /* \"Kash_flattened.sol\":27925:27987  if (blacklisted[from] || blacklisted[to]) revert Blacklisted() */\n    tag_237:\n        /* \"Kash_flattened.sol\":28063:28075  limitsActive */\n      0x07\n      0x01\n      swap1\n      sload\n      swap1\n      0x0100\n      exp\n      swap1\n      div\n      0xff\n      and\n        /* \"Kash_flattened.sol\":28059:28342  if (limitsActive) {... */\n      iszero\n      tag_238\n      jumpi\n        /* \"Kash_flattened.sol\":28091:28108  uint256 _maxLimit */\n      0x00\n        /* \"Kash_flattened.sol\":28111:28119  maxLimit */\n      sload(0x06)\n        /* \"Kash_flattened.sol\":28091:28119  uint256 _maxLimit = maxLimit */\n      swap1\n      pop\n        /* \"Kash_flattened.sol\":28178:28187  _maxLimit */\n      dup1\n        /* \"Kash_flattened.sol\":28172:28175  val */\n      dup3\n        /* \"Kash_flattened.sol\":28172:28187  val > _maxLimit */\n      gt\n        /* \"Kash_flattened.sol\":28168:28205  if (val > _maxLimit) revert TxLimit() */\n      iszero\n      tag_239\n      jumpi\n        /* \"Kash_flattened.sol\":28196:28205  TxLimit() */\n      mload(0x40)\n      0x8d35786200000000000000000000000000000000000000000000000000000000\n      dup2\n      mstore\n      0x04\n      add\n      mload(0x40)\n      dup1\n      swap2\n      sub\n      swap1\n      revert\n        /* \"Kash_flattened.sol\":28168:28205  if (val > _maxLimit) revert TxLimit() */\n    tag_239:\n        /* \"Kash_flattened.sol\":28286:28295  _maxLimit */\n      dup1\n        /* \"Kash_flattened.sol\":28280:28283  val */\n      dup3\n        /* \"Kash_flattened.sol\":28264:28277  balanceOf(to) */\n      tag_240\n        /* \"Kash_flattened.sol\":28274:28276  to */\n      dup6\n        /* \"Kash_flattened.sol\":28264:28273  balanceOf */\n      tag_84\n        /* \"Kash_flattened.sol\":28264:28277  balanceOf(to) */\n      jump\t// in\n    tag_240:\n        /* \"Kash_flattened.sol\":28264:28283  balanceOf(to) + val */\n      add\n        /* \"Kash_flattened.sol\":28264:28295  balanceOf(to) + val > _maxLimit */\n      gt\n        /* \"Kash_flattened.sol\":28260:28317  if (balanceOf(to) + val > _maxLimit) revert WalletLimit() */\n      iszero\n      tag_241\n      jumpi\n        /* \"Kash_flattened.sol\":28304:28317  WalletLimit() */\n      mload(0x40)\n      0x5426a58000000000000000000000000000000000000000000000000000000000\n      dup2\n      mstore\n      0x04\n      add\n      mload(0x40)\n      dup1\n      swap2\n      sub\n      swap1\n      revert\n        /* \"Kash_flattened.sol\":28260:28317  if (balanceOf(to) + val > _maxLimit) revert WalletLimit() */\n    tag_241:\n        /* \"Kash_flattened.sol\":28077:28342  {... */\n      pop\n        /* \"Kash_flattened.sol\":28059:28342  if (limitsActive) {... */\n    tag_238:\n        /* \"Kash_flattened.sol\":28360:28388  super._update(from, to, val) */\n      tag_242\n        /* \"Kash_flattened.sol\":28374:28378  from */\n      dup4\n        /* \"Kash_flattened.sol\":28380:28382  to */\n      dup4\n        /* \"Kash_flattened.sol\":28384:28387  val */\n      dup4\n        /* \"Kash_flattened.sol\":28360:28373  super._update */\n      tag_234\n        /* \"Kash_flattened.sol\":28360:28388  super._update(from, to, val) */\n      jump\t// in\n    tag_242:\n        /* \"Kash_flattened.sol\":27534:28395  function _update(address from, address to, uint256 val) internal override {... */\n    tag_228:\n      pop\n      pop\n      pop\n      jump\t// out\n        /* \"Kash_flattened.sol\":16814:17921  function _update(address from, address to, uint256 value) internal virtual {... */\n    tag_234:\n        /* \"Kash_flattened.sol\":16919:16920  0 */\n      0x00\n        /* \"Kash_flattened.sol\":16903:16921  from == address(0) */\n      0xffffffffffffffffffffffffffffffffffffffff\n      and\n        /* \"Kash_flattened.sol\":16903:16907  from */\n      dup4\n        /* \"Kash_flattened.sol\":16903:16921  from == address(0) */\n      0xffffffffffffffffffffffffffffffffffffffff\n      and\n      sub\n        /* \"Kash_flattened.sol\":16899:17439  if (from == address(0)) {... */\n      tag_244\n      jumpi\n        /* \"Kash_flattened.sol\":17055:17060  value */\n      dup1\n        /* \"Kash_flattened.sol\":17039:17051  _totalSupply */\n      0x02\n      0x00\n        /* \"Kash_flattened.sol\":17039:17060  _totalSupply += value */\n      dup3\n      dup3\n      sload\n      tag_245\n      swap2\n      swap1\n      tag_246\n      jump\t// in\n    tag_245:\n      swap3\n      pop\n      pop\n      dup2\n      swap1\n      sstore\n      pop\n        /* \"Kash_flattened.sol\":16899:17439  if (from == address(0)) {... */\n      jump(tag_247)\n    tag_244:\n        /* \"Kash_flattened.sol\":17091:17110  uint256 fromBalance */\n      0x00\n        /* \"Kash_flattened.sol\":17113:17122  _balances */\n      0x00\n        /* \"Kash_flattened.sol\":17113:17128  _balances[from] */\n      0x00\n        /* \"Kash_flattened.sol\":17123:17127  from */\n      dup6\n        /* \"Kash_flattened.sol\":17113:17128  _balances[from] */\n      0xffffffffffffffffffffffffffffffffffffffff\n      and\n      0xffffffffffffffffffffffffffffffffffffffff\n      and\n      dup2\n      mstore\n      0x20\n      add\n      swap1\n      dup2\n      mstore\n      0x20\n      add\n      0x00\n      keccak256\n      sload\n        /* \"Kash_flattened.sol\":17091:17128  uint256 fromBalance = _balances[from] */\n      swap1\n      pop\n        /* \"Kash_flattened.sol\":17160:17165  value */\n      dup2\n        /* \"Kash_flattened.sol\":17146:17157  fromBalance */\n      dup2\n        /* \"Kash_flattened.sol\":17146:17165  fromBalance < value */\n      lt\n        /* \"Kash_flattened.sol\":17142:17257  if (fromBalance < value) {... */\n      iszero\n      tag_248\n      jumpi\n        /* \"Kash_flattened.sol\":17217:17221  from */\n      dup4\n        /* \"Kash_flattened.sol\":17223:17234  fromBalance */\n      dup2\n        /* \"Kash_flattened.sol\":17236:17241  value */\n      dup4\n        /* \"Kash_flattened.sol\":17192:17242  ERC20InsufficientBalance(from, fromBalance, value) */\n      mload(0x40)\n      0xe450d38c00000000000000000000000000000000000000000000000000000000\n      dup2\n      mstore\n      0x04\n      add\n      tag_249\n      swap4\n      swap3\n      swap2\n      swap1\n      tag_207\n      jump\t// in\n    tag_249:\n      mload(0x40)\n      dup1\n      swap2\n      sub\n      swap1\n      revert\n        /* \"Kash_flattened.sol\":17142:17257  if (fromBalance < value) {... */\n    tag_248:\n        /* \"Kash_flattened.sol\":17409:17414  value */\n      dup2\n        /* \"Kash_flattened.sol\":17395:17406  fromBalance */\n      dup2\n        /* \"Kash_flattened.sol\":17395:17414  fromBalance - value */\n      sub\n        /* \"Kash_flattened.sol\":17377:17386  _balances */\n      0x00\n        /* \"Kash_flattened.sol\":17377:17392  _balances[from] */\n      0x00\n        /* \"Kash_flattened.sol\":17387:17391  from */\n      dup7\n        /* \"Kash_flattened.sol\":17377:17392  _balances[from] */\n      0xffffffffffffffffffffffffffffffffffffffff\n      and\n      0xffffffffffffffffffffffffffffffffffffffff\n      and\n      dup2\n      mstore\n      0x20\n      add\n      swap1\n      dup2\n      mstore\n      0x20\n      add\n      0x00\n      keccak256\n        /* \"Kash_flattened.sol\":17377:17414  _balances[from] = fromBalance - value */\n      dup2\n      swap1\n      sstore\n      pop\n        /* \"Kash_flattened.sol\":17077:17439  {... */\n      pop\n        /* \"Kash_flattened.sol\":16899:17439  if (from == address(0)) {... */\n    tag_247:\n        /* \"Kash_flattened.sol\":17467:17468  0 */\n      0x00\n        /* \"Kash_flattened.sol\":17453:17469  to == address(0) */\n      0xffffffffffffffffffffffffffffffffffffffff\n      and\n        /* \"Kash_flattened.sol\":17453:17455  to */\n      dup3\n        /* \"Kash_flattened.sol\":17453:17469  to == address(0) */\n      0xffffffffffffffffffffffffffffffffffffffff\n      and\n      sub\n        /* \"Kash_flattened.sol\":17449:17874  if (to == address(0)) {... */\n      tag_250\n      jumpi\n        /* \"Kash_flattened.sol\":17632:17637  value */\n      dup1\n        /* \"Kash_flattened.sol\":17616:17628  _totalSupply */\n      0x02\n      0x00\n        /* \"Kash_flattened.sol\":17616:17637  _totalSupply -= value */\n      dup3\n      dup3\n      sload\n      sub\n      swap3\n      pop\n      pop\n      dup2\n      swap1\n      sstore\n      pop\n        /* \"Kash_flattened.sol\":17449:17874  if (to == address(0)) {... */\n      jump(tag_251)\n    tag_250:\n        /* \"Kash_flattened.sol\":17844:17849  value */\n      dup1\n        /* \"Kash_flattened.sol\":17827:17836  _balances */\n      0x00\n        /* \"Kash_flattened.sol\":17827:17840  _balances[to] */\n      0x00\n        /* \"Kash_flattened.sol\":17837:17839  to */\n      dup5\n        /* \"Kash_flattened.sol\":17827:17840  _balances[to] */\n      0xffffffffffffffffffffffffffffffffffffffff\n      and\n      0xffffffffffffffffffffffffffffffffffffffff\n      and\n      dup2\n      mstore\n      0x20\n      add\n      swap1\n      dup2\n      mstore\n      0x20\n      add\n      0x00\n      keccak256\n      0x00\n        /* \"Kash_flattened.sol\":17827:17849  _balances[to] += value */\n      dup3\n      dup3\n      sload\n      add\n      swap3\n      pop\n      pop\n      dup2\n      swap1\n      sstore\n      pop\n        /* \"Kash_flattened.sol\":17449:17874  if (to == address(0)) {... */\n    tag_251:\n        /* \"Kash_flattened.sol\":17904:17906  to */\n      dup2\n        /* \"Kash_flattened.sol\":17889:17914  Transfer(from, to, value) */\n      0xffffffffffffffffffffffffffffffffffffffff\n      and\n        /* \"Kash_flattened.sol\":17898:17902  from */\n      dup4\n        /* \"Kash_flattened.sol\":17889:17914  Transfer(from, to, value) */\n      0xffffffffffffffffffffffffffffffffffffffff\n      and\n      0xddf252ad1be2c89b69c2b068fc378daa952ba7f163c4a11628f55a4df523b3ef\n        /* \"Kash_flattened.sol\":17908:17913  value */\n      dup4\n        /* \"Kash_flattened.sol\":17889:17914  Transfer(from, to, value) */\n      mload(0x40)\n      tag_252\n      swap2\n      swap1\n      tag_49\n      jump\t// in\n    tag_252:\n      mload(0x40)\n      dup1\n      swap2\n      sub\n      swap1\n      log3\n        /* \"Kash_flattened.sol\":16814:17921  function _update(address from, address to, uint256 value) internal virtual {... */\n      pop\n      pop\n      pop\n      jump\t// out\n        /* \"#utility.yul\":7:106   */\n    tag_253:\n        /* \"#utility.yul\":59:65   */\n      0x00\n        /* \"#utility.yul\":93:98   */\n      dup2\n        /* \"#utility.yul\":87:99   */\n      mload\n        /* \"#utility.yul\":77:99   */\n      swap1\n      pop\n        /* \"#utility.yul\":7:106   */\n      swap2\n      swap1\n      pop\n      jump\t// out\n        /* \"#utility.yul\":112:281   */\n    tag_254:\n        /* \"#utility.yul\":196:207   */\n      0x00\n        /* \"#utility.yul\":230:236   */\n      dup3\n        /* \"#utility.yul\":225:228   */\n      dup3\n        /* \"#utility.yul\":218:237   */\n      mstore\n        /* \"#utility.yul\":270:274   */\n      0x20\n        /* \"#utility.yul\":265:268   */\n      dup3\n        /* \"#utility.yul\":261:275   */\n      add\n        /* \"#utility.yul\":246:275   */\n      swap1\n      pop\n        /* \"#utility.yul\":112:281   */\n      swap3\n      swap2\n      pop\n      pop\n      jump\t// out\n        /* \"#utility.yul\":287:426   */\n    tag_255:\n        /* \"#utility.yul\":376:382   */\n      dup3\n        /* \"#utility.yul\":371:374   */\n      dup2\n        /* \"#utility.yul\":366:369   */\n      dup4\n        /* \"#utility.yul\":360:383   */\n      mcopy\n        /* \"#utility.yul\":417:418   */\n      0x00\n        /* \"#utility.yul\":408:414   */\n      dup4\n        /* \"#utility.yul\":403:406   */\n      dup4\n        /* \"#utility.yul\":399:415   */\n      add\n        /* \"#utility.yul\":392:419   */\n      mstore\n        /* \"#utility.yul\":287:426   */\n      pop\n      pop\n      pop\n      jump\t// out\n        /* \"#utility.yul\":432:534   */\n    tag_256:\n        /* \"#utility.yul\":473:479   */\n      0x00\n        /* \"#utility.yul\":524:526   */\n      0x1f\n        /* \"#utility.yul\":520:527   */\n      not\n        /* \"#utility.yul\":515:517   */\n      0x1f\n        /* \"#utility.yul\":508:513   */\n      dup4\n        /* \"#utility.yul\":504:518   */\n      add\n        /* \"#utility.yul\":500:528   */\n      and\n        /* \"#utility.yul\":490:528   */\n      swap1\n      pop\n        /* \"#utility.yul\":432:534   */\n      swap2\n      swap1\n      pop\n      jump\t// out\n        /* \"#utility.yul\":540:917   */\n    tag_257:\n        /* \"#utility.yul\":628:631   */\n      0x00\n        /* \"#utility.yul\":656:695   */\n      tag_284\n        /* \"#utility.yul\":689:694   */\n      dup3\n        /* \"#utility.yul\":656:695   */\n      tag_253\n      jump\t// in\n    tag_284:\n        /* \"#utility.yul\":711:782   */\n      tag_285\n        /* \"#utility.yul\":775:781   */\n      dup2\n        /* \"#utility.yul\":770:773   */\n      dup6\n        /* \"#utility.yul\":711:782   */\n      tag_254\n      jump\t// in\n    tag_285:\n        /* \"#utility.yul\":704:782   */\n      swap4\n      pop\n        /* \"#utility.yul\":791:856   */\n      tag_286\n        /* \"#utility.yul\":849:855   */\n      dup2\n        /* \"#utility.yul\":844:847   */\n      dup6\n        /* \"#utility.yul\":837:841   */\n      0x20\n        /* \"#utility.yul\":830:835   */\n      dup7\n        /* \"#utility.yul\":826:842   */\n      add\n        /* \"#utility.yul\":791:856   */\n      tag_255\n      jump\t// in\n    tag_286:\n        /* \"#utility.yul\":881:910   */\n      tag_287\n        /* \"#utility.yul\":903:909   */\n      dup2\n        /* \"#utility.yul\":881:910   */\n      tag_256\n      jump\t// in\n    tag_287:\n        /* \"#utility.yul\":876:879   */\n      dup5\n        /* \"#utility.yul\":872:911   */\n      add\n        /* \"#utility.yul\":865:911   */\n      swap2\n      pop\n        /* \"#utility.yul\":632:917   */\n      pop\n        /* \"#utility.yul\":540:917   */\n      swap3\n      swap2\n      pop\n      pop\n      jump\t// out\n        /* \"#utility.yul\":923:1236   */\n    tag_35:\n        /* \"#utility.yul\":1036:1040   */\n      0x00\n        /* \"#utility.yul\":1074:1076   */\n      0x20\n        /* \"#utility.yul\":1063:1072   */\n      dup3\n        /* \"#utility.yul\":1059:1077   */\n      add\n        /* \"#utility.yul\":1051:1077   */\n      swap1\n      pop\n        /* \"#utility.yul\":1123:1132   */\n      dup2\n        /* \"#utility.yul\":1117:1121   */\n      dup2\n        /* \"#utility.yul\":1113:1133   */\n      sub\n        /* \"#utility.yul\":1109:1110   */\n      0x00\n        /* \"#utility.yul\":1098:1107   */\n      dup4\n        /* \"#utility.yul\":1094:1111   */\n      add\n        /* \"#utility.yul\":1087:1134   */\n      mstore\n        /* \"#utility.yul\":1151:1229   */\n      tag_289\n        /* \"#utility.yul\":1224:1228   */\n      dup2\n        /* \"#utility.yul\":1215:1221   */\n      dup5\n        /* \"#utility.yul\":1151:1229   */\n      tag_257\n      jump\t// in\n    tag_289:\n        /* \"#utility.yul\":1143:1229   */\n      swap1\n      pop\n        /* \"#utility.yul\":923:1236   */\n      swap3\n      swap2\n      pop\n      pop\n      jump\t// out\n        /* \"#utility.yul\":1323:1440   */\n    tag_259:\n        /* \"#utility.yul\":1432:1433   */\n      0x00\n        /* \"#utility.yul\":1429:1430   */\n      0x00\n        /* \"#utility.yul\":1422:1434   */\n      revert\n        /* \"#utility.yul\":1569:1695   */\n    tag_261:\n        /* \"#utility.yul\":1606:1613   */\n      0x00\n        /* \"#utility.yul\":1646:1688   */\n      0xffffffffffffffffffffffffffffffffffffffff\n        /* \"#utility.yul\":1639:1644   */\n      dup3\n        /* \"#utility.yul\":1635:1689   */\n      and\n        /* \"#utility.yul\":1624:1689   */\n      swap1\n      pop\n        /* \"#utility.yul\":1569:1695   */\n      swap2\n      swap1\n      pop\n      jump\t// out\n        /* \"#utility.yul\":1701:1797   */\n    tag_262:\n        /* \"#utility.yul\":1738:1745   */\n      0x00\n        /* \"#utility.yul\":1767:1791   */\n      tag_295\n        /* \"#utility.yul\":1785:1790   */\n      dup3\n        /* \"#utility.yul\":1767:1791   */\n      tag_261\n      jump\t// in\n    tag_295:\n        /* \"#utility.yul\":1756:1791   */\n      swap1\n      pop\n        /* \"#utility.yul\":1701:1797   */\n      swap2\n      swap1\n      pop\n      jump\t// out\n        /* \"#utility.yul\":1803:1925   */\n    tag_263:\n        /* \"#utility.yul\":1876:1900   */\n      tag_297\n        /* \"#utility.yul\":1894:1899   */\n      dup2\n        /* \"#utility.yul\":1876:1900   */\n      tag_262\n      jump\t// in\n    tag_297:\n        /* \"#utility.yul\":1869:1874   */\n      dup2\n        /* \"#utility.yul\":1866:1901   */\n      eq\n        /* \"#utility.yul\":1856:1919   */\n      tag_298\n      jumpi\n        /* \"#utility.yul\":1915:1916   */\n      0x00\n        /* \"#utility.yul\":1912:1913   */\n      0x00\n        /* \"#utility.yul\":1905:1917   */\n      revert\n        /* \"#utility.yul\":1856:1919   */\n    tag_298:\n        /* \"#utility.yul\":1803:1925   */\n      pop\n      jump\t// out\n        /* \"#utility.yul\":1931:2070   */\n    tag_264:\n        /* \"#utility.yul\":1977:1982   */\n      0x00\n        /* \"#utility.yul\":2015:2021   */\n      dup2\n        /* \"#utility.yul\":2002:2022   */\n      calldataload\n        /* \"#utility.yul\":1993:2022   */\n      swap1\n      pop\n        /* \"#utility.yul\":2031:2064   */\n      tag_300\n        /* \"#utility.yul\":2058:2063   */\n      dup2\n        /* \"#utility.yul\":2031:2064   */\n      tag_263\n      jump\t// in\n    tag_300:\n        /* \"#utility.yul\":1931:2070   */\n      swap3\n      swap2\n      pop\n      pop\n      jump\t// out\n        /* \"#utility.yul\":2076:2153   */\n    tag_265:\n        /* \"#utility.yul\":2113:2120   */\n      0x00\n        /* \"#utility.yul\":2142:2147   */\n      dup2\n        /* \"#utility.yul\":2131:2147   */\n      swap1\n      pop\n        /* \"#utility.yul\":2076:2153   */\n      swap2\n      swap1\n      pop\n      jump\t// out\n        /* \"#utility.yul\":2159:2281   */\n    tag_266:\n        /* \"#utility.yul\":2232:2256   */\n      tag_303\n        /* \"#utility.yul\":2250:2255   */\n      dup2\n        /* \"#utility.yul\":2232:2256   */\n      tag_265\n      jump\t// in\n    tag_303:\n        /* \"#utility.yul\":2225:2230   */\n      dup2\n        /* \"#utility.yul\":2222:2257   */\n      eq\n        /* \"#utility.yul\":2212:2275   */\n      tag_304\n      jumpi\n        /* \"#utility.yul\":2271:2272   */\n      0x00\n        /* \"#utility.yul\":2268:2269   */\n      0x00\n        /* \"#utility.yul\":2261:2273   */\n      revert\n        /* \"#utility.yul\":2212:2275   */\n    tag_304:\n        /* \"#utility.yul\":2159:2281   */\n      pop\n      jump\t// out\n        /* \"#utility.yul\":2287:2426   */\n    tag_267:\n        /* \"#utility.yul\":2333:2338   */\n      0x00\n        /* \"#utility.yul\":2371:2377   */\n      dup2\n        /* \"#utility.yul\":2358:2378   */\n      calldataload\n        /* \"#utility.yul\":2349:2378   */\n      swap1\n      pop\n        /* \"#utility.yul\":2387:2420   */\n      tag_306\n        /* \"#utility.yul\":2414:2419   */\n      dup2\n        /* \"#utility.yul\":2387:2420   */\n      tag_266\n      jump\t// in\n    tag_306:\n        /* \"#utility.yul\":2287:2426   */\n      swap3\n      swap2\n      pop\n      pop\n      jump\t// out\n        /* \"#utility.yul\":2432:2906   */\n    tag_38:\n        /* \"#utility.yul\":2500:2506   */\n      0x00\n        /* \"#utility.yul\":2508:2514   */\n      0x00\n        /* \"#utility.yul\":2557:2559   */\n      0x40\n        /* \"#utility.yul\":2545:2554   */\n      dup4\n        /* \"#utility.yul\":2536:2543   */\n      dup6\n        /* \"#utility.yul\":2532:2555   */\n      sub\n        /* \"#utility.yul\":2528:2560   */\n      slt\n        /* \"#utility.yul\":2525:2644   */\n      iszero\n      tag_308\n      jumpi\n        /* \"#utility.yul\":2563:2642   */\n      tag_309\n      tag_259\n      jump\t// in\n    tag_309:\n        /* \"#utility.yul\":2525:2644   */\n    tag_308:\n        /* \"#utility.yul\":2683:2684   */\n      0x00\n        /* \"#utility.yul\":2708:2761   */\n      tag_310\n        /* \"#utility.yul\":2753:2760   */\n      dup6\n        /* \"#utility.yul\":2744:2750   */\n      dup3\n        /* \"#utility.yul\":2733:2742   */\n      dup7\n        /* \"#utility.yul\":2729:2751   */\n      add\n        /* \"#utility.yul\":2708:2761   */\n      tag_264\n      jump\t// in\n    tag_310:\n        /* \"#utility.yul\":2698:2761   */\n      swap3\n      pop\n        /* \"#utility.yul\":2654:2771   */\n      pop\n        /* \"#utility.yul\":2810:2812   */\n      0x20\n        /* \"#utility.yul\":2836:2889   */\n      tag_311\n        /* \"#utility.yul\":2881:2888   */\n      dup6\n        /* \"#utility.yul\":2872:2878   */\n      dup3\n        /* \"#utility.yul\":2861:2870   */\n      dup7\n        /* \"#utility.yul\":2857:2879   */\n      add\n        /* \"#utility.yul\":2836:2889   */\n      tag_267\n      jump\t// in\n    tag_311:\n        /* \"#utility.yul\":2826:2889   */\n      swap2\n      pop\n        /* \"#utility.yul\":2781:2899   */\n      pop\n        /* \"#utility.yul\":2432:2906   */\n      swap3\n      pop\n      swap3\n      swap1\n      pop\n      jump\t// out\n        /* \"#utility.yul\":2912:3002   */\n    tag_268:\n        /* \"#utility.yul\":2946:2953   */\n      0x00\n        /* \"#utility.yul\":2989:2994   */\n      dup2\n        /* \"#utility.yul\":2982:2995   */\n      iszero\n        /* \"#utility.yul\":2975:2996   */\n      iszero\n        /* \"#utility.yul\":2964:2996   */\n      swap1\n      pop\n        /* \"#utility.yul\":2912:3002   */\n      swap2\n      swap1\n      pop\n      jump\t// out\n        /* \"#utility.yul\":3008:3117   */\n    tag_269:\n        /* \"#utility.yul\":3089:3110   */\n      tag_314\n        /* \"#utility.yul\":3104:3109   */\n      dup2\n        /* \"#utility.yul\":3089:3110   */\n      tag_268\n      jump\t// in\n    tag_314:\n        /* \"#utility.yul\":3084:3087   */\n      dup3\n        /* \"#utility.yul\":3077:3111   */\n      mstore\n        /* \"#utility.yul\":3008:3117   */\n      pop\n      pop\n      jump\t// out\n        /* \"#utility.yul\":3123:3333   */\n    tag_41:\n        /* \"#utility.yul\":3210:3214   */\n      0x00\n        /* \"#utility.yul\":3248:3250   */\n      0x20\n        /* \"#utility.yul\":3237:3246   */\n      dup3\n        /* \"#utility.yul\":3233:3251   */\n      add\n        /* \"#utility.yul\":3225:3251   */\n      swap1\n      pop\n        /* \"#utility.yul\":3261:3326   */\n      tag_316\n        /* \"#utility.yul\":3323:3324   */\n      0x00\n        /* \"#utility.yul\":3312:3321   */\n      dup4\n        /* \"#utility.yul\":3308:3325   */\n      add\n        /* \"#utility.yul\":3299:3305   */\n      dup5\n        /* \"#utility.yul\":3261:3326   */\n      tag_269\n      jump\t// in\n    tag_316:\n        /* \"#utility.yul\":3123:3333   */\n      swap3\n      swap2\n      pop\n      pop\n      jump\t// out\n        /* \"#utility.yul\":3339:3455   */\n    tag_270:\n        /* \"#utility.yul\":3409:3430   */\n      tag_318\n        /* \"#utility.yul\":3424:3429   */\n      dup2\n        /* \"#utility.yul\":3409:3430   */\n      tag_268\n      jump\t// in\n    tag_318:\n        /* \"#utility.yul\":3402:3407   */\n      dup2\n        /* \"#utility.yul\":3399:3431   */\n      eq\n        /* \"#utility.yul\":3389:3449   */\n      tag_319\n      jumpi\n        /* \"#utility.yul\":3445:3446   */\n      0x00\n        /* \"#utility.yul\":3442:3443   */\n      0x00\n        /* \"#utility.yul\":3435:3447   */\n      revert\n        /* \"#utility.yul\":3389:3449   */\n    tag_319:\n        /* \"#utility.yul\":3339:3455   */\n      pop\n      jump\t// out\n        /* \"#utility.yul\":3461:3594   */\n    tag_271:\n        /* \"#utility.yul\":3504:3509   */\n      0x00\n        /* \"#utility.yul\":3542:3548   */\n      dup2\n        /* \"#utility.yul\":3529:3549   */\n      calldataload\n        /* \"#utility.yul\":3520:3549   */\n      swap1\n      pop\n        /* \"#utility.yul\":3558:3588   */\n      tag_321\n        /* \"#utility.yul\":3582:3587   */\n      dup2\n        /* \"#utility.yul\":3558:3588   */\n      tag_270\n      jump\t// in\n    tag_321:\n        /* \"#utility.yul\":3461:3594   */\n      swap3\n      swap2\n      pop\n      pop\n      jump\t// out\n        /* \"#utility.yul\":3600:4068   */\n    tag_44:\n        /* \"#utility.yul\":3665:3671   */\n      0x00\n        /* \"#utility.yul\":3673:3679   */\n      0x00\n        /* \"#utility.yul\":3722:3724   */\n      0x40\n        /* \"#utility.yul\":3710:3719   */\n      dup4\n        /* \"#utility.yul\":3701:3708   */\n      dup6\n        /* \"#utility.yul\":3697:3720   */\n      sub\n        /* \"#utility.yul\":3693:3725   */\n      slt\n        /* \"#utility.yul\":3690:3809   */\n      iszero\n      tag_323\n      jumpi\n        /* \"#utility.yul\":3728:3807   */\n      tag_324\n      tag_259\n      jump\t// in\n    tag_324:\n        /* \"#utility.yul\":3690:3809   */\n    tag_323:\n        /* \"#utility.yul\":3848:3849   */\n      0x00\n        /* \"#utility.yul\":3873:3926   */\n      tag_325\n        /* \"#utility.yul\":3918:3925   */\n      dup6\n        /* \"#utility.yul\":3909:3915   */\n      dup3\n        /* \"#utility.yul\":3898:3907   */\n      dup7\n        /* \"#utility.yul\":3894:3916   */\n      add\n        /* \"#utility.yul\":3873:3926   */\n      tag_264\n      jump\t// in\n    tag_325:\n        /* \"#utility.yul\":3863:3926   */\n      swap3\n      pop\n        /* \"#utility.yul\":3819:3936   */\n      pop\n        /* \"#utility.yul\":3975:3977   */\n      0x20\n        /* \"#utility.yul\":4001:4051   */\n      tag_326\n        /* \"#utility.yul\":4043:4050   */\n      dup6\n        /* \"#utility.yul\":4034:4040   */\n      dup3\n        /* \"#utility.yul\":4023:4032   */\n      dup7\n        /* \"#utility.yul\":4019:4041   */\n      add\n        /* \"#utility.yul\":4001:4051   */\n      tag_271\n      jump\t// in\n    tag_326:\n        /* \"#utility.yul\":3991:4051   */\n      swap2\n      pop\n        /* \"#utility.yul\":3946:4061   */\n      pop\n        /* \"#utility.yul\":3600:4068   */\n      swap3\n      pop\n      swap3\n      swap1\n      pop\n      jump\t// out\n        /* \"#utility.yul\":4074:4192   */\n    tag_272:\n        /* \"#utility.yul\":4161:4185   */\n      tag_328\n        /* \"#utility.yul\":4179:4184   */\n      dup2\n        /* \"#utility.yul\":4161:4185   */\n      tag_265\n      jump\t// in\n    tag_328:\n        /* \"#utility.yul\":4156:4159   */\n      dup3\n        /* \"#utility.yul\":4149:4186   */\n      mstore\n        /* \"#utility.yul\":4074:4192   */\n      pop\n      pop\n      jump\t// out\n        /* \"#utility.yul\":4198:4420   */\n    tag_49:\n        /* \"#utility.yul\":4291:4295   */\n      0x00\n        /* \"#utility.yul\":4329:4331   */\n      0x20\n        /* \"#utility.yul\":4318:4327   */\n      dup3\n        /* \"#utility.yul\":4314:4332   */\n      add\n        /* \"#utility.yul\":4306:4332   */\n      swap1\n      pop\n        /* \"#utility.yul\":4342:4413   */\n      tag_330\n        /* \"#utility.yul\":4410:4411   */\n      0x00\n        /* \"#utility.yul\":4399:4408   */\n      dup4\n        /* \"#utility.yul\":4395:4412   */\n      add\n        /* \"#utility.yul\":4386:4392   */\n      dup5\n        /* \"#utility.yul\":4342:4413   */\n      tag_272\n      jump\t// in\n    tag_330:\n        /* \"#utility.yul\":4198:4420   */\n      swap3\n      swap2\n      pop\n      pop\n      jump\t// out\n        /* \"#utility.yul\":4426:5045   */\n    tag_58:\n        /* \"#utility.yul\":4503:4509   */\n      0x00\n        /* \"#utility.yul\":4511:4517   */\n      0x00\n        /* \"#utility.yul\":4519:4525   */\n      0x00\n        /* \"#utility.yul\":4568:4570   */\n      0x60\n        /* \"#utility.yul\":4556:4565   */\n      dup5\n        /* \"#utility.yul\":4547:4554   */\n      dup7\n        /* \"#utility.yul\":4543:4566   */\n      sub\n        /* \"#utility.yul\":4539:4571   */\n      slt\n        /* \"#utility.yul\":4536:4655   */\n      iszero\n      tag_332\n      jumpi\n        /* \"#utility.yul\":4574:4653   */\n      tag_333\n      tag_259\n      jump\t// in\n    tag_333:\n        /* \"#utility.yul\":4536:4655   */\n    tag_332:\n        /* \"#utility.yul\":4694:4695   */\n      0x00\n        /* \"#utility.yul\":4719:4772   */\n      tag_334\n        /* \"#utility.yul\":4764:4771   */\n      dup7\n        /* \"#utility.yul\":4755:4761   */\n      dup3\n        /* \"#utility.yul\":4744:4753   */\n      dup8\n        /* \"#utility.yul\":4740:4762   */\n      add\n        /* \"#utility.yul\":4719:4772   */\n      tag_264\n      jump\t// in\n    tag_334:\n        /* \"#utility.yul\":4709:4772   */\n      swap4\n      pop\n        /* \"#utility.yul\":4665:4782   */\n      pop\n        /* \"#utility.yul\":4821:4823   */\n      0x20\n        /* \"#utility.yul\":4847:4900   */\n      tag_335\n        /* \"#utility.yul\":4892:4899   */\n      dup7\n        /* \"#utility.yul\":4883:4889   */\n      dup3\n        /* \"#utility.yul\":4872:4881   */\n      dup8\n        /* \"#utility.yul\":4868:4890   */\n      add\n        /* \"#utility.yul\":4847:4900   */\n      tag_264\n      jump\t// in\n    tag_335:\n        /* \"#utility.yul\":4837:4900   */\n      swap3\n      pop\n        /* \"#utility.yul\":4792:4910   */\n      pop\n        /* \"#utility.yul\":4949:4951   */\n      0x40\n        /* \"#utility.yul\":4975:5028   */\n      tag_336\n        /* \"#utility.yul\":5020:5027   */\n      dup7\n        /* \"#utility.yul\":5011:5017   */\n      dup3\n        /* \"#utility.yul\":5000:5009   */\n      dup8\n        /* \"#utility.yul\":4996:5018   */\n      add\n        /* \"#utility.yul\":4975:5028   */\n      tag_267\n      jump\t// in\n    tag_336:\n        /* \"#utility.yul\":4965:5028   */\n      swap2\n      pop\n        /* \"#utility.yul\":4920:5038   */\n      pop\n        /* \"#utility.yul\":4426:5045   */\n      swap3\n      pop\n      swap3\n      pop\n      swap3\n      jump\t// out\n        /* \"#utility.yul\":5051:5137   */\n    tag_273:\n        /* \"#utility.yul\":5086:5093   */\n      0x00\n        /* \"#utility.yul\":5126:5130   */\n      0xff\n        /* \"#utility.yul\":5119:5124   */\n      dup3\n        /* \"#utility.yul\":5115:5131   */\n      and\n        /* \"#utility.yul\":5104:5131   */\n      swap1\n      pop\n        /* \"#utility.yul\":5051:5137   */\n      swap2\n      swap1\n      pop\n      jump\t// out\n        /* \"#utility.yul\":5143:5255   */\n    tag_274:\n        /* \"#utility.yul\":5226:5248   */\n      tag_339\n        /* \"#utility.yul\":5242:5247   */\n      dup2\n        /* \"#utility.yul\":5226:5248   */\n      tag_273\n      jump\t// in\n    tag_339:\n        /* \"#utility.yul\":5221:5224   */\n      dup3\n        /* \"#utility.yul\":5214:5249   */\n      mstore\n        /* \"#utility.yul\":5143:5255   */\n      pop\n      pop\n      jump\t// out\n        /* \"#utility.yul\":5261:5475   */\n    tag_69:\n        /* \"#utility.yul\":5350:5354   */\n      0x00\n        /* \"#utility.yul\":5388:5390   */\n      0x20\n        /* \"#utility.yul\":5377:5386   */\n      dup3\n        /* \"#utility.yul\":5373:5391   */\n      add\n        /* \"#utility.yul\":5365:5391   */\n      swap1\n      pop\n        /* \"#utility.yul\":5401:5468   */\n      tag_341\n        /* \"#utility.yul\":5465:5466   */\n      0x00\n        /* \"#utility.yul\":5454:5463   */\n      dup4\n        /* \"#utility.yul\":5450:5467   */\n      add\n        /* \"#utility.yul\":5441:5447   */\n      dup5\n        /* \"#utility.yul\":5401:5468   */\n      tag_274\n      jump\t// in\n    tag_341:\n        /* \"#utility.yul\":5261:5475   */\n      swap3\n      swap2\n      pop\n      pop\n      jump\t// out\n        /* \"#utility.yul\":5481:5810   */\n    tag_75:\n        /* \"#utility.yul\":5540:5546   */\n      0x00\n        /* \"#utility.yul\":5589:5591   */\n      0x20\n        /* \"#utility.yul\":5577:5586   */\n      dup3\n        /* \"#utility.yul\":5568:5575   */\n      dup5\n        /* \"#utility.yul\":5564:5587   */\n      sub\n        /* \"#utility.yul\":5560:5592   */\n      slt\n        /* \"#utility.yul\":5557:5676   */\n      iszero\n      tag_343\n      jumpi\n        /* \"#utility.yul\":5595:5674   */\n      tag_344\n      tag_259\n      jump\t// in\n    tag_344:\n        /* \"#utility.yul\":5557:5676   */\n    tag_343:\n        /* \"#utility.yul\":5715:5716   */\n      0x00\n        /* \"#utility.yul\":5740:5793   */\n      tag_345\n        /* \"#utility.yul\":5785:5792   */\n      dup5\n        /* \"#utility.yul\":5776:5782   */\n      dup3\n        /* \"#utility.yul\":5765:5774   */\n      dup6\n        /* \"#utility.yul\":5761:5783   */\n      add\n        /* \"#utility.yul\":5740:5793   */\n      tag_267\n      jump\t// in\n    tag_345:\n        /* \"#utility.yul\":5730:5793   */\n      swap2\n      pop\n        /* \"#utility.yul\":5686:5803   */\n      pop\n        /* \"#utility.yul\":5481:5810   */\n      swap3\n      swap2\n      pop\n      pop\n      jump\t// out\n        /* \"#utility.yul\":5816:6145   */\n    tag_79:\n        /* \"#utility.yul\":5875:5881   */\n      0x00\n        /* \"#utility.yul\":5924:5926   */\n      0x20\n        /* \"#utility.yul\":5912:5921   */\n      dup3\n        /* \"#utility.yul\":5903:5910   */\n      dup5\n        /* \"#utility.yul\":5899:5922   */\n      sub\n        /* \"#utility.yul\":5895:5927   */\n      slt\n        /* \"#utility.yul\":5892:6011   */\n      iszero\n      tag_347\n      jumpi\n        /* \"#utility.yul\":5930:6009   */\n      tag_348\n      tag_259\n      jump\t// in\n    tag_348:\n        /* \"#utility.yul\":5892:6011   */\n    tag_347:\n        /* \"#utility.yul\":6050:6051   */\n      0x00\n        /* \"#utility.yul\":6075:6128   */\n      tag_349\n        /* \"#utility.yul\":6120:6127   */\n      dup5\n        /* \"#utility.yul\":6111:6117   */\n      dup3\n        /* \"#utility.yul\":6100:6109   */\n      dup6\n        /* \"#utility.yul\":6096:6118   */\n      add\n        /* \"#utility.yul\":6075:6128   */\n      tag_264\n      jump\t// in\n    tag_349:\n        /* \"#utility.yul\":6065:6128   */\n      swap2\n      pop\n        /* \"#utility.yul\":6021:6138   */\n      pop\n        /* \"#utility.yul\":5816:6145   */\n      swap3\n      swap2\n      pop\n      pop\n      jump\t// out\n        /* \"#utility.yul\":6151:6269   */\n    tag_275:\n        /* \"#utility.yul\":6238:6262   */\n      tag_351\n        /* \"#utility.yul\":6256:6261   */\n      dup2\n        /* \"#utility.yul\":6238:6262   */\n      tag_262\n      jump\t// in\n    tag_351:\n        /* \"#utility.yul\":6233:6236   */\n      dup3\n        /* \"#utility.yul\":6226:6263   */\n      mstore\n        /* \"#utility.yul\":6151:6269   */\n      pop\n      pop\n      jump\t// out\n        /* \"#utility.yul\":6275:6497   */\n    tag_96:\n        /* \"#utility.yul\":6368:6372   */\n      0x00\n        /* \"#utility.yul\":6406:6408   */\n      0x20\n        /* \"#utility.yul\":6395:6404   */\n      dup3\n        /* \"#utility.yul\":6391:6409   */\n      add\n        /* \"#utility.yul\":6383:6409   */\n      swap1\n      pop\n        /* \"#utility.yul\":6419:6490   */\n      tag_353\n        /* \"#utility.yul\":6487:6488   */\n      0x00\n        /* \"#utility.yul\":6476:6485   */\n      dup4\n        /* \"#utility.yul\":6472:6489   */\n      add\n        /* \"#utility.yul\":6463:6469   */\n      dup5\n        /* \"#utility.yul\":6419:6490   */\n      tag_275\n      jump\t// in\n    tag_353:\n        /* \"#utility.yul\":6275:6497   */\n      swap3\n      swap2\n      pop\n      pop\n      jump\t// out\n        /* \"#utility.yul\":6503:6977   */\n    tag_113:\n        /* \"#utility.yul\":6571:6577   */\n      0x00\n        /* \"#utility.yul\":6579:6585   */\n      0x00\n        /* \"#utility.yul\":6628:6630   */\n      0x40\n        /* \"#utility.yul\":6616:6625   */\n      dup4\n        /* \"#utility.yul\":6607:6614   */\n      dup6\n        /* \"#utility.yul\":6603:6626   */\n      sub\n        /* \"#utility.yul\":6599:6631   */\n      slt\n        /* \"#utility.yul\":6596:6715   */\n      iszero\n      tag_355\n      jumpi\n        /* \"#utility.yul\":6634:6713   */\n      tag_356\n      tag_259\n      jump\t// in\n    tag_356:\n        /* \"#utility.yul\":6596:6715   */\n    tag_355:\n        /* \"#utility.yul\":6754:6755   */\n      0x00\n        /* \"#utility.yul\":6779:6832   */\n      tag_357\n        /* \"#utility.yul\":6824:6831   */\n      dup6\n        /* \"#utility.yul\":6815:6821   */\n      dup3\n        /* \"#utility.yul\":6804:6813   */\n      dup7\n        /* \"#utility.yul\":6800:6822   */\n      add\n        /* \"#utility.yul\":6779:6832   */\n      tag_264\n      jump\t// in\n    tag_357:\n        /* \"#utility.yul\":6769:6832   */\n      swap3\n      pop\n        /* \"#utility.yul\":6725:6842   */\n      pop\n        /* \"#utility.yul\":6881:6883   */\n      0x20\n        /* \"#utility.yul\":6907:6960   */\n      tag_358\n        /* \"#utility.yul\":6952:6959   */\n      dup6\n        /* \"#utility.yul\":6943:6949   */\n      dup3\n        /* \"#utility.yul\":6932:6941   */\n      dup7\n        /* \"#utility.yul\":6928:6950   */\n      add\n        /* \"#utility.yul\":6907:6960   */\n      tag_264\n      jump\t// in\n    tag_358:\n        /* \"#utility.yul\":6897:6960   */\n      swap2\n      pop\n        /* \"#utility.yul\":6852:6970   */\n      pop\n        /* \"#utility.yul\":6503:6977   */\n      swap3\n      pop\n      swap3\n      swap1\n      pop\n      jump\t// out\n        /* \"#utility.yul\":6983:7163   */\n    tag_276:\n        /* \"#utility.yul\":7031:7108   */\n      0x4e487b7100000000000000000000000000000000000000000000000000000000\n        /* \"#utility.yul\":7028:7029   */\n      0x00\n        /* \"#utility.yul\":7021:7109   */\n      mstore\n        /* \"#utility.yul\":7128:7132   */\n      0x22\n        /* \"#utility.yul\":7125:7126   */\n      0x04\n        /* \"#utility.yul\":7118:7133   */\n      mstore\n        /* \"#utility.yul\":7152:7156   */\n      0x24\n        /* \"#utility.yul\":7149:7150   */\n      0x00\n        /* \"#utility.yul\":7142:7157   */\n      revert\n        /* \"#utility.yul\":7169:7489   */\n    tag_124:\n        /* \"#utility.yul\":7213:7219   */\n      0x00\n        /* \"#utility.yul\":7250:7251   */\n      0x02\n        /* \"#utility.yul\":7244:7248   */\n      dup3\n        /* \"#utility.yul\":7240:7252   */\n      div\n        /* \"#utility.yul\":7230:7252   */\n      swap1\n      pop\n        /* \"#utility.yul\":7297:7298   */\n      0x01\n        /* \"#utility.yul\":7291:7295   */\n      dup3\n        /* \"#utility.yul\":7287:7299   */\n      and\n        /* \"#utility.yul\":7318:7336   */\n      dup1\n        /* \"#utility.yul\":7308:7389   */\n      tag_361\n      jumpi\n        /* \"#utility.yul\":7374:7378   */\n      0x7f\n        /* \"#utility.yul\":7366:7372   */\n      dup3\n        /* \"#utility.yul\":7362:7379   */\n      and\n        /* \"#utility.yul\":7352:7379   */\n      swap2\n      pop\n        /* \"#utility.yul\":7308:7389   */\n    tag_361:\n        /* \"#utility.yul\":7436:7438   */\n      0x20\n        /* \"#utility.yul\":7428:7434   */\n      dup3\n        /* \"#utility.yul\":7425:7439   */\n      lt\n        /* \"#utility.yul\":7405:7423   */\n      dup2\n        /* \"#utility.yul\":7402:7440   */\n      sub\n        /* \"#utility.yul\":7399:7483   */\n      tag_362\n      jumpi\n        /* \"#utility.yul\":7455:7473   */\n      tag_363\n      tag_276\n      jump\t// in\n    tag_363:\n        /* \"#utility.yul\":7399:7483   */\n    tag_362:\n        /* \"#utility.yul\":7220:7489   */\n      pop\n        /* \"#utility.yul\":7169:7489   */\n      swap2\n      swap1\n      pop\n      jump\t// out\n        /* \"#utility.yul\":7495:7675   */\n    tag_277:\n        /* \"#utility.yul\":7543:7620   */\n      0x4e487b7100000000000000000000000000000000000000000000000000000000\n        /* \"#utility.yul\":7540:7541   */\n      0x00\n        /* \"#utility.yul\":7533:7621   */\n      mstore\n        /* \"#utility.yul\":7640:7644   */\n      0x11\n        /* \"#utility.yul\":7637:7638   */\n      0x04\n        /* \"#utility.yul\":7630:7645   */\n      mstore\n        /* \"#utility.yul\":7664:7668   */\n      0x24\n        /* \"#utility.yul\":7661:7662   */\n      0x00\n        /* \"#utility.yul\":7654:7669   */\n      revert\n        /* \"#utility.yul\":7681:8091   */\n    tag_184:\n        /* \"#utility.yul\":7721:7728   */\n      0x00\n        /* \"#utility.yul\":7744:7764   */\n      tag_366\n        /* \"#utility.yul\":7762:7763   */\n      dup3\n        /* \"#utility.yul\":7744:7764   */\n      tag_265\n      jump\t// in\n    tag_366:\n        /* \"#utility.yul\":7739:7764   */\n      swap2\n      pop\n        /* \"#utility.yul\":7778:7798   */\n      tag_367\n        /* \"#utility.yul\":7796:7797   */\n      dup4\n        /* \"#utility.yul\":7778:7798   */\n      tag_265\n      jump\t// in\n    tag_367:\n        /* \"#utility.yul\":7773:7798   */\n      swap3\n      pop\n        /* \"#utility.yul\":7833:7834   */\n      dup3\n        /* \"#utility.yul\":7830:7831   */\n      dup3\n        /* \"#utility.yul\":7826:7835   */\n      mul\n        /* \"#utility.yul\":7855:7885   */\n      tag_368\n        /* \"#utility.yul\":7873:7884   */\n      dup2\n        /* \"#utility.yul\":7855:7885   */\n      tag_265\n      jump\t// in\n    tag_368:\n        /* \"#utility.yul\":7844:7885   */\n      swap2\n      pop\n        /* \"#utility.yul\":8034:8035   */\n      dup3\n        /* \"#utility.yul\":8025:8032   */\n      dup3\n        /* \"#utility.yul\":8021:8036   */\n      div\n        /* \"#utility.yul\":8018:8019   */\n      dup5\n        /* \"#utility.yul\":8015:8037   */\n      eq\n        /* \"#utility.yul\":7995:7996   */\n      dup4\n        /* \"#utility.yul\":7988:7997   */\n      iszero\n        /* \"#utility.yul\":7968:8051   */\n      or\n        /* \"#utility.yul\":7945:8084   */\n      tag_369\n      jumpi\n        /* \"#utility.yul\":8064:8082   */\n      tag_370\n      tag_277\n      jump\t// in\n    tag_370:\n        /* \"#utility.yul\":7945:8084   */\n    tag_369:\n        /* \"#utility.yul\":7729:8091   */\n      pop\n        /* \"#utility.yul\":7681:8091   */\n      swap3\n      swap2\n      pop\n      pop\n      jump\t// out\n        /* \"#utility.yul\":8097:8539   */\n    tag_207:\n        /* \"#utility.yul\":8246:8250   */\n      0x00\n        /* \"#utility.yul\":8284:8286   */\n      0x60\n        /* \"#utility.yul\":8273:8282   */\n      dup3\n        /* \"#utility.yul\":8269:8287   */\n      add\n        /* \"#utility.yul\":8261:8287   */\n      swap1\n      pop\n        /* \"#utility.yul\":8297:8368   */\n      tag_372\n        /* \"#utility.yul\":8365:8366   */\n      0x00\n        /* \"#utility.yul\":8354:8363   */\n      dup4\n        /* \"#utility.yul\":8350:8367   */\n      add\n        /* \"#utility.yul\":8341:8347   */\n      dup7\n        /* \"#utility.yul\":8297:8368   */\n      tag_275\n      jump\t// in\n    tag_372:\n        /* \"#utility.yul\":8378:8450   */\n      tag_373\n        /* \"#utility.yul\":8446:8448   */\n      0x20\n        /* \"#utility.yul\":8435:8444   */\n      dup4\n        /* \"#utility.yul\":8431:8449   */\n      add\n        /* \"#utility.yul\":8422:8428   */\n      dup6\n        /* \"#utility.yul\":8378:8450   */\n      tag_272\n      jump\t// in\n    tag_373:\n        /* \"#utility.yul\":8460:8532   */\n      tag_374\n        /* \"#utility.yul\":8528:8530   */\n      0x40\n        /* \"#utility.yul\":8517:8526   */\n      dup4\n        /* \"#utility.yul\":8513:8531   */\n      add\n        /* \"#utility.yul\":8504:8510   */\n      dup5\n        /* \"#utility.yul\":8460:8532   */\n      tag_272\n      jump\t// in\n    tag_374:\n        /* \"#utility.yul\":8097:8539   */\n      swap5\n      swap4\n      pop\n      pop\n      pop\n      pop\n      jump\t// out\n        /* \"#utility.yul\":8545:8736   */\n    tag_246:\n        /* \"#utility.yul\":8585:8588   */\n      0x00\n        /* \"#utility.yul\":8604:8624   */\n      tag_376\n        /* \"#utility.yul\":8622:8623   */\n      dup3\n        /* \"#utility.yul\":8604:8624   */\n      tag_265\n      jump\t// in\n    tag_376:\n        /* \"#utility.yul\":8599:8624   */\n      swap2\n      pop\n        /* \"#utility.yul\":8638:8658   */\n      tag_377\n        /* \"#utility.yul\":8656:8657   */\n      dup4\n        /* \"#utility.yul\":8638:8658   */\n      tag_265\n      jump\t// in\n    tag_377:\n        /* \"#utility.yul\":8633:8658   */\n      swap3\n      pop\n        /* \"#utility.yul\":8681:8682   */\n      dup3\n        /* \"#utility.yul\":8678:8679   */\n      dup3\n        /* \"#utility.yul\":8674:8683   */\n      add\n        /* \"#utility.yul\":8667:8683   */\n      swap1\n      pop\n        /* \"#utility.yul\":8702:8705   */\n      dup1\n        /* \"#utility.yul\":8699:8700   */\n      dup3\n        /* \"#utility.yul\":8696:8706   */\n      gt\n        /* \"#utility.yul\":8693:8729   */\n      iszero\n      tag_378\n      jumpi\n        /* \"#utility.yul\":8709:8727   */\n      tag_379\n      tag_277\n      jump\t// in\n    tag_379:\n        /* \"#utility.yul\":8693:8729   */\n    tag_378:\n        /* \"#utility.yul\":8545:8736   */\n      swap3\n      swap2\n      pop\n      pop\n      jump\t// out\n\n    auxdata: 0xa2646970667358221220db7f8069888af00347e969aeba857ef80484ab718313a9a135f08dd6a4387caa64736f6c63430008210033\n}\n",
				"bytecode": {
					"linkReferences": {},
					"object": "6080604052691605d9ee9862710000006006556001600760016101000a81548160ff021916908315150217905550348015610038575f5ffd5b50336040518060400160405280600481526020017f4b617368000000000000000000000000000000000000000000000000000000008152506040518060400160405280600481526020017f4b4153480000000000000000000000000000000000000000000000000000000081525081600390816100b59190610af7565b5080600490816100c59190610af7565b5050505f73ffffffffffffffffffffffffffffffffffffffff168173ffffffffffffffffffffffffffffffffffffffff1603610138575f6040517f1e4fbdf700000000000000000000000000000000000000000000000000000000815260040161012f9190610c05565b60405180910390fd5b6101478161021260201b60201c565b50600160095f3373ffffffffffffffffffffffffffffffffffffffff1673ffffffffffffffffffffffffffffffffffffffff1681526020019081526020015f205f6101000a81548160ff021916908315150217905550600160095f3073ffffffffffffffffffffffffffffffffffffffff1673ffffffffffffffffffffffffffffffffffffffff1681526020019081526020015f205f6101000a81548160ff02191690831515021790555061020d336a2b036da601a044b40000006102d560201b60201c565b610cdb565b5f60055f9054906101000a900473ffffffffffffffffffffffffffffffffffffffff1690508160055f6101000a81548173ffffffffffffffffffffffffffffffffffffffff021916908373ffffffffffffffffffffffffffffffffffffffff1602179055508173ffffffffffffffffffffffffffffffffffffffff168173ffffffffffffffffffffffffffffffffffffffff167f8be0079c531659141344cd1fd0a4f28419497f9722a3daafe3b4186f6b6457e060405160405180910390a35050565b5f73ffffffffffffffffffffffffffffffffffffffff168273ffffffffffffffffffffffffffffffffffffffff1603610345575f6040517fec442f0500000000000000000000000000000000000000000000000000000000815260040161033c9190610c05565b60405180910390fd5b6103565f838361035a60201b60201c565b5050565b5f73ffffffffffffffffffffffffffffffffffffffff168373ffffffffffffffffffffffffffffffffffffffff1614806103bf57505f73ffffffffffffffffffffffffffffffffffffffff168273ffffffffffffffffffffffffffffffffffffffff16145b80610410575060095f8473ffffffffffffffffffffffffffffffffffffffff1673ffffffffffffffffffffffffffffffffffffffff1681526020019081526020015f205f9054906101000a900460ff165b80610461575060095f8373ffffffffffffffffffffffffffffffffffffffff1673ffffffffffffffffffffffffffffffffffffffff1681526020019081526020015f205f9054906101000a900460ff165b1561047c5761047783838361064b60201b60201c565b610646565b60075f9054906101000a900460ff166104c1576040517fe2c865df00000000000000000000000000000000000000000000000000000000815260040160405180910390fd5b60085f8473ffffffffffffffffffffffffffffffffffffffff1673ffffffffffffffffffffffffffffffffffffffff1681526020019081526020015f205f9054906101000a900460ff168061055c575060085f8373ffffffffffffffffffffffffffffffffffffffff1673ffffffffffffffffffffffffffffffffffffffff1681526020019081526020015f205f9054906101000a900460ff165b15610593576040517f09550c7700000000000000000000000000000000000000000000000000000000815260040160405180910390fd5b600760019054906101000a900460ff1615610634575f6006549050808211156105e8576040517f8d35786200000000000000000000000000000000000000000000000000000000815260040160405180910390fd5b80826105f98561086460201b60201c565b011115610632576040517f5426a58000000000000000000000000000000000000000000000000000000000815260040160405180910390fd5b505b61064583838361064b60201b60201c565b5b505050565b5f73ffffffffffffffffffffffffffffffffffffffff168373ffffffffffffffffffffffffffffffffffffffff160361069b578060025f82825461068f9190610c4b565b92505081905550610769565b5f5f5f8573ffffffffffffffffffffffffffffffffffffffff1673ffffffffffffffffffffffffffffffffffffffff1681526020019081526020015f2054905081811015610724578381836040517fe450d38c00000000000000000000000000000000000000000000000000000000815260040161071b93929190610c8d565b60405180910390fd5b8181035f5f8673ffffffffffffffffffffffffffffffffffffffff1673ffffffffffffffffffffffffffffffffffffffff1681526020019081526020015f2081905550505b5f73ffffffffffffffffffffffffffffffffffffffff168273ffffffffffffffffffffffffffffffffffffffff16036107b0578060025f82825403925050819055506107fa565b805f5f8473ffffffffffffffffffffffffffffffffffffffff1673ffffffffffffffffffffffffffffffffffffffff1681526020019081526020015f205f82825401925050819055505b8173ffffffffffffffffffffffffffffffffffffffff168373ffffffffffffffffffffffffffffffffffffffff167fddf252ad1be2c89b69c2b068fc378daa952ba7f163c4a11628f55a4df523b3ef836040516108579190610cc2565b60405180910390a3505050565b5f5f5f8373ffffffffffffffffffffffffffffffffffffffff1673ffffffffffffffffffffffffffffffffffffffff1681526020019081526020015f20549050919050565b5f81519050919050565b7f4e487b71000000000000000000000000000000000000000000000000000000005f52604160045260245ffd5b7f4e487b71000000000000000000000000000000000000000000000000000000005f52602260045260245ffd5b5f600282049050600182168061092457607f821691505b602082108103610937576109366108e0565b5b50919050565b5f819050815f5260205f209050919050565b5f6020601f8301049050919050565b5f82821b905092915050565b5f600883026109997fffffffffffffffffffffffffffffffffffffffffffffffffffffffffffffffff8261095e565b6109a3868361095e565b95508019841693508086168417925050509392505050565b5f819050919050565b5f819050919050565b5f6109e76109e26109dd846109bb565b6109c4565b6109bb565b9050919050565b5f819050919050565b610a00836109cd565b610a14610a0c826109ee565b84845461096a565b825550505050565b5f5f905090565b610a2b610a1c565b610a368184846109f7565b505050565b5f5b82811015610a5c57610a515f828401610a23565b600181019050610a3d565b505050565b601f821115610aaf5782821115610aae57610a7b8161093d565b610a848361094f565b610a8d8561094f565b6020861015610a9a575f90505b808301610aa982840382610a3b565b505050505b5b505050565b5f82821c905092915050565b5f610acf5f1984600802610ab4565b1980831691505092915050565b5f610ae78383610ac0565b9150826002028217905092915050565b610b00826108a9565b67ffffffffffffffff811115610b1957610b186108b3565b5b610b23825461090d565b610b2e828285610a61565b5f60209050601f831160018114610b5f575f8415610b4d578287015190505b610b578582610adc565b865550610bbe565b601f198416610b6d8661093d565b5f5b82811015610b9457848901518255600182019150602085019450602081019050610b6f565b86831015610bb15784890151610bad601f891682610ac0565b8355505b6001600288020188555050505b505050505050565b5f73ffffffffffffffffffffffffffffffffffffffff82169050919050565b5f610bef82610bc6565b9050919050565b610bff81610be5565b82525050565b5f602082019050610c185f830184610bf6565b92915050565b7f4e487b71000000000000000000000000000000000000000000000000000000005f52601160045260245ffd5b5f610c55826109bb565b9150610c60836109bb565b9250828201905080821115610c7857610c77610c1e565b5b92915050565b610c87816109bb565b82525050565b5f606082019050610ca05f830186610bf6565b610cad6020830185610c7e565b610cba6040830184610c7e565b949350505050565b5f602082019050610cd55f830184610c7e565b92915050565b6118d480610ce85f395ff3fe608060405234801561000f575f5ffd5b5060043610610171575f3560e01c8063429cead1116100dc57806395d89b4111610095578063dbac26e91161006f578063dbac26e9146103ff578063dd62ed3e1461042f578063f2fde38b1461045f578063ffb54a991461047b57610171565b806395d89b4114610395578063a9059cbb146103b3578063bf8bcee4146103e357610171565b8063429cead1146102e757806370a0823114610317578063715018a614610347578063751039fc1461035157806379cc67901461035b5780638da5cb5b1461037757610171565b806323b872dd1161012e57806323b872dd146102395780632836be2414610269578063293230b814610285578063313ce5671461028f57806332cb6b0c146102ad57806342966c68146102cb57610171565b806306fdde0314610175578063095ea7b314610193578063153b0d1e146101c357806318160ddd146101df5780631a861d26146101fd5780631cce34ee1461021b575b5f5ffd5b61017d610499565b60405161018a9190611479565b60405180910390f35b6101ad60048036038101906101a8919061152a565b610529565b6040516101ba9190611582565b60405180910390f35b6101dd60048036038101906101d891906115c5565b61054b565b005b6101e76105ab565b6040516101f49190611612565b60405180910390f35b6102056105b4565b6040516102129190611612565b60405180910390f35b6102236105ba565b6040516102309190611582565b60405180910390f35b610253600480360381019061024e919061162b565b6105cd565b6040516102609190611582565b60405180910390f35b610283600480360381019061027e91906115c5565b6105fb565b005b61028d61065b565b005b61029761067f565b6040516102a49190611696565b60405180910390f35b6102b5610687565b6040516102c29190611612565b60405180910390f35b6102e560048036038101906102e091906116af565b610696565b005b61030160048036038101906102fc91906116da565b6106aa565b60405161030e9190611582565b60405180910390f35b610331600480360381019061032c91906116da565b6106c7565b60405161033e9190611612565b60405180910390f35b61034f61070c565b005b61035961071f565b005b6103756004803603810190610370919061152a565b610743565b005b61037f610763565b60405161038c9190611714565b60405180910390f35b61039d61078b565b6040516103aa9190611479565b60405180910390f35b6103cd60048036038101906103c8919061152a565b61081b565b6040516103da9190611582565b60405180910390f35b6103fd60048036038101906103f891906116af565b61083d565b005b610419600480360381019061041491906116da565b6108a8565b6040516104269190611582565b60405180910390f35b6104496004803603810190610444919061172d565b6108c5565b6040516104569190611612565b60405180910390f35b610479600480360381019061047491906116da565b610947565b005b6104836109cb565b6040516104909190611582565b60405180910390f35b6060600380546104a890611798565b80601f01602080910402602001604051908101604052809291908181526020018280546104d490611798565b801561051f5780601f106104f65761010080835404028352916020019161051f565b820191905f5260205f20905b81548152906001019060200180831161050257829003601f168201915b5050505050905090565b5f5f6105336109dd565b90506105408185856109e4565b600191505092915050565b6105536109f6565b8060085f8473ffffffffffffffffffffffffffffffffffffffff1673ffffffffffffffffffffffffffffffffffffffff1681526020019081526020015f205f6101000a81548160ff0219169083151502179055505050565b5f600254905090565b60065481565b600760019054906101000a900460ff1681565b5f5f6105d76109dd565b90506105e4858285610a7d565b6105ef858585610b10565b60019150509392505050565b6106036109f6565b8060095f8473ffffffffffffffffffffffffffffffffffffffff1673ffffffffffffffffffffffffffffffffffffffff1681526020019081526020015f205f6101000a81548160ff0219169083151502179055505050565b6106636109f6565b600160075f6101000a81548160ff021916908315150217905550565b5f6012905090565b6a2b036da601a044b400000081565b6106a76106a16109dd565b82610c00565b50565b6009602052805f5260405f205f915054906101000a900460ff1681565b5f5f5f8373ffffffffffffffffffffffffffffffffffffffff1673ffffffffffffffffffffffffffffffffffffffff1681526020019081526020015f20549050919050565b6107146109f6565b61071d5f610c7f565b565b6107276109f6565b5f600760016101000a81548160ff021916908315150217905550565b6107558261074f6109dd565b83610a7d565b61075f8282610c00565b5050565b5f60055f9054906101000a900473ffffffffffffffffffffffffffffffffffffffff16905090565b60606004805461079a90611798565b80601f01602080910402602001604051908101604052809291908181526020018280546107c690611798565b80156108115780601f106107e857610100808354040283529160200191610811565b820191905f5260205f20905b8154815290600101906020018083116107f457829003601f168201915b5050505050905090565b5f5f6108256109dd565b9050610832818585610b10565b600191505092915050565b6108456109f6565b600760019054906101000a900460ff1661088b576040517f4ca4c06c00000000000000000000000000000000000000000000000000000000815260040160405180910390fd5b670de0b6b3a76400008161089f91906117f5565b60068190555050565b6008602052805f5260405f205f915054906101000a900460ff1681565b5f60015f8473ffffffffffffffffffffffffffffffffffffffff1673ffffffffffffffffffffffffffffffffffffffff1681526020019081526020015f205f8373ffffffffffffffffffffffffffffffffffffffff1673ffffffffffffffffffffffffffffffffffffffff1681526020019081526020015f2054905092915050565b61094f6109f6565b5f73ffffffffffffffffffffffffffffffffffffffff168173ffffffffffffffffffffffffffffffffffffffff16036109bf575f6040517f1e4fbdf70000000000000000000000000000000000000000000000000000000081526004016109b69190611714565b60405180910390fd5b6109c881610c7f565b50565b60075f9054906101000a900460ff1681565b5f33905090565b6109f18383836001610d42565b505050565b6109fe6109dd565b73ffffffffffffffffffffffffffffffffffffffff16610a1c610763565b73ffffffffffffffffffffffffffffffffffffffff1614610a7b57610a3f6109dd565b6040517f118cdaa7000000000000000000000000000000000000000000000000000000008152600401610a729190611714565b60405180910390fd5b565b5f610a8884846108c5565b90507fffffffffffffffffffffffffffffffffffffffffffffffffffffffffffffffff811015610b0a5781811015610afb578281836040517ffb8f41b2000000000000000000000000000000000000000000000000000000008152600401610af293929190611836565b60405180910390fd5b610b0984848484035f610d42565b5b50505050565b5f73ffffffffffffffffffffffffffffffffffffffff168373ffffffffffffffffffffffffffffffffffffffff1603610b80575f6040517f96c6fd1e000000000000000000000000000000000000000000000000000000008152600401610b779190611714565b60405180910390fd5b5f73ffffffffffffffffffffffffffffffffffffffff168273ffffffffffffffffffffffffffffffffffffffff1603610bf0575f6040517fec442f05000000000000000000000000000000000000000000000000000000008152600401610be79190611714565b60405180910390fd5b610bfb838383610f11565b505050565b5f73ffffffffffffffffffffffffffffffffffffffff168273ffffffffffffffffffffffffffffffffffffffff1603610c70575f6040517f96c6fd1e000000000000000000000000000000000000000000000000000000008152600401610c679190611714565b60405180910390fd5b610c7b825f83610f11565b5050565b5f60055f9054906101000a900473ffffffffffffffffffffffffffffffffffffffff1690508160055f6101000a81548173ffffffffffffffffffffffffffffffffffffffff021916908373ffffffffffffffffffffffffffffffffffffffff1602179055508173ffffffffffffffffffffffffffffffffffffffff168173ffffffffffffffffffffffffffffffffffffffff167f8be0079c531659141344cd1fd0a4f28419497f9722a3daafe3b4186f6b6457e060405160405180910390a35050565b5f73ffffffffffffffffffffffffffffffffffffffff168473ffffffffffffffffffffffffffffffffffffffff1603610db2575f6040517fe602df05000000000000000000000000000000000000000000000000000000008152600401610da99190611714565b60405180910390fd5b5f73ffffffffffffffffffffffffffffffffffffffff168373ffffffffffffffffffffffffffffffffffffffff1603610e22575f6040517f94280d62000000000000000000000000000000000000000000000000000000008152600401610e199190611714565b60405180910390fd5b8160015f8673ffffffffffffffffffffffffffffffffffffffff1673ffffffffffffffffffffffffffffffffffffffff1681526020019081526020015f205f8573ffffffffffffffffffffffffffffffffffffffff1673ffffffffffffffffffffffffffffffffffffffff1681526020019081526020015f20819055508015610f0b578273ffffffffffffffffffffffffffffffffffffffff168473ffffffffffffffffffffffffffffffffffffffff167f8c5be1e5ebec7d5bd14f71427d1e84f3dd0314c0f7b2291e5b200ac8c7c3b92584604051610f029190611612565b60405180910390a35b50505050565b5f73ffffffffffffffffffffffffffffffffffffffff168373ffffffffffffffffffffffffffffffffffffffff161480610f7657505f73ffffffffffffffffffffffffffffffffffffffff168273ffffffffffffffffffffffffffffffffffffffff16145b80610fc7575060095f8473ffffffffffffffffffffffffffffffffffffffff1673ffffffffffffffffffffffffffffffffffffffff1681526020019081526020015f205f9054906101000a900460ff165b80611018575060095f8373ffffffffffffffffffffffffffffffffffffffff1673ffffffffffffffffffffffffffffffffffffffff1681526020019081526020015f205f9054906101000a900460ff165b1561102d576110288383836111f0565b6111eb565b60075f9054906101000a900460ff16611072576040517fe2c865df00000000000000000000000000000000000000000000000000000000815260040160405180910390fd5b60085f8473ffffffffffffffffffffffffffffffffffffffff1673ffffffffffffffffffffffffffffffffffffffff1681526020019081526020015f205f9054906101000a900460ff168061110d575060085f8373ffffffffffffffffffffffffffffffffffffffff1673ffffffffffffffffffffffffffffffffffffffff1681526020019081526020015f205f9054906101000a900460ff165b15611144576040517f09550c7700000000000000000000000000000000000000000000000000000000815260040160405180910390fd5b600760019054906101000a900460ff16156111df575f600654905080821115611199576040517f8d35786200000000000000000000000000000000000000000000000000000000815260040160405180910390fd5b80826111a4856106c7565b0111156111dd576040517f5426a58000000000000000000000000000000000000000000000000000000000815260040160405180910390fd5b505b6111ea8383836111f0565b5b505050565b5f73ffffffffffffffffffffffffffffffffffffffff168373ffffffffffffffffffffffffffffffffffffffff1603611240578060025f828254611234919061186b565b9250508190555061130e565b5f5f5f8573ffffffffffffffffffffffffffffffffffffffff1673ffffffffffffffffffffffffffffffffffffffff1681526020019081526020015f20549050818110156112c9578381836040517fe450d38c0000000000000000000000000000000000000000000000000000000081526004016112c093929190611836565b60405180910390fd5b8181035f5f8673ffffffffffffffffffffffffffffffffffffffff1673ffffffffffffffffffffffffffffffffffffffff1681526020019081526020015f2081905550505b5f73ffffffffffffffffffffffffffffffffffffffff168273ffffffffffffffffffffffffffffffffffffffff1603611355578060025f828254039250508190555061139f565b805f5f8473ffffffffffffffffffffffffffffffffffffffff1673ffffffffffffffffffffffffffffffffffffffff1681526020019081526020015f205f82825401925050819055505b8173ffffffffffffffffffffffffffffffffffffffff168373ffffffffffffffffffffffffffffffffffffffff167fddf252ad1be2c89b69c2b068fc378daa952ba7f163c4a11628f55a4df523b3ef836040516113fc9190611612565b60405180910390a3505050565b5f81519050919050565b5f82825260208201905092915050565b8281835e5f83830152505050565b5f601f19601f8301169050919050565b5f61144b82611409565b6114558185611413565b9350611465818560208601611423565b61146e81611431565b840191505092915050565b5f6020820190508181035f8301526114918184611441565b905092915050565b5f5ffd5b5f73ffffffffffffffffffffffffffffffffffffffff82169050919050565b5f6114c68261149d565b9050919050565b6114d6816114bc565b81146114e0575f5ffd5b50565b5f813590506114f1816114cd565b92915050565b5f819050919050565b611509816114f7565b8114611513575f5ffd5b50565b5f8135905061152481611500565b92915050565b5f5f604083850312156115405761153f611499565b5b5f61154d858286016114e3565b925050602061155e85828601611516565b9150509250929050565b5f8115159050919050565b61157c81611568565b82525050565b5f6020820190506115955f830184611573565b92915050565b6115a481611568565b81146115ae575f5ffd5b50565b5f813590506115bf8161159b565b92915050565b5f5f604083850312156115db576115da611499565b5b5f6115e8858286016114e3565b92505060206115f9858286016115b1565b9150509250929050565b61160c816114f7565b82525050565b5f6020820190506116255f830184611603565b92915050565b5f5f5f6060848603121561164257611641611499565b5b5f61164f868287016114e3565b9350506020611660868287016114e3565b925050604061167186828701611516565b9150509250925092565b5f60ff82169050919050565b6116908161167b565b82525050565b5f6020820190506116a95f830184611687565b92915050565b5f602082840312156116c4576116c3611499565b5b5f6116d184828501611516565b91505092915050565b5f602082840312156116ef576116ee611499565b5b5f6116fc848285016114e3565b91505092915050565b61170e816114bc565b82525050565b5f6020820190506117275f830184611705565b92915050565b5f5f6040838503121561174357611742611499565b5b5f611750858286016114e3565b9250506020611761858286016114e3565b9150509250929050565b7f4e487b71000000000000000000000000000000000000000000000000000000005f52602260045260245ffd5b5f60028204905060018216806117af57607f821691505b6020821081036117c2576117c161176b565b5b50919050565b7f4e487b71000000000000000000000000000000000000000000000000000000005f52601160045260245ffd5b5f6117ff826114f7565b915061180a836114f7565b9250828202611818816114f7565b9150828204841483151761182f5761182e6117c8565b5b5092915050565b5f6060820190506118495f830186611705565b6118566020830185611603565b6118636040830184611603565b949350505050565b5f611875826114f7565b9150611880836114f7565b9250828201905080821115611898576118976117c8565b5b9291505056fea2646970667358221220db7f8069888af00347e969aeba857ef80484ab718313a9a135f08dd6a4387caa64736f6c63430008210033",
					"opcodes": "PUSH1 0x80 PUSH1 0x40 MSTORE PUSH10 0x1605D9EE986271000000 PUSH1 0x6 SSTORE PUSH1 0x1 PUSH1 0x7 PUSH1 0x1 PUSH2 0x100 EXP DUP2 SLOAD DUP2 PUSH1 0xFF MUL NOT AND SWAP1 DUP4 ISZERO ISZERO MUL OR SWAP1 SSTORE POP CALLVALUE DUP1 ISZERO PUSH2 0x38 JUMPI PUSH0 PUSH0 REVERT JUMPDEST POP CALLER PUSH1 0x40 MLOAD DUP1 PUSH1 0x40 ADD PUSH1 0x40 MSTORE DUP1 PUSH1 0x4 DUP2 MSTORE PUSH1 0x20 ADD PUSH32 0x4B61736800000000000000000000000000000000000000000000000000000000 DUP2 MSTORE POP PUSH1 0x40 MLOAD DUP1 PUSH1 0x40 ADD PUSH1 0x40 MSTORE DUP1 PUSH1 0x4 DUP2 MSTORE PUSH1 0x20 ADD PUSH32 0x4B41534800000000000000000000000000000000000000000000000000000000 DUP2 MSTORE POP DUP2 PUSH1 0x3 SWAP1 DUP2 PUSH2 0xB5 SWAP2 SWAP1 PUSH2 0xAF7 JUMP JUMPDEST POP DUP1 PUSH1 0x4 SWAP1 DUP2 PUSH2 0xC5 SWAP2 SWAP1 PUSH2 0xAF7 JUMP JUMPDEST POP POP POP PUSH0 PUSH20 0xFFFFFFFFFFFFFFFFFFFFFFFFFFFFFFFFFFFFFFFF AND DUP2 PUSH20 0xFFFFFFFFFFFFFFFFFFFFFFFFFFFFFFFFFFFFFFFF AND SUB PUSH2 0x138 JUMPI PUSH0 PUSH1 0x40 MLOAD PUSH32 0x1E4FBDF700000000000000000000000000000000000000000000000000000000 DUP2 MSTORE PUSH1 0x4 ADD PUSH2 0x12F SWAP2 SWAP1 PUSH2 0xC05 JUMP JUMPDEST PUSH1 0x40 MLOAD DUP1 SWAP2 SUB SWAP1 REVERT JUMPDEST PUSH2 0x147 DUP2 PUSH2 0x212 PUSH1 0x20 SHL PUSH1 0x20 SHR JUMP JUMPDEST POP PUSH1 0x1 PUSH1 0x9 PUSH0 CALLER PUSH20 0xFFFFFFFFFFFFFFFFFFFFFFFFFFFFFFFFFFFFFFFF AND PUSH20 0xFFFFFFFFFFFFFFFFFFFFFFFFFFFFFFFFFFFFFFFF AND DUP2 MSTORE PUSH1 0x20 ADD SWAP1 DUP2 MSTORE PUSH1 0x20 ADD PUSH0 KECCAK256 PUSH0 PUSH2 0x100 EXP DUP2 SLOAD DUP2 PUSH1 0xFF MUL NOT AND SWAP1 DUP4 ISZERO ISZERO MUL OR SWAP1 SSTORE POP PUSH1 0x1 PUSH1 0x9 PUSH0 ADDRESS PUSH20 0xFFFFFFFFFFFFFFFFFFFFFFFFFFFFFFFFFFFFFFFF AND PUSH20 0xFFFFFFFFFFFFFFFFFFFFFFFFFFFFFFFFFFFFFFFF AND DUP2 MSTORE PUSH1 0x20 ADD SWAP1 DUP2 MSTORE PUSH1 0x20 ADD PUSH0 KECCAK256 PUSH0 PUSH2 0x100 EXP DUP2 SLOAD DUP2 PUSH1 0xFF MUL NOT AND SWAP1 DUP4 ISZERO ISZERO MUL OR SWAP1 SSTORE POP PUSH2 0x20D CALLER PUSH11 0x2B036DA601A044B4000000 PUSH2 0x2D5 PUSH1 0x20 SHL PUSH1 0x20 SHR JUMP JUMPDEST PUSH2 0xCDB JUMP JUMPDEST PUSH0 PUSH1 0x5 PUSH0 SWAP1 SLOAD SWAP1 PUSH2 0x100 EXP SWAP1 DIV PUSH20 0xFFFFFFFFFFFFFFFFFFFFFFFFFFFFFFFFFFFFFFFF AND SWAP1 POP DUP2 PUSH1 0x5 PUSH0 PUSH2 0x100 EXP DUP2 SLOAD DUP2 PUSH20 0xFFFFFFFFFFFFFFFFFFFFFFFFFFFFFFFFFFFFFFFF MUL NOT AND SWAP1 DUP4 PUSH20 0xFFFFFFFFFFFFFFFFFFFFFFFFFFFFFFFFFFFFFFFF AND MUL OR SWAP1 SSTORE POP DUP2 PUSH20 0xFFFFFFFFFFFFFFFFFFFFFFFFFFFFFFFFFFFFFFFF AND DUP2 PUSH20 0xFFFFFFFFFFFFFFFFFFFFFFFFFFFFFFFFFFFFFFFF AND PUSH32 0x8BE0079C531659141344CD1FD0A4F28419497F9722A3DAAFE3B4186F6B6457E0 PUSH1 0x40 MLOAD PUSH1 0x40 MLOAD DUP1 SWAP2 SUB SWAP1 LOG3 POP POP JUMP JUMPDEST PUSH0 PUSH20 0xFFFFFFFFFFFFFFFFFFFFFFFFFFFFFFFFFFFFFFFF AND DUP3 PUSH20 0xFFFFFFFFFFFFFFFFFFFFFFFFFFFFFFFFFFFFFFFF AND SUB PUSH2 0x345 JUMPI PUSH0 PUSH1 0x40 MLOAD PUSH32 0xEC442F0500000000000000000000000000000000000000000000000000000000 DUP2 MSTORE PUSH1 0x4 ADD PUSH2 0x33C SWAP2 SWAP1 PUSH2 0xC05 JUMP JUMPDEST PUSH1 0x40 MLOAD DUP1 SWAP2 SUB SWAP1 REVERT JUMPDEST PUSH2 0x356 PUSH0 DUP4 DUP4 PUSH2 0x35A PUSH1 0x20 SHL PUSH1 0x20 SHR JUMP JUMPDEST POP POP JUMP JUMPDEST PUSH0 PUSH20 0xFFFFFFFFFFFFFFFFFFFFFFFFFFFFFFFFFFFFFFFF AND DUP4 PUSH20 0xFFFFFFFFFFFFFFFFFFFFFFFFFFFFFFFFFFFFFFFF AND EQ DUP1 PUSH2 0x3BF JUMPI POP PUSH0 PUSH20 0xFFFFFFFFFFFFFFFFFFFFFFFFFFFFFFFFFFFFFFFF AND DUP3 PUSH20 0xFFFFFFFFFFFFFFFFFFFFFFFFFFFFFFFFFFFFFFFF AND EQ JUMPDEST DUP1 PUSH2 0x410 JUMPI POP PUSH1 0x9 PUSH0 DUP5 PUSH20 0xFFFFFFFFFFFFFFFFFFFFFFFFFFFFFFFFFFFFFFFF AND PUSH20 0xFFFFFFFFFFFFFFFFFFFFFFFFFFFFFFFFFFFFFFFF AND DUP2 MSTORE PUSH1 0x20 ADD SWAP1 DUP2 MSTORE PUSH1 0x20 ADD PUSH0 KECCAK256 PUSH0 SWAP1 SLOAD SWAP1 PUSH2 0x100 EXP SWAP1 DIV PUSH1 0xFF AND JUMPDEST DUP1 PUSH2 0x461 JUMPI POP PUSH1 0x9 PUSH0 DUP4 PUSH20 0xFFFFFFFFFFFFFFFFFFFFFFFFFFFFFFFFFFFFFFFF AND PUSH20 0xFFFFFFFFFFFFFFFFFFFFFFFFFFFFFFFFFFFFFFFF AND DUP2 MSTORE PUSH1 0x20 ADD SWAP1 DUP2 MSTORE PUSH1 0x20 ADD PUSH0 KECCAK256 PUSH0 SWAP1 SLOAD SWAP1 PUSH2 0x100 EXP SWAP1 DIV PUSH1 0xFF AND JUMPDEST ISZERO PUSH2 0x47C JUMPI PUSH2 0x477 DUP4 DUP4 DUP4 PUSH2 0x64B PUSH1 0x20 SHL PUSH1 0x20 SHR JUMP JUMPDEST PUSH2 0x646 JUMP JUMPDEST PUSH1 0x7 PUSH0 SWAP1 SLOAD SWAP1 PUSH2 0x100 EXP SWAP1 DIV PUSH1 0xFF AND PUSH2 0x4C1 JUMPI PUSH1 0x40 MLOAD PUSH32 0xE2C865DF00000000000000000000000000000000000000000000000000000000 DUP2 MSTORE PUSH1 0x4 ADD PUSH1 0x40 MLOAD DUP1 SWAP2 SUB SWAP1 REVERT JUMPDEST PUSH1 0x8 PUSH0 DUP5 PUSH20 0xFFFFFFFFFFFFFFFFFFFFFFFFFFFFFFFFFFFFFFFF AND PUSH20 0xFFFFFFFFFFFFFFFFFFFFFFFFFFFFFFFFFFFFFFFF AND DUP2 MSTORE PUSH1 0x20 ADD SWAP1 DUP2 MSTORE PUSH1 0x20 ADD PUSH0 KECCAK256 PUSH0 SWAP1 SLOAD SWAP1 PUSH2 0x100 EXP SWAP1 DIV PUSH1 0xFF AND DUP1 PUSH2 0x55C JUMPI POP PUSH1 0x8 PUSH0 DUP4 PUSH20 0xFFFFFFFFFFFFFFFFFFFFFFFFFFFFFFFFFFFFFFFF AND PUSH20 0xFFFFFFFFFFFFFFFFFFFFFFFFFFFFFFFFFFFFFFFF AND DUP2 MSTORE PUSH1 0x20 ADD SWAP1 DUP2 MSTORE PUSH1 0x20 ADD PUSH0 KECCAK256 PUSH0 SWAP1 SLOAD SWAP1 PUSH2 0x100 EXP SWAP1 DIV PUSH1 0xFF AND JUMPDEST ISZERO PUSH2 0x593 JUMPI PUSH1 0x40 MLOAD PUSH32 0x9550C7700000000000000000000000000000000000000000000000000000000 DUP2 MSTORE PUSH1 0x4 ADD PUSH1 0x40 MLOAD DUP1 SWAP2 SUB SWAP1 REVERT JUMPDEST PUSH1 0x7 PUSH1 0x1 SWAP1 SLOAD SWAP1 PUSH2 0x100 EXP SWAP1 DIV PUSH1 0xFF AND ISZERO PUSH2 0x634 JUMPI PUSH0 PUSH1 0x6 SLOAD SWAP1 POP DUP1 DUP3 GT ISZERO PUSH2 0x5E8 JUMPI PUSH1 0x40 MLOAD PUSH32 0x8D35786200000000000000000000000000000000000000000000000000000000 DUP2 MSTORE PUSH1 0x4 ADD PUSH1 0x40 MLOAD DUP1 SWAP2 SUB SWAP1 REVERT JUMPDEST DUP1 DUP3 PUSH2 0x5F9 DUP6 PUSH2 0x864 PUSH1 0x20 SHL PUSH1 0x20 SHR JUMP JUMPDEST ADD GT ISZERO PUSH2 0x632 JUMPI PUSH1 0x40 MLOAD PUSH32 0x5426A58000000000000000000000000000000000000000000000000000000000 DUP2 MSTORE PUSH1 0x4 ADD PUSH1 0x40 MLOAD DUP1 SWAP2 SUB SWAP1 REVERT JUMPDEST POP JUMPDEST PUSH2 0x645 DUP4 DUP4 DUP4 PUSH2 0x64B PUSH1 0x20 SHL PUSH1 0x20 SHR JUMP JUMPDEST JUMPDEST POP POP POP JUMP JUMPDEST PUSH0 PUSH20 0xFFFFFFFFFFFFFFFFFFFFFFFFFFFFFFFFFFFFFFFF AND DUP4 PUSH20 0xFFFFFFFFFFFFFFFFFFFFFFFFFFFFFFFFFFFFFFFF AND SUB PUSH2 0x69B JUMPI DUP1 PUSH1 0x2 PUSH0 DUP3 DUP3 SLOAD PUSH2 0x68F SWAP2 SWAP1 PUSH2 0xC4B JUMP JUMPDEST SWAP3 POP POP DUP2 SWAP1 SSTORE POP PUSH2 0x769 JUMP JUMPDEST PUSH0 PUSH0 PUSH0 DUP6 PUSH20 0xFFFFFFFFFFFFFFFFFFFFFFFFFFFFFFFFFFFFFFFF AND PUSH20 0xFFFFFFFFFFFFFFFFFFFFFFFFFFFFFFFFFFFFFFFF AND DUP2 MSTORE PUSH1 0x20 ADD SWAP1 DUP2 MSTORE PUSH1 0x20 ADD PUSH0 KECCAK256 SLOAD SWAP1 POP DUP2 DUP2 LT ISZERO PUSH2 0x724 JUMPI DUP4 DUP2 DUP4 PUSH1 0x40 MLOAD PUSH32 0xE450D38C00000000000000000000000000000000000000000000000000000000 DUP2 MSTORE PUSH1 0x4 ADD PUSH2 0x71B SWAP4 SWAP3 SWAP2 SWAP1 PUSH2 0xC8D JUMP JUMPDEST PUSH1 0x40 MLOAD DUP1 SWAP2 SUB SWAP1 REVERT JUMPDEST DUP2 DUP2 SUB PUSH0 PUSH0 DUP7 PUSH20 0xFFFFFFFFFFFFFFFFFFFFFFFFFFFFFFFFFFFFFFFF AND PUSH20 0xFFFFFFFFFFFFFFFFFFFFFFFFFFFFFFFFFFFFFFFF AND DUP2 MSTORE PUSH1 0x20 ADD SWAP1 DUP2 MSTORE PUSH1 0x20 ADD PUSH0 KECCAK256 DUP2 SWAP1 SSTORE POP POP JUMPDEST PUSH0 PUSH20 0xFFFFFFFFFFFFFFFFFFFFFFFFFFFFFFFFFFFFFFFF AND DUP3 PUSH20 0xFFFFFFFFFFFFFFFFFFFFFFFFFFFFFFFFFFFFFFFF AND SUB PUSH2 0x7B0 JUMPI DUP1 PUSH1 0x2 PUSH0 DUP3 DUP3 SLOAD SUB SWAP3 POP POP DUP2 SWAP1 SSTORE POP PUSH2 0x7FA JUMP JUMPDEST DUP1 PUSH0 PUSH0 DUP5 PUSH20 0xFFFFFFFFFFFFFFFFFFFFFFFFFFFFFFFFFFFFFFFF AND PUSH20 0xFFFFFFFFFFFFFFFFFFFFFFFFFFFFFFFFFFFFFFFF AND DUP2 MSTORE PUSH1 0x20 ADD SWAP1 DUP2 MSTORE PUSH1 0x20 ADD PUSH0 KECCAK256 PUSH0 DUP3 DUP3 SLOAD ADD SWAP3 POP POP DUP2 SWAP1 SSTORE POP JUMPDEST DUP2 PUSH20 0xFFFFFFFFFFFFFFFFFFFFFFFFFFFFFFFFFFFFFFFF AND DUP4 PUSH20 0xFFFFFFFFFFFFFFFFFFFFFFFFFFFFFFFFFFFFFFFF AND PUSH32 0xDDF252AD1BE2C89B69C2B068FC378DAA952BA7F163C4A11628F55A4DF523B3EF DUP4 PUSH1 0x40 MLOAD PUSH2 0x857 SWAP2 SWAP1 PUSH2 0xCC2 JUMP JUMPDEST PUSH1 0x40 MLOAD DUP1 SWAP2 SUB SWAP1 LOG3 POP POP POP JUMP JUMPDEST PUSH0 PUSH0 PUSH0 DUP4 PUSH20 0xFFFFFFFFFFFFFFFFFFFFFFFFFFFFFFFFFFFFFFFF AND PUSH20 0xFFFFFFFFFFFFFFFFFFFFFFFFFFFFFFFFFFFFFFFF AND DUP2 MSTORE PUSH1 0x20 ADD SWAP1 DUP2 MSTORE PUSH1 0x20 ADD PUSH0 KECCAK256 SLOAD SWAP1 POP SWAP2 SWAP1 POP JUMP JUMPDEST PUSH0 DUP2 MLOAD SWAP1 POP SWAP2 SWAP1 POP JUMP JUMPDEST PUSH32 0x4E487B7100000000000000000000000000000000000000000000000000000000 PUSH0 MSTORE PUSH1 0x41 PUSH1 0x4 MSTORE PUSH1 0x24 PUSH0 REVERT JUMPDEST PUSH32 0x4E487B7100000000000000000000000000000000000000000000000000000000 PUSH0 MSTORE PUSH1 0x22 PUSH1 0x4 MSTORE PUSH1 0x24 PUSH0 REVERT JUMPDEST PUSH0 PUSH1 0x2 DUP3 DIV SWAP1 POP PUSH1 0x1 DUP3 AND DUP1 PUSH2 0x924 JUMPI PUSH1 0x7F DUP3 AND SWAP2 POP JUMPDEST PUSH1 0x20 DUP3 LT DUP2 SUB PUSH2 0x937 JUMPI PUSH2 0x936 PUSH2 0x8E0 JUMP JUMPDEST JUMPDEST POP SWAP2 SWAP1 POP JUMP JUMPDEST PUSH0 DUP2 SWAP1 POP DUP2 PUSH0 MSTORE PUSH1 0x20 PUSH0 KECCAK256 SWAP1 POP SWAP2 SWAP1 POP JUMP JUMPDEST PUSH0 PUSH1 0x20 PUSH1 0x1F DUP4 ADD DIV SWAP1 POP SWAP2 SWAP1 POP JUMP JUMPDEST PUSH0 DUP3 DUP3 SHL SWAP1 POP SWAP3 SWAP2 POP POP JUMP JUMPDEST PUSH0 PUSH1 0x8 DUP4 MUL PUSH2 0x999 PUSH32 0xFFFFFFFFFFFFFFFFFFFFFFFFFFFFFFFFFFFFFFFFFFFFFFFFFFFFFFFFFFFFFFFF DUP3 PUSH2 0x95E JUMP JUMPDEST PUSH2 0x9A3 DUP7 DUP4 PUSH2 0x95E JUMP JUMPDEST SWAP6 POP DUP1 NOT DUP5 AND SWAP4 POP DUP1 DUP7 AND DUP5 OR SWAP3 POP POP POP SWAP4 SWAP3 POP POP POP JUMP JUMPDEST PUSH0 DUP2 SWAP1 POP SWAP2 SWAP1 POP JUMP JUMPDEST PUSH0 DUP2 SWAP1 POP SWAP2 SWAP1 POP JUMP JUMPDEST PUSH0 PUSH2 0x9E7 PUSH2 0x9E2 PUSH2 0x9DD DUP5 PUSH2 0x9BB JUMP JUMPDEST PUSH2 0x9C4 JUMP JUMPDEST PUSH2 0x9BB JUMP JUMPDEST SWAP1 POP SWAP2 SWAP1 POP JUMP JUMPDEST PUSH0 DUP2 SWAP1 POP SWAP2 SWAP1 POP JUMP JUMPDEST PUSH2 0xA00 DUP4 PUSH2 0x9CD JUMP JUMPDEST PUSH2 0xA14 PUSH2 0xA0C DUP3 PUSH2 0x9EE JUMP JUMPDEST DUP5 DUP5 SLOAD PUSH2 0x96A JUMP JUMPDEST DUP3 SSTORE POP POP POP POP JUMP JUMPDEST PUSH0 PUSH0 SWAP1 POP SWAP1 JUMP JUMPDEST PUSH2 0xA2B PUSH2 0xA1C JUMP JUMPDEST PUSH2 0xA36 DUP2 DUP5 DUP5 PUSH2 0x9F7 JUMP JUMPDEST POP POP POP JUMP JUMPDEST PUSH0 JUMPDEST DUP3 DUP2 LT ISZERO PUSH2 0xA5C JUMPI PUSH2 0xA51 PUSH0 DUP3 DUP5 ADD PUSH2 0xA23 JUMP JUMPDEST PUSH1 0x1 DUP2 ADD SWAP1 POP PUSH2 0xA3D JUMP JUMPDEST POP POP POP JUMP JUMPDEST PUSH1 0x1F DUP3 GT ISZERO PUSH2 0xAAF JUMPI DUP3 DUP3 GT ISZERO PUSH2 0xAAE JUMPI PUSH2 0xA7B DUP2 PUSH2 0x93D JUMP JUMPDEST PUSH2 0xA84 DUP4 PUSH2 0x94F JUMP JUMPDEST PUSH2 0xA8D DUP6 PUSH2 0x94F JUMP JUMPDEST PUSH1 0x20 DUP7 LT ISZERO PUSH2 0xA9A JUMPI PUSH0 SWAP1 POP JUMPDEST DUP1 DUP4 ADD PUSH2 0xAA9 DUP3 DUP5 SUB DUP3 PUSH2 0xA3B JUMP JUMPDEST POP POP POP POP JUMPDEST JUMPDEST POP POP POP JUMP JUMPDEST PUSH0 DUP3 DUP3 SHR SWAP1 POP SWAP3 SWAP2 POP POP JUMP JUMPDEST PUSH0 PUSH2 0xACF PUSH0 NOT DUP5 PUSH1 0x8 MUL PUSH2 0xAB4 JUMP JUMPDEST NOT DUP1 DUP4 AND SWAP2 POP POP SWAP3 SWAP2 POP POP JUMP JUMPDEST PUSH0 PUSH2 0xAE7 DUP4 DUP4 PUSH2 0xAC0 JUMP JUMPDEST SWAP2 POP DUP3 PUSH1 0x2 MUL DUP3 OR SWAP1 POP SWAP3 SWAP2 POP POP JUMP JUMPDEST PUSH2 0xB00 DUP3 PUSH2 0x8A9 JUMP JUMPDEST PUSH8 0xFFFFFFFFFFFFFFFF DUP2 GT ISZERO PUSH2 0xB19 JUMPI PUSH2 0xB18 PUSH2 0x8B3 JUMP JUMPDEST JUMPDEST PUSH2 0xB23 DUP3 SLOAD PUSH2 0x90D JUMP JUMPDEST PUSH2 0xB2E DUP3 DUP3 DUP6 PUSH2 0xA61 JUMP JUMPDEST PUSH0 PUSH1 0x20 SWAP1 POP PUSH1 0x1F DUP4 GT PUSH1 0x1 DUP2 EQ PUSH2 0xB5F JUMPI PUSH0 DUP5 ISZERO PUSH2 0xB4D JUMPI DUP3 DUP8 ADD MLOAD SWAP1 POP JUMPDEST PUSH2 0xB57 DUP6 DUP3 PUSH2 0xADC JUMP JUMPDEST DUP7 SSTORE POP PUSH2 0xBBE JUMP JUMPDEST PUSH1 0x1F NOT DUP5 AND PUSH2 0xB6D DUP7 PUSH2 0x93D JUMP JUMPDEST PUSH0 JUMPDEST DUP3 DUP2 LT ISZERO PUSH2 0xB94 JUMPI DUP5 DUP10 ADD MLOAD DUP3 SSTORE PUSH1 0x1 DUP3 ADD SWAP2 POP PUSH1 0x20 DUP6 ADD SWAP5 POP PUSH1 0x20 DUP2 ADD SWAP1 POP PUSH2 0xB6F JUMP JUMPDEST DUP7 DUP4 LT ISZERO PUSH2 0xBB1 JUMPI DUP5 DUP10 ADD MLOAD PUSH2 0xBAD PUSH1 0x1F DUP10 AND DUP3 PUSH2 0xAC0 JUMP JUMPDEST DUP4 SSTORE POP JUMPDEST PUSH1 0x1 PUSH1 0x2 DUP9 MUL ADD DUP9 SSTORE POP POP POP JUMPDEST POP POP POP POP POP POP JUMP JUMPDEST PUSH0 PUSH20 0xFFFFFFFFFFFFFFFFFFFFFFFFFFFFFFFFFFFFFFFF DUP3 AND SWAP1 POP SWAP2 SWAP1 POP JUMP JUMPDEST PUSH0 PUSH2 0xBEF DUP3 PUSH2 0xBC6 JUMP JUMPDEST SWAP1 POP SWAP2 SWAP1 POP JUMP JUMPDEST PUSH2 0xBFF DUP2 PUSH2 0xBE5 JUMP JUMPDEST DUP3 MSTORE POP POP JUMP JUMPDEST PUSH0 PUSH1 0x20 DUP3 ADD SWAP1 POP PUSH2 0xC18 PUSH0 DUP4 ADD DUP5 PUSH2 0xBF6 JUMP JUMPDEST SWAP3 SWAP2 POP POP JUMP JUMPDEST PUSH32 0x4E487B7100000000000000000000000000000000000000000000000000000000 PUSH0 MSTORE PUSH1 0x11 PUSH1 0x4 MSTORE PUSH1 0x24 PUSH0 REVERT JUMPDEST PUSH0 PUSH2 0xC55 DUP3 PUSH2 0x9BB JUMP JUMPDEST SWAP2 POP PUSH2 0xC60 DUP4 PUSH2 0x9BB JUMP JUMPDEST SWAP3 POP DUP3 DUP3 ADD SWAP1 POP DUP1 DUP3 GT ISZERO PUSH2 0xC78 JUMPI PUSH2 0xC77 PUSH2 0xC1E JUMP JUMPDEST JUMPDEST SWAP3 SWAP2 POP POP JUMP JUMPDEST PUSH2 0xC87 DUP2 PUSH2 0x9BB JUMP JUMPDEST DUP3 MSTORE POP POP JUMP JUMPDEST PUSH0 PUSH1 0x60 DUP3 ADD SWAP1 POP PUSH2 0xCA0 PUSH0 DUP4 ADD DUP7 PUSH2 0xBF6 JUMP JUMPDEST PUSH2 0xCAD PUSH1 0x20 DUP4 ADD DUP6 PUSH2 0xC7E JUMP JUMPDEST PUSH2 0xCBA PUSH1 0x40 DUP4 ADD DUP5 PUSH2 0xC7E JUMP JUMPDEST SWAP5 SWAP4 POP POP POP POP JUMP JUMPDEST PUSH0 PUSH1 0x20 DUP3 ADD SWAP1 POP PUSH2 0xCD5 PUSH0 DUP4 ADD DUP5 PUSH2 0xC7E JUMP JUMPDEST SWAP3 SWAP2 POP POP JUMP JUMPDEST PUSH2 0x18D4 DUP1 PUSH2 0xCE8 PUSH0 CODECOPY PUSH0 RETURN INVALID PUSH1 0x80 PUSH1 0x40 MSTORE CALLVALUE DUP1 ISZERO PUSH2 0xF JUMPI PUSH0 PUSH0 REVERT JUMPDEST POP PUSH1 0x4 CALLDATASIZE LT PUSH2 0x171 JUMPI PUSH0 CALLDATALOAD PUSH1 0xE0 SHR DUP1 PUSH4 0x429CEAD1 GT PUSH2 0xDC JUMPI DUP1 PUSH4 0x95D89B41 GT PUSH2 0x95 JUMPI DUP1 PUSH4 0xDBAC26E9 GT PUSH2 0x6F JUMPI DUP1 PUSH4 0xDBAC26E9 EQ PUSH2 0x3FF JUMPI DUP1 PUSH4 0xDD62ED3E EQ PUSH2 0x42F JUMPI DUP1 PUSH4 0xF2FDE38B EQ PUSH2 0x45F JUMPI DUP1 PUSH4 0xFFB54A99 EQ PUSH2 0x47B JUMPI PUSH2 0x171 JUMP JUMPDEST DUP1 PUSH4 0x95D89B41 EQ PUSH2 0x395 JUMPI DUP1 PUSH4 0xA9059CBB EQ PUSH2 0x3B3 JUMPI DUP1 PUSH4 0xBF8BCEE4 EQ PUSH2 0x3E3 JUMPI PUSH2 0x171 JUMP JUMPDEST DUP1 PUSH4 0x429CEAD1 EQ PUSH2 0x2E7 JUMPI DUP1 PUSH4 0x70A08231 EQ PUSH2 0x317 JUMPI DUP1 PUSH4 0x715018A6 EQ PUSH2 0x347 JUMPI DUP1 PUSH4 0x751039FC EQ PUSH2 0x351 JUMPI DUP1 PUSH4 0x79CC6790 EQ PUSH2 0x35B JUMPI DUP1 PUSH4 0x8DA5CB5B EQ PUSH2 0x377 JUMPI PUSH2 0x171 JUMP JUMPDEST DUP1 PUSH4 0x23B872DD GT PUSH2 0x12E JUMPI DUP1 PUSH4 0x23B872DD EQ PUSH2 0x239 JUMPI DUP1 PUSH4 0x2836BE24 EQ PUSH2 0x269 JUMPI DUP1 PUSH4 0x293230B8 EQ PUSH2 0x285 JUMPI DUP1 PUSH4 0x313CE567 EQ PUSH2 0x28F JUMPI DUP1 PUSH4 0x32CB6B0C EQ PUSH2 0x2AD JUMPI DUP1 PUSH4 0x42966C68 EQ PUSH2 0x2CB JUMPI PUSH2 0x171 JUMP JUMPDEST DUP1 PUSH4 0x6FDDE03 EQ PUSH2 0x175 JUMPI DUP1 PUSH4 0x95EA7B3 EQ PUSH2 0x193 JUMPI DUP1 PUSH4 0x153B0D1E EQ PUSH2 0x1C3 JUMPI DUP1 PUSH4 0x18160DDD EQ PUSH2 0x1DF JUMPI DUP1 PUSH4 0x1A861D26 EQ PUSH2 0x1FD JUMPI DUP1 PUSH4 0x1CCE34EE EQ PUSH2 0x21B JUMPI JUMPDEST PUSH0 PUSH0 REVERT JUMPDEST PUSH2 0x17D PUSH2 0x499 JUMP JUMPDEST PUSH1 0x40 MLOAD PUSH2 0x18A SWAP2 SWAP1 PUSH2 0x1479 JUMP JUMPDEST PUSH1 0x40 MLOAD DUP1 SWAP2 SUB SWAP1 RETURN JUMPDEST PUSH2 0x1AD PUSH1 0x4 DUP1 CALLDATASIZE SUB DUP2 ADD SWAP1 PUSH2 0x1A8 SWAP2 SWAP1 PUSH2 0x152A JUMP JUMPDEST PUSH2 0x529 JUMP JUMPDEST PUSH1 0x40 MLOAD PUSH2 0x1BA SWAP2 SWAP1 PUSH2 0x1582 JUMP JUMPDEST PUSH1 0x40 MLOAD DUP1 SWAP2 SUB SWAP1 RETURN JUMPDEST PUSH2 0x1DD PUSH1 0x4 DUP1 CALLDATASIZE SUB DUP2 ADD SWAP1 PUSH2 0x1D8 SWAP2 SWAP1 PUSH2 0x15C5 JUMP JUMPDEST PUSH2 0x54B JUMP JUMPDEST STOP JUMPDEST PUSH2 0x1E7 PUSH2 0x5AB JUMP JUMPDEST PUSH1 0x40 MLOAD PUSH2 0x1F4 SWAP2 SWAP1 PUSH2 0x1612 JUMP JUMPDEST PUSH1 0x40 MLOAD DUP1 SWAP2 SUB SWAP1 RETURN JUMPDEST PUSH2 0x205 PUSH2 0x5B4 JUMP JUMPDEST PUSH1 0x40 MLOAD PUSH2 0x212 SWAP2 SWAP1 PUSH2 0x1612 JUMP JUMPDEST PUSH1 0x40 MLOAD DUP1 SWAP2 SUB SWAP1 RETURN JUMPDEST PUSH2 0x223 PUSH2 0x5BA JUMP JUMPDEST PUSH1 0x40 MLOAD PUSH2 0x230 SWAP2 SWAP1 PUSH2 0x1582 JUMP JUMPDEST PUSH1 0x40 MLOAD DUP1 SWAP2 SUB SWAP1 RETURN JUMPDEST PUSH2 0x253 PUSH1 0x4 DUP1 CALLDATASIZE SUB DUP2 ADD SWAP1 PUSH2 0x24E SWAP2 SWAP1 PUSH2 0x162B JUMP JUMPDEST PUSH2 0x5CD JUMP JUMPDEST PUSH1 0x40 MLOAD PUSH2 0x260 SWAP2 SWAP1 PUSH2 0x1582 JUMP JUMPDEST PUSH1 0x40 MLOAD DUP1 SWAP2 SUB SWAP1 RETURN JUMPDEST PUSH2 0x283 PUSH1 0x4 DUP1 CALLDATASIZE SUB DUP2 ADD SWAP1 PUSH2 0x27E SWAP2 SWAP1 PUSH2 0x15C5 JUMP JUMPDEST PUSH2 0x5FB JUMP JUMPDEST STOP JUMPDEST PUSH2 0x28D PUSH2 0x65B JUMP JUMPDEST STOP JUMPDEST PUSH2 0x297 PUSH2 0x67F JUMP JUMPDEST PUSH1 0x40 MLOAD PUSH2 0x2A4 SWAP2 SWAP1 PUSH2 0x1696 JUMP JUMPDEST PUSH1 0x40 MLOAD DUP1 SWAP2 SUB SWAP1 RETURN JUMPDEST PUSH2 0x2B5 PUSH2 0x687 JUMP JUMPDEST PUSH1 0x40 MLOAD PUSH2 0x2C2 SWAP2 SWAP1 PUSH2 0x1612 JUMP JUMPDEST PUSH1 0x40 MLOAD DUP1 SWAP2 SUB SWAP1 RETURN JUMPDEST PUSH2 0x2E5 PUSH1 0x4 DUP1 CALLDATASIZE SUB DUP2 ADD SWAP1 PUSH2 0x2E0 SWAP2 SWAP1 PUSH2 0x16AF JUMP JUMPDEST PUSH2 0x696 JUMP JUMPDEST STOP JUMPDEST PUSH2 0x301 PUSH1 0x4 DUP1 CALLDATASIZE SUB DUP2 ADD SWAP1 PUSH2 0x2FC SWAP2 SWAP1 PUSH2 0x16DA JUMP JUMPDEST PUSH2 0x6AA JUMP JUMPDEST PUSH1 0x40 MLOAD PUSH2 0x30E SWAP2 SWAP1 PUSH2 0x1582 JUMP JUMPDEST PUSH1 0x40 MLOAD DUP1 SWAP2 SUB SWAP1 RETURN JUMPDEST PUSH2 0x331 PUSH1 0x4 DUP1 CALLDATASIZE SUB DUP2 ADD SWAP1 PUSH2 0x32C SWAP2 SWAP1 PUSH2 0x16DA JUMP JUMPDEST PUSH2 0x6C7 JUMP JUMPDEST PUSH1 0x40 MLOAD PUSH2 0x33E SWAP2 SWAP1 PUSH2 0x1612 JUMP JUMPDEST PUSH1 0x40 MLOAD DUP1 SWAP2 SUB SWAP1 RETURN JUMPDEST PUSH2 0x34F PUSH2 0x70C JUMP JUMPDEST STOP JUMPDEST PUSH2 0x359 PUSH2 0x71F JUMP JUMPDEST STOP JUMPDEST PUSH2 0x375 PUSH1 0x4 DUP1 CALLDATASIZE SUB DUP2 ADD SWAP1 PUSH2 0x370 SWAP2 SWAP1 PUSH2 0x152A JUMP JUMPDEST PUSH2 0x743 JUMP JUMPDEST STOP JUMPDEST PUSH2 0x37F PUSH2 0x763 JUMP JUMPDEST PUSH1 0x40 MLOAD PUSH2 0x38C SWAP2 SWAP1 PUSH2 0x1714 JUMP JUMPDEST PUSH1 0x40 MLOAD DUP1 SWAP2 SUB SWAP1 RETURN JUMPDEST PUSH2 0x39D PUSH2 0x78B JUMP JUMPDEST PUSH1 0x40 MLOAD PUSH2 0x3AA SWAP2 SWAP1 PUSH2 0x1479 JUMP JUMPDEST PUSH1 0x40 MLOAD DUP1 SWAP2 SUB SWAP1 RETURN JUMPDEST PUSH2 0x3CD PUSH1 0x4 DUP1 CALLDATASIZE SUB DUP2 ADD SWAP1 PUSH2 0x3C8 SWAP2 SWAP1 PUSH2 0x152A JUMP JUMPDEST PUSH2 0x81B JUMP JUMPDEST PUSH1 0x40 MLOAD PUSH2 0x3DA SWAP2 SWAP1 PUSH2 0x1582 JUMP JUMPDEST PUSH1 0x40 MLOAD DUP1 SWAP2 SUB SWAP1 RETURN JUMPDEST PUSH2 0x3FD PUSH1 0x4 DUP1 CALLDATASIZE SUB DUP2 ADD SWAP1 PUSH2 0x3F8 SWAP2 SWAP1 PUSH2 0x16AF JUMP JUMPDEST PUSH2 0x83D JUMP JUMPDEST STOP JUMPDEST PUSH2 0x419 PUSH1 0x4 DUP1 CALLDATASIZE SUB DUP2 ADD SWAP1 PUSH2 0x414 SWAP2 SWAP1 PUSH2 0x16DA JUMP JUMPDEST PUSH2 0x8A8 JUMP JUMPDEST PUSH1 0x40 MLOAD PUSH2 0x426 SWAP2 SWAP1 PUSH2 0x1582 JUMP JUMPDEST PUSH1 0x40 MLOAD DUP1 SWAP2 SUB SWAP1 RETURN JUMPDEST PUSH2 0x449 PUSH1 0x4 DUP1 CALLDATASIZE SUB DUP2 ADD SWAP1 PUSH2 0x444 SWAP2 SWAP1 PUSH2 0x172D JUMP JUMPDEST PUSH2 0x8C5 JUMP JUMPDEST PUSH1 0x40 MLOAD PUSH2 0x456 SWAP2 SWAP1 PUSH2 0x1612 JUMP JUMPDEST PUSH1 0x40 MLOAD DUP1 SWAP2 SUB SWAP1 RETURN JUMPDEST PUSH2 0x479 PUSH1 0x4 DUP1 CALLDATASIZE SUB DUP2 ADD SWAP1 PUSH2 0x474 SWAP2 SWAP1 PUSH2 0x16DA JUMP JUMPDEST PUSH2 0x947 JUMP JUMPDEST STOP JUMPDEST PUSH2 0x483 PUSH2 0x9CB JUMP JUMPDEST PUSH1 0x40 MLOAD PUSH2 0x490 SWAP2 SWAP1 PUSH2 0x1582 JUMP JUMPDEST PUSH1 0x40 MLOAD DUP1 SWAP2 SUB SWAP1 RETURN JUMPDEST PUSH1 0x60 PUSH1 0x3 DUP1 SLOAD PUSH2 0x4A8 SWAP1 PUSH2 0x1798 JUMP JUMPDEST DUP1 PUSH1 0x1F ADD PUSH1 0x20 DUP1 SWAP2 DIV MUL PUSH1 0x20 ADD PUSH1 0x40 MLOAD SWAP1 DUP2 ADD PUSH1 0x40 MSTORE DUP1 SWAP3 SWAP2 SWAP1 DUP2 DUP2 MSTORE PUSH1 0x20 ADD DUP3 DUP1 SLOAD PUSH2 0x4D4 SWAP1 PUSH2 0x1798 JUMP JUMPDEST DUP1 ISZERO PUSH2 0x51F JUMPI DUP1 PUSH1 0x1F LT PUSH2 0x4F6 JUMPI PUSH2 0x100 DUP1 DUP4 SLOAD DIV MUL DUP4 MSTORE SWAP2 PUSH1 0x20 ADD SWAP2 PUSH2 0x51F JUMP JUMPDEST DUP3 ADD SWAP2 SWAP1 PUSH0 MSTORE PUSH1 0x20 PUSH0 KECCAK256 SWAP1 JUMPDEST DUP2 SLOAD DUP2 MSTORE SWAP1 PUSH1 0x1 ADD SWAP1 PUSH1 0x20 ADD DUP1 DUP4 GT PUSH2 0x502 JUMPI DUP3 SWAP1 SUB PUSH1 0x1F AND DUP3 ADD SWAP2 JUMPDEST POP POP POP POP POP SWAP1 POP SWAP1 JUMP JUMPDEST PUSH0 PUSH0 PUSH2 0x533 PUSH2 0x9DD JUMP JUMPDEST SWAP1 POP PUSH2 0x540 DUP2 DUP6 DUP6 PUSH2 0x9E4 JUMP JUMPDEST PUSH1 0x1 SWAP2 POP POP SWAP3 SWAP2 POP POP JUMP JUMPDEST PUSH2 0x553 PUSH2 0x9F6 JUMP JUMPDEST DUP1 PUSH1 0x8 PUSH0 DUP5 PUSH20 0xFFFFFFFFFFFFFFFFFFFFFFFFFFFFFFFFFFFFFFFF AND PUSH20 0xFFFFFFFFFFFFFFFFFFFFFFFFFFFFFFFFFFFFFFFF AND DUP2 MSTORE PUSH1 0x20 ADD SWAP1 DUP2 MSTORE PUSH1 0x20 ADD PUSH0 KECCAK256 PUSH0 PUSH2 0x100 EXP DUP2 SLOAD DUP2 PUSH1 0xFF MUL NOT AND SWAP1 DUP4 ISZERO ISZERO MUL OR SWAP1 SSTORE POP POP POP JUMP JUMPDEST PUSH0 PUSH1 0x2 SLOAD SWAP1 POP SWAP1 JUMP JUMPDEST PUSH1 0x6 SLOAD DUP2 JUMP JUMPDEST PUSH1 0x7 PUSH1 0x1 SWAP1 SLOAD SWAP1 PUSH2 0x100 EXP SWAP1 DIV PUSH1 0xFF AND DUP2 JUMP JUMPDEST PUSH0 PUSH0 PUSH2 0x5D7 PUSH2 0x9DD JUMP JUMPDEST SWAP1 POP PUSH2 0x5E4 DUP6 DUP3 DUP6 PUSH2 0xA7D JUMP JUMPDEST PUSH2 0x5EF DUP6 DUP6 DUP6 PUSH2 0xB10 JUMP JUMPDEST PUSH1 0x1 SWAP2 POP POP SWAP4 SWAP3 POP POP POP JUMP JUMPDEST PUSH2 0x603 PUSH2 0x9F6 JUMP JUMPDEST DUP1 PUSH1 0x9 PUSH0 DUP5 PUSH20 0xFFFFFFFFFFFFFFFFFFFFFFFFFFFFFFFFFFFFFFFF AND PUSH20 0xFFFFFFFFFFFFFFFFFFFFFFFFFFFFFFFFFFFFFFFF AND DUP2 MSTORE PUSH1 0x20 ADD SWAP1 DUP2 MSTORE PUSH1 0x20 ADD PUSH0 KECCAK256 PUSH0 PUSH2 0x100 EXP DUP2 SLOAD DUP2 PUSH1 0xFF MUL NOT AND SWAP1 DUP4 ISZERO ISZERO MUL OR SWAP1 SSTORE POP POP POP JUMP JUMPDEST PUSH2 0x663 PUSH2 0x9F6 JUMP JUMPDEST PUSH1 0x1 PUSH1 0x7 PUSH0 PUSH2 0x100 EXP DUP2 SLOAD DUP2 PUSH1 0xFF MUL NOT AND SWAP1 DUP4 ISZERO ISZERO MUL OR SWAP1 SSTORE POP JUMP JUMPDEST PUSH0 PUSH1 0x12 SWAP1 POP SWAP1 JUMP JUMPDEST PUSH11 0x2B036DA601A044B4000000 DUP2 JUMP JUMPDEST PUSH2 0x6A7 PUSH2 0x6A1 PUSH2 0x9DD JUMP JUMPDEST DUP3 PUSH2 0xC00 JUMP JUMPDEST POP JUMP JUMPDEST PUSH1 0x9 PUSH1 0x20 MSTORE DUP1 PUSH0 MSTORE PUSH1 0x40 PUSH0 KECCAK256 PUSH0 SWAP2 POP SLOAD SWAP1 PUSH2 0x100 EXP SWAP1 DIV PUSH1 0xFF AND DUP2 JUMP JUMPDEST PUSH0 PUSH0 PUSH0 DUP4 PUSH20 0xFFFFFFFFFFFFFFFFFFFFFFFFFFFFFFFFFFFFFFFF AND PUSH20 0xFFFFFFFFFFFFFFFFFFFFFFFFFFFFFFFFFFFFFFFF AND DUP2 MSTORE PUSH1 0x20 ADD SWAP1 DUP2 MSTORE PUSH1 0x20 ADD PUSH0 KECCAK256 SLOAD SWAP1 POP SWAP2 SWAP1 POP JUMP JUMPDEST PUSH2 0x714 PUSH2 0x9F6 JUMP JUMPDEST PUSH2 0x71D PUSH0 PUSH2 0xC7F JUMP JUMPDEST JUMP JUMPDEST PUSH2 0x727 PUSH2 0x9F6 JUMP JUMPDEST PUSH0 PUSH1 0x7 PUSH1 0x1 PUSH2 0x100 EXP DUP2 SLOAD DUP2 PUSH1 0xFF MUL NOT AND SWAP1 DUP4 ISZERO ISZERO MUL OR SWAP1 SSTORE POP JUMP JUMPDEST PUSH2 0x755 DUP3 PUSH2 0x74F PUSH2 0x9DD JUMP JUMPDEST DUP4 PUSH2 0xA7D JUMP JUMPDEST PUSH2 0x75F DUP3 DUP3 PUSH2 0xC00 JUMP JUMPDEST POP POP JUMP JUMPDEST PUSH0 PUSH1 0x5 PUSH0 SWAP1 SLOAD SWAP1 PUSH2 0x100 EXP SWAP1 DIV PUSH20 0xFFFFFFFFFFFFFFFFFFFFFFFFFFFFFFFFFFFFFFFF AND SWAP1 POP SWAP1 JUMP JUMPDEST PUSH1 0x60 PUSH1 0x4 DUP1 SLOAD PUSH2 0x79A SWAP1 PUSH2 0x1798 JUMP JUMPDEST DUP1 PUSH1 0x1F ADD PUSH1 0x20 DUP1 SWAP2 DIV MUL PUSH1 0x20 ADD PUSH1 0x40 MLOAD SWAP1 DUP2 ADD PUSH1 0x40 MSTORE DUP1 SWAP3 SWAP2 SWAP1 DUP2 DUP2 MSTORE PUSH1 0x20 ADD DUP3 DUP1 SLOAD PUSH2 0x7C6 SWAP1 PUSH2 0x1798 JUMP JUMPDEST DUP1 ISZERO PUSH2 0x811 JUMPI DUP1 PUSH1 0x1F LT PUSH2 0x7E8 JUMPI PUSH2 0x100 DUP1 DUP4 SLOAD DIV MUL DUP4 MSTORE SWAP2 PUSH1 0x20 ADD SWAP2 PUSH2 0x811 JUMP JUMPDEST DUP3 ADD SWAP2 SWAP1 PUSH0 MSTORE PUSH1 0x20 PUSH0 KECCAK256 SWAP1 JUMPDEST DUP2 SLOAD DUP2 MSTORE SWAP1 PUSH1 0x1 ADD SWAP1 PUSH1 0x20 ADD DUP1 DUP4 GT PUSH2 0x7F4 JUMPI DUP3 SWAP1 SUB PUSH1 0x1F AND DUP3 ADD SWAP2 JUMPDEST POP POP POP POP POP SWAP1 POP SWAP1 JUMP JUMPDEST PUSH0 PUSH0 PUSH2 0x825 PUSH2 0x9DD JUMP JUMPDEST SWAP1 POP PUSH2 0x832 DUP2 DUP6 DUP6 PUSH2 0xB10 JUMP JUMPDEST PUSH1 0x1 SWAP2 POP POP SWAP3 SWAP2 POP POP JUMP JUMPDEST PUSH2 0x845 PUSH2 0x9F6 JUMP JUMPDEST PUSH1 0x7 PUSH1 0x1 SWAP1 SLOAD SWAP1 PUSH2 0x100 EXP SWAP1 DIV PUSH1 0xFF AND PUSH2 0x88B JUMPI PUSH1 0x40 MLOAD PUSH32 0x4CA4C06C00000000000000000000000000000000000000000000000000000000 DUP2 MSTORE PUSH1 0x4 ADD PUSH1 0x40 MLOAD DUP1 SWAP2 SUB SWAP1 REVERT JUMPDEST PUSH8 0xDE0B6B3A7640000 DUP2 PUSH2 0x89F SWAP2 SWAP1 PUSH2 0x17F5 JUMP JUMPDEST PUSH1 0x6 DUP2 SWAP1 SSTORE POP POP JUMP JUMPDEST PUSH1 0x8 PUSH1 0x20 MSTORE DUP1 PUSH0 MSTORE PUSH1 0x40 PUSH0 KECCAK256 PUSH0 SWAP2 POP SLOAD SWAP1 PUSH2 0x100 EXP SWAP1 DIV PUSH1 0xFF AND DUP2 JUMP JUMPDEST PUSH0 PUSH1 0x1 PUSH0 DUP5 PUSH20 0xFFFFFFFFFFFFFFFFFFFFFFFFFFFFFFFFFFFFFFFF AND PUSH20 0xFFFFFFFFFFFFFFFFFFFFFFFFFFFFFFFFFFFFFFFF AND DUP2 MSTORE PUSH1 0x20 ADD SWAP1 DUP2 MSTORE PUSH1 0x20 ADD PUSH0 KECCAK256 PUSH0 DUP4 PUSH20 0xFFFFFFFFFFFFFFFFFFFFFFFFFFFFFFFFFFFFFFFF AND PUSH20 0xFFFFFFFFFFFFFFFFFFFFFFFFFFFFFFFFFFFFFFFF AND DUP2 MSTORE PUSH1 0x20 ADD SWAP1 DUP2 MSTORE PUSH1 0x20 ADD PUSH0 KECCAK256 SLOAD SWAP1 POP SWAP3 SWAP2 POP POP JUMP JUMPDEST PUSH2 0x94F PUSH2 0x9F6 JUMP JUMPDEST PUSH0 PUSH20 0xFFFFFFFFFFFFFFFFFFFFFFFFFFFFFFFFFFFFFFFF AND DUP2 PUSH20 0xFFFFFFFFFFFFFFFFFFFFFFFFFFFFFFFFFFFFFFFF AND SUB PUSH2 0x9BF JUMPI PUSH0 PUSH1 0x40 MLOAD PUSH32 0x1E4FBDF700000000000000000000000000000000000000000000000000000000 DUP2 MSTORE PUSH1 0x4 ADD PUSH2 0x9B6 SWAP2 SWAP1 PUSH2 0x1714 JUMP JUMPDEST PUSH1 0x40 MLOAD DUP1 SWAP2 SUB SWAP1 REVERT JUMPDEST PUSH2 0x9C8 DUP2 PUSH2 0xC7F JUMP JUMPDEST POP JUMP JUMPDEST PUSH1 0x7 PUSH0 SWAP1 SLOAD SWAP1 PUSH2 0x100 EXP SWAP1 DIV PUSH1 0xFF AND DUP2 JUMP JUMPDEST PUSH0 CALLER SWAP1 POP SWAP1 JUMP JUMPDEST PUSH2 0x9F1 DUP4 DUP4 DUP4 PUSH1 0x1 PUSH2 0xD42 JUMP JUMPDEST POP POP POP JUMP JUMPDEST PUSH2 0x9FE PUSH2 0x9DD JUMP JUMPDEST PUSH20 0xFFFFFFFFFFFFFFFFFFFFFFFFFFFFFFFFFFFFFFFF AND PUSH2 0xA1C PUSH2 0x763 JUMP JUMPDEST PUSH20 0xFFFFFFFFFFFFFFFFFFFFFFFFFFFFFFFFFFFFFFFF AND EQ PUSH2 0xA7B JUMPI PUSH2 0xA3F PUSH2 0x9DD JUMP JUMPDEST PUSH1 0x40 MLOAD PUSH32 0x118CDAA700000000000000000000000000000000000000000000000000000000 DUP2 MSTORE PUSH1 0x4 ADD PUSH2 0xA72 SWAP2 SWAP1 PUSH2 0x1714 JUMP JUMPDEST PUSH1 0x40 MLOAD DUP1 SWAP2 SUB SWAP1 REVERT JUMPDEST JUMP JUMPDEST PUSH0 PUSH2 0xA88 DUP5 DUP5 PUSH2 0x8C5 JUMP JUMPDEST SWAP1 POP PUSH32 0xFFFFFFFFFFFFFFFFFFFFFFFFFFFFFFFFFFFFFFFFFFFFFFFFFFFFFFFFFFFFFFFF DUP2 LT ISZERO PUSH2 0xB0A JUMPI DUP2 DUP2 LT ISZERO PUSH2 0xAFB JUMPI DUP3 DUP2 DUP4 PUSH1 0x40 MLOAD PUSH32 0xFB8F41B200000000000000000000000000000000000000000000000000000000 DUP2 MSTORE PUSH1 0x4 ADD PUSH2 0xAF2 SWAP4 SWAP3 SWAP2 SWAP1 PUSH2 0x1836 JUMP JUMPDEST PUSH1 0x40 MLOAD DUP1 SWAP2 SUB SWAP1 REVERT JUMPDEST PUSH2 0xB09 DUP5 DUP5 DUP5 DUP5 SUB PUSH0 PUSH2 0xD42 JUMP JUMPDEST JUMPDEST POP POP POP POP JUMP JUMPDEST PUSH0 PUSH20 0xFFFFFFFFFFFFFFFFFFFFFFFFFFFFFFFFFFFFFFFF AND DUP4 PUSH20 0xFFFFFFFFFFFFFFFFFFFFFFFFFFFFFFFFFFFFFFFF AND SUB PUSH2 0xB80 JUMPI PUSH0 PUSH1 0x40 MLOAD PUSH32 0x96C6FD1E00000000000000000000000000000000000000000000000000000000 DUP2 MSTORE PUSH1 0x4 ADD PUSH2 0xB77 SWAP2 SWAP1 PUSH2 0x1714 JUMP JUMPDEST PUSH1 0x40 MLOAD DUP1 SWAP2 SUB SWAP1 REVERT JUMPDEST PUSH0 PUSH20 0xFFFFFFFFFFFFFFFFFFFFFFFFFFFFFFFFFFFFFFFF AND DUP3 PUSH20 0xFFFFFFFFFFFFFFFFFFFFFFFFFFFFFFFFFFFFFFFF AND SUB PUSH2 0xBF0 JUMPI PUSH0 PUSH1 0x40 MLOAD PUSH32 0xEC442F0500000000000000000000000000000000000000000000000000000000 DUP2 MSTORE PUSH1 0x4 ADD PUSH2 0xBE7 SWAP2 SWAP1 PUSH2 0x1714 JUMP JUMPDEST PUSH1 0x40 MLOAD DUP1 SWAP2 SUB SWAP1 REVERT JUMPDEST PUSH2 0xBFB DUP4 DUP4 DUP4 PUSH2 0xF11 JUMP JUMPDEST POP POP POP JUMP JUMPDEST PUSH0 PUSH20 0xFFFFFFFFFFFFFFFFFFFFFFFFFFFFFFFFFFFFFFFF AND DUP3 PUSH20 0xFFFFFFFFFFFFFFFFFFFFFFFFFFFFFFFFFFFFFFFF AND SUB PUSH2 0xC70 JUMPI PUSH0 PUSH1 0x40 MLOAD PUSH32 0x96C6FD1E00000000000000000000000000000000000000000000000000000000 DUP2 MSTORE PUSH1 0x4 ADD PUSH2 0xC67 SWAP2 SWAP1 PUSH2 0x1714 JUMP JUMPDEST PUSH1 0x40 MLOAD DUP1 SWAP2 SUB SWAP1 REVERT JUMPDEST PUSH2 0xC7B DUP3 PUSH0 DUP4 PUSH2 0xF11 JUMP JUMPDEST POP POP JUMP JUMPDEST PUSH0 PUSH1 0x5 PUSH0 SWAP1 SLOAD SWAP1 PUSH2 0x100 EXP SWAP1 DIV PUSH20 0xFFFFFFFFFFFFFFFFFFFFFFFFFFFFFFFFFFFFFFFF AND SWAP1 POP DUP2 PUSH1 0x5 PUSH0 PUSH2 0x100 EXP DUP2 SLOAD DUP2 PUSH20 0xFFFFFFFFFFFFFFFFFFFFFFFFFFFFFFFFFFFFFFFF MUL NOT AND SWAP1 DUP4 PUSH20 0xFFFFFFFFFFFFFFFFFFFFFFFFFFFFFFFFFFFFFFFF AND MUL OR SWAP1 SSTORE POP DUP2 PUSH20 0xFFFFFFFFFFFFFFFFFFFFFFFFFFFFFFFFFFFFFFFF AND DUP2 PUSH20 0xFFFFFFFFFFFFFFFFFFFFFFFFFFFFFFFFFFFFFFFF AND PUSH32 0x8BE0079C531659141344CD1FD0A4F28419497F9722A3DAAFE3B4186F6B6457E0 PUSH1 0x40 MLOAD PUSH1 0x40 MLOAD DUP1 SWAP2 SUB SWAP1 LOG3 POP POP JUMP JUMPDEST PUSH0 PUSH20 0xFFFFFFFFFFFFFFFFFFFFFFFFFFFFFFFFFFFFFFFF AND DUP5 PUSH20 0xFFFFFFFFFFFFFFFFFFFFFFFFFFFFFFFFFFFFFFFF AND SUB PUSH2 0xDB2 JUMPI PUSH0 PUSH1 0x40 MLOAD PUSH32 0xE602DF0500000000000000000000000000000000000000000000000000000000 DUP2 MSTORE PUSH1 0x4 ADD PUSH2 0xDA9 SWAP2 SWAP1 PUSH2 0x1714 JUMP JUMPDEST PUSH1 0x40 MLOAD DUP1 SWAP2 SUB SWAP1 REVERT JUMPDEST PUSH0 PUSH20 0xFFFFFFFFFFFFFFFFFFFFFFFFFFFFFFFFFFFFFFFF AND DUP4 PUSH20 0xFFFFFFFFFFFFFFFFFFFFFFFFFFFFFFFFFFFFFFFF AND SUB PUSH2 0xE22 JUMPI PUSH0 PUSH1 0x40 MLOAD PUSH32 0x94280D6200000000000000000000000000000000000000000000000000000000 DUP2 MSTORE PUSH1 0x4 ADD PUSH2 0xE19 SWAP2 SWAP1 PUSH2 0x1714 JUMP JUMPDEST PUSH1 0x40 MLOAD DUP1 SWAP2 SUB SWAP1 REVERT JUMPDEST DUP2 PUSH1 0x1 PUSH0 DUP7 PUSH20 0xFFFFFFFFFFFFFFFFFFFFFFFFFFFFFFFFFFFFFFFF AND PUSH20 0xFFFFFFFFFFFFFFFFFFFFFFFFFFFFFFFFFFFFFFFF AND DUP2 MSTORE PUSH1 0x20 ADD SWAP1 DUP2 MSTORE PUSH1 0x20 ADD PUSH0 KECCAK256 PUSH0 DUP6 PUSH20 0xFFFFFFFFFFFFFFFFFFFFFFFFFFFFFFFFFFFFFFFF AND PUSH20 0xFFFFFFFFFFFFFFFFFFFFFFFFFFFFFFFFFFFFFFFF AND DUP2 MSTORE PUSH1 0x20 ADD SWAP1 DUP2 MSTORE PUSH1 0x20 ADD PUSH0 KECCAK256 DUP2 SWAP1 SSTORE POP DUP1 ISZERO PUSH2 0xF0B JUMPI DUP3 PUSH20 0xFFFFFFFFFFFFFFFFFFFFFFFFFFFFFFFFFFFFFFFF AND DUP5 PUSH20 0xFFFFFFFFFFFFFFFFFFFFFFFFFFFFFFFFFFFFFFFF AND PUSH32 0x8C5BE1E5EBEC7D5BD14F71427D1E84F3DD0314C0F7B2291E5B200AC8C7C3B925 DUP5 PUSH1 0x40 MLOAD PUSH2 0xF02 SWAP2 SWAP1 PUSH2 0x1612 JUMP JUMPDEST PUSH1 0x40 MLOAD DUP1 SWAP2 SUB SWAP1 LOG3 JUMPDEST POP POP POP POP JUMP JUMPDEST PUSH0 PUSH20 0xFFFFFFFFFFFFFFFFFFFFFFFFFFFFFFFFFFFFFFFF AND DUP4 PUSH20 0xFFFFFFFFFFFFFFFFFFFFFFFFFFFFFFFFFFFFFFFF AND EQ DUP1 PUSH2 0xF76 JUMPI POP PUSH0 PUSH20 0xFFFFFFFFFFFFFFFFFFFFFFFFFFFFFFFFFFFFFFFF AND DUP3 PUSH20 0xFFFFFFFFFFFFFFFFFFFFFFFFFFFFFFFFFFFFFFFF AND EQ JUMPDEST DUP1 PUSH2 0xFC7 JUMPI POP PUSH1 0x9 PUSH0 DUP5 PUSH20 0xFFFFFFFFFFFFFFFFFFFFFFFFFFFFFFFFFFFFFFFF AND PUSH20 0xFFFFFFFFFFFFFFFFFFFFFFFFFFFFFFFFFFFFFFFF AND DUP2 MSTORE PUSH1 0x20 ADD SWAP1 DUP2 MSTORE PUSH1 0x20 ADD PUSH0 KECCAK256 PUSH0 SWAP1 SLOAD SWAP1 PUSH2 0x100 EXP SWAP1 DIV PUSH1 0xFF AND JUMPDEST DUP1 PUSH2 0x1018 JUMPI POP PUSH1 0x9 PUSH0 DUP4 PUSH20 0xFFFFFFFFFFFFFFFFFFFFFFFFFFFFFFFFFFFFFFFF AND PUSH20 0xFFFFFFFFFFFFFFFFFFFFFFFFFFFFFFFFFFFFFFFF AND DUP2 MSTORE PUSH1 0x20 ADD SWAP1 DUP2 MSTORE PUSH1 0x20 ADD PUSH0 KECCAK256 PUSH0 SWAP1 SLOAD SWAP1 PUSH2 0x100 EXP SWAP1 DIV PUSH1 0xFF AND JUMPDEST ISZERO PUSH2 0x102D JUMPI PUSH2 0x1028 DUP4 DUP4 DUP4 PUSH2 0x11F0 JUMP JUMPDEST PUSH2 0x11EB JUMP JUMPDEST PUSH1 0x7 PUSH0 SWAP1 SLOAD SWAP1 PUSH2 0x100 EXP SWAP1 DIV PUSH1 0xFF AND PUSH2 0x1072 JUMPI PUSH1 0x40 MLOAD PUSH32 0xE2C865DF00000000000000000000000000000000000000000000000000000000 DUP2 MSTORE PUSH1 0x4 ADD PUSH1 0x40 MLOAD DUP1 SWAP2 SUB SWAP1 REVERT JUMPDEST PUSH1 0x8 PUSH0 DUP5 PUSH20 0xFFFFFFFFFFFFFFFFFFFFFFFFFFFFFFFFFFFFFFFF AND PUSH20 0xFFFFFFFFFFFFFFFFFFFFFFFFFFFFFFFFFFFFFFFF AND DUP2 MSTORE PUSH1 0x20 ADD SWAP1 DUP2 MSTORE PUSH1 0x20 ADD PUSH0 KECCAK256 PUSH0 SWAP1 SLOAD SWAP1 PUSH2 0x100 EXP SWAP1 DIV PUSH1 0xFF AND DUP1 PUSH2 0x110D JUMPI POP PUSH1 0x8 PUSH0 DUP4 PUSH20 0xFFFFFFFFFFFFFFFFFFFFFFFFFFFFFFFFFFFFFFFF AND PUSH20 0xFFFFFFFFFFFFFFFFFFFFFFFFFFFFFFFFFFFFFFFF AND DUP2 MSTORE PUSH1 0x20 ADD SWAP1 DUP2 MSTORE PUSH1 0x20 ADD PUSH0 KECCAK256 PUSH0 SWAP1 SLOAD SWAP1 PUSH2 0x100 EXP SWAP1 DIV PUSH1 0xFF AND JUMPDEST ISZERO PUSH2 0x1144 JUMPI PUSH1 0x40 MLOAD PUSH32 0x9550C7700000000000000000000000000000000000000000000000000000000 DUP2 MSTORE PUSH1 0x4 ADD PUSH1 0x40 MLOAD DUP1 SWAP2 SUB SWAP1 REVERT JUMPDEST PUSH1 0x7 PUSH1 0x1 SWAP1 SLOAD SWAP1 PUSH2 0x100 EXP SWAP1 DIV PUSH1 0xFF AND ISZERO PUSH2 0x11DF JUMPI PUSH0 PUSH1 0x6 SLOAD SWAP1 POP DUP1 DUP3 GT ISZERO PUSH2 0x1199 JUMPI PUSH1 0x40 MLOAD PUSH32 0x8D35786200000000000000000000000000000000000000000000000000000000 DUP2 MSTORE PUSH1 0x4 ADD PUSH1 0x40 MLOAD DUP1 SWAP2 SUB SWAP1 REVERT JUMPDEST DUP1 DUP3 PUSH2 0x11A4 DUP6 PUSH2 0x6C7 JUMP JUMPDEST ADD GT ISZERO PUSH2 0x11DD JUMPI PUSH1 0x40 MLOAD PUSH32 0x5426A58000000000000000000000000000000000000000000000000000000000 DUP2 MSTORE PUSH1 0x4 ADD PUSH1 0x40 MLOAD DUP1 SWAP2 SUB SWAP1 REVERT JUMPDEST POP JUMPDEST PUSH2 0x11EA DUP4 DUP4 DUP4 PUSH2 0x11F0 JUMP JUMPDEST JUMPDEST POP POP POP JUMP JUMPDEST PUSH0 PUSH20 0xFFFFFFFFFFFFFFFFFFFFFFFFFFFFFFFFFFFFFFFF AND DUP4 PUSH20 0xFFFFFFFFFFFFFFFFFFFFFFFFFFFFFFFFFFFFFFFF AND SUB PUSH2 0x1240 JUMPI DUP1 PUSH1 0x2 PUSH0 DUP3 DUP3 SLOAD PUSH2 0x1234 SWAP2 SWAP1 PUSH2 0x186B JUMP JUMPDEST SWAP3 POP POP DUP2 SWAP1 SSTORE POP PUSH2 0x130E JUMP JUMPDEST PUSH0 PUSH0 PUSH0 DUP6 PUSH20 0xFFFFFFFFFFFFFFFFFFFFFFFFFFFFFFFFFFFFFFFF AND PUSH20 0xFFFFFFFFFFFFFFFFFFFFFFFFFFFFFFFFFFFFFFFF AND DUP2 MSTORE PUSH1 0x20 ADD SWAP1 DUP2 MSTORE PUSH1 0x20 ADD PUSH0 KECCAK256 SLOAD SWAP1 POP DUP2 DUP2 LT ISZERO PUSH2 0x12C9 JUMPI DUP4 DUP2 DUP4 PUSH1 0x40 MLOAD PUSH32 0xE450D38C00000000000000000000000000000000000000000000000000000000 DUP2 MSTORE PUSH1 0x4 ADD PUSH2 0x12C0 SWAP4 SWAP3 SWAP2 SWAP1 PUSH2 0x1836 JUMP JUMPDEST PUSH1 0x40 MLOAD DUP1 SWAP2 SUB SWAP1 REVERT JUMPDEST DUP2 DUP2 SUB PUSH0 PUSH0 DUP7 PUSH20 0xFFFFFFFFFFFFFFFFFFFFFFFFFFFFFFFFFFFFFFFF AND PUSH20 0xFFFFFFFFFFFFFFFFFFFFFFFFFFFFFFFFFFFFFFFF AND DUP2 MSTORE PUSH1 0x20 ADD SWAP1 DUP2 MSTORE PUSH1 0x20 ADD PUSH0 KECCAK256 DUP2 SWAP1 SSTORE POP POP JUMPDEST PUSH0 PUSH20 0xFFFFFFFFFFFFFFFFFFFFFFFFFFFFFFFFFFFFFFFF AND DUP3 PUSH20 0xFFFFFFFFFFFFFFFFFFFFFFFFFFFFFFFFFFFFFFFF AND SUB PUSH2 0x1355 JUMPI DUP1 PUSH1 0x2 PUSH0 DUP3 DUP3 SLOAD SUB SWAP3 POP POP DUP2 SWAP1 SSTORE POP PUSH2 0x139F JUMP JUMPDEST DUP1 PUSH0 PUSH0 DUP5 PUSH20 0xFFFFFFFFFFFFFFFFFFFFFFFFFFFFFFFFFFFFFFFF AND PUSH20 0xFFFFFFFFFFFFFFFFFFFFFFFFFFFFFFFFFFFFFFFF AND DUP2 MSTORE PUSH1 0x20 ADD SWAP1 DUP2 MSTORE PUSH1 0x20 ADD PUSH0 KECCAK256 PUSH0 DUP3 DUP3 SLOAD ADD SWAP3 POP POP DUP2 SWAP1 SSTORE POP JUMPDEST DUP2 PUSH20 0xFFFFFFFFFFFFFFFFFFFFFFFFFFFFFFFFFFFFFFFF AND DUP4 PUSH20 0xFFFFFFFFFFFFFFFFFFFFFFFFFFFFFFFFFFFFFFFF AND PUSH32 0xDDF252AD1BE2C89B69C2B068FC378DAA952BA7F163C4A11628F55A4DF523B3EF DUP4 PUSH1 0x40 MLOAD PUSH2 0x13FC SWAP2 SWAP1 PUSH2 0x1612 JUMP JUMPDEST PUSH1 0x40 MLOAD DUP1 SWAP2 SUB SWAP1 LOG3 POP POP POP JUMP JUMPDEST PUSH0 DUP2 MLOAD SWAP1 POP SWAP2 SWAP1 POP JUMP JUMPDEST PUSH0 DUP3 DUP3 MSTORE PUSH1 0x20 DUP3 ADD SWAP1 POP SWAP3 SWAP2 POP POP JUMP JUMPDEST DUP3 DUP2 DUP4 MCOPY PUSH0 DUP4 DUP4 ADD MSTORE POP POP POP JUMP JUMPDEST PUSH0 PUSH1 0x1F NOT PUSH1 0x1F DUP4 ADD AND SWAP1 POP SWAP2 SWAP1 POP JUMP JUMPDEST PUSH0 PUSH2 0x144B DUP3 PUSH2 0x1409 JUMP JUMPDEST PUSH2 0x1455 DUP2 DUP6 PUSH2 0x1413 JUMP JUMPDEST SWAP4 POP PUSH2 0x1465 DUP2 DUP6 PUSH1 0x20 DUP7 ADD PUSH2 0x1423 JUMP JUMPDEST PUSH2 0x146E DUP2 PUSH2 0x1431 JUMP JUMPDEST DUP5 ADD SWAP2 POP POP SWAP3 SWAP2 POP POP JUMP JUMPDEST PUSH0 PUSH1 0x20 DUP3 ADD SWAP1 POP DUP2 DUP2 SUB PUSH0 DUP4 ADD MSTORE PUSH2 0x1491 DUP2 DUP5 PUSH2 0x1441 JUMP JUMPDEST SWAP1 POP SWAP3 SWAP2 POP POP JUMP JUMPDEST PUSH0 PUSH0 REVERT JUMPDEST PUSH0 PUSH20 0xFFFFFFFFFFFFFFFFFFFFFFFFFFFFFFFFFFFFFFFF DUP3 AND SWAP1 POP SWAP2 SWAP1 POP JUMP JUMPDEST PUSH0 PUSH2 0x14C6 DUP3 PUSH2 0x149D JUMP JUMPDEST SWAP1 POP SWAP2 SWAP1 POP JUMP JUMPDEST PUSH2 0x14D6 DUP2 PUSH2 0x14BC JUMP JUMPDEST DUP2 EQ PUSH2 0x14E0 JUMPI PUSH0 PUSH0 REVERT JUMPDEST POP JUMP JUMPDEST PUSH0 DUP2 CALLDATALOAD SWAP1 POP PUSH2 0x14F1 DUP2 PUSH2 0x14CD JUMP JUMPDEST SWAP3 SWAP2 POP POP JUMP JUMPDEST PUSH0 DUP2 SWAP1 POP SWAP2 SWAP1 POP JUMP JUMPDEST PUSH2 0x1509 DUP2 PUSH2 0x14F7 JUMP JUMPDEST DUP2 EQ PUSH2 0x1513 JUMPI PUSH0 PUSH0 REVERT JUMPDEST POP JUMP JUMPDEST PUSH0 DUP2 CALLDATALOAD SWAP1 POP PUSH2 0x1524 DUP2 PUSH2 0x1500 JUMP JUMPDEST SWAP3 SWAP2 POP POP JUMP JUMPDEST PUSH0 PUSH0 PUSH1 0x40 DUP4 DUP6 SUB SLT ISZERO PUSH2 0x1540 JUMPI PUSH2 0x153F PUSH2 0x1499 JUMP JUMPDEST JUMPDEST PUSH0 PUSH2 0x154D DUP6 DUP3 DUP7 ADD PUSH2 0x14E3 JUMP JUMPDEST SWAP3 POP POP PUSH1 0x20 PUSH2 0x155E DUP6 DUP3 DUP7 ADD PUSH2 0x1516 JUMP JUMPDEST SWAP2 POP POP SWAP3 POP SWAP3 SWAP1 POP JUMP JUMPDEST PUSH0 DUP2 ISZERO ISZERO SWAP1 POP SWAP2 SWAP1 POP JUMP JUMPDEST PUSH2 0x157C DUP2 PUSH2 0x1568 JUMP JUMPDEST DUP3 MSTORE POP POP JUMP JUMPDEST PUSH0 PUSH1 0x20 DUP3 ADD SWAP1 POP PUSH2 0x1595 PUSH0 DUP4 ADD DUP5 PUSH2 0x1573 JUMP JUMPDEST SWAP3 SWAP2 POP POP JUMP JUMPDEST PUSH2 0x15A4 DUP2 PUSH2 0x1568 JUMP JUMPDEST DUP2 EQ PUSH2 0x15AE JUMPI PUSH0 PUSH0 REVERT JUMPDEST POP JUMP JUMPDEST PUSH0 DUP2 CALLDATALOAD SWAP1 POP PUSH2 0x15BF DUP2 PUSH2 0x159B JUMP JUMPDEST SWAP3 SWAP2 POP POP JUMP JUMPDEST PUSH0 PUSH0 PUSH1 0x40 DUP4 DUP6 SUB SLT ISZERO PUSH2 0x15DB JUMPI PUSH2 0x15DA PUSH2 0x1499 JUMP JUMPDEST JUMPDEST PUSH0 PUSH2 0x15E8 DUP6 DUP3 DUP7 ADD PUSH2 0x14E3 JUMP JUMPDEST SWAP3 POP POP PUSH1 0x20 PUSH2 0x15F9 DUP6 DUP3 DUP7 ADD PUSH2 0x15B1 JUMP JUMPDEST SWAP2 POP POP SWAP3 POP SWAP3 SWAP1 POP JUMP JUMPDEST PUSH2 0x160C DUP2 PUSH2 0x14F7 JUMP JUMPDEST DUP3 MSTORE POP POP JUMP JUMPDEST PUSH0 PUSH1 0x20 DUP3 ADD SWAP1 POP PUSH2 0x1625 PUSH0 DUP4 ADD DUP5 PUSH2 0x1603 JUMP JUMPDEST SWAP3 SWAP2 POP POP JUMP JUMPDEST PUSH0 PUSH0 PUSH0 PUSH1 0x60 DUP5 DUP7 SUB SLT ISZERO PUSH2 0x1642 JUMPI PUSH2 0x1641 PUSH2 0x1499 JUMP JUMPDEST JUMPDEST PUSH0 PUSH2 0x164F DUP7 DUP3 DUP8 ADD PUSH2 0x14E3 JUMP JUMPDEST SWAP4 POP POP PUSH1 0x20 PUSH2 0x1660 DUP7 DUP3 DUP8 ADD PUSH2 0x14E3 JUMP JUMPDEST SWAP3 POP POP PUSH1 0x40 PUSH2 0x1671 DUP7 DUP3 DUP8 ADD PUSH2 0x1516 JUMP JUMPDEST SWAP2 POP POP SWAP3 POP SWAP3 POP SWAP3 JUMP JUMPDEST PUSH0 PUSH1 0xFF DUP3 AND SWAP1 POP SWAP2 SWAP1 POP JUMP JUMPDEST PUSH2 0x1690 DUP2 PUSH2 0x167B JUMP JUMPDEST DUP3 MSTORE POP POP JUMP JUMPDEST PUSH0 PUSH1 0x20 DUP3 ADD SWAP1 POP PUSH2 0x16A9 PUSH0 DUP4 ADD DUP5 PUSH2 0x1687 JUMP JUMPDEST SWAP3 SWAP2 POP POP JUMP JUMPDEST PUSH0 PUSH1 0x20 DUP3 DUP5 SUB SLT ISZERO PUSH2 0x16C4 JUMPI PUSH2 0x16C3 PUSH2 0x1499 JUMP JUMPDEST JUMPDEST PUSH0 PUSH2 0x16D1 DUP5 DUP3 DUP6 ADD PUSH2 0x1516 JUMP JUMPDEST SWAP2 POP POP SWAP3 SWAP2 POP POP JUMP JUMPDEST PUSH0 PUSH1 0x20 DUP3 DUP5 SUB SLT ISZERO PUSH2 0x16EF JUMPI PUSH2 0x16EE PUSH2 0x1499 JUMP JUMPDEST JUMPDEST PUSH0 PUSH2 0x16FC DUP5 DUP3 DUP6 ADD PUSH2 0x14E3 JUMP JUMPDEST SWAP2 POP POP SWAP3 SWAP2 POP POP JUMP JUMPDEST PUSH2 0x170E DUP2 PUSH2 0x14BC JUMP JUMPDEST DUP3 MSTORE POP POP JUMP JUMPDEST PUSH0 PUSH1 0x20 DUP3 ADD SWAP1 POP PUSH2 0x1727 PUSH0 DUP4 ADD DUP5 PUSH2 0x1705 JUMP JUMPDEST SWAP3 SWAP2 POP POP JUMP JUMPDEST PUSH0 PUSH0 PUSH1 0x40 DUP4 DUP6 SUB SLT ISZERO PUSH2 0x1743 JUMPI PUSH2 0x1742 PUSH2 0x1499 JUMP JUMPDEST JUMPDEST PUSH0 PUSH2 0x1750 DUP6 DUP3 DUP7 ADD PUSH2 0x14E3 JUMP JUMPDEST SWAP3 POP POP PUSH1 0x20 PUSH2 0x1761 DUP6 DUP3 DUP7 ADD PUSH2 0x14E3 JUMP JUMPDEST SWAP2 POP POP SWAP3 POP SWAP3 SWAP1 POP JUMP JUMPDEST PUSH32 0x4E487B7100000000000000000000000000000000000000000000000000000000 PUSH0 MSTORE PUSH1 0x22 PUSH1 0x4 MSTORE PUSH1 0x24 PUSH0 REVERT JUMPDEST PUSH0 PUSH1 0x2 DUP3 DIV SWAP1 POP PUSH1 0x1 DUP3 AND DUP1 PUSH2 0x17AF JUMPI PUSH1 0x7F DUP3 AND SWAP2 POP JUMPDEST PUSH1 0x20 DUP3 LT DUP2 SUB PUSH2 0x17C2 JUMPI PUSH2 0x17C1 PUSH2 0x176B JUMP JUMPDEST JUMPDEST POP SWAP2 SWAP1 POP JUMP JUMPDEST PUSH32 0x4E487B7100000000000000000000000000000000000000000000000000000000 PUSH0 MSTORE PUSH1 0x11 PUSH1 0x4 MSTORE PUSH1 0x24 PUSH0 REVERT JUMPDEST PUSH0 PUSH2 0x17FF DUP3 PUSH2 0x14F7 JUMP JUMPDEST SWAP2 POP PUSH2 0x180A DUP4 PUSH2 0x14F7 JUMP JUMPDEST SWAP3 POP DUP3 DUP3 MUL PUSH2 0x1818 DUP2 PUSH2 0x14F7 JUMP JUMPDEST SWAP2 POP DUP3 DUP3 DIV DUP5 EQ DUP4 ISZERO OR PUSH2 0x182F JUMPI PUSH2 0x182E PUSH2 0x17C8 JUMP JUMPDEST JUMPDEST POP SWAP3 SWAP2 POP POP JUMP JUMPDEST PUSH0 PUSH1 0x60 DUP3 ADD SWAP1 POP PUSH2 0x1849 PUSH0 DUP4 ADD DUP7 PUSH2 0x1705 JUMP JUMPDEST PUSH2 0x1856 PUSH1 0x20 DUP4 ADD DUP6 PUSH2 0x1603 JUMP JUMPDEST PUSH2 0x1863 PUSH1 0x40 DUP4 ADD DUP5 PUSH2 0x1603 JUMP JUMPDEST SWAP5 SWAP4 POP POP POP POP JUMP JUMPDEST PUSH0 PUSH2 0x1875 DUP3 PUSH2 0x14F7 JUMP JUMPDEST SWAP2 POP PUSH2 0x1880 DUP4 PUSH2 0x14F7 JUMP JUMPDEST SWAP3 POP DUP3 DUP3 ADD SWAP1 POP DUP1 DUP3 GT ISZERO PUSH2 0x1898 JUMPI PUSH2 0x1897 PUSH2 0x17C8 JUMP JUMPDEST JUMPDEST SWAP3 SWAP2 POP POP JUMP INVALID LOG2 PUSH5 0x6970667358 0x22 SLT KECCAK256 0xDB PUSH32 0x8069888AF00347E969AEBA857EF80484AB718313A9A135F08DD6A4387CAA6473 PUSH16 0x6C634300082100330000000000000000 "
				},
				"gasEstimates": {
					"creation": {
						"codeDepositCost": "1271200",
						"executionCost": "infinite",
						"totalCost": "infinite"
					},
					"external": {
						"MAX_SUPPLY()": "436",
						"allowance(address,address)": "infinite",
						"approve(address,uint256)": "infinite",
						"balanceOf(address)": "2873",
						"blacklisted(address)": "2877",
						"burn(uint256)": "infinite",
						"burnFrom(address,uint256)": "infinite",
						"decimals()": "427",
						"excluded(address)": "2856",
						"limitsActive()": "2651",
						"maxLimit()": "2537",
						"name()": "infinite",
						"owner()": "2648",
						"removeLimits()": "infinite",
						"renounceOwnership()": "infinite",
						"setBlacklist(address,bool)": "infinite",
						"setExcluded(address,bool)": "infinite",
						"setMaxLimit(uint256)": "infinite",
						"startTrading()": "infinite",
						"symbol()": "infinite",
						"totalSupply()": "2522",
						"tradingOpen()": "2576",
						"transfer(address,uint256)": "infinite",
						"transferFrom(address,address,uint256)": "infinite",
						"transferOwnership(address)": "infinite"
					},
					"internal": {
						"_update(address,address,uint256)": "infinite"
					}
				},
				"methodIdentifiers": {
					"MAX_SUPPLY()": "32cb6b0c",
					"allowance(address,address)": "dd62ed3e",
					"approve(address,uint256)": "095ea7b3",
					"balanceOf(address)": "70a08231",
					"blacklisted(address)": "dbac26e9",
					"burn(uint256)": "42966c68",
					"burnFrom(address,uint256)": "79cc6790",
					"decimals()": "313ce567",
					"excluded(address)": "429cead1",
					"limitsActive()": "1cce34ee",
					"maxLimit()": "1a861d26",
					"name()": "06fdde03",
					"owner()": "8da5cb5b",
					"removeLimits()": "751039fc",
					"renounceOwnership()": "715018a6",
					"setBlacklist(address,bool)": "153b0d1e",
					"setExcluded(address,bool)": "2836be24",
					"setMaxLimit(uint256)": "bf8bcee4",
					"startTrading()": "293230b8",
					"symbol()": "95d89b41",
					"totalSupply()": "18160ddd",
					"tradingOpen()": "ffb54a99",
					"transfer(address,uint256)": "a9059cbb",
					"transferFrom(address,address,uint256)": "23b872dd",
					"transferOwnership(address)": "f2fde38b"
				}
			},
			"storageLayout": {
				"storage": [
					{
						"astId": 279,
						"contract": "Kash_flattened.sol:Kash",
						"label": "_balances",
						"offset": 0,
						"slot": "0",
						"type": "t_mapping(t_address,t_uint256)"
					},
					{
						"astId": 285,
						"contract": "Kash_flattened.sol:Kash",
						"label": "_allowances",
						"offset": 0,
						"slot": "1",
						"type": "t_mapping(t_address,t_mapping(t_address,t_uint256))"
					},
					{
						"astId": 287,
						"contract": "Kash_flattened.sol:Kash",
						"label": "_totalSupply",
						"offset": 0,
						"slot": "2",
						"type": "t_uint256"
					},
					{
						"astId": 289,
						"contract": "Kash_flattened.sol:Kash",
						"label": "_name",
						"offset": 0,
						"slot": "3",
						"type": "t_string_storage"
					},
					{
						"astId": 291,
						"contract": "Kash_flattened.sol:Kash",
						"label": "_symbol",
						"offset": 0,
						"slot": "4",
						"type": "t_string_storage"
					},
					{
						"astId": 818,
						"contract": "Kash_flattened.sol:Kash",
						"label": "_owner",
						"offset": 0,
						"slot": "5",
						"type": "t_address"
					},
					{
						"astId": 980,
						"contract": "Kash_flattened.sol:Kash",
						"label": "maxLimit",
						"offset": 0,
						"slot": "6",
						"type": "t_uint256"
					},
					{
						"astId": 982,
						"contract": "Kash_flattened.sol:Kash",
						"label": "tradingOpen",
						"offset": 0,
						"slot": "7",
						"type": "t_bool"
					},
					{
						"astId": 985,
						"contract": "Kash_flattened.sol:Kash",
						"label": "limitsActive",
						"offset": 1,
						"slot": "7",
						"type": "t_bool"
					},
					{
						"astId": 989,
						"contract": "Kash_flattened.sol:Kash",
						"label": "blacklisted",
						"offset": 0,
						"slot": "8",
						"type": "t_mapping(t_address,t_bool)"
					},
					{
						"astId": 993,
						"contract": "Kash_flattened.sol:Kash",
						"label": "excluded",
						"offset": 0,
						"slot": "9",
						"type": "t_mapping(t_address,t_bool)"
					}
				],
				"types": {
					"t_address": {
						"encoding": "inplace",
						"label": "address",
						"numberOfBytes": "20"
					},
					"t_bool": {
						"encoding": "inplace",
						"label": "bool",
						"numberOfBytes": "1"
					},
					"t_mapping(t_address,t_bool)": {
						"encoding": "mapping",
						"key": "t_address",
						"label": "mapping(address => bool)",
						"numberOfBytes": "32",
						"value": "t_bool"
					},
					"t_mapping(t_address,t_mapping(t_address,t_uint256))": {
						"encoding": "mapping",
						"key": "t_address",
						"label": "mapping(address => mapping(address => uint256))",
						"numberOfBytes": "32",
						"value": "t_mapping(t_address,t_uint256)"
					},
					"t_mapping(t_address,t_uint256)": {
						"encoding": "mapping",
						"key": "t_address",
						"label": "mapping(address => uint256)",
						"numberOfBytes": "32",
						"value": "t_uint256"
					},
					"t_string_storage": {
						"encoding": "bytes",
						"label": "string",
						"numberOfBytes": "32"
					},
					"t_uint256": {
						"encoding": "inplace",
						"label": "uint256",
						"numberOfBytes": "32"
					}
				}
			},
			"userdoc": {
				"kind": "user",
				"methods": {},
				"version": 1
			}
		}
	}
}