{
	"kcash_flattened.sol": {
		"Kcash": {
			"abi": [
				{
					"inputs": [],
					"stateMutability": "nonpayable",
					"type": "constructor"
				},
				{
					"inputs": [
						{
							"internalType": "address",
							"name": "spender",
							"type": "address"
						},
						{
							"internalType": "uint256",
							"name": "allowance",
							"type": "uint256"
						},
						{
							"internalType": "uint256",
							"name": "needed",
							"type": "uint256"
						}
					],
					"name": "ERC20InsufficientAllowance",
					"type": "error"
				},
				{
					"inputs": [
						{
							"internalType": "address",
							"name": "sender",
							"type": "address"
						},
						{
							"internalType": "uint256",
							"name": "balance",
							"type": "uint256"
						},
						{
							"internalType": "uint256",
							"name": "needed",
							"type": "uint256"
						}
					],
					"name": "ERC20InsufficientBalance",
					"type": "error"
				},
				{
					"inputs": [
						{
							"internalType": "address",
							"name": "approver",
							"type": "address"
						}
					],
					"name": "ERC20InvalidApprover",
					"type": "error"
				},
				{
					"inputs": [
						{
							"internalType": "address",
							"name": "receiver",
							"type": "address"
						}
					],
					"name": "ERC20InvalidReceiver",
					"type": "error"
				},
				{
					"inputs": [
						{
							"internalType": "address",
							"name": "sender",
							"type": "address"
						}
					],
					"name": "ERC20InvalidSender",
					"type": "error"
				},
				{
					"inputs": [
						{
							"internalType": "address",
							"name": "spender",
							"type": "address"
						}
					],
					"name": "ERC20InvalidSpender",
					"type": "error"
				},
				{
					"inputs": [
						{
							"internalType": "address",
							"name": "owner",
							"type": "address"
						}
					],
					"name": "OwnableInvalidOwner",
					"type": "error"
				},
				{
					"inputs": [
						{
							"internalType": "address",
							"name": "account",
							"type": "address"
						}
					],
					"name": "OwnableUnauthorizedAccount",
					"type": "error"
				},
				{
					"anonymous": false,
					"inputs": [
						{
							"indexed": true,
							"internalType": "address",
							"name": "owner",
							"type": "address"
						},
						{
							"indexed": true,
							"internalType": "address",
							"name": "spender",
							"type": "address"
						},
						{
							"indexed": false,
							"internalType": "uint256",
							"name": "value",
							"type": "uint256"
						}
					],
					"name": "Approval",
					"type": "event"
				},
				{
					"anonymous": false,
					"inputs": [
						{
							"indexed": true,
							"internalType": "address",
							"name": "previousOwner",
							"type": "address"
						},
						{
							"indexed": true,
							"internalType": "address",
							"name": "newOwner",
							"type": "address"
						}
					],
					"name": "OwnershipTransferred",
					"type": "event"
				},
				{
					"anonymous": false,
					"inputs": [
						{
							"indexed": true,
							"internalType": "address",
							"name": "from",
							"type": "address"
						},
						{
							"indexed": true,
							"internalType": "address",
							"name": "to",
							"type": "address"
						},
						{
							"indexed": false,
							"internalType": "uint256",
							"name": "value",
							"type": "uint256"
						}
					],
					"name": "Transfer",
					"type": "event"
				},
				{
					"inputs": [
						{
							"internalType": "address",
							"name": "owner",
							"type": "address"
						},
						{
							"internalType": "address",
							"name": "spender",
							"type": "address"
						}
					],
					"name": "allowance",
					"outputs": [
						{
							"internalType": "uint256",
							"name": "",
							"type": "uint256"
						}
					],
					"stateMutability": "view",
					"type": "function"
				},
				{
					"inputs": [
						{
							"internalType": "address",
							"name": "spender",
							"type": "address"
						},
						{
							"internalType": "uint256",
							"name": "value",
							"type": "uint256"
						}
					],
					"name": "approve",
					"outputs": [
						{
							"internalType": "bool",
							"name": "",
							"type": "bool"
						}
					],
					"stateMutability": "nonpayable",
					"type": "function"
				},
				{
					"inputs": [
						{
							"internalType": "address",
							"name": "account",
							"type": "address"
						}
					],
					"name": "balanceOf",
					"outputs": [
						{
							"internalType": "uint256",
							"name": "",
							"type": "uint256"
						}
					],
					"stateMutability": "view",
					"type": "function"
				},
				{
					"inputs": [],
					"name": "decimals",
					"outputs": [
						{
							"internalType": "uint8",
							"name": "",
							"type": "uint8"
						}
					],
					"stateMutability": "view",
					"type": "function"
				},
				{
					"inputs": [],
					"name": "name",
					"outputs": [
						{
							"internalType": "string",
							"name": "",
							"type": "string"
						}
					],
					"stateMutability": "view",
					"type": "function"
				},
				{
					"inputs": [],
					"name": "owner",
					"outputs": [
						{
							"internalType": "address",
							"name": "",
							"type": "address"
						}
					],
					"stateMutability": "view",
					"type": "function"
				},
				{
					"inputs": [],
					"name": "renounceOwnership",
					"outputs": [],
					"stateMutability": "nonpayable",
					"type": "function"
				},
				{
					"inputs": [],
					"name": "symbol",
					"outputs": [
						{
							"internalType": "string",
							"name": "",
							"type": "string"
						}
					],
					"stateMutability": "view",
					"type": "function"
				},
				{
					"inputs": [],
					"name": "totalSupply",
					"outputs": [
						{
							"internalType": "uint256",
							"name": "",
							"type": "uint256"
						}
					],
					"stateMutability": "view",
					"type": "function"
				},
				{
					"inputs": [
						{
							"internalType": "address",
							"name": "to",
							"type": "address"
						},
						{
							"internalType": "uint256",
							"name": "value",
							"type": "uint256"
						}
					],
					"name": "transfer",
					"outputs": [
						{
							"internalType": "bool",
							"name": "",
							"type": "bool"
						}
					],
					"stateMutability": "nonpayable",
					"type": "function"
				},
				{
					"inputs": [
						{
							"internalType": "address",
							"name": "from",
							"type": "address"
						},
						{
							"internalType": "address",
							"name": "to",
							"type": "address"
						},
						{
							"internalType": "uint256",
							"name": "value",
							"type": "uint256"
						}
					],
					"name": "transferFrom",
					"outputs": [
						{
							"internalType": "bool",
							"name": "",
							"type": "bool"
						}
					],
					"stateMutability": "nonpayable",
					"type": "function"
				},
				{
					"inputs": [
						{
							"internalType": "address",
							"name": "newOwner",
							"type": "address"
						}
					],
					"name": "transferOwnership",
					"outputs": [],
					"stateMutability": "nonpayable",
					"type": "function"
				}
			],
			"devdoc": {
				"errors": {
					"ERC20InsufficientAllowance(address,uint256,uint256)": [
						{
							"details": "Indicates a failure with the `spender`’s `allowance`. Used in transfers.",
							"params": {
								"allowance": "Amount of tokens a `spender` is allowed to operate with.",
								"needed": "Minimum amount required to perform a transfer.",
								"spender": "Address that may be allowed to operate on tokens without being their owner."
							}
						}
					],
					"ERC20InsufficientBalance(address,uint256,uint256)": [
						{
							"details": "Indicates an error related to the current `balance` of a `sender`. Used in transfers.",
							"params": {
								"balance": "Current balance for the interacting account.",
								"needed": "Minimum amount required to perform a transfer.",
								"sender": "Address whose tokens are being transferred."
							}
						}
					],
					"ERC20InvalidApprover(address)": [
						{
							"details": "Indicates a failure with the `approver` of a token to be approved. Used in approvals.",
							"params": {
								"approver": "Address initiating an approval operation."
							}
						}
					],
					"ERC20InvalidReceiver(address)": [
						{
							"details": "Indicates a failure with the token `receiver`. Used in transfers.",
							"params": {
								"receiver": "Address to which tokens are being transferred."
							}
						}
					],
					"ERC20InvalidSender(address)": [
						{
							"details": "Indicates a failure with the token `sender`. Used in transfers.",
							"params": {
								"sender": "Address whose tokens are being transferred."
							}
						}
					],
					"ERC20InvalidSpender(address)": [
						{
							"details": "Indicates a failure with the `spender` to be approved. Used in approvals.",
							"params": {
								"spender": "Address that may be allowed to operate on tokens without being their owner."
							}
						}
					],
					"OwnableInvalidOwner(address)": [
						{
							"details": "The owner is not a valid owner account. (eg. `address(0)`)"
						}
					],
					"OwnableUnauthorizedAccount(address)": [
						{
							"details": "The caller account is not authorized to perform an operation."
						}
					]
				},
				"events": {
					"Approval(address,address,uint256)": {
						"details": "Emitted when the allowance of a `spender` for an `owner` is set by a call to {approve}. `value` is the new allowance."
					},
					"Transfer(address,address,uint256)": {
						"details": "Emitted when `value` tokens are moved from one account (`from`) to another (`to`). Note that `value` may be zero."
					}
				},
				"kind": "dev",
				"methods": {
					"allowance(address,address)": {
						"details": "Returns the remaining number of tokens that `spender` will be allowed to spend on behalf of `owner` through {transferFrom}. This is zero by default. This value changes when {approve} or {transferFrom} are called."
					},
					"approve(address,uint256)": {
						"details": "See {IERC20-approve}. NOTE: If `value` is the maximum `uint256`, the allowance is not updated on `transferFrom`. This is semantically equivalent to an infinite approval. Requirements: - `spender` cannot be the zero address."
					},
					"balanceOf(address)": {
						"details": "Returns the value of tokens owned by `account`."
					},
					"decimals()": {
						"details": "Returns the number of decimals used to get its user representation. For example, if `decimals` equals `2`, a balance of `505` tokens should be displayed to a user as `5.05` (`505 / 10 ** 2`). Tokens usually opt for a value of 18, imitating the relationship between Ether and Wei. This is the default value returned by this function, unless it's overridden. NOTE: This information is only used for _display_ purposes: it in no way affects any of the arithmetic of the contract, including {IERC20-balanceOf} and {IERC20-transfer}."
					},
					"name()": {
						"details": "Returns the name of the token."
					},
					"owner()": {
						"details": "Returns the address of the current owner."
					},
					"renounceOwnership()": {
						"details": "Leaves the contract without owner. It will not be possible to call `onlyOwner` functions. Can only be called by the current owner. NOTE: Renouncing ownership will leave the contract without an owner, thereby disabling any functionality that is only available to the owner."
					},
					"symbol()": {
						"details": "Returns the symbol of the token, usually a shorter version of the name."
					},
					"totalSupply()": {
						"details": "Returns the value of tokens in existence."
					},
					"transfer(address,uint256)": {
						"details": "See {IERC20-transfer}. Requirements: - `to` cannot be the zero address. - the caller must have a balance of at least `value`."
					},
					"transferFrom(address,address,uint256)": {
						"details": "See {IERC20-transferFrom}. Skips emitting an {Approval} event indicating an allowance update. This is not required by the ERC. See {xref-ERC20-_approve-address-address-uint256-bool-}[_approve]. NOTE: Does not update the allowance if the current allowance is the maximum `uint256`. Requirements: - `from` and `to` cannot be the zero address. - `from` must have a balance of at least `value`. - the caller must have allowance for ``from``'s tokens of at least `value`."
					},
					"transferOwnership(address)": {
						"details": "Transfers ownership of the contract to a new account (`newOwner`). Can only be called by the current owner."
					}
				},
				"version": 1
			},
			"evm": {
				"assembly": "    /* \"kcash_flattened.sol\":24874:25283  contract Kcash is ERC20, Ownable {... */\n  mstore(0x40, 0x80)\n    /* \"kcash_flattened.sol\":25052:25281  constructor() ERC20(\"Kcash\", \"KASH\") Ownable(msg.sender) {... */\n  callvalue\n  dup1\n  iszero\n  tag_1\n  jumpi\n  revert(0x00, 0x00)\ntag_1:\n  pop\n    /* \"kcash_flattened.sol\":25097:25107  msg.sender */\n  caller\n    /* \"kcash_flattened.sol\":12481:12594  constructor(string memory name_, string memory symbol_) {... */\n  mload(0x40)\n  dup1\n  0x40\n  add\n  0x40\n  mstore\n  dup1\n  0x05\n  dup2\n  mstore\n  0x20\n  add\n  0x4b63617368000000000000000000000000000000000000000000000000000000\n  dup2\n  mstore\n  pop\n  mload(0x40)\n  dup1\n  0x40\n  add\n  0x40\n  mstore\n  dup1\n  0x04\n  dup2\n  mstore\n  0x20\n  add\n  0x4b41534800000000000000000000000000000000000000000000000000000000\n  dup2\n  mstore\n  pop\n    /* \"kcash_flattened.sol\":12555:12560  name_ */\n  dup2\n    /* \"kcash_flattened.sol\":12547:12552  _name */\n  0x03\n    /* \"kcash_flattened.sol\":12547:12560  _name = name_ */\n  swap1\n  dup2\n  tag_6\n  swap2\n  swap1\n  tag_7\n  jump\t// in\ntag_6:\n  pop\n    /* \"kcash_flattened.sol\":12580:12587  symbol_ */\n  dup1\n    /* \"kcash_flattened.sol\":12570:12577  _symbol */\n  0x04\n    /* \"kcash_flattened.sol\":12570:12587  _symbol = symbol_ */\n  swap1\n  dup2\n  tag_8\n  swap2\n  swap1\n  tag_7\n  jump\t// in\ntag_8:\n  pop\n    /* \"kcash_flattened.sol\":12481:12594  constructor(string memory name_, string memory symbol_) {... */\n  pop\n  pop\n    /* \"kcash_flattened.sol\":22971:22972  0 */\n  0x00\n    /* \"kcash_flattened.sol\":22947:22973  initialOwner == address(0) */\n  0xffffffffffffffffffffffffffffffffffffffff\n  and\n    /* \"kcash_flattened.sol\":22947:22959  initialOwner */\n  dup2\n    /* \"kcash_flattened.sol\":22947:22973  initialOwner == address(0) */\n  0xffffffffffffffffffffffffffffffffffffffff\n  and\n  sub\n    /* \"kcash_flattened.sol\":22943:23038  if (initialOwner == address(0)) {... */\n  tag_10\n  jumpi\n    /* \"kcash_flattened.sol\":23024:23025  0 */\n  0x00\n    /* \"kcash_flattened.sol\":22996:23027  OwnableInvalidOwner(address(0)) */\n  mload(0x40)\n  0x1e4fbdf700000000000000000000000000000000000000000000000000000000\n  dup2\n  mstore\n  0x04\n  add\n  tag_11\n  swap2\n  swap1\n  tag_12\n  jump\t// in\ntag_11:\n  mload(0x40)\n  dup1\n  swap2\n  sub\n  swap1\n  revert\n    /* \"kcash_flattened.sol\":22943:23038  if (initialOwner == address(0)) {... */\ntag_10:\n    /* \"kcash_flattened.sol\":23047:23079  _transferOwnership(initialOwner) */\n  tag_13\n    /* \"kcash_flattened.sol\":23066:23078  initialOwner */\n  dup2\n    /* \"kcash_flattened.sol\":23047:23065  _transferOwnership */\n  shl(0x20, tag_14)\n    /* \"kcash_flattened.sol\":23047:23079  _transferOwnership(initialOwner) */\n  0x20\n  shr\n  jump\t// in\ntag_13:\n    /* \"kcash_flattened.sol\":22899:23086  constructor(address initialOwner) {... */\n  pop\n    /* \"kcash_flattened.sol\":25228:25274  _mint(msg.sender, 52000000 * 10 ** decimals()) */\n  tag_16\n    /* \"kcash_flattened.sol\":25234:25244  msg.sender */\n  caller\n    /* \"kcash_flattened.sol\":25263:25273  decimals() */\n  tag_17\n    /* \"kcash_flattened.sol\":25263:25271  decimals */\n  shl(0x20, tag_18)\n    /* \"kcash_flattened.sol\":25263:25273  decimals() */\n  0x20\n  shr\n  jump\t// in\ntag_17:\n    /* \"kcash_flattened.sol\":25257:25259  10 */\n  0x0a\n    /* \"kcash_flattened.sol\":25257:25273  10 ** decimals() */\n  tag_19\n  swap2\n  swap1\n  tag_20\n  jump\t// in\ntag_19:\n    /* \"kcash_flattened.sol\":25246:25254  52000000 */\n  0x03197500\n    /* \"kcash_flattened.sol\":25246:25273  52000000 * 10 ** decimals() */\n  tag_21\n  swap2\n  swap1\n  tag_22\n  jump\t// in\ntag_21:\n    /* \"kcash_flattened.sol\":25228:25233  _mint */\n  shl(0x20, tag_23)\n    /* \"kcash_flattened.sol\":25228:25274  _mint(msg.sender, 52000000 * 10 ** decimals()) */\n  0x20\n  shr\n  jump\t// in\ntag_16:\n    /* \"kcash_flattened.sol\":24874:25283  contract Kcash is ERC20, Ownable {... */\n  jump(tag_24)\n    /* \"kcash_flattened.sol\":24586:24773  function _transferOwnership(address newOwner) internal virtual {... */\ntag_14:\n    /* \"kcash_flattened.sol\":24659:24675  address oldOwner */\n  0x00\n    /* \"kcash_flattened.sol\":24678:24684  _owner */\n  0x05\n  0x00\n  swap1\n  sload\n  swap1\n  0x0100\n  exp\n  swap1\n  div\n  0xffffffffffffffffffffffffffffffffffffffff\n  and\n    /* \"kcash_flattened.sol\":24659:24684  address oldOwner = _owner */\n  swap1\n  pop\n    /* \"kcash_flattened.sol\":24703:24711  newOwner */\n  dup2\n    /* \"kcash_flattened.sol\":24694:24700  _owner */\n  0x05\n  0x00\n    /* \"kcash_flattened.sol\":24694:24711  _owner = newOwner */\n  0x0100\n  exp\n  dup2\n  sload\n  dup2\n  0xffffffffffffffffffffffffffffffffffffffff\n  mul\n  not\n  and\n  swap1\n  dup4\n  0xffffffffffffffffffffffffffffffffffffffff\n  and\n  mul\n  or\n  swap1\n  sstore\n  pop\n    /* \"kcash_flattened.sol\":24757:24765  newOwner */\n  dup2\n    /* \"kcash_flattened.sol\":24726:24766  OwnershipTransferred(oldOwner, newOwner) */\n  0xffffffffffffffffffffffffffffffffffffffff\n  and\n    /* \"kcash_flattened.sol\":24747:24755  oldOwner */\n  dup2\n    /* \"kcash_flattened.sol\":24726:24766  OwnershipTransferred(oldOwner, newOwner) */\n  0xffffffffffffffffffffffffffffffffffffffff\n  and\n  0x8be0079c531659141344cd1fd0a4f28419497f9722a3daafe3b4186f6b6457e0\n  mload(0x40)\n  mload(0x40)\n  dup1\n  swap2\n  sub\n  swap1\n  log3\n    /* \"kcash_flattened.sol\":24649:24773  {... */\n  pop\n    /* \"kcash_flattened.sol\":24586:24773  function _transferOwnership(address newOwner) internal virtual {... */\n  pop\n  jump\t// out\n    /* \"kcash_flattened.sol\":13587:13669  function decimals() public view virtual returns (uint8) {... */\ntag_18:\n    /* \"kcash_flattened.sol\":13636:13641  uint8 */\n  0x00\n    /* \"kcash_flattened.sol\":13660:13662  18 */\n  0x12\n    /* \"kcash_flattened.sol\":13653:13662  return 18 */\n  swap1\n  pop\n    /* \"kcash_flattened.sol\":13587:13669  function decimals() public view virtual returns (uint8) {... */\n  swap1\n  jump\t// out\n    /* \"kcash_flattened.sol\":18261:18469  function _mint(address account, uint256 value) internal {... */\ntag_23:\n    /* \"kcash_flattened.sol\":18350:18351  0 */\n  0x00\n    /* \"kcash_flattened.sol\":18331:18352  account == address(0) */\n  0xffffffffffffffffffffffffffffffffffffffff\n  and\n    /* \"kcash_flattened.sol\":18331:18338  account */\n  dup3\n    /* \"kcash_flattened.sol\":18331:18352  account == address(0) */\n  0xffffffffffffffffffffffffffffffffffffffff\n  and\n  sub\n    /* \"kcash_flattened.sol\":18327:18418  if (account == address(0)) {... */\n  tag_28\n  jumpi\n    /* \"kcash_flattened.sol\":18404:18405  0 */\n  0x00\n    /* \"kcash_flattened.sol\":18375:18407  ERC20InvalidReceiver(address(0)) */\n  mload(0x40)\n  0xec442f0500000000000000000000000000000000000000000000000000000000\n  dup2\n  mstore\n  0x04\n  add\n  tag_29\n  swap2\n  swap1\n  tag_12\n  jump\t// in\ntag_29:\n  mload(0x40)\n  dup1\n  swap2\n  sub\n  swap1\n  revert\n    /* \"kcash_flattened.sol\":18327:18418  if (account == address(0)) {... */\ntag_28:\n    /* \"kcash_flattened.sol\":18427:18462  _update(address(0), account, value) */\n  tag_30\n    /* \"kcash_flattened.sol\":18443:18444  0 */\n  0x00\n    /* \"kcash_flattened.sol\":18447:18454  account */\n  dup4\n    /* \"kcash_flattened.sol\":18456:18461  value */\n  dup4\n    /* \"kcash_flattened.sol\":18427:18434  _update */\n  shl(0x20, tag_31)\n    /* \"kcash_flattened.sol\":18427:18462  _update(address(0), account, value) */\n  0x20\n  shr\n  jump\t// in\ntag_30:\n    /* \"kcash_flattened.sol\":18261:18469  function _mint(address account, uint256 value) internal {... */\n  pop\n  pop\n  jump\t// out\n    /* \"kcash_flattened.sol\":16811:17918  function _update(address from, address to, uint256 value) internal virtual {... */\ntag_31:\n    /* \"kcash_flattened.sol\":16916:16917  0 */\n  0x00\n    /* \"kcash_flattened.sol\":16900:16918  from == address(0) */\n  0xffffffffffffffffffffffffffffffffffffffff\n  and\n    /* \"kcash_flattened.sol\":16900:16904  from */\n  dup4\n    /* \"kcash_flattened.sol\":16900:16918  from == address(0) */\n  0xffffffffffffffffffffffffffffffffffffffff\n  and\n  sub\n    /* \"kcash_flattened.sol\":16896:17436  if (from == address(0)) {... */\n  tag_33\n  jumpi\n    /* \"kcash_flattened.sol\":17052:17057  value */\n  dup1\n    /* \"kcash_flattened.sol\":17036:17048  _totalSupply */\n  0x02\n  0x00\n    /* \"kcash_flattened.sol\":17036:17057  _totalSupply += value */\n  dup3\n  dup3\n  sload\n  tag_34\n  swap2\n  swap1\n  tag_35\n  jump\t// in\ntag_34:\n  swap3\n  pop\n  pop\n  dup2\n  swap1\n  sstore\n  pop\n    /* \"kcash_flattened.sol\":16896:17436  if (from == address(0)) {... */\n  jump(tag_36)\ntag_33:\n    /* \"kcash_flattened.sol\":17088:17107  uint256 fromBalance */\n  0x00\n    /* \"kcash_flattened.sol\":17110:17119  _balances */\n  0x00\n    /* \"kcash_flattened.sol\":17110:17125  _balances[from] */\n  0x00\n    /* \"kcash_flattened.sol\":17120:17124  from */\n  dup6\n    /* \"kcash_flattened.sol\":17110:17125  _balances[from] */\n  0xffffffffffffffffffffffffffffffffffffffff\n  and\n  0xffffffffffffffffffffffffffffffffffffffff\n  and\n  dup2\n  mstore\n  0x20\n  add\n  swap1\n  dup2\n  mstore\n  0x20\n  add\n  0x00\n  keccak256\n  sload\n    /* \"kcash_flattened.sol\":17088:17125  uint256 fromBalance = _balances[from] */\n  swap1\n  pop\n    /* \"kcash_flattened.sol\":17157:17162  value */\n  dup2\n    /* \"kcash_flattened.sol\":17143:17154  fromBalance */\n  dup2\n    /* \"kcash_flattened.sol\":17143:17162  fromBalance < value */\n  lt\n    /* \"kcash_flattened.sol\":17139:17254  if (fromBalance < value) {... */\n  iszero\n  tag_37\n  jumpi\n    /* \"kcash_flattened.sol\":17214:17218  from */\n  dup4\n    /* \"kcash_flattened.sol\":17220:17231  fromBalance */\n  dup2\n    /* \"kcash_flattened.sol\":17233:17238  value */\n  dup4\n    /* \"kcash_flattened.sol\":17189:17239  ERC20InsufficientBalance(from, fromBalance, value) */\n  mload(0x40)\n  0xe450d38c00000000000000000000000000000000000000000000000000000000\n  dup2\n  mstore\n  0x04\n  add\n  tag_38\n  swap4\n  swap3\n  swap2\n  swap1\n  tag_39\n  jump\t// in\ntag_38:\n  mload(0x40)\n  dup1\n  swap2\n  sub\n  swap1\n  revert\n    /* \"kcash_flattened.sol\":17139:17254  if (fromBalance < value) {... */\ntag_37:\n    /* \"kcash_flattened.sol\":17406:17411  value */\n  dup2\n    /* \"kcash_flattened.sol\":17392:17403  fromBalance */\n  dup2\n    /* \"kcash_flattened.sol\":17392:17411  fromBalance - value */\n  sub\n    /* \"kcash_flattened.sol\":17374:17383  _balances */\n  0x00\n    /* \"kcash_flattened.sol\":17374:17389  _balances[from] */\n  0x00\n    /* \"kcash_flattened.sol\":17384:17388  from */\n  dup7\n    /* \"kcash_flattened.sol\":17374:17389  _balances[from] */\n  0xffffffffffffffffffffffffffffffffffffffff\n  and\n  0xffffffffffffffffffffffffffffffffffffffff\n  and\n  dup2\n  mstore\n  0x20\n  add\n  swap1\n  dup2\n  mstore\n  0x20\n  add\n  0x00\n  keccak256\n    /* \"kcash_flattened.sol\":17374:17411  _balances[from] = fromBalance - value */\n  dup2\n  swap1\n  sstore\n  pop\n    /* \"kcash_flattened.sol\":17074:17436  {... */\n  pop\n    /* \"kcash_flattened.sol\":16896:17436  if (from == address(0)) {... */\ntag_36:\n    /* \"kcash_flattened.sol\":17464:17465  0 */\n  0x00\n    /* \"kcash_flattened.sol\":17450:17466  to == address(0) */\n  0xffffffffffffffffffffffffffffffffffffffff\n  and\n    /* \"kcash_flattened.sol\":17450:17452  to */\n  dup3\n    /* \"kcash_flattened.sol\":17450:17466  to == address(0) */\n  0xffffffffffffffffffffffffffffffffffffffff\n  and\n  sub\n    /* \"kcash_flattened.sol\":17446:17871  if (to == address(0)) {... */\n  tag_40\n  jumpi\n    /* \"kcash_flattened.sol\":17629:17634  value */\n  dup1\n    /* \"kcash_flattened.sol\":17613:17625  _totalSupply */\n  0x02\n  0x00\n    /* \"kcash_flattened.sol\":17613:17634  _totalSupply -= value */\n  dup3\n  dup3\n  sload\n  sub\n  swap3\n  pop\n  pop\n  dup2\n  swap1\n  sstore\n  pop\n    /* \"kcash_flattened.sol\":17446:17871  if (to == address(0)) {... */\n  jump(tag_41)\ntag_40:\n    /* \"kcash_flattened.sol\":17841:17846  value */\n  dup1\n    /* \"kcash_flattened.sol\":17824:17833  _balances */\n  0x00\n    /* \"kcash_flattened.sol\":17824:17837  _balances[to] */\n  0x00\n    /* \"kcash_flattened.sol\":17834:17836  to */\n  dup5\n    /* \"kcash_flattened.sol\":17824:17837  _balances[to] */\n  0xffffffffffffffffffffffffffffffffffffffff\n  and\n  0xffffffffffffffffffffffffffffffffffffffff\n  and\n  dup2\n  mstore\n  0x20\n  add\n  swap1\n  dup2\n  mstore\n  0x20\n  add\n  0x00\n  keccak256\n  0x00\n    /* \"kcash_flattened.sol\":17824:17846  _balances[to] += value */\n  dup3\n  dup3\n  sload\n  add\n  swap3\n  pop\n  pop\n  dup2\n  swap1\n  sstore\n  pop\n    /* \"kcash_flattened.sol\":17446:17871  if (to == address(0)) {... */\ntag_41:\n    /* \"kcash_flattened.sol\":17901:17903  to */\n  dup2\n    /* \"kcash_flattened.sol\":17886:17911  Transfer(from, to, value) */\n  0xffffffffffffffffffffffffffffffffffffffff\n  and\n    /* \"kcash_flattened.sol\":17895:17899  from */\n  dup4\n    /* \"kcash_flattened.sol\":17886:17911  Transfer(from, to, value) */\n  0xffffffffffffffffffffffffffffffffffffffff\n  and\n  0xddf252ad1be2c89b69c2b068fc378daa952ba7f163c4a11628f55a4df523b3ef\n    /* \"kcash_flattened.sol\":17905:17910  value */\n  dup4\n    /* \"kcash_flattened.sol\":17886:17911  Transfer(from, to, value) */\n  mload(0x40)\n  tag_42\n  swap2\n  swap1\n  tag_43\n  jump\t// in\ntag_42:\n  mload(0x40)\n  dup1\n  swap2\n  sub\n  swap1\n  log3\n    /* \"kcash_flattened.sol\":16811:17918  function _update(address from, address to, uint256 value) internal virtual {... */\n  pop\n  pop\n  pop\n  jump\t// out\n    /* \"#utility.yul\":7:106   */\ntag_44:\n    /* \"#utility.yul\":59:65   */\n  0x00\n    /* \"#utility.yul\":93:98   */\n  dup2\n    /* \"#utility.yul\":87:99   */\n  mload\n    /* \"#utility.yul\":77:99   */\n  swap1\n  pop\n    /* \"#utility.yul\":7:106   */\n  swap2\n  swap1\n  pop\n  jump\t// out\n    /* \"#utility.yul\":112:292   */\ntag_45:\n    /* \"#utility.yul\":160:237   */\n  0x4e487b7100000000000000000000000000000000000000000000000000000000\n    /* \"#utility.yul\":157:158   */\n  0x00\n    /* \"#utility.yul\":150:238   */\n  mstore\n    /* \"#utility.yul\":257:261   */\n  0x41\n    /* \"#utility.yul\":254:255   */\n  0x04\n    /* \"#utility.yul\":247:262   */\n  mstore\n    /* \"#utility.yul\":281:285   */\n  0x24\n    /* \"#utility.yul\":278:279   */\n  0x00\n    /* \"#utility.yul\":271:286   */\n  revert\n    /* \"#utility.yul\":298:478   */\ntag_46:\n    /* \"#utility.yul\":346:423   */\n  0x4e487b7100000000000000000000000000000000000000000000000000000000\n    /* \"#utility.yul\":343:344   */\n  0x00\n    /* \"#utility.yul\":336:424   */\n  mstore\n    /* \"#utility.yul\":443:447   */\n  0x22\n    /* \"#utility.yul\":440:441   */\n  0x04\n    /* \"#utility.yul\":433:448   */\n  mstore\n    /* \"#utility.yul\":467:471   */\n  0x24\n    /* \"#utility.yul\":464:465   */\n  0x00\n    /* \"#utility.yul\":457:472   */\n  revert\n    /* \"#utility.yul\":484:804   */\ntag_47:\n    /* \"#utility.yul\":528:534   */\n  0x00\n    /* \"#utility.yul\":565:566   */\n  0x02\n    /* \"#utility.yul\":559:563   */\n  dup3\n    /* \"#utility.yul\":555:567   */\n  div\n    /* \"#utility.yul\":545:567   */\n  swap1\n  pop\n    /* \"#utility.yul\":612:613   */\n  0x01\n    /* \"#utility.yul\":606:610   */\n  dup3\n    /* \"#utility.yul\":602:614   */\n  and\n    /* \"#utility.yul\":633:651   */\n  dup1\n    /* \"#utility.yul\":623:704   */\n  tag_78\n  jumpi\n    /* \"#utility.yul\":689:693   */\n  0x7f\n    /* \"#utility.yul\":681:687   */\n  dup3\n    /* \"#utility.yul\":677:694   */\n  and\n    /* \"#utility.yul\":667:694   */\n  swap2\n  pop\n    /* \"#utility.yul\":623:704   */\ntag_78:\n    /* \"#utility.yul\":751:753   */\n  0x20\n    /* \"#utility.yul\":743:749   */\n  dup3\n    /* \"#utility.yul\":740:754   */\n  lt\n    /* \"#utility.yul\":720:738   */\n  dup2\n    /* \"#utility.yul\":717:755   */\n  sub\n    /* \"#utility.yul\":714:798   */\n  tag_79\n  jumpi\n    /* \"#utility.yul\":770:788   */\n  tag_80\n  tag_46\n  jump\t// in\ntag_80:\n    /* \"#utility.yul\":714:798   */\ntag_79:\n    /* \"#utility.yul\":535:804   */\n  pop\n    /* \"#utility.yul\":484:804   */\n  swap2\n  swap1\n  pop\n  jump\t// out\n    /* \"#utility.yul\":810:951   */\ntag_48:\n    /* \"#utility.yul\":859:863   */\n  0x00\n    /* \"#utility.yul\":882:885   */\n  dup2\n    /* \"#utility.yul\":874:885   */\n  swap1\n  pop\n    /* \"#utility.yul\":905:908   */\n  dup2\n    /* \"#utility.yul\":902:903   */\n  0x00\n    /* \"#utility.yul\":895:909   */\n  mstore\n    /* \"#utility.yul\":939:943   */\n  0x20\n    /* \"#utility.yul\":936:937   */\n  0x00\n    /* \"#utility.yul\":926:944   */\n  keccak256\n    /* \"#utility.yul\":918:944   */\n  swap1\n  pop\n    /* \"#utility.yul\":810:951   */\n  swap2\n  swap1\n  pop\n  jump\t// out\n    /* \"#utility.yul\":957:1050   */\ntag_49:\n    /* \"#utility.yul\":994:1000   */\n  0x00\n    /* \"#utility.yul\":1041:1043   */\n  0x20\n    /* \"#utility.yul\":1036:1038   */\n  0x1f\n    /* \"#utility.yul\":1029:1034   */\n  dup4\n    /* \"#utility.yul\":1025:1039   */\n  add\n    /* \"#utility.yul\":1021:1044   */\n  div\n    /* \"#utility.yul\":1011:1044   */\n  swap1\n  pop\n    /* \"#utility.yul\":957:1050   */\n  swap2\n  swap1\n  pop\n  jump\t// out\n    /* \"#utility.yul\":1056:1163   */\ntag_50:\n    /* \"#utility.yul\":1100:1108   */\n  0x00\n    /* \"#utility.yul\":1150:1155   */\n  dup3\n    /* \"#utility.yul\":1144:1148   */\n  dup3\n    /* \"#utility.yul\":1140:1156   */\n  shl\n    /* \"#utility.yul\":1119:1156   */\n  swap1\n  pop\n    /* \"#utility.yul\":1056:1163   */\n  swap3\n  swap2\n  pop\n  pop\n  jump\t// out\n    /* \"#utility.yul\":1169:1562   */\ntag_51:\n    /* \"#utility.yul\":1238:1244   */\n  0x00\n    /* \"#utility.yul\":1288:1289   */\n  0x08\n    /* \"#utility.yul\":1276:1286   */\n  dup4\n    /* \"#utility.yul\":1272:1290   */\n  mul\n    /* \"#utility.yul\":1311:1408   */\n  tag_85\n    /* \"#utility.yul\":1341:1407   */\n  0xffffffffffffffffffffffffffffffffffffffffffffffffffffffffffffffff\n    /* \"#utility.yul\":1330:1339   */\n  dup3\n    /* \"#utility.yul\":1311:1408   */\n  tag_50\n  jump\t// in\ntag_85:\n    /* \"#utility.yul\":1429:1468   */\n  tag_86\n    /* \"#utility.yul\":1459:1467   */\n  dup7\n    /* \"#utility.yul\":1448:1457   */\n  dup4\n    /* \"#utility.yul\":1429:1468   */\n  tag_50\n  jump\t// in\ntag_86:\n    /* \"#utility.yul\":1417:1468   */\n  swap6\n  pop\n    /* \"#utility.yul\":1501:1505   */\n  dup1\n    /* \"#utility.yul\":1497:1506   */\n  not\n    /* \"#utility.yul\":1490:1495   */\n  dup5\n    /* \"#utility.yul\":1486:1507   */\n  and\n    /* \"#utility.yul\":1477:1507   */\n  swap4\n  pop\n    /* \"#utility.yul\":1550:1554   */\n  dup1\n    /* \"#utility.yul\":1540:1548   */\n  dup7\n    /* \"#utility.yul\":1536:1555   */\n  and\n    /* \"#utility.yul\":1529:1534   */\n  dup5\n    /* \"#utility.yul\":1526:1556   */\n  or\n    /* \"#utility.yul\":1516:1556   */\n  swap3\n  pop\n    /* \"#utility.yul\":1245:1562   */\n  pop\n  pop\n    /* \"#utility.yul\":1169:1562   */\n  swap4\n  swap3\n  pop\n  pop\n  pop\n  jump\t// out\n    /* \"#utility.yul\":1568:1645   */\ntag_52:\n    /* \"#utility.yul\":1605:1612   */\n  0x00\n    /* \"#utility.yul\":1634:1639   */\n  dup2\n    /* \"#utility.yul\":1623:1639   */\n  swap1\n  pop\n    /* \"#utility.yul\":1568:1645   */\n  swap2\n  swap1\n  pop\n  jump\t// out\n    /* \"#utility.yul\":1651:1711   */\ntag_53:\n    /* \"#utility.yul\":1679:1682   */\n  0x00\n    /* \"#utility.yul\":1700:1705   */\n  dup2\n    /* \"#utility.yul\":1693:1705   */\n  swap1\n  pop\n    /* \"#utility.yul\":1651:1711   */\n  swap2\n  swap1\n  pop\n  jump\t// out\n    /* \"#utility.yul\":1717:1859   */\ntag_54:\n    /* \"#utility.yul\":1767:1776   */\n  0x00\n    /* \"#utility.yul\":1800:1853   */\n  tag_90\n    /* \"#utility.yul\":1818:1852   */\n  tag_91\n    /* \"#utility.yul\":1827:1851   */\n  tag_92\n    /* \"#utility.yul\":1845:1850   */\n  dup5\n    /* \"#utility.yul\":1827:1851   */\n  tag_52\n  jump\t// in\ntag_92:\n    /* \"#utility.yul\":1818:1852   */\n  tag_53\n  jump\t// in\ntag_91:\n    /* \"#utility.yul\":1800:1853   */\n  tag_52\n  jump\t// in\ntag_90:\n    /* \"#utility.yul\":1787:1853   */\n  swap1\n  pop\n    /* \"#utility.yul\":1717:1859   */\n  swap2\n  swap1\n  pop\n  jump\t// out\n    /* \"#utility.yul\":1865:1940   */\ntag_55:\n    /* \"#utility.yul\":1908:1911   */\n  0x00\n    /* \"#utility.yul\":1929:1934   */\n  dup2\n    /* \"#utility.yul\":1922:1934   */\n  swap1\n  pop\n    /* \"#utility.yul\":1865:1940   */\n  swap2\n  swap1\n  pop\n  jump\t// out\n    /* \"#utility.yul\":1946:2215   */\ntag_56:\n    /* \"#utility.yul\":2056:2095   */\n  tag_95\n    /* \"#utility.yul\":2087:2094   */\n  dup4\n    /* \"#utility.yul\":2056:2095   */\n  tag_54\n  jump\t// in\ntag_95:\n    /* \"#utility.yul\":2117:2208   */\n  tag_96\n    /* \"#utility.yul\":2166:2207   */\n  tag_97\n    /* \"#utility.yul\":2190:2206   */\n  dup3\n    /* \"#utility.yul\":2166:2207   */\n  tag_55\n  jump\t// in\ntag_97:\n    /* \"#utility.yul\":2158:2164   */\n  dup5\n    /* \"#utility.yul\":2151:2155   */\n  dup5\n    /* \"#utility.yul\":2145:2156   */\n  sload\n    /* \"#utility.yul\":2117:2208   */\n  tag_51\n  jump\t// in\ntag_96:\n    /* \"#utility.yul\":2111:2115   */\n  dup3\n    /* \"#utility.yul\":2104:2209   */\n  sstore\n    /* \"#utility.yul\":2022:2215   */\n  pop\n    /* \"#utility.yul\":1946:2215   */\n  pop\n  pop\n  pop\n  jump\t// out\n    /* \"#utility.yul\":2221:2294   */\ntag_57:\n    /* \"#utility.yul\":2266:2269   */\n  0x00\n    /* \"#utility.yul\":2287:2288   */\n  0x00\n    /* \"#utility.yul\":2280:2288   */\n  swap1\n  pop\n    /* \"#utility.yul\":2221:2294   */\n  swap1\n  jump\t// out\n    /* \"#utility.yul\":2300:2489   */\ntag_58:\n    /* \"#utility.yul\":2377:2409   */\n  tag_100\n  tag_57\n  jump\t// in\ntag_100:\n    /* \"#utility.yul\":2418:2483   */\n  tag_101\n    /* \"#utility.yul\":2476:2482   */\n  dup2\n    /* \"#utility.yul\":2468:2474   */\n  dup5\n    /* \"#utility.yul\":2462:2466   */\n  dup5\n    /* \"#utility.yul\":2418:2483   */\n  tag_56\n  jump\t// in\ntag_101:\n    /* \"#utility.yul\":2353:2489   */\n  pop\n    /* \"#utility.yul\":2300:2489   */\n  pop\n  pop\n  jump\t// out\n    /* \"#utility.yul\":2495:2681   */\ntag_59:\n    /* \"#utility.yul\":2555:2675   */\ntag_103:\n    /* \"#utility.yul\":2572:2575   */\n  dup2\n    /* \"#utility.yul\":2565:2570   */\n  dup2\n    /* \"#utility.yul\":2562:2576   */\n  lt\n    /* \"#utility.yul\":2555:2675   */\n  iszero\n  tag_105\n  jumpi\n    /* \"#utility.yul\":2626:2665   */\n  tag_106\n    /* \"#utility.yul\":2663:2664   */\n  0x00\n    /* \"#utility.yul\":2656:2661   */\n  dup3\n    /* \"#utility.yul\":2626:2665   */\n  tag_58\n  jump\t// in\ntag_106:\n    /* \"#utility.yul\":2599:2600   */\n  0x01\n    /* \"#utility.yul\":2592:2597   */\n  dup2\n    /* \"#utility.yul\":2588:2601   */\n  add\n    /* \"#utility.yul\":2579:2601   */\n  swap1\n  pop\n    /* \"#utility.yul\":2555:2675   */\n  jump(tag_103)\ntag_105:\n    /* \"#utility.yul\":2495:2681   */\n  pop\n  pop\n  jump\t// out\n    /* \"#utility.yul\":2687:3230   */\ntag_60:\n    /* \"#utility.yul\":2788:2790   */\n  0x1f\n    /* \"#utility.yul\":2783:2786   */\n  dup3\n    /* \"#utility.yul\":2780:2791   */\n  gt\n    /* \"#utility.yul\":2777:3223   */\n  iszero\n  tag_108\n  jumpi\n    /* \"#utility.yul\":2822:2860   */\n  tag_109\n    /* \"#utility.yul\":2854:2859   */\n  dup2\n    /* \"#utility.yul\":2822:2860   */\n  tag_48\n  jump\t// in\ntag_109:\n    /* \"#utility.yul\":2906:2935   */\n  tag_110\n    /* \"#utility.yul\":2924:2934   */\n  dup5\n    /* \"#utility.yul\":2906:2935   */\n  tag_49\n  jump\t// in\ntag_110:\n    /* \"#utility.yul\":2896:2904   */\n  dup2\n    /* \"#utility.yul\":2892:2936   */\n  add\n    /* \"#utility.yul\":3089:3091   */\n  0x20\n    /* \"#utility.yul\":3077:3087   */\n  dup6\n    /* \"#utility.yul\":3074:3092   */\n  lt\n    /* \"#utility.yul\":3071:3120   */\n  iszero\n  tag_111\n  jumpi\n    /* \"#utility.yul\":3110:3118   */\n  dup2\n    /* \"#utility.yul\":3095:3118   */\n  swap1\n  pop\n    /* \"#utility.yul\":3071:3120   */\ntag_111:\n    /* \"#utility.yul\":3133:3213   */\n  tag_112\n    /* \"#utility.yul\":3189:3211   */\n  tag_113\n    /* \"#utility.yul\":3207:3210   */\n  dup6\n    /* \"#utility.yul\":3189:3211   */\n  tag_49\n  jump\t// in\ntag_113:\n    /* \"#utility.yul\":3179:3187   */\n  dup4\n    /* \"#utility.yul\":3175:3212   */\n  add\n    /* \"#utility.yul\":3162:3173   */\n  dup3\n    /* \"#utility.yul\":3133:3213   */\n  tag_59\n  jump\t// in\ntag_112:\n    /* \"#utility.yul\":2792:3223   */\n  pop\n  pop\n    /* \"#utility.yul\":2777:3223   */\ntag_108:\n    /* \"#utility.yul\":2687:3230   */\n  pop\n  pop\n  pop\n  jump\t// out\n    /* \"#utility.yul\":3236:3353   */\ntag_61:\n    /* \"#utility.yul\":3290:3298   */\n  0x00\n    /* \"#utility.yul\":3340:3345   */\n  dup3\n    /* \"#utility.yul\":3334:3338   */\n  dup3\n    /* \"#utility.yul\":3330:3346   */\n  shr\n    /* \"#utility.yul\":3309:3346   */\n  swap1\n  pop\n    /* \"#utility.yul\":3236:3353   */\n  swap3\n  swap2\n  pop\n  pop\n  jump\t// out\n    /* \"#utility.yul\":3359:3528   */\ntag_62:\n    /* \"#utility.yul\":3403:3409   */\n  0x00\n    /* \"#utility.yul\":3436:3487   */\n  tag_116\n    /* \"#utility.yul\":3484:3485   */\n  0x00\n    /* \"#utility.yul\":3480:3486   */\n  not\n    /* \"#utility.yul\":3472:3477   */\n  dup5\n    /* \"#utility.yul\":3469:3470   */\n  0x08\n    /* \"#utility.yul\":3465:3478   */\n  mul\n    /* \"#utility.yul\":3436:3487   */\n  tag_61\n  jump\t// in\ntag_116:\n    /* \"#utility.yul\":3432:3488   */\n  not\n    /* \"#utility.yul\":3517:3521   */\n  dup1\n    /* \"#utility.yul\":3511:3515   */\n  dup4\n    /* \"#utility.yul\":3507:3522   */\n  and\n    /* \"#utility.yul\":3497:3522   */\n  swap2\n  pop\n    /* \"#utility.yul\":3410:3528   */\n  pop\n    /* \"#utility.yul\":3359:3528   */\n  swap3\n  swap2\n  pop\n  pop\n  jump\t// out\n    /* \"#utility.yul\":3533:3828   */\ntag_63:\n    /* \"#utility.yul\":3609:3613   */\n  0x00\n    /* \"#utility.yul\":3755:3784   */\n  tag_118\n    /* \"#utility.yul\":3780:3783   */\n  dup4\n    /* \"#utility.yul\":3774:3778   */\n  dup4\n    /* \"#utility.yul\":3755:3784   */\n  tag_62\n  jump\t// in\ntag_118:\n    /* \"#utility.yul\":3747:3784   */\n  swap2\n  pop\n    /* \"#utility.yul\":3817:3820   */\n  dup3\n    /* \"#utility.yul\":3814:3815   */\n  0x02\n    /* \"#utility.yul\":3810:3821   */\n  mul\n    /* \"#utility.yul\":3804:3808   */\n  dup3\n    /* \"#utility.yul\":3801:3822   */\n  or\n    /* \"#utility.yul\":3793:3822   */\n  swap1\n  pop\n    /* \"#utility.yul\":3533:3828   */\n  swap3\n  swap2\n  pop\n  pop\n  jump\t// out\n    /* \"#utility.yul\":3833:5228   */\ntag_7:\n    /* \"#utility.yul\":3950:3987   */\n  tag_120\n    /* \"#utility.yul\":3983:3986   */\n  dup3\n    /* \"#utility.yul\":3950:3987   */\n  tag_44\n  jump\t// in\ntag_120:\n    /* \"#utility.yul\":4052:4070   */\n  0xffffffffffffffff\n    /* \"#utility.yul\":4044:4050   */\n  dup2\n    /* \"#utility.yul\":4041:4071   */\n  gt\n    /* \"#utility.yul\":4038:4094   */\n  iszero\n  tag_121\n  jumpi\n    /* \"#utility.yul\":4074:4092   */\n  tag_122\n  tag_45\n  jump\t// in\ntag_122:\n    /* \"#utility.yul\":4038:4094   */\ntag_121:\n    /* \"#utility.yul\":4118:4156   */\n  tag_123\n    /* \"#utility.yul\":4150:4154   */\n  dup3\n    /* \"#utility.yul\":4144:4155   */\n  sload\n    /* \"#utility.yul\":4118:4156   */\n  tag_47\n  jump\t// in\ntag_123:\n    /* \"#utility.yul\":4203:4270   */\n  tag_124\n    /* \"#utility.yul\":4263:4269   */\n  dup3\n    /* \"#utility.yul\":4255:4261   */\n  dup3\n    /* \"#utility.yul\":4249:4253   */\n  dup6\n    /* \"#utility.yul\":4203:4270   */\n  tag_60\n  jump\t// in\ntag_124:\n    /* \"#utility.yul\":4297:4298   */\n  0x00\n    /* \"#utility.yul\":4321:4325   */\n  0x20\n    /* \"#utility.yul\":4308:4325   */\n  swap1\n  pop\n    /* \"#utility.yul\":4353:4355   */\n  0x1f\n    /* \"#utility.yul\":4345:4351   */\n  dup4\n    /* \"#utility.yul\":4342:4356   */\n  gt\n    /* \"#utility.yul\":4370:4371   */\n  0x01\n    /* \"#utility.yul\":4365:4983   */\n  dup2\n  eq\n  tag_126\n  jumpi\n    /* \"#utility.yul\":5027:5028   */\n  0x00\n    /* \"#utility.yul\":5044:5050   */\n  dup5\n    /* \"#utility.yul\":5041:5118   */\n  iszero\n  tag_127\n  jumpi\n    /* \"#utility.yul\":5093:5102   */\n  dup3\n    /* \"#utility.yul\":5088:5091   */\n  dup8\n    /* \"#utility.yul\":5084:5103   */\n  add\n    /* \"#utility.yul\":5078:5104   */\n  mload\n    /* \"#utility.yul\":5069:5104   */\n  swap1\n  pop\n    /* \"#utility.yul\":5041:5118   */\ntag_127:\n    /* \"#utility.yul\":5144:5211   */\n  tag_128\n    /* \"#utility.yul\":5204:5210   */\n  dup6\n    /* \"#utility.yul\":5197:5202   */\n  dup3\n    /* \"#utility.yul\":5144:5211   */\n  tag_63\n  jump\t// in\ntag_128:\n    /* \"#utility.yul\":5138:5142   */\n  dup7\n    /* \"#utility.yul\":5131:5212   */\n  sstore\n    /* \"#utility.yul\":5000:5222   */\n  pop\n    /* \"#utility.yul\":4335:5222   */\n  jump(tag_125)\n    /* \"#utility.yul\":4365:4983   */\ntag_126:\n    /* \"#utility.yul\":4417:4421   */\n  0x1f\n    /* \"#utility.yul\":4413:4422   */\n  not\n    /* \"#utility.yul\":4405:4411   */\n  dup5\n    /* \"#utility.yul\":4401:4423   */\n  and\n    /* \"#utility.yul\":4451:4488   */\n  tag_129\n    /* \"#utility.yul\":4483:4487   */\n  dup7\n    /* \"#utility.yul\":4451:4488   */\n  tag_48\n  jump\t// in\ntag_129:\n    /* \"#utility.yul\":4510:4511   */\n  0x00\n    /* \"#utility.yul\":4524:4732   */\ntag_130:\n    /* \"#utility.yul\":4538:4545   */\n  dup3\n    /* \"#utility.yul\":4535:4536   */\n  dup2\n    /* \"#utility.yul\":4532:4546   */\n  lt\n    /* \"#utility.yul\":4524:4732   */\n  iszero\n  tag_132\n  jumpi\n    /* \"#utility.yul\":4617:4626   */\n  dup5\n    /* \"#utility.yul\":4612:4615   */\n  dup10\n    /* \"#utility.yul\":4608:4627   */\n  add\n    /* \"#utility.yul\":4602:4628   */\n  mload\n    /* \"#utility.yul\":4594:4600   */\n  dup3\n    /* \"#utility.yul\":4587:4629   */\n  sstore\n    /* \"#utility.yul\":4668:4669   */\n  0x01\n    /* \"#utility.yul\":4660:4666   */\n  dup3\n    /* \"#utility.yul\":4656:4670   */\n  add\n    /* \"#utility.yul\":4646:4670   */\n  swap2\n  pop\n    /* \"#utility.yul\":4715:4717   */\n  0x20\n    /* \"#utility.yul\":4704:4713   */\n  dup6\n    /* \"#utility.yul\":4700:4718   */\n  add\n    /* \"#utility.yul\":4687:4718   */\n  swap5\n  pop\n    /* \"#utility.yul\":4561:4565   */\n  0x20\n    /* \"#utility.yul\":4558:4559   */\n  dup2\n    /* \"#utility.yul\":4554:4566   */\n  add\n    /* \"#utility.yul\":4549:4566   */\n  swap1\n  pop\n    /* \"#utility.yul\":4524:4732   */\n  jump(tag_130)\ntag_132:\n    /* \"#utility.yul\":4760:4766   */\n  dup7\n    /* \"#utility.yul\":4751:4758   */\n  dup4\n    /* \"#utility.yul\":4748:4767   */\n  lt\n    /* \"#utility.yul\":4745:4924   */\n  iszero\n  tag_133\n  jumpi\n    /* \"#utility.yul\":4818:4827   */\n  dup5\n    /* \"#utility.yul\":4813:4816   */\n  dup10\n    /* \"#utility.yul\":4809:4828   */\n  add\n    /* \"#utility.yul\":4803:4829   */\n  mload\n    /* \"#utility.yul\":4861:4909   */\n  tag_134\n    /* \"#utility.yul\":4903:4907   */\n  0x1f\n    /* \"#utility.yul\":4895:4901   */\n  dup10\n    /* \"#utility.yul\":4891:4908   */\n  and\n    /* \"#utility.yul\":4880:4889   */\n  dup3\n    /* \"#utility.yul\":4861:4909   */\n  tag_62\n  jump\t// in\ntag_134:\n    /* \"#utility.yul\":4853:4859   */\n  dup4\n    /* \"#utility.yul\":4846:4910   */\n  sstore\n    /* \"#utility.yul\":4768:4924   */\n  pop\n    /* \"#utility.yul\":4745:4924   */\ntag_133:\n    /* \"#utility.yul\":4970:4971   */\n  0x01\n    /* \"#utility.yul\":4966:4967   */\n  0x02\n    /* \"#utility.yul\":4958:4964   */\n  dup9\n    /* \"#utility.yul\":4954:4968   */\n  mul\n    /* \"#utility.yul\":4950:4972   */\n  add\n    /* \"#utility.yul\":4944:4948   */\n  dup9\n    /* \"#utility.yul\":4937:4973   */\n  sstore\n    /* \"#utility.yul\":4372:4983   */\n  pop\n  pop\n  pop\n    /* \"#utility.yul\":4335:5222   */\ntag_125:\n  pop\n    /* \"#utility.yul\":3925:5228   */\n  pop\n  pop\n  pop\n    /* \"#utility.yul\":3833:5228   */\n  pop\n  pop\n  jump\t// out\n    /* \"#utility.yul\":5234:5360   */\ntag_64:\n    /* \"#utility.yul\":5271:5278   */\n  0x00\n    /* \"#utility.yul\":5311:5353   */\n  0xffffffffffffffffffffffffffffffffffffffff\n    /* \"#utility.yul\":5304:5309   */\n  dup3\n    /* \"#utility.yul\":5300:5354   */\n  and\n    /* \"#utility.yul\":5289:5354   */\n  swap1\n  pop\n    /* \"#utility.yul\":5234:5360   */\n  swap2\n  swap1\n  pop\n  jump\t// out\n    /* \"#utility.yul\":5366:5462   */\ntag_65:\n    /* \"#utility.yul\":5403:5410   */\n  0x00\n    /* \"#utility.yul\":5432:5456   */\n  tag_137\n    /* \"#utility.yul\":5450:5455   */\n  dup3\n    /* \"#utility.yul\":5432:5456   */\n  tag_64\n  jump\t// in\ntag_137:\n    /* \"#utility.yul\":5421:5456   */\n  swap1\n  pop\n    /* \"#utility.yul\":5366:5462   */\n  swap2\n  swap1\n  pop\n  jump\t// out\n    /* \"#utility.yul\":5468:5586   */\ntag_66:\n    /* \"#utility.yul\":5555:5579   */\n  tag_139\n    /* \"#utility.yul\":5573:5578   */\n  dup2\n    /* \"#utility.yul\":5555:5579   */\n  tag_65\n  jump\t// in\ntag_139:\n    /* \"#utility.yul\":5550:5553   */\n  dup3\n    /* \"#utility.yul\":5543:5580   */\n  mstore\n    /* \"#utility.yul\":5468:5586   */\n  pop\n  pop\n  jump\t// out\n    /* \"#utility.yul\":5592:5814   */\ntag_12:\n    /* \"#utility.yul\":5685:5689   */\n  0x00\n    /* \"#utility.yul\":5723:5725   */\n  0x20\n    /* \"#utility.yul\":5712:5721   */\n  dup3\n    /* \"#utility.yul\":5708:5726   */\n  add\n    /* \"#utility.yul\":5700:5726   */\n  swap1\n  pop\n    /* \"#utility.yul\":5736:5807   */\n  tag_141\n    /* \"#utility.yul\":5804:5805   */\n  0x00\n    /* \"#utility.yul\":5793:5802   */\n  dup4\n    /* \"#utility.yul\":5789:5806   */\n  add\n    /* \"#utility.yul\":5780:5786   */\n  dup5\n    /* \"#utility.yul\":5736:5807   */\n  tag_66\n  jump\t// in\ntag_141:\n    /* \"#utility.yul\":5592:5814   */\n  swap3\n  swap2\n  pop\n  pop\n  jump\t// out\n    /* \"#utility.yul\":5820:6000   */\ntag_67:\n    /* \"#utility.yul\":5868:5945   */\n  0x4e487b7100000000000000000000000000000000000000000000000000000000\n    /* \"#utility.yul\":5865:5866   */\n  0x00\n    /* \"#utility.yul\":5858:5946   */\n  mstore\n    /* \"#utility.yul\":5965:5969   */\n  0x11\n    /* \"#utility.yul\":5962:5963   */\n  0x04\n    /* \"#utility.yul\":5955:5970   */\n  mstore\n    /* \"#utility.yul\":5989:5993   */\n  0x24\n    /* \"#utility.yul\":5986:5987   */\n  0x00\n    /* \"#utility.yul\":5979:5994   */\n  revert\n    /* \"#utility.yul\":6006:6108   */\ntag_68:\n    /* \"#utility.yul\":6048:6056   */\n  0x00\n    /* \"#utility.yul\":6095:6100   */\n  dup2\n    /* \"#utility.yul\":6092:6093   */\n  0x01\n    /* \"#utility.yul\":6088:6101   */\n  shr\n    /* \"#utility.yul\":6067:6101   */\n  swap1\n  pop\n    /* \"#utility.yul\":6006:6108   */\n  swap2\n  swap1\n  pop\n  jump\t// out\n    /* \"#utility.yul\":6114:6962   */\ntag_69:\n    /* \"#utility.yul\":6175:6180   */\n  0x00\n    /* \"#utility.yul\":6182:6186   */\n  0x00\n    /* \"#utility.yul\":6206:6212   */\n  dup3\n    /* \"#utility.yul\":6197:6212   */\n  swap2\n  pop\n    /* \"#utility.yul\":6230:6235   */\n  dup4\n    /* \"#utility.yul\":6221:6235   */\n  swap1\n  pop\n    /* \"#utility.yul\":6244:6956   */\ntag_145:\n    /* \"#utility.yul\":6265:6266   */\n  0x01\n    /* \"#utility.yul\":6255:6263   */\n  dup6\n    /* \"#utility.yul\":6252:6267   */\n  gt\n    /* \"#utility.yul\":6244:6956   */\n  iszero\n  tag_147\n  jumpi\n    /* \"#utility.yul\":6360:6364   */\n  dup1\n    /* \"#utility.yul\":6355:6358   */\n  dup7\n    /* \"#utility.yul\":6351:6365   */\n  div\n    /* \"#utility.yul\":6345:6349   */\n  dup2\n    /* \"#utility.yul\":6342:6366   */\n  gt\n    /* \"#utility.yul\":6339:6389   */\n  iszero\n  tag_148\n  jumpi\n    /* \"#utility.yul\":6369:6387   */\n  tag_149\n  tag_67\n  jump\t// in\ntag_149:\n    /* \"#utility.yul\":6339:6389   */\ntag_148:\n    /* \"#utility.yul\":6419:6420   */\n  0x01\n    /* \"#utility.yul\":6409:6417   */\n  dup6\n    /* \"#utility.yul\":6405:6421   */\n  and\n    /* \"#utility.yul\":6402:6853   */\n  iszero\n  tag_150\n  jumpi\n    /* \"#utility.yul\":6834:6838   */\n  dup1\n    /* \"#utility.yul\":6827:6832   */\n  dup3\n    /* \"#utility.yul\":6823:6839   */\n  mul\n    /* \"#utility.yul\":6814:6839   */\n  swap2\n  pop\n    /* \"#utility.yul\":6402:6853   */\ntag_150:\n    /* \"#utility.yul\":6884:6888   */\n  dup1\n    /* \"#utility.yul\":6878:6882   */\n  dup2\n    /* \"#utility.yul\":6874:6889   */\n  mul\n    /* \"#utility.yul\":6866:6889   */\n  swap1\n  pop\n    /* \"#utility.yul\":6914:6946   */\n  tag_151\n    /* \"#utility.yul\":6937:6945   */\n  dup6\n    /* \"#utility.yul\":6914:6946   */\n  tag_68\n  jump\t// in\ntag_151:\n    /* \"#utility.yul\":6902:6946   */\n  swap5\n  pop\n    /* \"#utility.yul\":6244:6956   */\n  jump(tag_145)\ntag_147:\n    /* \"#utility.yul\":6114:6962   */\n  swap5\n  pop\n  swap5\n  swap3\n  pop\n  pop\n  pop\n  jump\t// out\n    /* \"#utility.yul\":6968:8041   */\ntag_70:\n    /* \"#utility.yul\":7022:7027   */\n  0x00\n    /* \"#utility.yul\":7213:7221   */\n  dup3\n    /* \"#utility.yul\":7203:7243   */\n  tag_153\n  jumpi\n    /* \"#utility.yul\":7234:7235   */\n  0x01\n    /* \"#utility.yul\":7225:7235   */\n  swap1\n  pop\n    /* \"#utility.yul\":7236:7241   */\n  jump(tag_152)\n    /* \"#utility.yul\":7203:7243   */\ntag_153:\n    /* \"#utility.yul\":7262:7266   */\n  dup2\n    /* \"#utility.yul\":7252:7288   */\n  tag_154\n  jumpi\n    /* \"#utility.yul\":7279:7280   */\n  0x00\n    /* \"#utility.yul\":7270:7280   */\n  swap1\n  pop\n    /* \"#utility.yul\":7281:7286   */\n  jump(tag_152)\n    /* \"#utility.yul\":7252:7288   */\ntag_154:\n    /* \"#utility.yul\":7348:7352   */\n  dup2\n    /* \"#utility.yul\":7396:7397   */\n  0x01\n    /* \"#utility.yul\":7391:7418   */\n  dup2\n  eq\n  tag_156\n  jumpi\n    /* \"#utility.yul\":7432:7433   */\n  0x02\n    /* \"#utility.yul\":7427:7618   */\n  dup2\n  eq\n  tag_157\n  jumpi\n    /* \"#utility.yul\":7341:7618   */\n  jump(tag_155)\n    /* \"#utility.yul\":7391:7418   */\ntag_156:\n    /* \"#utility.yul\":7409:7410   */\n  0x01\n    /* \"#utility.yul\":7400:7410   */\n  swap2\n  pop\n    /* \"#utility.yul\":7411:7416   */\n  pop\n  jump(tag_152)\n    /* \"#utility.yul\":7427:7618   */\ntag_157:\n    /* \"#utility.yul\":7472:7475   */\n  0xff\n    /* \"#utility.yul\":7462:7470   */\n  dup5\n    /* \"#utility.yul\":7459:7476   */\n  gt\n    /* \"#utility.yul\":7456:7499   */\n  iszero\n  tag_158\n  jumpi\n    /* \"#utility.yul\":7479:7497   */\n  tag_159\n  tag_67\n  jump\t// in\ntag_159:\n    /* \"#utility.yul\":7456:7499   */\ntag_158:\n    /* \"#utility.yul\":7528:7536   */\n  dup4\n    /* \"#utility.yul\":7525:7526   */\n  0x02\n    /* \"#utility.yul\":7521:7537   */\n  exp\n    /* \"#utility.yul\":7512:7537   */\n  swap2\n  pop\n    /* \"#utility.yul\":7563:7566   */\n  dup5\n    /* \"#utility.yul\":7556:7561   */\n  dup3\n    /* \"#utility.yul\":7553:7567   */\n  gt\n    /* \"#utility.yul\":7550:7590   */\n  iszero\n  tag_160\n  jumpi\n    /* \"#utility.yul\":7570:7588   */\n  tag_161\n  tag_67\n  jump\t// in\ntag_161:\n    /* \"#utility.yul\":7550:7590   */\ntag_160:\n    /* \"#utility.yul\":7603:7608   */\n  pop\n  jump(tag_152)\n    /* \"#utility.yul\":7341:7618   */\ntag_155:\n  pop\n    /* \"#utility.yul\":7727:7729   */\n  0x20\n    /* \"#utility.yul\":7717:7725   */\n  dup4\n    /* \"#utility.yul\":7714:7730   */\n  lt\n    /* \"#utility.yul\":7708:7711   */\n  0x0133\n    /* \"#utility.yul\":7702:7706   */\n  dup4\n    /* \"#utility.yul\":7699:7712   */\n  lt\n    /* \"#utility.yul\":7695:7731   */\n  and\n    /* \"#utility.yul\":7677:7679   */\n  0x4e\n    /* \"#utility.yul\":7667:7675   */\n  dup5\n    /* \"#utility.yul\":7664:7680   */\n  lt\n    /* \"#utility.yul\":7659:7661   */\n  0x0b\n    /* \"#utility.yul\":7653:7657   */\n  dup5\n    /* \"#utility.yul\":7650:7662   */\n  lt\n    /* \"#utility.yul\":7646:7681   */\n  and\n    /* \"#utility.yul\":7630:7741   */\n  or\n    /* \"#utility.yul\":7627:7873   */\n  iszero\n  tag_162\n  jumpi\n    /* \"#utility.yul\":7783:7791   */\n  dup3\n    /* \"#utility.yul\":7777:7781   */\n  dup3\n    /* \"#utility.yul\":7773:7792   */\n  exp\n    /* \"#utility.yul\":7764:7792   */\n  swap1\n  pop\n    /* \"#utility.yul\":7818:7821   */\n  dup4\n    /* \"#utility.yul\":7811:7816   */\n  dup2\n    /* \"#utility.yul\":7808:7822   */\n  gt\n    /* \"#utility.yul\":7805:7845   */\n  iszero\n  tag_163\n  jumpi\n    /* \"#utility.yul\":7825:7843   */\n  tag_164\n  tag_67\n  jump\t// in\ntag_164:\n    /* \"#utility.yul\":7805:7845   */\ntag_163:\n    /* \"#utility.yul\":7858:7863   */\n  jump(tag_152)\n    /* \"#utility.yul\":7627:7873   */\ntag_162:\n    /* \"#utility.yul\":7898:7940   */\n  tag_165\n    /* \"#utility.yul\":7936:7939   */\n  dup5\n    /* \"#utility.yul\":7926:7934   */\n  dup5\n    /* \"#utility.yul\":7920:7924   */\n  dup5\n    /* \"#utility.yul\":7917:7918   */\n  0x01\n    /* \"#utility.yul\":7898:7940   */\n  tag_69\n  jump\t// in\ntag_165:\n    /* \"#utility.yul\":7883:7940   */\n  swap3\n  pop\n  swap1\n  pop\n    /* \"#utility.yul\":7972:7976   */\n  dup2\n    /* \"#utility.yul\":7967:7970   */\n  dup5\n    /* \"#utility.yul\":7963:7977   */\n  div\n    /* \"#utility.yul\":7956:7961   */\n  dup2\n    /* \"#utility.yul\":7953:7978   */\n  gt\n    /* \"#utility.yul\":7950:8001   */\n  iszero\n  tag_166\n  jumpi\n    /* \"#utility.yul\":7981:7999   */\n  tag_167\n  tag_67\n  jump\t// in\ntag_167:\n    /* \"#utility.yul\":7950:8001   */\ntag_166:\n    /* \"#utility.yul\":8030:8034   */\n  dup2\n    /* \"#utility.yul\":8023:8028   */\n  dup2\n    /* \"#utility.yul\":8019:8035   */\n  mul\n    /* \"#utility.yul\":8010:8035   */\n  swap1\n  pop\n    /* \"#utility.yul\":6968:8041   */\ntag_152:\n  swap4\n  swap3\n  pop\n  pop\n  pop\n  jump\t// out\n    /* \"#utility.yul\":8047:8133   */\ntag_71:\n    /* \"#utility.yul\":8082:8089   */\n  0x00\n    /* \"#utility.yul\":8122:8126   */\n  0xff\n    /* \"#utility.yul\":8115:8120   */\n  dup3\n    /* \"#utility.yul\":8111:8127   */\n  and\n    /* \"#utility.yul\":8100:8127   */\n  swap1\n  pop\n    /* \"#utility.yul\":8047:8133   */\n  swap2\n  swap1\n  pop\n  jump\t// out\n    /* \"#utility.yul\":8139:8420   */\ntag_20:\n    /* \"#utility.yul\":8197:8202   */\n  0x00\n    /* \"#utility.yul\":8221:8244   */\n  tag_170\n    /* \"#utility.yul\":8239:8243   */\n  dup3\n    /* \"#utility.yul\":8221:8244   */\n  tag_52\n  jump\t// in\ntag_170:\n    /* \"#utility.yul\":8213:8244   */\n  swap2\n  pop\n    /* \"#utility.yul\":8265:8290   */\n  tag_171\n    /* \"#utility.yul\":8281:8289   */\n  dup4\n    /* \"#utility.yul\":8265:8290   */\n  tag_71\n  jump\t// in\ntag_171:\n    /* \"#utility.yul\":8253:8290   */\n  swap3\n  pop\n    /* \"#utility.yul\":8309:8413   */\n  tag_172\n    /* \"#utility.yul\":8346:8412   */\n  0xffffffffffffffffffffffffffffffffffffffffffffffffffffffffffffffff\n    /* \"#utility.yul\":8336:8344   */\n  dup5\n    /* \"#utility.yul\":8330:8334   */\n  dup5\n    /* \"#utility.yul\":8309:8413   */\n  tag_70\n  jump\t// in\ntag_172:\n    /* \"#utility.yul\":8300:8413   */\n  swap1\n  pop\n    /* \"#utility.yul\":8139:8420   */\n  swap3\n  swap2\n  pop\n  pop\n  jump\t// out\n    /* \"#utility.yul\":8426:8836   */\ntag_22:\n    /* \"#utility.yul\":8466:8473   */\n  0x00\n    /* \"#utility.yul\":8489:8509   */\n  tag_174\n    /* \"#utility.yul\":8507:8508   */\n  dup3\n    /* \"#utility.yul\":8489:8509   */\n  tag_52\n  jump\t// in\ntag_174:\n    /* \"#utility.yul\":8484:8509   */\n  swap2\n  pop\n    /* \"#utility.yul\":8523:8543   */\n  tag_175\n    /* \"#utility.yul\":8541:8542   */\n  dup4\n    /* \"#utility.yul\":8523:8543   */\n  tag_52\n  jump\t// in\ntag_175:\n    /* \"#utility.yul\":8518:8543   */\n  swap3\n  pop\n    /* \"#utility.yul\":8578:8579   */\n  dup3\n    /* \"#utility.yul\":8575:8576   */\n  dup3\n    /* \"#utility.yul\":8571:8580   */\n  mul\n    /* \"#utility.yul\":8600:8630   */\n  tag_176\n    /* \"#utility.yul\":8618:8629   */\n  dup2\n    /* \"#utility.yul\":8600:8630   */\n  tag_52\n  jump\t// in\ntag_176:\n    /* \"#utility.yul\":8589:8630   */\n  swap2\n  pop\n    /* \"#utility.yul\":8779:8780   */\n  dup3\n    /* \"#utility.yul\":8770:8777   */\n  dup3\n    /* \"#utility.yul\":8766:8781   */\n  div\n    /* \"#utility.yul\":8763:8764   */\n  dup5\n    /* \"#utility.yul\":8760:8782   */\n  eq\n    /* \"#utility.yul\":8740:8741   */\n  dup4\n    /* \"#utility.yul\":8733:8742   */\n  iszero\n    /* \"#utility.yul\":8713:8796   */\n  or\n    /* \"#utility.yul\":8690:8829   */\n  tag_177\n  jumpi\n    /* \"#utility.yul\":8809:8827   */\n  tag_178\n  tag_67\n  jump\t// in\ntag_178:\n    /* \"#utility.yul\":8690:8829   */\ntag_177:\n    /* \"#utility.yul\":8474:8836   */\n  pop\n    /* \"#utility.yul\":8426:8836   */\n  swap3\n  swap2\n  pop\n  pop\n  jump\t// out\n    /* \"#utility.yul\":8842:9033   */\ntag_35:\n    /* \"#utility.yul\":8882:8885   */\n  0x00\n    /* \"#utility.yul\":8901:8921   */\n  tag_180\n    /* \"#utility.yul\":8919:8920   */\n  dup3\n    /* \"#utility.yul\":8901:8921   */\n  tag_52\n  jump\t// in\ntag_180:\n    /* \"#utility.yul\":8896:8921   */\n  swap2\n  pop\n    /* \"#utility.yul\":8935:8955   */\n  tag_181\n    /* \"#utility.yul\":8953:8954   */\n  dup4\n    /* \"#utility.yul\":8935:8955   */\n  tag_52\n  jump\t// in\ntag_181:\n    /* \"#utility.yul\":8930:8955   */\n  swap3\n  pop\n    /* \"#utility.yul\":8978:8979   */\n  dup3\n    /* \"#utility.yul\":8975:8976   */\n  dup3\n    /* \"#utility.yul\":8971:8980   */\n  add\n    /* \"#utility.yul\":8964:8980   */\n  swap1\n  pop\n    /* \"#utility.yul\":8999:9002   */\n  dup1\n    /* \"#utility.yul\":8996:8997   */\n  dup3\n    /* \"#utility.yul\":8993:9003   */\n  gt\n    /* \"#utility.yul\":8990:9026   */\n  iszero\n  tag_182\n  jumpi\n    /* \"#utility.yul\":9006:9024   */\n  tag_183\n  tag_67\n  jump\t// in\ntag_183:\n    /* \"#utility.yul\":8990:9026   */\ntag_182:\n    /* \"#utility.yul\":8842:9033   */\n  swap3\n  swap2\n  pop\n  pop\n  jump\t// out\n    /* \"#utility.yul\":9039:9157   */\ntag_72:\n    /* \"#utility.yul\":9126:9150   */\n  tag_185\n    /* \"#utility.yul\":9144:9149   */\n  dup2\n    /* \"#utility.yul\":9126:9150   */\n  tag_52\n  jump\t// in\ntag_185:\n    /* \"#utility.yul\":9121:9124   */\n  dup3\n    /* \"#utility.yul\":9114:9151   */\n  mstore\n    /* \"#utility.yul\":9039:9157   */\n  pop\n  pop\n  jump\t// out\n    /* \"#utility.yul\":9163:9605   */\ntag_39:\n    /* \"#utility.yul\":9312:9316   */\n  0x00\n    /* \"#utility.yul\":9350:9352   */\n  0x60\n    /* \"#utility.yul\":9339:9348   */\n  dup3\n    /* \"#utility.yul\":9335:9353   */\n  add\n    /* \"#utility.yul\":9327:9353   */\n  swap1\n  pop\n    /* \"#utility.yul\":9363:9434   */\n  tag_187\n    /* \"#utility.yul\":9431:9432   */\n  0x00\n    /* \"#utility.yul\":9420:9429   */\n  dup4\n    /* \"#utility.yul\":9416:9433   */\n  add\n    /* \"#utility.yul\":9407:9413   */\n  dup7\n    /* \"#utility.yul\":9363:9434   */\n  tag_66\n  jump\t// in\ntag_187:\n    /* \"#utility.yul\":9444:9516   */\n  tag_188\n    /* \"#utility.yul\":9512:9514   */\n  0x20\n    /* \"#utility.yul\":9501:9510   */\n  dup4\n    /* \"#utility.yul\":9497:9515   */\n  add\n    /* \"#utility.yul\":9488:9494   */\n  dup6\n    /* \"#utility.yul\":9444:9516   */\n  tag_72\n  jump\t// in\ntag_188:\n    /* \"#utility.yul\":9526:9598   */\n  tag_189\n    /* \"#utility.yul\":9594:9596   */\n  0x40\n    /* \"#utility.yul\":9583:9592   */\n  dup4\n    /* \"#utility.yul\":9579:9597   */\n  add\n    /* \"#utility.yul\":9570:9576   */\n  dup5\n    /* \"#utility.yul\":9526:9598   */\n  tag_72\n  jump\t// in\ntag_189:\n    /* \"#utility.yul\":9163:9605   */\n  swap5\n  swap4\n  pop\n  pop\n  pop\n  pop\n  jump\t// out\n    /* \"#utility.yul\":9611:9833   */\ntag_43:\n    /* \"#utility.yul\":9704:9708   */\n  0x00\n    /* \"#utility.yul\":9742:9744   */\n  0x20\n    /* \"#utility.yul\":9731:9740   */\n  dup3\n    /* \"#utility.yul\":9727:9745   */\n  add\n    /* \"#utility.yul\":9719:9745   */\n  swap1\n  pop\n    /* \"#utility.yul\":9755:9826   */\n  tag_191\n    /* \"#utility.yul\":9823:9824   */\n  0x00\n    /* \"#utility.yul\":9812:9821   */\n  dup4\n    /* \"#utility.yul\":9808:9825   */\n  add\n    /* \"#utility.yul\":9799:9805   */\n  dup5\n    /* \"#utility.yul\":9755:9826   */\n  tag_72\n  jump\t// in\ntag_191:\n    /* \"#utility.yul\":9611:9833   */\n  swap3\n  swap2\n  pop\n  pop\n  jump\t// out\n    /* \"kcash_flattened.sol\":24874:25283  contract Kcash is ERC20, Ownable {... */\ntag_24:\n  dataSize(sub_0)\n  dup1\n  dataOffset(sub_0)\n  0x00\n  codecopy\n  0x00\n  return\nstop\n\nsub_0: assembly {\n        /* \"kcash_flattened.sol\":24874:25283  contract Kcash is ERC20, Ownable {... */\n      mstore(0x40, 0x80)\n      callvalue\n      dup1\n      iszero\n      tag_1\n      jumpi\n      revert(0x00, 0x00)\n    tag_1:\n      pop\n      jumpi(tag_2, lt(calldatasize, 0x04))\n      shr(0xe0, calldataload(0x00))\n      dup1\n      0x715018a6\n      gt\n      tag_15\n      jumpi\n      dup1\n      0x715018a6\n      eq\n      tag_9\n      jumpi\n      dup1\n      0x8da5cb5b\n      eq\n      tag_10\n      jumpi\n      dup1\n      0x95d89b41\n      eq\n      tag_11\n      jumpi\n      dup1\n      0xa9059cbb\n      eq\n      tag_12\n      jumpi\n      dup1\n      0xdd62ed3e\n      eq\n      tag_13\n      jumpi\n      dup1\n      0xf2fde38b\n      eq\n      tag_14\n      jumpi\n      jump(tag_2)\n    tag_15:\n      dup1\n      0x06fdde03\n      eq\n      tag_3\n      jumpi\n      dup1\n      0x095ea7b3\n      eq\n      tag_4\n      jumpi\n      dup1\n      0x18160ddd\n      eq\n      tag_5\n      jumpi\n      dup1\n      0x23b872dd\n      eq\n      tag_6\n      jumpi\n      dup1\n      0x313ce567\n      eq\n      tag_7\n      jumpi\n      dup1\n      0x70a08231\n      eq\n      tag_8\n      jumpi\n    tag_2:\n      revert(0x00, 0x00)\n        /* \"kcash_flattened.sol\":12659:12748  function name() public view virtual returns (string memory) {... */\n    tag_3:\n      tag_16\n      tag_17\n      jump\t// in\n    tag_16:\n      mload(0x40)\n      tag_18\n      swap2\n      swap1\n      tag_19\n      jump\t// in\n    tag_18:\n      mload(0x40)\n      dup1\n      swap2\n      sub\n      swap1\n      return\n        /* \"kcash_flattened.sol\":14801:14987  function approve(address spender, uint256 value) public virtual returns (bool) {... */\n    tag_4:\n      tag_20\n      0x04\n      dup1\n      calldatasize\n      sub\n      dup2\n      add\n      swap1\n      tag_21\n      swap2\n      swap1\n      tag_22\n      jump\t// in\n    tag_21:\n      tag_23\n      jump\t// in\n    tag_20:\n      mload(0x40)\n      tag_24\n      swap2\n      swap1\n      tag_25\n      jump\t// in\n    tag_24:\n      mload(0x40)\n      dup1\n      swap2\n      sub\n      swap1\n      return\n        /* \"kcash_flattened.sol\":13702:13799  function totalSupply() public view virtual returns (uint256) {... */\n    tag_5:\n      tag_26\n      tag_27\n      jump\t// in\n    tag_26:\n      mload(0x40)\n      tag_28\n      swap2\n      swap1\n      tag_29\n      jump\t// in\n    tag_28:\n      mload(0x40)\n      dup1\n      swap2\n      sub\n      swap1\n      return\n        /* \"kcash_flattened.sol\":15579:15823  function transferFrom(address from, address to, uint256 value) public virtual returns (bool) {... */\n    tag_6:\n      tag_30\n      0x04\n      dup1\n      calldatasize\n      sub\n      dup2\n      add\n      swap1\n      tag_31\n      swap2\n      swap1\n      tag_32\n      jump\t// in\n    tag_31:\n      tag_33\n      jump\t// in\n    tag_30:\n      mload(0x40)\n      tag_34\n      swap2\n      swap1\n      tag_25\n      jump\t// in\n    tag_34:\n      mload(0x40)\n      dup1\n      swap2\n      sub\n      swap1\n      return\n        /* \"kcash_flattened.sol\":13587:13669  function decimals() public view virtual returns (uint8) {... */\n    tag_7:\n      tag_35\n      tag_36\n      jump\t// in\n    tag_35:\n      mload(0x40)\n      tag_37\n      swap2\n      swap1\n      tag_38\n      jump\t// in\n    tag_37:\n      mload(0x40)\n      dup1\n      swap2\n      sub\n      swap1\n      return\n        /* \"kcash_flattened.sol\":13832:13948  function balanceOf(address account) public view virtual returns (uint256) {... */\n    tag_8:\n      tag_39\n      0x04\n      dup1\n      calldatasize\n      sub\n      dup2\n      add\n      swap1\n      tag_40\n      swap2\n      swap1\n      tag_41\n      jump\t// in\n    tag_40:\n      tag_42\n      jump\t// in\n    tag_39:\n      mload(0x40)\n      tag_43\n      swap2\n      swap1\n      tag_29\n      jump\t// in\n    tag_43:\n      mload(0x40)\n      dup1\n      swap2\n      sub\n      swap1\n      return\n        /* \"kcash_flattened.sol\":23967:24068  function renounceOwnership() public virtual onlyOwner {... */\n    tag_9:\n      tag_44\n      tag_45\n      jump\t// in\n    tag_44:\n      stop\n        /* \"kcash_flattened.sol\":23312:23397  function owner() public view virtual returns (address) {... */\n    tag_10:\n      tag_46\n      tag_47\n      jump\t// in\n    tag_46:\n      mload(0x40)\n      tag_48\n      swap2\n      swap1\n      tag_49\n      jump\t// in\n    tag_48:\n      mload(0x40)\n      dup1\n      swap2\n      sub\n      swap1\n      return\n        /* \"kcash_flattened.sol\":12861:12954  function symbol() public view virtual returns (string memory) {... */\n    tag_11:\n      tag_50\n      tag_51\n      jump\t// in\n    tag_50:\n      mload(0x40)\n      tag_52\n      swap2\n      swap1\n      tag_19\n      jump\t// in\n    tag_52:\n      mload(0x40)\n      dup1\n      swap2\n      sub\n      swap1\n      return\n        /* \"kcash_flattened.sol\":14143:14321  function transfer(address to, uint256 value) public virtual returns (bool) {... */\n    tag_12:\n      tag_53\n      0x04\n      dup1\n      calldatasize\n      sub\n      dup2\n      add\n      swap1\n      tag_54\n      swap2\n      swap1\n      tag_22\n      jump\t// in\n    tag_54:\n      tag_55\n      jump\t// in\n    tag_53:\n      mload(0x40)\n      tag_56\n      swap2\n      swap1\n      tag_25\n      jump\t// in\n    tag_56:\n      mload(0x40)\n      dup1\n      swap2\n      sub\n      swap1\n      return\n        /* \"kcash_flattened.sol\":14354:14494  function allowance(address owner, address spender) public view virtual returns (uint256) {... */\n    tag_13:\n      tag_57\n      0x04\n      dup1\n      calldatasize\n      sub\n      dup2\n      add\n      swap1\n      tag_58\n      swap2\n      swap1\n      tag_59\n      jump\t// in\n    tag_58:\n      tag_60\n      jump\t// in\n    tag_57:\n      mload(0x40)\n      tag_61\n      swap2\n      swap1\n      tag_29\n      jump\t// in\n    tag_61:\n      mload(0x40)\n      dup1\n      swap2\n      sub\n      swap1\n      return\n        /* \"kcash_flattened.sol\":24217:24432  function transferOwnership(address newOwner) public virtual onlyOwner {... */\n    tag_14:\n      tag_62\n      0x04\n      dup1\n      calldatasize\n      sub\n      dup2\n      add\n      swap1\n      tag_63\n      swap2\n      swap1\n      tag_41\n      jump\t// in\n    tag_63:\n      tag_64\n      jump\t// in\n    tag_62:\n      stop\n        /* \"kcash_flattened.sol\":12659:12748  function name() public view virtual returns (string memory) {... */\n    tag_17:\n        /* \"kcash_flattened.sol\":12704:12717  string memory */\n      0x60\n        /* \"kcash_flattened.sol\":12736:12741  _name */\n      0x03\n        /* \"kcash_flattened.sol\":12729:12741  return _name */\n      dup1\n      sload\n      tag_66\n      swap1\n      tag_67\n      jump\t// in\n    tag_66:\n      dup1\n      0x1f\n      add\n      0x20\n      dup1\n      swap2\n      div\n      mul\n      0x20\n      add\n      mload(0x40)\n      swap1\n      dup2\n      add\n      0x40\n      mstore\n      dup1\n      swap3\n      swap2\n      swap1\n      dup2\n      dup2\n      mstore\n      0x20\n      add\n      dup3\n      dup1\n      sload\n      tag_68\n      swap1\n      tag_67\n      jump\t// in\n    tag_68:\n      dup1\n      iszero\n      tag_69\n      jumpi\n      dup1\n      0x1f\n      lt\n      tag_70\n      jumpi\n      0x0100\n      dup1\n      dup4\n      sload\n      div\n      mul\n      dup4\n      mstore\n      swap2\n      0x20\n      add\n      swap2\n      jump(tag_69)\n    tag_70:\n      dup3\n      add\n      swap2\n      swap1\n      0x00\n      mstore\n      keccak256(0x00, 0x20)\n      swap1\n    tag_71:\n      dup2\n      sload\n      dup2\n      mstore\n      swap1\n      0x01\n      add\n      swap1\n      0x20\n      add\n      dup1\n      dup4\n      gt\n      tag_71\n      jumpi\n      dup3\n      swap1\n      sub\n      0x1f\n      and\n      dup3\n      add\n      swap2\n    tag_69:\n      pop\n      pop\n      pop\n      pop\n      pop\n      swap1\n      pop\n        /* \"kcash_flattened.sol\":12659:12748  function name() public view virtual returns (string memory) {... */\n      swap1\n      jump\t// out\n        /* \"kcash_flattened.sol\":14801:14987  function approve(address spender, uint256 value) public virtual returns (bool) {... */\n    tag_23:\n        /* \"kcash_flattened.sol\":14874:14878  bool */\n      0x00\n        /* \"kcash_flattened.sol\":14890:14903  address owner */\n      0x00\n        /* \"kcash_flattened.sol\":14906:14918  _msgSender() */\n      tag_73\n        /* \"kcash_flattened.sol\":14906:14916  _msgSender */\n      tag_74\n        /* \"kcash_flattened.sol\":14906:14918  _msgSender() */\n      jump\t// in\n    tag_73:\n        /* \"kcash_flattened.sol\":14890:14918  address owner = _msgSender() */\n      swap1\n      pop\n        /* \"kcash_flattened.sol\":14928:14959  _approve(owner, spender, value) */\n      tag_75\n        /* \"kcash_flattened.sol\":14937:14942  owner */\n      dup2\n        /* \"kcash_flattened.sol\":14944:14951  spender */\n      dup6\n        /* \"kcash_flattened.sol\":14953:14958  value */\n      dup6\n        /* \"kcash_flattened.sol\":14928:14936  _approve */\n      tag_76\n        /* \"kcash_flattened.sol\":14928:14959  _approve(owner, spender, value) */\n      jump\t// in\n    tag_75:\n        /* \"kcash_flattened.sol\":14976:14980  true */\n      0x01\n        /* \"kcash_flattened.sol\":14969:14980  return true */\n      swap2\n      pop\n      pop\n        /* \"kcash_flattened.sol\":14801:14987  function approve(address spender, uint256 value) public virtual returns (bool) {... */\n      swap3\n      swap2\n      pop\n      pop\n      jump\t// out\n        /* \"kcash_flattened.sol\":13702:13799  function totalSupply() public view virtual returns (uint256) {... */\n    tag_27:\n        /* \"kcash_flattened.sol\":13754:13761  uint256 */\n      0x00\n        /* \"kcash_flattened.sol\":13780:13792  _totalSupply */\n      sload(0x02)\n        /* \"kcash_flattened.sol\":13773:13792  return _totalSupply */\n      swap1\n      pop\n        /* \"kcash_flattened.sol\":13702:13799  function totalSupply() public view virtual returns (uint256) {... */\n      swap1\n      jump\t// out\n        /* \"kcash_flattened.sol\":15579:15823  function transferFrom(address from, address to, uint256 value) public virtual returns (bool) {... */\n    tag_33:\n        /* \"kcash_flattened.sol\":15666:15670  bool */\n      0x00\n        /* \"kcash_flattened.sol\":15682:15697  address spender */\n      0x00\n        /* \"kcash_flattened.sol\":15700:15712  _msgSender() */\n      tag_79\n        /* \"kcash_flattened.sol\":15700:15710  _msgSender */\n      tag_74\n        /* \"kcash_flattened.sol\":15700:15712  _msgSender() */\n      jump\t// in\n    tag_79:\n        /* \"kcash_flattened.sol\":15682:15712  address spender = _msgSender() */\n      swap1\n      pop\n        /* \"kcash_flattened.sol\":15722:15759  _spendAllowance(from, spender, value) */\n      tag_80\n        /* \"kcash_flattened.sol\":15738:15742  from */\n      dup6\n        /* \"kcash_flattened.sol\":15744:15751  spender */\n      dup3\n        /* \"kcash_flattened.sol\":15753:15758  value */\n      dup6\n        /* \"kcash_flattened.sol\":15722:15737  _spendAllowance */\n      tag_81\n        /* \"kcash_flattened.sol\":15722:15759  _spendAllowance(from, spender, value) */\n      jump\t// in\n    tag_80:\n        /* \"kcash_flattened.sol\":15769:15795  _transfer(from, to, value) */\n      tag_82\n        /* \"kcash_flattened.sol\":15779:15783  from */\n      dup6\n        /* \"kcash_flattened.sol\":15785:15787  to */\n      dup6\n        /* \"kcash_flattened.sol\":15789:15794  value */\n      dup6\n        /* \"kcash_flattened.sol\":15769:15778  _transfer */\n      tag_83\n        /* \"kcash_flattened.sol\":15769:15795  _transfer(from, to, value) */\n      jump\t// in\n    tag_82:\n        /* \"kcash_flattened.sol\":15812:15816  true */\n      0x01\n        /* \"kcash_flattened.sol\":15805:15816  return true */\n      swap2\n      pop\n      pop\n        /* \"kcash_flattened.sol\":15579:15823  function transferFrom(address from, address to, uint256 value) public virtual returns (bool) {... */\n      swap4\n      swap3\n      pop\n      pop\n      pop\n      jump\t// out\n        /* \"kcash_flattened.sol\":13587:13669  function decimals() public view virtual returns (uint8) {... */\n    tag_36:\n        /* \"kcash_flattened.sol\":13636:13641  uint8 */\n      0x00\n        /* \"kcash_flattened.sol\":13660:13662  18 */\n      0x12\n        /* \"kcash_flattened.sol\":13653:13662  return 18 */\n      swap1\n      pop\n        /* \"kcash_flattened.sol\":13587:13669  function decimals() public view virtual returns (uint8) {... */\n      swap1\n      jump\t// out\n        /* \"kcash_flattened.sol\":13832:13948  function balanceOf(address account) public view virtual returns (uint256) {... */\n    tag_42:\n        /* \"kcash_flattened.sol\":13897:13904  uint256 */\n      0x00\n        /* \"kcash_flattened.sol\":13923:13932  _balances */\n      0x00\n        /* \"kcash_flattened.sol\":13923:13941  _balances[account] */\n      0x00\n        /* \"kcash_flattened.sol\":13933:13940  account */\n      dup4\n        /* \"kcash_flattened.sol\":13923:13941  _balances[account] */\n      0xffffffffffffffffffffffffffffffffffffffff\n      and\n      0xffffffffffffffffffffffffffffffffffffffff\n      and\n      dup2\n      mstore\n      0x20\n      add\n      swap1\n      dup2\n      mstore\n      0x20\n      add\n      0x00\n      keccak256\n      sload\n        /* \"kcash_flattened.sol\":13916:13941  return _balances[account] */\n      swap1\n      pop\n        /* \"kcash_flattened.sol\":13832:13948  function balanceOf(address account) public view virtual returns (uint256) {... */\n      swap2\n      swap1\n      pop\n      jump\t// out\n        /* \"kcash_flattened.sol\":23967:24068  function renounceOwnership() public virtual onlyOwner {... */\n    tag_45:\n        /* \"kcash_flattened.sol\":23205:23218  _checkOwner() */\n      tag_87\n        /* \"kcash_flattened.sol\":23205:23216  _checkOwner */\n      tag_88\n        /* \"kcash_flattened.sol\":23205:23218  _checkOwner() */\n      jump\t// in\n    tag_87:\n        /* \"kcash_flattened.sol\":24031:24061  _transferOwnership(address(0)) */\n      tag_90\n        /* \"kcash_flattened.sol\":24058:24059  0 */\n      0x00\n        /* \"kcash_flattened.sol\":24031:24049  _transferOwnership */\n      tag_91\n        /* \"kcash_flattened.sol\":24031:24061  _transferOwnership(address(0)) */\n      jump\t// in\n    tag_90:\n        /* \"kcash_flattened.sol\":23967:24068  function renounceOwnership() public virtual onlyOwner {... */\n      jump\t// out\n        /* \"kcash_flattened.sol\":23312:23397  function owner() public view virtual returns (address) {... */\n    tag_47:\n        /* \"kcash_flattened.sol\":23358:23365  address */\n      0x00\n        /* \"kcash_flattened.sol\":23384:23390  _owner */\n      0x05\n      0x00\n      swap1\n      sload\n      swap1\n      0x0100\n      exp\n      swap1\n      div\n      0xffffffffffffffffffffffffffffffffffffffff\n      and\n        /* \"kcash_flattened.sol\":23377:23390  return _owner */\n      swap1\n      pop\n        /* \"kcash_flattened.sol\":23312:23397  function owner() public view virtual returns (address) {... */\n      swap1\n      jump\t// out\n        /* \"kcash_flattened.sol\":12861:12954  function symbol() public view virtual returns (string memory) {... */\n    tag_51:\n        /* \"kcash_flattened.sol\":12908:12921  string memory */\n      0x60\n        /* \"kcash_flattened.sol\":12940:12947  _symbol */\n      0x04\n        /* \"kcash_flattened.sol\":12933:12947  return _symbol */\n      dup1\n      sload\n      tag_94\n      swap1\n      tag_67\n      jump\t// in\n    tag_94:\n      dup1\n      0x1f\n      add\n      0x20\n      dup1\n      swap2\n      div\n      mul\n      0x20\n      add\n      mload(0x40)\n      swap1\n      dup2\n      add\n      0x40\n      mstore\n      dup1\n      swap3\n      swap2\n      swap1\n      dup2\n      dup2\n      mstore\n      0x20\n      add\n      dup3\n      dup1\n      sload\n      tag_95\n      swap1\n      tag_67\n      jump\t// in\n    tag_95:\n      dup1\n      iszero\n      tag_96\n      jumpi\n      dup1\n      0x1f\n      lt\n      tag_97\n      jumpi\n      0x0100\n      dup1\n      dup4\n      sload\n      div\n      mul\n      dup4\n      mstore\n      swap2\n      0x20\n      add\n      swap2\n      jump(tag_96)\n    tag_97:\n      dup3\n      add\n      swap2\n      swap1\n      0x00\n      mstore\n      keccak256(0x00, 0x20)\n      swap1\n    tag_98:\n      dup2\n      sload\n      dup2\n      mstore\n      swap1\n      0x01\n      add\n      swap1\n      0x20\n      add\n      dup1\n      dup4\n      gt\n      tag_98\n      jumpi\n      dup3\n      swap1\n      sub\n      0x1f\n      and\n      dup3\n      add\n      swap2\n    tag_96:\n      pop\n      pop\n      pop\n      pop\n      pop\n      swap1\n      pop\n        /* \"kcash_flattened.sol\":12861:12954  function symbol() public view virtual returns (string memory) {... */\n      swap1\n      jump\t// out\n        /* \"kcash_flattened.sol\":14143:14321  function transfer(address to, uint256 value) public virtual returns (bool) {... */\n    tag_55:\n        /* \"kcash_flattened.sol\":14212:14216  bool */\n      0x00\n        /* \"kcash_flattened.sol\":14228:14241  address owner */\n      0x00\n        /* \"kcash_flattened.sol\":14244:14256  _msgSender() */\n      tag_100\n        /* \"kcash_flattened.sol\":14244:14254  _msgSender */\n      tag_74\n        /* \"kcash_flattened.sol\":14244:14256  _msgSender() */\n      jump\t// in\n    tag_100:\n        /* \"kcash_flattened.sol\":14228:14256  address owner = _msgSender() */\n      swap1\n      pop\n        /* \"kcash_flattened.sol\":14266:14293  _transfer(owner, to, value) */\n      tag_101\n        /* \"kcash_flattened.sol\":14276:14281  owner */\n      dup2\n        /* \"kcash_flattened.sol\":14283:14285  to */\n      dup6\n        /* \"kcash_flattened.sol\":14287:14292  value */\n      dup6\n        /* \"kcash_flattened.sol\":14266:14275  _transfer */\n      tag_83\n        /* \"kcash_flattened.sol\":14266:14293  _transfer(owner, to, value) */\n      jump\t// in\n    tag_101:\n        /* \"kcash_flattened.sol\":14310:14314  true */\n      0x01\n        /* \"kcash_flattened.sol\":14303:14314  return true */\n      swap2\n      pop\n      pop\n        /* \"kcash_flattened.sol\":14143:14321  function transfer(address to, uint256 value) public virtual returns (bool) {... */\n      swap3\n      swap2\n      pop\n      pop\n      jump\t// out\n        /* \"kcash_flattened.sol\":14354:14494  function allowance(address owner, address spender) public view virtual returns (uint256) {... */\n    tag_60:\n        /* \"kcash_flattened.sol\":14434:14441  uint256 */\n      0x00\n        /* \"kcash_flattened.sol\":14460:14471  _allowances */\n      0x01\n        /* \"kcash_flattened.sol\":14460:14478  _allowances[owner] */\n      0x00\n        /* \"kcash_flattened.sol\":14472:14477  owner */\n      dup5\n        /* \"kcash_flattened.sol\":14460:14478  _allowances[owner] */\n      0xffffffffffffffffffffffffffffffffffffffff\n      and\n      0xffffffffffffffffffffffffffffffffffffffff\n      and\n      dup2\n      mstore\n      0x20\n      add\n      swap1\n      dup2\n      mstore\n      0x20\n      add\n      0x00\n      keccak256\n        /* \"kcash_flattened.sol\":14460:14487  _allowances[owner][spender] */\n      0x00\n        /* \"kcash_flattened.sol\":14479:14486  spender */\n      dup4\n        /* \"kcash_flattened.sol\":14460:14487  _allowances[owner][spender] */\n      0xffffffffffffffffffffffffffffffffffffffff\n      and\n      0xffffffffffffffffffffffffffffffffffffffff\n      and\n      dup2\n      mstore\n      0x20\n      add\n      swap1\n      dup2\n      mstore\n      0x20\n      add\n      0x00\n      keccak256\n      sload\n        /* \"kcash_flattened.sol\":14453:14487  return _allowances[owner][spender] */\n      swap1\n      pop\n        /* \"kcash_flattened.sol\":14354:14494  function allowance(address owner, address spender) public view virtual returns (uint256) {... */\n      swap3\n      swap2\n      pop\n      pop\n      jump\t// out\n        /* \"kcash_flattened.sol\":24217:24432  function transferOwnership(address newOwner) public virtual onlyOwner {... */\n    tag_64:\n        /* \"kcash_flattened.sol\":23205:23218  _checkOwner() */\n      tag_104\n        /* \"kcash_flattened.sol\":23205:23216  _checkOwner */\n      tag_88\n        /* \"kcash_flattened.sol\":23205:23218  _checkOwner() */\n      jump\t// in\n    tag_104:\n        /* \"kcash_flattened.sol\":24321:24322  0 */\n      0x00\n        /* \"kcash_flattened.sol\":24301:24323  newOwner == address(0) */\n      0xffffffffffffffffffffffffffffffffffffffff\n      and\n        /* \"kcash_flattened.sol\":24301:24309  newOwner */\n      dup2\n        /* \"kcash_flattened.sol\":24301:24323  newOwner == address(0) */\n      0xffffffffffffffffffffffffffffffffffffffff\n      and\n      sub\n        /* \"kcash_flattened.sol\":24297:24388  if (newOwner == address(0)) {... */\n      tag_106\n      jumpi\n        /* \"kcash_flattened.sol\":24374:24375  0 */\n      0x00\n        /* \"kcash_flattened.sol\":24346:24377  OwnableInvalidOwner(address(0)) */\n      mload(0x40)\n      0x1e4fbdf700000000000000000000000000000000000000000000000000000000\n      dup2\n      mstore\n      0x04\n      add\n      tag_107\n      swap2\n      swap1\n      tag_49\n      jump\t// in\n    tag_107:\n      mload(0x40)\n      dup1\n      swap2\n      sub\n      swap1\n      revert\n        /* \"kcash_flattened.sol\":24297:24388  if (newOwner == address(0)) {... */\n    tag_106:\n        /* \"kcash_flattened.sol\":24397:24425  _transferOwnership(newOwner) */\n      tag_108\n        /* \"kcash_flattened.sol\":24416:24424  newOwner */\n      dup2\n        /* \"kcash_flattened.sol\":24397:24415  _transferOwnership */\n      tag_91\n        /* \"kcash_flattened.sol\":24397:24425  _transferOwnership(newOwner) */\n      jump\t// in\n    tag_108:\n        /* \"kcash_flattened.sol\":24217:24432  function transferOwnership(address newOwner) public virtual onlyOwner {... */\n      pop\n      jump\t// out\n        /* \"kcash_flattened.sol\":4207:4303  function _msgSender() internal view virtual returns (address) {... */\n    tag_74:\n        /* \"kcash_flattened.sol\":4260:4267  address */\n      0x00\n        /* \"kcash_flattened.sol\":4286:4296  msg.sender */\n      caller\n        /* \"kcash_flattened.sol\":4279:4296  return msg.sender */\n      swap1\n      pop\n        /* \"kcash_flattened.sol\":4207:4303  function _msgSender() internal view virtual returns (address) {... */\n      swap1\n      jump\t// out\n        /* \"kcash_flattened.sol\":19529:19657  function _approve(address owner, address spender, uint256 value) internal {... */\n    tag_76:\n        /* \"kcash_flattened.sol\":19613:19650  _approve(owner, spender, value, true) */\n      tag_111\n        /* \"kcash_flattened.sol\":19622:19627  owner */\n      dup4\n        /* \"kcash_flattened.sol\":19629:19636  spender */\n      dup4\n        /* \"kcash_flattened.sol\":19638:19643  value */\n      dup4\n        /* \"kcash_flattened.sol\":19645:19649  true */\n      0x01\n        /* \"kcash_flattened.sol\":19613:19621  _approve */\n      tag_112\n        /* \"kcash_flattened.sol\":19613:19650  _approve(owner, spender, value, true) */\n      jump\t// in\n    tag_111:\n        /* \"kcash_flattened.sol\":19529:19657  function _approve(address owner, address spender, uint256 value) internal {... */\n      pop\n      pop\n      pop\n      jump\t// out\n        /* \"kcash_flattened.sol\":21218:21694  function _spendAllowance(address owner, address spender, uint256 value) internal virtual {... */\n    tag_81:\n        /* \"kcash_flattened.sol\":21317:21341  uint256 currentAllowance */\n      0x00\n        /* \"kcash_flattened.sol\":21344:21369  allowance(owner, spender) */\n      tag_114\n        /* \"kcash_flattened.sol\":21354:21359  owner */\n      dup5\n        /* \"kcash_flattened.sol\":21361:21368  spender */\n      dup5\n        /* \"kcash_flattened.sol\":21344:21353  allowance */\n      tag_60\n        /* \"kcash_flattened.sol\":21344:21369  allowance(owner, spender) */\n      jump\t// in\n    tag_114:\n        /* \"kcash_flattened.sol\":21317:21369  uint256 currentAllowance = allowance(owner, spender) */\n      swap1\n      pop\n        /* \"kcash_flattened.sol\":21402:21419  type(uint256).max */\n      0xffffffffffffffffffffffffffffffffffffffffffffffffffffffffffffffff\n        /* \"kcash_flattened.sol\":21383:21399  currentAllowance */\n      dup2\n        /* \"kcash_flattened.sol\":21383:21419  currentAllowance < type(uint256).max */\n      lt\n        /* \"kcash_flattened.sol\":21379:21688  if (currentAllowance < type(uint256).max) {... */\n      iszero\n      tag_115\n      jumpi\n        /* \"kcash_flattened.sol\":21458:21463  value */\n      dup2\n        /* \"kcash_flattened.sol\":21439:21455  currentAllowance */\n      dup2\n        /* \"kcash_flattened.sol\":21439:21463  currentAllowance < value */\n      lt\n        /* \"kcash_flattened.sol\":21435:21565  if (currentAllowance < value) {... */\n      iszero\n      tag_116\n      jumpi\n        /* \"kcash_flattened.sol\":21517:21524  spender */\n      dup3\n        /* \"kcash_flattened.sol\":21526:21542  currentAllowance */\n      dup2\n        /* \"kcash_flattened.sol\":21544:21549  value */\n      dup4\n        /* \"kcash_flattened.sol\":21490:21550  ERC20InsufficientAllowance(spender, currentAllowance, value) */\n      mload(0x40)\n      0xfb8f41b200000000000000000000000000000000000000000000000000000000\n      dup2\n      mstore\n      0x04\n      add\n      tag_117\n      swap4\n      swap3\n      swap2\n      swap1\n      tag_118\n      jump\t// in\n    tag_117:\n      mload(0x40)\n      dup1\n      swap2\n      sub\n      swap1\n      revert\n        /* \"kcash_flattened.sol\":21435:21565  if (currentAllowance < value) {... */\n    tag_116:\n        /* \"kcash_flattened.sol\":21606:21663  _approve(owner, spender, currentAllowance - value, false) */\n      tag_119\n        /* \"kcash_flattened.sol\":21615:21620  owner */\n      dup5\n        /* \"kcash_flattened.sol\":21622:21629  spender */\n      dup5\n        /* \"kcash_flattened.sol\":21650:21655  value */\n      dup5\n        /* \"kcash_flattened.sol\":21631:21647  currentAllowance */\n      dup5\n        /* \"kcash_flattened.sol\":21631:21655  currentAllowance - value */\n      sub\n        /* \"kcash_flattened.sol\":21657:21662  false */\n      0x00\n        /* \"kcash_flattened.sol\":21606:21614  _approve */\n      tag_112\n        /* \"kcash_flattened.sol\":21606:21663  _approve(owner, spender, currentAllowance - value, false) */\n      jump\t// in\n    tag_119:\n        /* \"kcash_flattened.sol\":21379:21688  if (currentAllowance < type(uint256).max) {... */\n    tag_115:\n        /* \"kcash_flattened.sol\":21307:21694  {... */\n      pop\n        /* \"kcash_flattened.sol\":21218:21694  function _spendAllowance(address owner, address spender, uint256 value) internal virtual {... */\n      pop\n      pop\n      pop\n      jump\t// out\n        /* \"kcash_flattened.sol\":16196:16496  function _transfer(address from, address to, uint256 value) internal {... */\n    tag_83:\n        /* \"kcash_flattened.sol\":16295:16296  0 */\n      0x00\n        /* \"kcash_flattened.sol\":16279:16297  from == address(0) */\n      0xffffffffffffffffffffffffffffffffffffffff\n      and\n        /* \"kcash_flattened.sol\":16279:16283  from */\n      dup4\n        /* \"kcash_flattened.sol\":16279:16297  from == address(0) */\n      0xffffffffffffffffffffffffffffffffffffffff\n      and\n      sub\n        /* \"kcash_flattened.sol\":16275:16361  if (from == address(0)) {... */\n      tag_121\n      jumpi\n        /* \"kcash_flattened.sol\":16347:16348  0 */\n      0x00\n        /* \"kcash_flattened.sol\":16320:16350  ERC20InvalidSender(address(0)) */\n      mload(0x40)\n      0x96c6fd1e00000000000000000000000000000000000000000000000000000000\n      dup2\n      mstore\n      0x04\n      add\n      tag_122\n      swap2\n      swap1\n      tag_49\n      jump\t// in\n    tag_122:\n      mload(0x40)\n      dup1\n      swap2\n      sub\n      swap1\n      revert\n        /* \"kcash_flattened.sol\":16275:16361  if (from == address(0)) {... */\n    tag_121:\n        /* \"kcash_flattened.sol\":16388:16389  0 */\n      0x00\n        /* \"kcash_flattened.sol\":16374:16390  to == address(0) */\n      0xffffffffffffffffffffffffffffffffffffffff\n      and\n        /* \"kcash_flattened.sol\":16374:16376  to */\n      dup3\n        /* \"kcash_flattened.sol\":16374:16390  to == address(0) */\n      0xffffffffffffffffffffffffffffffffffffffff\n      and\n      sub\n        /* \"kcash_flattened.sol\":16370:16456  if (to == address(0)) {... */\n      tag_123\n      jumpi\n        /* \"kcash_flattened.sol\":16442:16443  0 */\n      0x00\n        /* \"kcash_flattened.sol\":16413:16445  ERC20InvalidReceiver(address(0)) */\n      mload(0x40)\n      0xec442f0500000000000000000000000000000000000000000000000000000000\n      dup2\n      mstore\n      0x04\n      add\n      tag_124\n      swap2\n      swap1\n      tag_49\n      jump\t// in\n    tag_124:\n      mload(0x40)\n      dup1\n      swap2\n      sub\n      swap1\n      revert\n        /* \"kcash_flattened.sol\":16370:16456  if (to == address(0)) {... */\n    tag_123:\n        /* \"kcash_flattened.sol\":16465:16489  _update(from, to, value) */\n      tag_125\n        /* \"kcash_flattened.sol\":16473:16477  from */\n      dup4\n        /* \"kcash_flattened.sol\":16479:16481  to */\n      dup4\n        /* \"kcash_flattened.sol\":16483:16488  value */\n      dup4\n        /* \"kcash_flattened.sol\":16465:16472  _update */\n      tag_126\n        /* \"kcash_flattened.sol\":16465:16489  _update(from, to, value) */\n      jump\t// in\n    tag_125:\n        /* \"kcash_flattened.sol\":16196:16496  function _transfer(address from, address to, uint256 value) internal {... */\n      pop\n      pop\n      pop\n      jump\t// out\n        /* \"kcash_flattened.sol\":23470:23632  function _checkOwner() internal view virtual {... */\n    tag_88:\n        /* \"kcash_flattened.sol\":23540:23552  _msgSender() */\n      tag_128\n        /* \"kcash_flattened.sol\":23540:23550  _msgSender */\n      tag_74\n        /* \"kcash_flattened.sol\":23540:23552  _msgSender() */\n      jump\t// in\n    tag_128:\n        /* \"kcash_flattened.sol\":23529:23552  owner() != _msgSender() */\n      0xffffffffffffffffffffffffffffffffffffffff\n      and\n        /* \"kcash_flattened.sol\":23529:23536  owner() */\n      tag_129\n        /* \"kcash_flattened.sol\":23529:23534  owner */\n      tag_47\n        /* \"kcash_flattened.sol\":23529:23536  owner() */\n      jump\t// in\n    tag_129:\n        /* \"kcash_flattened.sol\":23529:23552  owner() != _msgSender() */\n      0xffffffffffffffffffffffffffffffffffffffff\n      and\n      eq\n        /* \"kcash_flattened.sol\":23525:23626  if (owner() != _msgSender()) {... */\n      tag_130\n      jumpi\n        /* \"kcash_flattened.sol\":23602:23614  _msgSender() */\n      tag_131\n        /* \"kcash_flattened.sol\":23602:23612  _msgSender */\n      tag_74\n        /* \"kcash_flattened.sol\":23602:23614  _msgSender() */\n      jump\t// in\n    tag_131:\n        /* \"kcash_flattened.sol\":23575:23615  OwnableUnauthorizedAccount(_msgSender()) */\n      mload(0x40)\n      0x118cdaa700000000000000000000000000000000000000000000000000000000\n      dup2\n      mstore\n      0x04\n      add\n      tag_132\n      swap2\n      swap1\n      tag_49\n      jump\t// in\n    tag_132:\n      mload(0x40)\n      dup1\n      swap2\n      sub\n      swap1\n      revert\n        /* \"kcash_flattened.sol\":23525:23626  if (owner() != _msgSender()) {... */\n    tag_130:\n        /* \"kcash_flattened.sol\":23470:23632  function _checkOwner() internal view virtual {... */\n      jump\t// out\n        /* \"kcash_flattened.sol\":24586:24773  function _transferOwnership(address newOwner) internal virtual {... */\n    tag_91:\n        /* \"kcash_flattened.sol\":24659:24675  address oldOwner */\n      0x00\n        /* \"kcash_flattened.sol\":24678:24684  _owner */\n      0x05\n      0x00\n      swap1\n      sload\n      swap1\n      0x0100\n      exp\n      swap1\n      div\n      0xffffffffffffffffffffffffffffffffffffffff\n      and\n        /* \"kcash_flattened.sol\":24659:24684  address oldOwner = _owner */\n      swap1\n      pop\n        /* \"kcash_flattened.sol\":24703:24711  newOwner */\n      dup2\n        /* \"kcash_flattened.sol\":24694:24700  _owner */\n      0x05\n      0x00\n        /* \"kcash_flattened.sol\":24694:24711  _owner = newOwner */\n      0x0100\n      exp\n      dup2\n      sload\n      dup2\n      0xffffffffffffffffffffffffffffffffffffffff\n      mul\n      not\n      and\n      swap1\n      dup4\n      0xffffffffffffffffffffffffffffffffffffffff\n      and\n      mul\n      or\n      swap1\n      sstore\n      pop\n        /* \"kcash_flattened.sol\":24757:24765  newOwner */\n      dup2\n        /* \"kcash_flattened.sol\":24726:24766  OwnershipTransferred(oldOwner, newOwner) */\n      0xffffffffffffffffffffffffffffffffffffffff\n      and\n        /* \"kcash_flattened.sol\":24747:24755  oldOwner */\n      dup2\n        /* \"kcash_flattened.sol\":24726:24766  OwnershipTransferred(oldOwner, newOwner) */\n      0xffffffffffffffffffffffffffffffffffffffff\n      and\n      0x8be0079c531659141344cd1fd0a4f28419497f9722a3daafe3b4186f6b6457e0\n      mload(0x40)\n      mload(0x40)\n      dup1\n      swap2\n      sub\n      swap1\n      log3\n        /* \"kcash_flattened.sol\":24649:24773  {... */\n      pop\n        /* \"kcash_flattened.sol\":24586:24773  function _transferOwnership(address newOwner) internal virtual {... */\n      pop\n      jump\t// out\n        /* \"kcash_flattened.sol\":20504:20936  function _approve(address owner, address spender, uint256 value, bool emitEvent) internal virtual {... */\n    tag_112:\n        /* \"kcash_flattened.sol\":20633:20634  0 */\n      0x00\n        /* \"kcash_flattened.sol\":20616:20635  owner == address(0) */\n      0xffffffffffffffffffffffffffffffffffffffff\n      and\n        /* \"kcash_flattened.sol\":20616:20621  owner */\n      dup5\n        /* \"kcash_flattened.sol\":20616:20635  owner == address(0) */\n      0xffffffffffffffffffffffffffffffffffffffff\n      and\n      sub\n        /* \"kcash_flattened.sol\":20612:20701  if (owner == address(0)) {... */\n      tag_135\n      jumpi\n        /* \"kcash_flattened.sol\":20687:20688  0 */\n      0x00\n        /* \"kcash_flattened.sol\":20658:20690  ERC20InvalidApprover(address(0)) */\n      mload(0x40)\n      0xe602df0500000000000000000000000000000000000000000000000000000000\n      dup2\n      mstore\n      0x04\n      add\n      tag_136\n      swap2\n      swap1\n      tag_49\n      jump\t// in\n    tag_136:\n      mload(0x40)\n      dup1\n      swap2\n      sub\n      swap1\n      revert\n        /* \"kcash_flattened.sol\":20612:20701  if (owner == address(0)) {... */\n    tag_135:\n        /* \"kcash_flattened.sol\":20733:20734  0 */\n      0x00\n        /* \"kcash_flattened.sol\":20714:20735  spender == address(0) */\n      0xffffffffffffffffffffffffffffffffffffffff\n      and\n        /* \"kcash_flattened.sol\":20714:20721  spender */\n      dup4\n        /* \"kcash_flattened.sol\":20714:20735  spender == address(0) */\n      0xffffffffffffffffffffffffffffffffffffffff\n      and\n      sub\n        /* \"kcash_flattened.sol\":20710:20800  if (spender == address(0)) {... */\n      tag_137\n      jumpi\n        /* \"kcash_flattened.sol\":20786:20787  0 */\n      0x00\n        /* \"kcash_flattened.sol\":20758:20789  ERC20InvalidSpender(address(0)) */\n      mload(0x40)\n      0x94280d6200000000000000000000000000000000000000000000000000000000\n      dup2\n      mstore\n      0x04\n      add\n      tag_138\n      swap2\n      swap1\n      tag_49\n      jump\t// in\n    tag_138:\n      mload(0x40)\n      dup1\n      swap2\n      sub\n      swap1\n      revert\n        /* \"kcash_flattened.sol\":20710:20800  if (spender == address(0)) {... */\n    tag_137:\n        /* \"kcash_flattened.sol\":20839:20844  value */\n      dup2\n        /* \"kcash_flattened.sol\":20809:20820  _allowances */\n      0x01\n        /* \"kcash_flattened.sol\":20809:20827  _allowances[owner] */\n      0x00\n        /* \"kcash_flattened.sol\":20821:20826  owner */\n      dup7\n        /* \"kcash_flattened.sol\":20809:20827  _allowances[owner] */\n      0xffffffffffffffffffffffffffffffffffffffff\n      and\n      0xffffffffffffffffffffffffffffffffffffffff\n      and\n      dup2\n      mstore\n      0x20\n      add\n      swap1\n      dup2\n      mstore\n      0x20\n      add\n      0x00\n      keccak256\n        /* \"kcash_flattened.sol\":20809:20836  _allowances[owner][spender] */\n      0x00\n        /* \"kcash_flattened.sol\":20828:20835  spender */\n      dup6\n        /* \"kcash_flattened.sol\":20809:20836  _allowances[owner][spender] */\n      0xffffffffffffffffffffffffffffffffffffffff\n      and\n      0xffffffffffffffffffffffffffffffffffffffff\n      and\n      dup2\n      mstore\n      0x20\n      add\n      swap1\n      dup2\n      mstore\n      0x20\n      add\n      0x00\n      keccak256\n        /* \"kcash_flattened.sol\":20809:20844  _allowances[owner][spender] = value */\n      dup2\n      swap1\n      sstore\n      pop\n        /* \"kcash_flattened.sol\":20858:20867  emitEvent */\n      dup1\n        /* \"kcash_flattened.sol\":20854:20930  if (emitEvent) {... */\n      iszero\n      tag_139\n      jumpi\n        /* \"kcash_flattened.sol\":20904:20911  spender */\n      dup3\n        /* \"kcash_flattened.sol\":20888:20919  Approval(owner, spender, value) */\n      0xffffffffffffffffffffffffffffffffffffffff\n      and\n        /* \"kcash_flattened.sol\":20897:20902  owner */\n      dup5\n        /* \"kcash_flattened.sol\":20888:20919  Approval(owner, spender, value) */\n      0xffffffffffffffffffffffffffffffffffffffff\n      and\n      0x8c5be1e5ebec7d5bd14f71427d1e84f3dd0314c0f7b2291e5b200ac8c7c3b925\n        /* \"kcash_flattened.sol\":20913:20918  value */\n      dup5\n        /* \"kcash_flattened.sol\":20888:20919  Approval(owner, spender, value) */\n      mload(0x40)\n      tag_140\n      swap2\n      swap1\n      tag_29\n      jump\t// in\n    tag_140:\n      mload(0x40)\n      dup1\n      swap2\n      sub\n      swap1\n      log3\n        /* \"kcash_flattened.sol\":20854:20930  if (emitEvent) {... */\n    tag_139:\n        /* \"kcash_flattened.sol\":20504:20936  function _approve(address owner, address spender, uint256 value, bool emitEvent) internal virtual {... */\n      pop\n      pop\n      pop\n      pop\n      jump\t// out\n        /* \"kcash_flattened.sol\":16811:17918  function _update(address from, address to, uint256 value) internal virtual {... */\n    tag_126:\n        /* \"kcash_flattened.sol\":16916:16917  0 */\n      0x00\n        /* \"kcash_flattened.sol\":16900:16918  from == address(0) */\n      0xffffffffffffffffffffffffffffffffffffffff\n      and\n        /* \"kcash_flattened.sol\":16900:16904  from */\n      dup4\n        /* \"kcash_flattened.sol\":16900:16918  from == address(0) */\n      0xffffffffffffffffffffffffffffffffffffffff\n      and\n      sub\n        /* \"kcash_flattened.sol\":16896:17436  if (from == address(0)) {... */\n      tag_142\n      jumpi\n        /* \"kcash_flattened.sol\":17052:17057  value */\n      dup1\n        /* \"kcash_flattened.sol\":17036:17048  _totalSupply */\n      0x02\n      0x00\n        /* \"kcash_flattened.sol\":17036:17057  _totalSupply += value */\n      dup3\n      dup3\n      sload\n      tag_143\n      swap2\n      swap1\n      tag_144\n      jump\t// in\n    tag_143:\n      swap3\n      pop\n      pop\n      dup2\n      swap1\n      sstore\n      pop\n        /* \"kcash_flattened.sol\":16896:17436  if (from == address(0)) {... */\n      jump(tag_145)\n    tag_142:\n        /* \"kcash_flattened.sol\":17088:17107  uint256 fromBalance */\n      0x00\n        /* \"kcash_flattened.sol\":17110:17119  _balances */\n      0x00\n        /* \"kcash_flattened.sol\":17110:17125  _balances[from] */\n      0x00\n        /* \"kcash_flattened.sol\":17120:17124  from */\n      dup6\n        /* \"kcash_flattened.sol\":17110:17125  _balances[from] */\n      0xffffffffffffffffffffffffffffffffffffffff\n      and\n      0xffffffffffffffffffffffffffffffffffffffff\n      and\n      dup2\n      mstore\n      0x20\n      add\n      swap1\n      dup2\n      mstore\n      0x20\n      add\n      0x00\n      keccak256\n      sload\n        /* \"kcash_flattened.sol\":17088:17125  uint256 fromBalance = _balances[from] */\n      swap1\n      pop\n        /* \"kcash_flattened.sol\":17157:17162  value */\n      dup2\n        /* \"kcash_flattened.sol\":17143:17154  fromBalance */\n      dup2\n        /* \"kcash_flattened.sol\":17143:17162  fromBalance < value */\n      lt\n        /* \"kcash_flattened.sol\":17139:17254  if (fromBalance < value) {... */\n      iszero\n      tag_146\n      jumpi\n        /* \"kcash_flattened.sol\":17214:17218  from */\n      dup4\n        /* \"kcash_flattened.sol\":17220:17231  fromBalance */\n      dup2\n        /* \"kcash_flattened.sol\":17233:17238  value */\n      dup4\n        /* \"kcash_flattened.sol\":17189:17239  ERC20InsufficientBalance(from, fromBalance, value) */\n      mload(0x40)\n      0xe450d38c00000000000000000000000000000000000000000000000000000000\n      dup2\n      mstore\n      0x04\n      add\n      tag_147\n      swap4\n      swap3\n      swap2\n      swap1\n      tag_118\n      jump\t// in\n    tag_147:\n      mload(0x40)\n      dup1\n      swap2\n      sub\n      swap1\n      revert\n        /* \"kcash_flattened.sol\":17139:17254  if (fromBalance < value) {... */\n    tag_146:\n        /* \"kcash_flattened.sol\":17406:17411  value */\n      dup2\n        /* \"kcash_flattened.sol\":17392:17403  fromBalance */\n      dup2\n        /* \"kcash_flattened.sol\":17392:17411  fromBalance - value */\n      sub\n        /* \"kcash_flattened.sol\":17374:17383  _balances */\n      0x00\n        /* \"kcash_flattened.sol\":17374:17389  _balances[from] */\n      0x00\n        /* \"kcash_flattened.sol\":17384:17388  from */\n      dup7\n        /* \"kcash_flattened.sol\":17374:17389  _balances[from] */\n      0xffffffffffffffffffffffffffffffffffffffff\n      and\n      0xffffffffffffffffffffffffffffffffffffffff\n      and\n      dup2\n      mstore\n      0x20\n      add\n      swap1\n      dup2\n      mstore\n      0x20\n      add\n      0x00\n      keccak256\n        /* \"kcash_flattened.sol\":17374:17411  _balances[from] = fromBalance - value */\n      dup2\n      swap1\n      sstore\n      pop\n        /* \"kcash_flattened.sol\":17074:17436  {... */\n      pop\n        /* \"kcash_flattened.sol\":16896:17436  if (from == address(0)) {... */\n    tag_145:\n        /* \"kcash_flattened.sol\":17464:17465  0 */\n      0x00\n        /* \"kcash_flattened.sol\":17450:17466  to == address(0) */\n      0xffffffffffffffffffffffffffffffffffffffff\n      and\n        /* \"kcash_flattened.sol\":17450:17452  to */\n      dup3\n        /* \"kcash_flattened.sol\":17450:17466  to == address(0) */\n      0xffffffffffffffffffffffffffffffffffffffff\n      and\n      sub\n        /* \"kcash_flattened.sol\":17446:17871  if (to == address(0)) {... */\n      tag_148\n      jumpi\n        /* \"kcash_flattened.sol\":17629:17634  value */\n      dup1\n        /* \"kcash_flattened.sol\":17613:17625  _totalSupply */\n      0x02\n      0x00\n        /* \"kcash_flattened.sol\":17613:17634  _totalSupply -= value */\n      dup3\n      dup3\n      sload\n      sub\n      swap3\n      pop\n      pop\n      dup2\n      swap1\n      sstore\n      pop\n        /* \"kcash_flattened.sol\":17446:17871  if (to == address(0)) {... */\n      jump(tag_149)\n    tag_148:\n        /* \"kcash_flattened.sol\":17841:17846  value */\n      dup1\n        /* \"kcash_flattened.sol\":17824:17833  _balances */\n      0x00\n        /* \"kcash_flattened.sol\":17824:17837  _balances[to] */\n      0x00\n        /* \"kcash_flattened.sol\":17834:17836  to */\n      dup5\n        /* \"kcash_flattened.sol\":17824:17837  _balances[to] */\n      0xffffffffffffffffffffffffffffffffffffffff\n      and\n      0xffffffffffffffffffffffffffffffffffffffff\n      and\n      dup2\n      mstore\n      0x20\n      add\n      swap1\n      dup2\n      mstore\n      0x20\n      add\n      0x00\n      keccak256\n      0x00\n        /* \"kcash_flattened.sol\":17824:17846  _balances[to] += value */\n      dup3\n      dup3\n      sload\n      add\n      swap3\n      pop\n      pop\n      dup2\n      swap1\n      sstore\n      pop\n        /* \"kcash_flattened.sol\":17446:17871  if (to == address(0)) {... */\n    tag_149:\n        /* \"kcash_flattened.sol\":17901:17903  to */\n      dup2\n        /* \"kcash_flattened.sol\":17886:17911  Transfer(from, to, value) */\n      0xffffffffffffffffffffffffffffffffffffffff\n      and\n        /* \"kcash_flattened.sol\":17895:17899  from */\n      dup4\n        /* \"kcash_flattened.sol\":17886:17911  Transfer(from, to, value) */\n      0xffffffffffffffffffffffffffffffffffffffff\n      and\n      0xddf252ad1be2c89b69c2b068fc378daa952ba7f163c4a11628f55a4df523b3ef\n        /* \"kcash_flattened.sol\":17905:17910  value */\n      dup4\n        /* \"kcash_flattened.sol\":17886:17911  Transfer(from, to, value) */\n      mload(0x40)\n      tag_150\n      swap2\n      swap1\n      tag_29\n      jump\t// in\n    tag_150:\n      mload(0x40)\n      dup1\n      swap2\n      sub\n      swap1\n      log3\n        /* \"kcash_flattened.sol\":16811:17918  function _update(address from, address to, uint256 value) internal virtual {... */\n      pop\n      pop\n      pop\n      jump\t// out\n        /* \"#utility.yul\":7:106   */\n    tag_151:\n        /* \"#utility.yul\":59:65   */\n      0x00\n        /* \"#utility.yul\":93:98   */\n      dup2\n        /* \"#utility.yul\":87:99   */\n      mload\n        /* \"#utility.yul\":77:99   */\n      swap1\n      pop\n        /* \"#utility.yul\":7:106   */\n      swap2\n      swap1\n      pop\n      jump\t// out\n        /* \"#utility.yul\":112:281   */\n    tag_152:\n        /* \"#utility.yul\":196:207   */\n      0x00\n        /* \"#utility.yul\":230:236   */\n      dup3\n        /* \"#utility.yul\":225:228   */\n      dup3\n        /* \"#utility.yul\":218:237   */\n      mstore\n        /* \"#utility.yul\":270:274   */\n      0x20\n        /* \"#utility.yul\":265:268   */\n      dup3\n        /* \"#utility.yul\":261:275   */\n      add\n        /* \"#utility.yul\":246:275   */\n      swap1\n      pop\n        /* \"#utility.yul\":112:281   */\n      swap3\n      swap2\n      pop\n      pop\n      jump\t// out\n        /* \"#utility.yul\":287:426   */\n    tag_153:\n        /* \"#utility.yul\":376:382   */\n      dup3\n        /* \"#utility.yul\":371:374   */\n      dup2\n        /* \"#utility.yul\":366:369   */\n      dup4\n        /* \"#utility.yul\":360:383   */\n      mcopy\n        /* \"#utility.yul\":417:418   */\n      0x00\n        /* \"#utility.yul\":408:414   */\n      dup4\n        /* \"#utility.yul\":403:406   */\n      dup4\n        /* \"#utility.yul\":399:415   */\n      add\n        /* \"#utility.yul\":392:419   */\n      mstore\n        /* \"#utility.yul\":287:426   */\n      pop\n      pop\n      pop\n      jump\t// out\n        /* \"#utility.yul\":432:534   */\n    tag_154:\n        /* \"#utility.yul\":473:479   */\n      0x00\n        /* \"#utility.yul\":524:526   */\n      0x1f\n        /* \"#utility.yul\":520:527   */\n      not\n        /* \"#utility.yul\":515:517   */\n      0x1f\n        /* \"#utility.yul\":508:513   */\n      dup4\n        /* \"#utility.yul\":504:518   */\n      add\n        /* \"#utility.yul\":500:528   */\n      and\n        /* \"#utility.yul\":490:528   */\n      swap1\n      pop\n        /* \"#utility.yul\":432:534   */\n      swap2\n      swap1\n      pop\n      jump\t// out\n        /* \"#utility.yul\":540:917   */\n    tag_155:\n        /* \"#utility.yul\":628:631   */\n      0x00\n        /* \"#utility.yul\":656:695   */\n      tag_180\n        /* \"#utility.yul\":689:694   */\n      dup3\n        /* \"#utility.yul\":656:695   */\n      tag_151\n      jump\t// in\n    tag_180:\n        /* \"#utility.yul\":711:782   */\n      tag_181\n        /* \"#utility.yul\":775:781   */\n      dup2\n        /* \"#utility.yul\":770:773   */\n      dup6\n        /* \"#utility.yul\":711:782   */\n      tag_152\n      jump\t// in\n    tag_181:\n        /* \"#utility.yul\":704:782   */\n      swap4\n      pop\n        /* \"#utility.yul\":791:856   */\n      tag_182\n        /* \"#utility.yul\":849:855   */\n      dup2\n        /* \"#utility.yul\":844:847   */\n      dup6\n        /* \"#utility.yul\":837:841   */\n      0x20\n        /* \"#utility.yul\":830:835   */\n      dup7\n        /* \"#utility.yul\":826:842   */\n      add\n        /* \"#utility.yul\":791:856   */\n      tag_153\n      jump\t// in\n    tag_182:\n        /* \"#utility.yul\":881:910   */\n      tag_183\n        /* \"#utility.yul\":903:909   */\n      dup2\n        /* \"#utility.yul\":881:910   */\n      tag_154\n      jump\t// in\n    tag_183:\n        /* \"#utility.yul\":876:879   */\n      dup5\n        /* \"#utility.yul\":872:911   */\n      add\n        /* \"#utility.yul\":865:911   */\n      swap2\n      pop\n        /* \"#utility.yul\":632:917   */\n      pop\n        /* \"#utility.yul\":540:917   */\n      swap3\n      swap2\n      pop\n      pop\n      jump\t// out\n        /* \"#utility.yul\":923:1236   */\n    tag_19:\n        /* \"#utility.yul\":1036:1040   */\n      0x00\n        /* \"#utility.yul\":1074:1076   */\n      0x20\n        /* \"#utility.yul\":1063:1072   */\n      dup3\n        /* \"#utility.yul\":1059:1077   */\n      add\n        /* \"#utility.yul\":1051:1077   */\n      swap1\n      pop\n        /* \"#utility.yul\":1123:1132   */\n      dup2\n        /* \"#utility.yul\":1117:1121   */\n      dup2\n        /* \"#utility.yul\":1113:1133   */\n      sub\n        /* \"#utility.yul\":1109:1110   */\n      0x00\n        /* \"#utility.yul\":1098:1107   */\n      dup4\n        /* \"#utility.yul\":1094:1111   */\n      add\n        /* \"#utility.yul\":1087:1134   */\n      mstore\n        /* \"#utility.yul\":1151:1229   */\n      tag_185\n        /* \"#utility.yul\":1224:1228   */\n      dup2\n        /* \"#utility.yul\":1215:1221   */\n      dup5\n        /* \"#utility.yul\":1151:1229   */\n      tag_155\n      jump\t// in\n    tag_185:\n        /* \"#utility.yul\":1143:1229   */\n      swap1\n      pop\n        /* \"#utility.yul\":923:1236   */\n      swap3\n      swap2\n      pop\n      pop\n      jump\t// out\n        /* \"#utility.yul\":1323:1440   */\n    tag_157:\n        /* \"#utility.yul\":1432:1433   */\n      0x00\n        /* \"#utility.yul\":1429:1430   */\n      0x00\n        /* \"#utility.yul\":1422:1434   */\n      revert\n        /* \"#utility.yul\":1569:1695   */\n    tag_159:\n        /* \"#utility.yul\":1606:1613   */\n      0x00\n        /* \"#utility.yul\":1646:1688   */\n      0xffffffffffffffffffffffffffffffffffffffff\n        /* \"#utility.yul\":1639:1644   */\n      dup3\n        /* \"#utility.yul\":1635:1689   */\n      and\n        /* \"#utility.yul\":1624:1689   */\n      swap1\n      pop\n        /* \"#utility.yul\":1569:1695   */\n      swap2\n      swap1\n      pop\n      jump\t// out\n        /* \"#utility.yul\":1701:1797   */\n    tag_160:\n        /* \"#utility.yul\":1738:1745   */\n      0x00\n        /* \"#utility.yul\":1767:1791   */\n      tag_191\n        /* \"#utility.yul\":1785:1790   */\n      dup3\n        /* \"#utility.yul\":1767:1791   */\n      tag_159\n      jump\t// in\n    tag_191:\n        /* \"#utility.yul\":1756:1791   */\n      swap1\n      pop\n        /* \"#utility.yul\":1701:1797   */\n      swap2\n      swap1\n      pop\n      jump\t// out\n        /* \"#utility.yul\":1803:1925   */\n    tag_161:\n        /* \"#utility.yul\":1876:1900   */\n      tag_193\n        /* \"#utility.yul\":1894:1899   */\n      dup2\n        /* \"#utility.yul\":1876:1900   */\n      tag_160\n      jump\t// in\n    tag_193:\n        /* \"#utility.yul\":1869:1874   */\n      dup2\n        /* \"#utility.yul\":1866:1901   */\n      eq\n        /* \"#utility.yul\":1856:1919   */\n      tag_194\n      jumpi\n        /* \"#utility.yul\":1915:1916   */\n      0x00\n        /* \"#utility.yul\":1912:1913   */\n      0x00\n        /* \"#utility.yul\":1905:1917   */\n      revert\n        /* \"#utility.yul\":1856:1919   */\n    tag_194:\n        /* \"#utility.yul\":1803:1925   */\n      pop\n      jump\t// out\n        /* \"#utility.yul\":1931:2070   */\n    tag_162:\n        /* \"#utility.yul\":1977:1982   */\n      0x00\n        /* \"#utility.yul\":2015:2021   */\n      dup2\n        /* \"#utility.yul\":2002:2022   */\n      calldataload\n        /* \"#utility.yul\":1993:2022   */\n      swap1\n      pop\n        /* \"#utility.yul\":2031:2064   */\n      tag_196\n        /* \"#utility.yul\":2058:2063   */\n      dup2\n        /* \"#utility.yul\":2031:2064   */\n      tag_161\n      jump\t// in\n    tag_196:\n        /* \"#utility.yul\":1931:2070   */\n      swap3\n      swap2\n      pop\n      pop\n      jump\t// out\n        /* \"#utility.yul\":2076:2153   */\n    tag_163:\n        /* \"#utility.yul\":2113:2120   */\n      0x00\n        /* \"#utility.yul\":2142:2147   */\n      dup2\n        /* \"#utility.yul\":2131:2147   */\n      swap1\n      pop\n        /* \"#utility.yul\":2076:2153   */\n      swap2\n      swap1\n      pop\n      jump\t// out\n        /* \"#utility.yul\":2159:2281   */\n    tag_164:\n        /* \"#utility.yul\":2232:2256   */\n      tag_199\n        /* \"#utility.yul\":2250:2255   */\n      dup2\n        /* \"#utility.yul\":2232:2256   */\n      tag_163\n      jump\t// in\n    tag_199:\n        /* \"#utility.yul\":2225:2230   */\n      dup2\n        /* \"#utility.yul\":2222:2257   */\n      eq\n        /* \"#utility.yul\":2212:2275   */\n      tag_200\n      jumpi\n        /* \"#utility.yul\":2271:2272   */\n      0x00\n        /* \"#utility.yul\":2268:2269   */\n      0x00\n        /* \"#utility.yul\":2261:2273   */\n      revert\n        /* \"#utility.yul\":2212:2275   */\n    tag_200:\n        /* \"#utility.yul\":2159:2281   */\n      pop\n      jump\t// out\n        /* \"#utility.yul\":2287:2426   */\n    tag_165:\n        /* \"#utility.yul\":2333:2338   */\n      0x00\n        /* \"#utility.yul\":2371:2377   */\n      dup2\n        /* \"#utility.yul\":2358:2378   */\n      calldataload\n        /* \"#utility.yul\":2349:2378   */\n      swap1\n      pop\n        /* \"#utility.yul\":2387:2420   */\n      tag_202\n        /* \"#utility.yul\":2414:2419   */\n      dup2\n        /* \"#utility.yul\":2387:2420   */\n      tag_164\n      jump\t// in\n    tag_202:\n        /* \"#utility.yul\":2287:2426   */\n      swap3\n      swap2\n      pop\n      pop\n      jump\t// out\n        /* \"#utility.yul\":2432:2906   */\n    tag_22:\n        /* \"#utility.yul\":2500:2506   */\n      0x00\n        /* \"#utility.yul\":2508:2514   */\n      0x00\n        /* \"#utility.yul\":2557:2559   */\n      0x40\n        /* \"#utility.yul\":2545:2554   */\n      dup4\n        /* \"#utility.yul\":2536:2543   */\n      dup6\n        /* \"#utility.yul\":2532:2555   */\n      sub\n        /* \"#utility.yul\":2528:2560   */\n      slt\n        /* \"#utility.yul\":2525:2644   */\n      iszero\n      tag_204\n      jumpi\n        /* \"#utility.yul\":2563:2642   */\n      tag_205\n      tag_157\n      jump\t// in\n    tag_205:\n        /* \"#utility.yul\":2525:2644   */\n    tag_204:\n        /* \"#utility.yul\":2683:2684   */\n      0x00\n        /* \"#utility.yul\":2708:2761   */\n      tag_206\n        /* \"#utility.yul\":2753:2760   */\n      dup6\n        /* \"#utility.yul\":2744:2750   */\n      dup3\n        /* \"#utility.yul\":2733:2742   */\n      dup7\n        /* \"#utility.yul\":2729:2751   */\n      add\n        /* \"#utility.yul\":2708:2761   */\n      tag_162\n      jump\t// in\n    tag_206:\n        /* \"#utility.yul\":2698:2761   */\n      swap3\n      pop\n        /* \"#utility.yul\":2654:2771   */\n      pop\n        /* \"#utility.yul\":2810:2812   */\n      0x20\n        /* \"#utility.yul\":2836:2889   */\n      tag_207\n        /* \"#utility.yul\":2881:2888   */\n      dup6\n        /* \"#utility.yul\":2872:2878   */\n      dup3\n        /* \"#utility.yul\":2861:2870   */\n      dup7\n        /* \"#utility.yul\":2857:2879   */\n      add\n        /* \"#utility.yul\":2836:2889   */\n      tag_165\n      jump\t// in\n    tag_207:\n        /* \"#utility.yul\":2826:2889   */\n      swap2\n      pop\n        /* \"#utility.yul\":2781:2899   */\n      pop\n        /* \"#utility.yul\":2432:2906   */\n      swap3\n      pop\n      swap3\n      swap1\n      pop\n      jump\t// out\n        /* \"#utility.yul\":2912:3002   */\n    tag_166:\n        /* \"#utility.yul\":2946:2953   */\n      0x00\n        /* \"#utility.yul\":2989:2994   */\n      dup2\n        /* \"#utility.yul\":2982:2995   */\n      iszero\n        /* \"#utility.yul\":2975:2996   */\n      iszero\n        /* \"#utility.yul\":2964:2996   */\n      swap1\n      pop\n        /* \"#utility.yul\":2912:3002   */\n      swap2\n      swap1\n      pop\n      jump\t// out\n        /* \"#utility.yul\":3008:3117   */\n    tag_167:\n        /* \"#utility.yul\":3089:3110   */\n      tag_210\n        /* \"#utility.yul\":3104:3109   */\n      dup2\n        /* \"#utility.yul\":3089:3110   */\n      tag_166\n      jump\t// in\n    tag_210:\n        /* \"#utility.yul\":3084:3087   */\n      dup3\n        /* \"#utility.yul\":3077:3111   */\n      mstore\n        /* \"#utility.yul\":3008:3117   */\n      pop\n      pop\n      jump\t// out\n        /* \"#utility.yul\":3123:3333   */\n    tag_25:\n        /* \"#utility.yul\":3210:3214   */\n      0x00\n        /* \"#utility.yul\":3248:3250   */\n      0x20\n        /* \"#utility.yul\":3237:3246   */\n      dup3\n        /* \"#utility.yul\":3233:3251   */\n      add\n        /* \"#utility.yul\":3225:3251   */\n      swap1\n      pop\n        /* \"#utility.yul\":3261:3326   */\n      tag_212\n        /* \"#utility.yul\":3323:3324   */\n      0x00\n        /* \"#utility.yul\":3312:3321   */\n      dup4\n        /* \"#utility.yul\":3308:3325   */\n      add\n        /* \"#utility.yul\":3299:3305   */\n      dup5\n        /* \"#utility.yul\":3261:3326   */\n      tag_167\n      jump\t// in\n    tag_212:\n        /* \"#utility.yul\":3123:3333   */\n      swap3\n      swap2\n      pop\n      pop\n      jump\t// out\n        /* \"#utility.yul\":3339:3457   */\n    tag_168:\n        /* \"#utility.yul\":3426:3450   */\n      tag_214\n        /* \"#utility.yul\":3444:3449   */\n      dup2\n        /* \"#utility.yul\":3426:3450   */\n      tag_163\n      jump\t// in\n    tag_214:\n        /* \"#utility.yul\":3421:3424   */\n      dup3\n        /* \"#utility.yul\":3414:3451   */\n      mstore\n        /* \"#utility.yul\":3339:3457   */\n      pop\n      pop\n      jump\t// out\n        /* \"#utility.yul\":3463:3685   */\n    tag_29:\n        /* \"#utility.yul\":3556:3560   */\n      0x00\n        /* \"#utility.yul\":3594:3596   */\n      0x20\n        /* \"#utility.yul\":3583:3592   */\n      dup3\n        /* \"#utility.yul\":3579:3597   */\n      add\n        /* \"#utility.yul\":3571:3597   */\n      swap1\n      pop\n        /* \"#utility.yul\":3607:3678   */\n      tag_216\n        /* \"#utility.yul\":3675:3676   */\n      0x00\n        /* \"#utility.yul\":3664:3673   */\n      dup4\n        /* \"#utility.yul\":3660:3677   */\n      add\n        /* \"#utility.yul\":3651:3657   */\n      dup5\n        /* \"#utility.yul\":3607:3678   */\n      tag_168\n      jump\t// in\n    tag_216:\n        /* \"#utility.yul\":3463:3685   */\n      swap3\n      swap2\n      pop\n      pop\n      jump\t// out\n        /* \"#utility.yul\":3691:4310   */\n    tag_32:\n        /* \"#utility.yul\":3768:3774   */\n      0x00\n        /* \"#utility.yul\":3776:3782   */\n      0x00\n        /* \"#utility.yul\":3784:3790   */\n      0x00\n        /* \"#utility.yul\":3833:3835   */\n      0x60\n        /* \"#utility.yul\":3821:3830   */\n      dup5\n        /* \"#utility.yul\":3812:3819   */\n      dup7\n        /* \"#utility.yul\":3808:3831   */\n      sub\n        /* \"#utility.yul\":3804:3836   */\n      slt\n        /* \"#utility.yul\":3801:3920   */\n      iszero\n      tag_218\n      jumpi\n        /* \"#utility.yul\":3839:3918   */\n      tag_219\n      tag_157\n      jump\t// in\n    tag_219:\n        /* \"#utility.yul\":3801:3920   */\n    tag_218:\n        /* \"#utility.yul\":3959:3960   */\n      0x00\n        /* \"#utility.yul\":3984:4037   */\n      tag_220\n        /* \"#utility.yul\":4029:4036   */\n      dup7\n        /* \"#utility.yul\":4020:4026   */\n      dup3\n        /* \"#utility.yul\":4009:4018   */\n      dup8\n        /* \"#utility.yul\":4005:4027   */\n      add\n        /* \"#utility.yul\":3984:4037   */\n      tag_162\n      jump\t// in\n    tag_220:\n        /* \"#utility.yul\":3974:4037   */\n      swap4\n      pop\n        /* \"#utility.yul\":3930:4047   */\n      pop\n        /* \"#utility.yul\":4086:4088   */\n      0x20\n        /* \"#utility.yul\":4112:4165   */\n      tag_221\n        /* \"#utility.yul\":4157:4164   */\n      dup7\n        /* \"#utility.yul\":4148:4154   */\n      dup3\n        /* \"#utility.yul\":4137:4146   */\n      dup8\n        /* \"#utility.yul\":4133:4155   */\n      add\n        /* \"#utility.yul\":4112:4165   */\n      tag_162\n      jump\t// in\n    tag_221:\n        /* \"#utility.yul\":4102:4165   */\n      swap3\n      pop\n        /* \"#utility.yul\":4057:4175   */\n      pop\n        /* \"#utility.yul\":4214:4216   */\n      0x40\n        /* \"#utility.yul\":4240:4293   */\n      tag_222\n        /* \"#utility.yul\":4285:4292   */\n      dup7\n        /* \"#utility.yul\":4276:4282   */\n      dup3\n        /* \"#utility.yul\":4265:4274   */\n      dup8\n        /* \"#utility.yul\":4261:4283   */\n      add\n        /* \"#utility.yul\":4240:4293   */\n      tag_165\n      jump\t// in\n    tag_222:\n        /* \"#utility.yul\":4230:4293   */\n      swap2\n      pop\n        /* \"#utility.yul\":4185:4303   */\n      pop\n        /* \"#utility.yul\":3691:4310   */\n      swap3\n      pop\n      swap3\n      pop\n      swap3\n      jump\t// out\n        /* \"#utility.yul\":4316:4402   */\n    tag_169:\n        /* \"#utility.yul\":4351:4358   */\n      0x00\n        /* \"#utility.yul\":4391:4395   */\n      0xff\n        /* \"#utility.yul\":4384:4389   */\n      dup3\n        /* \"#utility.yul\":4380:4396   */\n      and\n        /* \"#utility.yul\":4369:4396   */\n      swap1\n      pop\n        /* \"#utility.yul\":4316:4402   */\n      swap2\n      swap1\n      pop\n      jump\t// out\n        /* \"#utility.yul\":4408:4520   */\n    tag_170:\n        /* \"#utility.yul\":4491:4513   */\n      tag_225\n        /* \"#utility.yul\":4507:4512   */\n      dup2\n        /* \"#utility.yul\":4491:4513   */\n      tag_169\n      jump\t// in\n    tag_225:\n        /* \"#utility.yul\":4486:4489   */\n      dup3\n        /* \"#utility.yul\":4479:4514   */\n      mstore\n        /* \"#utility.yul\":4408:4520   */\n      pop\n      pop\n      jump\t// out\n        /* \"#utility.yul\":4526:4740   */\n    tag_38:\n        /* \"#utility.yul\":4615:4619   */\n      0x00\n        /* \"#utility.yul\":4653:4655   */\n      0x20\n        /* \"#utility.yul\":4642:4651   */\n      dup3\n        /* \"#utility.yul\":4638:4656   */\n      add\n        /* \"#utility.yul\":4630:4656   */\n      swap1\n      pop\n        /* \"#utility.yul\":4666:4733   */\n      tag_227\n        /* \"#utility.yul\":4730:4731   */\n      0x00\n        /* \"#utility.yul\":4719:4728   */\n      dup4\n        /* \"#utility.yul\":4715:4732   */\n      add\n        /* \"#utility.yul\":4706:4712   */\n      dup5\n        /* \"#utility.yul\":4666:4733   */\n      tag_170\n      jump\t// in\n    tag_227:\n        /* \"#utility.yul\":4526:4740   */\n      swap3\n      swap2\n      pop\n      pop\n      jump\t// out\n        /* \"#utility.yul\":4746:5075   */\n    tag_41:\n        /* \"#utility.yul\":4805:4811   */\n      0x00\n        /* \"#utility.yul\":4854:4856   */\n      0x20\n        /* \"#utility.yul\":4842:4851   */\n      dup3\n        /* \"#utility.yul\":4833:4840   */\n      dup5\n        /* \"#utility.yul\":4829:4852   */\n      sub\n        /* \"#utility.yul\":4825:4857   */\n      slt\n        /* \"#utility.yul\":4822:4941   */\n      iszero\n      tag_229\n      jumpi\n        /* \"#utility.yul\":4860:4939   */\n      tag_230\n      tag_157\n      jump\t// in\n    tag_230:\n        /* \"#utility.yul\":4822:4941   */\n    tag_229:\n        /* \"#utility.yul\":4980:4981   */\n      0x00\n        /* \"#utility.yul\":5005:5058   */\n      tag_231\n        /* \"#utility.yul\":5050:5057   */\n      dup5\n        /* \"#utility.yul\":5041:5047   */\n      dup3\n        /* \"#utility.yul\":5030:5039   */\n      dup6\n        /* \"#utility.yul\":5026:5048   */\n      add\n        /* \"#utility.yul\":5005:5058   */\n      tag_162\n      jump\t// in\n    tag_231:\n        /* \"#utility.yul\":4995:5058   */\n      swap2\n      pop\n        /* \"#utility.yul\":4951:5068   */\n      pop\n        /* \"#utility.yul\":4746:5075   */\n      swap3\n      swap2\n      pop\n      pop\n      jump\t// out\n        /* \"#utility.yul\":5081:5199   */\n    tag_171:\n        /* \"#utility.yul\":5168:5192   */\n      tag_233\n        /* \"#utility.yul\":5186:5191   */\n      dup2\n        /* \"#utility.yul\":5168:5192   */\n      tag_160\n      jump\t// in\n    tag_233:\n        /* \"#utility.yul\":5163:5166   */\n      dup3\n        /* \"#utility.yul\":5156:5193   */\n      mstore\n        /* \"#utility.yul\":5081:5199   */\n      pop\n      pop\n      jump\t// out\n        /* \"#utility.yul\":5205:5427   */\n    tag_49:\n        /* \"#utility.yul\":5298:5302   */\n      0x00\n        /* \"#utility.yul\":5336:5338   */\n      0x20\n        /* \"#utility.yul\":5325:5334   */\n      dup3\n        /* \"#utility.yul\":5321:5339   */\n      add\n        /* \"#utility.yul\":5313:5339   */\n      swap1\n      pop\n        /* \"#utility.yul\":5349:5420   */\n      tag_235\n        /* \"#utility.yul\":5417:5418   */\n      0x00\n        /* \"#utility.yul\":5406:5415   */\n      dup4\n        /* \"#utility.yul\":5402:5419   */\n      add\n        /* \"#utility.yul\":5393:5399   */\n      dup5\n        /* \"#utility.yul\":5349:5420   */\n      tag_171\n      jump\t// in\n    tag_235:\n        /* \"#utility.yul\":5205:5427   */\n      swap3\n      swap2\n      pop\n      pop\n      jump\t// out\n        /* \"#utility.yul\":5433:5907   */\n    tag_59:\n        /* \"#utility.yul\":5501:5507   */\n      0x00\n        /* \"#utility.yul\":5509:5515   */\n      0x00\n        /* \"#utility.yul\":5558:5560   */\n      0x40\n        /* \"#utility.yul\":5546:5555   */\n      dup4\n        /* \"#utility.yul\":5537:5544   */\n      dup6\n        /* \"#utility.yul\":5533:5556   */\n      sub\n        /* \"#utility.yul\":5529:5561   */\n      slt\n        /* \"#utility.yul\":5526:5645   */\n      iszero\n      tag_237\n      jumpi\n        /* \"#utility.yul\":5564:5643   */\n      tag_238\n      tag_157\n      jump\t// in\n    tag_238:\n        /* \"#utility.yul\":5526:5645   */\n    tag_237:\n        /* \"#utility.yul\":5684:5685   */\n      0x00\n        /* \"#utility.yul\":5709:5762   */\n      tag_239\n        /* \"#utility.yul\":5754:5761   */\n      dup6\n        /* \"#utility.yul\":5745:5751   */\n      dup3\n        /* \"#utility.yul\":5734:5743   */\n      dup7\n        /* \"#utility.yul\":5730:5752   */\n      add\n        /* \"#utility.yul\":5709:5762   */\n      tag_162\n      jump\t// in\n    tag_239:\n        /* \"#utility.yul\":5699:5762   */\n      swap3\n      pop\n        /* \"#utility.yul\":5655:5772   */\n      pop\n        /* \"#utility.yul\":5811:5813   */\n      0x20\n        /* \"#utility.yul\":5837:5890   */\n      tag_240\n        /* \"#utility.yul\":5882:5889   */\n      dup6\n        /* \"#utility.yul\":5873:5879   */\n      dup3\n        /* \"#utility.yul\":5862:5871   */\n      dup7\n        /* \"#utility.yul\":5858:5880   */\n      add\n        /* \"#utility.yul\":5837:5890   */\n      tag_162\n      jump\t// in\n    tag_240:\n        /* \"#utility.yul\":5827:5890   */\n      swap2\n      pop\n        /* \"#utility.yul\":5782:5900   */\n      pop\n        /* \"#utility.yul\":5433:5907   */\n      swap3\n      pop\n      swap3\n      swap1\n      pop\n      jump\t// out\n        /* \"#utility.yul\":5913:6093   */\n    tag_172:\n        /* \"#utility.yul\":5961:6038   */\n      0x4e487b7100000000000000000000000000000000000000000000000000000000\n        /* \"#utility.yul\":5958:5959   */\n      0x00\n        /* \"#utility.yul\":5951:6039   */\n      mstore\n        /* \"#utility.yul\":6058:6062   */\n      0x22\n        /* \"#utility.yul\":6055:6056   */\n      0x04\n        /* \"#utility.yul\":6048:6063   */\n      mstore\n        /* \"#utility.yul\":6082:6086   */\n      0x24\n        /* \"#utility.yul\":6079:6080   */\n      0x00\n        /* \"#utility.yul\":6072:6087   */\n      revert\n        /* \"#utility.yul\":6099:6419   */\n    tag_67:\n        /* \"#utility.yul\":6143:6149   */\n      0x00\n        /* \"#utility.yul\":6180:6181   */\n      0x02\n        /* \"#utility.yul\":6174:6178   */\n      dup3\n        /* \"#utility.yul\":6170:6182   */\n      div\n        /* \"#utility.yul\":6160:6182   */\n      swap1\n      pop\n        /* \"#utility.yul\":6227:6228   */\n      0x01\n        /* \"#utility.yul\":6221:6225   */\n      dup3\n        /* \"#utility.yul\":6217:6229   */\n      and\n        /* \"#utility.yul\":6248:6266   */\n      dup1\n        /* \"#utility.yul\":6238:6319   */\n      tag_243\n      jumpi\n        /* \"#utility.yul\":6304:6308   */\n      0x7f\n        /* \"#utility.yul\":6296:6302   */\n      dup3\n        /* \"#utility.yul\":6292:6309   */\n      and\n        /* \"#utility.yul\":6282:6309   */\n      swap2\n      pop\n        /* \"#utility.yul\":6238:6319   */\n    tag_243:\n        /* \"#utility.yul\":6366:6368   */\n      0x20\n        /* \"#utility.yul\":6358:6364   */\n      dup3\n        /* \"#utility.yul\":6355:6369   */\n      lt\n        /* \"#utility.yul\":6335:6353   */\n      dup2\n        /* \"#utility.yul\":6332:6370   */\n      sub\n        /* \"#utility.yul\":6329:6413   */\n      tag_244\n      jumpi\n        /* \"#utility.yul\":6385:6403   */\n      tag_245\n      tag_172\n      jump\t// in\n    tag_245:\n        /* \"#utility.yul\":6329:6413   */\n    tag_244:\n        /* \"#utility.yul\":6150:6419   */\n      pop\n        /* \"#utility.yul\":6099:6419   */\n      swap2\n      swap1\n      pop\n      jump\t// out\n        /* \"#utility.yul\":6425:6867   */\n    tag_118:\n        /* \"#utility.yul\":6574:6578   */\n      0x00\n        /* \"#utility.yul\":6612:6614   */\n      0x60\n        /* \"#utility.yul\":6601:6610   */\n      dup3\n        /* \"#utility.yul\":6597:6615   */\n      add\n        /* \"#utility.yul\":6589:6615   */\n      swap1\n      pop\n        /* \"#utility.yul\":6625:6696   */\n      tag_247\n        /* \"#utility.yul\":6693:6694   */\n      0x00\n        /* \"#utility.yul\":6682:6691   */\n      dup4\n        /* \"#utility.yul\":6678:6695   */\n      add\n        /* \"#utility.yul\":6669:6675   */\n      dup7\n        /* \"#utility.yul\":6625:6696   */\n      tag_171\n      jump\t// in\n    tag_247:\n        /* \"#utility.yul\":6706:6778   */\n      tag_248\n        /* \"#utility.yul\":6774:6776   */\n      0x20\n        /* \"#utility.yul\":6763:6772   */\n      dup4\n        /* \"#utility.yul\":6759:6777   */\n      add\n        /* \"#utility.yul\":6750:6756   */\n      dup6\n        /* \"#utility.yul\":6706:6778   */\n      tag_168\n      jump\t// in\n    tag_248:\n        /* \"#utility.yul\":6788:6860   */\n      tag_249\n        /* \"#utility.yul\":6856:6858   */\n      0x40\n        /* \"#utility.yul\":6845:6854   */\n      dup4\n        /* \"#utility.yul\":6841:6859   */\n      add\n        /* \"#utility.yul\":6832:6838   */\n      dup5\n        /* \"#utility.yul\":6788:6860   */\n      tag_168\n      jump\t// in\n    tag_249:\n        /* \"#utility.yul\":6425:6867   */\n      swap5\n      swap4\n      pop\n      pop\n      pop\n      pop\n      jump\t// out\n        /* \"#utility.yul\":6873:7053   */\n    tag_173:\n        /* \"#utility.yul\":6921:6998   */\n      0x4e487b7100000000000000000000000000000000000000000000000000000000\n        /* \"#utility.yul\":6918:6919   */\n      0x00\n        /* \"#utility.yul\":6911:6999   */\n      mstore\n        /* \"#utility.yul\":7018:7022   */\n      0x11\n        /* \"#utility.yul\":7015:7016   */\n      0x04\n        /* \"#utility.yul\":7008:7023   */\n      mstore\n        /* \"#utility.yul\":7042:7046   */\n      0x24\n        /* \"#utility.yul\":7039:7040   */\n      0x00\n        /* \"#utility.yul\":7032:7047   */\n      revert\n        /* \"#utility.yul\":7059:7250   */\n    tag_144:\n        /* \"#utility.yul\":7099:7102   */\n      0x00\n        /* \"#utility.yul\":7118:7138   */\n      tag_252\n        /* \"#utility.yul\":7136:7137   */\n      dup3\n        /* \"#utility.yul\":7118:7138   */\n      tag_163\n      jump\t// in\n    tag_252:\n        /* \"#utility.yul\":7113:7138   */\n      swap2\n      pop\n        /* \"#utility.yul\":7152:7172   */\n      tag_253\n        /* \"#utility.yul\":7170:7171   */\n      dup4\n        /* \"#utility.yul\":7152:7172   */\n      tag_163\n      jump\t// in\n    tag_253:\n        /* \"#utility.yul\":7147:7172   */\n      swap3\n      pop\n        /* \"#utility.yul\":7195:7196   */\n      dup3\n        /* \"#utility.yul\":7192:7193   */\n      dup3\n        /* \"#utility.yul\":7188:7197   */\n      add\n        /* \"#utility.yul\":7181:7197   */\n      swap1\n      pop\n        /* \"#utility.yul\":7216:7219   */\n      dup1\n        /* \"#utility.yul\":7213:7214   */\n      dup3\n        /* \"#utility.yul\":7210:7220   */\n      gt\n        /* \"#utility.yul\":7207:7243   */\n      iszero\n      tag_254\n      jumpi\n        /* \"#utility.yul\":7223:7241   */\n      tag_255\n      tag_173\n      jump\t// in\n    tag_255:\n        /* \"#utility.yul\":7207:7243   */\n    tag_254:\n        /* \"#utility.yul\":7059:7250   */\n      swap3\n      swap2\n      pop\n      pop\n      jump\t// out\n\n    auxdata: 0xa26469706673582212209fcbb66fb1147a9a43724024af6bff7a96cb7716f62c1c1430e361fafc4e97b364736f6c634300081f0033\n}\n",
				"bytecode": {
					"linkReferences": {},
					"object": "608060405234801561000f575f5ffd5b50336040518060400160405280600581526020017f4b636173680000000000000000000000000000000000000000000000000000008152506040518060400160405280600481526020017f4b41534800000000000000000000000000000000000000000000000000000000815250816003908161008c9190610702565b50806004908161009c9190610702565b5050505f73ffffffffffffffffffffffffffffffffffffffff168173ffffffffffffffffffffffffffffffffffffffff160361010f575f6040517f1e4fbdf70000000000000000000000000000000000000000000000000000000081526004016101069190610810565b60405180910390fd5b61011e8161015c60201b60201c565b506101573361013161021f60201b60201c565b600a61013d9190610991565b630319750061014c91906109db565b61022760201b60201c565b610aac565b5f60055f9054906101000a900473ffffffffffffffffffffffffffffffffffffffff1690508160055f6101000a81548173ffffffffffffffffffffffffffffffffffffffff021916908373ffffffffffffffffffffffffffffffffffffffff1602179055508173ffffffffffffffffffffffffffffffffffffffff168173ffffffffffffffffffffffffffffffffffffffff167f8be0079c531659141344cd1fd0a4f28419497f9722a3daafe3b4186f6b6457e060405160405180910390a35050565b5f6012905090565b5f73ffffffffffffffffffffffffffffffffffffffff168273ffffffffffffffffffffffffffffffffffffffff1603610297575f6040517fec442f0500000000000000000000000000000000000000000000000000000000815260040161028e9190610810565b60405180910390fd5b6102a85f83836102ac60201b60201c565b5050565b5f73ffffffffffffffffffffffffffffffffffffffff168373ffffffffffffffffffffffffffffffffffffffff16036102fc578060025f8282546102f09190610a1c565b925050819055506103ca565b5f5f5f8573ffffffffffffffffffffffffffffffffffffffff1673ffffffffffffffffffffffffffffffffffffffff1681526020019081526020015f2054905081811015610385578381836040517fe450d38c00000000000000000000000000000000000000000000000000000000815260040161037c93929190610a5e565b60405180910390fd5b8181035f5f8673ffffffffffffffffffffffffffffffffffffffff1673ffffffffffffffffffffffffffffffffffffffff1681526020019081526020015f2081905550505b5f73ffffffffffffffffffffffffffffffffffffffff168273ffffffffffffffffffffffffffffffffffffffff1603610411578060025f828254039250508190555061045b565b805f5f8473ffffffffffffffffffffffffffffffffffffffff1673ffffffffffffffffffffffffffffffffffffffff1681526020019081526020015f205f82825401925050819055505b8173ffffffffffffffffffffffffffffffffffffffff168373ffffffffffffffffffffffffffffffffffffffff167fddf252ad1be2c89b69c2b068fc378daa952ba7f163c4a11628f55a4df523b3ef836040516104b89190610a93565b60405180910390a3505050565b5f81519050919050565b7f4e487b71000000000000000000000000000000000000000000000000000000005f52604160045260245ffd5b7f4e487b71000000000000000000000000000000000000000000000000000000005f52602260045260245ffd5b5f600282049050600182168061054057607f821691505b602082108103610553576105526104fc565b5b50919050565b5f819050815f5260205f209050919050565b5f6020601f8301049050919050565b5f82821b905092915050565b5f600883026105b57fffffffffffffffffffffffffffffffffffffffffffffffffffffffffffffffff8261057a565b6105bf868361057a565b95508019841693508086168417925050509392505050565b5f819050919050565b5f819050919050565b5f6106036105fe6105f9846105d7565b6105e0565b6105d7565b9050919050565b5f819050919050565b61061c836105e9565b6106306106288261060a565b848454610586565b825550505050565b5f5f905090565b610647610638565b610652818484610613565b505050565b5b818110156106755761066a5f8261063f565b600181019050610658565b5050565b601f8211156106ba5761068b81610559565b6106948461056b565b810160208510156106a3578190505b6106b76106af8561056b565b830182610657565b50505b505050565b5f82821c905092915050565b5f6106da5f19846008026106bf565b1980831691505092915050565b5f6106f283836106cb565b9150826002028217905092915050565b61070b826104c5565b67ffffffffffffffff811115610724576107236104cf565b5b61072e8254610529565b610739828285610679565b5f60209050601f83116001811461076a575f8415610758578287015190505b61076285826106e7565b8655506107c9565b601f19841661077886610559565b5f5b8281101561079f5784890151825560018201915060208501945060208101905061077a565b868310156107bc57848901516107b8601f8916826106cb565b8355505b6001600288020188555050505b505050505050565b5f73ffffffffffffffffffffffffffffffffffffffff82169050919050565b5f6107fa826107d1565b9050919050565b61080a816107f0565b82525050565b5f6020820190506108235f830184610801565b92915050565b7f4e487b71000000000000000000000000000000000000000000000000000000005f52601160045260245ffd5b5f8160011c9050919050565b5f5f8291508390505b60018511156108ab5780860481111561088757610886610829565b5b60018516156108965780820291505b80810290506108a485610856565b945061086b565b94509492505050565b5f826108c3576001905061097e565b816108d0575f905061097e565b81600181146108e657600281146108f05761091f565b600191505061097e565b60ff84111561090257610901610829565b5b8360020a91508482111561091957610918610829565b5b5061097e565b5060208310610133831016604e8410600b84101617156109545782820a90508381111561094f5761094e610829565b5b61097e565b6109618484846001610862565b9250905081840481111561097857610977610829565b5b81810290505b9392505050565b5f60ff82169050919050565b5f61099b826105d7565b91506109a683610985565b92506109d37fffffffffffffffffffffffffffffffffffffffffffffffffffffffffffffffff84846108b4565b905092915050565b5f6109e5826105d7565b91506109f0836105d7565b92508282026109fe816105d7565b91508282048414831517610a1557610a14610829565b5b5092915050565b5f610a26826105d7565b9150610a31836105d7565b9250828201905080821115610a4957610a48610829565b5b92915050565b610a58816105d7565b82525050565b5f606082019050610a715f830186610801565b610a7e6020830185610a4f565b610a8b6040830184610a4f565b949350505050565b5f602082019050610aa65f830184610a4f565b92915050565b61105080610ab95f395ff3fe608060405234801561000f575f5ffd5b50600436106100b2575f3560e01c8063715018a61161006f578063715018a6146101a05780638da5cb5b146101aa57806395d89b41146101c8578063a9059cbb146101e6578063dd62ed3e14610216578063f2fde38b14610246576100b2565b806306fdde03146100b6578063095ea7b3146100d457806318160ddd1461010457806323b872dd14610122578063313ce5671461015257806370a0823114610170575b5f5ffd5b6100be610262565b6040516100cb9190610cc9565b60405180910390f35b6100ee60048036038101906100e99190610d7a565b6102f2565b6040516100fb9190610dd2565b60405180910390f35b61010c610314565b6040516101199190610dfa565b60405180910390f35b61013c60048036038101906101379190610e13565b61031d565b6040516101499190610dd2565b60405180910390f35b61015a61034b565b6040516101679190610e7e565b60405180910390f35b61018a60048036038101906101859190610e97565b610353565b6040516101979190610dfa565b60405180910390f35b6101a8610398565b005b6101b26103ab565b6040516101bf9190610ed1565b60405180910390f35b6101d06103d3565b6040516101dd9190610cc9565b60405180910390f35b61020060048036038101906101fb9190610d7a565b610463565b60405161020d9190610dd2565b60405180910390f35b610230600480360381019061022b9190610eea565b610485565b60405161023d9190610dfa565b60405180910390f35b610260600480360381019061025b9190610e97565b610507565b005b60606003805461027190610f55565b80601f016020809104026020016040519081016040528092919081815260200182805461029d90610f55565b80156102e85780601f106102bf576101008083540402835291602001916102e8565b820191905f5260205f20905b8154815290600101906020018083116102cb57829003601f168201915b5050505050905090565b5f5f6102fc61058b565b9050610309818585610592565b600191505092915050565b5f600254905090565b5f5f61032761058b565b90506103348582856105a4565b61033f858585610637565b60019150509392505050565b5f6012905090565b5f5f5f8373ffffffffffffffffffffffffffffffffffffffff1673ffffffffffffffffffffffffffffffffffffffff1681526020019081526020015f20549050919050565b6103a0610727565b6103a95f6107ae565b565b5f60055f9054906101000a900473ffffffffffffffffffffffffffffffffffffffff16905090565b6060600480546103e290610f55565b80601f016020809104026020016040519081016040528092919081815260200182805461040e90610f55565b80156104595780601f1061043057610100808354040283529160200191610459565b820191905f5260205f20905b81548152906001019060200180831161043c57829003601f168201915b5050505050905090565b5f5f61046d61058b565b905061047a818585610637565b600191505092915050565b5f60015f8473ffffffffffffffffffffffffffffffffffffffff1673ffffffffffffffffffffffffffffffffffffffff1681526020019081526020015f205f8373ffffffffffffffffffffffffffffffffffffffff1673ffffffffffffffffffffffffffffffffffffffff1681526020019081526020015f2054905092915050565b61050f610727565b5f73ffffffffffffffffffffffffffffffffffffffff168173ffffffffffffffffffffffffffffffffffffffff160361057f575f6040517f1e4fbdf70000000000000000000000000000000000000000000000000000000081526004016105769190610ed1565b60405180910390fd5b610588816107ae565b50565b5f33905090565b61059f8383836001610871565b505050565b5f6105af8484610485565b90507fffffffffffffffffffffffffffffffffffffffffffffffffffffffffffffffff8110156106315781811015610622578281836040517ffb8f41b200000000000000000000000000000000000000000000000000000000815260040161061993929190610f85565b60405180910390fd5b61063084848484035f610871565b5b50505050565b5f73ffffffffffffffffffffffffffffffffffffffff168373ffffffffffffffffffffffffffffffffffffffff16036106a7575f6040517f96c6fd1e00000000000000000000000000000000000000000000000000000000815260040161069e9190610ed1565b60405180910390fd5b5f73ffffffffffffffffffffffffffffffffffffffff168273ffffffffffffffffffffffffffffffffffffffff1603610717575f6040517fec442f0500000000000000000000000000000000000000000000000000000000815260040161070e9190610ed1565b60405180910390fd5b610722838383610a40565b505050565b61072f61058b565b73ffffffffffffffffffffffffffffffffffffffff1661074d6103ab565b73ffffffffffffffffffffffffffffffffffffffff16146107ac5761077061058b565b6040517f118cdaa70000000000000000000000000000000000000000000000000000000081526004016107a39190610ed1565b60405180910390fd5b565b5f60055f9054906101000a900473ffffffffffffffffffffffffffffffffffffffff1690508160055f6101000a81548173ffffffffffffffffffffffffffffffffffffffff021916908373ffffffffffffffffffffffffffffffffffffffff1602179055508173ffffffffffffffffffffffffffffffffffffffff168173ffffffffffffffffffffffffffffffffffffffff167f8be0079c531659141344cd1fd0a4f28419497f9722a3daafe3b4186f6b6457e060405160405180910390a35050565b5f73ffffffffffffffffffffffffffffffffffffffff168473ffffffffffffffffffffffffffffffffffffffff16036108e1575f6040517fe602df050000000000000000000000000000000000000000000000000000000081526004016108d89190610ed1565b60405180910390fd5b5f73ffffffffffffffffffffffffffffffffffffffff168373ffffffffffffffffffffffffffffffffffffffff1603610951575f6040517f94280d620000000000000000000000000000000000000000000000000000000081526004016109489190610ed1565b60405180910390fd5b8160015f8673ffffffffffffffffffffffffffffffffffffffff1673ffffffffffffffffffffffffffffffffffffffff1681526020019081526020015f205f8573ffffffffffffffffffffffffffffffffffffffff1673ffffffffffffffffffffffffffffffffffffffff1681526020019081526020015f20819055508015610a3a578273ffffffffffffffffffffffffffffffffffffffff168473ffffffffffffffffffffffffffffffffffffffff167f8c5be1e5ebec7d5bd14f71427d1e84f3dd0314c0f7b2291e5b200ac8c7c3b92584604051610a319190610dfa565b60405180910390a35b50505050565b5f73ffffffffffffffffffffffffffffffffffffffff168373ffffffffffffffffffffffffffffffffffffffff1603610a90578060025f828254610a849190610fe7565b92505081905550610b5e565b5f5f5f8573ffffffffffffffffffffffffffffffffffffffff1673ffffffffffffffffffffffffffffffffffffffff1681526020019081526020015f2054905081811015610b19578381836040517fe450d38c000000000000000000000000000000000000000000000000000000008152600401610b1093929190610f85565b60405180910390fd5b8181035f5f8673ffffffffffffffffffffffffffffffffffffffff1673ffffffffffffffffffffffffffffffffffffffff1681526020019081526020015f2081905550505b5f73ffffffffffffffffffffffffffffffffffffffff168273ffffffffffffffffffffffffffffffffffffffff1603610ba5578060025f8282540392505081905550610bef565b805f5f8473ffffffffffffffffffffffffffffffffffffffff1673ffffffffffffffffffffffffffffffffffffffff1681526020019081526020015f205f82825401925050819055505b8173ffffffffffffffffffffffffffffffffffffffff168373ffffffffffffffffffffffffffffffffffffffff167fddf252ad1be2c89b69c2b068fc378daa952ba7f163c4a11628f55a4df523b3ef83604051610c4c9190610dfa565b60405180910390a3505050565b5f81519050919050565b5f82825260208201905092915050565b8281835e5f83830152505050565b5f601f19601f8301169050919050565b5f610c9b82610c59565b610ca58185610c63565b9350610cb5818560208601610c73565b610cbe81610c81565b840191505092915050565b5f6020820190508181035f830152610ce18184610c91565b905092915050565b5f5ffd5b5f73ffffffffffffffffffffffffffffffffffffffff82169050919050565b5f610d1682610ced565b9050919050565b610d2681610d0c565b8114610d30575f5ffd5b50565b5f81359050610d4181610d1d565b92915050565b5f819050919050565b610d5981610d47565b8114610d63575f5ffd5b50565b5f81359050610d7481610d50565b92915050565b5f5f60408385031215610d9057610d8f610ce9565b5b5f610d9d85828601610d33565b9250506020610dae85828601610d66565b9150509250929050565b5f8115159050919050565b610dcc81610db8565b82525050565b5f602082019050610de55f830184610dc3565b92915050565b610df481610d47565b82525050565b5f602082019050610e0d5f830184610deb565b92915050565b5f5f5f60608486031215610e2a57610e29610ce9565b5b5f610e3786828701610d33565b9350506020610e4886828701610d33565b9250506040610e5986828701610d66565b9150509250925092565b5f60ff82169050919050565b610e7881610e63565b82525050565b5f602082019050610e915f830184610e6f565b92915050565b5f60208284031215610eac57610eab610ce9565b5b5f610eb984828501610d33565b91505092915050565b610ecb81610d0c565b82525050565b5f602082019050610ee45f830184610ec2565b92915050565b5f5f60408385031215610f0057610eff610ce9565b5b5f610f0d85828601610d33565b9250506020610f1e85828601610d33565b9150509250929050565b7f4e487b71000000000000000000000000000000000000000000000000000000005f52602260045260245ffd5b5f6002820490506001821680610f6c57607f821691505b602082108103610f7f57610f7e610f28565b5b50919050565b5f606082019050610f985f830186610ec2565b610fa56020830185610deb565b610fb26040830184610deb565b949350505050565b7f4e487b71000000000000000000000000000000000000000000000000000000005f52601160045260245ffd5b5f610ff182610d47565b9150610ffc83610d47565b925082820190508082111561101457611013610fba565b5b9291505056fea26469706673582212209fcbb66fb1147a9a43724024af6bff7a96cb7716f62c1c1430e361fafc4e97b364736f6c634300081f0033",
					"opcodes": "PUSH1 0x80 PUSH1 0x40 MSTORE CALLVALUE DUP1 ISZERO PUSH2 0xF JUMPI PUSH0 PUSH0 REVERT JUMPDEST POP CALLER PUSH1 0x40 MLOAD DUP1 PUSH1 0x40 ADD PUSH1 0x40 MSTORE DUP1 PUSH1 0x5 DUP2 MSTORE PUSH1 0x20 ADD PUSH32 0x4B63617368000000000000000000000000000000000000000000000000000000 DUP2 MSTORE POP PUSH1 0x40 MLOAD DUP1 PUSH1 0x40 ADD PUSH1 0x40 MSTORE DUP1 PUSH1 0x4 DUP2 MSTORE PUSH1 0x20 ADD PUSH32 0x4B41534800000000000000000000000000000000000000000000000000000000 DUP2 MSTORE POP DUP2 PUSH1 0x3 SWAP1 DUP2 PUSH2 0x8C SWAP2 SWAP1 PUSH2 0x702 JUMP JUMPDEST POP DUP1 PUSH1 0x4 SWAP1 DUP2 PUSH2 0x9C SWAP2 SWAP1 PUSH2 0x702 JUMP JUMPDEST POP POP POP PUSH0 PUSH20 0xFFFFFFFFFFFFFFFFFFFFFFFFFFFFFFFFFFFFFFFF AND DUP2 PUSH20 0xFFFFFFFFFFFFFFFFFFFFFFFFFFFFFFFFFFFFFFFF AND SUB PUSH2 0x10F JUMPI PUSH0 PUSH1 0x40 MLOAD PUSH32 0x1E4FBDF700000000000000000000000000000000000000000000000000000000 DUP2 MSTORE PUSH1 0x4 ADD PUSH2 0x106 SWAP2 SWAP1 PUSH2 0x810 JUMP JUMPDEST PUSH1 0x40 MLOAD DUP1 SWAP2 SUB SWAP1 REVERT JUMPDEST PUSH2 0x11E DUP2 PUSH2 0x15C PUSH1 0x20 SHL PUSH1 0x20 SHR JUMP JUMPDEST POP PUSH2 0x157 CALLER PUSH2 0x131 PUSH2 0x21F PUSH1 0x20 SHL PUSH1 0x20 SHR JUMP JUMPDEST PUSH1 0xA PUSH2 0x13D SWAP2 SWAP1 PUSH2 0x991 JUMP JUMPDEST PUSH4 0x3197500 PUSH2 0x14C SWAP2 SWAP1 PUSH2 0x9DB JUMP JUMPDEST PUSH2 0x227 PUSH1 0x20 SHL PUSH1 0x20 SHR JUMP JUMPDEST PUSH2 0xAAC JUMP JUMPDEST PUSH0 PUSH1 0x5 PUSH0 SWAP1 SLOAD SWAP1 PUSH2 0x100 EXP SWAP1 DIV PUSH20 0xFFFFFFFFFFFFFFFFFFFFFFFFFFFFFFFFFFFFFFFF AND SWAP1 POP DUP2 PUSH1 0x5 PUSH0 PUSH2 0x100 EXP DUP2 SLOAD DUP2 PUSH20 0xFFFFFFFFFFFFFFFFFFFFFFFFFFFFFFFFFFFFFFFF MUL NOT AND SWAP1 DUP4 PUSH20 0xFFFFFFFFFFFFFFFFFFFFFFFFFFFFFFFFFFFFFFFF AND MUL OR SWAP1 SSTORE POP DUP2 PUSH20 0xFFFFFFFFFFFFFFFFFFFFFFFFFFFFFFFFFFFFFFFF AND DUP2 PUSH20 0xFFFFFFFFFFFFFFFFFFFFFFFFFFFFFFFFFFFFFFFF AND PUSH32 0x8BE0079C531659141344CD1FD0A4F28419497F9722A3DAAFE3B4186F6B6457E0 PUSH1 0x40 MLOAD PUSH1 0x40 MLOAD DUP1 SWAP2 SUB SWAP1 LOG3 POP POP JUMP JUMPDEST PUSH0 PUSH1 0x12 SWAP1 POP SWAP1 JUMP JUMPDEST PUSH0 PUSH20 0xFFFFFFFFFFFFFFFFFFFFFFFFFFFFFFFFFFFFFFFF AND DUP3 PUSH20 0xFFFFFFFFFFFFFFFFFFFFFFFFFFFFFFFFFFFFFFFF AND SUB PUSH2 0x297 JUMPI PUSH0 PUSH1 0x40 MLOAD PUSH32 0xEC442F0500000000000000000000000000000000000000000000000000000000 DUP2 MSTORE PUSH1 0x4 ADD PUSH2 0x28E SWAP2 SWAP1 PUSH2 0x810 JUMP JUMPDEST PUSH1 0x40 MLOAD DUP1 SWAP2 SUB SWAP1 REVERT JUMPDEST PUSH2 0x2A8 PUSH0 DUP4 DUP4 PUSH2 0x2AC PUSH1 0x20 SHL PUSH1 0x20 SHR JUMP JUMPDEST POP POP JUMP JUMPDEST PUSH0 PUSH20 0xFFFFFFFFFFFFFFFFFFFFFFFFFFFFFFFFFFFFFFFF AND DUP4 PUSH20 0xFFFFFFFFFFFFFFFFFFFFFFFFFFFFFFFFFFFFFFFF AND SUB PUSH2 0x2FC JUMPI DUP1 PUSH1 0x2 PUSH0 DUP3 DUP3 SLOAD PUSH2 0x2F0 SWAP2 SWAP1 PUSH2 0xA1C JUMP JUMPDEST SWAP3 POP POP DUP2 SWAP1 SSTORE POP PUSH2 0x3CA JUMP JUMPDEST PUSH0 PUSH0 PUSH0 DUP6 PUSH20 0xFFFFFFFFFFFFFFFFFFFFFFFFFFFFFFFFFFFFFFFF AND PUSH20 0xFFFFFFFFFFFFFFFFFFFFFFFFFFFFFFFFFFFFFFFF AND DUP2 MSTORE PUSH1 0x20 ADD SWAP1 DUP2 MSTORE PUSH1 0x20 ADD PUSH0 KECCAK256 SLOAD SWAP1 POP DUP2 DUP2 LT ISZERO PUSH2 0x385 JUMPI DUP4 DUP2 DUP4 PUSH1 0x40 MLOAD PUSH32 0xE450D38C00000000000000000000000000000000000000000000000000000000 DUP2 MSTORE PUSH1 0x4 ADD PUSH2 0x37C SWAP4 SWAP3 SWAP2 SWAP1 PUSH2 0xA5E JUMP JUMPDEST PUSH1 0x40 MLOAD DUP1 SWAP2 SUB SWAP1 REVERT JUMPDEST DUP2 DUP2 SUB PUSH0 PUSH0 DUP7 PUSH20 0xFFFFFFFFFFFFFFFFFFFFFFFFFFFFFFFFFFFFFFFF AND PUSH20 0xFFFFFFFFFFFFFFFFFFFFFFFFFFFFFFFFFFFFFFFF AND DUP2 MSTORE PUSH1 0x20 ADD SWAP1 DUP2 MSTORE PUSH1 0x20 ADD PUSH0 KECCAK256 DUP2 SWAP1 SSTORE POP POP JUMPDEST PUSH0 PUSH20 0xFFFFFFFFFFFFFFFFFFFFFFFFFFFFFFFFFFFFFFFF AND DUP3 PUSH20 0xFFFFFFFFFFFFFFFFFFFFFFFFFFFFFFFFFFFFFFFF AND SUB PUSH2 0x411 JUMPI DUP1 PUSH1 0x2 PUSH0 DUP3 DUP3 SLOAD SUB SWAP3 POP POP DUP2 SWAP1 SSTORE POP PUSH2 0x45B JUMP JUMPDEST DUP1 PUSH0 PUSH0 DUP5 PUSH20 0xFFFFFFFFFFFFFFFFFFFFFFFFFFFFFFFFFFFFFFFF AND PUSH20 0xFFFFFFFFFFFFFFFFFFFFFFFFFFFFFFFFFFFFFFFF AND DUP2 MSTORE PUSH1 0x20 ADD SWAP1 DUP2 MSTORE PUSH1 0x20 ADD PUSH0 KECCAK256 PUSH0 DUP3 DUP3 SLOAD ADD SWAP3 POP POP DUP2 SWAP1 SSTORE POP JUMPDEST DUP2 PUSH20 0xFFFFFFFFFFFFFFFFFFFFFFFFFFFFFFFFFFFFFFFF AND DUP4 PUSH20 0xFFFFFFFFFFFFFFFFFFFFFFFFFFFFFFFFFFFFFFFF AND PUSH32 0xDDF252AD1BE2C89B69C2B068FC378DAA952BA7F163C4A11628F55A4DF523B3EF DUP4 PUSH1 0x40 MLOAD PUSH2 0x4B8 SWAP2 SWAP1 PUSH2 0xA93 JUMP JUMPDEST PUSH1 0x40 MLOAD DUP1 SWAP2 SUB SWAP1 LOG3 POP POP POP JUMP JUMPDEST PUSH0 DUP2 MLOAD SWAP1 POP SWAP2 SWAP1 POP JUMP JUMPDEST PUSH32 0x4E487B7100000000000000000000000000000000000000000000000000000000 PUSH0 MSTORE PUSH1 0x41 PUSH1 0x4 MSTORE PUSH1 0x24 PUSH0 REVERT JUMPDEST PUSH32 0x4E487B7100000000000000000000000000000000000000000000000000000000 PUSH0 MSTORE PUSH1 0x22 PUSH1 0x4 MSTORE PUSH1 0x24 PUSH0 REVERT JUMPDEST PUSH0 PUSH1 0x2 DUP3 DIV SWAP1 POP PUSH1 0x1 DUP3 AND DUP1 PUSH2 0x540 JUMPI PUSH1 0x7F DUP3 AND SWAP2 POP JUMPDEST PUSH1 0x20 DUP3 LT DUP2 SUB PUSH2 0x553 JUMPI PUSH2 0x552 PUSH2 0x4FC JUMP JUMPDEST JUMPDEST POP SWAP2 SWAP1 POP JUMP JUMPDEST PUSH0 DUP2 SWAP1 POP DUP2 PUSH0 MSTORE PUSH1 0x20 PUSH0 KECCAK256 SWAP1 POP SWAP2 SWAP1 POP JUMP JUMPDEST PUSH0 PUSH1 0x20 PUSH1 0x1F DUP4 ADD DIV SWAP1 POP SWAP2 SWAP1 POP JUMP JUMPDEST PUSH0 DUP3 DUP3 SHL SWAP1 POP SWAP3 SWAP2 POP POP JUMP JUMPDEST PUSH0 PUSH1 0x8 DUP4 MUL PUSH2 0x5B5 PUSH32 0xFFFFFFFFFFFFFFFFFFFFFFFFFFFFFFFFFFFFFFFFFFFFFFFFFFFFFFFFFFFFFFFF DUP3 PUSH2 0x57A JUMP JUMPDEST PUSH2 0x5BF DUP7 DUP4 PUSH2 0x57A JUMP JUMPDEST SWAP6 POP DUP1 NOT DUP5 AND SWAP4 POP DUP1 DUP7 AND DUP5 OR SWAP3 POP POP POP SWAP4 SWAP3 POP POP POP JUMP JUMPDEST PUSH0 DUP2 SWAP1 POP SWAP2 SWAP1 POP JUMP JUMPDEST PUSH0 DUP2 SWAP1 POP SWAP2 SWAP1 POP JUMP JUMPDEST PUSH0 PUSH2 0x603 PUSH2 0x5FE PUSH2 0x5F9 DUP5 PUSH2 0x5D7 JUMP JUMPDEST PUSH2 0x5E0 JUMP JUMPDEST PUSH2 0x5D7 JUMP JUMPDEST SWAP1 POP SWAP2 SWAP1 POP JUMP JUMPDEST PUSH0 DUP2 SWAP1 POP SWAP2 SWAP1 POP JUMP JUMPDEST PUSH2 0x61C DUP4 PUSH2 0x5E9 JUMP JUMPDEST PUSH2 0x630 PUSH2 0x628 DUP3 PUSH2 0x60A JUMP JUMPDEST DUP5 DUP5 SLOAD PUSH2 0x586 JUMP JUMPDEST DUP3 SSTORE POP POP POP POP JUMP JUMPDEST PUSH0 PUSH0 SWAP1 POP SWAP1 JUMP JUMPDEST PUSH2 0x647 PUSH2 0x638 JUMP JUMPDEST PUSH2 0x652 DUP2 DUP5 DUP5 PUSH2 0x613 JUMP JUMPDEST POP POP POP JUMP JUMPDEST JUMPDEST DUP2 DUP2 LT ISZERO PUSH2 0x675 JUMPI PUSH2 0x66A PUSH0 DUP3 PUSH2 0x63F JUMP JUMPDEST PUSH1 0x1 DUP2 ADD SWAP1 POP PUSH2 0x658 JUMP JUMPDEST POP POP JUMP JUMPDEST PUSH1 0x1F DUP3 GT ISZERO PUSH2 0x6BA JUMPI PUSH2 0x68B DUP2 PUSH2 0x559 JUMP JUMPDEST PUSH2 0x694 DUP5 PUSH2 0x56B JUMP JUMPDEST DUP2 ADD PUSH1 0x20 DUP6 LT ISZERO PUSH2 0x6A3 JUMPI DUP2 SWAP1 POP JUMPDEST PUSH2 0x6B7 PUSH2 0x6AF DUP6 PUSH2 0x56B JUMP JUMPDEST DUP4 ADD DUP3 PUSH2 0x657 JUMP JUMPDEST POP POP JUMPDEST POP POP POP JUMP JUMPDEST PUSH0 DUP3 DUP3 SHR SWAP1 POP SWAP3 SWAP2 POP POP JUMP JUMPDEST PUSH0 PUSH2 0x6DA PUSH0 NOT DUP5 PUSH1 0x8 MUL PUSH2 0x6BF JUMP JUMPDEST NOT DUP1 DUP4 AND SWAP2 POP POP SWAP3 SWAP2 POP POP JUMP JUMPDEST PUSH0 PUSH2 0x6F2 DUP4 DUP4 PUSH2 0x6CB JUMP JUMPDEST SWAP2 POP DUP3 PUSH1 0x2 MUL DUP3 OR SWAP1 POP SWAP3 SWAP2 POP POP JUMP JUMPDEST PUSH2 0x70B DUP3 PUSH2 0x4C5 JUMP JUMPDEST PUSH8 0xFFFFFFFFFFFFFFFF DUP2 GT ISZERO PUSH2 0x724 JUMPI PUSH2 0x723 PUSH2 0x4CF JUMP JUMPDEST JUMPDEST PUSH2 0x72E DUP3 SLOAD PUSH2 0x529 JUMP JUMPDEST PUSH2 0x739 DUP3 DUP3 DUP6 PUSH2 0x679 JUMP JUMPDEST PUSH0 PUSH1 0x20 SWAP1 POP PUSH1 0x1F DUP4 GT PUSH1 0x1 DUP2 EQ PUSH2 0x76A JUMPI PUSH0 DUP5 ISZERO PUSH2 0x758 JUMPI DUP3 DUP8 ADD MLOAD SWAP1 POP JUMPDEST PUSH2 0x762 DUP6 DUP3 PUSH2 0x6E7 JUMP JUMPDEST DUP7 SSTORE POP PUSH2 0x7C9 JUMP JUMPDEST PUSH1 0x1F NOT DUP5 AND PUSH2 0x778 DUP7 PUSH2 0x559 JUMP JUMPDEST PUSH0 JUMPDEST DUP3 DUP2 LT ISZERO PUSH2 0x79F JUMPI DUP5 DUP10 ADD MLOAD DUP3 SSTORE PUSH1 0x1 DUP3 ADD SWAP2 POP PUSH1 0x20 DUP6 ADD SWAP5 POP PUSH1 0x20 DUP2 ADD SWAP1 POP PUSH2 0x77A JUMP JUMPDEST DUP7 DUP4 LT ISZERO PUSH2 0x7BC JUMPI DUP5 DUP10 ADD MLOAD PUSH2 0x7B8 PUSH1 0x1F DUP10 AND DUP3 PUSH2 0x6CB JUMP JUMPDEST DUP4 SSTORE POP JUMPDEST PUSH1 0x1 PUSH1 0x2 DUP9 MUL ADD DUP9 SSTORE POP POP POP JUMPDEST POP POP POP POP POP POP JUMP JUMPDEST PUSH0 PUSH20 0xFFFFFFFFFFFFFFFFFFFFFFFFFFFFFFFFFFFFFFFF DUP3 AND SWAP1 POP SWAP2 SWAP1 POP JUMP JUMPDEST PUSH0 PUSH2 0x7FA DUP3 PUSH2 0x7D1 JUMP JUMPDEST SWAP1 POP SWAP2 SWAP1 POP JUMP JUMPDEST PUSH2 0x80A DUP2 PUSH2 0x7F0 JUMP JUMPDEST DUP3 MSTORE POP POP JUMP JUMPDEST PUSH0 PUSH1 0x20 DUP3 ADD SWAP1 POP PUSH2 0x823 PUSH0 DUP4 ADD DUP5 PUSH2 0x801 JUMP JUMPDEST SWAP3 SWAP2 POP POP JUMP JUMPDEST PUSH32 0x4E487B7100000000000000000000000000000000000000000000000000000000 PUSH0 MSTORE PUSH1 0x11 PUSH1 0x4 MSTORE PUSH1 0x24 PUSH0 REVERT JUMPDEST PUSH0 DUP2 PUSH1 0x1 SHR SWAP1 POP SWAP2 SWAP1 POP JUMP JUMPDEST PUSH0 PUSH0 DUP3 SWAP2 POP DUP4 SWAP1 POP JUMPDEST PUSH1 0x1 DUP6 GT ISZERO PUSH2 0x8AB JUMPI DUP1 DUP7 DIV DUP2 GT ISZERO PUSH2 0x887 JUMPI PUSH2 0x886 PUSH2 0x829 JUMP JUMPDEST JUMPDEST PUSH1 0x1 DUP6 AND ISZERO PUSH2 0x896 JUMPI DUP1 DUP3 MUL SWAP2 POP JUMPDEST DUP1 DUP2 MUL SWAP1 POP PUSH2 0x8A4 DUP6 PUSH2 0x856 JUMP JUMPDEST SWAP5 POP PUSH2 0x86B JUMP JUMPDEST SWAP5 POP SWAP5 SWAP3 POP POP POP JUMP JUMPDEST PUSH0 DUP3 PUSH2 0x8C3 JUMPI PUSH1 0x1 SWAP1 POP PUSH2 0x97E JUMP JUMPDEST DUP2 PUSH2 0x8D0 JUMPI PUSH0 SWAP1 POP PUSH2 0x97E JUMP JUMPDEST DUP2 PUSH1 0x1 DUP2 EQ PUSH2 0x8E6 JUMPI PUSH1 0x2 DUP2 EQ PUSH2 0x8F0 JUMPI PUSH2 0x91F JUMP JUMPDEST PUSH1 0x1 SWAP2 POP POP PUSH2 0x97E JUMP JUMPDEST PUSH1 0xFF DUP5 GT ISZERO PUSH2 0x902 JUMPI PUSH2 0x901 PUSH2 0x829 JUMP JUMPDEST JUMPDEST DUP4 PUSH1 0x2 EXP SWAP2 POP DUP5 DUP3 GT ISZERO PUSH2 0x919 JUMPI PUSH2 0x918 PUSH2 0x829 JUMP JUMPDEST JUMPDEST POP PUSH2 0x97E JUMP JUMPDEST POP PUSH1 0x20 DUP4 LT PUSH2 0x133 DUP4 LT AND PUSH1 0x4E DUP5 LT PUSH1 0xB DUP5 LT AND OR ISZERO PUSH2 0x954 JUMPI DUP3 DUP3 EXP SWAP1 POP DUP4 DUP2 GT ISZERO PUSH2 0x94F JUMPI PUSH2 0x94E PUSH2 0x829 JUMP JUMPDEST JUMPDEST PUSH2 0x97E JUMP JUMPDEST PUSH2 0x961 DUP5 DUP5 DUP5 PUSH1 0x1 PUSH2 0x862 JUMP JUMPDEST SWAP3 POP SWAP1 POP DUP2 DUP5 DIV DUP2 GT ISZERO PUSH2 0x978 JUMPI PUSH2 0x977 PUSH2 0x829 JUMP JUMPDEST JUMPDEST DUP2 DUP2 MUL SWAP1 POP JUMPDEST SWAP4 SWAP3 POP POP POP JUMP JUMPDEST PUSH0 PUSH1 0xFF DUP3 AND SWAP1 POP SWAP2 SWAP1 POP JUMP JUMPDEST PUSH0 PUSH2 0x99B DUP3 PUSH2 0x5D7 JUMP JUMPDEST SWAP2 POP PUSH2 0x9A6 DUP4 PUSH2 0x985 JUMP JUMPDEST SWAP3 POP PUSH2 0x9D3 PUSH32 0xFFFFFFFFFFFFFFFFFFFFFFFFFFFFFFFFFFFFFFFFFFFFFFFFFFFFFFFFFFFFFFFF DUP5 DUP5 PUSH2 0x8B4 JUMP JUMPDEST SWAP1 POP SWAP3 SWAP2 POP POP JUMP JUMPDEST PUSH0 PUSH2 0x9E5 DUP3 PUSH2 0x5D7 JUMP JUMPDEST SWAP2 POP PUSH2 0x9F0 DUP4 PUSH2 0x5D7 JUMP JUMPDEST SWAP3 POP DUP3 DUP3 MUL PUSH2 0x9FE DUP2 PUSH2 0x5D7 JUMP JUMPDEST SWAP2 POP DUP3 DUP3 DIV DUP5 EQ DUP4 ISZERO OR PUSH2 0xA15 JUMPI PUSH2 0xA14 PUSH2 0x829 JUMP JUMPDEST JUMPDEST POP SWAP3 SWAP2 POP POP JUMP JUMPDEST PUSH0 PUSH2 0xA26 DUP3 PUSH2 0x5D7 JUMP JUMPDEST SWAP2 POP PUSH2 0xA31 DUP4 PUSH2 0x5D7 JUMP JUMPDEST SWAP3 POP DUP3 DUP3 ADD SWAP1 POP DUP1 DUP3 GT ISZERO PUSH2 0xA49 JUMPI PUSH2 0xA48 PUSH2 0x829 JUMP JUMPDEST JUMPDEST SWAP3 SWAP2 POP POP JUMP JUMPDEST PUSH2 0xA58 DUP2 PUSH2 0x5D7 JUMP JUMPDEST DUP3 MSTORE POP POP JUMP JUMPDEST PUSH0 PUSH1 0x60 DUP3 ADD SWAP1 POP PUSH2 0xA71 PUSH0 DUP4 ADD DUP7 PUSH2 0x801 JUMP JUMPDEST PUSH2 0xA7E PUSH1 0x20 DUP4 ADD DUP6 PUSH2 0xA4F JUMP JUMPDEST PUSH2 0xA8B PUSH1 0x40 DUP4 ADD DUP5 PUSH2 0xA4F JUMP JUMPDEST SWAP5 SWAP4 POP POP POP POP JUMP JUMPDEST PUSH0 PUSH1 0x20 DUP3 ADD SWAP1 POP PUSH2 0xAA6 PUSH0 DUP4 ADD DUP5 PUSH2 0xA4F JUMP JUMPDEST SWAP3 SWAP2 POP POP JUMP JUMPDEST PUSH2 0x1050 DUP1 PUSH2 0xAB9 PUSH0 CODECOPY PUSH0 RETURN INVALID PUSH1 0x80 PUSH1 0x40 MSTORE CALLVALUE DUP1 ISZERO PUSH2 0xF JUMPI PUSH0 PUSH0 REVERT JUMPDEST POP PUSH1 0x4 CALLDATASIZE LT PUSH2 0xB2 JUMPI PUSH0 CALLDATALOAD PUSH1 0xE0 SHR DUP1 PUSH4 0x715018A6 GT PUSH2 0x6F JUMPI DUP1 PUSH4 0x715018A6 EQ PUSH2 0x1A0 JUMPI DUP1 PUSH4 0x8DA5CB5B EQ PUSH2 0x1AA JUMPI DUP1 PUSH4 0x95D89B41 EQ PUSH2 0x1C8 JUMPI DUP1 PUSH4 0xA9059CBB EQ PUSH2 0x1E6 JUMPI DUP1 PUSH4 0xDD62ED3E EQ PUSH2 0x216 JUMPI DUP1 PUSH4 0xF2FDE38B EQ PUSH2 0x246 JUMPI PUSH2 0xB2 JUMP JUMPDEST DUP1 PUSH4 0x6FDDE03 EQ PUSH2 0xB6 JUMPI DUP1 PUSH4 0x95EA7B3 EQ PUSH2 0xD4 JUMPI DUP1 PUSH4 0x18160DDD EQ PUSH2 0x104 JUMPI DUP1 PUSH4 0x23B872DD EQ PUSH2 0x122 JUMPI DUP1 PUSH4 0x313CE567 EQ PUSH2 0x152 JUMPI DUP1 PUSH4 0x70A08231 EQ PUSH2 0x170 JUMPI JUMPDEST PUSH0 PUSH0 REVERT JUMPDEST PUSH2 0xBE PUSH2 0x262 JUMP JUMPDEST PUSH1 0x40 MLOAD PUSH2 0xCB SWAP2 SWAP1 PUSH2 0xCC9 JUMP JUMPDEST PUSH1 0x40 MLOAD DUP1 SWAP2 SUB SWAP1 RETURN JUMPDEST PUSH2 0xEE PUSH1 0x4 DUP1 CALLDATASIZE SUB DUP2 ADD SWAP1 PUSH2 0xE9 SWAP2 SWAP1 PUSH2 0xD7A JUMP JUMPDEST PUSH2 0x2F2 JUMP JUMPDEST PUSH1 0x40 MLOAD PUSH2 0xFB SWAP2 SWAP1 PUSH2 0xDD2 JUMP JUMPDEST PUSH1 0x40 MLOAD DUP1 SWAP2 SUB SWAP1 RETURN JUMPDEST PUSH2 0x10C PUSH2 0x314 JUMP JUMPDEST PUSH1 0x40 MLOAD PUSH2 0x119 SWAP2 SWAP1 PUSH2 0xDFA JUMP JUMPDEST PUSH1 0x40 MLOAD DUP1 SWAP2 SUB SWAP1 RETURN JUMPDEST PUSH2 0x13C PUSH1 0x4 DUP1 CALLDATASIZE SUB DUP2 ADD SWAP1 PUSH2 0x137 SWAP2 SWAP1 PUSH2 0xE13 JUMP JUMPDEST PUSH2 0x31D JUMP JUMPDEST PUSH1 0x40 MLOAD PUSH2 0x149 SWAP2 SWAP1 PUSH2 0xDD2 JUMP JUMPDEST PUSH1 0x40 MLOAD DUP1 SWAP2 SUB SWAP1 RETURN JUMPDEST PUSH2 0x15A PUSH2 0x34B JUMP JUMPDEST PUSH1 0x40 MLOAD PUSH2 0x167 SWAP2 SWAP1 PUSH2 0xE7E JUMP JUMPDEST PUSH1 0x40 MLOAD DUP1 SWAP2 SUB SWAP1 RETURN JUMPDEST PUSH2 0x18A PUSH1 0x4 DUP1 CALLDATASIZE SUB DUP2 ADD SWAP1 PUSH2 0x185 SWAP2 SWAP1 PUSH2 0xE97 JUMP JUMPDEST PUSH2 0x353 JUMP JUMPDEST PUSH1 0x40 MLOAD PUSH2 0x197 SWAP2 SWAP1 PUSH2 0xDFA JUMP JUMPDEST PUSH1 0x40 MLOAD DUP1 SWAP2 SUB SWAP1 RETURN JUMPDEST PUSH2 0x1A8 PUSH2 0x398 JUMP JUMPDEST STOP JUMPDEST PUSH2 0x1B2 PUSH2 0x3AB JUMP JUMPDEST PUSH1 0x40 MLOAD PUSH2 0x1BF SWAP2 SWAP1 PUSH2 0xED1 JUMP JUMPDEST PUSH1 0x40 MLOAD DUP1 SWAP2 SUB SWAP1 RETURN JUMPDEST PUSH2 0x1D0 PUSH2 0x3D3 JUMP JUMPDEST PUSH1 0x40 MLOAD PUSH2 0x1DD SWAP2 SWAP1 PUSH2 0xCC9 JUMP JUMPDEST PUSH1 0x40 MLOAD DUP1 SWAP2 SUB SWAP1 RETURN JUMPDEST PUSH2 0x200 PUSH1 0x4 DUP1 CALLDATASIZE SUB DUP2 ADD SWAP1 PUSH2 0x1FB SWAP2 SWAP1 PUSH2 0xD7A JUMP JUMPDEST PUSH2 0x463 JUMP JUMPDEST PUSH1 0x40 MLOAD PUSH2 0x20D SWAP2 SWAP1 PUSH2 0xDD2 JUMP JUMPDEST PUSH1 0x40 MLOAD DUP1 SWAP2 SUB SWAP1 RETURN JUMPDEST PUSH2 0x230 PUSH1 0x4 DUP1 CALLDATASIZE SUB DUP2 ADD SWAP1 PUSH2 0x22B SWAP2 SWAP1 PUSH2 0xEEA JUMP JUMPDEST PUSH2 0x485 JUMP JUMPDEST PUSH1 0x40 MLOAD PUSH2 0x23D SWAP2 SWAP1 PUSH2 0xDFA JUMP JUMPDEST PUSH1 0x40 MLOAD DUP1 SWAP2 SUB SWAP1 RETURN JUMPDEST PUSH2 0x260 PUSH1 0x4 DUP1 CALLDATASIZE SUB DUP2 ADD SWAP1 PUSH2 0x25B SWAP2 SWAP1 PUSH2 0xE97 JUMP JUMPDEST PUSH2 0x507 JUMP JUMPDEST STOP JUMPDEST PUSH1 0x60 PUSH1 0x3 DUP1 SLOAD PUSH2 0x271 SWAP1 PUSH2 0xF55 JUMP JUMPDEST DUP1 PUSH1 0x1F ADD PUSH1 0x20 DUP1 SWAP2 DIV MUL PUSH1 0x20 ADD PUSH1 0x40 MLOAD SWAP1 DUP2 ADD PUSH1 0x40 MSTORE DUP1 SWAP3 SWAP2 SWAP1 DUP2 DUP2 MSTORE PUSH1 0x20 ADD DUP3 DUP1 SLOAD PUSH2 0x29D SWAP1 PUSH2 0xF55 JUMP JUMPDEST DUP1 ISZERO PUSH2 0x2E8 JUMPI DUP1 PUSH1 0x1F LT PUSH2 0x2BF JUMPI PUSH2 0x100 DUP1 DUP4 SLOAD DIV MUL DUP4 MSTORE SWAP2 PUSH1 0x20 ADD SWAP2 PUSH2 0x2E8 JUMP JUMPDEST DUP3 ADD SWAP2 SWAP1 PUSH0 MSTORE PUSH1 0x20 PUSH0 KECCAK256 SWAP1 JUMPDEST DUP2 SLOAD DUP2 MSTORE SWAP1 PUSH1 0x1 ADD SWAP1 PUSH1 0x20 ADD DUP1 DUP4 GT PUSH2 0x2CB JUMPI DUP3 SWAP1 SUB PUSH1 0x1F AND DUP3 ADD SWAP2 JUMPDEST POP POP POP POP POP SWAP1 POP SWAP1 JUMP JUMPDEST PUSH0 PUSH0 PUSH2 0x2FC PUSH2 0x58B JUMP JUMPDEST SWAP1 POP PUSH2 0x309 DUP2 DUP6 DUP6 PUSH2 0x592 JUMP JUMPDEST PUSH1 0x1 SWAP2 POP POP SWAP3 SWAP2 POP POP JUMP JUMPDEST PUSH0 PUSH1 0x2 SLOAD SWAP1 POP SWAP1 JUMP JUMPDEST PUSH0 PUSH0 PUSH2 0x327 PUSH2 0x58B JUMP JUMPDEST SWAP1 POP PUSH2 0x334 DUP6 DUP3 DUP6 PUSH2 0x5A4 JUMP JUMPDEST PUSH2 0x33F DUP6 DUP6 DUP6 PUSH2 0x637 JUMP JUMPDEST PUSH1 0x1 SWAP2 POP POP SWAP4 SWAP3 POP POP POP JUMP JUMPDEST PUSH0 PUSH1 0x12 SWAP1 POP SWAP1 JUMP JUMPDEST PUSH0 PUSH0 PUSH0 DUP4 PUSH20 0xFFFFFFFFFFFFFFFFFFFFFFFFFFFFFFFFFFFFFFFF AND PUSH20 0xFFFFFFFFFFFFFFFFFFFFFFFFFFFFFFFFFFFFFFFF AND DUP2 MSTORE PUSH1 0x20 ADD SWAP1 DUP2 MSTORE PUSH1 0x20 ADD PUSH0 KECCAK256 SLOAD SWAP1 POP SWAP2 SWAP1 POP JUMP JUMPDEST PUSH2 0x3A0 PUSH2 0x727 JUMP JUMPDEST PUSH2 0x3A9 PUSH0 PUSH2 0x7AE JUMP JUMPDEST JUMP JUMPDEST PUSH0 PUSH1 0x5 PUSH0 SWAP1 SLOAD SWAP1 PUSH2 0x100 EXP SWAP1 DIV PUSH20 0xFFFFFFFFFFFFFFFFFFFFFFFFFFFFFFFFFFFFFFFF AND SWAP1 POP SWAP1 JUMP JUMPDEST PUSH1 0x60 PUSH1 0x4 DUP1 SLOAD PUSH2 0x3E2 SWAP1 PUSH2 0xF55 JUMP JUMPDEST DUP1 PUSH1 0x1F ADD PUSH1 0x20 DUP1 SWAP2 DIV MUL PUSH1 0x20 ADD PUSH1 0x40 MLOAD SWAP1 DUP2 ADD PUSH1 0x40 MSTORE DUP1 SWAP3 SWAP2 SWAP1 DUP2 DUP2 MSTORE PUSH1 0x20 ADD DUP3 DUP1 SLOAD PUSH2 0x40E SWAP1 PUSH2 0xF55 JUMP JUMPDEST DUP1 ISZERO PUSH2 0x459 JUMPI DUP1 PUSH1 0x1F LT PUSH2 0x430 JUMPI PUSH2 0x100 DUP1 DUP4 SLOAD DIV MUL DUP4 MSTORE SWAP2 PUSH1 0x20 ADD SWAP2 PUSH2 0x459 JUMP JUMPDEST DUP3 ADD SWAP2 SWAP1 PUSH0 MSTORE PUSH1 0x20 PUSH0 KECCAK256 SWAP1 JUMPDEST DUP2 SLOAD DUP2 MSTORE SWAP1 PUSH1 0x1 ADD SWAP1 PUSH1 0x20 ADD DUP1 DUP4 GT PUSH2 0x43C JUMPI DUP3 SWAP1 SUB PUSH1 0x1F AND DUP3 ADD SWAP2 JUMPDEST POP POP POP POP POP SWAP1 POP SWAP1 JUMP JUMPDEST PUSH0 PUSH0 PUSH2 0x46D PUSH2 0x58B JUMP JUMPDEST SWAP1 POP PUSH2 0x47A DUP2 DUP6 DUP6 PUSH2 0x637 JUMP JUMPDEST PUSH1 0x1 SWAP2 POP POP SWAP3 SWAP2 POP POP JUMP JUMPDEST PUSH0 PUSH1 0x1 PUSH0 DUP5 PUSH20 0xFFFFFFFFFFFFFFFFFFFFFFFFFFFFFFFFFFFFFFFF AND PUSH20 0xFFFFFFFFFFFFFFFFFFFFFFFFFFFFFFFFFFFFFFFF AND DUP2 MSTORE PUSH1 0x20 ADD SWAP1 DUP2 MSTORE PUSH1 0x20 ADD PUSH0 KECCAK256 PUSH0 DUP4 PUSH20 0xFFFFFFFFFFFFFFFFFFFFFFFFFFFFFFFFFFFFFFFF AND PUSH20 0xFFFFFFFFFFFFFFFFFFFFFFFFFFFFFFFFFFFFFFFF AND DUP2 MSTORE PUSH1 0x20 ADD SWAP1 DUP2 MSTORE PUSH1 0x20 ADD PUSH0 KECCAK256 SLOAD SWAP1 POP SWAP3 SWAP2 POP POP JUMP JUMPDEST PUSH2 0x50F PUSH2 0x727 JUMP JUMPDEST PUSH0 PUSH20 0xFFFFFFFFFFFFFFFFFFFFFFFFFFFFFFFFFFFFFFFF AND DUP2 PUSH20 0xFFFFFFFFFFFFFFFFFFFFFFFFFFFFFFFFFFFFFFFF AND SUB PUSH2 0x57F JUMPI PUSH0 PUSH1 0x40 MLOAD PUSH32 0x1E4FBDF700000000000000000000000000000000000000000000000000000000 DUP2 MSTORE PUSH1 0x4 ADD PUSH2 0x576 SWAP2 SWAP1 PUSH2 0xED1 JUMP JUMPDEST PUSH1 0x40 MLOAD DUP1 SWAP2 SUB SWAP1 REVERT JUMPDEST PUSH2 0x588 DUP2 PUSH2 0x7AE JUMP JUMPDEST POP JUMP JUMPDEST PUSH0 CALLER SWAP1 POP SWAP1 JUMP JUMPDEST PUSH2 0x59F DUP4 DUP4 DUP4 PUSH1 0x1 PUSH2 0x871 JUMP JUMPDEST POP POP POP JUMP JUMPDEST PUSH0 PUSH2 0x5AF DUP5 DUP5 PUSH2 0x485 JUMP JUMPDEST SWAP1 POP PUSH32 0xFFFFFFFFFFFFFFFFFFFFFFFFFFFFFFFFFFFFFFFFFFFFFFFFFFFFFFFFFFFFFFFF DUP2 LT ISZERO PUSH2 0x631 JUMPI DUP2 DUP2 LT ISZERO PUSH2 0x622 JUMPI DUP3 DUP2 DUP4 PUSH1 0x40 MLOAD PUSH32 0xFB8F41B200000000000000000000000000000000000000000000000000000000 DUP2 MSTORE PUSH1 0x4 ADD PUSH2 0x619 SWAP4 SWAP3 SWAP2 SWAP1 PUSH2 0xF85 JUMP JUMPDEST PUSH1 0x40 MLOAD DUP1 SWAP2 SUB SWAP1 REVERT JUMPDEST PUSH2 0x630 DUP5 DUP5 DUP5 DUP5 SUB PUSH0 PUSH2 0x871 JUMP JUMPDEST JUMPDEST POP POP POP POP JUMP JUMPDEST PUSH0 PUSH20 0xFFFFFFFFFFFFFFFFFFFFFFFFFFFFFFFFFFFFFFFF AND DUP4 PUSH20 0xFFFFFFFFFFFFFFFFFFFFFFFFFFFFFFFFFFFFFFFF AND SUB PUSH2 0x6A7 JUMPI PUSH0 PUSH1 0x40 MLOAD PUSH32 0x96C6FD1E00000000000000000000000000000000000000000000000000000000 DUP2 MSTORE PUSH1 0x4 ADD PUSH2 0x69E SWAP2 SWAP1 PUSH2 0xED1 JUMP JUMPDEST PUSH1 0x40 MLOAD DUP1 SWAP2 SUB SWAP1 REVERT JUMPDEST PUSH0 PUSH20 0xFFFFFFFFFFFFFFFFFFFFFFFFFFFFFFFFFFFFFFFF AND DUP3 PUSH20 0xFFFFFFFFFFFFFFFFFFFFFFFFFFFFFFFFFFFFFFFF AND SUB PUSH2 0x717 JUMPI PUSH0 PUSH1 0x40 MLOAD PUSH32 0xEC442F0500000000000000000000000000000000000000000000000000000000 DUP2 MSTORE PUSH1 0x4 ADD PUSH2 0x70E SWAP2 SWAP1 PUSH2 0xED1 JUMP JUMPDEST PUSH1 0x40 MLOAD DUP1 SWAP2 SUB SWAP1 REVERT JUMPDEST PUSH2 0x722 DUP4 DUP4 DUP4 PUSH2 0xA40 JUMP JUMPDEST POP POP POP JUMP JUMPDEST PUSH2 0x72F PUSH2 0x58B JUMP JUMPDEST PUSH20 0xFFFFFFFFFFFFFFFFFFFFFFFFFFFFFFFFFFFFFFFF AND PUSH2 0x74D PUSH2 0x3AB JUMP JUMPDEST PUSH20 0xFFFFFFFFFFFFFFFFFFFFFFFFFFFFFFFFFFFFFFFF AND EQ PUSH2 0x7AC JUMPI PUSH2 0x770 PUSH2 0x58B JUMP JUMPDEST PUSH1 0x40 MLOAD PUSH32 0x118CDAA700000000000000000000000000000000000000000000000000000000 DUP2 MSTORE PUSH1 0x4 ADD PUSH2 0x7A3 SWAP2 SWAP1 PUSH2 0xED1 JUMP JUMPDEST PUSH1 0x40 MLOAD DUP1 SWAP2 SUB SWAP1 REVERT JUMPDEST JUMP JUMPDEST PUSH0 PUSH1 0x5 PUSH0 SWAP1 SLOAD SWAP1 PUSH2 0x100 EXP SWAP1 DIV PUSH20 0xFFFFFFFFFFFFFFFFFFFFFFFFFFFFFFFFFFFFFFFF AND SWAP1 POP DUP2 PUSH1 0x5 PUSH0 PUSH2 0x100 EXP DUP2 SLOAD DUP2 PUSH20 0xFFFFFFFFFFFFFFFFFFFFFFFFFFFFFFFFFFFFFFFF MUL NOT AND SWAP1 DUP4 PUSH20 0xFFFFFFFFFFFFFFFFFFFFFFFFFFFFFFFFFFFFFFFF AND MUL OR SWAP1 SSTORE POP DUP2 PUSH20 0xFFFFFFFFFFFFFFFFFFFFFFFFFFFFFFFFFFFFFFFF AND DUP2 PUSH20 0xFFFFFFFFFFFFFFFFFFFFFFFFFFFFFFFFFFFFFFFF AND PUSH32 0x8BE0079C531659141344CD1FD0A4F28419497F9722A3DAAFE3B4186F6B6457E0 PUSH1 0x40 MLOAD PUSH1 0x40 MLOAD DUP1 SWAP2 SUB SWAP1 LOG3 POP POP JUMP JUMPDEST PUSH0 PUSH20 0xFFFFFFFFFFFFFFFFFFFFFFFFFFFFFFFFFFFFFFFF AND DUP5 PUSH20 0xFFFFFFFFFFFFFFFFFFFFFFFFFFFFFFFFFFFFFFFF AND SUB PUSH2 0x8E1 JUMPI PUSH0 PUSH1 0x40 MLOAD PUSH32 0xE602DF0500000000000000000000000000000000000000000000000000000000 DUP2 MSTORE PUSH1 0x4 ADD PUSH2 0x8D8 SWAP2 SWAP1 PUSH2 0xED1 JUMP JUMPDEST PUSH1 0x40 MLOAD DUP1 SWAP2 SUB SWAP1 REVERT JUMPDEST PUSH0 PUSH20 0xFFFFFFFFFFFFFFFFFFFFFFFFFFFFFFFFFFFFFFFF AND DUP4 PUSH20 0xFFFFFFFFFFFFFFFFFFFFFFFFFFFFFFFFFFFFFFFF AND SUB PUSH2 0x951 JUMPI PUSH0 PUSH1 0x40 MLOAD PUSH32 0x94280D6200000000000000000000000000000000000000000000000000000000 DUP2 MSTORE PUSH1 0x4 ADD PUSH2 0x948 SWAP2 SWAP1 PUSH2 0xED1 JUMP JUMPDEST PUSH1 0x40 MLOAD DUP1 SWAP2 SUB SWAP1 REVERT JUMPDEST DUP2 PUSH1 0x1 PUSH0 DUP7 PUSH20 0xFFFFFFFFFFFFFFFFFFFFFFFFFFFFFFFFFFFFFFFF AND PUSH20 0xFFFFFFFFFFFFFFFFFFFFFFFFFFFFFFFFFFFFFFFF AND DUP2 MSTORE PUSH1 0x20 ADD SWAP1 DUP2 MSTORE PUSH1 0x20 ADD PUSH0 KECCAK256 PUSH0 DUP6 PUSH20 0xFFFFFFFFFFFFFFFFFFFFFFFFFFFFFFFFFFFFFFFF AND PUSH20 0xFFFFFFFFFFFFFFFFFFFFFFFFFFFFFFFFFFFFFFFF AND DUP2 MSTORE PUSH1 0x20 ADD SWAP1 DUP2 MSTORE PUSH1 0x20 ADD PUSH0 KECCAK256 DUP2 SWAP1 SSTORE POP DUP1 ISZERO PUSH2 0xA3A JUMPI DUP3 PUSH20 0xFFFFFFFFFFFFFFFFFFFFFFFFFFFFFFFFFFFFFFFF AND DUP5 PUSH20 0xFFFFFFFFFFFFFFFFFFFFFFFFFFFFFFFFFFFFFFFF AND PUSH32 0x8C5BE1E5EBEC7D5BD14F71427D1E84F3DD0314C0F7B2291E5B200AC8C7C3B925 DUP5 PUSH1 0x40 MLOAD PUSH2 0xA31 SWAP2 SWAP1 PUSH2 0xDFA JUMP JUMPDEST PUSH1 0x40 MLOAD DUP1 SWAP2 SUB SWAP1 LOG3 JUMPDEST POP POP POP POP JUMP JUMPDEST PUSH0 PUSH20 0xFFFFFFFFFFFFFFFFFFFFFFFFFFFFFFFFFFFFFFFF AND DUP4 PUSH20 0xFFFFFFFFFFFFFFFFFFFFFFFFFFFFFFFFFFFFFFFF AND SUB PUSH2 0xA90 JUMPI DUP1 PUSH1 0x2 PUSH0 DUP3 DUP3 SLOAD PUSH2 0xA84 SWAP2 SWAP1 PUSH2 0xFE7 JUMP JUMPDEST SWAP3 POP POP DUP2 SWAP1 SSTORE POP PUSH2 0xB5E JUMP JUMPDEST PUSH0 PUSH0 PUSH0 DUP6 PUSH20 0xFFFFFFFFFFFFFFFFFFFFFFFFFFFFFFFFFFFFFFFF AND PUSH20 0xFFFFFFFFFFFFFFFFFFFFFFFFFFFFFFFFFFFFFFFF AND DUP2 MSTORE PUSH1 0x20 ADD SWAP1 DUP2 MSTORE PUSH1 0x20 ADD PUSH0 KECCAK256 SLOAD SWAP1 POP DUP2 DUP2 LT ISZERO PUSH2 0xB19 JUMPI DUP4 DUP2 DUP4 PUSH1 0x40 MLOAD PUSH32 0xE450D38C00000000000000000000000000000000000000000000000000000000 DUP2 MSTORE PUSH1 0x4 ADD PUSH2 0xB10 SWAP4 SWAP3 SWAP2 SWAP1 PUSH2 0xF85 JUMP JUMPDEST PUSH1 0x40 MLOAD DUP1 SWAP2 SUB SWAP1 REVERT JUMPDEST DUP2 DUP2 SUB PUSH0 PUSH0 DUP7 PUSH20 0xFFFFFFFFFFFFFFFFFFFFFFFFFFFFFFFFFFFFFFFF AND PUSH20 0xFFFFFFFFFFFFFFFFFFFFFFFFFFFFFFFFFFFFFFFF AND DUP2 MSTORE PUSH1 0x20 ADD SWAP1 DUP2 MSTORE PUSH1 0x20 ADD PUSH0 KECCAK256 DUP2 SWAP1 SSTORE POP POP JUMPDEST PUSH0 PUSH20 0xFFFFFFFFFFFFFFFFFFFFFFFFFFFFFFFFFFFFFFFF AND DUP3 PUSH20 0xFFFFFFFFFFFFFFFFFFFFFFFFFFFFFFFFFFFFFFFF AND SUB PUSH2 0xBA5 JUMPI DUP1 PUSH1 0x2 PUSH0 DUP3 DUP3 SLOAD SUB SWAP3 POP POP DUP2 SWAP1 SSTORE POP PUSH2 0xBEF JUMP JUMPDEST DUP1 PUSH0 PUSH0 DUP5 PUSH20 0xFFFFFFFFFFFFFFFFFFFFFFFFFFFFFFFFFFFFFFFF AND PUSH20 0xFFFFFFFFFFFFFFFFFFFFFFFFFFFFFFFFFFFFFFFF AND DUP2 MSTORE PUSH1 0x20 ADD SWAP1 DUP2 MSTORE PUSH1 0x20 ADD PUSH0 KECCAK256 PUSH0 DUP3 DUP3 SLOAD ADD SWAP3 POP POP DUP2 SWAP1 SSTORE POP JUMPDEST DUP2 PUSH20 0xFFFFFFFFFFFFFFFFFFFFFFFFFFFFFFFFFFFFFFFF AND DUP4 PUSH20 0xFFFFFFFFFFFFFFFFFFFFFFFFFFFFFFFFFFFFFFFF AND PUSH32 0xDDF252AD1BE2C89B69C2B068FC378DAA952BA7F163C4A11628F55A4DF523B3EF DUP4 PUSH1 0x40 MLOAD PUSH2 0xC4C SWAP2 SWAP1 PUSH2 0xDFA JUMP JUMPDEST PUSH1 0x40 MLOAD DUP1 SWAP2 SUB SWAP1 LOG3 POP POP POP JUMP JUMPDEST PUSH0 DUP2 MLOAD SWAP1 POP SWAP2 SWAP1 POP JUMP JUMPDEST PUSH0 DUP3 DUP3 MSTORE PUSH1 0x20 DUP3 ADD SWAP1 POP SWAP3 SWAP2 POP POP JUMP JUMPDEST DUP3 DUP2 DUP4 MCOPY PUSH0 DUP4 DUP4 ADD MSTORE POP POP POP JUMP JUMPDEST PUSH0 PUSH1 0x1F NOT PUSH1 0x1F DUP4 ADD AND SWAP1 POP SWAP2 SWAP1 POP JUMP JUMPDEST PUSH0 PUSH2 0xC9B DUP3 PUSH2 0xC59 JUMP JUMPDEST PUSH2 0xCA5 DUP2 DUP6 PUSH2 0xC63 JUMP JUMPDEST SWAP4 POP PUSH2 0xCB5 DUP2 DUP6 PUSH1 0x20 DUP7 ADD PUSH2 0xC73 JUMP JUMPDEST PUSH2 0xCBE DUP2 PUSH2 0xC81 JUMP JUMPDEST DUP5 ADD SWAP2 POP POP SWAP3 SWAP2 POP POP JUMP JUMPDEST PUSH0 PUSH1 0x20 DUP3 ADD SWAP1 POP DUP2 DUP2 SUB PUSH0 DUP4 ADD MSTORE PUSH2 0xCE1 DUP2 DUP5 PUSH2 0xC91 JUMP JUMPDEST SWAP1 POP SWAP3 SWAP2 POP POP JUMP JUMPDEST PUSH0 PUSH0 REVERT JUMPDEST PUSH0 PUSH20 0xFFFFFFFFFFFFFFFFFFFFFFFFFFFFFFFFFFFFFFFF DUP3 AND SWAP1 POP SWAP2 SWAP1 POP JUMP JUMPDEST PUSH0 PUSH2 0xD16 DUP3 PUSH2 0xCED JUMP JUMPDEST SWAP1 POP SWAP2 SWAP1 POP JUMP JUMPDEST PUSH2 0xD26 DUP2 PUSH2 0xD0C JUMP JUMPDEST DUP2 EQ PUSH2 0xD30 JUMPI PUSH0 PUSH0 REVERT JUMPDEST POP JUMP JUMPDEST PUSH0 DUP2 CALLDATALOAD SWAP1 POP PUSH2 0xD41 DUP2 PUSH2 0xD1D JUMP JUMPDEST SWAP3 SWAP2 POP POP JUMP JUMPDEST PUSH0 DUP2 SWAP1 POP SWAP2 SWAP1 POP JUMP JUMPDEST PUSH2 0xD59 DUP2 PUSH2 0xD47 JUMP JUMPDEST DUP2 EQ PUSH2 0xD63 JUMPI PUSH0 PUSH0 REVERT JUMPDEST POP JUMP JUMPDEST PUSH0 DUP2 CALLDATALOAD SWAP1 POP PUSH2 0xD74 DUP2 PUSH2 0xD50 JUMP JUMPDEST SWAP3 SWAP2 POP POP JUMP JUMPDEST PUSH0 PUSH0 PUSH1 0x40 DUP4 DUP6 SUB SLT ISZERO PUSH2 0xD90 JUMPI PUSH2 0xD8F PUSH2 0xCE9 JUMP JUMPDEST JUMPDEST PUSH0 PUSH2 0xD9D DUP6 DUP3 DUP7 ADD PUSH2 0xD33 JUMP JUMPDEST SWAP3 POP POP PUSH1 0x20 PUSH2 0xDAE DUP6 DUP3 DUP7 ADD PUSH2 0xD66 JUMP JUMPDEST SWAP2 POP POP SWAP3 POP SWAP3 SWAP1 POP JUMP JUMPDEST PUSH0 DUP2 ISZERO ISZERO SWAP1 POP SWAP2 SWAP1 POP JUMP JUMPDEST PUSH2 0xDCC DUP2 PUSH2 0xDB8 JUMP JUMPDEST DUP3 MSTORE POP POP JUMP JUMPDEST PUSH0 PUSH1 0x20 DUP3 ADD SWAP1 POP PUSH2 0xDE5 PUSH0 DUP4 ADD DUP5 PUSH2 0xDC3 JUMP JUMPDEST SWAP3 SWAP2 POP POP JUMP JUMPDEST PUSH2 0xDF4 DUP2 PUSH2 0xD47 JUMP JUMPDEST DUP3 MSTORE POP POP JUMP JUMPDEST PUSH0 PUSH1 0x20 DUP3 ADD SWAP1 POP PUSH2 0xE0D PUSH0 DUP4 ADD DUP5 PUSH2 0xDEB JUMP JUMPDEST SWAP3 SWAP2 POP POP JUMP JUMPDEST PUSH0 PUSH0 PUSH0 PUSH1 0x60 DUP5 DUP7 SUB SLT ISZERO PUSH2 0xE2A JUMPI PUSH2 0xE29 PUSH2 0xCE9 JUMP JUMPDEST JUMPDEST PUSH0 PUSH2 0xE37 DUP7 DUP3 DUP8 ADD PUSH2 0xD33 JUMP JUMPDEST SWAP4 POP POP PUSH1 0x20 PUSH2 0xE48 DUP7 DUP3 DUP8 ADD PUSH2 0xD33 JUMP JUMPDEST SWAP3 POP POP PUSH1 0x40 PUSH2 0xE59 DUP7 DUP3 DUP8 ADD PUSH2 0xD66 JUMP JUMPDEST SWAP2 POP POP SWAP3 POP SWAP3 POP SWAP3 JUMP JUMPDEST PUSH0 PUSH1 0xFF DUP3 AND SWAP1 POP SWAP2 SWAP1 POP JUMP JUMPDEST PUSH2 0xE78 DUP2 PUSH2 0xE63 JUMP JUMPDEST DUP3 MSTORE POP POP JUMP JUMPDEST PUSH0 PUSH1 0x20 DUP3 ADD SWAP1 POP PUSH2 0xE91 PUSH0 DUP4 ADD DUP5 PUSH2 0xE6F JUMP JUMPDEST SWAP3 SWAP2 POP POP JUMP JUMPDEST PUSH0 PUSH1 0x20 DUP3 DUP5 SUB SLT ISZERO PUSH2 0xEAC JUMPI PUSH2 0xEAB PUSH2 0xCE9 JUMP JUMPDEST JUMPDEST PUSH0 PUSH2 0xEB9 DUP5 DUP3 DUP6 ADD PUSH2 0xD33 JUMP JUMPDEST SWAP2 POP POP SWAP3 SWAP2 POP POP JUMP JUMPDEST PUSH2 0xECB DUP2 PUSH2 0xD0C JUMP JUMPDEST DUP3 MSTORE POP POP JUMP JUMPDEST PUSH0 PUSH1 0x20 DUP3 ADD SWAP1 POP PUSH2 0xEE4 PUSH0 DUP4 ADD DUP5 PUSH2 0xEC2 JUMP JUMPDEST SWAP3 SWAP2 POP POP JUMP JUMPDEST PUSH0 PUSH0 PUSH1 0x40 DUP4 DUP6 SUB SLT ISZERO PUSH2 0xF00 JUMPI PUSH2 0xEFF PUSH2 0xCE9 JUMP JUMPDEST JUMPDEST PUSH0 PUSH2 0xF0D DUP6 DUP3 DUP7 ADD PUSH2 0xD33 JUMP JUMPDEST SWAP3 POP POP PUSH1 0x20 PUSH2 0xF1E DUP6 DUP3 DUP7 ADD PUSH2 0xD33 JUMP JUMPDEST SWAP2 POP POP SWAP3 POP SWAP3 SWAP1 POP JUMP JUMPDEST PUSH32 0x4E487B7100000000000000000000000000000000000000000000000000000000 PUSH0 MSTORE PUSH1 0x22 PUSH1 0x4 MSTORE PUSH1 0x24 PUSH0 REVERT JUMPDEST PUSH0 PUSH1 0x2 DUP3 DIV SWAP1 POP PUSH1 0x1 DUP3 AND DUP1 PUSH2 0xF6C JUMPI PUSH1 0x7F DUP3 AND SWAP2 POP JUMPDEST PUSH1 0x20 DUP3 LT DUP2 SUB PUSH2 0xF7F JUMPI PUSH2 0xF7E PUSH2 0xF28 JUMP JUMPDEST JUMPDEST POP SWAP2 SWAP1 POP JUMP JUMPDEST PUSH0 PUSH1 0x60 DUP3 ADD SWAP1 POP PUSH2 0xF98 PUSH0 DUP4 ADD DUP7 PUSH2 0xEC2 JUMP JUMPDEST PUSH2 0xFA5 PUSH1 0x20 DUP4 ADD DUP6 PUSH2 0xDEB JUMP JUMPDEST PUSH2 0xFB2 PUSH1 0x40 DUP4 ADD DUP5 PUSH2 0xDEB JUMP JUMPDEST SWAP5 SWAP4 POP POP POP POP JUMP JUMPDEST PUSH32 0x4E487B7100000000000000000000000000000000000000000000000000000000 PUSH0 MSTORE PUSH1 0x11 PUSH1 0x4 MSTORE PUSH1 0x24 PUSH0 REVERT JUMPDEST PUSH0 PUSH2 0xFF1 DUP3 PUSH2 0xD47 JUMP JUMPDEST SWAP2 POP PUSH2 0xFFC DUP4 PUSH2 0xD47 JUMP JUMPDEST SWAP3 POP DUP3 DUP3 ADD SWAP1 POP DUP1 DUP3 GT ISZERO PUSH2 0x1014 JUMPI PUSH2 0x1013 PUSH2 0xFBA JUMP JUMPDEST JUMPDEST SWAP3 SWAP2 POP POP JUMP INVALID LOG2 PUSH5 0x6970667358 0x22 SLT KECCAK256 SWAP16 0xCB 0xB6 PUSH16 0xB1147A9A43724024AF6BFF7A96CB7716 0xF6 0x2C SHR EQ ADDRESS CALLF 0x61FA 0xFC 0x4E SWAP8 0xB3 PUSH5 0x736F6C6343 STOP ADDMOD 0x1F STOP CALLER "
				},
				"gasEstimates": {
					"creation": {
						"codeDepositCost": "835200",
						"executionCost": "infinite",
						"totalCost": "infinite"
					},
					"external": {
						"allowance(address,address)": "infinite",
						"approve(address,uint256)": "infinite",
						"balanceOf(address)": "2939",
						"decimals()": "427",
						"name()": "infinite",
						"owner()": "2537",
						"renounceOwnership()": "infinite",
						"symbol()": "infinite",
						"totalSupply()": "2477",
						"transfer(address,uint256)": "infinite",
						"transferFrom(address,address,uint256)": "infinite",
						"transferOwnership(address)": "infinite"
					}
				},
				"methodIdentifiers": {
					"allowance(address,address)": "dd62ed3e",
					"approve(address,uint256)": "095ea7b3",
					"balanceOf(address)": "70a08231",
					"decimals()": "313ce567",
					"name()": "06fdde03",
					"owner()": "8da5cb5b",
					"renounceOwnership()": "715018a6",
					"symbol()": "95d89b41",
					"totalSupply()": "18160ddd",
					"transfer(address,uint256)": "a9059cbb",
					"transferFrom(address,address,uint256)": "23b872dd",
					"transferOwnership(address)": "f2fde38b"
				}
			},
			"storageLayout": {
				"storage": [
					{
						"astId": 279,
						"contract": "kcash_flattened.sol:Kcash",
						"label": "_balances",
						"offset": 0,
						"slot": "0",
						"type": "t_mapping(t_address,t_uint256)"
					},
					{
						"astId": 285,
						"contract": "kcash_flattened.sol:Kcash",
						"label": "_allowances",
						"offset": 0,
						"slot": "1",
						"type": "t_mapping(t_address,t_mapping(t_address,t_uint256))"
					},
					{
						"astId": 287,
						"contract": "kcash_flattened.sol:Kcash",
						"label": "_totalSupply",
						"offset": 0,
						"slot": "2",
						"type": "t_uint256"
					},
					{
						"astId": 289,
						"contract": "kcash_flattened.sol:Kcash",
						"label": "_name",
						"offset": 0,
						"slot": "3",
						"type": "t_string_storage"
					},
					{
						"astId": 291,
						"contract": "kcash_flattened.sol:Kcash",
						"label": "_symbol",
						"offset": 0,
						"slot": "4",
						"type": "t_string_storage"
					},
					{
						"astId": 777,
						"contract": "kcash_flattened.sol:Kcash",
						"label": "_owner",
						"offset": 0,
						"slot": "5",
						"type": "t_address"
					}
				],
				"types": {
					"t_address": {
						"encoding": "inplace",
						"label": "address",
						"numberOfBytes": "20"
					},
					"t_mapping(t_address,t_mapping(t_address,t_uint256))": {
						"encoding": "mapping",
						"key": "t_address",
						"label": "mapping(address => mapping(address => uint256))",
						"numberOfBytes": "32",
						"value": "t_mapping(t_address,t_uint256)"
					},
					"t_mapping(t_address,t_uint256)": {
						"encoding": "mapping",
						"key": "t_address",
						"label": "mapping(address => uint256)",
						"numberOfBytes": "32",
						"value": "t_uint256"
					},
					"t_string_storage": {
						"encoding": "bytes",
						"label": "string",
						"numberOfBytes": "32"
					},
					"t_uint256": {
						"encoding": "inplace",
						"label": "uint256",
						"numberOfBytes": "32"
					}
				}
			},
			"userdoc": {
				"kind": "user",
				"methods": {},
				"version": 1
			}
		}
	}
}