{
	"kash_vesting.sol": {
		"KashVestingFactory": {
			"abi": [
				{
					"inputs": [],
					"stateMutability": "nonpayable",
					"type": "constructor"
				},
				{
					"inputs": [],
					"name": "InvalidAddress",
					"type": "error"
				},
				{
					"inputs": [
						{
							"internalType": "address",
							"name": "owner",
							"type": "address"
						}
					],
					"name": "OwnableInvalidOwner",
					"type": "error"
				},
				{
					"inputs": [
						{
							"internalType": "address",
							"name": "account",
							"type": "address"
						}
					],
					"name": "OwnableUnauthorizedAccount",
					"type": "error"
				},
				{
					"anonymous": false,
					"inputs": [
						{
							"indexed": true,
							"internalType": "address",
							"name": "previousOwner",
							"type": "address"
						},
						{
							"indexed": true,
							"internalType": "address",
							"name": "newOwner",
							"type": "address"
						}
					],
					"name": "OwnershipTransferred",
					"type": "event"
				},
				{
					"anonymous": false,
					"inputs": [
						{
							"indexed": true,
							"internalType": "address",
							"name": "wallet",
							"type": "address"
						},
						{
							"indexed": true,
							"internalType": "address",
							"name": "beneficiary",
							"type": "address"
						},
						{
							"indexed": false,
							"internalType": "string",
							"name": "category",
							"type": "string"
						}
					],
					"name": "VestingCreated",
					"type": "event"
				},
				{
					"inputs": [
						{
							"internalType": "address",
							"name": "beneficiary",
							"type": "address"
						},
						{
							"internalType": "uint64",
							"name": "startTimestamp",
							"type": "uint64"
						},
						{
							"internalType": "uint64",
							"name": "durationSeconds",
							"type": "uint64"
						},
						{
							"internalType": "string",
							"name": "category",
							"type": "string"
						}
					],
					"name": "createVesting",
					"outputs": [
						{
							"internalType": "address",
							"name": "",
							"type": "address"
						}
					],
					"stateMutability": "nonpayable",
					"type": "function"
				},
				{
					"inputs": [
						{
							"internalType": "uint256",
							"name": "",
							"type": "uint256"
						}
					],
					"name": "deployedVestings",
					"outputs": [
						{
							"internalType": "address",
							"name": "walletAddress",
							"type": "address"
						},
						{
							"internalType": "address",
							"name": "beneficiary",
							"type": "address"
						},
						{
							"internalType": "string",
							"name": "category",
							"type": "string"
						}
					],
					"stateMutability": "view",
					"type": "function"
				},
				{
					"inputs": [],
					"name": "getVestingCount",
					"outputs": [
						{
							"internalType": "uint256",
							"name": "",
							"type": "uint256"
						}
					],
					"stateMutability": "view",
					"type": "function"
				},
				{
					"inputs": [
						{
							"internalType": "uint256",
							"name": "index",
							"type": "uint256"
						}
					],
					"name": "getVestingInfo",
					"outputs": [
						{
							"components": [
								{
									"internalType": "address",
									"name": "walletAddress",
									"type": "address"
								},
								{
									"internalType": "address",
									"name": "beneficiary",
									"type": "address"
								},
								{
									"internalType": "string",
									"name": "category",
									"type": "string"
								}
							],
							"internalType": "struct KashVestingFactory.VestingInfo",
							"name": "",
							"type": "tuple"
						}
					],
					"stateMutability": "view",
					"type": "function"
				},
				{
					"inputs": [],
					"name": "owner",
					"outputs": [
						{
							"internalType": "address",
							"name": "",
							"type": "address"
						}
					],
					"stateMutability": "view",
					"type": "function"
				},
				{
					"inputs": [],
					"name": "renounceOwnership",
					"outputs": [],
					"stateMutability": "nonpayable",
					"type": "function"
				},
				{
					"inputs": [
						{
							"internalType": "address",
							"name": "newOwner",
							"type": "address"
						}
					],
					"name": "transferOwnership",
					"outputs": [],
					"stateMutability": "nonpayable",
					"type": "function"
				}
			],
			"devdoc": {
				"errors": {
					"OwnableInvalidOwner(address)": [
						{
							"details": "The owner is not a valid owner account. (eg. `address(0)`)"
						}
					],
					"OwnableUnauthorizedAccount(address)": [
						{
							"details": "The caller account is not authorized to perform an operation."
						}
					]
				},
				"kind": "dev",
				"methods": {
					"owner()": {
						"details": "Returns the address of the current owner."
					},
					"renounceOwnership()": {
						"details": "Leaves the contract without owner. It will not be possible to call `onlyOwner` functions. Can only be called by the current owner. NOTE: Renouncing ownership will leave the contract without an owner, thereby disabling any functionality that is only available to the owner."
					},
					"transferOwnership(address)": {
						"details": "Transfers ownership of the contract to a new account (`newOwner`). Can only be called by the current owner."
					}
				},
				"version": 1
			},
			"evm": {
				"assembly": "    /* \"kash_vesting.sol\":519:2208  contract KashVestingFactory is Ownable {... */\n  mstore(0x40, 0x80)\n    /* \"kash_vesting.sol\":972:1008  constructor() Ownable(msg.sender) {} */\n  callvalue\n  dup1\n  iszero\n  tag_1\n  jumpi\n  revert(0x00, 0x00)\ntag_1:\n  pop\n    /* \"kash_vesting.sol\":994:1004  msg.sender */\n  caller\n    /* \"@openzeppelin/contracts/access/Ownable.sol\":1297:1298  0 */\n  0x00\n    /* \"@openzeppelin/contracts/access/Ownable.sol\":1273:1299  initialOwner == address(0) */\n  0xffffffffffffffffffffffffffffffffffffffff\n  and\n    /* \"@openzeppelin/contracts/access/Ownable.sol\":1273:1285  initialOwner */\n  dup2\n    /* \"@openzeppelin/contracts/access/Ownable.sol\":1273:1299  initialOwner == address(0) */\n  0xffffffffffffffffffffffffffffffffffffffff\n  and\n  sub\n    /* \"@openzeppelin/contracts/access/Ownable.sol\":1269:1364  if (initialOwner == address(0)) {... */\n  tag_5\n  jumpi\n    /* \"@openzeppelin/contracts/access/Ownable.sol\":1350:1351  0 */\n  0x00\n    /* \"@openzeppelin/contracts/access/Ownable.sol\":1322:1353  OwnableInvalidOwner(address(0)) */\n  mload(0x40)\n  0x1e4fbdf700000000000000000000000000000000000000000000000000000000\n  dup2\n  mstore\n  0x04\n  add\n  tag_6\n  swap2\n  swap1\n  tag_7\n  jump\t// in\ntag_6:\n  mload(0x40)\n  dup1\n  swap2\n  sub\n  swap1\n  revert\n    /* \"@openzeppelin/contracts/access/Ownable.sol\":1269:1364  if (initialOwner == address(0)) {... */\ntag_5:\n    /* \"@openzeppelin/contracts/access/Ownable.sol\":1373:1405  _transferOwnership(initialOwner) */\n  tag_8\n    /* \"@openzeppelin/contracts/access/Ownable.sol\":1392:1404  initialOwner */\n  dup2\n    /* \"@openzeppelin/contracts/access/Ownable.sol\":1373:1391  _transferOwnership */\n  shl(0x20, tag_9)\n    /* \"@openzeppelin/contracts/access/Ownable.sol\":1373:1405  _transferOwnership(initialOwner) */\n  0x20\n  shr\n  jump\t// in\ntag_8:\n    /* \"@openzeppelin/contracts/access/Ownable.sol\":1225:1412  constructor(address initialOwner) {... */\n  pop\n    /* \"kash_vesting.sol\":519:2208  contract KashVestingFactory is Ownable {... */\n  jump(tag_11)\n    /* \"@openzeppelin/contracts/access/Ownable.sol\":2912:3099  function _transferOwnership(address newOwner) internal virtual {... */\ntag_9:\n    /* \"@openzeppelin/contracts/access/Ownable.sol\":2985:3001  address oldOwner */\n  0x00\n    /* \"@openzeppelin/contracts/access/Ownable.sol\":3004:3010  _owner */\n  0x00\n  0x00\n  swap1\n  sload\n  swap1\n  0x0100\n  exp\n  swap1\n  div\n  0xffffffffffffffffffffffffffffffffffffffff\n  and\n    /* \"@openzeppelin/contracts/access/Ownable.sol\":2985:3010  address oldOwner = _owner */\n  swap1\n  pop\n    /* \"@openzeppelin/contracts/access/Ownable.sol\":3029:3037  newOwner */\n  dup2\n    /* \"@openzeppelin/contracts/access/Ownable.sol\":3020:3026  _owner */\n  0x00\n  0x00\n    /* \"@openzeppelin/contracts/access/Ownable.sol\":3020:3037  _owner = newOwner */\n  0x0100\n  exp\n  dup2\n  sload\n  dup2\n  0xffffffffffffffffffffffffffffffffffffffff\n  mul\n  not\n  and\n  swap1\n  dup4\n  0xffffffffffffffffffffffffffffffffffffffff\n  and\n  mul\n  or\n  swap1\n  sstore\n  pop\n    /* \"@openzeppelin/contracts/access/Ownable.sol\":3083:3091  newOwner */\n  dup2\n    /* \"@openzeppelin/contracts/access/Ownable.sol\":3052:3092  OwnershipTransferred(oldOwner, newOwner) */\n  0xffffffffffffffffffffffffffffffffffffffff\n  and\n    /* \"@openzeppelin/contracts/access/Ownable.sol\":3073:3081  oldOwner */\n  dup2\n    /* \"@openzeppelin/contracts/access/Ownable.sol\":3052:3092  OwnershipTransferred(oldOwner, newOwner) */\n  0xffffffffffffffffffffffffffffffffffffffff\n  and\n  0x8be0079c531659141344cd1fd0a4f28419497f9722a3daafe3b4186f6b6457e0\n  mload(0x40)\n  mload(0x40)\n  dup1\n  swap2\n  sub\n  swap1\n  log3\n    /* \"@openzeppelin/contracts/access/Ownable.sol\":2975:3099  {... */\n  pop\n    /* \"@openzeppelin/contracts/access/Ownable.sol\":2912:3099  function _transferOwnership(address newOwner) internal virtual {... */\n  pop\n  jump\t// out\n    /* \"#utility.yul\":7:133   */\ntag_13:\n    /* \"#utility.yul\":44:51   */\n  0x00\n    /* \"#utility.yul\":84:126   */\n  0xffffffffffffffffffffffffffffffffffffffff\n    /* \"#utility.yul\":77:82   */\n  dup3\n    /* \"#utility.yul\":73:127   */\n  and\n    /* \"#utility.yul\":62:127   */\n  swap1\n  pop\n    /* \"#utility.yul\":7:133   */\n  swap2\n  swap1\n  pop\n  jump\t// out\n    /* \"#utility.yul\":139:235   */\ntag_14:\n    /* \"#utility.yul\":176:183   */\n  0x00\n    /* \"#utility.yul\":205:229   */\n  tag_19\n    /* \"#utility.yul\":223:228   */\n  dup3\n    /* \"#utility.yul\":205:229   */\n  tag_13\n  jump\t// in\ntag_19:\n    /* \"#utility.yul\":194:229   */\n  swap1\n  pop\n    /* \"#utility.yul\":139:235   */\n  swap2\n  swap1\n  pop\n  jump\t// out\n    /* \"#utility.yul\":241:359   */\ntag_15:\n    /* \"#utility.yul\":328:352   */\n  tag_21\n    /* \"#utility.yul\":346:351   */\n  dup2\n    /* \"#utility.yul\":328:352   */\n  tag_14\n  jump\t// in\ntag_21:\n    /* \"#utility.yul\":323:326   */\n  dup3\n    /* \"#utility.yul\":316:353   */\n  mstore\n    /* \"#utility.yul\":241:359   */\n  pop\n  pop\n  jump\t// out\n    /* \"#utility.yul\":365:587   */\ntag_7:\n    /* \"#utility.yul\":458:462   */\n  0x00\n    /* \"#utility.yul\":496:498   */\n  0x20\n    /* \"#utility.yul\":485:494   */\n  dup3\n    /* \"#utility.yul\":481:499   */\n  add\n    /* \"#utility.yul\":473:499   */\n  swap1\n  pop\n    /* \"#utility.yul\":509:580   */\n  tag_23\n    /* \"#utility.yul\":577:578   */\n  0x00\n    /* \"#utility.yul\":566:575   */\n  dup4\n    /* \"#utility.yul\":562:579   */\n  add\n    /* \"#utility.yul\":553:559   */\n  dup5\n    /* \"#utility.yul\":509:580   */\n  tag_15\n  jump\t// in\ntag_23:\n    /* \"#utility.yul\":365:587   */\n  swap3\n  swap2\n  pop\n  pop\n  jump\t// out\n    /* \"kash_vesting.sol\":519:2208  contract KashVestingFactory is Ownable {... */\ntag_11:\n  dataSize(sub_0)\n  dup1\n  dataOffset(sub_0)\n  0x00\n  codecopy\n  0x00\n  return\nstop\n\nsub_0: assembly {\n        /* \"kash_vesting.sol\":519:2208  contract KashVestingFactory is Ownable {... */\n      mstore(0x40, 0x80)\n      callvalue\n      dup1\n      iszero\n      tag_1\n      jumpi\n      revert(0x00, 0x00)\n    tag_1:\n      pop\n      jumpi(tag_2, lt(calldatasize, 0x04))\n      shr(0xe0, calldataload(0x00))\n      dup1\n      0x715018a6\n      gt\n      tag_10\n      jumpi\n      dup1\n      0x715018a6\n      eq\n      tag_6\n      jumpi\n      dup1\n      0x8da5cb5b\n      eq\n      tag_7\n      jumpi\n      dup1\n      0xedb5f73e\n      eq\n      tag_8\n      jumpi\n      dup1\n      0xf2fde38b\n      eq\n      tag_9\n      jumpi\n      jump(tag_2)\n    tag_10:\n      dup1\n      0x0e246273\n      eq\n      tag_3\n      jumpi\n      dup1\n      0x20f6b0a9\n      eq\n      tag_4\n      jumpi\n      dup1\n      0x36ac4aa8\n      eq\n      tag_5\n      jumpi\n    tag_2:\n      revert(0x00, 0x00)\n        /* \"kash_vesting.sol\":1798:1902  function getVestingCount() public view returns (uint256) {... */\n    tag_3:\n      tag_11\n      tag_12\n      jump\t// in\n    tag_11:\n      mload(0x40)\n      tag_13\n      swap2\n      swap1\n      tag_14\n      jump\t// in\n    tag_13:\n      mload(0x40)\n      dup1\n      swap2\n      sub\n      swap1\n      return\n        /* \"kash_vesting.sol\":2079:2206  function getVestingInfo(uint256 index) public view returns (VestingInfo memory) {... */\n    tag_4:\n      tag_15\n      0x04\n      dup1\n      calldatasize\n      sub\n      dup2\n      add\n      swap1\n      tag_16\n      swap2\n      swap1\n      tag_17\n      jump\t// in\n    tag_16:\n      tag_18\n      jump\t// in\n    tag_15:\n      mload(0x40)\n      tag_19\n      swap2\n      swap1\n      tag_20\n      jump\t// in\n    tag_19:\n      mload(0x40)\n      dup1\n      swap2\n      sub\n      swap1\n      return\n        /* \"kash_vesting.sol\":1014:1792  function createVesting(... */\n    tag_5:\n      tag_21\n      0x04\n      dup1\n      calldatasize\n      sub\n      dup2\n      add\n      swap1\n      tag_22\n      swap2\n      swap1\n      tag_23\n      jump\t// in\n    tag_22:\n      tag_24\n      jump\t// in\n    tag_21:\n      mload(0x40)\n      tag_25\n      swap2\n      swap1\n      tag_26\n      jump\t// in\n    tag_25:\n      mload(0x40)\n      dup1\n      swap2\n      sub\n      swap1\n      return\n        /* \"@openzeppelin/contracts/access/Ownable.sol\":2293:2394  function renounceOwnership() public virtual onlyOwner {... */\n    tag_6:\n      tag_27\n      tag_28\n      jump\t// in\n    tag_27:\n      stop\n        /* \"@openzeppelin/contracts/access/Ownable.sol\":1638:1723  function owner() public view virtual returns (address) {... */\n    tag_7:\n      tag_29\n      tag_30\n      jump\t// in\n    tag_29:\n      mload(0x40)\n      tag_31\n      swap2\n      swap1\n      tag_26\n      jump\t// in\n    tag_31:\n      mload(0x40)\n      dup1\n      swap2\n      sub\n      swap1\n      return\n        /* \"kash_vesting.sol\":683:720  VestingInfo[] public deployedVestings */\n    tag_8:\n      tag_32\n      0x04\n      dup1\n      calldatasize\n      sub\n      dup2\n      add\n      swap1\n      tag_33\n      swap2\n      swap1\n      tag_17\n      jump\t// in\n    tag_33:\n      tag_34\n      jump\t// in\n    tag_32:\n      mload(0x40)\n      tag_35\n      swap4\n      swap3\n      swap2\n      swap1\n      tag_36\n      jump\t// in\n    tag_35:\n      mload(0x40)\n      dup1\n      swap2\n      sub\n      swap1\n      return\n        /* \"@openzeppelin/contracts/access/Ownable.sol\":2543:2758  function transferOwnership(address newOwner) public virtual onlyOwner {... */\n    tag_9:\n      tag_37\n      0x04\n      dup1\n      calldatasize\n      sub\n      dup2\n      add\n      swap1\n      tag_38\n      swap2\n      swap1\n      tag_39\n      jump\t// in\n    tag_38:\n      tag_40\n      jump\t// in\n    tag_37:\n      stop\n        /* \"kash_vesting.sol\":1798:1902  function getVestingCount() public view returns (uint256) {... */\n    tag_12:\n        /* \"kash_vesting.sol\":1846:1853  uint256 */\n      0x00\n        /* \"kash_vesting.sol\":1872:1888  deployedVestings */\n      0x01\n        /* \"kash_vesting.sol\":1872:1895  deployedVestings.length */\n      dup1\n      sload\n      swap1\n      pop\n        /* \"kash_vesting.sol\":1865:1895  return deployedVestings.length */\n      swap1\n      pop\n        /* \"kash_vesting.sol\":1798:1902  function getVestingCount() public view returns (uint256) {... */\n      swap1\n      jump\t// out\n        /* \"kash_vesting.sol\":2079:2206  function getVestingInfo(uint256 index) public view returns (VestingInfo memory) {... */\n    tag_18:\n        /* \"kash_vesting.sol\":2139:2157  VestingInfo memory */\n      tag_42\n      tag_43\n      jump\t// in\n    tag_42:\n        /* \"kash_vesting.sol\":2176:2192  deployedVestings */\n      0x01\n        /* \"kash_vesting.sol\":2193:2198  index */\n      dup3\n        /* \"kash_vesting.sol\":2176:2199  deployedVestings[index] */\n      dup2\n      sload\n      dup2\n      lt\n      tag_45\n      jumpi\n      tag_46\n      tag_47\n      jump\t// in\n    tag_46:\n    tag_45:\n      swap1\n      0x00\n      mstore\n      keccak256(0x00, 0x20)\n      swap1\n      0x03\n      mul\n      add\n        /* \"kash_vesting.sol\":2169:2199  return deployedVestings[index] */\n      mload(0x40)\n      dup1\n      0x60\n      add\n      0x40\n      mstore\n      swap1\n      dup2\n      0x00\n      dup3\n      add\n      0x00\n      swap1\n      sload\n      swap1\n      0x0100\n      exp\n      swap1\n      div\n      0xffffffffffffffffffffffffffffffffffffffff\n      and\n      0xffffffffffffffffffffffffffffffffffffffff\n      and\n      0xffffffffffffffffffffffffffffffffffffffff\n      and\n      dup2\n      mstore\n      0x20\n      add\n      0x01\n      dup3\n      add\n      0x00\n      swap1\n      sload\n      swap1\n      0x0100\n      exp\n      swap1\n      div\n      0xffffffffffffffffffffffffffffffffffffffff\n      and\n      0xffffffffffffffffffffffffffffffffffffffff\n      and\n      0xffffffffffffffffffffffffffffffffffffffff\n      and\n      dup2\n      mstore\n      0x20\n      add\n      0x02\n      dup3\n      add\n      dup1\n      sload\n      tag_49\n      swap1\n      tag_50\n      jump\t// in\n    tag_49:\n      dup1\n      0x1f\n      add\n      0x20\n      dup1\n      swap2\n      div\n      mul\n      0x20\n      add\n      mload(0x40)\n      swap1\n      dup2\n      add\n      0x40\n      mstore\n      dup1\n      swap3\n      swap2\n      swap1\n      dup2\n      dup2\n      mstore\n      0x20\n      add\n      dup3\n      dup1\n      sload\n      tag_51\n      swap1\n      tag_50\n      jump\t// in\n    tag_51:\n      dup1\n      iszero\n      tag_52\n      jumpi\n      dup1\n      0x1f\n      lt\n      tag_53\n      jumpi\n      0x0100\n      dup1\n      dup4\n      sload\n      div\n      mul\n      dup4\n      mstore\n      swap2\n      0x20\n      add\n      swap2\n      jump(tag_52)\n    tag_53:\n      dup3\n      add\n      swap2\n      swap1\n      0x00\n      mstore\n      keccak256(0x00, 0x20)\n      swap1\n    tag_54:\n      dup2\n      sload\n      dup2\n      mstore\n      swap1\n      0x01\n      add\n      swap1\n      0x20\n      add\n      dup1\n      dup4\n      gt\n      tag_54\n      jumpi\n      dup3\n      swap1\n      sub\n      0x1f\n      and\n      dup3\n      add\n      swap2\n    tag_52:\n      pop\n      pop\n      pop\n      pop\n      pop\n      dup2\n      mstore\n      pop\n      pop\n      swap1\n      pop\n        /* \"kash_vesting.sol\":2079:2206  function getVestingInfo(uint256 index) public view returns (VestingInfo memory) {... */\n      swap2\n      swap1\n      pop\n      jump\t// out\n        /* \"kash_vesting.sol\":1014:1792  function createVesting(... */\n    tag_24:\n        /* \"kash_vesting.sol\":1193:1200  address */\n      0x00\n        /* \"@openzeppelin/contracts/access/Ownable.sol\":1531:1544  _checkOwner() */\n      tag_56\n        /* \"@openzeppelin/contracts/access/Ownable.sol\":1531:1542  _checkOwner */\n      tag_57\n        /* \"@openzeppelin/contracts/access/Ownable.sol\":1531:1544  _checkOwner() */\n      jump\t// in\n    tag_56:\n        /* \"kash_vesting.sol\":1294:1295  0 */\n      0x00\n        /* \"kash_vesting.sol\":1271:1296  beneficiary == address(0) */\n      0xffffffffffffffffffffffffffffffffffffffff\n      and\n        /* \"kash_vesting.sol\":1271:1282  beneficiary */\n      dup6\n        /* \"kash_vesting.sol\":1271:1296  beneficiary == address(0) */\n      0xffffffffffffffffffffffffffffffffffffffff\n      and\n      sub\n        /* \"kash_vesting.sol\":1267:1346  if (beneficiary == address(0)) {... */\n      tag_59\n      jumpi\n        /* \"kash_vesting.sol\":1319:1335  InvalidAddress() */\n      mload(0x40)\n      0xe6c4247b00000000000000000000000000000000000000000000000000000000\n      dup2\n      mstore\n      0x04\n      add\n      mload(0x40)\n      dup1\n      swap2\n      sub\n      swap1\n      revert\n        /* \"kash_vesting.sol\":1267:1346  if (beneficiary == address(0)) {... */\n    tag_59:\n        /* \"kash_vesting.sol\":1356:1384  KashVestingWallet newVesting */\n      0x00\n        /* \"kash_vesting.sol\":1422:1433  beneficiary */\n      dup6\n        /* \"kash_vesting.sol\":1447:1461  startTimestamp */\n      dup6\n        /* \"kash_vesting.sol\":1475:1490  durationSeconds */\n      dup6\n        /* \"kash_vesting.sol\":1387:1500  new KashVestingWallet(... */\n      mload(0x40)\n      tag_60\n      swap1\n      tag_61\n      jump\t// in\n    tag_60:\n      tag_62\n      swap4\n      swap3\n      swap2\n      swap1\n      tag_63\n      jump\t// in\n    tag_62:\n      mload(0x40)\n      dup1\n      swap2\n      sub\n      swap1\n      0x00\n      create\n      dup1\n      iszero\n      dup1\n      iszero\n      tag_64\n      jumpi\n      returndatacopy(0x00, 0x00, returndatasize)\n      revert(0x00, returndatasize)\n    tag_64:\n      pop\n        /* \"kash_vesting.sol\":1356:1500  KashVestingWallet newVesting = new KashVestingWallet(... */\n      swap1\n      pop\n        /* \"kash_vesting.sol\":1511:1527  deployedVestings */\n      0x01\n        /* \"kash_vesting.sol\":1533:1674  VestingInfo({... */\n      mload(0x40)\n      dup1\n      0x60\n      add\n      0x40\n      mstore\n      dup1\n        /* \"kash_vesting.sol\":1582:1592  newVesting */\n      dup4\n        /* \"kash_vesting.sol\":1533:1674  VestingInfo({... */\n      0xffffffffffffffffffffffffffffffffffffffff\n      and\n      dup2\n      mstore\n      0x20\n      add\n        /* \"kash_vesting.sol\":1620:1631  beneficiary */\n      dup9\n        /* \"kash_vesting.sol\":1533:1674  VestingInfo({... */\n      0xffffffffffffffffffffffffffffffffffffffff\n      and\n      dup2\n      mstore\n      0x20\n      add\n        /* \"kash_vesting.sol\":1655:1663  category */\n      dup6\n        /* \"kash_vesting.sol\":1533:1674  VestingInfo({... */\n      dup2\n      mstore\n      pop\n        /* \"kash_vesting.sol\":1511:1675  deployedVestings.push(VestingInfo({... */\n      swap1\n      dup1\n      0x01\n      dup2\n      sload\n      add\n      dup1\n      dup3\n      sstore\n      dup1\n      swap2\n      pop\n      pop\n      0x01\n      swap1\n      sub\n      swap1\n      0x00\n      mstore\n      keccak256(0x00, 0x20)\n      swap1\n      0x03\n      mul\n      add\n      0x00\n      swap1\n      swap2\n      swap1\n      swap2\n      swap1\n      swap2\n      pop\n      0x00\n      dup3\n      add\n      mload\n      dup2\n      0x00\n      add\n      exp(0x0100, 0x00)\n      dup2\n      sload\n      dup2\n      0xffffffffffffffffffffffffffffffffffffffff\n      mul\n      not\n      and\n      swap1\n      dup4\n      0xffffffffffffffffffffffffffffffffffffffff\n      and\n      mul\n      or\n      swap1\n      sstore\n      pop\n      0x20\n      dup3\n      add\n      mload\n      dup2\n      0x01\n      add\n      exp(0x0100, 0x00)\n      dup2\n      sload\n      dup2\n      0xffffffffffffffffffffffffffffffffffffffff\n      mul\n      not\n      and\n      swap1\n      dup4\n      0xffffffffffffffffffffffffffffffffffffffff\n      and\n      mul\n      or\n      swap1\n      sstore\n      pop\n      0x40\n      dup3\n      add\n      mload\n      dup2\n      0x02\n      add\n      swap1\n      dup2\n      tag_66\n      swap2\n      swap1\n      tag_67\n      jump\t// in\n    tag_66:\n      pop\n      pop\n      pop\n        /* \"kash_vesting.sol\":1727:1738  beneficiary */\n      dup6\n        /* \"kash_vesting.sol\":1691:1749  VestingCreated(address(newVesting), beneficiary, category) */\n      0xffffffffffffffffffffffffffffffffffffffff\n      and\n        /* \"kash_vesting.sol\":1714:1724  newVesting */\n      dup2\n        /* \"kash_vesting.sol\":1691:1749  VestingCreated(address(newVesting), beneficiary, category) */\n      0xffffffffffffffffffffffffffffffffffffffff\n      and\n      0x0ed38ef660e9abb113e06fb77981812e01a5691e845ee7aefa7ac2e94463648d\n        /* \"kash_vesting.sol\":1740:1748  category */\n      dup6\n        /* \"kash_vesting.sol\":1691:1749  VestingCreated(address(newVesting), beneficiary, category) */\n      mload(0x40)\n      tag_68\n      swap2\n      swap1\n      tag_69\n      jump\t// in\n    tag_68:\n      mload(0x40)\n      dup1\n      swap2\n      sub\n      swap1\n      log3\n        /* \"kash_vesting.sol\":1774:1784  newVesting */\n      dup1\n        /* \"kash_vesting.sol\":1759:1785  return address(newVesting) */\n      swap2\n      pop\n      pop\n        /* \"kash_vesting.sol\":1014:1792  function createVesting(... */\n      swap5\n      swap4\n      pop\n      pop\n      pop\n      pop\n      jump\t// out\n        /* \"@openzeppelin/contracts/access/Ownable.sol\":2293:2394  function renounceOwnership() public virtual onlyOwner {... */\n    tag_28:\n        /* \"@openzeppelin/contracts/access/Ownable.sol\":1531:1544  _checkOwner() */\n      tag_71\n        /* \"@openzeppelin/contracts/access/Ownable.sol\":1531:1542  _checkOwner */\n      tag_57\n        /* \"@openzeppelin/contracts/access/Ownable.sol\":1531:1544  _checkOwner() */\n      jump\t// in\n    tag_71:\n        /* \"@openzeppelin/contracts/access/Ownable.sol\":2357:2387  _transferOwnership(address(0)) */\n      tag_73\n        /* \"@openzeppelin/contracts/access/Ownable.sol\":2384:2385  0 */\n      0x00\n        /* \"@openzeppelin/contracts/access/Ownable.sol\":2357:2375  _transferOwnership */\n      tag_74\n        /* \"@openzeppelin/contracts/access/Ownable.sol\":2357:2387  _transferOwnership(address(0)) */\n      jump\t// in\n    tag_73:\n        /* \"@openzeppelin/contracts/access/Ownable.sol\":2293:2394  function renounceOwnership() public virtual onlyOwner {... */\n      jump\t// out\n        /* \"@openzeppelin/contracts/access/Ownable.sol\":1638:1723  function owner() public view virtual returns (address) {... */\n    tag_30:\n        /* \"@openzeppelin/contracts/access/Ownable.sol\":1684:1691  address */\n      0x00\n        /* \"@openzeppelin/contracts/access/Ownable.sol\":1710:1716  _owner */\n      0x00\n      0x00\n      swap1\n      sload\n      swap1\n      0x0100\n      exp\n      swap1\n      div\n      0xffffffffffffffffffffffffffffffffffffffff\n      and\n        /* \"@openzeppelin/contracts/access/Ownable.sol\":1703:1716  return _owner */\n      swap1\n      pop\n        /* \"@openzeppelin/contracts/access/Ownable.sol\":1638:1723  function owner() public view virtual returns (address) {... */\n      swap1\n      jump\t// out\n        /* \"kash_vesting.sol\":683:720  VestingInfo[] public deployedVestings */\n    tag_34:\n      0x01\n      dup2\n      dup2\n      sload\n      dup2\n      lt\n      tag_76\n      jumpi\n      0x00\n      dup1\n      revert\n    tag_76:\n      swap1\n      0x00\n      mstore\n      keccak256(0x00, 0x20)\n      swap1\n      0x03\n      mul\n      add\n      0x00\n      swap2\n      pop\n      swap1\n      pop\n      dup1\n      0x00\n      add\n      0x00\n      swap1\n      sload\n      swap1\n      0x0100\n      exp\n      swap1\n      div\n      0xffffffffffffffffffffffffffffffffffffffff\n      and\n      swap1\n      dup1\n      0x01\n      add\n      0x00\n      swap1\n      sload\n      swap1\n      0x0100\n      exp\n      swap1\n      div\n      0xffffffffffffffffffffffffffffffffffffffff\n      and\n      swap1\n      dup1\n      0x02\n      add\n      dup1\n      sload\n      tag_78\n      swap1\n      tag_50\n      jump\t// in\n    tag_78:\n      dup1\n      0x1f\n      add\n      0x20\n      dup1\n      swap2\n      div\n      mul\n      0x20\n      add\n      mload(0x40)\n      swap1\n      dup2\n      add\n      0x40\n      mstore\n      dup1\n      swap3\n      swap2\n      swap1\n      dup2\n      dup2\n      mstore\n      0x20\n      add\n      dup3\n      dup1\n      sload\n      tag_79\n      swap1\n      tag_50\n      jump\t// in\n    tag_79:\n      dup1\n      iszero\n      tag_80\n      jumpi\n      dup1\n      0x1f\n      lt\n      tag_81\n      jumpi\n      0x0100\n      dup1\n      dup4\n      sload\n      div\n      mul\n      dup4\n      mstore\n      swap2\n      0x20\n      add\n      swap2\n      jump(tag_80)\n    tag_81:\n      dup3\n      add\n      swap2\n      swap1\n      0x00\n      mstore\n      keccak256(0x00, 0x20)\n      swap1\n    tag_82:\n      dup2\n      sload\n      dup2\n      mstore\n      swap1\n      0x01\n      add\n      swap1\n      0x20\n      add\n      dup1\n      dup4\n      gt\n      tag_82\n      jumpi\n      dup3\n      swap1\n      sub\n      0x1f\n      and\n      dup3\n      add\n      swap2\n    tag_80:\n      pop\n      pop\n      pop\n      pop\n      pop\n      swap1\n      pop\n      dup4\n      jump\t// out\n        /* \"@openzeppelin/contracts/access/Ownable.sol\":2543:2758  function transferOwnership(address newOwner) public virtual onlyOwner {... */\n    tag_40:\n        /* \"@openzeppelin/contracts/access/Ownable.sol\":1531:1544  _checkOwner() */\n      tag_84\n        /* \"@openzeppelin/contracts/access/Ownable.sol\":1531:1542  _checkOwner */\n      tag_57\n        /* \"@openzeppelin/contracts/access/Ownable.sol\":1531:1544  _checkOwner() */\n      jump\t// in\n    tag_84:\n        /* \"@openzeppelin/contracts/access/Ownable.sol\":2647:2648  0 */\n      0x00\n        /* \"@openzeppelin/contracts/access/Ownable.sol\":2627:2649  newOwner == address(0) */\n      0xffffffffffffffffffffffffffffffffffffffff\n      and\n        /* \"@openzeppelin/contracts/access/Ownable.sol\":2627:2635  newOwner */\n      dup2\n        /* \"@openzeppelin/contracts/access/Ownable.sol\":2627:2649  newOwner == address(0) */\n      0xffffffffffffffffffffffffffffffffffffffff\n      and\n      sub\n        /* \"@openzeppelin/contracts/access/Ownable.sol\":2623:2714  if (newOwner == address(0)) {... */\n      tag_86\n      jumpi\n        /* \"@openzeppelin/contracts/access/Ownable.sol\":2700:2701  0 */\n      0x00\n        /* \"@openzeppelin/contracts/access/Ownable.sol\":2672:2703  OwnableInvalidOwner(address(0)) */\n      mload(0x40)\n      0x1e4fbdf700000000000000000000000000000000000000000000000000000000\n      dup2\n      mstore\n      0x04\n      add\n      tag_87\n      swap2\n      swap1\n      tag_26\n      jump\t// in\n    tag_87:\n      mload(0x40)\n      dup1\n      swap2\n      sub\n      swap1\n      revert\n        /* \"@openzeppelin/contracts/access/Ownable.sol\":2623:2714  if (newOwner == address(0)) {... */\n    tag_86:\n        /* \"@openzeppelin/contracts/access/Ownable.sol\":2723:2751  _transferOwnership(newOwner) */\n      tag_88\n        /* \"@openzeppelin/contracts/access/Ownable.sol\":2742:2750  newOwner */\n      dup2\n        /* \"@openzeppelin/contracts/access/Ownable.sol\":2723:2741  _transferOwnership */\n      tag_74\n        /* \"@openzeppelin/contracts/access/Ownable.sol\":2723:2751  _transferOwnership(newOwner) */\n      jump\t// in\n    tag_88:\n        /* \"@openzeppelin/contracts/access/Ownable.sol\":2543:2758  function transferOwnership(address newOwner) public virtual onlyOwner {... */\n      pop\n      jump\t// out\n        /* \"@openzeppelin/contracts/access/Ownable.sol\":1796:1958  function _checkOwner() internal view virtual {... */\n    tag_57:\n        /* \"@openzeppelin/contracts/access/Ownable.sol\":1866:1878  _msgSender() */\n      tag_90\n        /* \"@openzeppelin/contracts/access/Ownable.sol\":1866:1876  _msgSender */\n      tag_91\n        /* \"@openzeppelin/contracts/access/Ownable.sol\":1866:1878  _msgSender() */\n      jump\t// in\n    tag_90:\n        /* \"@openzeppelin/contracts/access/Ownable.sol\":1855:1878  owner() != _msgSender() */\n      0xffffffffffffffffffffffffffffffffffffffff\n      and\n        /* \"@openzeppelin/contracts/access/Ownable.sol\":1855:1862  owner() */\n      tag_92\n        /* \"@openzeppelin/contracts/access/Ownable.sol\":1855:1860  owner */\n      tag_30\n        /* \"@openzeppelin/contracts/access/Ownable.sol\":1855:1862  owner() */\n      jump\t// in\n    tag_92:\n        /* \"@openzeppelin/contracts/access/Ownable.sol\":1855:1878  owner() != _msgSender() */\n      0xffffffffffffffffffffffffffffffffffffffff\n      and\n      eq\n        /* \"@openzeppelin/contracts/access/Ownable.sol\":1851:1952  if (owner() != _msgSender()) {... */\n      tag_93\n      jumpi\n        /* \"@openzeppelin/contracts/access/Ownable.sol\":1928:1940  _msgSender() */\n      tag_94\n        /* \"@openzeppelin/contracts/access/Ownable.sol\":1928:1938  _msgSender */\n      tag_91\n        /* \"@openzeppelin/contracts/access/Ownable.sol\":1928:1940  _msgSender() */\n      jump\t// in\n    tag_94:\n        /* \"@openzeppelin/contracts/access/Ownable.sol\":1901:1941  OwnableUnauthorizedAccount(_msgSender()) */\n      mload(0x40)\n      0x118cdaa700000000000000000000000000000000000000000000000000000000\n      dup2\n      mstore\n      0x04\n      add\n      tag_95\n      swap2\n      swap1\n      tag_26\n      jump\t// in\n    tag_95:\n      mload(0x40)\n      dup1\n      swap2\n      sub\n      swap1\n      revert\n        /* \"@openzeppelin/contracts/access/Ownable.sol\":1851:1952  if (owner() != _msgSender()) {... */\n    tag_93:\n        /* \"@openzeppelin/contracts/access/Ownable.sol\":1796:1958  function _checkOwner() internal view virtual {... */\n      jump\t// out\n        /* \"@openzeppelin/contracts/access/Ownable.sol\":2912:3099  function _transferOwnership(address newOwner) internal virtual {... */\n    tag_74:\n        /* \"@openzeppelin/contracts/access/Ownable.sol\":2985:3001  address oldOwner */\n      0x00\n        /* \"@openzeppelin/contracts/access/Ownable.sol\":3004:3010  _owner */\n      0x00\n      0x00\n      swap1\n      sload\n      swap1\n      0x0100\n      exp\n      swap1\n      div\n      0xffffffffffffffffffffffffffffffffffffffff\n      and\n        /* \"@openzeppelin/contracts/access/Ownable.sol\":2985:3010  address oldOwner = _owner */\n      swap1\n      pop\n        /* \"@openzeppelin/contracts/access/Ownable.sol\":3029:3037  newOwner */\n      dup2\n        /* \"@openzeppelin/contracts/access/Ownable.sol\":3020:3026  _owner */\n      0x00\n      0x00\n        /* \"@openzeppelin/contracts/access/Ownable.sol\":3020:3037  _owner = newOwner */\n      0x0100\n      exp\n      dup2\n      sload\n      dup2\n      0xffffffffffffffffffffffffffffffffffffffff\n      mul\n      not\n      and\n      swap1\n      dup4\n      0xffffffffffffffffffffffffffffffffffffffff\n      and\n      mul\n      or\n      swap1\n      sstore\n      pop\n        /* \"@openzeppelin/contracts/access/Ownable.sol\":3083:3091  newOwner */\n      dup2\n        /* \"@openzeppelin/contracts/access/Ownable.sol\":3052:3092  OwnershipTransferred(oldOwner, newOwner) */\n      0xffffffffffffffffffffffffffffffffffffffff\n      and\n        /* \"@openzeppelin/contracts/access/Ownable.sol\":3073:3081  oldOwner */\n      dup2\n        /* \"@openzeppelin/contracts/access/Ownable.sol\":3052:3092  OwnershipTransferred(oldOwner, newOwner) */\n      0xffffffffffffffffffffffffffffffffffffffff\n      and\n      0x8be0079c531659141344cd1fd0a4f28419497f9722a3daafe3b4186f6b6457e0\n      mload(0x40)\n      mload(0x40)\n      dup1\n      swap2\n      sub\n      swap1\n      log3\n        /* \"@openzeppelin/contracts/access/Ownable.sol\":2975:3099  {... */\n      pop\n        /* \"@openzeppelin/contracts/access/Ownable.sol\":2912:3099  function _transferOwnership(address newOwner) internal virtual {... */\n      pop\n      jump\t// out\n        /* \"@openzeppelin/contracts/utils/Context.sol\":656:752  function _msgSender() internal view virtual returns (address) {... */\n    tag_91:\n        /* \"@openzeppelin/contracts/utils/Context.sol\":709:716  address */\n      0x00\n        /* \"@openzeppelin/contracts/utils/Context.sol\":735:745  msg.sender */\n      caller\n        /* \"@openzeppelin/contracts/utils/Context.sol\":728:745  return msg.sender */\n      swap1\n      pop\n        /* \"@openzeppelin/contracts/utils/Context.sol\":656:752  function _msgSender() internal view virtual returns (address) {... */\n      swap1\n      jump\t// out\n    tag_43:\n      mload(0x40)\n      dup1\n      0x60\n      add\n      0x40\n      mstore\n      dup1\n      and(0xffffffffffffffffffffffffffffffffffffffff, 0x00)\n      dup2\n      mstore\n      0x20\n      add\n      and(0xffffffffffffffffffffffffffffffffffffffff, 0x00)\n      dup2\n      mstore\n      0x20\n      add\n      0x60\n      dup2\n      mstore\n      pop\n      swap1\n      jump\t// out\n    tag_61:\n      dataSize(sub_0)\n      dup1\n      dataOffset(sub_0)\n      dup4\n      codecopy\n      add\n      swap1\n      jump\t// out\n        /* \"#utility.yul\":7:84   */\n    tag_98:\n        /* \"#utility.yul\":44:51   */\n      0x00\n        /* \"#utility.yul\":73:78   */\n      dup2\n        /* \"#utility.yul\":62:78   */\n      swap1\n      pop\n        /* \"#utility.yul\":7:84   */\n      swap2\n      swap1\n      pop\n      jump\t// out\n        /* \"#utility.yul\":90:208   */\n    tag_99:\n        /* \"#utility.yul\":177:201   */\n      tag_151\n        /* \"#utility.yul\":195:200   */\n      dup2\n        /* \"#utility.yul\":177:201   */\n      tag_98\n      jump\t// in\n    tag_151:\n        /* \"#utility.yul\":172:175   */\n      dup3\n        /* \"#utility.yul\":165:202   */\n      mstore\n        /* \"#utility.yul\":90:208   */\n      pop\n      pop\n      jump\t// out\n        /* \"#utility.yul\":214:436   */\n    tag_14:\n        /* \"#utility.yul\":307:311   */\n      0x00\n        /* \"#utility.yul\":345:347   */\n      0x20\n        /* \"#utility.yul\":334:343   */\n      dup3\n        /* \"#utility.yul\":330:348   */\n      add\n        /* \"#utility.yul\":322:348   */\n      swap1\n      pop\n        /* \"#utility.yul\":358:429   */\n      tag_153\n        /* \"#utility.yul\":426:427   */\n      0x00\n        /* \"#utility.yul\":415:424   */\n      dup4\n        /* \"#utility.yul\":411:428   */\n      add\n        /* \"#utility.yul\":402:408   */\n      dup5\n        /* \"#utility.yul\":358:429   */\n      tag_99\n      jump\t// in\n    tag_153:\n        /* \"#utility.yul\":214:436   */\n      swap3\n      swap2\n      pop\n      pop\n      jump\t// out\n        /* \"#utility.yul\":442:517   */\n    tag_100:\n        /* \"#utility.yul\":475:481   */\n      0x00\n        /* \"#utility.yul\":508:510   */\n      0x40\n        /* \"#utility.yul\":502:511   */\n      mload\n        /* \"#utility.yul\":492:511   */\n      swap1\n      pop\n        /* \"#utility.yul\":442:517   */\n      swap1\n      jump\t// out\n        /* \"#utility.yul\":523:640   */\n    tag_101:\n        /* \"#utility.yul\":632:633   */\n      0x00\n        /* \"#utility.yul\":629:630   */\n      0x00\n        /* \"#utility.yul\":622:634   */\n      revert\n        /* \"#utility.yul\":646:763   */\n    tag_102:\n        /* \"#utility.yul\":755:756   */\n      0x00\n        /* \"#utility.yul\":752:753   */\n      0x00\n        /* \"#utility.yul\":745:757   */\n      revert\n        /* \"#utility.yul\":769:891   */\n    tag_103:\n        /* \"#utility.yul\":842:866   */\n      tag_158\n        /* \"#utility.yul\":860:865   */\n      dup2\n        /* \"#utility.yul\":842:866   */\n      tag_98\n      jump\t// in\n    tag_158:\n        /* \"#utility.yul\":835:840   */\n      dup2\n        /* \"#utility.yul\":832:867   */\n      eq\n        /* \"#utility.yul\":822:885   */\n      tag_159\n      jumpi\n        /* \"#utility.yul\":881:882   */\n      0x00\n        /* \"#utility.yul\":878:879   */\n      0x00\n        /* \"#utility.yul\":871:883   */\n      revert\n        /* \"#utility.yul\":822:885   */\n    tag_159:\n        /* \"#utility.yul\":769:891   */\n      pop\n      jump\t// out\n        /* \"#utility.yul\":897:1036   */\n    tag_104:\n        /* \"#utility.yul\":943:948   */\n      0x00\n        /* \"#utility.yul\":981:987   */\n      dup2\n        /* \"#utility.yul\":968:988   */\n      calldataload\n        /* \"#utility.yul\":959:988   */\n      swap1\n      pop\n        /* \"#utility.yul\":997:1030   */\n      tag_161\n        /* \"#utility.yul\":1024:1029   */\n      dup2\n        /* \"#utility.yul\":997:1030   */\n      tag_103\n      jump\t// in\n    tag_161:\n        /* \"#utility.yul\":897:1036   */\n      swap3\n      swap2\n      pop\n      pop\n      jump\t// out\n        /* \"#utility.yul\":1042:1371   */\n    tag_17:\n        /* \"#utility.yul\":1101:1107   */\n      0x00\n        /* \"#utility.yul\":1150:1152   */\n      0x20\n        /* \"#utility.yul\":1138:1147   */\n      dup3\n        /* \"#utility.yul\":1129:1136   */\n      dup5\n        /* \"#utility.yul\":1125:1148   */\n      sub\n        /* \"#utility.yul\":1121:1153   */\n      slt\n        /* \"#utility.yul\":1118:1237   */\n      iszero\n      tag_163\n      jumpi\n        /* \"#utility.yul\":1156:1235   */\n      tag_164\n      tag_101\n      jump\t// in\n    tag_164:\n        /* \"#utility.yul\":1118:1237   */\n    tag_163:\n        /* \"#utility.yul\":1276:1277   */\n      0x00\n        /* \"#utility.yul\":1301:1354   */\n      tag_165\n        /* \"#utility.yul\":1346:1353   */\n      dup5\n        /* \"#utility.yul\":1337:1343   */\n      dup3\n        /* \"#utility.yul\":1326:1335   */\n      dup6\n        /* \"#utility.yul\":1322:1344   */\n      add\n        /* \"#utility.yul\":1301:1354   */\n      tag_104\n      jump\t// in\n    tag_165:\n        /* \"#utility.yul\":1291:1354   */\n      swap2\n      pop\n        /* \"#utility.yul\":1247:1364   */\n      pop\n        /* \"#utility.yul\":1042:1371   */\n      swap3\n      swap2\n      pop\n      pop\n      jump\t// out\n        /* \"#utility.yul\":1377:1503   */\n    tag_105:\n        /* \"#utility.yul\":1414:1421   */\n      0x00\n        /* \"#utility.yul\":1454:1496   */\n      0xffffffffffffffffffffffffffffffffffffffff\n        /* \"#utility.yul\":1447:1452   */\n      dup3\n        /* \"#utility.yul\":1443:1497   */\n      and\n        /* \"#utility.yul\":1432:1497   */\n      swap1\n      pop\n        /* \"#utility.yul\":1377:1503   */\n      swap2\n      swap1\n      pop\n      jump\t// out\n        /* \"#utility.yul\":1509:1605   */\n    tag_106:\n        /* \"#utility.yul\":1546:1553   */\n      0x00\n        /* \"#utility.yul\":1575:1599   */\n      tag_168\n        /* \"#utility.yul\":1593:1598   */\n      dup3\n        /* \"#utility.yul\":1575:1599   */\n      tag_105\n      jump\t// in\n    tag_168:\n        /* \"#utility.yul\":1564:1599   */\n      swap1\n      pop\n        /* \"#utility.yul\":1509:1605   */\n      swap2\n      swap1\n      pop\n      jump\t// out\n        /* \"#utility.yul\":1611:1719   */\n    tag_107:\n        /* \"#utility.yul\":1688:1712   */\n      tag_170\n        /* \"#utility.yul\":1706:1711   */\n      dup2\n        /* \"#utility.yul\":1688:1712   */\n      tag_106\n      jump\t// in\n    tag_170:\n        /* \"#utility.yul\":1683:1686   */\n      dup3\n        /* \"#utility.yul\":1676:1713   */\n      mstore\n        /* \"#utility.yul\":1611:1719   */\n      pop\n      pop\n      jump\t// out\n        /* \"#utility.yul\":1725:1824   */\n    tag_108:\n        /* \"#utility.yul\":1777:1783   */\n      0x00\n        /* \"#utility.yul\":1811:1816   */\n      dup2\n        /* \"#utility.yul\":1805:1817   */\n      mload\n        /* \"#utility.yul\":1795:1817   */\n      swap1\n      pop\n        /* \"#utility.yul\":1725:1824   */\n      swap2\n      swap1\n      pop\n      jump\t// out\n        /* \"#utility.yul\":1830:1989   */\n    tag_109:\n        /* \"#utility.yul\":1904:1915   */\n      0x00\n        /* \"#utility.yul\":1938:1944   */\n      dup3\n        /* \"#utility.yul\":1933:1936   */\n      dup3\n        /* \"#utility.yul\":1926:1945   */\n      mstore\n        /* \"#utility.yul\":1978:1982   */\n      0x20\n        /* \"#utility.yul\":1973:1976   */\n      dup3\n        /* \"#utility.yul\":1969:1983   */\n      add\n        /* \"#utility.yul\":1954:1983   */\n      swap1\n      pop\n        /* \"#utility.yul\":1830:1989   */\n      swap3\n      swap2\n      pop\n      pop\n      jump\t// out\n        /* \"#utility.yul\":1995:2134   */\n    tag_110:\n        /* \"#utility.yul\":2084:2090   */\n      dup3\n        /* \"#utility.yul\":2079:2082   */\n      dup2\n        /* \"#utility.yul\":2074:2077   */\n      dup4\n        /* \"#utility.yul\":2068:2091   */\n      mcopy\n        /* \"#utility.yul\":2125:2126   */\n      0x00\n        /* \"#utility.yul\":2116:2122   */\n      dup4\n        /* \"#utility.yul\":2111:2114   */\n      dup4\n        /* \"#utility.yul\":2107:2123   */\n      add\n        /* \"#utility.yul\":2100:2127   */\n      mstore\n        /* \"#utility.yul\":1995:2134   */\n      pop\n      pop\n      pop\n      jump\t// out\n        /* \"#utility.yul\":2140:2242   */\n    tag_111:\n        /* \"#utility.yul\":2181:2187   */\n      0x00\n        /* \"#utility.yul\":2232:2234   */\n      0x1f\n        /* \"#utility.yul\":2228:2235   */\n      not\n        /* \"#utility.yul\":2223:2225   */\n      0x1f\n        /* \"#utility.yul\":2216:2221   */\n      dup4\n        /* \"#utility.yul\":2212:2226   */\n      add\n        /* \"#utility.yul\":2208:2236   */\n      and\n        /* \"#utility.yul\":2198:2236   */\n      swap1\n      pop\n        /* \"#utility.yul\":2140:2242   */\n      swap2\n      swap1\n      pop\n      jump\t// out\n        /* \"#utility.yul\":2248:2605   */\n    tag_112:\n        /* \"#utility.yul\":2326:2329   */\n      0x00\n        /* \"#utility.yul\":2354:2393   */\n      tag_176\n        /* \"#utility.yul\":2387:2392   */\n      dup3\n        /* \"#utility.yul\":2354:2393   */\n      tag_108\n      jump\t// in\n    tag_176:\n        /* \"#utility.yul\":2409:2470   */\n      tag_177\n        /* \"#utility.yul\":2463:2469   */\n      dup2\n        /* \"#utility.yul\":2458:2461   */\n      dup6\n        /* \"#utility.yul\":2409:2470   */\n      tag_109\n      jump\t// in\n    tag_177:\n        /* \"#utility.yul\":2402:2470   */\n      swap4\n      pop\n        /* \"#utility.yul\":2479:2544   */\n      tag_178\n        /* \"#utility.yul\":2537:2543   */\n      dup2\n        /* \"#utility.yul\":2532:2535   */\n      dup6\n        /* \"#utility.yul\":2525:2529   */\n      0x20\n        /* \"#utility.yul\":2518:2523   */\n      dup7\n        /* \"#utility.yul\":2514:2530   */\n      add\n        /* \"#utility.yul\":2479:2544   */\n      tag_110\n      jump\t// in\n    tag_178:\n        /* \"#utility.yul\":2569:2598   */\n      tag_179\n        /* \"#utility.yul\":2591:2597   */\n      dup2\n        /* \"#utility.yul\":2569:2598   */\n      tag_111\n      jump\t// in\n    tag_179:\n        /* \"#utility.yul\":2564:2567   */\n      dup5\n        /* \"#utility.yul\":2560:2599   */\n      add\n        /* \"#utility.yul\":2553:2599   */\n      swap2\n      pop\n        /* \"#utility.yul\":2330:2605   */\n      pop\n        /* \"#utility.yul\":2248:2605   */\n      swap3\n      swap2\n      pop\n      pop\n      jump\t// out\n        /* \"#utility.yul\":2697:3505   */\n    tag_113:\n        /* \"#utility.yul\":2824:2827   */\n      0x00\n        /* \"#utility.yul\":2860:2864   */\n      0x60\n        /* \"#utility.yul\":2855:2858   */\n      dup4\n        /* \"#utility.yul\":2851:2865   */\n      add\n        /* \"#utility.yul\":2956:2960   */\n      0x00\n        /* \"#utility.yul\":2949:2954   */\n      dup4\n        /* \"#utility.yul\":2945:2961   */\n      add\n        /* \"#utility.yul\":2939:2962   */\n      mload\n        /* \"#utility.yul\":2975:3038   */\n      tag_181\n        /* \"#utility.yul\":3032:3036   */\n      0x00\n        /* \"#utility.yul\":3027:3030   */\n      dup7\n        /* \"#utility.yul\":3023:3037   */\n      add\n        /* \"#utility.yul\":3009:3021   */\n      dup3\n        /* \"#utility.yul\":2975:3038   */\n      tag_107\n      jump\t// in\n    tag_181:\n        /* \"#utility.yul\":2875:3048   */\n      pop\n        /* \"#utility.yul\":3137:3141   */\n      0x20\n        /* \"#utility.yul\":3130:3135   */\n      dup4\n        /* \"#utility.yul\":3126:3142   */\n      add\n        /* \"#utility.yul\":3120:3143   */\n      mload\n        /* \"#utility.yul\":3156:3219   */\n      tag_182\n        /* \"#utility.yul\":3213:3217   */\n      0x20\n        /* \"#utility.yul\":3208:3211   */\n      dup7\n        /* \"#utility.yul\":3204:3218   */\n      add\n        /* \"#utility.yul\":3190:3202   */\n      dup3\n        /* \"#utility.yul\":3156:3219   */\n      tag_107\n      jump\t// in\n    tag_182:\n        /* \"#utility.yul\":3058:3229   */\n      pop\n        /* \"#utility.yul\":3315:3319   */\n      0x40\n        /* \"#utility.yul\":3308:3313   */\n      dup4\n        /* \"#utility.yul\":3304:3320   */\n      add\n        /* \"#utility.yul\":3298:3321   */\n      mload\n        /* \"#utility.yul\":3368:3371   */\n      dup5\n        /* \"#utility.yul\":3362:3366   */\n      dup3\n        /* \"#utility.yul\":3358:3372   */\n      sub\n        /* \"#utility.yul\":3351:3355   */\n      0x40\n        /* \"#utility.yul\":3346:3349   */\n      dup7\n        /* \"#utility.yul\":3342:3356   */\n      add\n        /* \"#utility.yul\":3335:3373   */\n      mstore\n        /* \"#utility.yul\":3394:3467   */\n      tag_183\n        /* \"#utility.yul\":3462:3466   */\n      dup3\n        /* \"#utility.yul\":3448:3460   */\n      dup3\n        /* \"#utility.yul\":3394:3467   */\n      tag_112\n      jump\t// in\n    tag_183:\n        /* \"#utility.yul\":3386:3467   */\n      swap2\n      pop\n        /* \"#utility.yul\":3239:3478   */\n      pop\n        /* \"#utility.yul\":3495:3499   */\n      dup1\n        /* \"#utility.yul\":3488:3499   */\n      swap2\n      pop\n        /* \"#utility.yul\":2829:3505   */\n      pop\n        /* \"#utility.yul\":2697:3505   */\n      swap3\n      swap2\n      pop\n      pop\n      jump\t// out\n        /* \"#utility.yul\":3511:3900   */\n    tag_20:\n        /* \"#utility.yul\":3662:3666   */\n      0x00\n        /* \"#utility.yul\":3700:3702   */\n      0x20\n        /* \"#utility.yul\":3689:3698   */\n      dup3\n        /* \"#utility.yul\":3685:3703   */\n      add\n        /* \"#utility.yul\":3677:3703   */\n      swap1\n      pop\n        /* \"#utility.yul\":3749:3758   */\n      dup2\n        /* \"#utility.yul\":3743:3747   */\n      dup2\n        /* \"#utility.yul\":3739:3759   */\n      sub\n        /* \"#utility.yul\":3735:3736   */\n      0x00\n        /* \"#utility.yul\":3724:3733   */\n      dup4\n        /* \"#utility.yul\":3720:3737   */\n      add\n        /* \"#utility.yul\":3713:3760   */\n      mstore\n        /* \"#utility.yul\":3777:3893   */\n      tag_185\n        /* \"#utility.yul\":3888:3892   */\n      dup2\n        /* \"#utility.yul\":3879:3885   */\n      dup5\n        /* \"#utility.yul\":3777:3893   */\n      tag_113\n      jump\t// in\n    tag_185:\n        /* \"#utility.yul\":3769:3893   */\n      swap1\n      pop\n        /* \"#utility.yul\":3511:3900   */\n      swap3\n      swap2\n      pop\n      pop\n      jump\t// out\n        /* \"#utility.yul\":3906:4028   */\n    tag_114:\n        /* \"#utility.yul\":3979:4003   */\n      tag_187\n        /* \"#utility.yul\":3997:4002   */\n      dup2\n        /* \"#utility.yul\":3979:4003   */\n      tag_106\n      jump\t// in\n    tag_187:\n        /* \"#utility.yul\":3972:3977   */\n      dup2\n        /* \"#utility.yul\":3969:4004   */\n      eq\n        /* \"#utility.yul\":3959:4022   */\n      tag_188\n      jumpi\n        /* \"#utility.yul\":4018:4019   */\n      0x00\n        /* \"#utility.yul\":4015:4016   */\n      0x00\n        /* \"#utility.yul\":4008:4020   */\n      revert\n        /* \"#utility.yul\":3959:4022   */\n    tag_188:\n        /* \"#utility.yul\":3906:4028   */\n      pop\n      jump\t// out\n        /* \"#utility.yul\":4034:4173   */\n    tag_115:\n        /* \"#utility.yul\":4080:4085   */\n      0x00\n        /* \"#utility.yul\":4118:4124   */\n      dup2\n        /* \"#utility.yul\":4105:4125   */\n      calldataload\n        /* \"#utility.yul\":4096:4125   */\n      swap1\n      pop\n        /* \"#utility.yul\":4134:4167   */\n      tag_190\n        /* \"#utility.yul\":4161:4166   */\n      dup2\n        /* \"#utility.yul\":4134:4167   */\n      tag_114\n      jump\t// in\n    tag_190:\n        /* \"#utility.yul\":4034:4173   */\n      swap3\n      swap2\n      pop\n      pop\n      jump\t// out\n        /* \"#utility.yul\":4179:4280   */\n    tag_116:\n        /* \"#utility.yul\":4215:4222   */\n      0x00\n        /* \"#utility.yul\":4255:4273   */\n      0xffffffffffffffff\n        /* \"#utility.yul\":4248:4253   */\n      dup3\n        /* \"#utility.yul\":4244:4274   */\n      and\n        /* \"#utility.yul\":4233:4274   */\n      swap1\n      pop\n        /* \"#utility.yul\":4179:4280   */\n      swap2\n      swap1\n      pop\n      jump\t// out\n        /* \"#utility.yul\":4286:4406   */\n    tag_117:\n        /* \"#utility.yul\":4358:4381   */\n      tag_193\n        /* \"#utility.yul\":4375:4380   */\n      dup2\n        /* \"#utility.yul\":4358:4381   */\n      tag_116\n      jump\t// in\n    tag_193:\n        /* \"#utility.yul\":4351:4356   */\n      dup2\n        /* \"#utility.yul\":4348:4382   */\n      eq\n        /* \"#utility.yul\":4338:4400   */\n      tag_194\n      jumpi\n        /* \"#utility.yul\":4396:4397   */\n      0x00\n        /* \"#utility.yul\":4393:4394   */\n      0x00\n        /* \"#utility.yul\":4386:4398   */\n      revert\n        /* \"#utility.yul\":4338:4400   */\n    tag_194:\n        /* \"#utility.yul\":4286:4406   */\n      pop\n      jump\t// out\n        /* \"#utility.yul\":4412:4549   */\n    tag_118:\n        /* \"#utility.yul\":4457:4462   */\n      0x00\n        /* \"#utility.yul\":4495:4501   */\n      dup2\n        /* \"#utility.yul\":4482:4502   */\n      calldataload\n        /* \"#utility.yul\":4473:4502   */\n      swap1\n      pop\n        /* \"#utility.yul\":4511:4543   */\n      tag_196\n        /* \"#utility.yul\":4537:4542   */\n      dup2\n        /* \"#utility.yul\":4511:4543   */\n      tag_117\n      jump\t// in\n    tag_196:\n        /* \"#utility.yul\":4412:4549   */\n      swap3\n      swap2\n      pop\n      pop\n      jump\t// out\n        /* \"#utility.yul\":4555:4672   */\n    tag_119:\n        /* \"#utility.yul\":4664:4665   */\n      0x00\n        /* \"#utility.yul\":4661:4662   */\n      0x00\n        /* \"#utility.yul\":4654:4666   */\n      revert\n        /* \"#utility.yul\":4678:4795   */\n    tag_120:\n        /* \"#utility.yul\":4787:4788   */\n      0x00\n        /* \"#utility.yul\":4784:4785   */\n      0x00\n        /* \"#utility.yul\":4777:4789   */\n      revert\n        /* \"#utility.yul\":4801:4981   */\n    tag_121:\n        /* \"#utility.yul\":4849:4926   */\n      0x4e487b7100000000000000000000000000000000000000000000000000000000\n        /* \"#utility.yul\":4846:4847   */\n      0x00\n        /* \"#utility.yul\":4839:4927   */\n      mstore\n        /* \"#utility.yul\":4946:4950   */\n      0x41\n        /* \"#utility.yul\":4943:4944   */\n      0x04\n        /* \"#utility.yul\":4936:4951   */\n      mstore\n        /* \"#utility.yul\":4970:4974   */\n      0x24\n        /* \"#utility.yul\":4967:4968   */\n      0x00\n        /* \"#utility.yul\":4960:4975   */\n      revert\n        /* \"#utility.yul\":4987:5268   */\n    tag_122:\n        /* \"#utility.yul\":5070:5097   */\n      tag_201\n        /* \"#utility.yul\":5092:5096   */\n      dup3\n        /* \"#utility.yul\":5070:5097   */\n      tag_111\n      jump\t// in\n    tag_201:\n        /* \"#utility.yul\":5062:5068   */\n      dup2\n        /* \"#utility.yul\":5058:5098   */\n      add\n        /* \"#utility.yul\":5200:5206   */\n      dup2\n        /* \"#utility.yul\":5188:5198   */\n      dup2\n        /* \"#utility.yul\":5185:5207   */\n      lt\n        /* \"#utility.yul\":5164:5182   */\n      0xffffffffffffffff\n        /* \"#utility.yul\":5152:5162   */\n      dup3\n        /* \"#utility.yul\":5149:5183   */\n      gt\n        /* \"#utility.yul\":5146:5208   */\n      or\n        /* \"#utility.yul\":5143:5231   */\n      iszero\n      tag_202\n      jumpi\n        /* \"#utility.yul\":5211:5229   */\n      tag_203\n      tag_121\n      jump\t// in\n    tag_203:\n        /* \"#utility.yul\":5143:5231   */\n    tag_202:\n        /* \"#utility.yul\":5251:5261   */\n      dup1\n        /* \"#utility.yul\":5247:5249   */\n      0x40\n        /* \"#utility.yul\":5240:5262   */\n      mstore\n        /* \"#utility.yul\":5030:5268   */\n      pop\n        /* \"#utility.yul\":4987:5268   */\n      pop\n      pop\n      jump\t// out\n        /* \"#utility.yul\":5274:5403   */\n    tag_123:\n        /* \"#utility.yul\":5308:5314   */\n      0x00\n        /* \"#utility.yul\":5335:5355   */\n      tag_205\n      tag_100\n      jump\t// in\n    tag_205:\n        /* \"#utility.yul\":5325:5355   */\n      swap1\n      pop\n        /* \"#utility.yul\":5364:5397   */\n      tag_206\n        /* \"#utility.yul\":5392:5396   */\n      dup3\n        /* \"#utility.yul\":5384:5390   */\n      dup3\n        /* \"#utility.yul\":5364:5397   */\n      tag_122\n      jump\t// in\n    tag_206:\n        /* \"#utility.yul\":5274:5403   */\n      swap2\n      swap1\n      pop\n      jump\t// out\n        /* \"#utility.yul\":5409:5717   */\n    tag_124:\n        /* \"#utility.yul\":5471:5475   */\n      0x00\n        /* \"#utility.yul\":5561:5579   */\n      0xffffffffffffffff\n        /* \"#utility.yul\":5553:5559   */\n      dup3\n        /* \"#utility.yul\":5550:5580   */\n      gt\n        /* \"#utility.yul\":5547:5603   */\n      iszero\n      tag_208\n      jumpi\n        /* \"#utility.yul\":5583:5601   */\n      tag_209\n      tag_121\n      jump\t// in\n    tag_209:\n        /* \"#utility.yul\":5547:5603   */\n    tag_208:\n        /* \"#utility.yul\":5621:5650   */\n      tag_210\n        /* \"#utility.yul\":5643:5649   */\n      dup3\n        /* \"#utility.yul\":5621:5650   */\n      tag_111\n      jump\t// in\n    tag_210:\n        /* \"#utility.yul\":5613:5650   */\n      swap1\n      pop\n        /* \"#utility.yul\":5705:5709   */\n      0x20\n        /* \"#utility.yul\":5699:5703   */\n      dup2\n        /* \"#utility.yul\":5695:5710   */\n      add\n        /* \"#utility.yul\":5687:5710   */\n      swap1\n      pop\n        /* \"#utility.yul\":5409:5717   */\n      swap2\n      swap1\n      pop\n      jump\t// out\n        /* \"#utility.yul\":5723:5871   */\n    tag_125:\n        /* \"#utility.yul\":5821:5827   */\n      dup3\n        /* \"#utility.yul\":5816:5819   */\n      dup2\n        /* \"#utility.yul\":5811:5814   */\n      dup4\n        /* \"#utility.yul\":5798:5828   */\n      calldatacopy\n        /* \"#utility.yul\":5862:5863   */\n      0x00\n        /* \"#utility.yul\":5853:5859   */\n      dup4\n        /* \"#utility.yul\":5848:5851   */\n      dup4\n        /* \"#utility.yul\":5844:5860   */\n      add\n        /* \"#utility.yul\":5837:5864   */\n      mstore\n        /* \"#utility.yul\":5723:5871   */\n      pop\n      pop\n      pop\n      jump\t// out\n        /* \"#utility.yul\":5877:6302   */\n    tag_126:\n        /* \"#utility.yul\":5955:5960   */\n      0x00\n        /* \"#utility.yul\":5980:6046   */\n      tag_213\n        /* \"#utility.yul\":5996:6045   */\n      tag_214\n        /* \"#utility.yul\":6038:6044   */\n      dup5\n        /* \"#utility.yul\":5996:6045   */\n      tag_124\n      jump\t// in\n    tag_214:\n        /* \"#utility.yul\":5980:6046   */\n      tag_123\n      jump\t// in\n    tag_213:\n        /* \"#utility.yul\":5971:6046   */\n      swap1\n      pop\n        /* \"#utility.yul\":6069:6075   */\n      dup3\n        /* \"#utility.yul\":6062:6067   */\n      dup2\n        /* \"#utility.yul\":6055:6076   */\n      mstore\n        /* \"#utility.yul\":6107:6111   */\n      0x20\n        /* \"#utility.yul\":6100:6105   */\n      dup2\n        /* \"#utility.yul\":6096:6112   */\n      add\n        /* \"#utility.yul\":6145:6148   */\n      dup5\n        /* \"#utility.yul\":6136:6142   */\n      dup5\n        /* \"#utility.yul\":6131:6134   */\n      dup5\n        /* \"#utility.yul\":6127:6143   */\n      add\n        /* \"#utility.yul\":6124:6149   */\n      gt\n        /* \"#utility.yul\":6121:6233   */\n      iszero\n      tag_215\n      jumpi\n        /* \"#utility.yul\":6152:6231   */\n      tag_216\n      tag_120\n      jump\t// in\n    tag_216:\n        /* \"#utility.yul\":6121:6233   */\n    tag_215:\n        /* \"#utility.yul\":6242:6296   */\n      tag_217\n        /* \"#utility.yul\":6289:6295   */\n      dup5\n        /* \"#utility.yul\":6284:6287   */\n      dup3\n        /* \"#utility.yul\":6279:6282   */\n      dup6\n        /* \"#utility.yul\":6242:6296   */\n      tag_125\n      jump\t// in\n    tag_217:\n        /* \"#utility.yul\":5961:6302   */\n      pop\n        /* \"#utility.yul\":5877:6302   */\n      swap4\n      swap3\n      pop\n      pop\n      pop\n      jump\t// out\n        /* \"#utility.yul\":6322:6662   */\n    tag_127:\n        /* \"#utility.yul\":6378:6383   */\n      0x00\n        /* \"#utility.yul\":6427:6430   */\n      dup3\n        /* \"#utility.yul\":6420:6424   */\n      0x1f\n        /* \"#utility.yul\":6412:6418   */\n      dup4\n        /* \"#utility.yul\":6408:6425   */\n      add\n        /* \"#utility.yul\":6404:6431   */\n      slt\n        /* \"#utility.yul\":6394:6516   */\n      tag_219\n      jumpi\n        /* \"#utility.yul\":6435:6514   */\n      tag_220\n      tag_119\n      jump\t// in\n    tag_220:\n        /* \"#utility.yul\":6394:6516   */\n    tag_219:\n        /* \"#utility.yul\":6552:6558   */\n      dup2\n        /* \"#utility.yul\":6539:6559   */\n      calldataload\n        /* \"#utility.yul\":6577:6656   */\n      tag_221\n        /* \"#utility.yul\":6652:6655   */\n      dup5\n        /* \"#utility.yul\":6644:6650   */\n      dup3\n        /* \"#utility.yul\":6637:6641   */\n      0x20\n        /* \"#utility.yul\":6629:6635   */\n      dup7\n        /* \"#utility.yul\":6625:6642   */\n      add\n        /* \"#utility.yul\":6577:6656   */\n      tag_126\n      jump\t// in\n    tag_221:\n        /* \"#utility.yul\":6568:6656   */\n      swap2\n      pop\n        /* \"#utility.yul\":6384:6662   */\n      pop\n        /* \"#utility.yul\":6322:6662   */\n      swap3\n      swap2\n      pop\n      pop\n      jump\t// out\n        /* \"#utility.yul\":6668:7609   */\n    tag_23:\n        /* \"#utility.yul\":6762:6768   */\n      0x00\n        /* \"#utility.yul\":6770:6776   */\n      0x00\n        /* \"#utility.yul\":6778:6784   */\n      0x00\n        /* \"#utility.yul\":6786:6792   */\n      0x00\n        /* \"#utility.yul\":6835:6838   */\n      0x80\n        /* \"#utility.yul\":6823:6832   */\n      dup6\n        /* \"#utility.yul\":6814:6821   */\n      dup8\n        /* \"#utility.yul\":6810:6833   */\n      sub\n        /* \"#utility.yul\":6806:6839   */\n      slt\n        /* \"#utility.yul\":6803:6923   */\n      iszero\n      tag_223\n      jumpi\n        /* \"#utility.yul\":6842:6921   */\n      tag_224\n      tag_101\n      jump\t// in\n    tag_224:\n        /* \"#utility.yul\":6803:6923   */\n    tag_223:\n        /* \"#utility.yul\":6962:6963   */\n      0x00\n        /* \"#utility.yul\":6987:7040   */\n      tag_225\n        /* \"#utility.yul\":7032:7039   */\n      dup8\n        /* \"#utility.yul\":7023:7029   */\n      dup3\n        /* \"#utility.yul\":7012:7021   */\n      dup9\n        /* \"#utility.yul\":7008:7030   */\n      add\n        /* \"#utility.yul\":6987:7040   */\n      tag_115\n      jump\t// in\n    tag_225:\n        /* \"#utility.yul\":6977:7040   */\n      swap5\n      pop\n        /* \"#utility.yul\":6933:7050   */\n      pop\n        /* \"#utility.yul\":7089:7091   */\n      0x20\n        /* \"#utility.yul\":7115:7167   */\n      tag_226\n        /* \"#utility.yul\":7159:7166   */\n      dup8\n        /* \"#utility.yul\":7150:7156   */\n      dup3\n        /* \"#utility.yul\":7139:7148   */\n      dup9\n        /* \"#utility.yul\":7135:7157   */\n      add\n        /* \"#utility.yul\":7115:7167   */\n      tag_118\n      jump\t// in\n    tag_226:\n        /* \"#utility.yul\":7105:7167   */\n      swap4\n      pop\n        /* \"#utility.yul\":7060:7177   */\n      pop\n        /* \"#utility.yul\":7216:7218   */\n      0x40\n        /* \"#utility.yul\":7242:7294   */\n      tag_227\n        /* \"#utility.yul\":7286:7293   */\n      dup8\n        /* \"#utility.yul\":7277:7283   */\n      dup3\n        /* \"#utility.yul\":7266:7275   */\n      dup9\n        /* \"#utility.yul\":7262:7284   */\n      add\n        /* \"#utility.yul\":7242:7294   */\n      tag_118\n      jump\t// in\n    tag_227:\n        /* \"#utility.yul\":7232:7294   */\n      swap3\n      pop\n        /* \"#utility.yul\":7187:7304   */\n      pop\n        /* \"#utility.yul\":7371:7373   */\n      0x60\n        /* \"#utility.yul\":7360:7369   */\n      dup6\n        /* \"#utility.yul\":7356:7374   */\n      add\n        /* \"#utility.yul\":7343:7375   */\n      calldataload\n        /* \"#utility.yul\":7402:7420   */\n      0xffffffffffffffff\n        /* \"#utility.yul\":7394:7400   */\n      dup2\n        /* \"#utility.yul\":7391:7421   */\n      gt\n        /* \"#utility.yul\":7388:7505   */\n      iszero\n      tag_228\n      jumpi\n        /* \"#utility.yul\":7424:7503   */\n      tag_229\n      tag_102\n      jump\t// in\n    tag_229:\n        /* \"#utility.yul\":7388:7505   */\n    tag_228:\n        /* \"#utility.yul\":7529:7592   */\n      tag_230\n        /* \"#utility.yul\":7584:7591   */\n      dup8\n        /* \"#utility.yul\":7575:7581   */\n      dup3\n        /* \"#utility.yul\":7564:7573   */\n      dup9\n        /* \"#utility.yul\":7560:7582   */\n      add\n        /* \"#utility.yul\":7529:7592   */\n      tag_127\n      jump\t// in\n    tag_230:\n        /* \"#utility.yul\":7519:7592   */\n      swap2\n      pop\n        /* \"#utility.yul\":7314:7602   */\n      pop\n        /* \"#utility.yul\":6668:7609   */\n      swap3\n      swap6\n      swap2\n      swap5\n      pop\n      swap3\n      pop\n      jump\t// out\n        /* \"#utility.yul\":7615:7733   */\n    tag_128:\n        /* \"#utility.yul\":7702:7726   */\n      tag_232\n        /* \"#utility.yul\":7720:7725   */\n      dup2\n        /* \"#utility.yul\":7702:7726   */\n      tag_106\n      jump\t// in\n    tag_232:\n        /* \"#utility.yul\":7697:7700   */\n      dup3\n        /* \"#utility.yul\":7690:7727   */\n      mstore\n        /* \"#utility.yul\":7615:7733   */\n      pop\n      pop\n      jump\t// out\n        /* \"#utility.yul\":7739:7961   */\n    tag_26:\n        /* \"#utility.yul\":7832:7836   */\n      0x00\n        /* \"#utility.yul\":7870:7872   */\n      0x20\n        /* \"#utility.yul\":7859:7868   */\n      dup3\n        /* \"#utility.yul\":7855:7873   */\n      add\n        /* \"#utility.yul\":7847:7873   */\n      swap1\n      pop\n        /* \"#utility.yul\":7883:7954   */\n      tag_234\n        /* \"#utility.yul\":7951:7952   */\n      0x00\n        /* \"#utility.yul\":7940:7949   */\n      dup4\n        /* \"#utility.yul\":7936:7953   */\n      add\n        /* \"#utility.yul\":7927:7933   */\n      dup5\n        /* \"#utility.yul\":7883:7954   */\n      tag_128\n      jump\t// in\n    tag_234:\n        /* \"#utility.yul\":7739:7961   */\n      swap3\n      swap2\n      pop\n      pop\n      jump\t// out\n        /* \"#utility.yul\":7967:8136   */\n    tag_129:\n        /* \"#utility.yul\":8051:8062   */\n      0x00\n        /* \"#utility.yul\":8085:8091   */\n      dup3\n        /* \"#utility.yul\":8080:8083   */\n      dup3\n        /* \"#utility.yul\":8073:8092   */\n      mstore\n        /* \"#utility.yul\":8125:8129   */\n      0x20\n        /* \"#utility.yul\":8120:8123   */\n      dup3\n        /* \"#utility.yul\":8116:8130   */\n      add\n        /* \"#utility.yul\":8101:8130   */\n      swap1\n      pop\n        /* \"#utility.yul\":7967:8136   */\n      swap3\n      swap2\n      pop\n      pop\n      jump\t// out\n        /* \"#utility.yul\":8142:8519   */\n    tag_130:\n        /* \"#utility.yul\":8230:8233   */\n      0x00\n        /* \"#utility.yul\":8258:8297   */\n      tag_237\n        /* \"#utility.yul\":8291:8296   */\n      dup3\n        /* \"#utility.yul\":8258:8297   */\n      tag_108\n      jump\t// in\n    tag_237:\n        /* \"#utility.yul\":8313:8384   */\n      tag_238\n        /* \"#utility.yul\":8377:8383   */\n      dup2\n        /* \"#utility.yul\":8372:8375   */\n      dup6\n        /* \"#utility.yul\":8313:8384   */\n      tag_129\n      jump\t// in\n    tag_238:\n        /* \"#utility.yul\":8306:8384   */\n      swap4\n      pop\n        /* \"#utility.yul\":8393:8458   */\n      tag_239\n        /* \"#utility.yul\":8451:8457   */\n      dup2\n        /* \"#utility.yul\":8446:8449   */\n      dup6\n        /* \"#utility.yul\":8439:8443   */\n      0x20\n        /* \"#utility.yul\":8432:8437   */\n      dup7\n        /* \"#utility.yul\":8428:8444   */\n      add\n        /* \"#utility.yul\":8393:8458   */\n      tag_110\n      jump\t// in\n    tag_239:\n        /* \"#utility.yul\":8483:8512   */\n      tag_240\n        /* \"#utility.yul\":8505:8511   */\n      dup2\n        /* \"#utility.yul\":8483:8512   */\n      tag_111\n      jump\t// in\n    tag_240:\n        /* \"#utility.yul\":8478:8481   */\n      dup5\n        /* \"#utility.yul\":8474:8513   */\n      add\n        /* \"#utility.yul\":8467:8513   */\n      swap2\n      pop\n        /* \"#utility.yul\":8234:8519   */\n      pop\n        /* \"#utility.yul\":8142:8519   */\n      swap3\n      swap2\n      pop\n      pop\n      jump\t// out\n        /* \"#utility.yul\":8525:9058   */\n    tag_36:\n        /* \"#utility.yul\":8694:8698   */\n      0x00\n        /* \"#utility.yul\":8732:8734   */\n      0x60\n        /* \"#utility.yul\":8721:8730   */\n      dup3\n        /* \"#utility.yul\":8717:8735   */\n      add\n        /* \"#utility.yul\":8709:8735   */\n      swap1\n      pop\n        /* \"#utility.yul\":8745:8816   */\n      tag_242\n        /* \"#utility.yul\":8813:8814   */\n      0x00\n        /* \"#utility.yul\":8802:8811   */\n      dup4\n        /* \"#utility.yul\":8798:8815   */\n      add\n        /* \"#utility.yul\":8789:8795   */\n      dup7\n        /* \"#utility.yul\":8745:8816   */\n      tag_128\n      jump\t// in\n    tag_242:\n        /* \"#utility.yul\":8826:8898   */\n      tag_243\n        /* \"#utility.yul\":8894:8896   */\n      0x20\n        /* \"#utility.yul\":8883:8892   */\n      dup4\n        /* \"#utility.yul\":8879:8897   */\n      add\n        /* \"#utility.yul\":8870:8876   */\n      dup6\n        /* \"#utility.yul\":8826:8898   */\n      tag_128\n      jump\t// in\n    tag_243:\n        /* \"#utility.yul\":8945:8954   */\n      dup2\n        /* \"#utility.yul\":8939:8943   */\n      dup2\n        /* \"#utility.yul\":8935:8955   */\n      sub\n        /* \"#utility.yul\":8930:8932   */\n      0x40\n        /* \"#utility.yul\":8919:8928   */\n      dup4\n        /* \"#utility.yul\":8915:8933   */\n      add\n        /* \"#utility.yul\":8908:8956   */\n      mstore\n        /* \"#utility.yul\":8973:9051   */\n      tag_244\n        /* \"#utility.yul\":9046:9050   */\n      dup2\n        /* \"#utility.yul\":9037:9043   */\n      dup5\n        /* \"#utility.yul\":8973:9051   */\n      tag_130\n      jump\t// in\n    tag_244:\n        /* \"#utility.yul\":8965:9051   */\n      swap1\n      pop\n        /* \"#utility.yul\":8525:9058   */\n      swap5\n      swap4\n      pop\n      pop\n      pop\n      pop\n      jump\t// out\n        /* \"#utility.yul\":9064:9393   */\n    tag_39:\n        /* \"#utility.yul\":9123:9129   */\n      0x00\n        /* \"#utility.yul\":9172:9174   */\n      0x20\n        /* \"#utility.yul\":9160:9169   */\n      dup3\n        /* \"#utility.yul\":9151:9158   */\n      dup5\n        /* \"#utility.yul\":9147:9170   */\n      sub\n        /* \"#utility.yul\":9143:9175   */\n      slt\n        /* \"#utility.yul\":9140:9259   */\n      iszero\n      tag_246\n      jumpi\n        /* \"#utility.yul\":9178:9257   */\n      tag_247\n      tag_101\n      jump\t// in\n    tag_247:\n        /* \"#utility.yul\":9140:9259   */\n    tag_246:\n        /* \"#utility.yul\":9298:9299   */\n      0x00\n        /* \"#utility.yul\":9323:9376   */\n      tag_248\n        /* \"#utility.yul\":9368:9375   */\n      dup5\n        /* \"#utility.yul\":9359:9365   */\n      dup3\n        /* \"#utility.yul\":9348:9357   */\n      dup6\n        /* \"#utility.yul\":9344:9366   */\n      add\n        /* \"#utility.yul\":9323:9376   */\n      tag_115\n      jump\t// in\n    tag_248:\n        /* \"#utility.yul\":9313:9376   */\n      swap2\n      pop\n        /* \"#utility.yul\":9269:9386   */\n      pop\n        /* \"#utility.yul\":9064:9393   */\n      swap3\n      swap2\n      pop\n      pop\n      jump\t// out\n        /* \"#utility.yul\":9399:9579   */\n    tag_47:\n        /* \"#utility.yul\":9447:9524   */\n      0x4e487b7100000000000000000000000000000000000000000000000000000000\n        /* \"#utility.yul\":9444:9445   */\n      0x00\n        /* \"#utility.yul\":9437:9525   */\n      mstore\n        /* \"#utility.yul\":9544:9548   */\n      0x32\n        /* \"#utility.yul\":9541:9542   */\n      0x04\n        /* \"#utility.yul\":9534:9549   */\n      mstore\n        /* \"#utility.yul\":9568:9572   */\n      0x24\n        /* \"#utility.yul\":9565:9566   */\n      0x00\n        /* \"#utility.yul\":9558:9573   */\n      revert\n        /* \"#utility.yul\":9585:9765   */\n    tag_131:\n        /* \"#utility.yul\":9633:9710   */\n      0x4e487b7100000000000000000000000000000000000000000000000000000000\n        /* \"#utility.yul\":9630:9631   */\n      0x00\n        /* \"#utility.yul\":9623:9711   */\n      mstore\n        /* \"#utility.yul\":9730:9734   */\n      0x22\n        /* \"#utility.yul\":9727:9728   */\n      0x04\n        /* \"#utility.yul\":9720:9735   */\n      mstore\n        /* \"#utility.yul\":9754:9758   */\n      0x24\n        /* \"#utility.yul\":9751:9752   */\n      0x00\n        /* \"#utility.yul\":9744:9759   */\n      revert\n        /* \"#utility.yul\":9771:10091   */\n    tag_50:\n        /* \"#utility.yul\":9815:9821   */\n      0x00\n        /* \"#utility.yul\":9852:9853   */\n      0x02\n        /* \"#utility.yul\":9846:9850   */\n      dup3\n        /* \"#utility.yul\":9842:9854   */\n      div\n        /* \"#utility.yul\":9832:9854   */\n      swap1\n      pop\n        /* \"#utility.yul\":9899:9900   */\n      0x01\n        /* \"#utility.yul\":9893:9897   */\n      dup3\n        /* \"#utility.yul\":9889:9901   */\n      and\n        /* \"#utility.yul\":9920:9938   */\n      dup1\n        /* \"#utility.yul\":9910:9991   */\n      tag_252\n      jumpi\n        /* \"#utility.yul\":9976:9980   */\n      0x7f\n        /* \"#utility.yul\":9968:9974   */\n      dup3\n        /* \"#utility.yul\":9964:9981   */\n      and\n        /* \"#utility.yul\":9954:9981   */\n      swap2\n      pop\n        /* \"#utility.yul\":9910:9991   */\n    tag_252:\n        /* \"#utility.yul\":10038:10040   */\n      0x20\n        /* \"#utility.yul\":10030:10036   */\n      dup3\n        /* \"#utility.yul\":10027:10041   */\n      lt\n        /* \"#utility.yul\":10007:10025   */\n      dup2\n        /* \"#utility.yul\":10004:10042   */\n      sub\n        /* \"#utility.yul\":10001:10085   */\n      tag_253\n      jumpi\n        /* \"#utility.yul\":10057:10075   */\n      tag_254\n      tag_131\n      jump\t// in\n    tag_254:\n        /* \"#utility.yul\":10001:10085   */\n    tag_253:\n        /* \"#utility.yul\":9822:10091   */\n      pop\n        /* \"#utility.yul\":9771:10091   */\n      swap2\n      swap1\n      pop\n      jump\t// out\n        /* \"#utility.yul\":10097:10212   */\n    tag_132:\n        /* \"#utility.yul\":10182:10205   */\n      tag_256\n        /* \"#utility.yul\":10199:10204   */\n      dup2\n        /* \"#utility.yul\":10182:10205   */\n      tag_116\n      jump\t// in\n    tag_256:\n        /* \"#utility.yul\":10177:10180   */\n      dup3\n        /* \"#utility.yul\":10170:10206   */\n      mstore\n        /* \"#utility.yul\":10097:10212   */\n      pop\n      pop\n      jump\t// out\n        /* \"#utility.yul\":10218:10652   */\n    tag_63:\n        /* \"#utility.yul\":10363:10367   */\n      0x00\n        /* \"#utility.yul\":10401:10403   */\n      0x60\n        /* \"#utility.yul\":10390:10399   */\n      dup3\n        /* \"#utility.yul\":10386:10404   */\n      add\n        /* \"#utility.yul\":10378:10404   */\n      swap1\n      pop\n        /* \"#utility.yul\":10414:10485   */\n      tag_258\n        /* \"#utility.yul\":10482:10483   */\n      0x00\n        /* \"#utility.yul\":10471:10480   */\n      dup4\n        /* \"#utility.yul\":10467:10484   */\n      add\n        /* \"#utility.yul\":10458:10464   */\n      dup7\n        /* \"#utility.yul\":10414:10485   */\n      tag_128\n      jump\t// in\n    tag_258:\n        /* \"#utility.yul\":10495:10565   */\n      tag_259\n        /* \"#utility.yul\":10561:10563   */\n      0x20\n        /* \"#utility.yul\":10550:10559   */\n      dup4\n        /* \"#utility.yul\":10546:10564   */\n      add\n        /* \"#utility.yul\":10537:10543   */\n      dup6\n        /* \"#utility.yul\":10495:10565   */\n      tag_132\n      jump\t// in\n    tag_259:\n        /* \"#utility.yul\":10575:10645   */\n      tag_260\n        /* \"#utility.yul\":10641:10643   */\n      0x40\n        /* \"#utility.yul\":10630:10639   */\n      dup4\n        /* \"#utility.yul\":10626:10644   */\n      add\n        /* \"#utility.yul\":10617:10623   */\n      dup5\n        /* \"#utility.yul\":10575:10645   */\n      tag_132\n      jump\t// in\n    tag_260:\n        /* \"#utility.yul\":10218:10652   */\n      swap5\n      swap4\n      pop\n      pop\n      pop\n      pop\n      jump\t// out\n        /* \"#utility.yul\":10658:10799   */\n    tag_133:\n        /* \"#utility.yul\":10707:10711   */\n      0x00\n        /* \"#utility.yul\":10730:10733   */\n      dup2\n        /* \"#utility.yul\":10722:10733   */\n      swap1\n      pop\n        /* \"#utility.yul\":10753:10756   */\n      dup2\n        /* \"#utility.yul\":10750:10751   */\n      0x00\n        /* \"#utility.yul\":10743:10757   */\n      mstore\n        /* \"#utility.yul\":10787:10791   */\n      0x20\n        /* \"#utility.yul\":10784:10785   */\n      0x00\n        /* \"#utility.yul\":10774:10792   */\n      keccak256\n        /* \"#utility.yul\":10766:10792   */\n      swap1\n      pop\n        /* \"#utility.yul\":10658:10799   */\n      swap2\n      swap1\n      pop\n      jump\t// out\n        /* \"#utility.yul\":10805:10898   */\n    tag_134:\n        /* \"#utility.yul\":10842:10848   */\n      0x00\n        /* \"#utility.yul\":10889:10891   */\n      0x20\n        /* \"#utility.yul\":10884:10886   */\n      0x1f\n        /* \"#utility.yul\":10877:10882   */\n      dup4\n        /* \"#utility.yul\":10873:10887   */\n      add\n        /* \"#utility.yul\":10869:10892   */\n      div\n        /* \"#utility.yul\":10859:10892   */\n      swap1\n      pop\n        /* \"#utility.yul\":10805:10898   */\n      swap2\n      swap1\n      pop\n      jump\t// out\n        /* \"#utility.yul\":10904:11011   */\n    tag_135:\n        /* \"#utility.yul\":10948:10956   */\n      0x00\n        /* \"#utility.yul\":10998:11003   */\n      dup3\n        /* \"#utility.yul\":10992:10996   */\n      dup3\n        /* \"#utility.yul\":10988:11004   */\n      shl\n        /* \"#utility.yul\":10967:11004   */\n      swap1\n      pop\n        /* \"#utility.yul\":10904:11011   */\n      swap3\n      swap2\n      pop\n      pop\n      jump\t// out\n        /* \"#utility.yul\":11017:11410   */\n    tag_136:\n        /* \"#utility.yul\":11086:11092   */\n      0x00\n        /* \"#utility.yul\":11136:11137   */\n      0x08\n        /* \"#utility.yul\":11124:11134   */\n      dup4\n        /* \"#utility.yul\":11120:11138   */\n      mul\n        /* \"#utility.yul\":11159:11256   */\n      tag_265\n        /* \"#utility.yul\":11189:11255   */\n      0xffffffffffffffffffffffffffffffffffffffffffffffffffffffffffffffff\n        /* \"#utility.yul\":11178:11187   */\n      dup3\n        /* \"#utility.yul\":11159:11256   */\n      tag_135\n      jump\t// in\n    tag_265:\n        /* \"#utility.yul\":11277:11316   */\n      tag_266\n        /* \"#utility.yul\":11307:11315   */\n      dup7\n        /* \"#utility.yul\":11296:11305   */\n      dup4\n        /* \"#utility.yul\":11277:11316   */\n      tag_135\n      jump\t// in\n    tag_266:\n        /* \"#utility.yul\":11265:11316   */\n      swap6\n      pop\n        /* \"#utility.yul\":11349:11353   */\n      dup1\n        /* \"#utility.yul\":11345:11354   */\n      not\n        /* \"#utility.yul\":11338:11343   */\n      dup5\n        /* \"#utility.yul\":11334:11355   */\n      and\n        /* \"#utility.yul\":11325:11355   */\n      swap4\n      pop\n        /* \"#utility.yul\":11398:11402   */\n      dup1\n        /* \"#utility.yul\":11388:11396   */\n      dup7\n        /* \"#utility.yul\":11384:11403   */\n      and\n        /* \"#utility.yul\":11377:11382   */\n      dup5\n        /* \"#utility.yul\":11374:11404   */\n      or\n        /* \"#utility.yul\":11364:11404   */\n      swap3\n      pop\n        /* \"#utility.yul\":11093:11410   */\n      pop\n      pop\n        /* \"#utility.yul\":11017:11410   */\n      swap4\n      swap3\n      pop\n      pop\n      pop\n      jump\t// out\n        /* \"#utility.yul\":11416:11476   */\n    tag_137:\n        /* \"#utility.yul\":11444:11447   */\n      0x00\n        /* \"#utility.yul\":11465:11470   */\n      dup2\n        /* \"#utility.yul\":11458:11470   */\n      swap1\n      pop\n        /* \"#utility.yul\":11416:11476   */\n      swap2\n      swap1\n      pop\n      jump\t// out\n        /* \"#utility.yul\":11482:11624   */\n    tag_138:\n        /* \"#utility.yul\":11532:11541   */\n      0x00\n        /* \"#utility.yul\":11565:11618   */\n      tag_269\n        /* \"#utility.yul\":11583:11617   */\n      tag_270\n        /* \"#utility.yul\":11592:11616   */\n      tag_271\n        /* \"#utility.yul\":11610:11615   */\n      dup5\n        /* \"#utility.yul\":11592:11616   */\n      tag_98\n      jump\t// in\n    tag_271:\n        /* \"#utility.yul\":11583:11617   */\n      tag_137\n      jump\t// in\n    tag_270:\n        /* \"#utility.yul\":11565:11618   */\n      tag_98\n      jump\t// in\n    tag_269:\n        /* \"#utility.yul\":11552:11618   */\n      swap1\n      pop\n        /* \"#utility.yul\":11482:11624   */\n      swap2\n      swap1\n      pop\n      jump\t// out\n        /* \"#utility.yul\":11630:11705   */\n    tag_139:\n        /* \"#utility.yul\":11673:11676   */\n      0x00\n        /* \"#utility.yul\":11694:11699   */\n      dup2\n        /* \"#utility.yul\":11687:11699   */\n      swap1\n      pop\n        /* \"#utility.yul\":11630:11705   */\n      swap2\n      swap1\n      pop\n      jump\t// out\n        /* \"#utility.yul\":11711:11980   */\n    tag_140:\n        /* \"#utility.yul\":11821:11860   */\n      tag_274\n        /* \"#utility.yul\":11852:11859   */\n      dup4\n        /* \"#utility.yul\":11821:11860   */\n      tag_138\n      jump\t// in\n    tag_274:\n        /* \"#utility.yul\":11882:11973   */\n      tag_275\n        /* \"#utility.yul\":11931:11972   */\n      tag_276\n        /* \"#utility.yul\":11955:11971   */\n      dup3\n        /* \"#utility.yul\":11931:11972   */\n      tag_139\n      jump\t// in\n    tag_276:\n        /* \"#utility.yul\":11923:11929   */\n      dup5\n        /* \"#utility.yul\":11916:11920   */\n      dup5\n        /* \"#utility.yul\":11910:11921   */\n      sload\n        /* \"#utility.yul\":11882:11973   */\n      tag_136\n      jump\t// in\n    tag_275:\n        /* \"#utility.yul\":11876:11880   */\n      dup3\n        /* \"#utility.yul\":11869:11974   */\n      sstore\n        /* \"#utility.yul\":11787:11980   */\n      pop\n        /* \"#utility.yul\":11711:11980   */\n      pop\n      pop\n      pop\n      jump\t// out\n        /* \"#utility.yul\":11986:12059   */\n    tag_141:\n        /* \"#utility.yul\":12031:12034   */\n      0x00\n        /* \"#utility.yul\":12052:12053   */\n      0x00\n        /* \"#utility.yul\":12045:12053   */\n      swap1\n      pop\n        /* \"#utility.yul\":11986:12059   */\n      swap1\n      jump\t// out\n        /* \"#utility.yul\":12065:12254   */\n    tag_142:\n        /* \"#utility.yul\":12142:12174   */\n      tag_279\n      tag_141\n      jump\t// in\n    tag_279:\n        /* \"#utility.yul\":12183:12248   */\n      tag_280\n        /* \"#utility.yul\":12241:12247   */\n      dup2\n        /* \"#utility.yul\":12233:12239   */\n      dup5\n        /* \"#utility.yul\":12227:12231   */\n      dup5\n        /* \"#utility.yul\":12183:12248   */\n      tag_140\n      jump\t// in\n    tag_280:\n        /* \"#utility.yul\":12118:12254   */\n      pop\n        /* \"#utility.yul\":12065:12254   */\n      pop\n      pop\n      jump\t// out\n        /* \"#utility.yul\":12260:12474   */\n    tag_143:\n        /* \"#utility.yul\":12345:12346   */\n      0x00\n        /* \"#utility.yul\":12330:12468   */\n    tag_282:\n        /* \"#utility.yul\":12355:12364   */\n      dup3\n        /* \"#utility.yul\":12352:12353   */\n      dup2\n        /* \"#utility.yul\":12349:12365   */\n      lt\n        /* \"#utility.yul\":12330:12468   */\n      iszero\n      tag_284\n      jumpi\n        /* \"#utility.yul\":12407:12458   */\n      tag_285\n        /* \"#utility.yul\":12456:12457   */\n      0x00\n        /* \"#utility.yul\":12452:12453   */\n      dup3\n        /* \"#utility.yul\":12441:12450   */\n      dup5\n        /* \"#utility.yul\":12437:12454   */\n      add\n        /* \"#utility.yul\":12407:12458   */\n      tag_142\n      jump\t// in\n    tag_285:\n        /* \"#utility.yul\":12380:12381   */\n      0x01\n        /* \"#utility.yul\":12377:12378   */\n      dup2\n        /* \"#utility.yul\":12373:12382   */\n      add\n        /* \"#utility.yul\":12368:12382   */\n      swap1\n      pop\n        /* \"#utility.yul\":12330:12468   */\n      jump(tag_282)\n    tag_284:\n        /* \"#utility.yul\":12334:12348   */\n      pop\n        /* \"#utility.yul\":12260:12474   */\n      pop\n      pop\n      jump\t// out\n        /* \"#utility.yul\":12480:13226   */\n    tag_144:\n        /* \"#utility.yul\":12581:12583   */\n      0x1f\n        /* \"#utility.yul\":12576:12579   */\n      dup3\n        /* \"#utility.yul\":12573:12584   */\n      gt\n        /* \"#utility.yul\":12570:13219   */\n      iszero\n      tag_287\n      jumpi\n        /* \"#utility.yul\":12610:12620   */\n      dup3\n        /* \"#utility.yul\":12605:12608   */\n      dup3\n        /* \"#utility.yul\":12602:12621   */\n      gt\n        /* \"#utility.yul\":12599:13209   */\n      iszero\n      tag_288\n      jumpi\n        /* \"#utility.yul\":12656:12694   */\n      tag_289\n        /* \"#utility.yul\":12688:12693   */\n      dup2\n        /* \"#utility.yul\":12656:12694   */\n      tag_133\n      jump\t// in\n    tag_289:\n        /* \"#utility.yul\":12731:12753   */\n      tag_290\n        /* \"#utility.yul\":12749:12752   */\n      dup4\n        /* \"#utility.yul\":12731:12753   */\n      tag_134\n      jump\t// in\n    tag_290:\n        /* \"#utility.yul\":12790:12819   */\n      tag_291\n        /* \"#utility.yul\":12808:12818   */\n      dup6\n        /* \"#utility.yul\":12790:12819   */\n      tag_134\n      jump\t// in\n    tag_291:\n        /* \"#utility.yul\":12980:12982   */\n      0x20\n        /* \"#utility.yul\":12968:12978   */\n      dup7\n        /* \"#utility.yul\":12965:12983   */\n      lt\n        /* \"#utility.yul\":12962:13041   */\n      iszero\n      tag_292\n      jumpi\n        /* \"#utility.yul\":13022:13023   */\n      0x00\n        /* \"#utility.yul\":13006:13023   */\n      swap1\n      pop\n        /* \"#utility.yul\":12962:13041   */\n    tag_292:\n        /* \"#utility.yul\":13091:13103   */\n      dup1\n        /* \"#utility.yul\":13081:13089   */\n      dup4\n        /* \"#utility.yul\":13077:13104   */\n      add\n        /* \"#utility.yul\":13121:13195   */\n      tag_293\n        /* \"#utility.yul\":13181:13193   */\n      dup3\n        /* \"#utility.yul\":13167:13179   */\n      dup5\n        /* \"#utility.yul\":13163:13194   */\n      sub\n        /* \"#utility.yul\":13150:13161   */\n      dup3\n        /* \"#utility.yul\":13121:13195   */\n      tag_143\n      jump\t// in\n    tag_293:\n        /* \"#utility.yul\":12622:13209   */\n      pop\n      pop\n      pop\n      pop\n        /* \"#utility.yul\":12599:13209   */\n    tag_288:\n        /* \"#utility.yul\":12570:13219   */\n    tag_287:\n        /* \"#utility.yul\":12480:13226   */\n      pop\n      pop\n      pop\n      jump\t// out\n        /* \"#utility.yul\":13232:13349   */\n    tag_145:\n        /* \"#utility.yul\":13286:13294   */\n      0x00\n        /* \"#utility.yul\":13336:13341   */\n      dup3\n        /* \"#utility.yul\":13330:13334   */\n      dup3\n        /* \"#utility.yul\":13326:13342   */\n      shr\n        /* \"#utility.yul\":13305:13342   */\n      swap1\n      pop\n        /* \"#utility.yul\":13232:13349   */\n      swap3\n      swap2\n      pop\n      pop\n      jump\t// out\n        /* \"#utility.yul\":13355:13524   */\n    tag_146:\n        /* \"#utility.yul\":13399:13405   */\n      0x00\n        /* \"#utility.yul\":13432:13483   */\n      tag_296\n        /* \"#utility.yul\":13480:13481   */\n      0x00\n        /* \"#utility.yul\":13476:13482   */\n      not\n        /* \"#utility.yul\":13468:13473   */\n      dup5\n        /* \"#utility.yul\":13465:13466   */\n      0x08\n        /* \"#utility.yul\":13461:13474   */\n      mul\n        /* \"#utility.yul\":13432:13483   */\n      tag_145\n      jump\t// in\n    tag_296:\n        /* \"#utility.yul\":13428:13484   */\n      not\n        /* \"#utility.yul\":13513:13517   */\n      dup1\n        /* \"#utility.yul\":13507:13511   */\n      dup4\n        /* \"#utility.yul\":13503:13518   */\n      and\n        /* \"#utility.yul\":13493:13518   */\n      swap2\n      pop\n        /* \"#utility.yul\":13406:13524   */\n      pop\n        /* \"#utility.yul\":13355:13524   */\n      swap3\n      swap2\n      pop\n      pop\n      jump\t// out\n        /* \"#utility.yul\":13529:13824   */\n    tag_147:\n        /* \"#utility.yul\":13605:13609   */\n      0x00\n        /* \"#utility.yul\":13751:13780   */\n      tag_298\n        /* \"#utility.yul\":13776:13779   */\n      dup4\n        /* \"#utility.yul\":13770:13774   */\n      dup4\n        /* \"#utility.yul\":13751:13780   */\n      tag_146\n      jump\t// in\n    tag_298:\n        /* \"#utility.yul\":13743:13780   */\n      swap2\n      pop\n        /* \"#utility.yul\":13813:13816   */\n      dup3\n        /* \"#utility.yul\":13810:13811   */\n      0x02\n        /* \"#utility.yul\":13806:13817   */\n      mul\n        /* \"#utility.yul\":13800:13804   */\n      dup3\n        /* \"#utility.yul\":13797:13818   */\n      or\n        /* \"#utility.yul\":13789:13818   */\n      swap1\n      pop\n        /* \"#utility.yul\":13529:13824   */\n      swap3\n      swap2\n      pop\n      pop\n      jump\t// out\n        /* \"#utility.yul\":13829:15224   */\n    tag_67:\n        /* \"#utility.yul\":13946:13983   */\n      tag_300\n        /* \"#utility.yul\":13979:13982   */\n      dup3\n        /* \"#utility.yul\":13946:13983   */\n      tag_108\n      jump\t// in\n    tag_300:\n        /* \"#utility.yul\":14048:14066   */\n      0xffffffffffffffff\n        /* \"#utility.yul\":14040:14046   */\n      dup2\n        /* \"#utility.yul\":14037:14067   */\n      gt\n        /* \"#utility.yul\":14034:14090   */\n      iszero\n      tag_301\n      jumpi\n        /* \"#utility.yul\":14070:14088   */\n      tag_302\n      tag_121\n      jump\t// in\n    tag_302:\n        /* \"#utility.yul\":14034:14090   */\n    tag_301:\n        /* \"#utility.yul\":14114:14152   */\n      tag_303\n        /* \"#utility.yul\":14146:14150   */\n      dup3\n        /* \"#utility.yul\":14140:14151   */\n      sload\n        /* \"#utility.yul\":14114:14152   */\n      tag_50\n      jump\t// in\n    tag_303:\n        /* \"#utility.yul\":14199:14266   */\n      tag_304\n        /* \"#utility.yul\":14259:14265   */\n      dup3\n        /* \"#utility.yul\":14251:14257   */\n      dup3\n        /* \"#utility.yul\":14245:14249   */\n      dup6\n        /* \"#utility.yul\":14199:14266   */\n      tag_144\n      jump\t// in\n    tag_304:\n        /* \"#utility.yul\":14293:14294   */\n      0x00\n        /* \"#utility.yul\":14317:14321   */\n      0x20\n        /* \"#utility.yul\":14304:14321   */\n      swap1\n      pop\n        /* \"#utility.yul\":14349:14351   */\n      0x1f\n        /* \"#utility.yul\":14341:14347   */\n      dup4\n        /* \"#utility.yul\":14338:14352   */\n      gt\n        /* \"#utility.yul\":14366:14367   */\n      0x01\n        /* \"#utility.yul\":14361:14979   */\n      dup2\n      eq\n      tag_306\n      jumpi\n        /* \"#utility.yul\":15023:15024   */\n      0x00\n        /* \"#utility.yul\":15040:15046   */\n      dup5\n        /* \"#utility.yul\":15037:15114   */\n      iszero\n      tag_307\n      jumpi\n        /* \"#utility.yul\":15089:15098   */\n      dup3\n        /* \"#utility.yul\":15084:15087   */\n      dup8\n        /* \"#utility.yul\":15080:15099   */\n      add\n        /* \"#utility.yul\":15074:15100   */\n      mload\n        /* \"#utility.yul\":15065:15100   */\n      swap1\n      pop\n        /* \"#utility.yul\":15037:15114   */\n    tag_307:\n        /* \"#utility.yul\":15140:15207   */\n      tag_308\n        /* \"#utility.yul\":15200:15206   */\n      dup6\n        /* \"#utility.yul\":15193:15198   */\n      dup3\n        /* \"#utility.yul\":15140:15207   */\n      tag_147\n      jump\t// in\n    tag_308:\n        /* \"#utility.yul\":15134:15138   */\n      dup7\n        /* \"#utility.yul\":15127:15208   */\n      sstore\n        /* \"#utility.yul\":14996:15218   */\n      pop\n        /* \"#utility.yul\":14331:15218   */\n      jump(tag_305)\n        /* \"#utility.yul\":14361:14979   */\n    tag_306:\n        /* \"#utility.yul\":14413:14417   */\n      0x1f\n        /* \"#utility.yul\":14409:14418   */\n      not\n        /* \"#utility.yul\":14401:14407   */\n      dup5\n        /* \"#utility.yul\":14397:14419   */\n      and\n        /* \"#utility.yul\":14447:14484   */\n      tag_309\n        /* \"#utility.yul\":14479:14483   */\n      dup7\n        /* \"#utility.yul\":14447:14484   */\n      tag_133\n      jump\t// in\n    tag_309:\n        /* \"#utility.yul\":14506:14507   */\n      0x00\n        /* \"#utility.yul\":14520:14728   */\n    tag_310:\n        /* \"#utility.yul\":14534:14541   */\n      dup3\n        /* \"#utility.yul\":14531:14532   */\n      dup2\n        /* \"#utility.yul\":14528:14542   */\n      lt\n        /* \"#utility.yul\":14520:14728   */\n      iszero\n      tag_312\n      jumpi\n        /* \"#utility.yul\":14613:14622   */\n      dup5\n        /* \"#utility.yul\":14608:14611   */\n      dup10\n        /* \"#utility.yul\":14604:14623   */\n      add\n        /* \"#utility.yul\":14598:14624   */\n      mload\n        /* \"#utility.yul\":14590:14596   */\n      dup3\n        /* \"#utility.yul\":14583:14625   */\n      sstore\n        /* \"#utility.yul\":14664:14665   */\n      0x01\n        /* \"#utility.yul\":14656:14662   */\n      dup3\n        /* \"#utility.yul\":14652:14666   */\n      add\n        /* \"#utility.yul\":14642:14666   */\n      swap2\n      pop\n        /* \"#utility.yul\":14711:14713   */\n      0x20\n        /* \"#utility.yul\":14700:14709   */\n      dup6\n        /* \"#utility.yul\":14696:14714   */\n      add\n        /* \"#utility.yul\":14683:14714   */\n      swap5\n      pop\n        /* \"#utility.yul\":14557:14561   */\n      0x20\n        /* \"#utility.yul\":14554:14555   */\n      dup2\n        /* \"#utility.yul\":14550:14562   */\n      add\n        /* \"#utility.yul\":14545:14562   */\n      swap1\n      pop\n        /* \"#utility.yul\":14520:14728   */\n      jump(tag_310)\n    tag_312:\n        /* \"#utility.yul\":14756:14762   */\n      dup7\n        /* \"#utility.yul\":14747:14754   */\n      dup4\n        /* \"#utility.yul\":14744:14763   */\n      lt\n        /* \"#utility.yul\":14741:14920   */\n      iszero\n      tag_313\n      jumpi\n        /* \"#utility.yul\":14814:14823   */\n      dup5\n        /* \"#utility.yul\":14809:14812   */\n      dup10\n        /* \"#utility.yul\":14805:14824   */\n      add\n        /* \"#utility.yul\":14799:14825   */\n      mload\n        /* \"#utility.yul\":14857:14905   */\n      tag_314\n        /* \"#utility.yul\":14899:14903   */\n      0x1f\n        /* \"#utility.yul\":14891:14897   */\n      dup10\n        /* \"#utility.yul\":14887:14904   */\n      and\n        /* \"#utility.yul\":14876:14885   */\n      dup3\n        /* \"#utility.yul\":14857:14905   */\n      tag_146\n      jump\t// in\n    tag_314:\n        /* \"#utility.yul\":14849:14855   */\n      dup4\n        /* \"#utility.yul\":14842:14906   */\n      sstore\n        /* \"#utility.yul\":14764:14920   */\n      pop\n        /* \"#utility.yul\":14741:14920   */\n    tag_313:\n        /* \"#utility.yul\":14966:14967   */\n      0x01\n        /* \"#utility.yul\":14962:14963   */\n      0x02\n        /* \"#utility.yul\":14954:14960   */\n      dup9\n        /* \"#utility.yul\":14950:14964   */\n      mul\n        /* \"#utility.yul\":14946:14968   */\n      add\n        /* \"#utility.yul\":14940:14944   */\n      dup9\n        /* \"#utility.yul\":14933:14969   */\n      sstore\n        /* \"#utility.yul\":14368:14979   */\n      pop\n      pop\n      pop\n        /* \"#utility.yul\":14331:15218   */\n    tag_305:\n      pop\n        /* \"#utility.yul\":13921:15224   */\n      pop\n      pop\n      pop\n        /* \"#utility.yul\":13829:15224   */\n      pop\n      pop\n      jump\t// out\n        /* \"#utility.yul\":15230:15543   */\n    tag_69:\n        /* \"#utility.yul\":15343:15347   */\n      0x00\n        /* \"#utility.yul\":15381:15383   */\n      0x20\n        /* \"#utility.yul\":15370:15379   */\n      dup3\n        /* \"#utility.yul\":15366:15384   */\n      add\n        /* \"#utility.yul\":15358:15384   */\n      swap1\n      pop\n        /* \"#utility.yul\":15430:15439   */\n      dup2\n        /* \"#utility.yul\":15424:15428   */\n      dup2\n        /* \"#utility.yul\":15420:15440   */\n      sub\n        /* \"#utility.yul\":15416:15417   */\n      0x00\n        /* \"#utility.yul\":15405:15414   */\n      dup4\n        /* \"#utility.yul\":15401:15418   */\n      add\n        /* \"#utility.yul\":15394:15441   */\n      mstore\n        /* \"#utility.yul\":15458:15536   */\n      tag_316\n        /* \"#utility.yul\":15531:15535   */\n      dup2\n        /* \"#utility.yul\":15522:15528   */\n      dup5\n        /* \"#utility.yul\":15458:15536   */\n      tag_130\n      jump\t// in\n    tag_316:\n        /* \"#utility.yul\":15450:15536   */\n      swap1\n      pop\n        /* \"#utility.yul\":15230:15543   */\n      swap3\n      swap2\n      pop\n      pop\n      jump\t// out\n    stop\n\n    sub_0: assembly {\n            /* \"kash_vesting.sol\":293:517  contract KashVestingWallet is VestingWallet {... */\n          mstore(0x40, 0xc0)\n            /* \"kash_vesting.sol\":343:515  constructor(... */\n          callvalue\n          dup1\n          iszero\n          tag_1\n          jumpi\n          revert(0x00, 0x00)\n        tag_1:\n          pop\n          mload(0x40)\n          sub(codesize, bytecodeSize)\n          dup1\n          bytecodeSize\n          dup4\n          codecopy\n          dup2\n          dup2\n          add\n          0x40\n          mstore\n          dup2\n          add\n          swap1\n          tag_2\n          swap2\n          swap1\n          tag_3\n          jump\t// in\n        tag_2:\n            /* \"kash_vesting.sol\":467:478  beneficiary */\n          dup3\n            /* \"kash_vesting.sol\":480:494  startTimestamp */\n          dup3\n            /* \"kash_vesting.sol\":496:511  durationSeconds */\n          dup3\n            /* \"@openzeppelin/contracts/finance/VestingWallet.sol\":2621:2632  beneficiary */\n          dup3\n            /* \"@openzeppelin/contracts/access/Ownable.sol\":1297:1298  0 */\n          0x00\n            /* \"@openzeppelin/contracts/access/Ownable.sol\":1273:1299  initialOwner == address(0) */\n          0xffffffffffffffffffffffffffffffffffffffff\n          and\n            /* \"@openzeppelin/contracts/access/Ownable.sol\":1273:1285  initialOwner */\n          dup2\n            /* \"@openzeppelin/contracts/access/Ownable.sol\":1273:1299  initialOwner == address(0) */\n          0xffffffffffffffffffffffffffffffffffffffff\n          and\n          sub\n            /* \"@openzeppelin/contracts/access/Ownable.sol\":1269:1364  if (initialOwner == address(0)) {... */\n          tag_8\n          jumpi\n            /* \"@openzeppelin/contracts/access/Ownable.sol\":1350:1351  0 */\n          0x00\n            /* \"@openzeppelin/contracts/access/Ownable.sol\":1322:1353  OwnableInvalidOwner(address(0)) */\n          mload(0x40)\n          0x1e4fbdf700000000000000000000000000000000000000000000000000000000\n          dup2\n          mstore\n          0x04\n          add\n          tag_9\n          swap2\n          swap1\n          tag_10\n          jump\t// in\n        tag_9:\n          mload(0x40)\n          dup1\n          swap2\n          sub\n          swap1\n          revert\n            /* \"@openzeppelin/contracts/access/Ownable.sol\":1269:1364  if (initialOwner == address(0)) {... */\n        tag_8:\n            /* \"@openzeppelin/contracts/access/Ownable.sol\":1373:1405  _transferOwnership(initialOwner) */\n          tag_11\n            /* \"@openzeppelin/contracts/access/Ownable.sol\":1392:1404  initialOwner */\n          dup2\n            /* \"@openzeppelin/contracts/access/Ownable.sol\":1373:1391  _transferOwnership */\n          shl(0x20, tag_12)\n            /* \"@openzeppelin/contracts/access/Ownable.sol\":1373:1405  _transferOwnership(initialOwner) */\n          0x20\n          shr\n          jump\t// in\n        tag_11:\n            /* \"@openzeppelin/contracts/access/Ownable.sol\":1225:1412  constructor(address initialOwner) {... */\n          pop\n            /* \"@openzeppelin/contracts/finance/VestingWallet.sol\":2653:2667  startTimestamp */\n          dup2\n            /* \"@openzeppelin/contracts/finance/VestingWallet.sol\":2644:2667  _start = startTimestamp */\n          0xffffffffffffffff\n          and\n          0x80\n          dup2\n          0xffffffffffffffff\n          and\n          dup2\n          mstore\n          pop\n          pop\n            /* \"@openzeppelin/contracts/finance/VestingWallet.sol\":2689:2704  durationSeconds */\n          dup1\n            /* \"@openzeppelin/contracts/finance/VestingWallet.sol\":2677:2704  _duration = durationSeconds */\n          0xffffffffffffffff\n          and\n          0xa0\n          dup2\n          0xffffffffffffffff\n          and\n          dup2\n          mstore\n          pop\n          pop\n            /* \"@openzeppelin/contracts/finance/VestingWallet.sol\":2525:2711  constructor(address beneficiary, uint64 startTimestamp, uint64 durationSeconds) payable Ownable(beneficiary) {... */\n          pop\n          pop\n          pop\n            /* \"kash_vesting.sol\":343:515  constructor(... */\n          pop\n          pop\n          pop\n            /* \"kash_vesting.sol\":293:517  contract KashVestingWallet is VestingWallet {... */\n          jump(tag_15)\n            /* \"@openzeppelin/contracts/access/Ownable.sol\":2912:3099  function _transferOwnership(address newOwner) internal virtual {... */\n        tag_12:\n            /* \"@openzeppelin/contracts/access/Ownable.sol\":2985:3001  address oldOwner */\n          0x00\n            /* \"@openzeppelin/contracts/access/Ownable.sol\":3004:3010  _owner */\n          0x00\n          0x00\n          swap1\n          sload\n          swap1\n          0x0100\n          exp\n          swap1\n          div\n          0xffffffffffffffffffffffffffffffffffffffff\n          and\n            /* \"@openzeppelin/contracts/access/Ownable.sol\":2985:3010  address oldOwner = _owner */\n          swap1\n          pop\n            /* \"@openzeppelin/contracts/access/Ownable.sol\":3029:3037  newOwner */\n          dup2\n            /* \"@openzeppelin/contracts/access/Ownable.sol\":3020:3026  _owner */\n          0x00\n          0x00\n            /* \"@openzeppelin/contracts/access/Ownable.sol\":3020:3037  _owner = newOwner */\n          0x0100\n          exp\n          dup2\n          sload\n          dup2\n          0xffffffffffffffffffffffffffffffffffffffff\n          mul\n          not\n          and\n          swap1\n          dup4\n          0xffffffffffffffffffffffffffffffffffffffff\n          and\n          mul\n          or\n          swap1\n          sstore\n          pop\n            /* \"@openzeppelin/contracts/access/Ownable.sol\":3083:3091  newOwner */\n          dup2\n            /* \"@openzeppelin/contracts/access/Ownable.sol\":3052:3092  OwnershipTransferred(oldOwner, newOwner) */\n          0xffffffffffffffffffffffffffffffffffffffff\n          and\n            /* \"@openzeppelin/contracts/access/Ownable.sol\":3073:3081  oldOwner */\n          dup2\n            /* \"@openzeppelin/contracts/access/Ownable.sol\":3052:3092  OwnershipTransferred(oldOwner, newOwner) */\n          0xffffffffffffffffffffffffffffffffffffffff\n          and\n          0x8be0079c531659141344cd1fd0a4f28419497f9722a3daafe3b4186f6b6457e0\n          mload(0x40)\n          mload(0x40)\n          dup1\n          swap2\n          sub\n          swap1\n          log3\n            /* \"@openzeppelin/contracts/access/Ownable.sol\":2975:3099  {... */\n          pop\n            /* \"@openzeppelin/contracts/access/Ownable.sol\":2912:3099  function _transferOwnership(address newOwner) internal virtual {... */\n          pop\n          jump\t// out\n            /* \"#utility.yul\":88:205   */\n        tag_18:\n            /* \"#utility.yul\":197:198   */\n          0x00\n            /* \"#utility.yul\":194:195   */\n          0x00\n            /* \"#utility.yul\":187:199   */\n          revert\n            /* \"#utility.yul\":334:460   */\n        tag_20:\n            /* \"#utility.yul\":371:378   */\n          0x00\n            /* \"#utility.yul\":411:453   */\n          0xffffffffffffffffffffffffffffffffffffffff\n            /* \"#utility.yul\":404:409   */\n          dup3\n            /* \"#utility.yul\":400:454   */\n          and\n            /* \"#utility.yul\":389:454   */\n          swap1\n          pop\n            /* \"#utility.yul\":334:460   */\n          swap2\n          swap1\n          pop\n          jump\t// out\n            /* \"#utility.yul\":466:562   */\n        tag_21:\n            /* \"#utility.yul\":503:510   */\n          0x00\n            /* \"#utility.yul\":532:556   */\n          tag_34\n            /* \"#utility.yul\":550:555   */\n          dup3\n            /* \"#utility.yul\":532:556   */\n          tag_20\n          jump\t// in\n        tag_34:\n            /* \"#utility.yul\":521:556   */\n          swap1\n          pop\n            /* \"#utility.yul\":466:562   */\n          swap2\n          swap1\n          pop\n          jump\t// out\n            /* \"#utility.yul\":568:690   */\n        tag_22:\n            /* \"#utility.yul\":641:665   */\n          tag_36\n            /* \"#utility.yul\":659:664   */\n          dup2\n            /* \"#utility.yul\":641:665   */\n          tag_21\n          jump\t// in\n        tag_36:\n            /* \"#utility.yul\":634:639   */\n          dup2\n            /* \"#utility.yul\":631:666   */\n          eq\n            /* \"#utility.yul\":621:684   */\n          tag_37\n          jumpi\n            /* \"#utility.yul\":680:681   */\n          0x00\n            /* \"#utility.yul\":677:678   */\n          0x00\n            /* \"#utility.yul\":670:682   */\n          revert\n            /* \"#utility.yul\":621:684   */\n        tag_37:\n            /* \"#utility.yul\":568:690   */\n          pop\n          jump\t// out\n            /* \"#utility.yul\":696:839   */\n        tag_23:\n            /* \"#utility.yul\":753:758   */\n          0x00\n            /* \"#utility.yul\":784:790   */\n          dup2\n            /* \"#utility.yul\":778:791   */\n          mload\n            /* \"#utility.yul\":769:791   */\n          swap1\n          pop\n            /* \"#utility.yul\":800:833   */\n          tag_39\n            /* \"#utility.yul\":827:832   */\n          dup2\n            /* \"#utility.yul\":800:833   */\n          tag_22\n          jump\t// in\n        tag_39:\n            /* \"#utility.yul\":696:839   */\n          swap3\n          swap2\n          pop\n          pop\n          jump\t// out\n            /* \"#utility.yul\":845:946   */\n        tag_24:\n            /* \"#utility.yul\":881:888   */\n          0x00\n            /* \"#utility.yul\":921:939   */\n          0xffffffffffffffff\n            /* \"#utility.yul\":914:919   */\n          dup3\n            /* \"#utility.yul\":910:940   */\n          and\n            /* \"#utility.yul\":899:940   */\n          swap1\n          pop\n            /* \"#utility.yul\":845:946   */\n          swap2\n          swap1\n          pop\n          jump\t// out\n            /* \"#utility.yul\":952:1072   */\n        tag_25:\n            /* \"#utility.yul\":1024:1047   */\n          tag_42\n            /* \"#utility.yul\":1041:1046   */\n          dup2\n            /* \"#utility.yul\":1024:1047   */\n          tag_24\n          jump\t// in\n        tag_42:\n            /* \"#utility.yul\":1017:1022   */\n          dup2\n            /* \"#utility.yul\":1014:1048   */\n          eq\n            /* \"#utility.yul\":1004:1066   */\n          tag_43\n          jumpi\n            /* \"#utility.yul\":1062:1063   */\n          0x00\n            /* \"#utility.yul\":1059:1060   */\n          0x00\n            /* \"#utility.yul\":1052:1064   */\n          revert\n            /* \"#utility.yul\":1004:1066   */\n        tag_43:\n            /* \"#utility.yul\":952:1072   */\n          pop\n          jump\t// out\n            /* \"#utility.yul\":1078:1219   */\n        tag_26:\n            /* \"#utility.yul\":1134:1139   */\n          0x00\n            /* \"#utility.yul\":1165:1171   */\n          dup2\n            /* \"#utility.yul\":1159:1172   */\n          mload\n            /* \"#utility.yul\":1150:1172   */\n          swap1\n          pop\n            /* \"#utility.yul\":1181:1213   */\n          tag_45\n            /* \"#utility.yul\":1207:1212   */\n          dup2\n            /* \"#utility.yul\":1181:1213   */\n          tag_25\n          jump\t// in\n        tag_45:\n            /* \"#utility.yul\":1078:1219   */\n          swap3\n          swap2\n          pop\n          pop\n          jump\t// out\n            /* \"#utility.yul\":1225:1884   */\n        tag_3:\n            /* \"#utility.yul\":1311:1317   */\n          0x00\n            /* \"#utility.yul\":1319:1325   */\n          0x00\n            /* \"#utility.yul\":1327:1333   */\n          0x00\n            /* \"#utility.yul\":1376:1378   */\n          0x60\n            /* \"#utility.yul\":1364:1373   */\n          dup5\n            /* \"#utility.yul\":1355:1362   */\n          dup7\n            /* \"#utility.yul\":1351:1374   */\n          sub\n            /* \"#utility.yul\":1347:1379   */\n          slt\n            /* \"#utility.yul\":1344:1463   */\n          iszero\n          tag_47\n          jumpi\n            /* \"#utility.yul\":1382:1461   */\n          tag_48\n          tag_18\n          jump\t// in\n        tag_48:\n            /* \"#utility.yul\":1344:1463   */\n        tag_47:\n            /* \"#utility.yul\":1502:1503   */\n          0x00\n            /* \"#utility.yul\":1527:1591   */\n          tag_49\n            /* \"#utility.yul\":1583:1590   */\n          dup7\n            /* \"#utility.yul\":1574:1580   */\n          dup3\n            /* \"#utility.yul\":1563:1572   */\n          dup8\n            /* \"#utility.yul\":1559:1581   */\n          add\n            /* \"#utility.yul\":1527:1591   */\n          tag_23\n          jump\t// in\n        tag_49:\n            /* \"#utility.yul\":1517:1591   */\n          swap4\n          pop\n            /* \"#utility.yul\":1473:1601   */\n          pop\n            /* \"#utility.yul\":1640:1642   */\n          0x20\n            /* \"#utility.yul\":1666:1729   */\n          tag_50\n            /* \"#utility.yul\":1721:1728   */\n          dup7\n            /* \"#utility.yul\":1712:1718   */\n          dup3\n            /* \"#utility.yul\":1701:1710   */\n          dup8\n            /* \"#utility.yul\":1697:1719   */\n          add\n            /* \"#utility.yul\":1666:1729   */\n          tag_26\n          jump\t// in\n        tag_50:\n            /* \"#utility.yul\":1656:1729   */\n          swap3\n          pop\n            /* \"#utility.yul\":1611:1739   */\n          pop\n            /* \"#utility.yul\":1778:1780   */\n          0x40\n            /* \"#utility.yul\":1804:1867   */\n          tag_51\n            /* \"#utility.yul\":1859:1866   */\n          dup7\n            /* \"#utility.yul\":1850:1856   */\n          dup3\n            /* \"#utility.yul\":1839:1848   */\n          dup8\n            /* \"#utility.yul\":1835:1857   */\n          add\n            /* \"#utility.yul\":1804:1867   */\n          tag_26\n          jump\t// in\n        tag_51:\n            /* \"#utility.yul\":1794:1867   */\n          swap2\n          pop\n            /* \"#utility.yul\":1749:1877   */\n          pop\n            /* \"#utility.yul\":1225:1884   */\n          swap3\n          pop\n          swap3\n          pop\n          swap3\n          jump\t// out\n            /* \"#utility.yul\":1890:2008   */\n        tag_27:\n            /* \"#utility.yul\":1977:2001   */\n          tag_53\n            /* \"#utility.yul\":1995:2000   */\n          dup2\n            /* \"#utility.yul\":1977:2001   */\n          tag_21\n          jump\t// in\n        tag_53:\n            /* \"#utility.yul\":1972:1975   */\n          dup3\n            /* \"#utility.yul\":1965:2002   */\n          mstore\n            /* \"#utility.yul\":1890:2008   */\n          pop\n          pop\n          jump\t// out\n            /* \"#utility.yul\":2014:2236   */\n        tag_10:\n            /* \"#utility.yul\":2107:2111   */\n          0x00\n            /* \"#utility.yul\":2145:2147   */\n          0x20\n            /* \"#utility.yul\":2134:2143   */\n          dup3\n            /* \"#utility.yul\":2130:2148   */\n          add\n            /* \"#utility.yul\":2122:2148   */\n          swap1\n          pop\n            /* \"#utility.yul\":2158:2229   */\n          tag_55\n            /* \"#utility.yul\":2226:2227   */\n          0x00\n            /* \"#utility.yul\":2215:2224   */\n          dup4\n            /* \"#utility.yul\":2211:2228   */\n          add\n            /* \"#utility.yul\":2202:2208   */\n          dup5\n            /* \"#utility.yul\":2158:2229   */\n          tag_27\n          jump\t// in\n        tag_55:\n            /* \"#utility.yul\":2014:2236   */\n          swap3\n          swap2\n          pop\n          pop\n          jump\t// out\n            /* \"kash_vesting.sol\":293:517  contract KashVestingWallet is VestingWallet {... */\n        tag_15:\n          mload(0x80)\n          mload(0xa0)\n          codecopy(0x00, dataOffset(sub_0), dataSize(sub_0))\n          0x00\n          assignImmutable(\"0x6784108628bb46ca38406981c15d3f445c08955c04dc23f14d7a923bbb24a527\")\n          0x00\n          assignImmutable(\"0x87e4a1e230d69aed738e0c9dbdd11ea7f3dbad5efaf4648a5c527fab26e0c43e\")\n          return(0x00, dataSize(sub_0))\n        stop\n\n        sub_0: assembly {\n                /* \"kash_vesting.sol\":293:517  contract KashVestingWallet is VestingWallet {... */\n              mstore(0x40, 0x80)\n              jumpi(tag_1, lt(calldatasize, 0x04))\n              shr(0xe0, calldataload(0x00))\n              dup1\n              0x96132521\n              gt\n              tag_17\n              jumpi\n              dup1\n              0xbe9a6555\n              gt\n              tag_18\n              jumpi\n              dup1\n              0xbe9a6555\n              eq\n              tag_13\n              jumpi\n              dup1\n              0xefbe1c1c\n              eq\n              tag_14\n              jumpi\n              dup1\n              0xf2fde38b\n              eq\n              tag_15\n              jumpi\n              dup1\n              0xfbccedae\n              eq\n              tag_16\n              jumpi\n              jump(tag_2)\n            tag_18:\n              dup1\n              0x96132521\n              eq\n              tag_10\n              jumpi\n              dup1\n              0x9852595c\n              eq\n              tag_11\n              jumpi\n              dup1\n              0xa3f8eace\n              eq\n              tag_12\n              jumpi\n              jump(tag_2)\n            tag_17:\n              dup1\n              0x715018a6\n              gt\n              tag_19\n              jumpi\n              dup1\n              0x715018a6\n              eq\n              tag_6\n              jumpi\n              dup1\n              0x810ec23b\n              eq\n              tag_7\n              jumpi\n              dup1\n              0x86d1a69f\n              eq\n              tag_8\n              jumpi\n              dup1\n              0x8da5cb5b\n              eq\n              tag_9\n              jumpi\n              jump(tag_2)\n            tag_19:\n              dup1\n              0x0a17b06b\n              eq\n              tag_3\n              jumpi\n              dup1\n              0x0fb5a6b4\n              eq\n              tag_4\n              jumpi\n              dup1\n              0x19165587\n              eq\n              tag_5\n              jumpi\n              jump(tag_2)\n            tag_1:\n              jumpi(tag_2, calldatasize)\n              stop\n            tag_2:\n              revert(0x00, 0x00)\n                /* \"@openzeppelin/contracts/finance/VestingWallet.sol\":4997:5162  function vestedAmount(uint64 timestamp) public view virtual returns (uint256) {... */\n            tag_3:\n              callvalue\n              dup1\n              iszero\n              tag_22\n              jumpi\n              revert(0x00, 0x00)\n            tag_22:\n              pop\n              tag_23\n              0x04\n              dup1\n              calldatasize\n              sub\n              dup2\n              add\n              swap1\n              tag_24\n              swap2\n              swap1\n              tag_25\n              jump\t// in\n            tag_24:\n              tag_26\n              jump\t// in\n            tag_23:\n              mload(0x40)\n              tag_27\n              swap2\n              swap1\n              tag_28\n              jump\t// in\n            tag_27:\n              mload(0x40)\n              dup1\n              swap2\n              sub\n              swap1\n              return\n                /* \"@openzeppelin/contracts/finance/VestingWallet.sol\":3044:3135  function duration() public view virtual returns (uint256) {... */\n            tag_4:\n              callvalue\n              dup1\n              iszero\n              tag_29\n              jumpi\n              revert(0x00, 0x00)\n            tag_29:\n              pop\n              tag_30\n              tag_31\n              jump\t// in\n            tag_30:\n              mload(0x40)\n              tag_32\n              swap2\n              swap1\n              tag_28\n              jump\t// in\n            tag_32:\n              mload(0x40)\n              dup1\n              swap2\n              sub\n              swap1\n              return\n                /* \"@openzeppelin/contracts/finance/VestingWallet.sol\":4611:4857  function release(address token) public virtual {... */\n            tag_5:\n              callvalue\n              dup1\n              iszero\n              tag_33\n              jumpi\n              revert(0x00, 0x00)\n            tag_33:\n              pop\n              tag_34\n              0x04\n              dup1\n              calldatasize\n              sub\n              dup2\n              add\n              swap1\n              tag_35\n              swap2\n              swap1\n              tag_36\n              jump\t// in\n            tag_35:\n              tag_37\n              jump\t// in\n            tag_34:\n              stop\n                /* \"@openzeppelin/contracts/access/Ownable.sol\":2293:2394  function renounceOwnership() public virtual onlyOwner {... */\n            tag_6:\n              callvalue\n              dup1\n              iszero\n              tag_38\n              jumpi\n              revert(0x00, 0x00)\n            tag_38:\n              pop\n              tag_39\n              tag_40\n              jump\t// in\n            tag_39:\n              stop\n                /* \"@openzeppelin/contracts/finance/VestingWallet.sol\":5303:5505  function vestedAmount(address token, uint64 timestamp) public view virtual returns (uint256) {... */\n            tag_7:\n              callvalue\n              dup1\n              iszero\n              tag_41\n              jumpi\n              revert(0x00, 0x00)\n            tag_41:\n              pop\n              tag_42\n              0x04\n              dup1\n              calldatasize\n              sub\n              dup2\n              add\n              swap1\n              tag_43\n              swap2\n              swap1\n              tag_44\n              jump\t// in\n            tag_43:\n              tag_45\n              jump\t// in\n            tag_42:\n              mload(0x40)\n              tag_46\n              swap2\n              swap1\n              tag_28\n              jump\t// in\n            tag_46:\n              mload(0x40)\n              dup1\n              swap2\n              sub\n              swap1\n              return\n                /* \"@openzeppelin/contracts/finance/VestingWallet.sol\":4289:4487  function release() public virtual {... */\n            tag_8:\n              callvalue\n              dup1\n              iszero\n              tag_47\n              jumpi\n              revert(0x00, 0x00)\n            tag_47:\n              pop\n              tag_48\n              tag_49\n              jump\t// in\n            tag_48:\n              stop\n                /* \"@openzeppelin/contracts/access/Ownable.sol\":1638:1723  function owner() public view virtual returns (address) {... */\n            tag_9:\n              callvalue\n              dup1\n              iszero\n              tag_50\n              jumpi\n              revert(0x00, 0x00)\n            tag_50:\n              pop\n              tag_51\n              tag_52\n              jump\t// in\n            tag_51:\n              mload(0x40)\n              tag_53\n              swap2\n              swap1\n              tag_54\n              jump\t// in\n            tag_53:\n              mload(0x40)\n              dup1\n              swap2\n              sub\n              swap1\n              return\n                /* \"@openzeppelin/contracts/finance/VestingWallet.sol\":3361:3452  function released() public view virtual returns (uint256) {... */\n            tag_10:\n              callvalue\n              dup1\n              iszero\n              tag_55\n              jumpi\n              revert(0x00, 0x00)\n            tag_55:\n              pop\n              tag_56\n              tag_57\n              jump\t// in\n            tag_56:\n              mload(0x40)\n              tag_58\n              swap2\n              swap1\n              tag_28\n              jump\t// in\n            tag_58:\n              mload(0x40)\n              dup1\n              swap2\n              sub\n              swap1\n              return\n                /* \"@openzeppelin/contracts/finance/VestingWallet.sol\":3519:3635  function released(address token) public view virtual returns (uint256) {... */\n            tag_11:\n              callvalue\n              dup1\n              iszero\n              tag_59\n              jumpi\n              revert(0x00, 0x00)\n            tag_59:\n              pop\n              tag_60\n              0x04\n              dup1\n              calldatasize\n              sub\n              dup2\n              add\n              swap1\n              tag_61\n              swap2\n              swap1\n              tag_36\n              jump\t// in\n            tag_61:\n              tag_62\n              jump\t// in\n            tag_60:\n              mload(0x40)\n              tag_63\n              swap2\n              swap1\n              tag_28\n              jump\t// in\n            tag_63:\n              mload(0x40)\n              dup1\n              swap2\n              sub\n              swap1\n              return\n                /* \"@openzeppelin/contracts/finance/VestingWallet.sol\":3992:4151  function releasable(address token) public view virtual returns (uint256) {... */\n            tag_12:\n              callvalue\n              dup1\n              iszero\n              tag_64\n              jumpi\n              revert(0x00, 0x00)\n            tag_64:\n              pop\n              tag_65\n              0x04\n              dup1\n              calldatasize\n              sub\n              dup2\n              add\n              swap1\n              tag_66\n              swap2\n              swap1\n              tag_36\n              jump\t// in\n            tag_66:\n              tag_67\n              jump\t// in\n            tag_65:\n              mload(0x40)\n              tag_68\n              swap2\n              swap1\n              tag_28\n              jump\t// in\n            tag_68:\n              mload(0x40)\n              dup1\n              swap2\n              sub\n              swap1\n              return\n                /* \"@openzeppelin/contracts/finance/VestingWallet.sol\":2892:2977  function start() public view virtual returns (uint256) {... */\n            tag_13:\n              callvalue\n              dup1\n              iszero\n              tag_69\n              jumpi\n              revert(0x00, 0x00)\n            tag_69:\n              pop\n              tag_70\n              tag_71\n              jump\t// in\n            tag_70:\n              mload(0x40)\n              tag_72\n              swap2\n              swap1\n              tag_28\n              jump\t// in\n            tag_72:\n              mload(0x40)\n              dup1\n              swap2\n              sub\n              swap1\n              return\n                /* \"@openzeppelin/contracts/finance/VestingWallet.sol\":3199:3296  function end() public view virtual returns (uint256) {... */\n            tag_14:\n              callvalue\n              dup1\n              iszero\n              tag_73\n              jumpi\n              revert(0x00, 0x00)\n            tag_73:\n              pop\n              tag_74\n              tag_75\n              jump\t// in\n            tag_74:\n              mload(0x40)\n              tag_76\n              swap2\n              swap1\n              tag_28\n              jump\t// in\n            tag_76:\n              mload(0x40)\n              dup1\n              swap2\n              sub\n              swap1\n              return\n                /* \"@openzeppelin/contracts/access/Ownable.sol\":2543:2758  function transferOwnership(address newOwner) public virtual onlyOwner {... */\n            tag_15:\n              callvalue\n              dup1\n              iszero\n              tag_77\n              jumpi\n              revert(0x00, 0x00)\n            tag_77:\n              pop\n              tag_78\n              0x04\n              dup1\n              calldatasize\n              sub\n              dup2\n              add\n              swap1\n              tag_79\n              swap2\n              swap1\n              tag_36\n              jump\t// in\n            tag_79:\n              tag_80\n              jump\t// in\n            tag_78:\n              stop\n                /* \"@openzeppelin/contracts/finance/VestingWallet.sol\":3710:3844  function releasable() public view virtual returns (uint256) {... */\n            tag_16:\n              callvalue\n              dup1\n              iszero\n              tag_81\n              jumpi\n              revert(0x00, 0x00)\n            tag_81:\n              pop\n              tag_82\n              tag_83\n              jump\t// in\n            tag_82:\n              mload(0x40)\n              tag_84\n              swap2\n              swap1\n              tag_28\n              jump\t// in\n            tag_84:\n              mload(0x40)\n              dup1\n              swap2\n              sub\n              swap1\n              return\n                /* \"@openzeppelin/contracts/finance/VestingWallet.sol\":4997:5162  function vestedAmount(uint64 timestamp) public view virtual returns (uint256) {... */\n            tag_26:\n                /* \"@openzeppelin/contracts/finance/VestingWallet.sol\":5066:5073  uint256 */\n              0x00\n                /* \"@openzeppelin/contracts/finance/VestingWallet.sol\":5092:5155  _vestingSchedule(address(this).balance + released(), timestamp) */\n              tag_86\n                /* \"@openzeppelin/contracts/finance/VestingWallet.sol\":5133:5143  released() */\n              tag_87\n                /* \"@openzeppelin/contracts/finance/VestingWallet.sol\":5133:5141  released */\n              tag_57\n                /* \"@openzeppelin/contracts/finance/VestingWallet.sol\":5133:5143  released() */\n              jump\t// in\n            tag_87:\n                /* \"@openzeppelin/contracts/finance/VestingWallet.sol\":5109:5130  address(this).balance */\n              selfbalance\n                /* \"@openzeppelin/contracts/finance/VestingWallet.sol\":5109:5143  address(this).balance + released() */\n              tag_88\n              swap2\n              swap1\n              tag_89\n              jump\t// in\n            tag_88:\n                /* \"@openzeppelin/contracts/finance/VestingWallet.sol\":5145:5154  timestamp */\n              dup4\n                /* \"@openzeppelin/contracts/finance/VestingWallet.sol\":5092:5108  _vestingSchedule */\n              tag_90\n                /* \"@openzeppelin/contracts/finance/VestingWallet.sol\":5092:5155  _vestingSchedule(address(this).balance + released(), timestamp) */\n              jump\t// in\n            tag_86:\n                /* \"@openzeppelin/contracts/finance/VestingWallet.sol\":5085:5155  return _vestingSchedule(address(this).balance + released(), timestamp) */\n              swap1\n              pop\n                /* \"@openzeppelin/contracts/finance/VestingWallet.sol\":4997:5162  function vestedAmount(uint64 timestamp) public view virtual returns (uint256) {... */\n              swap2\n              swap1\n              pop\n              jump\t// out\n                /* \"@openzeppelin/contracts/finance/VestingWallet.sol\":3044:3135  function duration() public view virtual returns (uint256) {... */\n            tag_31:\n                /* \"@openzeppelin/contracts/finance/VestingWallet.sol\":3093:3100  uint256 */\n              0x00\n                /* \"@openzeppelin/contracts/finance/VestingWallet.sol\":3119:3128  _duration */\n              immutable(\"0x6784108628bb46ca38406981c15d3f445c08955c04dc23f14d7a923bbb24a527\")\n                /* \"@openzeppelin/contracts/finance/VestingWallet.sol\":3112:3128  return _duration */\n              0xffffffffffffffff\n              and\n              swap1\n              pop\n                /* \"@openzeppelin/contracts/finance/VestingWallet.sol\":3044:3135  function duration() public view virtual returns (uint256) {... */\n              swap1\n              jump\t// out\n                /* \"@openzeppelin/contracts/finance/VestingWallet.sol\":4611:4857  function release(address token) public virtual {... */\n            tag_37:\n                /* \"@openzeppelin/contracts/finance/VestingWallet.sol\":4668:4682  uint256 amount */\n              0x00\n                /* \"@openzeppelin/contracts/finance/VestingWallet.sol\":4685:4702  releasable(token) */\n              tag_93\n                /* \"@openzeppelin/contracts/finance/VestingWallet.sol\":4696:4701  token */\n              dup3\n                /* \"@openzeppelin/contracts/finance/VestingWallet.sol\":4685:4695  releasable */\n              tag_67\n                /* \"@openzeppelin/contracts/finance/VestingWallet.sol\":4685:4702  releasable(token) */\n              jump\t// in\n            tag_93:\n                /* \"@openzeppelin/contracts/finance/VestingWallet.sol\":4668:4702  uint256 amount = releasable(token) */\n              swap1\n              pop\n                /* \"@openzeppelin/contracts/finance/VestingWallet.sol\":4737:4743  amount */\n              dup1\n                /* \"@openzeppelin/contracts/finance/VestingWallet.sol\":4712:4726  _erc20Released */\n              0x02\n                /* \"@openzeppelin/contracts/finance/VestingWallet.sol\":4712:4733  _erc20Released[token] */\n              0x00\n                /* \"@openzeppelin/contracts/finance/VestingWallet.sol\":4727:4732  token */\n              dup5\n                /* \"@openzeppelin/contracts/finance/VestingWallet.sol\":4712:4733  _erc20Released[token] */\n              0xffffffffffffffffffffffffffffffffffffffff\n              and\n              0xffffffffffffffffffffffffffffffffffffffff\n              and\n              dup2\n              mstore\n              0x20\n              add\n              swap1\n              dup2\n              mstore\n              0x20\n              add\n              0x00\n              keccak256\n              0x00\n                /* \"@openzeppelin/contracts/finance/VestingWallet.sol\":4712:4743  _erc20Released[token] += amount */\n              dup3\n              dup3\n              sload\n              tag_94\n              swap2\n              swap1\n              tag_89\n              jump\t// in\n            tag_94:\n              swap3\n              pop\n              pop\n              dup2\n              swap1\n              sstore\n              pop\n                /* \"@openzeppelin/contracts/finance/VestingWallet.sol\":4772:4777  token */\n              dup2\n                /* \"@openzeppelin/contracts/finance/VestingWallet.sol\":4758:4786  ERC20Released(token, amount) */\n              0xffffffffffffffffffffffffffffffffffffffff\n              and\n              0xc0e523490dd523c33b1878c9eb14ff46991e3f5b2cd33710918618f2a39cba1b\n                /* \"@openzeppelin/contracts/finance/VestingWallet.sol\":4779:4785  amount */\n              dup3\n                /* \"@openzeppelin/contracts/finance/VestingWallet.sol\":4758:4786  ERC20Released(token, amount) */\n              mload(0x40)\n              tag_95\n              swap2\n              swap1\n              tag_28\n              jump\t// in\n            tag_95:\n              mload(0x40)\n              dup1\n              swap2\n              sub\n              swap1\n              log2\n                /* \"@openzeppelin/contracts/finance/VestingWallet.sol\":4796:4850  SafeERC20.safeTransfer(IERC20(token), owner(), amount) */\n              tag_96\n                /* \"@openzeppelin/contracts/finance/VestingWallet.sol\":4826:4831  token */\n              dup3\n                /* \"@openzeppelin/contracts/finance/VestingWallet.sol\":4834:4841  owner() */\n              tag_97\n                /* \"@openzeppelin/contracts/finance/VestingWallet.sol\":4834:4839  owner */\n              tag_52\n                /* \"@openzeppelin/contracts/finance/VestingWallet.sol\":4834:4841  owner() */\n              jump\t// in\n            tag_97:\n                /* \"@openzeppelin/contracts/finance/VestingWallet.sol\":4843:4849  amount */\n              dup4\n                /* \"@openzeppelin/contracts/finance/VestingWallet.sol\":4796:4818  SafeERC20.safeTransfer */\n              tag_98\n                /* \"@openzeppelin/contracts/finance/VestingWallet.sol\":4796:4850  SafeERC20.safeTransfer(IERC20(token), owner(), amount) */\n              jump\t// in\n            tag_96:\n                /* \"@openzeppelin/contracts/finance/VestingWallet.sol\":4658:4857  {... */\n              pop\n                /* \"@openzeppelin/contracts/finance/VestingWallet.sol\":4611:4857  function release(address token) public virtual {... */\n              pop\n              jump\t// out\n                /* \"@openzeppelin/contracts/access/Ownable.sol\":2293:2394  function renounceOwnership() public virtual onlyOwner {... */\n            tag_40:\n                /* \"@openzeppelin/contracts/access/Ownable.sol\":1531:1544  _checkOwner() */\n              tag_100\n                /* \"@openzeppelin/contracts/access/Ownable.sol\":1531:1542  _checkOwner */\n              tag_101\n                /* \"@openzeppelin/contracts/access/Ownable.sol\":1531:1544  _checkOwner() */\n              jump\t// in\n            tag_100:\n                /* \"@openzeppelin/contracts/access/Ownable.sol\":2357:2387  _transferOwnership(address(0)) */\n              tag_103\n                /* \"@openzeppelin/contracts/access/Ownable.sol\":2384:2385  0 */\n              0x00\n                /* \"@openzeppelin/contracts/access/Ownable.sol\":2357:2375  _transferOwnership */\n              tag_104\n                /* \"@openzeppelin/contracts/access/Ownable.sol\":2357:2387  _transferOwnership(address(0)) */\n              jump\t// in\n            tag_103:\n                /* \"@openzeppelin/contracts/access/Ownable.sol\":2293:2394  function renounceOwnership() public virtual onlyOwner {... */\n              jump\t// out\n                /* \"@openzeppelin/contracts/finance/VestingWallet.sol\":5303:5505  function vestedAmount(address token, uint64 timestamp) public view virtual returns (uint256) {... */\n            tag_45:\n                /* \"@openzeppelin/contracts/finance/VestingWallet.sol\":5387:5394  uint256 */\n              0x00\n                /* \"@openzeppelin/contracts/finance/VestingWallet.sol\":5413:5498  _vestingSchedule(IERC20(token).balanceOf(address(this)) + released(token), timestamp) */\n              tag_106\n                /* \"@openzeppelin/contracts/finance/VestingWallet.sol\":5471:5486  released(token) */\n              tag_107\n                /* \"@openzeppelin/contracts/finance/VestingWallet.sol\":5480:5485  token */\n              dup5\n                /* \"@openzeppelin/contracts/finance/VestingWallet.sol\":5471:5479  released */\n              tag_62\n                /* \"@openzeppelin/contracts/finance/VestingWallet.sol\":5471:5486  released(token) */\n              jump\t// in\n            tag_107:\n                /* \"@openzeppelin/contracts/finance/VestingWallet.sol\":5437:5442  token */\n              dup5\n                /* \"@openzeppelin/contracts/finance/VestingWallet.sol\":5430:5453  IERC20(token).balanceOf */\n              0xffffffffffffffffffffffffffffffffffffffff\n              and\n              0x70a08231\n                /* \"@openzeppelin/contracts/finance/VestingWallet.sol\":5462:5466  this */\n              address\n                /* \"@openzeppelin/contracts/finance/VestingWallet.sol\":5430:5468  IERC20(token).balanceOf(address(this)) */\n              mload(0x40)\n              dup3\n              0xffffffff\n              and\n              0xe0\n              shl\n              dup2\n              mstore\n              0x04\n              add\n              tag_108\n              swap2\n              swap1\n              tag_54\n              jump\t// in\n            tag_108:\n              0x20\n              mload(0x40)\n              dup1\n              dup4\n              sub\n              dup2\n              dup7\n              gas\n              staticcall\n              iszero\n              dup1\n              iszero\n              tag_110\n              jumpi\n              returndatacopy(0x00, 0x00, returndatasize)\n              revert(0x00, returndatasize)\n            tag_110:\n              pop\n              pop\n              pop\n              pop\n              mload(0x40)\n              returndatasize\n              not(0x1f)\n              0x1f\n              dup3\n              add\n              and\n              dup3\n              add\n              dup1\n              0x40\n              mstore\n              pop\n              dup2\n              add\n              swap1\n              tag_111\n              swap2\n              swap1\n              tag_112\n              jump\t// in\n            tag_111:\n                /* \"@openzeppelin/contracts/finance/VestingWallet.sol\":5430:5486  IERC20(token).balanceOf(address(this)) + released(token) */\n              tag_113\n              swap2\n              swap1\n              tag_89\n              jump\t// in\n            tag_113:\n                /* \"@openzeppelin/contracts/finance/VestingWallet.sol\":5488:5497  timestamp */\n              dup4\n                /* \"@openzeppelin/contracts/finance/VestingWallet.sol\":5413:5429  _vestingSchedule */\n              tag_90\n                /* \"@openzeppelin/contracts/finance/VestingWallet.sol\":5413:5498  _vestingSchedule(IERC20(token).balanceOf(address(this)) + released(token), timestamp) */\n              jump\t// in\n            tag_106:\n                /* \"@openzeppelin/contracts/finance/VestingWallet.sol\":5406:5498  return _vestingSchedule(IERC20(token).balanceOf(address(this)) + released(token), timestamp) */\n              swap1\n              pop\n                /* \"@openzeppelin/contracts/finance/VestingWallet.sol\":5303:5505  function vestedAmount(address token, uint64 timestamp) public view virtual returns (uint256) {... */\n              swap3\n              swap2\n              pop\n              pop\n              jump\t// out\n                /* \"@openzeppelin/contracts/finance/VestingWallet.sol\":4289:4487  function release() public virtual {... */\n            tag_49:\n                /* \"@openzeppelin/contracts/finance/VestingWallet.sol\":4333:4347  uint256 amount */\n              0x00\n                /* \"@openzeppelin/contracts/finance/VestingWallet.sol\":4350:4362  releasable() */\n              tag_115\n                /* \"@openzeppelin/contracts/finance/VestingWallet.sol\":4350:4360  releasable */\n              tag_83\n                /* \"@openzeppelin/contracts/finance/VestingWallet.sol\":4350:4362  releasable() */\n              jump\t// in\n            tag_115:\n                /* \"@openzeppelin/contracts/finance/VestingWallet.sol\":4333:4362  uint256 amount = releasable() */\n              swap1\n              pop\n                /* \"@openzeppelin/contracts/finance/VestingWallet.sol\":4385:4391  amount */\n              dup1\n                /* \"@openzeppelin/contracts/finance/VestingWallet.sol\":4372:4381  _released */\n              0x01\n              0x00\n                /* \"@openzeppelin/contracts/finance/VestingWallet.sol\":4372:4391  _released += amount */\n              dup3\n              dup3\n              sload\n              tag_116\n              swap2\n              swap1\n              tag_89\n              jump\t// in\n            tag_116:\n              swap3\n              pop\n              pop\n              dup2\n              swap1\n              sstore\n              pop\n                /* \"@openzeppelin/contracts/finance/VestingWallet.sol\":4406:4427  EtherReleased(amount) */\n              0xda9d4e5f101b8b9b1c5b76d0c5a9f7923571acfc02376aa076b75a8c080c956b\n                /* \"@openzeppelin/contracts/finance/VestingWallet.sol\":4420:4426  amount */\n              dup2\n                /* \"@openzeppelin/contracts/finance/VestingWallet.sol\":4406:4427  EtherReleased(amount) */\n              mload(0x40)\n              tag_117\n              swap2\n              swap1\n              tag_28\n              jump\t// in\n            tag_117:\n              mload(0x40)\n              dup1\n              swap2\n              sub\n              swap1\n              log1\n                /* \"@openzeppelin/contracts/finance/VestingWallet.sol\":4437:4480  Address.sendValue(payable(owner()), amount) */\n              tag_118\n                /* \"@openzeppelin/contracts/finance/VestingWallet.sol\":4463:4470  owner() */\n              tag_119\n                /* \"@openzeppelin/contracts/finance/VestingWallet.sol\":4463:4468  owner */\n              tag_52\n                /* \"@openzeppelin/contracts/finance/VestingWallet.sol\":4463:4470  owner() */\n              jump\t// in\n            tag_119:\n                /* \"@openzeppelin/contracts/finance/VestingWallet.sol\":4473:4479  amount */\n              dup3\n                /* \"@openzeppelin/contracts/finance/VestingWallet.sol\":4437:4454  Address.sendValue */\n              tag_120\n                /* \"@openzeppelin/contracts/finance/VestingWallet.sol\":4437:4480  Address.sendValue(payable(owner()), amount) */\n              jump\t// in\n            tag_118:\n                /* \"@openzeppelin/contracts/finance/VestingWallet.sol\":4323:4487  {... */\n              pop\n                /* \"@openzeppelin/contracts/finance/VestingWallet.sol\":4289:4487  function release() public virtual {... */\n              jump\t// out\n                /* \"@openzeppelin/contracts/access/Ownable.sol\":1638:1723  function owner() public view virtual returns (address) {... */\n            tag_52:\n                /* \"@openzeppelin/contracts/access/Ownable.sol\":1684:1691  address */\n              0x00\n                /* \"@openzeppelin/contracts/access/Ownable.sol\":1710:1716  _owner */\n              0x00\n              0x00\n              swap1\n              sload\n              swap1\n              0x0100\n              exp\n              swap1\n              div\n              0xffffffffffffffffffffffffffffffffffffffff\n              and\n                /* \"@openzeppelin/contracts/access/Ownable.sol\":1703:1716  return _owner */\n              swap1\n              pop\n                /* \"@openzeppelin/contracts/access/Ownable.sol\":1638:1723  function owner() public view virtual returns (address) {... */\n              swap1\n              jump\t// out\n                /* \"@openzeppelin/contracts/finance/VestingWallet.sol\":3361:3452  function released() public view virtual returns (uint256) {... */\n            tag_57:\n                /* \"@openzeppelin/contracts/finance/VestingWallet.sol\":3410:3417  uint256 */\n              0x00\n                /* \"@openzeppelin/contracts/finance/VestingWallet.sol\":3436:3445  _released */\n              sload(0x01)\n                /* \"@openzeppelin/contracts/finance/VestingWallet.sol\":3429:3445  return _released */\n              swap1\n              pop\n                /* \"@openzeppelin/contracts/finance/VestingWallet.sol\":3361:3452  function released() public view virtual returns (uint256) {... */\n              swap1\n              jump\t// out\n                /* \"@openzeppelin/contracts/finance/VestingWallet.sol\":3519:3635  function released(address token) public view virtual returns (uint256) {... */\n            tag_62:\n                /* \"@openzeppelin/contracts/finance/VestingWallet.sol\":3581:3588  uint256 */\n              0x00\n                /* \"@openzeppelin/contracts/finance/VestingWallet.sol\":3607:3621  _erc20Released */\n              0x02\n                /* \"@openzeppelin/contracts/finance/VestingWallet.sol\":3607:3628  _erc20Released[token] */\n              0x00\n                /* \"@openzeppelin/contracts/finance/VestingWallet.sol\":3622:3627  token */\n              dup4\n                /* \"@openzeppelin/contracts/finance/VestingWallet.sol\":3607:3628  _erc20Released[token] */\n              0xffffffffffffffffffffffffffffffffffffffff\n              and\n              0xffffffffffffffffffffffffffffffffffffffff\n              and\n              dup2\n              mstore\n              0x20\n              add\n              swap1\n              dup2\n              mstore\n              0x20\n              add\n              0x00\n              keccak256\n              sload\n                /* \"@openzeppelin/contracts/finance/VestingWallet.sol\":3600:3628  return _erc20Released[token] */\n              swap1\n              pop\n                /* \"@openzeppelin/contracts/finance/VestingWallet.sol\":3519:3635  function released(address token) public view virtual returns (uint256) {... */\n              swap2\n              swap1\n              pop\n              jump\t// out\n                /* \"@openzeppelin/contracts/finance/VestingWallet.sol\":3992:4151  function releasable(address token) public view virtual returns (uint256) {... */\n            tag_67:\n                /* \"@openzeppelin/contracts/finance/VestingWallet.sol\":4056:4063  uint256 */\n              0x00\n                /* \"@openzeppelin/contracts/finance/VestingWallet.sol\":4129:4144  released(token) */\n              tag_125\n                /* \"@openzeppelin/contracts/finance/VestingWallet.sol\":4138:4143  token */\n              dup3\n                /* \"@openzeppelin/contracts/finance/VestingWallet.sol\":4129:4137  released */\n              tag_62\n                /* \"@openzeppelin/contracts/finance/VestingWallet.sol\":4129:4144  released(token) */\n              jump\t// in\n            tag_125:\n                /* \"@openzeppelin/contracts/finance/VestingWallet.sol\":4082:4126  vestedAmount(token, uint64(block.timestamp)) */\n              tag_126\n                /* \"@openzeppelin/contracts/finance/VestingWallet.sol\":4095:4100  token */\n              dup4\n                /* \"@openzeppelin/contracts/finance/VestingWallet.sol\":4109:4124  block.timestamp */\n              timestamp\n                /* \"@openzeppelin/contracts/finance/VestingWallet.sol\":4082:4094  vestedAmount */\n              tag_45\n                /* \"@openzeppelin/contracts/finance/VestingWallet.sol\":4082:4126  vestedAmount(token, uint64(block.timestamp)) */\n              jump\t// in\n            tag_126:\n                /* \"@openzeppelin/contracts/finance/VestingWallet.sol\":4082:4144  vestedAmount(token, uint64(block.timestamp)) - released(token) */\n              tag_127\n              swap2\n              swap1\n              tag_128\n              jump\t// in\n            tag_127:\n                /* \"@openzeppelin/contracts/finance/VestingWallet.sol\":4075:4144  return vestedAmount(token, uint64(block.timestamp)) - released(token) */\n              swap1\n              pop\n                /* \"@openzeppelin/contracts/finance/VestingWallet.sol\":3992:4151  function releasable(address token) public view virtual returns (uint256) {... */\n              swap2\n              swap1\n              pop\n              jump\t// out\n                /* \"@openzeppelin/contracts/finance/VestingWallet.sol\":2892:2977  function start() public view virtual returns (uint256) {... */\n            tag_71:\n                /* \"@openzeppelin/contracts/finance/VestingWallet.sol\":2938:2945  uint256 */\n              0x00\n                /* \"@openzeppelin/contracts/finance/VestingWallet.sol\":2964:2970  _start */\n              immutable(\"0x87e4a1e230d69aed738e0c9dbdd11ea7f3dbad5efaf4648a5c527fab26e0c43e\")\n                /* \"@openzeppelin/contracts/finance/VestingWallet.sol\":2957:2970  return _start */\n              0xffffffffffffffff\n              and\n              swap1\n              pop\n                /* \"@openzeppelin/contracts/finance/VestingWallet.sol\":2892:2977  function start() public view virtual returns (uint256) {... */\n              swap1\n              jump\t// out\n                /* \"@openzeppelin/contracts/finance/VestingWallet.sol\":3199:3296  function end() public view virtual returns (uint256) {... */\n            tag_75:\n                /* \"@openzeppelin/contracts/finance/VestingWallet.sol\":3243:3250  uint256 */\n              0x00\n                /* \"@openzeppelin/contracts/finance/VestingWallet.sol\":3279:3289  duration() */\n              tag_131\n                /* \"@openzeppelin/contracts/finance/VestingWallet.sol\":3279:3287  duration */\n              tag_31\n                /* \"@openzeppelin/contracts/finance/VestingWallet.sol\":3279:3289  duration() */\n              jump\t// in\n            tag_131:\n                /* \"@openzeppelin/contracts/finance/VestingWallet.sol\":3269:3276  start() */\n              tag_132\n                /* \"@openzeppelin/contracts/finance/VestingWallet.sol\":3269:3274  start */\n              tag_71\n                /* \"@openzeppelin/contracts/finance/VestingWallet.sol\":3269:3276  start() */\n              jump\t// in\n            tag_132:\n                /* \"@openzeppelin/contracts/finance/VestingWallet.sol\":3269:3289  start() + duration() */\n              tag_133\n              swap2\n              swap1\n              tag_89\n              jump\t// in\n            tag_133:\n                /* \"@openzeppelin/contracts/finance/VestingWallet.sol\":3262:3289  return start() + duration() */\n              swap1\n              pop\n                /* \"@openzeppelin/contracts/finance/VestingWallet.sol\":3199:3296  function end() public view virtual returns (uint256) {... */\n              swap1\n              jump\t// out\n                /* \"@openzeppelin/contracts/access/Ownable.sol\":2543:2758  function transferOwnership(address newOwner) public virtual onlyOwner {... */\n            tag_80:\n                /* \"@openzeppelin/contracts/access/Ownable.sol\":1531:1544  _checkOwner() */\n              tag_135\n                /* \"@openzeppelin/contracts/access/Ownable.sol\":1531:1542  _checkOwner */\n              tag_101\n                /* \"@openzeppelin/contracts/access/Ownable.sol\":1531:1544  _checkOwner() */\n              jump\t// in\n            tag_135:\n                /* \"@openzeppelin/contracts/access/Ownable.sol\":2647:2648  0 */\n              0x00\n                /* \"@openzeppelin/contracts/access/Ownable.sol\":2627:2649  newOwner == address(0) */\n              0xffffffffffffffffffffffffffffffffffffffff\n              and\n                /* \"@openzeppelin/contracts/access/Ownable.sol\":2627:2635  newOwner */\n              dup2\n                /* \"@openzeppelin/contracts/access/Ownable.sol\":2627:2649  newOwner == address(0) */\n              0xffffffffffffffffffffffffffffffffffffffff\n              and\n              sub\n                /* \"@openzeppelin/contracts/access/Ownable.sol\":2623:2714  if (newOwner == address(0)) {... */\n              tag_137\n              jumpi\n                /* \"@openzeppelin/contracts/access/Ownable.sol\":2700:2701  0 */\n              0x00\n                /* \"@openzeppelin/contracts/access/Ownable.sol\":2672:2703  OwnableInvalidOwner(address(0)) */\n              mload(0x40)\n              0x1e4fbdf700000000000000000000000000000000000000000000000000000000\n              dup2\n              mstore\n              0x04\n              add\n              tag_138\n              swap2\n              swap1\n              tag_54\n              jump\t// in\n            tag_138:\n              mload(0x40)\n              dup1\n              swap2\n              sub\n              swap1\n              revert\n                /* \"@openzeppelin/contracts/access/Ownable.sol\":2623:2714  if (newOwner == address(0)) {... */\n            tag_137:\n                /* \"@openzeppelin/contracts/access/Ownable.sol\":2723:2751  _transferOwnership(newOwner) */\n              tag_139\n                /* \"@openzeppelin/contracts/access/Ownable.sol\":2742:2750  newOwner */\n              dup2\n                /* \"@openzeppelin/contracts/access/Ownable.sol\":2723:2741  _transferOwnership */\n              tag_104\n                /* \"@openzeppelin/contracts/access/Ownable.sol\":2723:2751  _transferOwnership(newOwner) */\n              jump\t// in\n            tag_139:\n                /* \"@openzeppelin/contracts/access/Ownable.sol\":2543:2758  function transferOwnership(address newOwner) public virtual onlyOwner {... */\n              pop\n              jump\t// out\n                /* \"@openzeppelin/contracts/finance/VestingWallet.sol\":3710:3844  function releasable() public view virtual returns (uint256) {... */\n            tag_83:\n                /* \"@openzeppelin/contracts/finance/VestingWallet.sol\":3761:3768  uint256 */\n              0x00\n                /* \"@openzeppelin/contracts/finance/VestingWallet.sol\":3827:3837  released() */\n              tag_141\n                /* \"@openzeppelin/contracts/finance/VestingWallet.sol\":3827:3835  released */\n              tag_57\n                /* \"@openzeppelin/contracts/finance/VestingWallet.sol\":3827:3837  released() */\n              jump\t// in\n            tag_141:\n                /* \"@openzeppelin/contracts/finance/VestingWallet.sol\":3787:3824  vestedAmount(uint64(block.timestamp)) */\n              tag_142\n                /* \"@openzeppelin/contracts/finance/VestingWallet.sol\":3807:3822  block.timestamp */\n              timestamp\n                /* \"@openzeppelin/contracts/finance/VestingWallet.sol\":3787:3799  vestedAmount */\n              tag_26\n                /* \"@openzeppelin/contracts/finance/VestingWallet.sol\":3787:3824  vestedAmount(uint64(block.timestamp)) */\n              jump\t// in\n            tag_142:\n                /* \"@openzeppelin/contracts/finance/VestingWallet.sol\":3787:3837  vestedAmount(uint64(block.timestamp)) - released() */\n              tag_143\n              swap2\n              swap1\n              tag_128\n              jump\t// in\n            tag_143:\n                /* \"@openzeppelin/contracts/finance/VestingWallet.sol\":3780:3837  return vestedAmount(uint64(block.timestamp)) - released() */\n              swap1\n              pop\n                /* \"@openzeppelin/contracts/finance/VestingWallet.sol\":3710:3844  function releasable() public view virtual returns (uint256) {... */\n              swap1\n              jump\t// out\n                /* \"@openzeppelin/contracts/finance/VestingWallet.sol\":5700:6052  function _vestingSchedule(uint256 totalAllocation, uint64 timestamp) internal view virtual returns (uint256) {... */\n            tag_90:\n                /* \"@openzeppelin/contracts/finance/VestingWallet.sol\":5800:5807  uint256 */\n              0x00\n                /* \"@openzeppelin/contracts/finance/VestingWallet.sol\":5835:5842  start() */\n              tag_145\n                /* \"@openzeppelin/contracts/finance/VestingWallet.sol\":5835:5840  start */\n              tag_71\n                /* \"@openzeppelin/contracts/finance/VestingWallet.sol\":5835:5842  start() */\n              jump\t// in\n            tag_145:\n                /* \"@openzeppelin/contracts/finance/VestingWallet.sol\":5823:5832  timestamp */\n              dup3\n                /* \"@openzeppelin/contracts/finance/VestingWallet.sol\":5823:5842  timestamp < start() */\n              0xffffffffffffffff\n              and\n              lt\n                /* \"@openzeppelin/contracts/finance/VestingWallet.sol\":5819:6046  if (timestamp < start()) {... */\n              iszero\n              tag_146\n              jumpi\n                /* \"@openzeppelin/contracts/finance/VestingWallet.sol\":5865:5866  0 */\n              0x00\n                /* \"@openzeppelin/contracts/finance/VestingWallet.sol\":5858:5866  return 0 */\n              swap1\n              pop\n              jump(tag_144)\n                /* \"@openzeppelin/contracts/finance/VestingWallet.sol\":5819:6046  if (timestamp < start()) {... */\n            tag_146:\n                /* \"@openzeppelin/contracts/finance/VestingWallet.sol\":5900:5905  end() */\n              tag_148\n                /* \"@openzeppelin/contracts/finance/VestingWallet.sol\":5900:5903  end */\n              tag_75\n                /* \"@openzeppelin/contracts/finance/VestingWallet.sol\":5900:5905  end() */\n              jump\t// in\n            tag_148:\n                /* \"@openzeppelin/contracts/finance/VestingWallet.sol\":5887:5896  timestamp */\n              dup3\n                /* \"@openzeppelin/contracts/finance/VestingWallet.sol\":5887:5905  timestamp >= end() */\n              0xffffffffffffffff\n              and\n              lt\n                /* \"@openzeppelin/contracts/finance/VestingWallet.sol\":5883:6046  if (timestamp >= end()) {... */\n              tag_149\n              jumpi\n                /* \"@openzeppelin/contracts/finance/VestingWallet.sol\":5928:5943  totalAllocation */\n              dup3\n                /* \"@openzeppelin/contracts/finance/VestingWallet.sol\":5921:5943  return totalAllocation */\n              swap1\n              pop\n              jump(tag_144)\n                /* \"@openzeppelin/contracts/finance/VestingWallet.sol\":5883:6046  if (timestamp >= end()) {... */\n            tag_149:\n                /* \"@openzeppelin/contracts/finance/VestingWallet.sol\":6025:6035  duration() */\n              tag_151\n                /* \"@openzeppelin/contracts/finance/VestingWallet.sol\":6025:6033  duration */\n              tag_31\n                /* \"@openzeppelin/contracts/finance/VestingWallet.sol\":6025:6035  duration() */\n              jump\t// in\n            tag_151:\n                /* \"@openzeppelin/contracts/finance/VestingWallet.sol\":6013:6020  start() */\n              tag_152\n                /* \"@openzeppelin/contracts/finance/VestingWallet.sol\":6013:6018  start */\n              tag_71\n                /* \"@openzeppelin/contracts/finance/VestingWallet.sol\":6013:6020  start() */\n              jump\t// in\n            tag_152:\n                /* \"@openzeppelin/contracts/finance/VestingWallet.sol\":6001:6010  timestamp */\n              dup4\n                /* \"@openzeppelin/contracts/finance/VestingWallet.sol\":6001:6020  timestamp - start() */\n              0xffffffffffffffff\n              and\n              tag_153\n              swap2\n              swap1\n              tag_128\n              jump\t// in\n            tag_153:\n                /* \"@openzeppelin/contracts/finance/VestingWallet.sol\":5982:5997  totalAllocation */\n              dup5\n                /* \"@openzeppelin/contracts/finance/VestingWallet.sol\":5982:6021  totalAllocation * (timestamp - start()) */\n              tag_154\n              swap2\n              swap1\n              tag_155\n              jump\t// in\n            tag_154:\n                /* \"@openzeppelin/contracts/finance/VestingWallet.sol\":5981:6035  (totalAllocation * (timestamp - start())) / duration() */\n              tag_156\n              swap2\n              swap1\n              tag_157\n              jump\t// in\n            tag_156:\n                /* \"@openzeppelin/contracts/finance/VestingWallet.sol\":5974:6035  return (totalAllocation * (timestamp - start())) / duration() */\n              swap1\n              pop\n                /* \"@openzeppelin/contracts/finance/VestingWallet.sol\":5700:6052  function _vestingSchedule(uint256 totalAllocation, uint64 timestamp) internal view virtual returns (uint256) {... */\n            tag_144:\n              swap3\n              swap2\n              pop\n              pop\n              jump\t// out\n                /* \"@openzeppelin/contracts/token/ERC20/utils/SafeERC20.sol\":1219:1379  function safeTransfer(IERC20 token, address to, uint256 value) internal {... */\n            tag_98:\n                /* \"@openzeppelin/contracts/token/ERC20/utils/SafeERC20.sol\":1301:1372  _callOptionalReturn(token, abi.encodeCall(token.transfer, (to, value))) */\n              tag_159\n                /* \"@openzeppelin/contracts/token/ERC20/utils/SafeERC20.sol\":1321:1326  token */\n              dup4\n                /* \"@openzeppelin/contracts/token/ERC20/utils/SafeERC20.sol\":1343:1348  token */\n              dup5\n                /* \"@openzeppelin/contracts/token/ERC20/utils/SafeERC20.sol\":1343:1357  token.transfer */\n              0xffffffffffffffffffffffffffffffffffffffff\n              and\n              0xa9059cbb\n                /* \"@openzeppelin/contracts/token/ERC20/utils/SafeERC20.sol\":1360:1362  to */\n              dup6\n                /* \"@openzeppelin/contracts/token/ERC20/utils/SafeERC20.sol\":1364:1369  value */\n              dup6\n                /* \"@openzeppelin/contracts/token/ERC20/utils/SafeERC20.sol\":1328:1371  abi.encodeCall(token.transfer, (to, value)) */\n              add(0x24, mload(0x40))\n              tag_160\n              swap3\n              swap2\n              swap1\n              tag_161\n              jump\t// in\n            tag_160:\n              mload(0x40)\n              0x20\n              dup2\n              dup4\n              sub\n              sub\n              dup2\n              mstore\n              swap1\n              0x40\n              mstore\n              swap2\n              pop\n              0xe0\n              shl\n              0x20\n              dup3\n              add\n              dup1\n              mload\n              0xffffffffffffffffffffffffffffffffffffffffffffffffffffffff\n              dup4\n              dup2\n              dup4\n              and\n              or\n              dup4\n              mstore\n              pop\n              pop\n              pop\n              pop\n                /* \"@openzeppelin/contracts/token/ERC20/utils/SafeERC20.sol\":1301:1320  _callOptionalReturn */\n              tag_162\n                /* \"@openzeppelin/contracts/token/ERC20/utils/SafeERC20.sol\":1301:1372  _callOptionalReturn(token, abi.encodeCall(token.transfer, (to, value))) */\n              jump\t// in\n            tag_159:\n                /* \"@openzeppelin/contracts/token/ERC20/utils/SafeERC20.sol\":1219:1379  function safeTransfer(IERC20 token, address to, uint256 value) internal {... */\n              pop\n              pop\n              pop\n              jump\t// out\n                /* \"@openzeppelin/contracts/access/Ownable.sol\":1796:1958  function _checkOwner() internal view virtual {... */\n            tag_101:\n                /* \"@openzeppelin/contracts/access/Ownable.sol\":1866:1878  _msgSender() */\n              tag_164\n                /* \"@openzeppelin/contracts/access/Ownable.sol\":1866:1876  _msgSender */\n              tag_165\n                /* \"@openzeppelin/contracts/access/Ownable.sol\":1866:1878  _msgSender() */\n              jump\t// in\n            tag_164:\n                /* \"@openzeppelin/contracts/access/Ownable.sol\":1855:1878  owner() != _msgSender() */\n              0xffffffffffffffffffffffffffffffffffffffff\n              and\n                /* \"@openzeppelin/contracts/access/Ownable.sol\":1855:1862  owner() */\n              tag_166\n                /* \"@openzeppelin/contracts/access/Ownable.sol\":1855:1860  owner */\n              tag_52\n                /* \"@openzeppelin/contracts/access/Ownable.sol\":1855:1862  owner() */\n              jump\t// in\n            tag_166:\n                /* \"@openzeppelin/contracts/access/Ownable.sol\":1855:1878  owner() != _msgSender() */\n              0xffffffffffffffffffffffffffffffffffffffff\n              and\n              eq\n                /* \"@openzeppelin/contracts/access/Ownable.sol\":1851:1952  if (owner() != _msgSender()) {... */\n              tag_167\n              jumpi\n                /* \"@openzeppelin/contracts/access/Ownable.sol\":1928:1940  _msgSender() */\n              tag_168\n                /* \"@openzeppelin/contracts/access/Ownable.sol\":1928:1938  _msgSender */\n              tag_165\n                /* \"@openzeppelin/contracts/access/Ownable.sol\":1928:1940  _msgSender() */\n              jump\t// in\n            tag_168:\n                /* \"@openzeppelin/contracts/access/Ownable.sol\":1901:1941  OwnableUnauthorizedAccount(_msgSender()) */\n              mload(0x40)\n              0x118cdaa700000000000000000000000000000000000000000000000000000000\n              dup2\n              mstore\n              0x04\n              add\n              tag_169\n              swap2\n              swap1\n              tag_54\n              jump\t// in\n            tag_169:\n              mload(0x40)\n              dup1\n              swap2\n              sub\n              swap1\n              revert\n                /* \"@openzeppelin/contracts/access/Ownable.sol\":1851:1952  if (owner() != _msgSender()) {... */\n            tag_167:\n                /* \"@openzeppelin/contracts/access/Ownable.sol\":1796:1958  function _checkOwner() internal view virtual {... */\n              jump\t// out\n                /* \"@openzeppelin/contracts/access/Ownable.sol\":2912:3099  function _transferOwnership(address newOwner) internal virtual {... */\n            tag_104:\n                /* \"@openzeppelin/contracts/access/Ownable.sol\":2985:3001  address oldOwner */\n              0x00\n                /* \"@openzeppelin/contracts/access/Ownable.sol\":3004:3010  _owner */\n              0x00\n              0x00\n              swap1\n              sload\n              swap1\n              0x0100\n              exp\n              swap1\n              div\n              0xffffffffffffffffffffffffffffffffffffffff\n              and\n                /* \"@openzeppelin/contracts/access/Ownable.sol\":2985:3010  address oldOwner = _owner */\n              swap1\n              pop\n                /* \"@openzeppelin/contracts/access/Ownable.sol\":3029:3037  newOwner */\n              dup2\n                /* \"@openzeppelin/contracts/access/Ownable.sol\":3020:3026  _owner */\n              0x00\n              0x00\n                /* \"@openzeppelin/contracts/access/Ownable.sol\":3020:3037  _owner = newOwner */\n              0x0100\n              exp\n              dup2\n              sload\n              dup2\n              0xffffffffffffffffffffffffffffffffffffffff\n              mul\n              not\n              and\n              swap1\n              dup4\n              0xffffffffffffffffffffffffffffffffffffffff\n              and\n              mul\n              or\n              swap1\n              sstore\n              pop\n                /* \"@openzeppelin/contracts/access/Ownable.sol\":3083:3091  newOwner */\n              dup2\n                /* \"@openzeppelin/contracts/access/Ownable.sol\":3052:3092  OwnershipTransferred(oldOwner, newOwner) */\n              0xffffffffffffffffffffffffffffffffffffffff\n              and\n                /* \"@openzeppelin/contracts/access/Ownable.sol\":3073:3081  oldOwner */\n              dup2\n                /* \"@openzeppelin/contracts/access/Ownable.sol\":3052:3092  OwnershipTransferred(oldOwner, newOwner) */\n              0xffffffffffffffffffffffffffffffffffffffff\n              and\n              0x8be0079c531659141344cd1fd0a4f28419497f9722a3daafe3b4186f6b6457e0\n              mload(0x40)\n              mload(0x40)\n              dup1\n              swap2\n              sub\n              swap1\n              log3\n                /* \"@openzeppelin/contracts/access/Ownable.sol\":2975:3099  {... */\n              pop\n                /* \"@openzeppelin/contracts/access/Ownable.sol\":2912:3099  function _transferOwnership(address newOwner) internal virtual {... */\n              pop\n              jump\t// out\n                /* \"@openzeppelin/contracts/utils/Address.sol\":1290:1655  function sendValue(address payable recipient, uint256 amount) internal {... */\n            tag_120:\n                /* \"@openzeppelin/contracts/utils/Address.sol\":1399:1405  amount */\n              dup1\n                /* \"@openzeppelin/contracts/utils/Address.sol\":1375:1396  address(this).balance */\n              selfbalance\n                /* \"@openzeppelin/contracts/utils/Address.sol\":1375:1405  address(this).balance < amount */\n              lt\n                /* \"@openzeppelin/contracts/utils/Address.sol\":1371:1496  if (address(this).balance < amount) {... */\n              iszero\n              tag_172\n              jumpi\n                /* \"@openzeppelin/contracts/utils/Address.sol\":1455:1476  address(this).balance */\n              selfbalance\n                /* \"@openzeppelin/contracts/utils/Address.sol\":1478:1484  amount */\n              dup2\n                /* \"@openzeppelin/contracts/utils/Address.sol\":1428:1485  Errors.InsufficientBalance(address(this).balance, amount) */\n              mload(0x40)\n              0xcf47918100000000000000000000000000000000000000000000000000000000\n              dup2\n              mstore\n              0x04\n              add\n              tag_173\n              swap3\n              swap2\n              swap1\n              tag_174\n              jump\t// in\n            tag_173:\n              mload(0x40)\n              dup1\n              swap2\n              sub\n              swap1\n              revert\n                /* \"@openzeppelin/contracts/utils/Address.sol\":1371:1496  if (address(this).balance < amount) {... */\n            tag_172:\n                /* \"@openzeppelin/contracts/utils/Address.sol\":1507:1519  bool success */\n              0x00\n                /* \"@openzeppelin/contracts/utils/Address.sol\":1521:1544  bytes memory returndata */\n              0x00\n                /* \"@openzeppelin/contracts/utils/Address.sol\":1548:1557  recipient */\n              dup4\n                /* \"@openzeppelin/contracts/utils/Address.sol\":1548:1562  recipient.call */\n              0xffffffffffffffffffffffffffffffffffffffff\n              and\n                /* \"@openzeppelin/contracts/utils/Address.sol\":1570:1576  amount */\n              dup4\n                /* \"@openzeppelin/contracts/utils/Address.sol\":1548:1581  recipient.call{value: amount}(\"\") */\n              mload(0x40)\n              tag_175\n              swap1\n              tag_176\n              jump\t// in\n            tag_175:\n              0x00\n              mload(0x40)\n              dup1\n              dup4\n              sub\n              dup2\n              dup6\n              dup8\n              gas\n              call\n              swap3\n              pop\n              pop\n              pop\n              returndatasize\n              dup1\n              0x00\n              dup2\n              eq\n              tag_179\n              jumpi\n              mload(0x40)\n              swap2\n              pop\n              and(add(returndatasize, 0x3f), not(0x1f))\n              dup3\n              add\n              0x40\n              mstore\n              returndatasize\n              dup3\n              mstore\n              returndatasize\n              0x00\n              0x20\n              dup5\n              add\n              returndatacopy\n              jump(tag_178)\n            tag_179:\n              0x60\n              swap2\n              pop\n            tag_178:\n              pop\n                /* \"@openzeppelin/contracts/utils/Address.sol\":1506:1581  (bool success, bytes memory returndata) = recipient.call{value: amount}(\"\") */\n              swap2\n              pop\n              swap2\n              pop\n                /* \"@openzeppelin/contracts/utils/Address.sol\":1596:1603  success */\n              dup2\n                /* \"@openzeppelin/contracts/utils/Address.sol\":1591:1649  if (!success) {... */\n              tag_180\n              jumpi\n                /* \"@openzeppelin/contracts/utils/Address.sol\":1619:1638  _revert(returndata) */\n              tag_181\n                /* \"@openzeppelin/contracts/utils/Address.sol\":1627:1637  returndata */\n              dup2\n                /* \"@openzeppelin/contracts/utils/Address.sol\":1619:1626  _revert */\n              tag_182\n                /* \"@openzeppelin/contracts/utils/Address.sol\":1619:1638  _revert(returndata) */\n              jump\t// in\n            tag_181:\n                /* \"@openzeppelin/contracts/utils/Address.sol\":1591:1649  if (!success) {... */\n            tag_180:\n                /* \"@openzeppelin/contracts/utils/Address.sol\":1361:1655  {... */\n              pop\n              pop\n                /* \"@openzeppelin/contracts/utils/Address.sol\":1290:1655  function sendValue(address payable recipient, uint256 amount) internal {... */\n              pop\n              pop\n              jump\t// out\n                /* \"@openzeppelin/contracts/token/ERC20/utils/SafeERC20.sol\":8370:9090  function _callOptionalReturn(IERC20 token, bytes memory data) private {... */\n            tag_162:\n                /* \"@openzeppelin/contracts/token/ERC20/utils/SafeERC20.sol\":8450:8468  uint256 returnSize */\n              0x00\n                /* \"@openzeppelin/contracts/token/ERC20/utils/SafeERC20.sol\":8478:8497  uint256 returnValue */\n              0x00\n                /* \"@openzeppelin/contracts/token/ERC20/utils/SafeERC20.sol\":8616:8620  0x20 */\n              0x20\n                /* \"@openzeppelin/contracts/token/ERC20/utils/SafeERC20.sol\":8613:8614  0 */\n              0x00\n                /* \"@openzeppelin/contracts/token/ERC20/utils/SafeERC20.sol\":8606:8610  data */\n              dup5\n                /* \"@openzeppelin/contracts/token/ERC20/utils/SafeERC20.sol\":8600:8611  mload(data) */\n              mload\n                /* \"@openzeppelin/contracts/token/ERC20/utils/SafeERC20.sol\":8593:8597  0x20 */\n              0x20\n                /* \"@openzeppelin/contracts/token/ERC20/utils/SafeERC20.sol\":8587:8591  data */\n              dup7\n                /* \"@openzeppelin/contracts/token/ERC20/utils/SafeERC20.sol\":8583:8598  add(data, 0x20) */\n              add\n                /* \"@openzeppelin/contracts/token/ERC20/utils/SafeERC20.sol\":8580:8581  0 */\n              0x00\n                /* \"@openzeppelin/contracts/token/ERC20/utils/SafeERC20.sol\":8573:8578  token */\n              dup9\n                /* \"@openzeppelin/contracts/token/ERC20/utils/SafeERC20.sol\":8566:8571  gas() */\n              gas\n                /* \"@openzeppelin/contracts/token/ERC20/utils/SafeERC20.sol\":8561:8621  call(gas(), token, 0, add(data, 0x20), mload(data), 0, 0x20) */\n              call\n                /* \"@openzeppelin/contracts/token/ERC20/utils/SafeERC20.sol\":8673:8680  success */\n              dup1\n                /* \"@openzeppelin/contracts/token/ERC20/utils/SafeERC20.sol\":8663:8839  if iszero(success) {... */\n              tag_184\n              jumpi\n                /* \"@openzeppelin/contracts/token/ERC20/utils/SafeERC20.sol\":8717:8721  0x40 */\n              0x40\n                /* \"@openzeppelin/contracts/token/ERC20/utils/SafeERC20.sol\":8711:8722  mload(0x40) */\n              mload\n                /* \"@openzeppelin/contracts/token/ERC20/utils/SafeERC20.sol\":8762:8778  returndatasize() */\n              returndatasize\n                /* \"@openzeppelin/contracts/token/ERC20/utils/SafeERC20.sol\":8759:8760  0 */\n              0x00\n                /* \"@openzeppelin/contracts/token/ERC20/utils/SafeERC20.sol\":8754:8757  ptr */\n              dup3\n                /* \"@openzeppelin/contracts/token/ERC20/utils/SafeERC20.sol\":8739:8779  returndatacopy(ptr, 0, returndatasize()) */\n              returndatacopy\n                /* \"@openzeppelin/contracts/token/ERC20/utils/SafeERC20.sol\":8808:8824  returndatasize() */\n              returndatasize\n                /* \"@openzeppelin/contracts/token/ERC20/utils/SafeERC20.sol\":8803:8806  ptr */\n              dup2\n                /* \"@openzeppelin/contracts/token/ERC20/utils/SafeERC20.sol\":8796:8825  revert(ptr, returndatasize()) */\n              revert\n                /* \"@openzeppelin/contracts/token/ERC20/utils/SafeERC20.sol\":8663:8839  if iszero(success) {... */\n            tag_184:\n                /* \"@openzeppelin/contracts/token/ERC20/utils/SafeERC20.sol\":8866:8882  returndatasize() */\n              returndatasize\n                /* \"@openzeppelin/contracts/token/ERC20/utils/SafeERC20.sol\":8852:8882  returnSize := returndatasize() */\n              swap3\n              pop\n                /* \"@openzeppelin/contracts/token/ERC20/utils/SafeERC20.sol\":8916:8917  0 */\n              0x00\n                /* \"@openzeppelin/contracts/token/ERC20/utils/SafeERC20.sol\":8910:8918  mload(0) */\n              mload\n                /* \"@openzeppelin/contracts/token/ERC20/utils/SafeERC20.sol\":8895:8918  returnValue := mload(0) */\n              swap2\n              pop\n                /* \"@openzeppelin/contracts/token/ERC20/utils/SafeERC20.sol\":8532:8928  {... */\n              pop\n                /* \"@openzeppelin/contracts/token/ERC20/utils/SafeERC20.sol\":8956:8957  0 */\n              0x00\n                /* \"@openzeppelin/contracts/token/ERC20/utils/SafeERC20.sol\":8942:8952  returnSize */\n              dup3\n                /* \"@openzeppelin/contracts/token/ERC20/utils/SafeERC20.sol\":8942:8957  returnSize == 0 */\n              eq\n                /* \"@openzeppelin/contracts/token/ERC20/utils/SafeERC20.sol\":8942:9010  returnSize == 0 ? address(token).code.length == 0 : returnValue != 1 */\n              tag_185\n              jumpi\n                /* \"@openzeppelin/contracts/token/ERC20/utils/SafeERC20.sol\":9009:9010  1 */\n              0x01\n                /* \"@openzeppelin/contracts/token/ERC20/utils/SafeERC20.sol\":8994:9005  returnValue */\n              dup2\n                /* \"@openzeppelin/contracts/token/ERC20/utils/SafeERC20.sol\":8994:9010  returnValue != 1 */\n              eq\n              iszero\n                /* \"@openzeppelin/contracts/token/ERC20/utils/SafeERC20.sol\":8942:9010  returnSize == 0 ? address(token).code.length == 0 : returnValue != 1 */\n              jump(tag_186)\n            tag_185:\n                /* \"@openzeppelin/contracts/token/ERC20/utils/SafeERC20.sol\":8990:8991  0 */\n              0x00\n                /* \"@openzeppelin/contracts/token/ERC20/utils/SafeERC20.sol\":8968:8973  token */\n              dup5\n                /* \"@openzeppelin/contracts/token/ERC20/utils/SafeERC20.sol\":8960:8986  address(token).code.length */\n              0xffffffffffffffffffffffffffffffffffffffff\n              and\n              extcodesize\n                /* \"@openzeppelin/contracts/token/ERC20/utils/SafeERC20.sol\":8960:8991  address(token).code.length == 0 */\n              eq\n                /* \"@openzeppelin/contracts/token/ERC20/utils/SafeERC20.sol\":8942:9010  returnSize == 0 ? address(token).code.length == 0 : returnValue != 1 */\n            tag_186:\n                /* \"@openzeppelin/contracts/token/ERC20/utils/SafeERC20.sol\":8938:9084  if (returnSize == 0 ? address(token).code.length == 0 : returnValue != 1) {... */\n              iszero\n              tag_187\n              jumpi\n                /* \"@openzeppelin/contracts/token/ERC20/utils/SafeERC20.sol\":9066:9071  token */\n              dup4\n                /* \"@openzeppelin/contracts/token/ERC20/utils/SafeERC20.sol\":9033:9073  SafeERC20FailedOperation(address(token)) */\n              mload(0x40)\n              0x5274afe700000000000000000000000000000000000000000000000000000000\n              dup2\n              mstore\n              0x04\n              add\n              tag_188\n              swap2\n              swap1\n              tag_54\n              jump\t// in\n            tag_188:\n              mload(0x40)\n              dup1\n              swap2\n              sub\n              swap1\n              revert\n                /* \"@openzeppelin/contracts/token/ERC20/utils/SafeERC20.sol\":8938:9084  if (returnSize == 0 ? address(token).code.length == 0 : returnValue != 1) {... */\n            tag_187:\n                /* \"@openzeppelin/contracts/token/ERC20/utils/SafeERC20.sol\":8440:9090  {... */\n              pop\n              pop\n                /* \"@openzeppelin/contracts/token/ERC20/utils/SafeERC20.sol\":8370:9090  function _callOptionalReturn(IERC20 token, bytes memory data) private {... */\n              pop\n              pop\n              jump\t// out\n                /* \"@openzeppelin/contracts/utils/Context.sol\":656:752  function _msgSender() internal view virtual returns (address) {... */\n            tag_165:\n                /* \"@openzeppelin/contracts/utils/Context.sol\":709:716  address */\n              0x00\n                /* \"@openzeppelin/contracts/utils/Context.sol\":735:745  msg.sender */\n              caller\n                /* \"@openzeppelin/contracts/utils/Context.sol\":728:745  return msg.sender */\n              swap1\n              pop\n                /* \"@openzeppelin/contracts/utils/Context.sol\":656:752  function _msgSender() internal view virtual returns (address) {... */\n              swap1\n              jump\t// out\n                /* \"@openzeppelin/contracts/utils/Address.sol\":5559:5993  function _revert(bytes memory returndata) private pure {... */\n            tag_182:\n                /* \"@openzeppelin/contracts/utils/Address.sol\":5710:5711  0 */\n              0x00\n                /* \"@openzeppelin/contracts/utils/Address.sol\":5690:5700  returndata */\n              dup2\n                /* \"@openzeppelin/contracts/utils/Address.sol\":5690:5707  returndata.length */\n              mload\n                /* \"@openzeppelin/contracts/utils/Address.sol\":5690:5711  returndata.length > 0 */\n              gt\n                /* \"@openzeppelin/contracts/utils/Address.sol\":5686:5987  if (returndata.length > 0) {... */\n              iszero\n              tag_191\n              jumpi\n                /* \"@openzeppelin/contracts/utils/Address.sol\":5894:5904  returndata */\n              dup1\n                /* \"@openzeppelin/contracts/utils/Address.sol\":5888:5905  mload(returndata) */\n              mload\n                /* \"@openzeppelin/contracts/utils/Address.sol\":5881:5885  0x20 */\n              0x20\n                /* \"@openzeppelin/contracts/utils/Address.sol\":5869:5879  returndata */\n              dup3\n                /* \"@openzeppelin/contracts/utils/Address.sol\":5865:5886  add(returndata, 0x20) */\n              add\n                /* \"@openzeppelin/contracts/utils/Address.sol\":5858:5906  revert(add(returndata, 0x20), mload(returndata)) */\n              revert\n                /* \"@openzeppelin/contracts/utils/Address.sol\":5686:5987  if (returndata.length > 0) {... */\n            tag_191:\n                /* \"@openzeppelin/contracts/utils/Address.sol\":5957:5976  Errors.FailedCall() */\n              mload(0x40)\n              0xd6bda27500000000000000000000000000000000000000000000000000000000\n              dup2\n              mstore\n              0x04\n              add\n              mload(0x40)\n              dup1\n              swap2\n              sub\n              swap1\n              revert\n                /* \"#utility.yul\":88:205   */\n            tag_194:\n                /* \"#utility.yul\":197:198   */\n              0x00\n                /* \"#utility.yul\":194:195   */\n              0x00\n                /* \"#utility.yul\":187:199   */\n              revert\n                /* \"#utility.yul\":334:435   */\n            tag_196:\n                /* \"#utility.yul\":370:377   */\n              0x00\n                /* \"#utility.yul\":410:428   */\n              0xffffffffffffffff\n                /* \"#utility.yul\":403:408   */\n              dup3\n                /* \"#utility.yul\":399:429   */\n              and\n                /* \"#utility.yul\":388:429   */\n              swap1\n              pop\n                /* \"#utility.yul\":334:435   */\n              swap2\n              swap1\n              pop\n              jump\t// out\n                /* \"#utility.yul\":441:561   */\n            tag_197:\n                /* \"#utility.yul\":513:536   */\n              tag_219\n                /* \"#utility.yul\":530:535   */\n              dup2\n                /* \"#utility.yul\":513:536   */\n              tag_196\n              jump\t// in\n            tag_219:\n                /* \"#utility.yul\":506:511   */\n              dup2\n                /* \"#utility.yul\":503:537   */\n              eq\n                /* \"#utility.yul\":493:555   */\n              tag_220\n              jumpi\n                /* \"#utility.yul\":551:552   */\n              0x00\n                /* \"#utility.yul\":548:549   */\n              0x00\n                /* \"#utility.yul\":541:553   */\n              revert\n                /* \"#utility.yul\":493:555   */\n            tag_220:\n                /* \"#utility.yul\":441:561   */\n              pop\n              jump\t// out\n                /* \"#utility.yul\":567:704   */\n            tag_198:\n                /* \"#utility.yul\":612:617   */\n              0x00\n                /* \"#utility.yul\":650:656   */\n              dup2\n                /* \"#utility.yul\":637:657   */\n              calldataload\n                /* \"#utility.yul\":628:657   */\n              swap1\n              pop\n                /* \"#utility.yul\":666:698   */\n              tag_222\n                /* \"#utility.yul\":692:697   */\n              dup2\n                /* \"#utility.yul\":666:698   */\n              tag_197\n              jump\t// in\n            tag_222:\n                /* \"#utility.yul\":567:704   */\n              swap3\n              swap2\n              pop\n              pop\n              jump\t// out\n                /* \"#utility.yul\":710:1037   */\n            tag_25:\n                /* \"#utility.yul\":768:774   */\n              0x00\n                /* \"#utility.yul\":817:819   */\n              0x20\n                /* \"#utility.yul\":805:814   */\n              dup3\n                /* \"#utility.yul\":796:803   */\n              dup5\n                /* \"#utility.yul\":792:815   */\n              sub\n                /* \"#utility.yul\":788:820   */\n              slt\n                /* \"#utility.yul\":785:904   */\n              iszero\n              tag_224\n              jumpi\n                /* \"#utility.yul\":823:902   */\n              tag_225\n              tag_194\n              jump\t// in\n            tag_225:\n                /* \"#utility.yul\":785:904   */\n            tag_224:\n                /* \"#utility.yul\":943:944   */\n              0x00\n                /* \"#utility.yul\":968:1020   */\n              tag_226\n                /* \"#utility.yul\":1012:1019   */\n              dup5\n                /* \"#utility.yul\":1003:1009   */\n              dup3\n                /* \"#utility.yul\":992:1001   */\n              dup6\n                /* \"#utility.yul\":988:1010   */\n              add\n                /* \"#utility.yul\":968:1020   */\n              tag_198\n              jump\t// in\n            tag_226:\n                /* \"#utility.yul\":958:1020   */\n              swap2\n              pop\n                /* \"#utility.yul\":914:1030   */\n              pop\n                /* \"#utility.yul\":710:1037   */\n              swap3\n              swap2\n              pop\n              pop\n              jump\t// out\n                /* \"#utility.yul\":1043:1120   */\n            tag_199:\n                /* \"#utility.yul\":1080:1087   */\n              0x00\n                /* \"#utility.yul\":1109:1114   */\n              dup2\n                /* \"#utility.yul\":1098:1114   */\n              swap1\n              pop\n                /* \"#utility.yul\":1043:1120   */\n              swap2\n              swap1\n              pop\n              jump\t// out\n                /* \"#utility.yul\":1126:1244   */\n            tag_200:\n                /* \"#utility.yul\":1213:1237   */\n              tag_229\n                /* \"#utility.yul\":1231:1236   */\n              dup2\n                /* \"#utility.yul\":1213:1237   */\n              tag_199\n              jump\t// in\n            tag_229:\n                /* \"#utility.yul\":1208:1211   */\n              dup3\n                /* \"#utility.yul\":1201:1238   */\n              mstore\n                /* \"#utility.yul\":1126:1244   */\n              pop\n              pop\n              jump\t// out\n                /* \"#utility.yul\":1250:1472   */\n            tag_28:\n                /* \"#utility.yul\":1343:1347   */\n              0x00\n                /* \"#utility.yul\":1381:1383   */\n              0x20\n                /* \"#utility.yul\":1370:1379   */\n              dup3\n                /* \"#utility.yul\":1366:1384   */\n              add\n                /* \"#utility.yul\":1358:1384   */\n              swap1\n              pop\n                /* \"#utility.yul\":1394:1465   */\n              tag_231\n                /* \"#utility.yul\":1462:1463   */\n              0x00\n                /* \"#utility.yul\":1451:1460   */\n              dup4\n                /* \"#utility.yul\":1447:1464   */\n              add\n                /* \"#utility.yul\":1438:1444   */\n              dup5\n                /* \"#utility.yul\":1394:1465   */\n              tag_200\n              jump\t// in\n            tag_231:\n                /* \"#utility.yul\":1250:1472   */\n              swap3\n              swap2\n              pop\n              pop\n              jump\t// out\n                /* \"#utility.yul\":1478:1604   */\n            tag_201:\n                /* \"#utility.yul\":1515:1522   */\n              0x00\n                /* \"#utility.yul\":1555:1597   */\n              0xffffffffffffffffffffffffffffffffffffffff\n                /* \"#utility.yul\":1548:1553   */\n              dup3\n                /* \"#utility.yul\":1544:1598   */\n              and\n                /* \"#utility.yul\":1533:1598   */\n              swap1\n              pop\n                /* \"#utility.yul\":1478:1604   */\n              swap2\n              swap1\n              pop\n              jump\t// out\n                /* \"#utility.yul\":1610:1706   */\n            tag_202:\n                /* \"#utility.yul\":1647:1654   */\n              0x00\n                /* \"#utility.yul\":1676:1700   */\n              tag_234\n                /* \"#utility.yul\":1694:1699   */\n              dup3\n                /* \"#utility.yul\":1676:1700   */\n              tag_201\n              jump\t// in\n            tag_234:\n                /* \"#utility.yul\":1665:1700   */\n              swap1\n              pop\n                /* \"#utility.yul\":1610:1706   */\n              swap2\n              swap1\n              pop\n              jump\t// out\n                /* \"#utility.yul\":1712:1834   */\n            tag_203:\n                /* \"#utility.yul\":1785:1809   */\n              tag_236\n                /* \"#utility.yul\":1803:1808   */\n              dup2\n                /* \"#utility.yul\":1785:1809   */\n              tag_202\n              jump\t// in\n            tag_236:\n                /* \"#utility.yul\":1778:1783   */\n              dup2\n                /* \"#utility.yul\":1775:1810   */\n              eq\n                /* \"#utility.yul\":1765:1828   */\n              tag_237\n              jumpi\n                /* \"#utility.yul\":1824:1825   */\n              0x00\n                /* \"#utility.yul\":1821:1822   */\n              0x00\n                /* \"#utility.yul\":1814:1826   */\n              revert\n                /* \"#utility.yul\":1765:1828   */\n            tag_237:\n                /* \"#utility.yul\":1712:1834   */\n              pop\n              jump\t// out\n                /* \"#utility.yul\":1840:1979   */\n            tag_204:\n                /* \"#utility.yul\":1886:1891   */\n              0x00\n                /* \"#utility.yul\":1924:1930   */\n              dup2\n                /* \"#utility.yul\":1911:1931   */\n              calldataload\n                /* \"#utility.yul\":1902:1931   */\n              swap1\n              pop\n                /* \"#utility.yul\":1940:1973   */\n              tag_239\n                /* \"#utility.yul\":1967:1972   */\n              dup2\n                /* \"#utility.yul\":1940:1973   */\n              tag_203\n              jump\t// in\n            tag_239:\n                /* \"#utility.yul\":1840:1979   */\n              swap3\n              swap2\n              pop\n              pop\n              jump\t// out\n                /* \"#utility.yul\":1985:2314   */\n            tag_36:\n                /* \"#utility.yul\":2044:2050   */\n              0x00\n                /* \"#utility.yul\":2093:2095   */\n              0x20\n                /* \"#utility.yul\":2081:2090   */\n              dup3\n                /* \"#utility.yul\":2072:2079   */\n              dup5\n                /* \"#utility.yul\":2068:2091   */\n              sub\n                /* \"#utility.yul\":2064:2096   */\n              slt\n                /* \"#utility.yul\":2061:2180   */\n              iszero\n              tag_241\n              jumpi\n                /* \"#utility.yul\":2099:2178   */\n              tag_242\n              tag_194\n              jump\t// in\n            tag_242:\n                /* \"#utility.yul\":2061:2180   */\n            tag_241:\n                /* \"#utility.yul\":2219:2220   */\n              0x00\n                /* \"#utility.yul\":2244:2297   */\n              tag_243\n                /* \"#utility.yul\":2289:2296   */\n              dup5\n                /* \"#utility.yul\":2280:2286   */\n              dup3\n                /* \"#utility.yul\":2269:2278   */\n              dup6\n                /* \"#utility.yul\":2265:2287   */\n              add\n                /* \"#utility.yul\":2244:2297   */\n              tag_204\n              jump\t// in\n            tag_243:\n                /* \"#utility.yul\":2234:2297   */\n              swap2\n              pop\n                /* \"#utility.yul\":2190:2307   */\n              pop\n                /* \"#utility.yul\":1985:2314   */\n              swap3\n              swap2\n              pop\n              pop\n              jump\t// out\n                /* \"#utility.yul\":2320:2792   */\n            tag_44:\n                /* \"#utility.yul\":2387:2393   */\n              0x00\n                /* \"#utility.yul\":2395:2401   */\n              0x00\n                /* \"#utility.yul\":2444:2446   */\n              0x40\n                /* \"#utility.yul\":2432:2441   */\n              dup4\n                /* \"#utility.yul\":2423:2430   */\n              dup6\n                /* \"#utility.yul\":2419:2442   */\n              sub\n                /* \"#utility.yul\":2415:2447   */\n              slt\n                /* \"#utility.yul\":2412:2531   */\n              iszero\n              tag_245\n              jumpi\n                /* \"#utility.yul\":2450:2529   */\n              tag_246\n              tag_194\n              jump\t// in\n            tag_246:\n                /* \"#utility.yul\":2412:2531   */\n            tag_245:\n                /* \"#utility.yul\":2570:2571   */\n              0x00\n                /* \"#utility.yul\":2595:2648   */\n              tag_247\n                /* \"#utility.yul\":2640:2647   */\n              dup6\n                /* \"#utility.yul\":2631:2637   */\n              dup3\n                /* \"#utility.yul\":2620:2629   */\n              dup7\n                /* \"#utility.yul\":2616:2638   */\n              add\n                /* \"#utility.yul\":2595:2648   */\n              tag_204\n              jump\t// in\n            tag_247:\n                /* \"#utility.yul\":2585:2648   */\n              swap3\n              pop\n                /* \"#utility.yul\":2541:2658   */\n              pop\n                /* \"#utility.yul\":2697:2699   */\n              0x20\n                /* \"#utility.yul\":2723:2775   */\n              tag_248\n                /* \"#utility.yul\":2767:2774   */\n              dup6\n                /* \"#utility.yul\":2758:2764   */\n              dup3\n                /* \"#utility.yul\":2747:2756   */\n              dup7\n                /* \"#utility.yul\":2743:2765   */\n              add\n                /* \"#utility.yul\":2723:2775   */\n              tag_198\n              jump\t// in\n            tag_248:\n                /* \"#utility.yul\":2713:2775   */\n              swap2\n              pop\n                /* \"#utility.yul\":2668:2785   */\n              pop\n                /* \"#utility.yul\":2320:2792   */\n              swap3\n              pop\n              swap3\n              swap1\n              pop\n              jump\t// out\n                /* \"#utility.yul\":2798:2916   */\n            tag_205:\n                /* \"#utility.yul\":2885:2909   */\n              tag_250\n                /* \"#utility.yul\":2903:2908   */\n              dup2\n                /* \"#utility.yul\":2885:2909   */\n              tag_202\n              jump\t// in\n            tag_250:\n                /* \"#utility.yul\":2880:2883   */\n              dup3\n                /* \"#utility.yul\":2873:2910   */\n              mstore\n                /* \"#utility.yul\":2798:2916   */\n              pop\n              pop\n              jump\t// out\n                /* \"#utility.yul\":2922:3144   */\n            tag_54:\n                /* \"#utility.yul\":3015:3019   */\n              0x00\n                /* \"#utility.yul\":3053:3055   */\n              0x20\n                /* \"#utility.yul\":3042:3051   */\n              dup3\n                /* \"#utility.yul\":3038:3056   */\n              add\n                /* \"#utility.yul\":3030:3056   */\n              swap1\n              pop\n                /* \"#utility.yul\":3066:3137   */\n              tag_252\n                /* \"#utility.yul\":3134:3135   */\n              0x00\n                /* \"#utility.yul\":3123:3132   */\n              dup4\n                /* \"#utility.yul\":3119:3136   */\n              add\n                /* \"#utility.yul\":3110:3116   */\n              dup5\n                /* \"#utility.yul\":3066:3137   */\n              tag_205\n              jump\t// in\n            tag_252:\n                /* \"#utility.yul\":2922:3144   */\n              swap3\n              swap2\n              pop\n              pop\n              jump\t// out\n                /* \"#utility.yul\":3150:3330   */\n            tag_206:\n                /* \"#utility.yul\":3198:3275   */\n              0x4e487b7100000000000000000000000000000000000000000000000000000000\n                /* \"#utility.yul\":3195:3196   */\n              0x00\n                /* \"#utility.yul\":3188:3276   */\n              mstore\n                /* \"#utility.yul\":3295:3299   */\n              0x11\n                /* \"#utility.yul\":3292:3293   */\n              0x04\n                /* \"#utility.yul\":3285:3300   */\n              mstore\n                /* \"#utility.yul\":3319:3323   */\n              0x24\n                /* \"#utility.yul\":3316:3317   */\n              0x00\n                /* \"#utility.yul\":3309:3324   */\n              revert\n                /* \"#utility.yul\":3336:3527   */\n            tag_89:\n                /* \"#utility.yul\":3376:3379   */\n              0x00\n                /* \"#utility.yul\":3395:3415   */\n              tag_255\n                /* \"#utility.yul\":3413:3414   */\n              dup3\n                /* \"#utility.yul\":3395:3415   */\n              tag_199\n              jump\t// in\n            tag_255:\n                /* \"#utility.yul\":3390:3415   */\n              swap2\n              pop\n                /* \"#utility.yul\":3429:3449   */\n              tag_256\n                /* \"#utility.yul\":3447:3448   */\n              dup4\n                /* \"#utility.yul\":3429:3449   */\n              tag_199\n              jump\t// in\n            tag_256:\n                /* \"#utility.yul\":3424:3449   */\n              swap3\n              pop\n                /* \"#utility.yul\":3472:3473   */\n              dup3\n                /* \"#utility.yul\":3469:3470   */\n              dup3\n                /* \"#utility.yul\":3465:3474   */\n              add\n                /* \"#utility.yul\":3458:3474   */\n              swap1\n              pop\n                /* \"#utility.yul\":3493:3496   */\n              dup1\n                /* \"#utility.yul\":3490:3491   */\n              dup3\n                /* \"#utility.yul\":3487:3497   */\n              gt\n                /* \"#utility.yul\":3484:3520   */\n              iszero\n              tag_257\n              jumpi\n                /* \"#utility.yul\":3500:3518   */\n              tag_258\n              tag_206\n              jump\t// in\n            tag_258:\n                /* \"#utility.yul\":3484:3520   */\n            tag_257:\n                /* \"#utility.yul\":3336:3527   */\n              swap3\n              swap2\n              pop\n              pop\n              jump\t// out\n                /* \"#utility.yul\":3533:3655   */\n            tag_207:\n                /* \"#utility.yul\":3606:3630   */\n              tag_260\n                /* \"#utility.yul\":3624:3629   */\n              dup2\n                /* \"#utility.yul\":3606:3630   */\n              tag_199\n              jump\t// in\n            tag_260:\n                /* \"#utility.yul\":3599:3604   */\n              dup2\n                /* \"#utility.yul\":3596:3631   */\n              eq\n                /* \"#utility.yul\":3586:3649   */\n              tag_261\n              jumpi\n                /* \"#utility.yul\":3645:3646   */\n              0x00\n                /* \"#utility.yul\":3642:3643   */\n              0x00\n                /* \"#utility.yul\":3635:3647   */\n              revert\n                /* \"#utility.yul\":3586:3649   */\n            tag_261:\n                /* \"#utility.yul\":3533:3655   */\n              pop\n              jump\t// out\n                /* \"#utility.yul\":3661:3804   */\n            tag_208:\n                /* \"#utility.yul\":3718:3723   */\n              0x00\n                /* \"#utility.yul\":3749:3755   */\n              dup2\n                /* \"#utility.yul\":3743:3756   */\n              mload\n                /* \"#utility.yul\":3734:3756   */\n              swap1\n              pop\n                /* \"#utility.yul\":3765:3798   */\n              tag_263\n                /* \"#utility.yul\":3792:3797   */\n              dup2\n                /* \"#utility.yul\":3765:3798   */\n              tag_207\n              jump\t// in\n            tag_263:\n                /* \"#utility.yul\":3661:3804   */\n              swap3\n              swap2\n              pop\n              pop\n              jump\t// out\n                /* \"#utility.yul\":3810:4161   */\n            tag_112:\n                /* \"#utility.yul\":3880:3886   */\n              0x00\n                /* \"#utility.yul\":3929:3931   */\n              0x20\n                /* \"#utility.yul\":3917:3926   */\n              dup3\n                /* \"#utility.yul\":3908:3915   */\n              dup5\n                /* \"#utility.yul\":3904:3927   */\n              sub\n                /* \"#utility.yul\":3900:3932   */\n              slt\n                /* \"#utility.yul\":3897:4016   */\n              iszero\n              tag_265\n              jumpi\n                /* \"#utility.yul\":3935:4014   */\n              tag_266\n              tag_194\n              jump\t// in\n            tag_266:\n                /* \"#utility.yul\":3897:4016   */\n            tag_265:\n                /* \"#utility.yul\":4055:4056   */\n              0x00\n                /* \"#utility.yul\":4080:4144   */\n              tag_267\n                /* \"#utility.yul\":4136:4143   */\n              dup5\n                /* \"#utility.yul\":4127:4133   */\n              dup3\n                /* \"#utility.yul\":4116:4125   */\n              dup6\n                /* \"#utility.yul\":4112:4134   */\n              add\n                /* \"#utility.yul\":4080:4144   */\n              tag_208\n              jump\t// in\n            tag_267:\n                /* \"#utility.yul\":4070:4144   */\n              swap2\n              pop\n                /* \"#utility.yul\":4026:4154   */\n              pop\n                /* \"#utility.yul\":3810:4161   */\n              swap3\n              swap2\n              pop\n              pop\n              jump\t// out\n                /* \"#utility.yul\":4167:4361   */\n            tag_128:\n                /* \"#utility.yul\":4207:4211   */\n              0x00\n                /* \"#utility.yul\":4227:4247   */\n              tag_269\n                /* \"#utility.yul\":4245:4246   */\n              dup3\n                /* \"#utility.yul\":4227:4247   */\n              tag_199\n              jump\t// in\n            tag_269:\n                /* \"#utility.yul\":4222:4247   */\n              swap2\n              pop\n                /* \"#utility.yul\":4261:4281   */\n              tag_270\n                /* \"#utility.yul\":4279:4280   */\n              dup4\n                /* \"#utility.yul\":4261:4281   */\n              tag_199\n              jump\t// in\n            tag_270:\n                /* \"#utility.yul\":4256:4281   */\n              swap3\n              pop\n                /* \"#utility.yul\":4305:4306   */\n              dup3\n                /* \"#utility.yul\":4302:4303   */\n              dup3\n                /* \"#utility.yul\":4298:4307   */\n              sub\n                /* \"#utility.yul\":4290:4307   */\n              swap1\n              pop\n                /* \"#utility.yul\":4329:4330   */\n              dup2\n                /* \"#utility.yul\":4323:4327   */\n              dup2\n                /* \"#utility.yul\":4320:4331   */\n              gt\n                /* \"#utility.yul\":4317:4354   */\n              iszero\n              tag_271\n              jumpi\n                /* \"#utility.yul\":4334:4352   */\n              tag_272\n              tag_206\n              jump\t// in\n            tag_272:\n                /* \"#utility.yul\":4317:4354   */\n            tag_271:\n                /* \"#utility.yul\":4167:4361   */\n              swap3\n              swap2\n              pop\n              pop\n              jump\t// out\n                /* \"#utility.yul\":4367:4777   */\n            tag_155:\n                /* \"#utility.yul\":4407:4414   */\n              0x00\n                /* \"#utility.yul\":4430:4450   */\n              tag_274\n                /* \"#utility.yul\":4448:4449   */\n              dup3\n                /* \"#utility.yul\":4430:4450   */\n              tag_199\n              jump\t// in\n            tag_274:\n                /* \"#utility.yul\":4425:4450   */\n              swap2\n              pop\n                /* \"#utility.yul\":4464:4484   */\n              tag_275\n                /* \"#utility.yul\":4482:4483   */\n              dup4\n                /* \"#utility.yul\":4464:4484   */\n              tag_199\n              jump\t// in\n            tag_275:\n                /* \"#utility.yul\":4459:4484   */\n              swap3\n              pop\n                /* \"#utility.yul\":4519:4520   */\n              dup3\n                /* \"#utility.yul\":4516:4517   */\n              dup3\n                /* \"#utility.yul\":4512:4521   */\n              mul\n                /* \"#utility.yul\":4541:4571   */\n              tag_276\n                /* \"#utility.yul\":4559:4570   */\n              dup2\n                /* \"#utility.yul\":4541:4571   */\n              tag_199\n              jump\t// in\n            tag_276:\n                /* \"#utility.yul\":4530:4571   */\n              swap2\n              pop\n                /* \"#utility.yul\":4720:4721   */\n              dup3\n                /* \"#utility.yul\":4711:4718   */\n              dup3\n                /* \"#utility.yul\":4707:4722   */\n              div\n                /* \"#utility.yul\":4704:4705   */\n              dup5\n                /* \"#utility.yul\":4701:4723   */\n              eq\n                /* \"#utility.yul\":4681:4682   */\n              dup4\n                /* \"#utility.yul\":4674:4683   */\n              iszero\n                /* \"#utility.yul\":4654:4737   */\n              or\n                /* \"#utility.yul\":4631:4770   */\n              tag_277\n              jumpi\n                /* \"#utility.yul\":4750:4768   */\n              tag_278\n              tag_206\n              jump\t// in\n            tag_278:\n                /* \"#utility.yul\":4631:4770   */\n            tag_277:\n                /* \"#utility.yul\":4415:4777   */\n              pop\n                /* \"#utility.yul\":4367:4777   */\n              swap3\n              swap2\n              pop\n              pop\n              jump\t// out\n                /* \"#utility.yul\":4783:4963   */\n            tag_209:\n                /* \"#utility.yul\":4831:4908   */\n              0x4e487b7100000000000000000000000000000000000000000000000000000000\n                /* \"#utility.yul\":4828:4829   */\n              0x00\n                /* \"#utility.yul\":4821:4909   */\n              mstore\n                /* \"#utility.yul\":4928:4932   */\n              0x12\n                /* \"#utility.yul\":4925:4926   */\n              0x04\n                /* \"#utility.yul\":4918:4933   */\n              mstore\n                /* \"#utility.yul\":4952:4956   */\n              0x24\n                /* \"#utility.yul\":4949:4950   */\n              0x00\n                /* \"#utility.yul\":4942:4957   */\n              revert\n                /* \"#utility.yul\":4969:5154   */\n            tag_157:\n                /* \"#utility.yul\":5009:5010   */\n              0x00\n                /* \"#utility.yul\":5026:5046   */\n              tag_281\n                /* \"#utility.yul\":5044:5045   */\n              dup3\n                /* \"#utility.yul\":5026:5046   */\n              tag_199\n              jump\t// in\n            tag_281:\n                /* \"#utility.yul\":5021:5046   */\n              swap2\n              pop\n                /* \"#utility.yul\":5060:5080   */\n              tag_282\n                /* \"#utility.yul\":5078:5079   */\n              dup4\n                /* \"#utility.yul\":5060:5080   */\n              tag_199\n              jump\t// in\n            tag_282:\n                /* \"#utility.yul\":5055:5080   */\n              swap3\n              pop\n                /* \"#utility.yul\":5099:5100   */\n              dup3\n                /* \"#utility.yul\":5089:5124   */\n              tag_283\n              jumpi\n                /* \"#utility.yul\":5104:5122   */\n              tag_284\n              tag_209\n              jump\t// in\n            tag_284:\n                /* \"#utility.yul\":5089:5124   */\n            tag_283:\n                /* \"#utility.yul\":5146:5147   */\n              dup3\n                /* \"#utility.yul\":5143:5144   */\n              dup3\n                /* \"#utility.yul\":5139:5148   */\n              div\n                /* \"#utility.yul\":5134:5148   */\n              swap1\n              pop\n                /* \"#utility.yul\":4969:5154   */\n              swap3\n              swap2\n              pop\n              pop\n              jump\t// out\n                /* \"#utility.yul\":5160:5492   */\n            tag_161:\n                /* \"#utility.yul\":5281:5285   */\n              0x00\n                /* \"#utility.yul\":5319:5321   */\n              0x40\n                /* \"#utility.yul\":5308:5317   */\n              dup3\n                /* \"#utility.yul\":5304:5322   */\n              add\n                /* \"#utility.yul\":5296:5322   */\n              swap1\n              pop\n                /* \"#utility.yul\":5332:5403   */\n              tag_286\n                /* \"#utility.yul\":5400:5401   */\n              0x00\n                /* \"#utility.yul\":5389:5398   */\n              dup4\n                /* \"#utility.yul\":5385:5402   */\n              add\n                /* \"#utility.yul\":5376:5382   */\n              dup6\n                /* \"#utility.yul\":5332:5403   */\n              tag_205\n              jump\t// in\n            tag_286:\n                /* \"#utility.yul\":5413:5485   */\n              tag_287\n                /* \"#utility.yul\":5481:5483   */\n              0x20\n                /* \"#utility.yul\":5470:5479   */\n              dup4\n                /* \"#utility.yul\":5466:5484   */\n              add\n                /* \"#utility.yul\":5457:5463   */\n              dup5\n                /* \"#utility.yul\":5413:5485   */\n              tag_200\n              jump\t// in\n            tag_287:\n                /* \"#utility.yul\":5160:5492   */\n              swap4\n              swap3\n              pop\n              pop\n              pop\n              jump\t// out\n                /* \"#utility.yul\":5498:5830   */\n            tag_174:\n                /* \"#utility.yul\":5619:5623   */\n              0x00\n                /* \"#utility.yul\":5657:5659   */\n              0x40\n                /* \"#utility.yul\":5646:5655   */\n              dup3\n                /* \"#utility.yul\":5642:5660   */\n              add\n                /* \"#utility.yul\":5634:5660   */\n              swap1\n              pop\n                /* \"#utility.yul\":5670:5741   */\n              tag_289\n                /* \"#utility.yul\":5738:5739   */\n              0x00\n                /* \"#utility.yul\":5727:5736   */\n              dup4\n                /* \"#utility.yul\":5723:5740   */\n              add\n                /* \"#utility.yul\":5714:5720   */\n              dup6\n                /* \"#utility.yul\":5670:5741   */\n              tag_200\n              jump\t// in\n            tag_289:\n                /* \"#utility.yul\":5751:5823   */\n              tag_290\n                /* \"#utility.yul\":5819:5821   */\n              0x20\n                /* \"#utility.yul\":5808:5817   */\n              dup4\n                /* \"#utility.yul\":5804:5822   */\n              add\n                /* \"#utility.yul\":5795:5801   */\n              dup5\n                /* \"#utility.yul\":5751:5823   */\n              tag_200\n              jump\t// in\n            tag_290:\n                /* \"#utility.yul\":5498:5830   */\n              swap4\n              swap3\n              pop\n              pop\n              pop\n              jump\t// out\n                /* \"#utility.yul\":5836:5983   */\n            tag_210:\n                /* \"#utility.yul\":5937:5948   */\n              0x00\n                /* \"#utility.yul\":5974:5977   */\n              dup2\n                /* \"#utility.yul\":5959:5977   */\n              swap1\n              pop\n                /* \"#utility.yul\":5836:5983   */\n              swap3\n              swap2\n              pop\n              pop\n              jump\t// out\n                /* \"#utility.yul\":5989:6103   */\n            tag_211:\n              pop\n              jump\t// out\n                /* \"#utility.yul\":6109:6507   */\n            tag_212:\n                /* \"#utility.yul\":6268:6271   */\n              0x00\n                /* \"#utility.yul\":6289:6372   */\n              tag_294\n                /* \"#utility.yul\":6370:6371   */\n              0x00\n                /* \"#utility.yul\":6365:6368   */\n              dup4\n                /* \"#utility.yul\":6289:6372   */\n              tag_210\n              jump\t// in\n            tag_294:\n                /* \"#utility.yul\":6282:6372   */\n              swap2\n              pop\n                /* \"#utility.yul\":6381:6474   */\n              tag_295\n                /* \"#utility.yul\":6470:6473   */\n              dup3\n                /* \"#utility.yul\":6381:6474   */\n              tag_211\n              jump\t// in\n            tag_295:\n                /* \"#utility.yul\":6499:6500   */\n              0x00\n                /* \"#utility.yul\":6494:6497   */\n              dup3\n                /* \"#utility.yul\":6490:6501   */\n              add\n                /* \"#utility.yul\":6483:6501   */\n              swap1\n              pop\n                /* \"#utility.yul\":6109:6507   */\n              swap2\n              swap1\n              pop\n              jump\t// out\n                /* \"#utility.yul\":6513:6892   */\n            tag_176:\n                /* \"#utility.yul\":6697:6700   */\n              0x00\n                /* \"#utility.yul\":6719:6866   */\n              tag_297\n                /* \"#utility.yul\":6862:6865   */\n              dup3\n                /* \"#utility.yul\":6719:6866   */\n              tag_212\n              jump\t// in\n            tag_297:\n                /* \"#utility.yul\":6712:6866   */\n              swap2\n              pop\n                /* \"#utility.yul\":6883:6886   */\n              dup2\n                /* \"#utility.yul\":6876:6886   */\n              swap1\n              pop\n                /* \"#utility.yul\":6513:6892   */\n              swap2\n              swap1\n              pop\n              jump\t// out\n\n            auxdata: 0xa26469706673582212203f986baad5bb9bfb50c180a8ad9980123383cc42e0e30c7cbb74b069c5c6a73464736f6c63430008210033\n        }\n    }\n\n    auxdata: 0xa264697066735822122044013c59b10332baf4f68fb6435d0abb88f112c40b70a179d4ed7b3de26db59864736f6c63430008210033\n}\n",
				"bytecode": {
					"linkReferences": {},
					"object": "608060405234801561000f575f5ffd5b50335f73ffffffffffffffffffffffffffffffffffffffff168173ffffffffffffffffffffffffffffffffffffffff1603610081575f6040517f1e4fbdf70000000000000000000000000000000000000000000000000000000081526004016100789190610196565b60405180910390fd5b6100908161009660201b60201c565b506101af565b5f5f5f9054906101000a900473ffffffffffffffffffffffffffffffffffffffff169050815f5f6101000a81548173ffffffffffffffffffffffffffffffffffffffff021916908373ffffffffffffffffffffffffffffffffffffffff1602179055508173ffffffffffffffffffffffffffffffffffffffff168173ffffffffffffffffffffffffffffffffffffffff167f8be0079c531659141344cd1fd0a4f28419497f9722a3daafe3b4186f6b6457e060405160405180910390a35050565b5f73ffffffffffffffffffffffffffffffffffffffff82169050919050565b5f61018082610157565b9050919050565b61019081610176565b82525050565b5f6020820190506101a95f830184610187565b92915050565b61228a806101bc5f395ff3fe608060405234801561000f575f5ffd5b506004361061007b575f3560e01c8063715018a611610059578063715018a6146100fd5780638da5cb5b14610107578063edb5f73e14610125578063f2fde38b146101575761007b565b80630e2462731461007f57806320f6b0a91461009d57806336ac4aa8146100cd575b5f5ffd5b610087610173565b6040516100949190610890565b60405180910390f35b6100b760048036038101906100b291906108e4565b61017f565b6040516100c49190610a0b565b60405180910390f35b6100e760048036038101906100e29190610bbe565b6102f2565b6040516100f49190610c4d565b60405180910390f35b61010561051a565b005b61010f61052d565b60405161011c9190610c4d565b60405180910390f35b61013f600480360381019061013a91906108e4565b610554565b60405161014e93929190610cae565b60405180910390f35b610171600480360381019061016c9190610cea565b61064d565b005b5f600180549050905090565b610187610820565b6001828154811061019b5761019a610d15565b5b905f5260205f2090600302016040518060600160405290815f82015f9054906101000a900473ffffffffffffffffffffffffffffffffffffffff1673ffffffffffffffffffffffffffffffffffffffff1673ffffffffffffffffffffffffffffffffffffffff168152602001600182015f9054906101000a900473ffffffffffffffffffffffffffffffffffffffff1673ffffffffffffffffffffffffffffffffffffffff1673ffffffffffffffffffffffffffffffffffffffff16815260200160028201805461026b90610d6f565b80601f016020809104026020016040519081016040528092919081815260200182805461029790610d6f565b80156102e25780601f106102b9576101008083540402835291602001916102e2565b820191905f5260205f20905b8154815290600101906020018083116102c557829003601f168201915b5050505050815250509050919050565b5f6102fb6106d1565b5f73ffffffffffffffffffffffffffffffffffffffff168573ffffffffffffffffffffffffffffffffffffffff1603610360576040517fe6c4247b00000000000000000000000000000000000000000000000000000000815260040160405180910390fd5b5f8585856040516103709061086b565b61037c93929190610dae565b604051809103905ff080158015610395573d5f5f3e3d5ffd5b509050600160405180606001604052808373ffffffffffffffffffffffffffffffffffffffff1681526020018873ffffffffffffffffffffffffffffffffffffffff16815260200185815250908060018154018082558091505060019003905f5260205f2090600302015f909190919091505f820151815f015f6101000a81548173ffffffffffffffffffffffffffffffffffffffff021916908373ffffffffffffffffffffffffffffffffffffffff1602179055506020820151816001015f6101000a81548173ffffffffffffffffffffffffffffffffffffffff021916908373ffffffffffffffffffffffffffffffffffffffff16021790555060408201518160020190816104a69190610f94565b5050508573ffffffffffffffffffffffffffffffffffffffff168173ffffffffffffffffffffffffffffffffffffffff167f0ed38ef660e9abb113e06fb77981812e01a5691e845ee7aefa7ac2e94463648d856040516105069190611063565b60405180910390a380915050949350505050565b6105226106d1565b61052b5f610758565b565b5f5f5f9054906101000a900473ffffffffffffffffffffffffffffffffffffffff16905090565b60018181548110610563575f80fd5b905f5260205f2090600302015f91509050805f015f9054906101000a900473ffffffffffffffffffffffffffffffffffffffff1690806001015f9054906101000a900473ffffffffffffffffffffffffffffffffffffffff16908060020180546105cc90610d6f565b80601f01602080910402602001604051908101604052809291908181526020018280546105f890610d6f565b80156106435780601f1061061a57610100808354040283529160200191610643565b820191905f5260205f20905b81548152906001019060200180831161062657829003601f168201915b5050505050905083565b6106556106d1565b5f73ffffffffffffffffffffffffffffffffffffffff168173ffffffffffffffffffffffffffffffffffffffff16036106c5575f6040517f1e4fbdf70000000000000000000000000000000000000000000000000000000081526004016106bc9190610c4d565b60405180910390fd5b6106ce81610758565b50565b6106d9610819565b73ffffffffffffffffffffffffffffffffffffffff166106f761052d565b73ffffffffffffffffffffffffffffffffffffffff16146107565761071a610819565b6040517f118cdaa700000000000000000000000000000000000000000000000000000000815260040161074d9190610c4d565b60405180910390fd5b565b5f5f5f9054906101000a900473ffffffffffffffffffffffffffffffffffffffff169050815f5f6101000a81548173ffffffffffffffffffffffffffffffffffffffff021916908373ffffffffffffffffffffffffffffffffffffffff1602179055508173ffffffffffffffffffffffffffffffffffffffff168173ffffffffffffffffffffffffffffffffffffffff167f8be0079c531659141344cd1fd0a4f28419497f9722a3daafe3b4186f6b6457e060405160405180910390a35050565b5f33905090565b60405180606001604052805f73ffffffffffffffffffffffffffffffffffffffff1681526020015f73ffffffffffffffffffffffffffffffffffffffff168152602001606081525090565b6111d18061108483390190565b5f819050919050565b61088a81610878565b82525050565b5f6020820190506108a35f830184610881565b92915050565b5f604051905090565b5f5ffd5b5f5ffd5b6108c381610878565b81146108cd575f5ffd5b50565b5f813590506108de816108ba565b92915050565b5f602082840312156108f9576108f86108b2565b5b5f610906848285016108d0565b91505092915050565b5f73ffffffffffffffffffffffffffffffffffffffff82169050919050565b5f6109388261090f565b9050919050565b6109488161092e565b82525050565b5f81519050919050565b5f82825260208201905092915050565b8281835e5f83830152505050565b5f601f19601f8301169050919050565b5f6109908261094e565b61099a8185610958565b93506109aa818560208601610968565b6109b381610976565b840191505092915050565b5f606083015f8301516109d35f86018261093f565b5060208301516109e6602086018261093f565b50604083015184820360408601526109fe8282610986565b9150508091505092915050565b5f6020820190508181035f830152610a2381846109be565b905092915050565b610a348161092e565b8114610a3e575f5ffd5b50565b5f81359050610a4f81610a2b565b92915050565b5f67ffffffffffffffff82169050919050565b610a7181610a55565b8114610a7b575f5ffd5b50565b5f81359050610a8c81610a68565b92915050565b5f5ffd5b5f5ffd5b7f4e487b71000000000000000000000000000000000000000000000000000000005f52604160045260245ffd5b610ad082610976565b810181811067ffffffffffffffff82111715610aef57610aee610a9a565b5b80604052505050565b5f610b016108a9565b9050610b0d8282610ac7565b919050565b5f67ffffffffffffffff821115610b2c57610b2b610a9a565b5b610b3582610976565b9050602081019050919050565b828183375f83830152505050565b5f610b62610b5d84610b12565b610af8565b905082815260208101848484011115610b7e57610b7d610a96565b5b610b89848285610b42565b509392505050565b5f82601f830112610ba557610ba4610a92565b5b8135610bb5848260208601610b50565b91505092915050565b5f5f5f5f60808587031215610bd657610bd56108b2565b5b5f610be387828801610a41565b9450506020610bf487828801610a7e565b9350506040610c0587828801610a7e565b925050606085013567ffffffffffffffff811115610c2657610c256108b6565b5b610c3287828801610b91565b91505092959194509250565b610c478161092e565b82525050565b5f602082019050610c605f830184610c3e565b92915050565b5f82825260208201905092915050565b5f610c808261094e565b610c8a8185610c66565b9350610c9a818560208601610968565b610ca381610976565b840191505092915050565b5f606082019050610cc15f830186610c3e565b610cce6020830185610c3e565b8181036040830152610ce08184610c76565b9050949350505050565b5f60208284031215610cff57610cfe6108b2565b5b5f610d0c84828501610a41565b91505092915050565b7f4e487b71000000000000000000000000000000000000000000000000000000005f52603260045260245ffd5b7f4e487b71000000000000000000000000000000000000000000000000000000005f52602260045260245ffd5b5f6002820490506001821680610d8657607f821691505b602082108103610d9957610d98610d42565b5b50919050565b610da881610a55565b82525050565b5f606082019050610dc15f830186610c3e565b610dce6020830185610d9f565b610ddb6040830184610d9f565b949350505050565b5f819050815f5260205f209050919050565b5f6020601f8301049050919050565b5f82821b905092915050565b5f60088302610e3f7fffffffffffffffffffffffffffffffffffffffffffffffffffffffffffffffff82610e04565b610e498683610e04565b95508019841693508086168417925050509392505050565b5f819050919050565b5f610e84610e7f610e7a84610878565b610e61565b610878565b9050919050565b5f819050919050565b610e9d83610e6a565b610eb1610ea982610e8b565b848454610e10565b825550505050565b5f5f905090565b610ec8610eb9565b610ed3818484610e94565b505050565b5f5b82811015610ef957610eee5f828401610ec0565b600181019050610eda565b505050565b601f821115610f4c5782821115610f4b57610f1881610de3565b610f2183610df5565b610f2a85610df5565b6020861015610f37575f90505b808301610f4682840382610ed8565b505050505b5b505050565b5f82821c905092915050565b5f610f6c5f1984600802610f51565b1980831691505092915050565b5f610f848383610f5d565b9150826002028217905092915050565b610f9d8261094e565b67ffffffffffffffff811115610fb657610fb5610a9a565b5b610fc08254610d6f565b610fcb828285610efe565b5f60209050601f831160018114610ffc575f8415610fea578287015190505b610ff48582610f79565b86555061105b565b601f19841661100a86610de3565b5f5b828110156110315784890151825560018201915060208501945060208101905061100c565b8683101561104e578489015161104a601f891682610f5d565b8355505b6001600288020188555050505b505050505050565b5f6020820190508181035f83015261107b8184610c76565b90509291505056fe60c060405234801561000f575f5ffd5b506040516111d13803806111d183398181016040528101906100319190610254565b828282825f73ffffffffffffffffffffffffffffffffffffffff168173ffffffffffffffffffffffffffffffffffffffff16036100a5575f6040517f1e4fbdf700000000000000000000000000000000000000000000000000000000815260040161009c91906102b3565b60405180910390fd5b6100b4816100f860201b60201c565b508167ffffffffffffffff1660808167ffffffffffffffff16815250508067ffffffffffffffff1660a08167ffffffffffffffff16815250505050505050506102cc565b5f5f5f9054906101000a900473ffffffffffffffffffffffffffffffffffffffff169050815f5f6101000a81548173ffffffffffffffffffffffffffffffffffffffff021916908373ffffffffffffffffffffffffffffffffffffffff1602179055508173ffffffffffffffffffffffffffffffffffffffff168173ffffffffffffffffffffffffffffffffffffffff167f8be0079c531659141344cd1fd0a4f28419497f9722a3daafe3b4186f6b6457e060405160405180910390a35050565b5f5ffd5b5f73ffffffffffffffffffffffffffffffffffffffff82169050919050565b5f6101e6826101bd565b9050919050565b6101f6816101dc565b8114610200575f5ffd5b50565b5f81519050610211816101ed565b92915050565b5f67ffffffffffffffff82169050919050565b61023381610217565b811461023d575f5ffd5b50565b5f8151905061024e8161022a565b92915050565b5f5f5f6060848603121561026b5761026a6101b9565b5b5f61027886828701610203565b935050602061028986828701610240565b925050604061029a86828701610240565b9150509250925092565b6102ad816101dc565b82525050565b5f6020820190506102c65f8301846102a4565b92915050565b60805160a051610ee46102ed5f395f61037a01525f6106270152610ee45ff3fe6080604052600436106100e0575f3560e01c8063961325211161007e578063be9a655511610058578063be9a6555146102ad578063efbe1c1c146102d7578063f2fde38b14610301578063fbccedae14610329576100e7565b8063961325211461020b5780639852595c14610235578063a3f8eace14610271576100e7565b8063715018a6116100ba578063715018a614610179578063810ec23b1461018f57806386d1a69f146101cb5780638da5cb5b146101e1576100e7565b80630a17b06b146100eb5780630fb5a6b4146101275780631916558714610151576100e7565b366100e757005b5f5ffd5b3480156100f6575f5ffd5b50610111600480360381019061010c9190610b52565b610353565b60405161011e9190610b95565b60405180910390f35b348015610132575f5ffd5b5061013b610377565b6040516101489190610b95565b60405180910390f35b34801561015c575f5ffd5b5061017760048036038101906101729190610c08565b6103a8565b005b348015610184575f5ffd5b5061018d61046b565b005b34801561019a575f5ffd5b506101b560048036038101906101b09190610c33565b61047e565b6040516101c29190610b95565b60405180910390f35b3480156101d6575f5ffd5b506101df61051b565b005b3480156101ec575f5ffd5b506101f5610589565b6040516102029190610c80565b60405180910390f35b348015610216575f5ffd5b5061021f6105b0565b60405161022c9190610b95565b60405180910390f35b348015610240575f5ffd5b5061025b60048036038101906102569190610c08565b6105b9565b6040516102689190610b95565b60405180910390f35b34801561027c575f5ffd5b5061029760048036038101906102929190610c08565b6105ff565b6040516102a49190610b95565b60405180910390f35b3480156102b8575f5ffd5b506102c1610624565b6040516102ce9190610b95565b60405180910390f35b3480156102e2575f5ffd5b506102eb610655565b6040516102f89190610b95565b60405180910390f35b34801561030c575f5ffd5b5061032760048036038101906103229190610c08565b610675565b005b348015610334575f5ffd5b5061033d6106f9565b60405161034a9190610b95565b60405180910390f35b5f61037061035f6105b0565b4761036a9190610cc6565b8361071a565b9050919050565b5f7f000000000000000000000000000000000000000000000000000000000000000067ffffffffffffffff16905090565b5f6103b2826105ff565b90508060025f8473ffffffffffffffffffffffffffffffffffffffff1673ffffffffffffffffffffffffffffffffffffffff1681526020019081526020015f205f8282546104009190610cc6565b925050819055508173ffffffffffffffffffffffffffffffffffffffff167fc0e523490dd523c33b1878c9eb14ff46991e3f5b2cd33710918618f2a39cba1b8260405161044d9190610b95565b60405180910390a261046782610461610589565b8361079f565b5050565b61047361081e565b61047c5f6108a5565b565b5f61051361048b846105b9565b8473ffffffffffffffffffffffffffffffffffffffff166370a08231306040518263ffffffff1660e01b81526004016104c49190610c80565b602060405180830381865afa1580156104df573d5f5f3e3d5ffd5b505050506040513d601f19601f820116820180604052508101906105039190610d23565b61050d9190610cc6565b8361071a565b905092915050565b5f6105246106f9565b90508060015f8282546105379190610cc6565b925050819055507fda9d4e5f101b8b9b1c5b76d0c5a9f7923571acfc02376aa076b75a8c080c956b8160405161056d9190610b95565b60405180910390a1610586610580610589565b82610966565b50565b5f5f5f9054906101000a900473ffffffffffffffffffffffffffffffffffffffff16905090565b5f600154905090565b5f60025f8373ffffffffffffffffffffffffffffffffffffffff1673ffffffffffffffffffffffffffffffffffffffff1681526020019081526020015f20549050919050565b5f610609826105b9565b610613834261047e565b61061d9190610d4e565b9050919050565b5f7f000000000000000000000000000000000000000000000000000000000000000067ffffffffffffffff16905090565b5f61065e610377565b610666610624565b6106709190610cc6565b905090565b61067d61081e565b5f73ffffffffffffffffffffffffffffffffffffffff168173ffffffffffffffffffffffffffffffffffffffff16036106ed575f6040517f1e4fbdf70000000000000000000000000000000000000000000000000000000081526004016106e49190610c80565b60405180910390fd5b6106f6816108a5565b50565b5f6107026105b0565b61070b42610353565b6107159190610d4e565b905090565b5f610723610624565b8267ffffffffffffffff16101561073c575f9050610799565b610744610655565b8267ffffffffffffffff161061075c57829050610799565b610764610377565b61076c610624565b8367ffffffffffffffff166107819190610d4e565b8461078c9190610d81565b6107969190610def565b90505b92915050565b610819838473ffffffffffffffffffffffffffffffffffffffff1663a9059cbb85856040516024016107d2929190610e1f565b604051602081830303815290604052915060e01b6020820180517bffffffffffffffffffffffffffffffffffffffffffffffffffffffff8381831617835250505050610a2c565b505050565b610826610ac7565b73ffffffffffffffffffffffffffffffffffffffff16610844610589565b73ffffffffffffffffffffffffffffffffffffffff16146108a357610867610ac7565b6040517f118cdaa700000000000000000000000000000000000000000000000000000000815260040161089a9190610c80565b60405180910390fd5b565b5f5f5f9054906101000a900473ffffffffffffffffffffffffffffffffffffffff169050815f5f6101000a81548173ffffffffffffffffffffffffffffffffffffffff021916908373ffffffffffffffffffffffffffffffffffffffff1602179055508173ffffffffffffffffffffffffffffffffffffffff168173ffffffffffffffffffffffffffffffffffffffff167f8be0079c531659141344cd1fd0a4f28419497f9722a3daafe3b4186f6b6457e060405160405180910390a35050565b804710156109ad5747816040517fcf4791810000000000000000000000000000000000000000000000000000000081526004016109a4929190610e46565b60405180910390fd5b5f5f8373ffffffffffffffffffffffffffffffffffffffff16836040516109d390610e9a565b5f6040518083038185875af1925050503d805f8114610a0d576040519150601f19603f3d011682016040523d82523d5f602084013e610a12565b606091505b509150915081610a2657610a2581610ace565b5b50505050565b5f5f60205f8451602086015f885af180610a4b576040513d5f823e3d81fd5b3d92505f519150505f8214610a64576001811415610a7f565b5f8473ffffffffffffffffffffffffffffffffffffffff163b145b15610ac157836040517f5274afe7000000000000000000000000000000000000000000000000000000008152600401610ab89190610c80565b60405180910390fd5b50505050565b5f33905090565b5f81511115610adf57805160208201fd5b6040517fd6bda27500000000000000000000000000000000000000000000000000000000815260040160405180910390fd5b5f5ffd5b5f67ffffffffffffffff82169050919050565b610b3181610b15565b8114610b3b575f5ffd5b50565b5f81359050610b4c81610b28565b92915050565b5f60208284031215610b6757610b66610b11565b5b5f610b7484828501610b3e565b91505092915050565b5f819050919050565b610b8f81610b7d565b82525050565b5f602082019050610ba85f830184610b86565b92915050565b5f73ffffffffffffffffffffffffffffffffffffffff82169050919050565b5f610bd782610bae565b9050919050565b610be781610bcd565b8114610bf1575f5ffd5b50565b5f81359050610c0281610bde565b92915050565b5f60208284031215610c1d57610c1c610b11565b5b5f610c2a84828501610bf4565b91505092915050565b5f5f60408385031215610c4957610c48610b11565b5b5f610c5685828601610bf4565b9250506020610c6785828601610b3e565b9150509250929050565b610c7a81610bcd565b82525050565b5f602082019050610c935f830184610c71565b92915050565b7f4e487b71000000000000000000000000000000000000000000000000000000005f52601160045260245ffd5b5f610cd082610b7d565b9150610cdb83610b7d565b9250828201905080821115610cf357610cf2610c99565b5b92915050565b610d0281610b7d565b8114610d0c575f5ffd5b50565b5f81519050610d1d81610cf9565b92915050565b5f60208284031215610d3857610d37610b11565b5b5f610d4584828501610d0f565b91505092915050565b5f610d5882610b7d565b9150610d6383610b7d565b9250828203905081811115610d7b57610d7a610c99565b5b92915050565b5f610d8b82610b7d565b9150610d9683610b7d565b9250828202610da481610b7d565b91508282048414831517610dbb57610dba610c99565b5b5092915050565b7f4e487b71000000000000000000000000000000000000000000000000000000005f52601260045260245ffd5b5f610df982610b7d565b9150610e0483610b7d565b925082610e1457610e13610dc2565b5b828204905092915050565b5f604082019050610e325f830185610c71565b610e3f6020830184610b86565b9392505050565b5f604082019050610e595f830185610b86565b610e666020830184610b86565b9392505050565b5f81905092915050565b50565b5f610e855f83610e6d565b9150610e9082610e77565b5f82019050919050565b5f610ea482610e7a565b915081905091905056fea26469706673582212203f986baad5bb9bfb50c180a8ad9980123383cc42e0e30c7cbb74b069c5c6a73464736f6c63430008210033a264697066735822122044013c59b10332baf4f68fb6435d0abb88f112c40b70a179d4ed7b3de26db59864736f6c63430008210033",
					"opcodes": "PUSH1 0x80 PUSH1 0x40 MSTORE CALLVALUE DUP1 ISZERO PUSH2 0xF JUMPI PUSH0 PUSH0 REVERT JUMPDEST POP CALLER PUSH0 PUSH20 0xFFFFFFFFFFFFFFFFFFFFFFFFFFFFFFFFFFFFFFFF AND DUP2 PUSH20 0xFFFFFFFFFFFFFFFFFFFFFFFFFFFFFFFFFFFFFFFF AND SUB PUSH2 0x81 JUMPI PUSH0 PUSH1 0x40 MLOAD PUSH32 0x1E4FBDF700000000000000000000000000000000000000000000000000000000 DUP2 MSTORE PUSH1 0x4 ADD PUSH2 0x78 SWAP2 SWAP1 PUSH2 0x196 JUMP JUMPDEST PUSH1 0x40 MLOAD DUP1 SWAP2 SUB SWAP1 REVERT JUMPDEST PUSH2 0x90 DUP2 PUSH2 0x96 PUSH1 0x20 SHL PUSH1 0x20 SHR JUMP JUMPDEST POP PUSH2 0x1AF JUMP JUMPDEST PUSH0 PUSH0 PUSH0 SWAP1 SLOAD SWAP1 PUSH2 0x100 EXP SWAP1 DIV PUSH20 0xFFFFFFFFFFFFFFFFFFFFFFFFFFFFFFFFFFFFFFFF AND SWAP1 POP DUP2 PUSH0 PUSH0 PUSH2 0x100 EXP DUP2 SLOAD DUP2 PUSH20 0xFFFFFFFFFFFFFFFFFFFFFFFFFFFFFFFFFFFFFFFF MUL NOT AND SWAP1 DUP4 PUSH20 0xFFFFFFFFFFFFFFFFFFFFFFFFFFFFFFFFFFFFFFFF AND MUL OR SWAP1 SSTORE POP DUP2 PUSH20 0xFFFFFFFFFFFFFFFFFFFFFFFFFFFFFFFFFFFFFFFF AND DUP2 PUSH20 0xFFFFFFFFFFFFFFFFFFFFFFFFFFFFFFFFFFFFFFFF AND PUSH32 0x8BE0079C531659141344CD1FD0A4F28419497F9722A3DAAFE3B4186F6B6457E0 PUSH1 0x40 MLOAD PUSH1 0x40 MLOAD DUP1 SWAP2 SUB SWAP1 LOG3 POP POP JUMP JUMPDEST PUSH0 PUSH20 0xFFFFFFFFFFFFFFFFFFFFFFFFFFFFFFFFFFFFFFFF DUP3 AND SWAP1 POP SWAP2 SWAP1 POP JUMP JUMPDEST PUSH0 PUSH2 0x180 DUP3 PUSH2 0x157 JUMP JUMPDEST SWAP1 POP SWAP2 SWAP1 POP JUMP JUMPDEST PUSH2 0x190 DUP2 PUSH2 0x176 JUMP JUMPDEST DUP3 MSTORE POP POP JUMP JUMPDEST PUSH0 PUSH1 0x20 DUP3 ADD SWAP1 POP PUSH2 0x1A9 PUSH0 DUP4 ADD DUP5 PUSH2 0x187 JUMP JUMPDEST SWAP3 SWAP2 POP POP JUMP JUMPDEST PUSH2 0x228A DUP1 PUSH2 0x1BC PUSH0 CODECOPY PUSH0 RETURN INVALID PUSH1 0x80 PUSH1 0x40 MSTORE CALLVALUE DUP1 ISZERO PUSH2 0xF JUMPI PUSH0 PUSH0 REVERT JUMPDEST POP PUSH1 0x4 CALLDATASIZE LT PUSH2 0x7B JUMPI PUSH0 CALLDATALOAD PUSH1 0xE0 SHR DUP1 PUSH4 0x715018A6 GT PUSH2 0x59 JUMPI DUP1 PUSH4 0x715018A6 EQ PUSH2 0xFD JUMPI DUP1 PUSH4 0x8DA5CB5B EQ PUSH2 0x107 JUMPI DUP1 PUSH4 0xEDB5F73E EQ PUSH2 0x125 JUMPI DUP1 PUSH4 0xF2FDE38B EQ PUSH2 0x157 JUMPI PUSH2 0x7B JUMP JUMPDEST DUP1 PUSH4 0xE246273 EQ PUSH2 0x7F JUMPI DUP1 PUSH4 0x20F6B0A9 EQ PUSH2 0x9D JUMPI DUP1 PUSH4 0x36AC4AA8 EQ PUSH2 0xCD JUMPI JUMPDEST PUSH0 PUSH0 REVERT JUMPDEST PUSH2 0x87 PUSH2 0x173 JUMP JUMPDEST PUSH1 0x40 MLOAD PUSH2 0x94 SWAP2 SWAP1 PUSH2 0x890 JUMP JUMPDEST PUSH1 0x40 MLOAD DUP1 SWAP2 SUB SWAP1 RETURN JUMPDEST PUSH2 0xB7 PUSH1 0x4 DUP1 CALLDATASIZE SUB DUP2 ADD SWAP1 PUSH2 0xB2 SWAP2 SWAP1 PUSH2 0x8E4 JUMP JUMPDEST PUSH2 0x17F JUMP JUMPDEST PUSH1 0x40 MLOAD PUSH2 0xC4 SWAP2 SWAP1 PUSH2 0xA0B JUMP JUMPDEST PUSH1 0x40 MLOAD DUP1 SWAP2 SUB SWAP1 RETURN JUMPDEST PUSH2 0xE7 PUSH1 0x4 DUP1 CALLDATASIZE SUB DUP2 ADD SWAP1 PUSH2 0xE2 SWAP2 SWAP1 PUSH2 0xBBE JUMP JUMPDEST PUSH2 0x2F2 JUMP JUMPDEST PUSH1 0x40 MLOAD PUSH2 0xF4 SWAP2 SWAP1 PUSH2 0xC4D JUMP JUMPDEST PUSH1 0x40 MLOAD DUP1 SWAP2 SUB SWAP1 RETURN JUMPDEST PUSH2 0x105 PUSH2 0x51A JUMP JUMPDEST STOP JUMPDEST PUSH2 0x10F PUSH2 0x52D JUMP JUMPDEST PUSH1 0x40 MLOAD PUSH2 0x11C SWAP2 SWAP1 PUSH2 0xC4D JUMP JUMPDEST PUSH1 0x40 MLOAD DUP1 SWAP2 SUB SWAP1 RETURN JUMPDEST PUSH2 0x13F PUSH1 0x4 DUP1 CALLDATASIZE SUB DUP2 ADD SWAP1 PUSH2 0x13A SWAP2 SWAP1 PUSH2 0x8E4 JUMP JUMPDEST PUSH2 0x554 JUMP JUMPDEST PUSH1 0x40 MLOAD PUSH2 0x14E SWAP4 SWAP3 SWAP2 SWAP1 PUSH2 0xCAE JUMP JUMPDEST PUSH1 0x40 MLOAD DUP1 SWAP2 SUB SWAP1 RETURN JUMPDEST PUSH2 0x171 PUSH1 0x4 DUP1 CALLDATASIZE SUB DUP2 ADD SWAP1 PUSH2 0x16C SWAP2 SWAP1 PUSH2 0xCEA JUMP JUMPDEST PUSH2 0x64D JUMP JUMPDEST STOP JUMPDEST PUSH0 PUSH1 0x1 DUP1 SLOAD SWAP1 POP SWAP1 POP SWAP1 JUMP JUMPDEST PUSH2 0x187 PUSH2 0x820 JUMP JUMPDEST PUSH1 0x1 DUP3 DUP2 SLOAD DUP2 LT PUSH2 0x19B JUMPI PUSH2 0x19A PUSH2 0xD15 JUMP JUMPDEST JUMPDEST SWAP1 PUSH0 MSTORE PUSH1 0x20 PUSH0 KECCAK256 SWAP1 PUSH1 0x3 MUL ADD PUSH1 0x40 MLOAD DUP1 PUSH1 0x60 ADD PUSH1 0x40 MSTORE SWAP1 DUP2 PUSH0 DUP3 ADD PUSH0 SWAP1 SLOAD SWAP1 PUSH2 0x100 EXP SWAP1 DIV PUSH20 0xFFFFFFFFFFFFFFFFFFFFFFFFFFFFFFFFFFFFFFFF AND PUSH20 0xFFFFFFFFFFFFFFFFFFFFFFFFFFFFFFFFFFFFFFFF AND PUSH20 0xFFFFFFFFFFFFFFFFFFFFFFFFFFFFFFFFFFFFFFFF AND DUP2 MSTORE PUSH1 0x20 ADD PUSH1 0x1 DUP3 ADD PUSH0 SWAP1 SLOAD SWAP1 PUSH2 0x100 EXP SWAP1 DIV PUSH20 0xFFFFFFFFFFFFFFFFFFFFFFFFFFFFFFFFFFFFFFFF AND PUSH20 0xFFFFFFFFFFFFFFFFFFFFFFFFFFFFFFFFFFFFFFFF AND PUSH20 0xFFFFFFFFFFFFFFFFFFFFFFFFFFFFFFFFFFFFFFFF AND DUP2 MSTORE PUSH1 0x20 ADD PUSH1 0x2 DUP3 ADD DUP1 SLOAD PUSH2 0x26B SWAP1 PUSH2 0xD6F JUMP JUMPDEST DUP1 PUSH1 0x1F ADD PUSH1 0x20 DUP1 SWAP2 DIV MUL PUSH1 0x20 ADD PUSH1 0x40 MLOAD SWAP1 DUP2 ADD PUSH1 0x40 MSTORE DUP1 SWAP3 SWAP2 SWAP1 DUP2 DUP2 MSTORE PUSH1 0x20 ADD DUP3 DUP1 SLOAD PUSH2 0x297 SWAP1 PUSH2 0xD6F JUMP JUMPDEST DUP1 ISZERO PUSH2 0x2E2 JUMPI DUP1 PUSH1 0x1F LT PUSH2 0x2B9 JUMPI PUSH2 0x100 DUP1 DUP4 SLOAD DIV MUL DUP4 MSTORE SWAP2 PUSH1 0x20 ADD SWAP2 PUSH2 0x2E2 JUMP JUMPDEST DUP3 ADD SWAP2 SWAP1 PUSH0 MSTORE PUSH1 0x20 PUSH0 KECCAK256 SWAP1 JUMPDEST DUP2 SLOAD DUP2 MSTORE SWAP1 PUSH1 0x1 ADD SWAP1 PUSH1 0x20 ADD DUP1 DUP4 GT PUSH2 0x2C5 JUMPI DUP3 SWAP1 SUB PUSH1 0x1F AND DUP3 ADD SWAP2 JUMPDEST POP POP POP POP POP DUP2 MSTORE POP POP SWAP1 POP SWAP2 SWAP1 POP JUMP JUMPDEST PUSH0 PUSH2 0x2FB PUSH2 0x6D1 JUMP JUMPDEST PUSH0 PUSH20 0xFFFFFFFFFFFFFFFFFFFFFFFFFFFFFFFFFFFFFFFF AND DUP6 PUSH20 0xFFFFFFFFFFFFFFFFFFFFFFFFFFFFFFFFFFFFFFFF AND SUB PUSH2 0x360 JUMPI PUSH1 0x40 MLOAD PUSH32 0xE6C4247B00000000000000000000000000000000000000000000000000000000 DUP2 MSTORE PUSH1 0x4 ADD PUSH1 0x40 MLOAD DUP1 SWAP2 SUB SWAP1 REVERT JUMPDEST PUSH0 DUP6 DUP6 DUP6 PUSH1 0x40 MLOAD PUSH2 0x370 SWAP1 PUSH2 0x86B JUMP JUMPDEST PUSH2 0x37C SWAP4 SWAP3 SWAP2 SWAP1 PUSH2 0xDAE JUMP JUMPDEST PUSH1 0x40 MLOAD DUP1 SWAP2 SUB SWAP1 PUSH0 CREATE DUP1 ISZERO DUP1 ISZERO PUSH2 0x395 JUMPI RETURNDATASIZE PUSH0 PUSH0 RETURNDATACOPY RETURNDATASIZE PUSH0 REVERT JUMPDEST POP SWAP1 POP PUSH1 0x1 PUSH1 0x40 MLOAD DUP1 PUSH1 0x60 ADD PUSH1 0x40 MSTORE DUP1 DUP4 PUSH20 0xFFFFFFFFFFFFFFFFFFFFFFFFFFFFFFFFFFFFFFFF AND DUP2 MSTORE PUSH1 0x20 ADD DUP9 PUSH20 0xFFFFFFFFFFFFFFFFFFFFFFFFFFFFFFFFFFFFFFFF AND DUP2 MSTORE PUSH1 0x20 ADD DUP6 DUP2 MSTORE POP SWAP1 DUP1 PUSH1 0x1 DUP2 SLOAD ADD DUP1 DUP3 SSTORE DUP1 SWAP2 POP POP PUSH1 0x1 SWAP1 SUB SWAP1 PUSH0 MSTORE PUSH1 0x20 PUSH0 KECCAK256 SWAP1 PUSH1 0x3 MUL ADD PUSH0 SWAP1 SWAP2 SWAP1 SWAP2 SWAP1 SWAP2 POP PUSH0 DUP3 ADD MLOAD DUP2 PUSH0 ADD PUSH0 PUSH2 0x100 EXP DUP2 SLOAD DUP2 PUSH20 0xFFFFFFFFFFFFFFFFFFFFFFFFFFFFFFFFFFFFFFFF MUL NOT AND SWAP1 DUP4 PUSH20 0xFFFFFFFFFFFFFFFFFFFFFFFFFFFFFFFFFFFFFFFF AND MUL OR SWAP1 SSTORE POP PUSH1 0x20 DUP3 ADD MLOAD DUP2 PUSH1 0x1 ADD PUSH0 PUSH2 0x100 EXP DUP2 SLOAD DUP2 PUSH20 0xFFFFFFFFFFFFFFFFFFFFFFFFFFFFFFFFFFFFFFFF MUL NOT AND SWAP1 DUP4 PUSH20 0xFFFFFFFFFFFFFFFFFFFFFFFFFFFFFFFFFFFFFFFF AND MUL OR SWAP1 SSTORE POP PUSH1 0x40 DUP3 ADD MLOAD DUP2 PUSH1 0x2 ADD SWAP1 DUP2 PUSH2 0x4A6 SWAP2 SWAP1 PUSH2 0xF94 JUMP JUMPDEST POP POP POP DUP6 PUSH20 0xFFFFFFFFFFFFFFFFFFFFFFFFFFFFFFFFFFFFFFFF AND DUP2 PUSH20 0xFFFFFFFFFFFFFFFFFFFFFFFFFFFFFFFFFFFFFFFF AND PUSH32 0xED38EF660E9ABB113E06FB77981812E01A5691E845EE7AEFA7AC2E94463648D DUP6 PUSH1 0x40 MLOAD PUSH2 0x506 SWAP2 SWAP1 PUSH2 0x1063 JUMP JUMPDEST PUSH1 0x40 MLOAD DUP1 SWAP2 SUB SWAP1 LOG3 DUP1 SWAP2 POP POP SWAP5 SWAP4 POP POP POP POP JUMP JUMPDEST PUSH2 0x522 PUSH2 0x6D1 JUMP JUMPDEST PUSH2 0x52B PUSH0 PUSH2 0x758 JUMP JUMPDEST JUMP JUMPDEST PUSH0 PUSH0 PUSH0 SWAP1 SLOAD SWAP1 PUSH2 0x100 EXP SWAP1 DIV PUSH20 0xFFFFFFFFFFFFFFFFFFFFFFFFFFFFFFFFFFFFFFFF AND SWAP1 POP SWAP1 JUMP JUMPDEST PUSH1 0x1 DUP2 DUP2 SLOAD DUP2 LT PUSH2 0x563 JUMPI PUSH0 DUP1 REVERT JUMPDEST SWAP1 PUSH0 MSTORE PUSH1 0x20 PUSH0 KECCAK256 SWAP1 PUSH1 0x3 MUL ADD PUSH0 SWAP2 POP SWAP1 POP DUP1 PUSH0 ADD PUSH0 SWAP1 SLOAD SWAP1 PUSH2 0x100 EXP SWAP1 DIV PUSH20 0xFFFFFFFFFFFFFFFFFFFFFFFFFFFFFFFFFFFFFFFF AND SWAP1 DUP1 PUSH1 0x1 ADD PUSH0 SWAP1 SLOAD SWAP1 PUSH2 0x100 EXP SWAP1 DIV PUSH20 0xFFFFFFFFFFFFFFFFFFFFFFFFFFFFFFFFFFFFFFFF AND SWAP1 DUP1 PUSH1 0x2 ADD DUP1 SLOAD PUSH2 0x5CC SWAP1 PUSH2 0xD6F JUMP JUMPDEST DUP1 PUSH1 0x1F ADD PUSH1 0x20 DUP1 SWAP2 DIV MUL PUSH1 0x20 ADD PUSH1 0x40 MLOAD SWAP1 DUP2 ADD PUSH1 0x40 MSTORE DUP1 SWAP3 SWAP2 SWAP1 DUP2 DUP2 MSTORE PUSH1 0x20 ADD DUP3 DUP1 SLOAD PUSH2 0x5F8 SWAP1 PUSH2 0xD6F JUMP JUMPDEST DUP1 ISZERO PUSH2 0x643 JUMPI DUP1 PUSH1 0x1F LT PUSH2 0x61A JUMPI PUSH2 0x100 DUP1 DUP4 SLOAD DIV MUL DUP4 MSTORE SWAP2 PUSH1 0x20 ADD SWAP2 PUSH2 0x643 JUMP JUMPDEST DUP3 ADD SWAP2 SWAP1 PUSH0 MSTORE PUSH1 0x20 PUSH0 KECCAK256 SWAP1 JUMPDEST DUP2 SLOAD DUP2 MSTORE SWAP1 PUSH1 0x1 ADD SWAP1 PUSH1 0x20 ADD DUP1 DUP4 GT PUSH2 0x626 JUMPI DUP3 SWAP1 SUB PUSH1 0x1F AND DUP3 ADD SWAP2 JUMPDEST POP POP POP POP POP SWAP1 POP DUP4 JUMP JUMPDEST PUSH2 0x655 PUSH2 0x6D1 JUMP JUMPDEST PUSH0 PUSH20 0xFFFFFFFFFFFFFFFFFFFFFFFFFFFFFFFFFFFFFFFF AND DUP2 PUSH20 0xFFFFFFFFFFFFFFFFFFFFFFFFFFFFFFFFFFFFFFFF AND SUB PUSH2 0x6C5 JUMPI PUSH0 PUSH1 0x40 MLOAD PUSH32 0x1E4FBDF700000000000000000000000000000000000000000000000000000000 DUP2 MSTORE PUSH1 0x4 ADD PUSH2 0x6BC SWAP2 SWAP1 PUSH2 0xC4D JUMP JUMPDEST PUSH1 0x40 MLOAD DUP1 SWAP2 SUB SWAP1 REVERT JUMPDEST PUSH2 0x6CE DUP2 PUSH2 0x758 JUMP JUMPDEST POP JUMP JUMPDEST PUSH2 0x6D9 PUSH2 0x819 JUMP JUMPDEST PUSH20 0xFFFFFFFFFFFFFFFFFFFFFFFFFFFFFFFFFFFFFFFF AND PUSH2 0x6F7 PUSH2 0x52D JUMP JUMPDEST PUSH20 0xFFFFFFFFFFFFFFFFFFFFFFFFFFFFFFFFFFFFFFFF AND EQ PUSH2 0x756 JUMPI PUSH2 0x71A PUSH2 0x819 JUMP JUMPDEST PUSH1 0x40 MLOAD PUSH32 0x118CDAA700000000000000000000000000000000000000000000000000000000 DUP2 MSTORE PUSH1 0x4 ADD PUSH2 0x74D SWAP2 SWAP1 PUSH2 0xC4D JUMP JUMPDEST PUSH1 0x40 MLOAD DUP1 SWAP2 SUB SWAP1 REVERT JUMPDEST JUMP JUMPDEST PUSH0 PUSH0 PUSH0 SWAP1 SLOAD SWAP1 PUSH2 0x100 EXP SWAP1 DIV PUSH20 0xFFFFFFFFFFFFFFFFFFFFFFFFFFFFFFFFFFFFFFFF AND SWAP1 POP DUP2 PUSH0 PUSH0 PUSH2 0x100 EXP DUP2 SLOAD DUP2 PUSH20 0xFFFFFFFFFFFFFFFFFFFFFFFFFFFFFFFFFFFFFFFF MUL NOT AND SWAP1 DUP4 PUSH20 0xFFFFFFFFFFFFFFFFFFFFFFFFFFFFFFFFFFFFFFFF AND MUL OR SWAP1 SSTORE POP DUP2 PUSH20 0xFFFFFFFFFFFFFFFFFFFFFFFFFFFFFFFFFFFFFFFF AND DUP2 PUSH20 0xFFFFFFFFFFFFFFFFFFFFFFFFFFFFFFFFFFFFFFFF AND PUSH32 0x8BE0079C531659141344CD1FD0A4F28419497F9722A3DAAFE3B4186F6B6457E0 PUSH1 0x40 MLOAD PUSH1 0x40 MLOAD DUP1 SWAP2 SUB SWAP1 LOG3 POP POP JUMP JUMPDEST PUSH0 CALLER SWAP1 POP SWAP1 JUMP JUMPDEST PUSH1 0x40 MLOAD DUP1 PUSH1 0x60 ADD PUSH1 0x40 MSTORE DUP1 PUSH0 PUSH20 0xFFFFFFFFFFFFFFFFFFFFFFFFFFFFFFFFFFFFFFFF AND DUP2 MSTORE PUSH1 0x20 ADD PUSH0 PUSH20 0xFFFFFFFFFFFFFFFFFFFFFFFFFFFFFFFFFFFFFFFF AND DUP2 MSTORE PUSH1 0x20 ADD PUSH1 0x60 DUP2 MSTORE POP SWAP1 JUMP JUMPDEST PUSH2 0x11D1 DUP1 PUSH2 0x1084 DUP4 CODECOPY ADD SWAP1 JUMP JUMPDEST PUSH0 DUP2 SWAP1 POP SWAP2 SWAP1 POP JUMP JUMPDEST PUSH2 0x88A DUP2 PUSH2 0x878 JUMP JUMPDEST DUP3 MSTORE POP POP JUMP JUMPDEST PUSH0 PUSH1 0x20 DUP3 ADD SWAP1 POP PUSH2 0x8A3 PUSH0 DUP4 ADD DUP5 PUSH2 0x881 JUMP JUMPDEST SWAP3 SWAP2 POP POP JUMP JUMPDEST PUSH0 PUSH1 0x40 MLOAD SWAP1 POP SWAP1 JUMP JUMPDEST PUSH0 PUSH0 REVERT JUMPDEST PUSH0 PUSH0 REVERT JUMPDEST PUSH2 0x8C3 DUP2 PUSH2 0x878 JUMP JUMPDEST DUP2 EQ PUSH2 0x8CD JUMPI PUSH0 PUSH0 REVERT JUMPDEST POP JUMP JUMPDEST PUSH0 DUP2 CALLDATALOAD SWAP1 POP PUSH2 0x8DE DUP2 PUSH2 0x8BA JUMP JUMPDEST SWAP3 SWAP2 POP POP JUMP JUMPDEST PUSH0 PUSH1 0x20 DUP3 DUP5 SUB SLT ISZERO PUSH2 0x8F9 JUMPI PUSH2 0x8F8 PUSH2 0x8B2 JUMP JUMPDEST JUMPDEST PUSH0 PUSH2 0x906 DUP5 DUP3 DUP6 ADD PUSH2 0x8D0 JUMP JUMPDEST SWAP2 POP POP SWAP3 SWAP2 POP POP JUMP JUMPDEST PUSH0 PUSH20 0xFFFFFFFFFFFFFFFFFFFFFFFFFFFFFFFFFFFFFFFF DUP3 AND SWAP1 POP SWAP2 SWAP1 POP JUMP JUMPDEST PUSH0 PUSH2 0x938 DUP3 PUSH2 0x90F JUMP JUMPDEST SWAP1 POP SWAP2 SWAP1 POP JUMP JUMPDEST PUSH2 0x948 DUP2 PUSH2 0x92E JUMP JUMPDEST DUP3 MSTORE POP POP JUMP JUMPDEST PUSH0 DUP2 MLOAD SWAP1 POP SWAP2 SWAP1 POP JUMP JUMPDEST PUSH0 DUP3 DUP3 MSTORE PUSH1 0x20 DUP3 ADD SWAP1 POP SWAP3 SWAP2 POP POP JUMP JUMPDEST DUP3 DUP2 DUP4 MCOPY PUSH0 DUP4 DUP4 ADD MSTORE POP POP POP JUMP JUMPDEST PUSH0 PUSH1 0x1F NOT PUSH1 0x1F DUP4 ADD AND SWAP1 POP SWAP2 SWAP1 POP JUMP JUMPDEST PUSH0 PUSH2 0x990 DUP3 PUSH2 0x94E JUMP JUMPDEST PUSH2 0x99A DUP2 DUP6 PUSH2 0x958 JUMP JUMPDEST SWAP4 POP PUSH2 0x9AA DUP2 DUP6 PUSH1 0x20 DUP7 ADD PUSH2 0x968 JUMP JUMPDEST PUSH2 0x9B3 DUP2 PUSH2 0x976 JUMP JUMPDEST DUP5 ADD SWAP2 POP POP SWAP3 SWAP2 POP POP JUMP JUMPDEST PUSH0 PUSH1 0x60 DUP4 ADD PUSH0 DUP4 ADD MLOAD PUSH2 0x9D3 PUSH0 DUP7 ADD DUP3 PUSH2 0x93F JUMP JUMPDEST POP PUSH1 0x20 DUP4 ADD MLOAD PUSH2 0x9E6 PUSH1 0x20 DUP7 ADD DUP3 PUSH2 0x93F JUMP JUMPDEST POP PUSH1 0x40 DUP4 ADD MLOAD DUP5 DUP3 SUB PUSH1 0x40 DUP7 ADD MSTORE PUSH2 0x9FE DUP3 DUP3 PUSH2 0x986 JUMP JUMPDEST SWAP2 POP POP DUP1 SWAP2 POP POP SWAP3 SWAP2 POP POP JUMP JUMPDEST PUSH0 PUSH1 0x20 DUP3 ADD SWAP1 POP DUP2 DUP2 SUB PUSH0 DUP4 ADD MSTORE PUSH2 0xA23 DUP2 DUP5 PUSH2 0x9BE JUMP JUMPDEST SWAP1 POP SWAP3 SWAP2 POP POP JUMP JUMPDEST PUSH2 0xA34 DUP2 PUSH2 0x92E JUMP JUMPDEST DUP2 EQ PUSH2 0xA3E JUMPI PUSH0 PUSH0 REVERT JUMPDEST POP JUMP JUMPDEST PUSH0 DUP2 CALLDATALOAD SWAP1 POP PUSH2 0xA4F DUP2 PUSH2 0xA2B JUMP JUMPDEST SWAP3 SWAP2 POP POP JUMP JUMPDEST PUSH0 PUSH8 0xFFFFFFFFFFFFFFFF DUP3 AND SWAP1 POP SWAP2 SWAP1 POP JUMP JUMPDEST PUSH2 0xA71 DUP2 PUSH2 0xA55 JUMP JUMPDEST DUP2 EQ PUSH2 0xA7B JUMPI PUSH0 PUSH0 REVERT JUMPDEST POP JUMP JUMPDEST PUSH0 DUP2 CALLDATALOAD SWAP1 POP PUSH2 0xA8C DUP2 PUSH2 0xA68 JUMP JUMPDEST SWAP3 SWAP2 POP POP JUMP JUMPDEST PUSH0 PUSH0 REVERT JUMPDEST PUSH0 PUSH0 REVERT JUMPDEST PUSH32 0x4E487B7100000000000000000000000000000000000000000000000000000000 PUSH0 MSTORE PUSH1 0x41 PUSH1 0x4 MSTORE PUSH1 0x24 PUSH0 REVERT JUMPDEST PUSH2 0xAD0 DUP3 PUSH2 0x976 JUMP JUMPDEST DUP2 ADD DUP2 DUP2 LT PUSH8 0xFFFFFFFFFFFFFFFF DUP3 GT OR ISZERO PUSH2 0xAEF JUMPI PUSH2 0xAEE PUSH2 0xA9A JUMP JUMPDEST JUMPDEST DUP1 PUSH1 0x40 MSTORE POP POP POP JUMP JUMPDEST PUSH0 PUSH2 0xB01 PUSH2 0x8A9 JUMP JUMPDEST SWAP1 POP PUSH2 0xB0D DUP3 DUP3 PUSH2 0xAC7 JUMP JUMPDEST SWAP2 SWAP1 POP JUMP JUMPDEST PUSH0 PUSH8 0xFFFFFFFFFFFFFFFF DUP3 GT ISZERO PUSH2 0xB2C JUMPI PUSH2 0xB2B PUSH2 0xA9A JUMP JUMPDEST JUMPDEST PUSH2 0xB35 DUP3 PUSH2 0x976 JUMP JUMPDEST SWAP1 POP PUSH1 0x20 DUP2 ADD SWAP1 POP SWAP2 SWAP1 POP JUMP JUMPDEST DUP3 DUP2 DUP4 CALLDATACOPY PUSH0 DUP4 DUP4 ADD MSTORE POP POP POP JUMP JUMPDEST PUSH0 PUSH2 0xB62 PUSH2 0xB5D DUP5 PUSH2 0xB12 JUMP JUMPDEST PUSH2 0xAF8 JUMP JUMPDEST SWAP1 POP DUP3 DUP2 MSTORE PUSH1 0x20 DUP2 ADD DUP5 DUP5 DUP5 ADD GT ISZERO PUSH2 0xB7E JUMPI PUSH2 0xB7D PUSH2 0xA96 JUMP JUMPDEST JUMPDEST PUSH2 0xB89 DUP5 DUP3 DUP6 PUSH2 0xB42 JUMP JUMPDEST POP SWAP4 SWAP3 POP POP POP JUMP JUMPDEST PUSH0 DUP3 PUSH1 0x1F DUP4 ADD SLT PUSH2 0xBA5 JUMPI PUSH2 0xBA4 PUSH2 0xA92 JUMP JUMPDEST JUMPDEST DUP2 CALLDATALOAD PUSH2 0xBB5 DUP5 DUP3 PUSH1 0x20 DUP7 ADD PUSH2 0xB50 JUMP JUMPDEST SWAP2 POP POP SWAP3 SWAP2 POP POP JUMP JUMPDEST PUSH0 PUSH0 PUSH0 PUSH0 PUSH1 0x80 DUP6 DUP8 SUB SLT ISZERO PUSH2 0xBD6 JUMPI PUSH2 0xBD5 PUSH2 0x8B2 JUMP JUMPDEST JUMPDEST PUSH0 PUSH2 0xBE3 DUP8 DUP3 DUP9 ADD PUSH2 0xA41 JUMP JUMPDEST SWAP5 POP POP PUSH1 0x20 PUSH2 0xBF4 DUP8 DUP3 DUP9 ADD PUSH2 0xA7E JUMP JUMPDEST SWAP4 POP POP PUSH1 0x40 PUSH2 0xC05 DUP8 DUP3 DUP9 ADD PUSH2 0xA7E JUMP JUMPDEST SWAP3 POP POP PUSH1 0x60 DUP6 ADD CALLDATALOAD PUSH8 0xFFFFFFFFFFFFFFFF DUP2 GT ISZERO PUSH2 0xC26 JUMPI PUSH2 0xC25 PUSH2 0x8B6 JUMP JUMPDEST JUMPDEST PUSH2 0xC32 DUP8 DUP3 DUP9 ADD PUSH2 0xB91 JUMP JUMPDEST SWAP2 POP POP SWAP3 SWAP6 SWAP2 SWAP5 POP SWAP3 POP JUMP JUMPDEST PUSH2 0xC47 DUP2 PUSH2 0x92E JUMP JUMPDEST DUP3 MSTORE POP POP JUMP JUMPDEST PUSH0 PUSH1 0x20 DUP3 ADD SWAP1 POP PUSH2 0xC60 PUSH0 DUP4 ADD DUP5 PUSH2 0xC3E JUMP JUMPDEST SWAP3 SWAP2 POP POP JUMP JUMPDEST PUSH0 DUP3 DUP3 MSTORE PUSH1 0x20 DUP3 ADD SWAP1 POP SWAP3 SWAP2 POP POP JUMP JUMPDEST PUSH0 PUSH2 0xC80 DUP3 PUSH2 0x94E JUMP JUMPDEST PUSH2 0xC8A DUP2 DUP6 PUSH2 0xC66 JUMP JUMPDEST SWAP4 POP PUSH2 0xC9A DUP2 DUP6 PUSH1 0x20 DUP7 ADD PUSH2 0x968 JUMP JUMPDEST PUSH2 0xCA3 DUP2 PUSH2 0x976 JUMP JUMPDEST DUP5 ADD SWAP2 POP POP SWAP3 SWAP2 POP POP JUMP JUMPDEST PUSH0 PUSH1 0x60 DUP3 ADD SWAP1 POP PUSH2 0xCC1 PUSH0 DUP4 ADD DUP7 PUSH2 0xC3E JUMP JUMPDEST PUSH2 0xCCE PUSH1 0x20 DUP4 ADD DUP6 PUSH2 0xC3E JUMP JUMPDEST DUP2 DUP2 SUB PUSH1 0x40 DUP4 ADD MSTORE PUSH2 0xCE0 DUP2 DUP5 PUSH2 0xC76 JUMP JUMPDEST SWAP1 POP SWAP5 SWAP4 POP POP POP POP JUMP JUMPDEST PUSH0 PUSH1 0x20 DUP3 DUP5 SUB SLT ISZERO PUSH2 0xCFF JUMPI PUSH2 0xCFE PUSH2 0x8B2 JUMP JUMPDEST JUMPDEST PUSH0 PUSH2 0xD0C DUP5 DUP3 DUP6 ADD PUSH2 0xA41 JUMP JUMPDEST SWAP2 POP POP SWAP3 SWAP2 POP POP JUMP JUMPDEST PUSH32 0x4E487B7100000000000000000000000000000000000000000000000000000000 PUSH0 MSTORE PUSH1 0x32 PUSH1 0x4 MSTORE PUSH1 0x24 PUSH0 REVERT JUMPDEST PUSH32 0x4E487B7100000000000000000000000000000000000000000000000000000000 PUSH0 MSTORE PUSH1 0x22 PUSH1 0x4 MSTORE PUSH1 0x24 PUSH0 REVERT JUMPDEST PUSH0 PUSH1 0x2 DUP3 DIV SWAP1 POP PUSH1 0x1 DUP3 AND DUP1 PUSH2 0xD86 JUMPI PUSH1 0x7F DUP3 AND SWAP2 POP JUMPDEST PUSH1 0x20 DUP3 LT DUP2 SUB PUSH2 0xD99 JUMPI PUSH2 0xD98 PUSH2 0xD42 JUMP JUMPDEST JUMPDEST POP SWAP2 SWAP1 POP JUMP JUMPDEST PUSH2 0xDA8 DUP2 PUSH2 0xA55 JUMP JUMPDEST DUP3 MSTORE POP POP JUMP JUMPDEST PUSH0 PUSH1 0x60 DUP3 ADD SWAP1 POP PUSH2 0xDC1 PUSH0 DUP4 ADD DUP7 PUSH2 0xC3E JUMP JUMPDEST PUSH2 0xDCE PUSH1 0x20 DUP4 ADD DUP6 PUSH2 0xD9F JUMP JUMPDEST PUSH2 0xDDB PUSH1 0x40 DUP4 ADD DUP5 PUSH2 0xD9F JUMP JUMPDEST SWAP5 SWAP4 POP POP POP POP JUMP JUMPDEST PUSH0 DUP2 SWAP1 POP DUP2 PUSH0 MSTORE PUSH1 0x20 PUSH0 KECCAK256 SWAP1 POP SWAP2 SWAP1 POP JUMP JUMPDEST PUSH0 PUSH1 0x20 PUSH1 0x1F DUP4 ADD DIV SWAP1 POP SWAP2 SWAP1 POP JUMP JUMPDEST PUSH0 DUP3 DUP3 SHL SWAP1 POP SWAP3 SWAP2 POP POP JUMP JUMPDEST PUSH0 PUSH1 0x8 DUP4 MUL PUSH2 0xE3F PUSH32 0xFFFFFFFFFFFFFFFFFFFFFFFFFFFFFFFFFFFFFFFFFFFFFFFFFFFFFFFFFFFFFFFF DUP3 PUSH2 0xE04 JUMP JUMPDEST PUSH2 0xE49 DUP7 DUP4 PUSH2 0xE04 JUMP JUMPDEST SWAP6 POP DUP1 NOT DUP5 AND SWAP4 POP DUP1 DUP7 AND DUP5 OR SWAP3 POP POP POP SWAP4 SWAP3 POP POP POP JUMP JUMPDEST PUSH0 DUP2 SWAP1 POP SWAP2 SWAP1 POP JUMP JUMPDEST PUSH0 PUSH2 0xE84 PUSH2 0xE7F PUSH2 0xE7A DUP5 PUSH2 0x878 JUMP JUMPDEST PUSH2 0xE61 JUMP JUMPDEST PUSH2 0x878 JUMP JUMPDEST SWAP1 POP SWAP2 SWAP1 POP JUMP JUMPDEST PUSH0 DUP2 SWAP1 POP SWAP2 SWAP1 POP JUMP JUMPDEST PUSH2 0xE9D DUP4 PUSH2 0xE6A JUMP JUMPDEST PUSH2 0xEB1 PUSH2 0xEA9 DUP3 PUSH2 0xE8B JUMP JUMPDEST DUP5 DUP5 SLOAD PUSH2 0xE10 JUMP JUMPDEST DUP3 SSTORE POP POP POP POP JUMP JUMPDEST PUSH0 PUSH0 SWAP1 POP SWAP1 JUMP JUMPDEST PUSH2 0xEC8 PUSH2 0xEB9 JUMP JUMPDEST PUSH2 0xED3 DUP2 DUP5 DUP5 PUSH2 0xE94 JUMP JUMPDEST POP POP POP JUMP JUMPDEST PUSH0 JUMPDEST DUP3 DUP2 LT ISZERO PUSH2 0xEF9 JUMPI PUSH2 0xEEE PUSH0 DUP3 DUP5 ADD PUSH2 0xEC0 JUMP JUMPDEST PUSH1 0x1 DUP2 ADD SWAP1 POP PUSH2 0xEDA JUMP JUMPDEST POP POP POP JUMP JUMPDEST PUSH1 0x1F DUP3 GT ISZERO PUSH2 0xF4C JUMPI DUP3 DUP3 GT ISZERO PUSH2 0xF4B JUMPI PUSH2 0xF18 DUP2 PUSH2 0xDE3 JUMP JUMPDEST PUSH2 0xF21 DUP4 PUSH2 0xDF5 JUMP JUMPDEST PUSH2 0xF2A DUP6 PUSH2 0xDF5 JUMP JUMPDEST PUSH1 0x20 DUP7 LT ISZERO PUSH2 0xF37 JUMPI PUSH0 SWAP1 POP JUMPDEST DUP1 DUP4 ADD PUSH2 0xF46 DUP3 DUP5 SUB DUP3 PUSH2 0xED8 JUMP JUMPDEST POP POP POP POP JUMPDEST JUMPDEST POP POP POP JUMP JUMPDEST PUSH0 DUP3 DUP3 SHR SWAP1 POP SWAP3 SWAP2 POP POP JUMP JUMPDEST PUSH0 PUSH2 0xF6C PUSH0 NOT DUP5 PUSH1 0x8 MUL PUSH2 0xF51 JUMP JUMPDEST NOT DUP1 DUP4 AND SWAP2 POP POP SWAP3 SWAP2 POP POP JUMP JUMPDEST PUSH0 PUSH2 0xF84 DUP4 DUP4 PUSH2 0xF5D JUMP JUMPDEST SWAP2 POP DUP3 PUSH1 0x2 MUL DUP3 OR SWAP1 POP SWAP3 SWAP2 POP POP JUMP JUMPDEST PUSH2 0xF9D DUP3 PUSH2 0x94E JUMP JUMPDEST PUSH8 0xFFFFFFFFFFFFFFFF DUP2 GT ISZERO PUSH2 0xFB6 JUMPI PUSH2 0xFB5 PUSH2 0xA9A JUMP JUMPDEST JUMPDEST PUSH2 0xFC0 DUP3 SLOAD PUSH2 0xD6F JUMP JUMPDEST PUSH2 0xFCB DUP3 DUP3 DUP6 PUSH2 0xEFE JUMP JUMPDEST PUSH0 PUSH1 0x20 SWAP1 POP PUSH1 0x1F DUP4 GT PUSH1 0x1 DUP2 EQ PUSH2 0xFFC JUMPI PUSH0 DUP5 ISZERO PUSH2 0xFEA JUMPI DUP3 DUP8 ADD MLOAD SWAP1 POP JUMPDEST PUSH2 0xFF4 DUP6 DUP3 PUSH2 0xF79 JUMP JUMPDEST DUP7 SSTORE POP PUSH2 0x105B JUMP JUMPDEST PUSH1 0x1F NOT DUP5 AND PUSH2 0x100A DUP7 PUSH2 0xDE3 JUMP JUMPDEST PUSH0 JUMPDEST DUP3 DUP2 LT ISZERO PUSH2 0x1031 JUMPI DUP5 DUP10 ADD MLOAD DUP3 SSTORE PUSH1 0x1 DUP3 ADD SWAP2 POP PUSH1 0x20 DUP6 ADD SWAP5 POP PUSH1 0x20 DUP2 ADD SWAP1 POP PUSH2 0x100C JUMP JUMPDEST DUP7 DUP4 LT ISZERO PUSH2 0x104E JUMPI DUP5 DUP10 ADD MLOAD PUSH2 0x104A PUSH1 0x1F DUP10 AND DUP3 PUSH2 0xF5D JUMP JUMPDEST DUP4 SSTORE POP JUMPDEST PUSH1 0x1 PUSH1 0x2 DUP9 MUL ADD DUP9 SSTORE POP POP POP JUMPDEST POP POP POP POP POP POP JUMP JUMPDEST PUSH0 PUSH1 0x20 DUP3 ADD SWAP1 POP DUP2 DUP2 SUB PUSH0 DUP4 ADD MSTORE PUSH2 0x107B DUP2 DUP5 PUSH2 0xC76 JUMP JUMPDEST SWAP1 POP SWAP3 SWAP2 POP POP JUMP INVALID PUSH1 0xC0 PUSH1 0x40 MSTORE CALLVALUE DUP1 ISZERO PUSH2 0xF JUMPI PUSH0 PUSH0 REVERT JUMPDEST POP PUSH1 0x40 MLOAD PUSH2 0x11D1 CODESIZE SUB DUP1 PUSH2 0x11D1 DUP4 CODECOPY DUP2 DUP2 ADD PUSH1 0x40 MSTORE DUP2 ADD SWAP1 PUSH2 0x31 SWAP2 SWAP1 PUSH2 0x254 JUMP JUMPDEST DUP3 DUP3 DUP3 DUP3 PUSH0 PUSH20 0xFFFFFFFFFFFFFFFFFFFFFFFFFFFFFFFFFFFFFFFF AND DUP2 PUSH20 0xFFFFFFFFFFFFFFFFFFFFFFFFFFFFFFFFFFFFFFFF AND SUB PUSH2 0xA5 JUMPI PUSH0 PUSH1 0x40 MLOAD PUSH32 0x1E4FBDF700000000000000000000000000000000000000000000000000000000 DUP2 MSTORE PUSH1 0x4 ADD PUSH2 0x9C SWAP2 SWAP1 PUSH2 0x2B3 JUMP JUMPDEST PUSH1 0x40 MLOAD DUP1 SWAP2 SUB SWAP1 REVERT JUMPDEST PUSH2 0xB4 DUP2 PUSH2 0xF8 PUSH1 0x20 SHL PUSH1 0x20 SHR JUMP JUMPDEST POP DUP2 PUSH8 0xFFFFFFFFFFFFFFFF AND PUSH1 0x80 DUP2 PUSH8 0xFFFFFFFFFFFFFFFF AND DUP2 MSTORE POP POP DUP1 PUSH8 0xFFFFFFFFFFFFFFFF AND PUSH1 0xA0 DUP2 PUSH8 0xFFFFFFFFFFFFFFFF AND DUP2 MSTORE POP POP POP POP POP POP POP POP PUSH2 0x2CC JUMP JUMPDEST PUSH0 PUSH0 PUSH0 SWAP1 SLOAD SWAP1 PUSH2 0x100 EXP SWAP1 DIV PUSH20 0xFFFFFFFFFFFFFFFFFFFFFFFFFFFFFFFFFFFFFFFF AND SWAP1 POP DUP2 PUSH0 PUSH0 PUSH2 0x100 EXP DUP2 SLOAD DUP2 PUSH20 0xFFFFFFFFFFFFFFFFFFFFFFFFFFFFFFFFFFFFFFFF MUL NOT AND SWAP1 DUP4 PUSH20 0xFFFFFFFFFFFFFFFFFFFFFFFFFFFFFFFFFFFFFFFF AND MUL OR SWAP1 SSTORE POP DUP2 PUSH20 0xFFFFFFFFFFFFFFFFFFFFFFFFFFFFFFFFFFFFFFFF AND DUP2 PUSH20 0xFFFFFFFFFFFFFFFFFFFFFFFFFFFFFFFFFFFFFFFF AND PUSH32 0x8BE0079C531659141344CD1FD0A4F28419497F9722A3DAAFE3B4186F6B6457E0 PUSH1 0x40 MLOAD PUSH1 0x40 MLOAD DUP1 SWAP2 SUB SWAP1 LOG3 POP POP JUMP JUMPDEST PUSH0 PUSH0 REVERT JUMPDEST PUSH0 PUSH20 0xFFFFFFFFFFFFFFFFFFFFFFFFFFFFFFFFFFFFFFFF DUP3 AND SWAP1 POP SWAP2 SWAP1 POP JUMP JUMPDEST PUSH0 PUSH2 0x1E6 DUP3 PUSH2 0x1BD JUMP JUMPDEST SWAP1 POP SWAP2 SWAP1 POP JUMP JUMPDEST PUSH2 0x1F6 DUP2 PUSH2 0x1DC JUMP JUMPDEST DUP2 EQ PUSH2 0x200 JUMPI PUSH0 PUSH0 REVERT JUMPDEST POP JUMP JUMPDEST PUSH0 DUP2 MLOAD SWAP1 POP PUSH2 0x211 DUP2 PUSH2 0x1ED JUMP JUMPDEST SWAP3 SWAP2 POP POP JUMP JUMPDEST PUSH0 PUSH8 0xFFFFFFFFFFFFFFFF DUP3 AND SWAP1 POP SWAP2 SWAP1 POP JUMP JUMPDEST PUSH2 0x233 DUP2 PUSH2 0x217 JUMP JUMPDEST DUP2 EQ PUSH2 0x23D JUMPI PUSH0 PUSH0 REVERT JUMPDEST POP JUMP JUMPDEST PUSH0 DUP2 MLOAD SWAP1 POP PUSH2 0x24E DUP2 PUSH2 0x22A JUMP JUMPDEST SWAP3 SWAP2 POP POP JUMP JUMPDEST PUSH0 PUSH0 PUSH0 PUSH1 0x60 DUP5 DUP7 SUB SLT ISZERO PUSH2 0x26B JUMPI PUSH2 0x26A PUSH2 0x1B9 JUMP JUMPDEST JUMPDEST PUSH0 PUSH2 0x278 DUP7 DUP3 DUP8 ADD PUSH2 0x203 JUMP JUMPDEST SWAP4 POP POP PUSH1 0x20 PUSH2 0x289 DUP7 DUP3 DUP8 ADD PUSH2 0x240 JUMP JUMPDEST SWAP3 POP POP PUSH1 0x40 PUSH2 0x29A DUP7 DUP3 DUP8 ADD PUSH2 0x240 JUMP JUMPDEST SWAP2 POP POP SWAP3 POP SWAP3 POP SWAP3 JUMP JUMPDEST PUSH2 0x2AD DUP2 PUSH2 0x1DC JUMP JUMPDEST DUP3 MSTORE POP POP JUMP JUMPDEST PUSH0 PUSH1 0x20 DUP3 ADD SWAP1 POP PUSH2 0x2C6 PUSH0 DUP4 ADD DUP5 PUSH2 0x2A4 JUMP JUMPDEST SWAP3 SWAP2 POP POP JUMP JUMPDEST PUSH1 0x80 MLOAD PUSH1 0xA0 MLOAD PUSH2 0xEE4 PUSH2 0x2ED PUSH0 CODECOPY PUSH0 PUSH2 0x37A ADD MSTORE PUSH0 PUSH2 0x627 ADD MSTORE PUSH2 0xEE4 PUSH0 RETURN INVALID PUSH1 0x80 PUSH1 0x40 MSTORE PUSH1 0x4 CALLDATASIZE LT PUSH2 0xE0 JUMPI PUSH0 CALLDATALOAD PUSH1 0xE0 SHR DUP1 PUSH4 0x96132521 GT PUSH2 0x7E JUMPI DUP1 PUSH4 0xBE9A6555 GT PUSH2 0x58 JUMPI DUP1 PUSH4 0xBE9A6555 EQ PUSH2 0x2AD JUMPI DUP1 PUSH4 0xEFBE1C1C EQ PUSH2 0x2D7 JUMPI DUP1 PUSH4 0xF2FDE38B EQ PUSH2 0x301 JUMPI DUP1 PUSH4 0xFBCCEDAE EQ PUSH2 0x329 JUMPI PUSH2 0xE7 JUMP JUMPDEST DUP1 PUSH4 0x96132521 EQ PUSH2 0x20B JUMPI DUP1 PUSH4 0x9852595C EQ PUSH2 0x235 JUMPI DUP1 PUSH4 0xA3F8EACE EQ PUSH2 0x271 JUMPI PUSH2 0xE7 JUMP JUMPDEST DUP1 PUSH4 0x715018A6 GT PUSH2 0xBA JUMPI DUP1 PUSH4 0x715018A6 EQ PUSH2 0x179 JUMPI DUP1 PUSH4 0x810EC23B EQ PUSH2 0x18F JUMPI DUP1 PUSH4 0x86D1A69F EQ PUSH2 0x1CB JUMPI DUP1 PUSH4 0x8DA5CB5B EQ PUSH2 0x1E1 JUMPI PUSH2 0xE7 JUMP JUMPDEST DUP1 PUSH4 0xA17B06B EQ PUSH2 0xEB JUMPI DUP1 PUSH4 0xFB5A6B4 EQ PUSH2 0x127 JUMPI DUP1 PUSH4 0x19165587 EQ PUSH2 0x151 JUMPI PUSH2 0xE7 JUMP JUMPDEST CALLDATASIZE PUSH2 0xE7 JUMPI STOP JUMPDEST PUSH0 PUSH0 REVERT JUMPDEST CALLVALUE DUP1 ISZERO PUSH2 0xF6 JUMPI PUSH0 PUSH0 REVERT JUMPDEST POP PUSH2 0x111 PUSH1 0x4 DUP1 CALLDATASIZE SUB DUP2 ADD SWAP1 PUSH2 0x10C SWAP2 SWAP1 PUSH2 0xB52 JUMP JUMPDEST PUSH2 0x353 JUMP JUMPDEST PUSH1 0x40 MLOAD PUSH2 0x11E SWAP2 SWAP1 PUSH2 0xB95 JUMP JUMPDEST PUSH1 0x40 MLOAD DUP1 SWAP2 SUB SWAP1 RETURN JUMPDEST CALLVALUE DUP1 ISZERO PUSH2 0x132 JUMPI PUSH0 PUSH0 REVERT JUMPDEST POP PUSH2 0x13B PUSH2 0x377 JUMP JUMPDEST PUSH1 0x40 MLOAD PUSH2 0x148 SWAP2 SWAP1 PUSH2 0xB95 JUMP JUMPDEST PUSH1 0x40 MLOAD DUP1 SWAP2 SUB SWAP1 RETURN JUMPDEST CALLVALUE DUP1 ISZERO PUSH2 0x15C JUMPI PUSH0 PUSH0 REVERT JUMPDEST POP PUSH2 0x177 PUSH1 0x4 DUP1 CALLDATASIZE SUB DUP2 ADD SWAP1 PUSH2 0x172 SWAP2 SWAP1 PUSH2 0xC08 JUMP JUMPDEST PUSH2 0x3A8 JUMP JUMPDEST STOP JUMPDEST CALLVALUE DUP1 ISZERO PUSH2 0x184 JUMPI PUSH0 PUSH0 REVERT JUMPDEST POP PUSH2 0x18D PUSH2 0x46B JUMP JUMPDEST STOP JUMPDEST CALLVALUE DUP1 ISZERO PUSH2 0x19A JUMPI PUSH0 PUSH0 REVERT JUMPDEST POP PUSH2 0x1B5 PUSH1 0x4 DUP1 CALLDATASIZE SUB DUP2 ADD SWAP1 PUSH2 0x1B0 SWAP2 SWAP1 PUSH2 0xC33 JUMP JUMPDEST PUSH2 0x47E JUMP JUMPDEST PUSH1 0x40 MLOAD PUSH2 0x1C2 SWAP2 SWAP1 PUSH2 0xB95 JUMP JUMPDEST PUSH1 0x40 MLOAD DUP1 SWAP2 SUB SWAP1 RETURN JUMPDEST CALLVALUE DUP1 ISZERO PUSH2 0x1D6 JUMPI PUSH0 PUSH0 REVERT JUMPDEST POP PUSH2 0x1DF PUSH2 0x51B JUMP JUMPDEST STOP JUMPDEST CALLVALUE DUP1 ISZERO PUSH2 0x1EC JUMPI PUSH0 PUSH0 REVERT JUMPDEST POP PUSH2 0x1F5 PUSH2 0x589 JUMP JUMPDEST PUSH1 0x40 MLOAD PUSH2 0x202 SWAP2 SWAP1 PUSH2 0xC80 JUMP JUMPDEST PUSH1 0x40 MLOAD DUP1 SWAP2 SUB SWAP1 RETURN JUMPDEST CALLVALUE DUP1 ISZERO PUSH2 0x216 JUMPI PUSH0 PUSH0 REVERT JUMPDEST POP PUSH2 0x21F PUSH2 0x5B0 JUMP JUMPDEST PUSH1 0x40 MLOAD PUSH2 0x22C SWAP2 SWAP1 PUSH2 0xB95 JUMP JUMPDEST PUSH1 0x40 MLOAD DUP1 SWAP2 SUB SWAP1 RETURN JUMPDEST CALLVALUE DUP1 ISZERO PUSH2 0x240 JUMPI PUSH0 PUSH0 REVERT JUMPDEST POP PUSH2 0x25B PUSH1 0x4 DUP1 CALLDATASIZE SUB DUP2 ADD SWAP1 PUSH2 0x256 SWAP2 SWAP1 PUSH2 0xC08 JUMP JUMPDEST PUSH2 0x5B9 JUMP JUMPDEST PUSH1 0x40 MLOAD PUSH2 0x268 SWAP2 SWAP1 PUSH2 0xB95 JUMP JUMPDEST PUSH1 0x40 MLOAD DUP1 SWAP2 SUB SWAP1 RETURN JUMPDEST CALLVALUE DUP1 ISZERO PUSH2 0x27C JUMPI PUSH0 PUSH0 REVERT JUMPDEST POP PUSH2 0x297 PUSH1 0x4 DUP1 CALLDATASIZE SUB DUP2 ADD SWAP1 PUSH2 0x292 SWAP2 SWAP1 PUSH2 0xC08 JUMP JUMPDEST PUSH2 0x5FF JUMP JUMPDEST PUSH1 0x40 MLOAD PUSH2 0x2A4 SWAP2 SWAP1 PUSH2 0xB95 JUMP JUMPDEST PUSH1 0x40 MLOAD DUP1 SWAP2 SUB SWAP1 RETURN JUMPDEST CALLVALUE DUP1 ISZERO PUSH2 0x2B8 JUMPI PUSH0 PUSH0 REVERT JUMPDEST POP PUSH2 0x2C1 PUSH2 0x624 JUMP JUMPDEST PUSH1 0x40 MLOAD PUSH2 0x2CE SWAP2 SWAP1 PUSH2 0xB95 JUMP JUMPDEST PUSH1 0x40 MLOAD DUP1 SWAP2 SUB SWAP1 RETURN JUMPDEST CALLVALUE DUP1 ISZERO PUSH2 0x2E2 JUMPI PUSH0 PUSH0 REVERT JUMPDEST POP PUSH2 0x2EB PUSH2 0x655 JUMP JUMPDEST PUSH1 0x40 MLOAD PUSH2 0x2F8 SWAP2 SWAP1 PUSH2 0xB95 JUMP JUMPDEST PUSH1 0x40 MLOAD DUP1 SWAP2 SUB SWAP1 RETURN JUMPDEST CALLVALUE DUP1 ISZERO PUSH2 0x30C JUMPI PUSH0 PUSH0 REVERT JUMPDEST POP PUSH2 0x327 PUSH1 0x4 DUP1 CALLDATASIZE SUB DUP2 ADD SWAP1 PUSH2 0x322 SWAP2 SWAP1 PUSH2 0xC08 JUMP JUMPDEST PUSH2 0x675 JUMP JUMPDEST STOP JUMPDEST CALLVALUE DUP1 ISZERO PUSH2 0x334 JUMPI PUSH0 PUSH0 REVERT JUMPDEST POP PUSH2 0x33D PUSH2 0x6F9 JUMP JUMPDEST PUSH1 0x40 MLOAD PUSH2 0x34A SWAP2 SWAP1 PUSH2 0xB95 JUMP JUMPDEST PUSH1 0x40 MLOAD DUP1 SWAP2 SUB SWAP1 RETURN JUMPDEST PUSH0 PUSH2 0x370 PUSH2 0x35F PUSH2 0x5B0 JUMP JUMPDEST SELFBALANCE PUSH2 0x36A SWAP2 SWAP1 PUSH2 0xCC6 JUMP JUMPDEST DUP4 PUSH2 0x71A JUMP JUMPDEST SWAP1 POP SWAP2 SWAP1 POP JUMP JUMPDEST PUSH0 PUSH32 0x0 PUSH8 0xFFFFFFFFFFFFFFFF AND SWAP1 POP SWAP1 JUMP JUMPDEST PUSH0 PUSH2 0x3B2 DUP3 PUSH2 0x5FF JUMP JUMPDEST SWAP1 POP DUP1 PUSH1 0x2 PUSH0 DUP5 PUSH20 0xFFFFFFFFFFFFFFFFFFFFFFFFFFFFFFFFFFFFFFFF AND PUSH20 0xFFFFFFFFFFFFFFFFFFFFFFFFFFFFFFFFFFFFFFFF AND DUP2 MSTORE PUSH1 0x20 ADD SWAP1 DUP2 MSTORE PUSH1 0x20 ADD PUSH0 KECCAK256 PUSH0 DUP3 DUP3 SLOAD PUSH2 0x400 SWAP2 SWAP1 PUSH2 0xCC6 JUMP JUMPDEST SWAP3 POP POP DUP2 SWAP1 SSTORE POP DUP2 PUSH20 0xFFFFFFFFFFFFFFFFFFFFFFFFFFFFFFFFFFFFFFFF AND PUSH32 0xC0E523490DD523C33B1878C9EB14FF46991E3F5B2CD33710918618F2A39CBA1B DUP3 PUSH1 0x40 MLOAD PUSH2 0x44D SWAP2 SWAP1 PUSH2 0xB95 JUMP JUMPDEST PUSH1 0x40 MLOAD DUP1 SWAP2 SUB SWAP1 LOG2 PUSH2 0x467 DUP3 PUSH2 0x461 PUSH2 0x589 JUMP JUMPDEST DUP4 PUSH2 0x79F JUMP JUMPDEST POP POP JUMP JUMPDEST PUSH2 0x473 PUSH2 0x81E JUMP JUMPDEST PUSH2 0x47C PUSH0 PUSH2 0x8A5 JUMP JUMPDEST JUMP JUMPDEST PUSH0 PUSH2 0x513 PUSH2 0x48B DUP5 PUSH2 0x5B9 JUMP JUMPDEST DUP5 PUSH20 0xFFFFFFFFFFFFFFFFFFFFFFFFFFFFFFFFFFFFFFFF AND PUSH4 0x70A08231 ADDRESS PUSH1 0x40 MLOAD DUP3 PUSH4 0xFFFFFFFF AND PUSH1 0xE0 SHL DUP2 MSTORE PUSH1 0x4 ADD PUSH2 0x4C4 SWAP2 SWAP1 PUSH2 0xC80 JUMP JUMPDEST PUSH1 0x20 PUSH1 0x40 MLOAD DUP1 DUP4 SUB DUP2 DUP7 GAS STATICCALL ISZERO DUP1 ISZERO PUSH2 0x4DF JUMPI RETURNDATASIZE PUSH0 PUSH0 RETURNDATACOPY RETURNDATASIZE PUSH0 REVERT JUMPDEST POP POP POP POP PUSH1 0x40 MLOAD RETURNDATASIZE PUSH1 0x1F NOT PUSH1 0x1F DUP3 ADD AND DUP3 ADD DUP1 PUSH1 0x40 MSTORE POP DUP2 ADD SWAP1 PUSH2 0x503 SWAP2 SWAP1 PUSH2 0xD23 JUMP JUMPDEST PUSH2 0x50D SWAP2 SWAP1 PUSH2 0xCC6 JUMP JUMPDEST DUP4 PUSH2 0x71A JUMP JUMPDEST SWAP1 POP SWAP3 SWAP2 POP POP JUMP JUMPDEST PUSH0 PUSH2 0x524 PUSH2 0x6F9 JUMP JUMPDEST SWAP1 POP DUP1 PUSH1 0x1 PUSH0 DUP3 DUP3 SLOAD PUSH2 0x537 SWAP2 SWAP1 PUSH2 0xCC6 JUMP JUMPDEST SWAP3 POP POP DUP2 SWAP1 SSTORE POP PUSH32 0xDA9D4E5F101B8B9B1C5B76D0C5A9F7923571ACFC02376AA076B75A8C080C956B DUP2 PUSH1 0x40 MLOAD PUSH2 0x56D SWAP2 SWAP1 PUSH2 0xB95 JUMP JUMPDEST PUSH1 0x40 MLOAD DUP1 SWAP2 SUB SWAP1 LOG1 PUSH2 0x586 PUSH2 0x580 PUSH2 0x589 JUMP JUMPDEST DUP3 PUSH2 0x966 JUMP JUMPDEST POP JUMP JUMPDEST PUSH0 PUSH0 PUSH0 SWAP1 SLOAD SWAP1 PUSH2 0x100 EXP SWAP1 DIV PUSH20 0xFFFFFFFFFFFFFFFFFFFFFFFFFFFFFFFFFFFFFFFF AND SWAP1 POP SWAP1 JUMP JUMPDEST PUSH0 PUSH1 0x1 SLOAD SWAP1 POP SWAP1 JUMP JUMPDEST PUSH0 PUSH1 0x2 PUSH0 DUP4 PUSH20 0xFFFFFFFFFFFFFFFFFFFFFFFFFFFFFFFFFFFFFFFF AND PUSH20 0xFFFFFFFFFFFFFFFFFFFFFFFFFFFFFFFFFFFFFFFF AND DUP2 MSTORE PUSH1 0x20 ADD SWAP1 DUP2 MSTORE PUSH1 0x20 ADD PUSH0 KECCAK256 SLOAD SWAP1 POP SWAP2 SWAP1 POP JUMP JUMPDEST PUSH0 PUSH2 0x609 DUP3 PUSH2 0x5B9 JUMP JUMPDEST PUSH2 0x613 DUP4 TIMESTAMP PUSH2 0x47E JUMP JUMPDEST PUSH2 0x61D SWAP2 SWAP1 PUSH2 0xD4E JUMP JUMPDEST SWAP1 POP SWAP2 SWAP1 POP JUMP JUMPDEST PUSH0 PUSH32 0x0 PUSH8 0xFFFFFFFFFFFFFFFF AND SWAP1 POP SWAP1 JUMP JUMPDEST PUSH0 PUSH2 0x65E PUSH2 0x377 JUMP JUMPDEST PUSH2 0x666 PUSH2 0x624 JUMP JUMPDEST PUSH2 0x670 SWAP2 SWAP1 PUSH2 0xCC6 JUMP JUMPDEST SWAP1 POP SWAP1 JUMP JUMPDEST PUSH2 0x67D PUSH2 0x81E JUMP JUMPDEST PUSH0 PUSH20 0xFFFFFFFFFFFFFFFFFFFFFFFFFFFFFFFFFFFFFFFF AND DUP2 PUSH20 0xFFFFFFFFFFFFFFFFFFFFFFFFFFFFFFFFFFFFFFFF AND SUB PUSH2 0x6ED JUMPI PUSH0 PUSH1 0x40 MLOAD PUSH32 0x1E4FBDF700000000000000000000000000000000000000000000000000000000 DUP2 MSTORE PUSH1 0x4 ADD PUSH2 0x6E4 SWAP2 SWAP1 PUSH2 0xC80 JUMP JUMPDEST PUSH1 0x40 MLOAD DUP1 SWAP2 SUB SWAP1 REVERT JUMPDEST PUSH2 0x6F6 DUP2 PUSH2 0x8A5 JUMP JUMPDEST POP JUMP JUMPDEST PUSH0 PUSH2 0x702 PUSH2 0x5B0 JUMP JUMPDEST PUSH2 0x70B TIMESTAMP PUSH2 0x353 JUMP JUMPDEST PUSH2 0x715 SWAP2 SWAP1 PUSH2 0xD4E JUMP JUMPDEST SWAP1 POP SWAP1 JUMP JUMPDEST PUSH0 PUSH2 0x723 PUSH2 0x624 JUMP JUMPDEST DUP3 PUSH8 0xFFFFFFFFFFFFFFFF AND LT ISZERO PUSH2 0x73C JUMPI PUSH0 SWAP1 POP PUSH2 0x799 JUMP JUMPDEST PUSH2 0x744 PUSH2 0x655 JUMP JUMPDEST DUP3 PUSH8 0xFFFFFFFFFFFFFFFF AND LT PUSH2 0x75C JUMPI DUP3 SWAP1 POP PUSH2 0x799 JUMP JUMPDEST PUSH2 0x764 PUSH2 0x377 JUMP JUMPDEST PUSH2 0x76C PUSH2 0x624 JUMP JUMPDEST DUP4 PUSH8 0xFFFFFFFFFFFFFFFF AND PUSH2 0x781 SWAP2 SWAP1 PUSH2 0xD4E JUMP JUMPDEST DUP5 PUSH2 0x78C SWAP2 SWAP1 PUSH2 0xD81 JUMP JUMPDEST PUSH2 0x796 SWAP2 SWAP1 PUSH2 0xDEF JUMP JUMPDEST SWAP1 POP JUMPDEST SWAP3 SWAP2 POP POP JUMP JUMPDEST PUSH2 0x819 DUP4 DUP5 PUSH20 0xFFFFFFFFFFFFFFFFFFFFFFFFFFFFFFFFFFFFFFFF AND PUSH4 0xA9059CBB DUP6 DUP6 PUSH1 0x40 MLOAD PUSH1 0x24 ADD PUSH2 0x7D2 SWAP3 SWAP2 SWAP1 PUSH2 0xE1F JUMP JUMPDEST PUSH1 0x40 MLOAD PUSH1 0x20 DUP2 DUP4 SUB SUB DUP2 MSTORE SWAP1 PUSH1 0x40 MSTORE SWAP2 POP PUSH1 0xE0 SHL PUSH1 0x20 DUP3 ADD DUP1 MLOAD PUSH28 0xFFFFFFFFFFFFFFFFFFFFFFFFFFFFFFFFFFFFFFFFFFFFFFFFFFFFFFFF DUP4 DUP2 DUP4 AND OR DUP4 MSTORE POP POP POP POP PUSH2 0xA2C JUMP JUMPDEST POP POP POP JUMP JUMPDEST PUSH2 0x826 PUSH2 0xAC7 JUMP JUMPDEST PUSH20 0xFFFFFFFFFFFFFFFFFFFFFFFFFFFFFFFFFFFFFFFF AND PUSH2 0x844 PUSH2 0x589 JUMP JUMPDEST PUSH20 0xFFFFFFFFFFFFFFFFFFFFFFFFFFFFFFFFFFFFFFFF AND EQ PUSH2 0x8A3 JUMPI PUSH2 0x867 PUSH2 0xAC7 JUMP JUMPDEST PUSH1 0x40 MLOAD PUSH32 0x118CDAA700000000000000000000000000000000000000000000000000000000 DUP2 MSTORE PUSH1 0x4 ADD PUSH2 0x89A SWAP2 SWAP1 PUSH2 0xC80 JUMP JUMPDEST PUSH1 0x40 MLOAD DUP1 SWAP2 SUB SWAP1 REVERT JUMPDEST JUMP JUMPDEST PUSH0 PUSH0 PUSH0 SWAP1 SLOAD SWAP1 PUSH2 0x100 EXP SWAP1 DIV PUSH20 0xFFFFFFFFFFFFFFFFFFFFFFFFFFFFFFFFFFFFFFFF AND SWAP1 POP DUP2 PUSH0 PUSH0 PUSH2 0x100 EXP DUP2 SLOAD DUP2 PUSH20 0xFFFFFFFFFFFFFFFFFFFFFFFFFFFFFFFFFFFFFFFF MUL NOT AND SWAP1 DUP4 PUSH20 0xFFFFFFFFFFFFFFFFFFFFFFFFFFFFFFFFFFFFFFFF AND MUL OR SWAP1 SSTORE POP DUP2 PUSH20 0xFFFFFFFFFFFFFFFFFFFFFFFFFFFFFFFFFFFFFFFF AND DUP2 PUSH20 0xFFFFFFFFFFFFFFFFFFFFFFFFFFFFFFFFFFFFFFFF AND PUSH32 0x8BE0079C531659141344CD1FD0A4F28419497F9722A3DAAFE3B4186F6B6457E0 PUSH1 0x40 MLOAD PUSH1 0x40 MLOAD DUP1 SWAP2 SUB SWAP1 LOG3 POP POP JUMP JUMPDEST DUP1 SELFBALANCE LT ISZERO PUSH2 0x9AD JUMPI SELFBALANCE DUP2 PUSH1 0x40 MLOAD PUSH32 0xCF47918100000000000000000000000000000000000000000000000000000000 DUP2 MSTORE PUSH1 0x4 ADD PUSH2 0x9A4 SWAP3 SWAP2 SWAP1 PUSH2 0xE46 JUMP JUMPDEST PUSH1 0x40 MLOAD DUP1 SWAP2 SUB SWAP1 REVERT JUMPDEST PUSH0 PUSH0 DUP4 PUSH20 0xFFFFFFFFFFFFFFFFFFFFFFFFFFFFFFFFFFFFFFFF AND DUP4 PUSH1 0x40 MLOAD PUSH2 0x9D3 SWAP1 PUSH2 0xE9A JUMP JUMPDEST PUSH0 PUSH1 0x40 MLOAD DUP1 DUP4 SUB DUP2 DUP6 DUP8 GAS CALL SWAP3 POP POP POP RETURNDATASIZE DUP1 PUSH0 DUP2 EQ PUSH2 0xA0D JUMPI PUSH1 0x40 MLOAD SWAP2 POP PUSH1 0x1F NOT PUSH1 0x3F RETURNDATASIZE ADD AND DUP3 ADD PUSH1 0x40 MSTORE RETURNDATASIZE DUP3 MSTORE RETURNDATASIZE PUSH0 PUSH1 0x20 DUP5 ADD RETURNDATACOPY PUSH2 0xA12 JUMP JUMPDEST PUSH1 0x60 SWAP2 POP JUMPDEST POP SWAP2 POP SWAP2 POP DUP2 PUSH2 0xA26 JUMPI PUSH2 0xA25 DUP2 PUSH2 0xACE JUMP JUMPDEST JUMPDEST POP POP POP POP JUMP JUMPDEST PUSH0 PUSH0 PUSH1 0x20 PUSH0 DUP5 MLOAD PUSH1 0x20 DUP7 ADD PUSH0 DUP9 GAS CALL DUP1 PUSH2 0xA4B JUMPI PUSH1 0x40 MLOAD RETURNDATASIZE PUSH0 DUP3 RETURNDATACOPY RETURNDATASIZE DUP2 REVERT JUMPDEST RETURNDATASIZE SWAP3 POP PUSH0 MLOAD SWAP2 POP POP PUSH0 DUP3 EQ PUSH2 0xA64 JUMPI PUSH1 0x1 DUP2 EQ ISZERO PUSH2 0xA7F JUMP JUMPDEST PUSH0 DUP5 PUSH20 0xFFFFFFFFFFFFFFFFFFFFFFFFFFFFFFFFFFFFFFFF AND EXTCODESIZE EQ JUMPDEST ISZERO PUSH2 0xAC1 JUMPI DUP4 PUSH1 0x40 MLOAD PUSH32 0x5274AFE700000000000000000000000000000000000000000000000000000000 DUP2 MSTORE PUSH1 0x4 ADD PUSH2 0xAB8 SWAP2 SWAP1 PUSH2 0xC80 JUMP JUMPDEST PUSH1 0x40 MLOAD DUP1 SWAP2 SUB SWAP1 REVERT JUMPDEST POP POP POP POP JUMP JUMPDEST PUSH0 CALLER SWAP1 POP SWAP1 JUMP JUMPDEST PUSH0 DUP2 MLOAD GT ISZERO PUSH2 0xADF JUMPI DUP1 MLOAD PUSH1 0x20 DUP3 ADD REVERT JUMPDEST PUSH1 0x40 MLOAD PUSH32 0xD6BDA27500000000000000000000000000000000000000000000000000000000 DUP2 MSTORE PUSH1 0x4 ADD PUSH1 0x40 MLOAD DUP1 SWAP2 SUB SWAP1 REVERT JUMPDEST PUSH0 PUSH0 REVERT JUMPDEST PUSH0 PUSH8 0xFFFFFFFFFFFFFFFF DUP3 AND SWAP1 POP SWAP2 SWAP1 POP JUMP JUMPDEST PUSH2 0xB31 DUP2 PUSH2 0xB15 JUMP JUMPDEST DUP2 EQ PUSH2 0xB3B JUMPI PUSH0 PUSH0 REVERT JUMPDEST POP JUMP JUMPDEST PUSH0 DUP2 CALLDATALOAD SWAP1 POP PUSH2 0xB4C DUP2 PUSH2 0xB28 JUMP JUMPDEST SWAP3 SWAP2 POP POP JUMP JUMPDEST PUSH0 PUSH1 0x20 DUP3 DUP5 SUB SLT ISZERO PUSH2 0xB67 JUMPI PUSH2 0xB66 PUSH2 0xB11 JUMP JUMPDEST JUMPDEST PUSH0 PUSH2 0xB74 DUP5 DUP3 DUP6 ADD PUSH2 0xB3E JUMP JUMPDEST SWAP2 POP POP SWAP3 SWAP2 POP POP JUMP JUMPDEST PUSH0 DUP2 SWAP1 POP SWAP2 SWAP1 POP JUMP JUMPDEST PUSH2 0xB8F DUP2 PUSH2 0xB7D JUMP JUMPDEST DUP3 MSTORE POP POP JUMP JUMPDEST PUSH0 PUSH1 0x20 DUP3 ADD SWAP1 POP PUSH2 0xBA8 PUSH0 DUP4 ADD DUP5 PUSH2 0xB86 JUMP JUMPDEST SWAP3 SWAP2 POP POP JUMP JUMPDEST PUSH0 PUSH20 0xFFFFFFFFFFFFFFFFFFFFFFFFFFFFFFFFFFFFFFFF DUP3 AND SWAP1 POP SWAP2 SWAP1 POP JUMP JUMPDEST PUSH0 PUSH2 0xBD7 DUP3 PUSH2 0xBAE JUMP JUMPDEST SWAP1 POP SWAP2 SWAP1 POP JUMP JUMPDEST PUSH2 0xBE7 DUP2 PUSH2 0xBCD JUMP JUMPDEST DUP2 EQ PUSH2 0xBF1 JUMPI PUSH0 PUSH0 REVERT JUMPDEST POP JUMP JUMPDEST PUSH0 DUP2 CALLDATALOAD SWAP1 POP PUSH2 0xC02 DUP2 PUSH2 0xBDE JUMP JUMPDEST SWAP3 SWAP2 POP POP JUMP JUMPDEST PUSH0 PUSH1 0x20 DUP3 DUP5 SUB SLT ISZERO PUSH2 0xC1D JUMPI PUSH2 0xC1C PUSH2 0xB11 JUMP JUMPDEST JUMPDEST PUSH0 PUSH2 0xC2A DUP5 DUP3 DUP6 ADD PUSH2 0xBF4 JUMP JUMPDEST SWAP2 POP POP SWAP3 SWAP2 POP POP JUMP JUMPDEST PUSH0 PUSH0 PUSH1 0x40 DUP4 DUP6 SUB SLT ISZERO PUSH2 0xC49 JUMPI PUSH2 0xC48 PUSH2 0xB11 JUMP JUMPDEST JUMPDEST PUSH0 PUSH2 0xC56 DUP6 DUP3 DUP7 ADD PUSH2 0xBF4 JUMP JUMPDEST SWAP3 POP POP PUSH1 0x20 PUSH2 0xC67 DUP6 DUP3 DUP7 ADD PUSH2 0xB3E JUMP JUMPDEST SWAP2 POP POP SWAP3 POP SWAP3 SWAP1 POP JUMP JUMPDEST PUSH2 0xC7A DUP2 PUSH2 0xBCD JUMP JUMPDEST DUP3 MSTORE POP POP JUMP JUMPDEST PUSH0 PUSH1 0x20 DUP3 ADD SWAP1 POP PUSH2 0xC93 PUSH0 DUP4 ADD DUP5 PUSH2 0xC71 JUMP JUMPDEST SWAP3 SWAP2 POP POP JUMP JUMPDEST PUSH32 0x4E487B7100000000000000000000000000000000000000000000000000000000 PUSH0 MSTORE PUSH1 0x11 PUSH1 0x4 MSTORE PUSH1 0x24 PUSH0 REVERT JUMPDEST PUSH0 PUSH2 0xCD0 DUP3 PUSH2 0xB7D JUMP JUMPDEST SWAP2 POP PUSH2 0xCDB DUP4 PUSH2 0xB7D JUMP JUMPDEST SWAP3 POP DUP3 DUP3 ADD SWAP1 POP DUP1 DUP3 GT ISZERO PUSH2 0xCF3 JUMPI PUSH2 0xCF2 PUSH2 0xC99 JUMP JUMPDEST JUMPDEST SWAP3 SWAP2 POP POP JUMP JUMPDEST PUSH2 0xD02 DUP2 PUSH2 0xB7D JUMP JUMPDEST DUP2 EQ PUSH2 0xD0C JUMPI PUSH0 PUSH0 REVERT JUMPDEST POP JUMP JUMPDEST PUSH0 DUP2 MLOAD SWAP1 POP PUSH2 0xD1D DUP2 PUSH2 0xCF9 JUMP JUMPDEST SWAP3 SWAP2 POP POP JUMP JUMPDEST PUSH0 PUSH1 0x20 DUP3 DUP5 SUB SLT ISZERO PUSH2 0xD38 JUMPI PUSH2 0xD37 PUSH2 0xB11 JUMP JUMPDEST JUMPDEST PUSH0 PUSH2 0xD45 DUP5 DUP3 DUP6 ADD PUSH2 0xD0F JUMP JUMPDEST SWAP2 POP POP SWAP3 SWAP2 POP POP JUMP JUMPDEST PUSH0 PUSH2 0xD58 DUP3 PUSH2 0xB7D JUMP JUMPDEST SWAP2 POP PUSH2 0xD63 DUP4 PUSH2 0xB7D JUMP JUMPDEST SWAP3 POP DUP3 DUP3 SUB SWAP1 POP DUP2 DUP2 GT ISZERO PUSH2 0xD7B JUMPI PUSH2 0xD7A PUSH2 0xC99 JUMP JUMPDEST JUMPDEST SWAP3 SWAP2 POP POP JUMP JUMPDEST PUSH0 PUSH2 0xD8B DUP3 PUSH2 0xB7D JUMP JUMPDEST SWAP2 POP PUSH2 0xD96 DUP4 PUSH2 0xB7D JUMP JUMPDEST SWAP3 POP DUP3 DUP3 MUL PUSH2 0xDA4 DUP2 PUSH2 0xB7D JUMP JUMPDEST SWAP2 POP DUP3 DUP3 DIV DUP5 EQ DUP4 ISZERO OR PUSH2 0xDBB JUMPI PUSH2 0xDBA PUSH2 0xC99 JUMP JUMPDEST JUMPDEST POP SWAP3 SWAP2 POP POP JUMP JUMPDEST PUSH32 0x4E487B7100000000000000000000000000000000000000000000000000000000 PUSH0 MSTORE PUSH1 0x12 PUSH1 0x4 MSTORE PUSH1 0x24 PUSH0 REVERT JUMPDEST PUSH0 PUSH2 0xDF9 DUP3 PUSH2 0xB7D JUMP JUMPDEST SWAP2 POP PUSH2 0xE04 DUP4 PUSH2 0xB7D JUMP JUMPDEST SWAP3 POP DUP3 PUSH2 0xE14 JUMPI PUSH2 0xE13 PUSH2 0xDC2 JUMP JUMPDEST JUMPDEST DUP3 DUP3 DIV SWAP1 POP SWAP3 SWAP2 POP POP JUMP JUMPDEST PUSH0 PUSH1 0x40 DUP3 ADD SWAP1 POP PUSH2 0xE32 PUSH0 DUP4 ADD DUP6 PUSH2 0xC71 JUMP JUMPDEST PUSH2 0xE3F PUSH1 0x20 DUP4 ADD DUP5 PUSH2 0xB86 JUMP JUMPDEST SWAP4 SWAP3 POP POP POP JUMP JUMPDEST PUSH0 PUSH1 0x40 DUP3 ADD SWAP1 POP PUSH2 0xE59 PUSH0 DUP4 ADD DUP6 PUSH2 0xB86 JUMP JUMPDEST PUSH2 0xE66 PUSH1 0x20 DUP4 ADD DUP5 PUSH2 0xB86 JUMP JUMPDEST SWAP4 SWAP3 POP POP POP JUMP JUMPDEST PUSH0 DUP2 SWAP1 POP SWAP3 SWAP2 POP POP JUMP JUMPDEST POP JUMP JUMPDEST PUSH0 PUSH2 0xE85 PUSH0 DUP4 PUSH2 0xE6D JUMP JUMPDEST SWAP2 POP PUSH2 0xE90 DUP3 PUSH2 0xE77 JUMP JUMPDEST PUSH0 DUP3 ADD SWAP1 POP SWAP2 SWAP1 POP JUMP JUMPDEST PUSH0 PUSH2 0xEA4 DUP3 PUSH2 0xE7A JUMP JUMPDEST SWAP2 POP DUP2 SWAP1 POP SWAP2 SWAP1 POP JUMP INVALID LOG2 PUSH5 0x6970667358 0x22 SLT KECCAK256 EXTCODEHASH SWAP9 PUSH12 0xAAD5BB9BFB50C180A8AD9980 SLT CALLER DUP4 0xCC TIMESTAMP RJUMP 0xE30C PUSH29 0xBB74B069C5C6A73464736F6C63430008210033A2646970667358221220 PREVRANDAO ADD EXTCODECOPY MSIZE 0xB1 SUB ORIGIN 0xBA DELEGATECALL 0xF6 DUP16 0xB6 NUMBER TSTORE EXP 0xBB DUP9 CALL SLT 0xC4 SIGNEXTEND PUSH17 0xA179D4ED7B3DE26DB59864736F6C634300 ADDMOD 0x21 STOP CALLER "
				},
				"gasEstimates": {
					"creation": {
						"codeDepositCost": "1768400",
						"executionCost": "infinite",
						"totalCost": "infinite"
					},
					"external": {
						"createVesting(address,uint64,uint64,string)": "infinite",
						"deployedVestings(uint256)": "infinite",
						"getVestingCount()": "2441",
						"getVestingInfo(uint256)": "infinite",
						"owner()": "2536",
						"renounceOwnership()": "infinite",
						"transferOwnership(address)": "infinite"
					}
				},
				"methodIdentifiers": {
					"createVesting(address,uint64,uint64,string)": "36ac4aa8",
					"deployedVestings(uint256)": "edb5f73e",
					"getVestingCount()": "0e246273",
					"getVestingInfo(uint256)": "20f6b0a9",
					"owner()": "8da5cb5b",
					"renounceOwnership()": "715018a6",
					"transferOwnership(address)": "f2fde38b"
				}
			},
			"storageLayout": {
				"storage": [
					{
						"astId": 8,
						"contract": "kash_vesting.sol:KashVestingFactory",
						"label": "_owner",
						"offset": 0,
						"slot": "0",
						"type": "t_address"
					},
					{
						"astId": 1451,
						"contract": "kash_vesting.sol:KashVestingFactory",
						"label": "deployedVestings",
						"offset": 0,
						"slot": "1",
						"type": "t_array(t_struct(VestingInfo)1447_storage)dyn_storage"
					}
				],
				"types": {
					"t_address": {
						"encoding": "inplace",
						"label": "address",
						"numberOfBytes": "20"
					},
					"t_array(t_struct(VestingInfo)1447_storage)dyn_storage": {
						"base": "t_struct(VestingInfo)1447_storage",
						"encoding": "dynamic_array",
						"label": "struct KashVestingFactory.VestingInfo[]",
						"numberOfBytes": "32"
					},
					"t_string_storage": {
						"encoding": "bytes",
						"label": "string",
						"numberOfBytes": "32"
					},
					"t_struct(VestingInfo)1447_storage": {
						"encoding": "inplace",
						"label": "struct KashVestingFactory.VestingInfo",
						"members": [
							{
								"astId": 1442,
								"contract": "kash_vesting.sol:KashVestingFactory",
								"label": "walletAddress",
								"offset": 0,
								"slot": "0",
								"type": "t_address"
							},
							{
								"astId": 1444,
								"contract": "kash_vesting.sol:KashVestingFactory",
								"label": "beneficiary",
								"offset": 0,
								"slot": "1",
								"type": "t_address"
							},
							{
								"astId": 1446,
								"contract": "kash_vesting.sol:KashVestingFactory",
								"label": "category",
								"offset": 0,
								"slot": "2",
								"type": "t_string_storage"
							}
						],
						"numberOfBytes": "96"
					}
				}
			},
			"userdoc": {
				"kind": "user",
				"methods": {},
				"version": 1
			}
		}
	}
}